:020000040800F2
:100000004005002045010008FD1B0008D11800082C
:10001000E919000831060008551F0008000000001B
:10002000000000000000000000000000211C00088B
:1000300033060008000000001F1C0008231C0008F5
:100040005F0100085F0100085F0100085F01000810
:100050005F0100085F0100085F0100085F01000800
:100060005F0100085F0100085F0100085F010008F0
:100070005F0100085F0100085F0100085F010008E0
:100080005F0100085F0100085F0100085F010008D0
:100090005F0100085F0100085F0100085F010008C0
:1000A0005F0100085F0100085F0100085F010008B0
:1000B000E11C00085F0100085F0100085F01000803
:1000C0005F0100085F0100085F0100085F01000890
:1000D0005F0100085F0100085F0100085F01000880
:1000E0005F0100085F0100085F0100085F01000870
:1000F0005F0100085F0100085F0100085F01000860
:100100005F0100085F0100085F0100085F0100084F
:100110005F0100085F0100085F0100085F0100083F
:100120005F0100085F0100085F0100085F0100082F
:10013000DFF80CD000F06AFA0048004705210008FB
:10014000400500200648804706480047FEE7FEE7D6
:10015000FEE7FEE7FEE7FEE7FEE7FEE7FEE7FEE777
:10016000991C000831010008202A04DB203A21FAFA
:1001700002F00021704721FA02F3D040C2F12002C0
:1001800091400843194670472DE9FE4F804681EAA9
:100190000300C00F0C46009021F0004123F0004501
:1001A000B8EB0200A94105D24046214690461C46C4
:1001B0000B46024623F00040104347D0270DC7F3FB
:1001C0000A00C3F30A510290401A019040286BDAEA
:1001D000C3F3130040F4801B0098924620B1002323
:1001E000D2EB030A63EB0B0B01985946C0F14002B6
:1001F000504600F08DF906460D4650465946019A84
:1002000000F095F910EB08006141002487EA1152D3
:1002100084EAE7731A4340D0009A62B3019A012A34
:100220004FEA075215DC001B61EB02014FF0004260
:1002300002EA0752CDE90042001C41F58011324626
:100240002B4600F095F903B0BDE8F08F40462146FB
:10025000F9E7001B61EB0201001C41F58013001857
:100260005B412018A2F5001747EB030140EAD57067
:10027000B6196D4111E06D084FEA360645EAC075C2
:100280004FEA0752001B61EB0201001C41F580118F
:1002900049084FEA30000019514132462B4603B05D
:1002A000BDE8F04F00F055B900980122400000234E
:1002B000D0EB020263EBE073009821464FEAE07452
:1002C000B8EB000061EB0401E9E783F000435BE772
:1002D00081F0004158E72DE9FE4F81EA030404F064
:1002E000004421F0004100944FF0000B23F0004344
:1002F00050EA01045ED052EA03045BD0C3F30A540F
:10030000C1F30A552C44A4F2F3340194A0FB025427
:10031000C1F3130141F48011C3F3130343F48013B9
:1003200001FB024400FB034E840A970A44EA81540D
:1003300047EA8357A4FB076802958D0A05FB0785EA
:100340004FEA932C04FB0C542705029D4FEA0658F4
:1003500047EA1637B5EB08056EEB070C870E920ED1
:1003600047EA811742EA8312A7FB0201B6EB0B01B1
:1003700064EB00042B0D43EA0C335E1844EB1C5075
:10038000DA465146E7FB0201C5F313044FEA0B338B
:1003900043EA14534FEA0432019C43EA0603A4F1F2
:1003A0000C040294009CCDE900B400F0E1F803B025
:1003B000BDE8F08F00200146F9E72DE9F04D81EA14
:1003C000030404F0004B21F0004514464FF0000AEE
:1003D00023F0004150EA050220D054EA01021DD06A
:1003E000C5F30A570246C5F31303C1F31300C1F363
:1003F0000A5640F4801543F48013A7EB0608101B3F
:10040000D64608F2FD3873EB050002D308F1010867
:1004100001E092185B41B8F1000F03DA00200146B9
:10042000BDE8F08D00204FF48011064684460EE0B2
:10043000171B73EB050705D3121B63EB050306437C
:100440004CEA010C49084FEA300092185B4150EA2F
:100450000107EDD152EA030012D082EA040083EAD8
:100460000501084305D0101BAB4106D20122002331
:1004700006E000224FF0004302E06FF0010253104B
:100480001AEB06004CEB085110EB0A0041EB0B0194
:10049000BDE8F04D00F05DB80EB540F23341029179
:1004A0000021CDE900110A460B4600F061F803B0C7
:1004B00000BDC1F30A5210B5C1F3130140F2FF337E
:1004C00041F480119A4201DA002010BD40F233431A
:1004D0009A42A2F2334203DC5242FFF745FE10BDBE
:1004E000904010BD30B50B4601460020202201246B
:1004F00009E021FA02F59D4205D303FA02F5491BF2
:1005000004FA02F52844151EA2F10102F1DC30BD07
:10051000202A04DB203A00FA02F1002070479140C3
:10052000C2F1200320FA03F3194390407047202AB8
:1005300006DBCB17203A41FA02F043EAE07306E00B
:1005400041FA02F3D040C2F120029140084319461B
:10055000704710B5141E73F1000408DA401C41F115
:10056000000192185B411A4301D120F0010010BD37
:100570002DE9F04D92469B4611B1B1FA81F202E0AD
:10058000B0FA80F220329046FFF7C2FF04460F46D1
:1005900040EA0A0041EA0B0153465A46084313D089
:1005A000114653EA010019D0C8F140025046FFF746
:1005B000DBFD05460E46504659464246FFF7A8FF6A
:1005C000084305D0012004E020463946BDE8F08DFF
:1005D0000020054346EAE0762C4337430A9863053A
:1005E000E40AA0EB08000022FD0A44EA47540A305E
:1005F00002D500200146E9E7010510196941DDE94E
:10060000084500196941BDE8F04DA2E7064C074DC9
:1006100006E0E06840F0010394E8070098471034D2
:10062000AC42F6D3FFF788FDE82100080822000855
:10063000FEE770472DE9F04789468046642418217B
:100640002A2000F0A1F8B8F1000F09D0B8F1010F8D
:100650000AD0B8F1020F0BD0B8F1030F17D10BE09D
:1006600000270126082512E00227032604250EE0B4
:100670000427052602250AE006270726012506E0AD
:1006800018212A2000F080F8641E24B28CB1284280
:10069000F6D074B139462A2000F076F804043146C9
:1006A0002A2000F071F82043C9F800000120BDE8BD
:1006B000F0870020FBE710B57F212A2000F064F8C6
:1006C000A0F54051553901D0002010BD00F082F84E
:1006D00041F288342146002000F030F92146012003
:1006E00000F02CF92146022000F028F921460320D1
:1006F00000F024F9C821002000F038F9C8210120B9
:1007000000F034F9C821022000F030F9C82103209C
:1007100000F02CF901220221002000F061F80122F2
:100720000221104600F05CF802210122084600F088
:1007300057F801220221032000F052F8012000F0B6
:10074000D0F8012000F095F8012000F081F8002099
:1007500000F0B6F805220221012000F0E0F80B219C
:10076000002000F097F80B21012000F093F80B21F6
:10077000022000F08FF80B21032000F08BF80020FE
:1007800000F00AF9012010BD70B50D46044601F0D5
:10079000CDF96006000E01F09FF901F005FA284638
:1007A00001F09AF901F000FA01F0C0F9012000EB24
:1007B0004400C0B201F090F901F0F6F9012001F017
:1007C00057F90402002001F053F9044301F0CCF979
:1007D000204670BD1C214FF400422A2000F0EDB8E5
:1007E00070B504464FF6FF7000EA0135C2F3090008
:1007F0000543144801551046FFF74EFE02460B46CE
:1008000000201149FFF7D9FD104A02EBC402C2E9EA
:10081000000164B1012C0DD0022C0ED0032C0FD19D
:100820002A461721BDE870402A2000F0C6B82A46A3
:100830001421F7E72A461521F4E72A461621F1E7A5
:1008400070BD000000000020D0128341480000204D
:1008500010B504461A212A20FFF796FF20F40072F3
:100860000CB142F400721A21BDE810402A2000F0B9
:10087000A4B810B504461A212A20FFF785FF20F4FA
:1008800000620CB142F400621A21BDE810402A2037
:1008900000F093B84FF6FF7202EAC12248B1012876
:1008A00009D0022809D0032809D121212A2000F0EB
:1008B00084B81E21FAE71F21F8E72021F6E77047E8
:1008C00010B504461A212A20FFF75EFF20F04002EF
:1008D0000CB142F040021A21BDE810402A2000F07D
:1008E0006CB810B504461A212A20FFF74DFF20F0FE
:1008F00080020CB142F080021A212A2000F05DF83B
:1009000019212A20FFF740FF20F001020CB142F02C
:1009100001021921BDE810402A2000F04EB838B17C
:10092000C00340EA4130104380B240F4027201E05B
:1009300042F402721B212A2000F03FB8FF2914D98B
:1009400050B101280BD002280CD003280DD10A4643
:100950000B212A2000F031B80A460821F9E70A469F
:100960000921F6E70A460A21F3E7704750B101284A
:100970000BD002280CD003280DD10A4613212A20BF
:1009800000F01BB80A461021F9E70A461121F6E7E4
:100990000A461221F3E7704710B504461A212A20AF
:1009A000FFF7F2FE20F400520CB142F400521A217B
:1009B000BDE810402A20AFF3008070B514460E4603
:1009C000054601F0B3F86806000E01F085F801F065
:1009D000EBF8304601F080F801F0E6F8200A01F06B
:1009E0007BF801F0E1F8E0B201F076F801F0DCF814
:1009F000BDE8704001F0B8B870B5044600F008F9E1
:100A00000546601C02D004480078044400F000F958
:100A1000401BA042FAD370BD340000202DE9F84FEE
:100A2000DFF8B8A100220AF1040B144601274FF0A9
:100A30000F090BF1040E00BF0B6807FA04F52B40F9
:100A4000AB4274D1DFF898C14E68A6EB0C0866453E
:100A50002BD00DDC032E34D005DC36B3012E19D09B
:100A6000022E2FD11BE0112E16D0122E2AD119E002
:100A7000B8F5881F19D006DCB8F5803F15D0B8F559
:100A8000801F1FD111E0B8F5001F0ED0B8F5041F6C
:100A900018D10AE0CA6815E0CA68121D12E0CA68D7
:100AA00008320FE0CA680C320CE08A682AB1012AC9
:100AB0004FF0080203D0456104E0042202E0056122
:100AC00000E00022FF2B01D8064601E000F10406F9
:100AD0004FEA840501D9A5F12005D6F800C009FA2E
:100AE00005F82CEA080C02FA05F54CEA050CC6F8E4
:100AF00000C04D68ED006AD53A4DAE6946F001067A
:100B0000AE61AD6924F0030605F001050095364D90
:100B100006EB050CDCF80850A6074FEA167809FA30
:100B200008F6B543314EB04202D100261AE04EE03D
:100B30002F4EB04201D1012614E02E4EB04201D119
:100B400002260FE02C4EB04201D103260AE02B4EC4
:100B5000B04201D1042605E0294EB04201D105265C
:100B600000E0062606FA08F62E43CCF808604D6829
:100B7000DAF80060ED03554601D51E4300E09E43C0
:100B80002E604D68AD0305D5DBF800601E43CBF841
:100B9000006004E0DBF800509D43CBF800504D6846
:100BA000DEF80060ED02754601D51E4300E09E436D
:100BB0002E604D68AD0205D5084D0C352E681E43DC
:100BC0002E6004E0054E0C3635689D433560641C8C
:100BD000102CFFF431AFBDE8F88F00000004014095
:100BE0000000111000100240000001400008014008
:100BF000000C0140001001400014014000180140A9
:100C0000001C01400AB1016170470904FBE70000C4
:100C100001488068704700003400002070B504006F
:100C20001BD094F83D00002520B984F83C502046A4
:100C300000F094F8242084F83D002068016821F039
:100C40000101016000F01CFA404A6168914201D83C
:100C50003F4900E03F49884201D2012070BD3E4932
:100C60002368B0FBF1F159606368934206D94FF4F1
:100C7000967359434FF47A73B1FBF3F12368491C1F
:100C800019626168914210D84900401EB0FBF1F230
:100C9000521CC2F30B02042A01D2042022E0B0FB52
:100CA000F1F0401CC0F30B001CE0A368CBB301EBD8
:100CB000C10202EB0116421EB2FBF6F2521C42F4D4
:100CC0008042120536D06BB301EBC10202EB011179
:100CD000401EB0FBF1F0401CC0F30B0040F480401C
:100CE00040F400402168C861D4E907010843216845
:100CF0000860D4E90310084321688860D4E905013D
:100D000008432168C8602068016841F00101016062
:100D10002564202084F83D00256384F83E5000209F
:100D200070BD00E008E001EB4106421EB2FBF6F2A6
:100D3000521CC6E70120D5E701EB4101401EB0FB84
:100D4000F1F0401CC0F30B00CAE70000A0860100D0
:100D500080841E0000093D0040420F0000B500687D
:100D60000C4985B0884212D1C02000901220019019
:100D70000320039069460848FFF750FE0748C16901
:100D800041F40011C161C06900F40010049005B085
:100D900000BD000000540040000C01400010024063
:100DA0000248816802781144816070473400002055
:100DB000074810B5016841F010010160032000F000
:100DC0009DF8002000F006F800F024F8002010BD87
:100DD0000020024070B50D4D04464FF47A7128781A
:100DE000B1FBF0F00A490968B1FBF0F000F02DFB0F
:100DF00048B9102C07D200222146501E00F05EF8A0
:100E000000206C6070BD012070BD00003400002027
:100E100040000020214808B5816941F0010181614D
:100E2000816901F001010091C16941F08051C16106
:100E3000C06900F080500090052000F05FF80022AB
:100E400011466FF00B0000F039F8002211466FF0E8
:100E50000A0000F033F8002211466FF0090000F09C
:100E60002DF800221146501F00F028F800221146EC
:100E7000101F00F023F800221146901E00F01EF80B
:100E800000221146501E00F019F80548416821F073
:100E9000E06141F08071416008BD00000010024037
:100EA0000000014000F01F02012191404009800034
:100EB00000F1E020C0F8001170470000F0B40E4BC4
:100EC0001B680C46C3F30223C3F10705042D00D9A8
:100ED0000425191D072901D2002300E0DB1E01268D
:100EE00006FA05F1491E214099409E40761E1640A3
:100EF0003143F0BC00F083BE0CED00E0064900F089
:100F0000070208684FF6FF03184040EA0220034A30
:100F100010430860704700000CED00E00000FA0587
:100F20002DE9F047DFF83C8105460E46D8F8000071
:100F300000F00700B0420CD2D8F8001021F00701F1
:100F40003143C8F80010D8F8000000F00700B042A4
:100F500063D12878444C800705D56068A96820F0E3
:100F6000F000084360602878C00745D06868012811
:100F700016D02168022816D0890700294DDA616849
:100F800021F0030101436160FFF742FE69680746F3
:100F900041F2883001290FD00229814619D027E07B
:100FA00021688903E9E78901E7E700BFFFF730FE21
:100FB000C11B494501D918E081466068C0F3810032
:100FC0000128F3D118E000BFFFF722FEC11B4945FD
:100FD0000BD86068C0F381000228F5D10CE000BF97
:100FE000FFF716FEC11B494502D90320BDE8F08773
:100FF000606810F00C0FF3D1D8F80010404601F0F3
:101000000701B1420BD9016821F0070131430160AA
:10101000006800F00700B04201D00120E6E7287820
:10102000400705D56068E96820F4E0600843606027
:101030002878000706D56068296920F4605040EAE6
:10104000C100606000F03CF86168084AC1F3031118
:10105000515CC840064908600020FFF7BBFE002035
:10106000C4E700000020024000100240D021000828
:101070004000002001480068704700004000002048
:101080000448054900684968044AC1F30221515CDB
:10109000C84070474000002000100240E0210008D6
:1010A0000448054900684968044AC1F3C221515CFB
:1010B000C84070474000002000100240E0210008B6
:1010C00012A185B00FC98DE80F0014A0144A006862
:1010D00004905168134801F00C03042B10D0082B26
:1010E0000ED1C1F38343C9031DF803000AD551682B
:1010F00004AAC1F34041515C0A4A5043B0FBF1F0ED
:1011000005B0704708494843FAE7000002030405A8
:10111000060708090A0B0C0D0E0F10100102000043
:101120000010024000127A0000093D002DE9F84F3E
:1011300004460078B94DC00748D06868C0F3810004
:10114000012807D06868C0F38100022809D16868C7
:10115000C00306D52868800338D5606800286FD0A2
:1011600034E06068B0F5803F0BD010B1B0F5A02F2F
:1011700011D0286820F480302860286820F480206E
:1011800002E0286840F480302860606888B1FFF78A
:101190003FFD064609E0286840F480202860F0E71B
:1011A000FFF736FD801B642875D828688003F7D5C3
:1011B0000CE0FFF72DFD064605E000BFFFF728FD18
:1011C000801B6428F0D828688003F7D42078944ED8
:1011D00080074FF001094FF000083BD5686810F018
:1011E0000C0F07D06868C0F38100022809D1686835
:1011F000C00306D42868800714D5206901281FD1B0
:1012000010E02069B0B1C6F80090FFF701FD074675
:1012100005E000BFFFF7FCFCC01B0228C4D828680B
:101220008007F7D52868616920F0F80040EAC1001E
:1012300028600FE0C6F80080FFF7EAFC074606E0EA
:10124000E9E000BFFFF7E4FCC01B022823D82868B0
:101250008007F7D4207800072CD57248A169D9B14E
:10126000C0F80090FFF7D4FC074604E0FFF7D0FC7D
:10127000C01B02280FD8686A8007F7D56A484FF468
:10128000FA510068B0FBF1F0009000BF0098411ED9
:101290000091FAD20EE080E0C0F80080FFF7B8FCC1
:1012A000074604E0FFF7B4FCC01B022875D8686A43
:1012B0008007F7D42078400760D5E8690027C00090
:1012C00008D4E86940F08050E861E869012700F03F
:1012D0008050009055480168C90513D401688346C1
:1012E00041F480710160FFF793FC824606E000BF85
:1012F000FFF78EFCA0EB0A0064284ED8DBF8000054
:10130000C005F5D5E06801280AD008B1052813D03A
:10131000286A20F001002862286A20F0040002E018
:10132000286A40F001002862E06841F2883B98B1E9
:10133000FFF76EFC82460BE0286A40F0040028624A
:10134000EEE700BFFFF764FCA0EB0A0159455AD84D
:10135000286A8007F6D50CE0FFF75AFC824605E0C4
:10136000FFF756FCA0EB0A0159454CD8286A8007C4
:10137000F6D41FB1E86920F08050E861E06988B3D5
:101380006968C1F38101022945D00228C6F860804E
:1013900004D0FFF73DFC044638E034E0FFF738FCAA
:1013A000074604E0FFF734FCC01B02282BD828684E
:1013B0008001F7D4206AB0F5803F05D16868A16844
:1013C00020F4003008436860D4E9080108436968E4
:1013D00021F4741108436860C6F86090FFF718FCA8
:1013E000044606E015E000BFFFF712FC001B0228D0
:1013F00009D828688001F7D50BE000BFFFF708FC8B
:10140000001B022802D90320BDE8F88F286880015C
:10141000F4D40020F8E70120F6E7000000100240B5
:101420000000424280044242400000200070004020
:101430004FF0E0210428086903D020F0040008617F
:10144000704740F00400FAE7704710B5401EB0F155
:10145000807F01D3012010BD4FF0E02460610F2197
:10146000601700F0CCFB0020A06107202061002065
:1014700010BD10B5FFF7E8FF10BD7047704730B5DD
:1014800090F83C20012A20D0012280F83C20022341
:1014900080F83D3003685C6824F070045C60036889
:1014A0005C680D682C435C6003689C6824F08004D1
:1014B0009C6003689C6849680C439C6080F83D20F0
:1014C000002180F83C10084630BD022030BD10B528
:1014D000040003D094F83D0010B107E0012010BDD6
:1014E000002084F83C00204600F00CF8022084F82C
:1014F0003D00211D206800F0F9FB012084F83D002B
:10150000002010BD08B50068B0F1804F12D10A4824
:10151000C16941F00101C161C069002200F0010010
:10152000009011461C20FFF7C9FCBDE808401C20B4
:10153000FFF7B8BC08BD0000001002400168CA688F
:1015400042F00102CA600068016841F001010160D7
:101550000020704770B5044690F83C00012817D071
:10156000012584F83C50022084F83D002068826800
:1015700022F0770222F47F4282600868502837D038
:101580000DDC202859D005DC88B3102841D151E06A
:10159000022070BD302853D040283AD13FE0602867
:1015A0002ED070280BD0B0F5805F03D0B0F5005F6F
:1015B0002FD110E02068816821F0070115E0CB6889
:1015C000D1E90121206800F0D7FB2168886840F04C
:1015D000770088601DE0CB68D1E90121206800F028
:1015E000CBFB2068816841F48041816011E01EE0FE
:1015F000CA684968206800F0D1FB5021206806E0E5
:10160000CA684968206800F0DAFB6021206800F0B1
:10161000BDFB84F83D50002084F83C0070BDCA68D2
:101620004968206800F0BAFB40212068EFE70021FC
:101630002068ECE710212068E9E720212068E6E730
:1016400030212068E3E7704770B5044600680169FF
:101650004FF00005C943890715D4C168C9438907FC
:1016600011D4E91E0161012020772068806980077C
:10167000204602D0FFF7E7FF04E000F098F820468C
:1016800000F096F8257720680169C943490717D407
:10169000C168C943490713D46FF0040101610220F6
:1016A00020772068806910F4407F204602D0FFF741
:1016B000CAFF04E000F07BF8204600F079F82577B7
:1016C00020680169C943090716D4C168C9430907DD
:1016D00012D46FF008010161042020772068C069EE
:1016E0008007204602D0FFF7AEFF04E000F05FF86D
:1016F000204600F05DF8257720680169C943C906D6
:1017000017D4C168C943C90613D46FF01001016131
:10171000082020772068C06910F4407F204602D05E
:10172000FFF791FF04E000F042F8204600F040F897
:10173000257720680169C943C90708D1C168C94331
:10174000C90704D1891E0161204600F033F82068E2
:101750000169C943090609D4C168C943090605D40A
:101760006FF0800101612046FFF787FE2068016964
:10177000C943490609D4C168C943490605D46FF075
:1017800040010161204600F045F820680169C94325
:1017900089060BD4C168C943890607D46FF02001BC
:1017A00001612046BDE87040FFF768BE70BD70471C
:1017B000704700001CB50E49884217D10D4C606877
:1017C000FEF76AFE0C4B0022CDE900230B4A0C4BBE
:1017D00000F080F8C4E90401FEF76BFE0146E06802
:1017E0000090D4E9012307A000F0B6FB1CBD000067
:1017F000BC00002008000020000014409A9999992C
:101800009999A93F25642C25642C25642C25640A0C
:1018100000000000704770B5040004D094F839004F
:10182000002510B106E0012070BD84F83850204634
:1018300000F022F8242084F839002068C16821F4DF
:101840000051C160204600F0CDFA2068016921F402
:10185000904101612068416921F02A0141612068BD
:10186000C16841F40051C160E563202084F839006B
:1018700084F83A00002070BD10B50068114986B0A8
:1018800088421DD11048816941F48041816180699D
:101890000E4C00F4804004904FF400700090022041
:1018A00001900320039069462046FFF7B7F8002116
:1018B0002015CDE90001029169462046FFF7AEF8F8
:1018C00006B010BD00380140001002400008014081
:1018D000FEE700002DE9FF5F1D46DDE90E83DFF81E
:1018E00074B099462B46DBE90667DBE90801FEF791
:1018F0004BFC0D4604464B464246FEF745FC02466D
:101900000B4620462946FEF758FD81468A46DDE90A
:10191000000132463B46FEF7D8FC4A465346FEF7E6
:10192000DAFC32463B46FEF72FFC06460F464A4697
:10193000534600200849FEF7C8FC22462B46FEF716
:10194000CAFCCBE90667CBE9080104B0304639464A
:10195000BDE8F09F080000200000F03F0B4810B5E4
:10196000094901600A49416000214FF480428160C9
:10197000C0E9031241618161C1610162FFF74EF963
:10198000002800D0FEE710BD005400406800002091
:10199000801A060010B5134886B04FF080410160F0
:1019A00041F61F410024C0E901146421C0E9031479
:1019B0008461FFF78CFD00B1FEE74FF4805000908A
:1019C00069460848FFF7C6FD00B1FEE7049404A984
:1019D00004480594FFF753FD002800D0FEE706B049
:1019E00010BD0000BC000020FEE7000070B50C4CEC
:1019F0000025C4F8A8510B48016821F4704101602A
:101A0000016841F440510160C4F8AC5104F5D4744C
:101A100000F00AF80120206000F006F8256070BD93
:101A200000802142040C01400020401CC0B20A2862
:101A3000FBD3704770B50C4C0025C4F8A8510B4877
:101A4000016821F470410160016841F44051016076
:101A50000126C4F8AC6104F5D474FFF7E5FF2660F5
:101A6000FFF7E2FF256070BD00802142040C0140B9
:101A70002DE9F047814616480024016821F47041A1
:101A80000160016841F400410160124E254627467D
:101A90004FF00108C6F8A871FFF7C6FFC6F8A88185
:101AA0006006040ED6F82C0108B1641CE4B2FFF7FE
:101AB000BBFF6D1CEDB2082DECD3B9F1000F04D0C3
:101AC000FFF794FF2046BDE8F087FFF7B3FFF9E783
:101AD000040C0140008021422DE9F04106461148E6
:101AE000016821F470410160016841F440510160D6
:101AF0000D4C0027C4F8A8713D464FF00108F009CD
:101B0000C4F8AC017006060EC4F8A881FFF78CFF7C
:101B1000C4F8A871FFF788FF6D1CEDB2082DEED355
:101B2000BDE8F081040C01400080214270B50C48F2
:101B3000016821F470410160016841F44051016085
:101B4000084C0120C4F8AC01C4F8A80104F5D47411
:101B5000FFF76AFF00256560FFF766FF256070BD2F
:101B6000040C0140008021420D4810B5016821F4A9
:101B700070410160016841F440510160094C00204E
:101B8000C4F8A801C4F8AC0104F5D474FFF74CFF05
:101B9000012020606060BDE81040FFF745BF0000F5
:101BA000040C01400080214270B5124800240168F5
:101BB00021F470410160016841F4004101600E4D63
:101BC0000126C5F8AC61FFF72FFFC5F8A861FFF744
:101BD0002BFF07E0641CE4B2FA2C03D9FFF7C4FF23
:101BE000012070BDD5F82C010028F3D1C5F8A8015B
:101BF00070BD0000040C01400080214270470907BD
:101C0000090E002806DA00F00F0000F1E02080F84D
:101C1000141D704700F1E02080F8001470477047F1
:101C2000704710B5FFF7BCF8BDE81040FFF721BCC6
:101C300030B58FB001210804CDE9001000240294D2
:101C400002250491CDE907504FF4E0100990684651
:101C5000FFF76CFA00B1FEE70F20CDE90A054FF45B
:101C60008060CDE90C4002210AA80E94FFF758F9D4
:101C700000B1FEE7FFF7FEF94FF47A71B0FBF1F027
:101C8000FFF7E3FB0420FFF7D3FB00221146501EB1
:101C9000FFF714F90FB030BD0D48016841F00101A4
:101CA000016041680B4A1140416001680A4A1140D5
:101CB0000160016821F480210160416821F4FE0186
:101CC00041604FF41F0181600449C0030860704700
:101CD000001002400000FFF8FFFFF6FE08ED00E0F4
:101CE0000148FFF7B1BC0000BC000020F0B502685D
:101CF0001C4B1D4D1D4E1E4F1E4C4FF0804C9842EC
:101D000009D0A04207D0604505D0A84203D0B04218
:101D100001D0B84204D122F0700E4A6842EA0E02A5
:101D2000984209D0A04207D0604505D0A84203D010
:101D3000B04201D0B84203D122F44075CA682A43A8
:101D400022F080054A692A4302608A68C2620A68F2
:101D50008262984201D0A04201D109690163012148
:101D60004161F0BD002C014000040040000800402B
:101D7000000C00400034014010B5846842EA0322A0
:101D800024F47F440A432243826010BD826822F01B
:101D900070020A4342F007018160704710B5036A80
:101DA000046A24F001040462846924F0F00444EA23
:101DB000021423F00A020A438461026210BD10B5C6
:101DC000036A23F0100303628369046A23F47043F7
:101DD00043EA023224F0A00343EA01118261016266
:101DE00010BD00002DE9F041044600680169E26879
:101DF00021F44051114301612169A06808436169E0
:101E000008432168CA6841F20C639A430243CA60DE
:101E100020684169A26921F44071114341614C4934
:101E200020686425322688423CD1FFF739F900EB5F
:101E3000C00101EB001061688900B0FBF1F7FFF70A
:101E40002FF900EBC00101EB00106168B04689007A
:101E5000B0FBF1F0B0FBF5F06FF01801484307EB71
:101E6000800106EB0110B0FBF5F000F0F006FFF783
:101E700017F900EBC00101EB001061688900B0FBAD
:101E8000F1F0B0FBF5F006EB0016FFF709F900EBF7
:101E9000C00101EB001061688900B0FBF1F7FFF7AA
:101EA000FFF83BE0FFF7ECF800EBC00101EB00109E
:101EB00061688900B0FBF1F7FFF7E2F800EBC001C1
:101EC00001EB00106168B0468900B0FBF1F0B0FB97
:101ED000F5F06FF01801484307EB800106EB0110A5
:101EE000B0FBF5F000F0F006FFF7CAF800EBC00118
:101EF00001EB001061688900B0FBF1F0B0FBF5F078
:101F000006EB0016FFF7BCF800EBC00101EB001078
:101F100061688900B0FBF1F7FFF7B2F800EBC00190
:101F200001EB001061688900B0FBF1F0B0FBF5F047
:101F30006FF01801484307EB800108EB0110B0FB7C
:101F4000F5F0216800F00F0030448860BDE8F081B2
:101F500000380140FEE700000FB4054B10B503A99F
:101F6000044A029800F018F810BC5DF814FB000059
:101F7000ED2000083000002002E008C8121F08C150
:101F8000002AFAD170477047002001E001C1121FFA
:101F9000002AFBD1704700002DE9FF4F89B09B4616
:101FA0000446002506E025280BD05A460B99904799
:101FB000641C6D1C20780028F5D10DB02846BDE8C2
:101FC000F08F0027B8460122474900E0074314F884
:101FD000013F203B02FA03F00842F7D120782E2877
:101FE00019D114F8010F47F004072A280ED06FF01A
:101FF0002F022078A0F1300109290CD808EB8801C4
:1020000002EB410100EB0108641CF2E70A98641C32
:1020100050F8048B0A9020780028CED0642808D08D
:10202000692806D075281ED05A460B9990476D1C1A
:1020300058E00A994FF00A0901C90A91002802DA0A
:1020400040422D2102E0390504D52B218DF82010C6
:10205000012103E0F90704D02021F7E78A4608AE02
:102060000DE00021FAE70A994FF00A0901C90A9127
:10207000F7E74946FEF736FA303106F8011D002829
:10208000F7D1ADEB060000F12009780701D44FF03D
:102090000108C84502DDA8EB090000E000208046E9
:1020A000002706E008A85A46C05D0B9990476D1CB2
:1020B0007F1C5745F6DB04E030205A460B999047C9
:1020C0006D1CB8F10001A8F10108F5DC05E016F877
:1020D000010B5A460B9990476D1CB9F10001A9F10B
:1020E0000109F4DC641C65E70928010004490A6859
:1020F0005206FCD5024AC1B2121D116070470000A1
:102100000038014086B0FEF753FEFFF791FD2B48E3
:10211000816941F008018161816901F00801049140
:10212000816941F0040181618069254D00F004005E
:102130004FF440640490002221462846FEF762FDD9
:102140000120CDE9004000240320CDE9024069468A
:102150002846FEF763FC1C481A4901604FF4E13140
:10216000C0E901140C21C460C0E904418461C46168
:10217000FFF751FB00B1FEE7FFF7F0FBFFF70AFCAA
:1021800011484038FFF7DAF9FEF795FA0F490020B9
:10219000FEF750FA0D490120091DFEF74BFA0B49D5
:1021A00002200831FEF746FA084903200C31FEF7F9
:1021B00041FA0A20FEF720FCE8E700000010024088
:1021C000000C014000380140FC0000200800002005
:1021D00000000000000000000102030406070809D7
:1021E0000000000001020304082200080000002093
:1021F00044000000781F00084C2200084400002022
:10220000FC040000881F000800000000000000001F
:1022100000000000000000000000000000000000BE
:1022200000000000000000000000000000000000AE
:10223000000000000000000000000000010000009D
:0C224000100000000000000000A24A0492
:0400000508000131BD
:00000001FF
