:10211E0042004500004200470000420049000042D4
:10212E00003E000042004100004200430000440017
:10213E00320000000044003A0000000044004B0052
:10214E000000004400040000000044001C4416007F
:10215E00004400223F91EB85440014411B3333446D
:10216E0000183BC49BA6440008000000004100403C
:10217E000044004F0000000044002E000000004408
:06218E00002A0000000021
:1019A800AB07AA06A905A80490001CE0FCA3E0FD6B
:1019B800A3E0FEA3E0FF1214EC90003212196B9022
:1019C800003AE0F8A3E0F9A3E0FAA3E0FB900032C4
:1019D800E0FCA3E0FDA3E0FEA3E0FF1214EC9000FE
:1019E80014E0F8A3E0F9A3E0FAA3E0FB1215E1C0C4
:1019F80004C005C006C007900032E0FCA3E0FDA3C8
:101A0800E0FEA3E0FF900022E0F8A3E0F9A3E0FAEB
:101A1800A3E0FB1215E1D003D002D001D0001214CC
:101A2800F0C004C005C006C007900008E0FCA3E0B1
:101A3800FDA3E0FEA3E0FF900018E0F8A3E0F9A3FF
:101A4800E0FAA3E0FB1215E1D003D002D001D000E8
:101A58001214F090000412196B90003AE0F8A3E019
:101A6800F9A3E0FAA3E0FB900032E0FCA3E0FDA3B9
:101A7800E0FEA3E0FF1214EC121832900020EEF002
:101A8800A3EFF0E4FFFE7D487C42900032E0F8A32B
:101A9800E0F9A3E0FAA3E0FB1217875041E4FFFE48
:101AA8007D487CC2900032E0F8A3E0F9A3E0FAA3F5
:101AB800E0FB12178760274025900008E0FCA3E0B0
:101AC800FDA3E0FEA3E0FF900032E0F8A3E0F9A355
:101AD800E0FAA3E0FB1214F090000812196B9000D2
:101AE80032E0FCA3E0FDA3E0FEA3E0FF90003A1281
:101AF800196BE4FFFE7D7F7C43900004E0F8A3E0CF
:101B0800F9A3E0FAA3E0FB121787600C400A9000E3
:101B180004121977437F0000E4FFFEFDFC900004E7
:101B2800E0F8A3E0F9A3E0FAA3E0FB121787500A54
:101B380090000412197700000000900004E0FCA354
:091B4800E0FDA3E0FEA3E0FF2292
:101B51001224FE1223DB1224801224A4E4FFFE7D52
:101B6100EB7CC390001CE0F8A3E0F9A3E0FAA3E04A
:101B7100FB1214F07B9A7A99793978401216EAE4CB
:101B8100FBFA792078411215E1121832900043EEE8
:101B9100F0A3EFF0900043E0FAA3E0FB7C007D644A
:101BA100FFAE021218F2900053EEF0A3EFF07C00AA
:101BB1007D64AF03AE021218F2AA04AB057D0A7C64
:101BC10000AF03AE021218F2A3EEF0A3EFF0A3747C
:101BD100FFF0A314F07D0A7C00AF03AE021218F2ED
:101BE100A3ECF0A3EDF0121CC51223B5E4FB7D03B9
:101BF1007F121221A17B017D037F241221A17B028F
:101C01007D037F361221A17B037D037F481221A131
:101C11007FF47E011224391223B57B04E4FDFF1207
:101C210021A17B05E4FD7F121221A17B06E4FD7F4A
:101C3100241221A17B07E4FD7F361221A17B08E458
:101C4100FD7F481221A190007F7410F07B1AE4FD02
:101C51007F5A121E797B097D037F241221A17B0A01
:101C61007D037F361221A17B0B7D037F481221A1C9
:101C71007B0C7D037F5A1221A190007F7410F07BB1
:101C81000E7D037F6C121E797B0D7D057F24122151
:101C9100A17B0E7D057F361221A17B0F7D057F483B
:101CA1001221A17B107D057F5A1221A190007F7422
:101CB10010F07B0E7D057F6C121E79D2B6C2B71271
:041CC1000E6680F734
:03000B00021DA52E
:101DA500C0E0C0F0C083C082C0D075D000C000C004
:101DB50001C002C003C004C005C006C007758CF78A
:101DC500758A04900040E0C3940550361222819034
:101DD500002612196B900036E0FCA3E0FDA3E0FE9F
:101DE500A3E0FF900026E0F8A3E0F9A3E0FAA3E062
:101DF500FB1214F090003612196B900040E004F0CD
:101E05008057900040E4F0FBFA79A07840900036C6
:101E1500E0FCA3E0FDA3E0FEA3E0FF1216EA9000BC
:101E25000012196B900000E0FCA3E0FDA3E0FEA307
:101E3500E0FF1219A890004F12196B900036121985
:101E4500770000000090004FE0FCA3E0FDA3E0FE5A
:101E5500A3E0FF12183212250AD007D006D005D00C
:101E650004D003D002D001D000D0D0D082D083D00E
:041E7500F0D0E03297
:100E660030A203020FF77F0A7E0012243930A20354
:100E7600020FF730A2FD900045E07002A3E0600388
:100E8600020F277B04FDFF1221A17B05E4FD7F12E3
:100E96001221A17B06E4FD7F241221A17B07E4FD3C
:100EA6007F361221A17B08E4FD7F481221A1900024
:100EB6007F7410F07B1AE4FD7F5A121E797B117D38
:100EC600037F241221A17B127D037F361221A17B91
:100ED600137D037F481221A17B147D037F5A1221C3
:100EE600A190007F7410F07B0E7D037F6C121E793B
:100EF6007B0D7D057F241221A17B0E7D057F361299
:100F060021A17B0F7D057F481221A17B107D057FE6
:100F16005A1221A190007F7410F07B0E7D05020FFE
:100F2600D1900045E07004A3E064016003020FD68F
:100F36007B04FDFF1221A17B05E4FD7F121221A196
:100F46007B06E4FD7F241221A17B07E4FD7F361298
:100F560021A17B08E4FD7F481221A190007F741037
:100F6600F07B1AE4FD7F5A121E797B157D057F24DE
:100F76001221A17B167D057F361221A17B177D05E7
:100F86007F481221A17B187D057F5A1221A190006E
:100F96007F7410F07B0E7D057F6C121E797B097DB8
:100FA600037F241221A17B0A7D037F361221A17BB8
:100FB6000B7D037F481221A17B0C7D037F5A1221F2
:100FC600A190007F7410F07B0E7D037F6C121E795A
:100FD600900046E004F07006900045E004F0D390DF
:100FE6000046E09401900045E094004004E4F0A33C
:100FF600F0900045E07004A3E0640160030211F282
:1010060030A3030211F27F0AFE12243930A3030231
:1010160011F230A3FD900048E004F07006900047FE
:10102600E004F01223B5900047E07004A3E06401E9
:1010360060030211F27B0B7D01FF1221A17B0C7D67
:10104600017F121221A190007F7410F07B1A7D019E
:101056007F24121E79122281E4FBFA79EB78C312FF
:1010660014F07B9A7A99793978401216EAE4FBFAF9
:10107600792078411215E1121832900041EEF0A362
:10108600EFF0900041E0FAA3E0FB7C007D64FFAE48
:10109600021218F290000CEEF0A3EFF07C007D64D3
:1010A600AF03AE021218F2AA04AB057D0A7C00AFAC
:1010B60003AE021218F2A3EEF0A3EFF0A374FFF052
:1010C600A314F07D0A7C00AF03AE021218F2A3EC63
:1010D600F0A3EDF0E4900049F0A3F0900049E0FCA5
:1010E600A3E0FDC454F02436FFC007ED25E0FFEC75
:1010F60033FE740C2FF58274003EF583A3E02410B2
:10110600FB90007F7410F0D0077D01121E799000CD
:101116004AE004F07006900049E004F0C390004AEB
:10112600E09404900049E0940040B030A40302101B
:101136002C7F0A7E0012243930A40302102C30A41E
:10114600FDE4900047F0A3F01223B57B04E4FDFF15
:101156001221A17B05E4FD7F121221A17B06E4FD8D
:101166007F241221A17B07E4FD7F361221A17B0893
:10117600E4FD7F481221A190007F7410F07B1AE4F1
:10118600FD7F5A121E797B117D037F241221A17BDC
:10119600127D037F361221A17B137D037F48122126
:1011A600A17B147D037F5A1221A190007F7410F059
:1011B6007B0E7D037F6C121E797B0D7D057F2412CD
:1011C60021A17B0E7D057F361221A17B0F7D057F38
:1011D600481221A17B107D057F5A1221A190007F24
:1011E6007410F07B0E7D057F6C121E7930A303020E
:1011F60014E8900045E07002A3E060030214E87F63
:101206000AFE12243930A3030214E830A3FD90002D
:1012160048E004F07006900047E004F01223B59011
:101226000047E07004A3E0640160030214E87B0B4E
:101236007D01FF1221A17B0C7D017F121221A1905D
:10124600007F7410F07B1A7D017F24121E79E490D2
:101256000049F0A3F0900049E0FCA3E0FDC454F07F
:101266002436FFC007ED25E0FFEC33FE74532FF55F
:101276008274003EF583A3E02410FB90007F741077
:10128600F0D0077D01121E7990004AE004F0700646
:10129600900049E004F0C390004AE09404900049AD
:1012A600E0940040B030A5030213697F0A7E001265
:1012B600243930A50302136930A5FD90001CE0FC1B
:1012C600A3E0FDA3E0FEA3E0FF7433FBFAF9784048
:1012D6001214F090001C12196BE4FFFE7DEB7CC328
:1012E60090001CE0F8A3E0F9A3E0FAA3E0FB1214D7
:1012F600F07B9A7A99793978401216EAE4FBFA7902
:101306002078411215E1121832900043EEF0A3EF57
:10131600F0900043E0FAA3E0FB7C007D64FFAE02A0
:101326001218F2900053EEF0A3EFF07C007D64AF4C
:1013360003AE021218F2AA04AB057D0A7C00AF03C5
:10134600AE021218F2A3EEF0A3EFF0A374FFF0A31F
:1013560014F07D0A7C00AF03AE021218F2A3ECF083
:10136600A3EDF030A6030214277F0A7E001224396B
:1013760030A60302142730A6FD90001CE0FCA3E073
:10138600FDA3E0FEA3E0FF7433FBFAF978C0121464
:10139600F090001C12196BE4FFFE7DEB7CC39000FD
:1013A6001CE0F8A3E0F9A3E0FAA3E0FB1214F07B3B
:1013B6009A7A99793978401216EAE4FBFA79207814
:1013C600411215E1121832900043EEF0A3EFF090AF
:1013D6000043E0FAA3E0FB7C007D64FFAE02121836
:1013E600F2900053EEF0A3EFF07C007D64AF03AE05
:1013F600021218F2AA04AB057D0A7C00AF03AE0206
:101406001218F2A3EEF0A3EFF0A374FFF0A314F00A
:101416007D0A7C00AF03AE021218F2A3ECF0A3ED36
:10142600F030A4030212257F0A7E0012243930A46C
:1014360003021225E4900047F0A3F030A4FD122326
:10144600B57B04E4FDFF1221A17B05E4FD7F1212AA
:1014560021A17B06E4FD7F241221A17B07E4FD7F09
:10146600361221A17B08E4FD7F481221A190007F5E
:101476007410F07B1AE4FD7F5A121E797B157D05E8
:101486007F241221A17B167D057F361221A17B17B1
:101496007D057F481221A17B187D057F5A1221A167
:1014A60090007F7410F07B0E7D057F6C121E797B99
:1014B600097D037F241221A17B0A7D037F36122139
:1014C600A17B0B7D037F481221A17B0C7D037F5AF4
:1014D6001221A190007F7410F07B0E7D037F6C12A9
:0314E6001E79224A
:0C219400420076000044007800000000CB
:0C24FE0075BC88759D01E4F5BDF5BE229B
:10228100E5BC30E4FBAFBD900076E4F0A3EFF09045
:102291000076E0FEA3E07802C333CE33CED8F9FF57
:1022A100900076EEF0A3EFF0ADBEED4FFF9000761B
:1022B100EEF0A3EFF0900076E0FCA3E0FDE412174E
:1022C100F990007812196B75BCC8900078E0FCA3F6
:0822D100E0FDA3E0FEA3E0FF25
:0122D90022E2
:07000300D288D2A8D2AF227F
:07251D00D28AD2AAD2AF223C
:1024A400438901758CFC758A18D2A9D2AFD28C22CB
:1024B400438910758DFC758B18D2ABD2AFD28E22A6
:10248000759850758921758DFD758BFDD2ACD2AFD5
:03249000D28E22C7
:0E24D400C2ACC2998F993099FDC299D2AC2248
:06252B00AE071224D422C9
:1023DB00E4F5D8F5E9F5F975D90275EA8075FA8057
:1023EB0075DA4275EBFF75FBFF75F30375DB42D2B4
:0223FB00DE22E0
:0A250A00C374FF9FF5FA85FAEA2278
:10000E000000000000000000002F000000000700AC
:10001E00070000147F147F1400242A7F2A12006226
:10002E0064081323003649552250000005030000D2
:10003E0000001C224100000041221C000014083E5A
:10004E0008140008083E0808000000A06000000820
:10005E000808080800006060000000201008040274
:10006E00003E5149453E0000427F40000042615132
:10007E004946002141454B31001814127F100027CC
:10008E0045454539003C4A4949300001710905038F
:10009E0000364949493600064949291E00003636C0
:1000AE000000000056360000000814224100001423
:1000BE001414141400004122140800020151090600
:1000CE0000324959513E007C1211127C007F494981
:1000DE004936003E41414122007F4141221C007FB2
:1000EE0049494941007F09090901003E4149497AC0
:1000FE00007F0808087F0000417F4100002040413A
:10010E003F01007F08142241007F40404040007FA5
:10011E00020C027F007F0408107F003E4141413EE9
:10012E00007F09090906003E4151215E007F091931
:10013E0029460046494949310001017F0101003F2E
:10014E004040403F001F2040201F003F4038403FAE
:10015E000063140814630007087008070061514912
:10016E00454300007F41410000552A552A550000A5
:10017E0041417F0000040201020400404040404023
:10018E00000001020400002054545478007F4844BB
:10019E00443800384444442000384444487F0038F2
:1001AE005454541800087E0901020018A4A4A47C1B
:1001BE00007F080404780000447D400000408084E5
:1001CE007D00007F102844000000417F4000007C2D
:1001DE0004180478007C0804047800384444443839
:1001EE0000FC242424180018242418FC007C080485
:1001FE00040800485454542000043F444020003C5E
:10020E004040207C001C2040201C003C4030403CE4
:10021E00004428102844001CA0A0A07C0044645474
:10022E004C441414141414140000000000000000B8
:10023E000000000000000000000000F800000000B8
:10024E00000000333000000000100C06100C0600F9
:10025E00000000000000000040C07840C078400060
:10026E00043F04043F040400007088FC08300000C2
:10027E00001820FF211E0000F008F000E01800001A
:10028E0000211C031E211E0000F0088870000000D3
:10029E001E2123241927211010160E000000000025
:1002AE000000000000000000000000E01804020042
:1002BE00000000071820400000020418E0000000B3
:1002CE000040201807000000404080F080404000B1
:1002DE000202010F01020200000000F00000000007
:1002EE000101011F010101000000000000000000DB
:1002FE0080B0700000000000000000000000000050
:10030E0000010101010101010000000000000000D8
:10031E000030300000000000000000008060180473
:10032E00006018060100000000E010080810E00050
:10033E00000F102020100F00001010F80000000019
:10034E000020203F20200000007008080888700060
:10035E0000302824222130000030088888483000E0
:10036E000018202020110E000000C02010F8000000
:10037E0000070424243F240000F808888808080099
:10038E000019212020110E0000E0108888180000AE
:10039E00000F112020110E0000380808C838080080
:1003AE000000003F00000000007088080888700000
:1003BE00001C222121221C0000E010080810E00081
:1003CE000000312222110F00000000C0C00000000A
:1003DE00000000303000000000000080000000002F
:1003EE000000806000000000000080402010080027
:1003FE0000010204081020004040404040404000F0
:10040E0004040404040404000008102040800000CA
:10041E000020100804020100007048080808F000CF
:10042E000000003036010000C030C828E810E0009F
:10043E000718272423140B000000C038E00000002A
:10044E00203C23020227382008F888888870000094
:10045E00203F202020110E00C03008080808380068
:10046E00071820202010080008F808080810E000DF
:10047E00203F202020100F0008F88888E808100080
:10048E00203F20202320180008F88888E808100054
:10049E00203F200003000000C0300808083800008C
:1004AE0007182020221E020008F808000008F8088D
:1004BE00203F210101213F20000808F80808000014
:1004CE000020203F2020000000000808F808080047
:1004DE00C08080807F00000008F888C028180800BF
:1004EE00203F20012638200008F8080000000000F8
:1004FE00203F20202020300008F8F800F8F80800EF
:10050E00203F003F003F200008F830C00008F808E8
:10051E00203F200007183F00E01008080810E000F8
:10052E000F10202020100F0008F808080808F0000F
:10053E00203F210101010000E01008080810E00032
:10054E000F18242438504F0008F8888888887000C7
:10055E00203F2000030C3020007088080808380067
:10056E000038202121221C00180808F8080818005D
:10057E000000203F2000000008F808000008F808DE
:10058E00001F202020201F000878880000C838088F
:10059E00000007380E010000F80800F80008F80007
:1005AE00033C0700073C03000818688080681808A1
:1005BE0020302C03032C30200838C800C83808001F
:1005CE000000203F2000000010080808C83808006E
:1005DE002038262120201800000000FE0202020012
:1005EE000000007F40404000000C30C000000000C2
:1005FE00000000010638C00000020202FE000000EA
:10060E00004040407F00000000000402020204008F
:10061E0000000000000000000000000000000000CC
:10062E0080808080808080800002020400000000B4
:10063E0000000000000000000000808080800000AC
:10064E000019242222223F2008F80080800000009A
:10065E00003F112020110E0000000080808000005D
:10066E00000E112020201100000000808088F8006C
:10067E00000E112020103F2000008080808000009E
:10068E00001F222222221300008080F08888881802
:10069E000020203F2020000000008080808080000D
:1006AE00006B94949493600008F8008080800000A2
:1006BE00203F210000203F2000809898000000007D
:1006CE000020203F202000000000008098980000AD
:1006DE0000C08080807F000008F8000080808000CD
:1006EE00203F24022D302000000808F800000000F2
:1006FE000020203F202000008080808080808000AD
:10070E00203F20003F20003F80800080808000003E
:10071E00203F210000203F200000808080800000CC
:10072E00001F202020201F008080008080000000FD
:10073E0080FFA12020110E0000000080808080002C
:10074E00000E112020A0FF8080808000808080001D
:10075E0020203F212000010000008080808080004A
:10076E000033242424241900008080E080800000BF
:10077E000000001F2020000080800000008080000C
:10078E00001F202020103F2080808000008080806D
:10079E0000010E30080601008080008000808080FD
:1007AE000F300C030C300F00008080008080800022
:1007BE000020312E0E31200080808000008080804D
:1007CE0080818E70180601000080808080808000FD
:1007DE000021302C2221300000000000807C02021B
:1007EE0000000000003F404000000000FF0000003D
:1007FE0000000000FF0000000002027C80000000EC
:10080E000040403F00000000000601010202040407
:10081E00000000000000000004244484649C40306A
:10082E000FC8080828180000000000000000000093
:10083E00000000000000000010080601824C201885
:10084E000601061820408000000000000000000095
:10085E000000000000000000404042CC0000FC04FC
:10086E000200FC0404FC0000000000000000000078
:10087E0000000000000000000040201F20404F44F8
:10088E0042407F4244434000000000000000000050
:10089E0000000000000000008060F80704E424243B
:1008AE0024FF242424E404000000000000000000C3
:1008BE0000000000000000000000FF0080814529BC
:1008CE00112F4141818180000000000000000000D6
:1008DE0000000000000000000000FE22222222FE86
:1008EE0022222222FE000000000000000000000074
:1008FE00000000000000000080601F020202027F64
:10090E00020242827F000000000000000000000092
:10091E0000000000000000004042CC00004454548F
:10092E00547F545454444000000000000000000066
:10093E00000000000000000000007F201000FF15E6
:10094E00151555957F000000000000000000000006
:10095E000000000000000000404042CC00504EC895
:10096E00487FC8484840000000000000000000001A
:10097E0000000000000000000040201F20504C43EB
:10098E0040404F50505C400000000000000000004E
:10099E0000000000000000001010FF100082864AC8
:1009AE0052A2524A86808000000000000000000023
:1009BE00000000000000000042827F0100101212B1
:1009CE0012FF1212121000000000000000000000C2
:1009DE0000000000000000001010D0FF9014E4AFE3
:1009EE00A4A4A4AFE4040000000000000000000076
:1009FE000000000000000000040300FF00894B2AE5
:100A0E001A0E1A2A4B888000000000000000000019
:100A1E0000000000000000001010909090909010C8
:100A2E0010FF101011161000000000000000000052
:100A3E000000000000000000002060203F10101099
:100A4E0000030C102040F800000000000000000021
:100A5E00000000000000000008488808C83800FEAA
:100A6E000202F20202FE0000000000000000000080
:100A7E00000000000000000020100C03049840232A
:100A8E001806017E8083E0000000000000000000D8
:100A9E0000000000000000000846A25A92523203E5
:100AAE003A529252320A0600000000000000000086
:100ABE000000000000000000044422150445857D5E
:100ACE000505041521420200000000000000000090
:100ADE0000000000000000002010E824272424E479
:100AEE0024342C20E0000000000000000000000074
:100AFE00000000000000000080601F090909097F46
:100B0E00090949897F000000000000000000000074
:100B1E0000000000000000000000FC242424FC253E
:100B2E002624FC2424240400000000000000000001
:100B3E00000000000000000040308F80844C5525DE
:100B4E002525554C8080800000000000000000002C
:100B5E000000000000000000404042CC0040A09E7B
:100B6E008282829EA0202000000000000000000073
:100B7E0000000000000000000000003F908840438D
:100B8E002C1028464180800000000000000000006C
:100B9E000000000000000000100C4444444445C610
:100BAE004444444444140C000000000000000000C3
:100BBE0000000000000000008040201E2040407F0A
:100BCE004444444444404000000000000000000043
:100BDE0000000000000000002010E824272424E478
:100BEE0024342C20E0000000000000000000000073
:100BFE00000000000000000080601F090909097F45
:100C0E00090949897F000000000000000000000073
:100C1E0000000000000000000000FC242424FC253D
:100C2E002624FC2424240400000000000000000000
:100C3E00000000000000000040308F80844C5525DD
:100C4E002525554C8080800000000000000000002B
:100C5E000000000000000000F7B777F737C7FF016C
:100C6E00FDFD0DFDFD01FFFF000000000000000076
:100C7E000000000000000000DFEFF3FCFB67BFDCAC
:100C8E00E7F9FE817F7C1FFF0000000000000000DE
:100C9E000000000000000000F7B95DA56DADCDFCB1
:100CAE00C5AD6DADCDF5F9FF0000000000000000F0
:100CBE000000000000000000FBBBDDEAFBBA7A82F8
:100CCE00FAFAFBEADEBDFDFF0000000000000000A6
:100CDE000000000000000000DFEF17DBD8DBDB1B9D
:100CEE00DBCBD3DF1FFFFFFF000000000000000082
:100CFE0000000000000000007F9FE0F6F6F6F68090
:100D0E00F6F6B67680FFFFFF000000000000000040
:100D1E000000000000000000FFFF03DBDBDB03DA56
:100D2E00D9DB03DBDBDBFBFF000000000000000073
:100D3E000000000000000000BFCF707F7BB3AADA76
:100D4E00DADAAAB37F7F7FFF000000000000000008
:100D5E000000000000000000BFBFBD33FFBF5F6199
:100D6E007D7D7D615FDFDFFF000000000000000081
:100D7E000000000000000000FFFFFFC06F77BFBC47
:100D8E00D3EFD7B9BE7F7FFF000000000000000048
:100D9E000000000000000000EFF3BBBBBBBBBA3984
:100DAE00BBBBBBBBBBEBF3FF0000000000000000B1
:100DBE0000000000000000007FBFDFE1DFBFBF804A
:100DCE00BBBBBBBBBBBFBFFF0000000000000000F1
:100DDE000000000000000000DFEF17DBD8DBDB1B9C
:100DEE00DBCBD3DF1FFFFFFF000000000000000081
:100DFE0000000000000000007F9FE0F6F6F6F6808F
:100E0E00F6F6B67680FFFFFF00000000000000003F
:100E1E000000000000000000FFFF03DBDBDB03DA55
:100E2E00D9DB03DBDBDBFBFF000000000000000072
:100E3E000000000000000000BFCF707F7BB3AADA75
:100E4E00DADAAAB37F7F7FFF000000000000000007
:080E5E0000000000000000008C
:10243900EF4E60157D087C07ED1DAA0470011C4A4A
:0924490070F6EF1F70EA1E80E737
:012452002267
:09251400D2A0D2A1C2A1C2A022F2
:07252400D2A0C2A1D2A12246
:0B24C40012236E1224CFAF0412236E0F
:0524CF00D2A0C2A02212
:07236700AC071225147F787A
:10236E00C2A0E4FEAD07ED5480B48004D2A1800279
:0F237E00C2A1EF25E0FFD2A0C2A00EEEB408E589
:01238D00222D
:0E24E2001223671224CFE4FF1224C402252423
:0E24F0001223671224CF7F401224C402252439
:10233B00E924B0FFE433FEE4FDFC122356E4FDFC7C
:0B234B00FFFE1223567F10E4FDFCFE95
:10235600AB07AA06ED4C60030224F0AF031224E299
:012366002254
:05230E00900081EFF0DA
:10231300E4F912233BE4900082F0900081E0FF7E19
:10232300007D017C00122356A3E004F0E0C39480F7
:0723330040E809E9B408DBF2
:01233A002280
:1023FD00D3EF9400EE940040147D657C18ED1D70B4
:0D240D00011CED4C70F7EF1F70E61E80E320
:01241A00229F
:10246A00EF1FAA0670011E4A600BE4FDEDC3947BC0
:05247A0050EE0D80F79B
:01247F00223A
:0822DA0090007CE0FFA3E0FD91
:1022E200A907ED24B0FFE433FEE4FDFC122356E916
:1022F20054F0C4540F7E004410FFE4FDFC12235638
:0C230200E9540FFF7E00E4FDFC022356AE
:102453007F8D122352E4FDFC7F14FE122356E4FD0C
:07246300FC7FAFFE022356CF
:10249300E4FDFC7F8D12234CE4FDFC7FAEFE0223A2
:0124A30056E2
:1023B500E4F912233BE490007CF07D017C00E4FF0E
:1023C500FE12235690007CE004F0E0C3948040EABE
:0523D50009E9B408DD78
:0123DA0022E0
:10238E00E4F912233BE4900083F07D017C007F0191
:10239E007E00122356900083E004F0E0C394804048
:0623AE00E909E9B408DCB6
:0123B4002206
:0A1E790090007DEDF090007CEFF08A
:101E8300E4900080F0F9EBF0EFD3947F400AE49004
:101E9300007CF0A3E02402F090007FE06410706EF9
:101EA3001222DAE4F9900080E075F010A429F5829B
:101EB300E435F0F583E5822436F582E5833402F5D3
:101EC30083E493FF7E007D017C0012235609E9B46D
:101ED30008D390007CE0FFA3E004FD1222E2E4F9C2
:101EE300900080E075F010A429F582E435F0F583C5
:101EF300E582243EF582E5833402F583E493FF7E95
:101F0300007D017C0012235609E9B408D322122272
:101F1300DAE4F9900080E075F006A4240EF582E57A
:101F2300F03400F583E58229F582E43583F583E413
:101F330093FF7E007D017C0012235609E9B406D38A
:011F4300227B
:07241B00900084EFF0A90519
:102422007F017E00AD0119ED600C900084E0FD7C1F
:06243200001218E080EE2C
:012438002281
:0E1F4400900066EFF0A3EDF0A3EAF0A3EBF03F
:101F5200E490006EF090006CF090006AE0FF900058
:101F62006CE0FEC39F4003021FFEC3EF9E14FD7F81
:101F72000A12241B900068E0FCA3E0FDCFCDCFCE77
:101F8200CCCE1218F27C007D0A1218F290006DED90
:101F9200F0A3E0703690006AE014FF90006CE0FE5F
:101FA200C39F5027A3E0701D90006BE0FCC3138E0B
:101FB200F0A4FF900066E02FFFA3E0FD90007FEC0D
:101FC200F07B20802B90006E7401F090006BE0FE9D
:101FD200C313FFA3E0FDEF8DF0A4FF900066E02F96
:101FE200FFA3E0FD90006DE02430FB90007FEEF057
:0C1FF200121E7990006CE004F0021F5BEE
:011FFE0022C0
:1022210090006FEFF0A3EDF0A3EBF0A3EAF0A3E9C8
:01223100F0BC
:10223200E4900075F0900071E0FBA3E0FAA3E0F9EE
:10224200900075E0F5827583001218B3FB602F9041
:10225200006FE0FFA3E0FD900074E090007FF012B9
:102262001E7990006FE02408F0E0D394784007E4F0
:0E227200F0A3E02402F0900075E004F080B7C5
:01228000223B
:0D21A10090007EEBF090007CEFF0A3EDF0DD
:1021AE00E490007FF01222E2E4F990007EE075F0F8
:1021BE0040A42426F582E5F03408F583E58229F55E
:1021CE0082E43583F583E493FF7E007D017C00126B
:1021DE00235609E9B410D390007CE0FFA3E004FD80
:1021EE001222E2E4F990007EE075F040A42446F558
:1021FE0082E5F03408F583E58229F582E43583F52E
:10220E0083E493FF7E007D017C0012235609E9B41E
:02221E0010D3DB
:01222000229B
:0A1FFF0090005BEFF090005DEBF046
:10200900E4900062F0A3F090005EE0FF54077008CE
:10201900EF131313541F800A90005EE01313135437
:102029001F04900065F0900065EDF090005EE0FF00
:10203900900065E0FDC39F504F90005BE0FF1222C6
:10204900E2E0900064F090005DE0FF900064E0C37E
:102059009F502D90005FE0FBA3E0FAA3E0F9A3E411
:1020690075F00112194785F082F5831218B3FF7EC6
:10207900007D017C00122356900064E004F080C6C4
:08208900900065E004F080A363
:01209100222C
:101CC500E4FDFC7FAEFE122345E4FDFC7F40FE12E1
:101CD5002356E4FDFC7FB0FE122356E4FDFC7F8114
:101CE500FE122356E4FDFC7FFFFE122356E4FDFCA5
:101CF5007FA1FE122356E4FDFC7FA6FE122356E4C7
:101D0500FDFC7FA8FE122356E4FDFC7F3FFE122357
:101D150056E4FDFC7FC8FE122356E4FDFC7FD3FE8E
:101D2500122356E4FDFCFFFE122356E4FDFC7FD58D
:101D3500FE122356E4FDFC7F80FE122356E4FDFCD3
:101D45007FD8FE122356E4FDFC7F05FE122356E4E0
:101D5500FDFC7FD9FE122356E4FDFC7FF1FE122324
:101D650056E4FDFC7FDAFE122356E4FDFC7F12FEED
:101D7500122356E4FDFC7FDBFE122356E4FDFC7FB7
:101D850030FE122356E4FDFC7F8DFE122356E4FD42
:101D9500FC7F14FE122356E4FDFC7FAFFE022356A2
:1014E90002189EE86480F8E933E83360110460F07B
:1014F900ED33EC337009E8FCE9FDEAFEEBFF220469
:1015090060DED3EB9FEA9EE99DE8C2E78CF0C2F763
:1015190095F0400CE8CCF8E9CDF9EACEFAEBCFFB2F
:1015290012186985D0F05804700320D5B3E8047007
:10153900075002B2D50218A892D5EC0460F7E4CCA2
:10154900C0E0C398F8603B94186008400DD0E0FBF8
:10155900021880E4FBFAC9FC8028E830E406E4C9F3
:10156900FBE4CAFCE830E305E4C9CACBFCE854074C
:101579006010F8C3E913F9EA13FAEB13FBEC13FC57
:10158900D8F130F52FC3E49CFCEF9BFFEE9AFEEDFA
:1015990099FDD0E0FBEF4E4D4C701222DB0302188F
:1015A900A5EC2CFCEF33FFEE33FEED33FDED30E718
:1015B900EB021880EF2BFFEE3AFEED39FDD0E0FB90
:1015C90050130BBB00030218A8ED13FDEE13FEEF39
:0815D90013FFEC13FC02188063
:1015E100EC4D6011E8497017ED33EC3304600DE404
:1015F100FCFFFEFD22E933E8330470F802189E1265
:10160100186958046009E4CC248150062850090265
:1016110018A82840030218A5C0E0EB4A7044B9801D
:1016210006D0E0FB021894EF4E701CBD8008EBFF62
:10163100EAFEE9FD80EBE98DF0A4FEE5F00216CAB1
:10164100E9CDF9EAFEEBFFEF89F0A4FCE5F0CE89E4
:10165100F0A42EFFE435F0CD89F0A42DFEE435F0A1
:101661008067EF4E7005BD80D780C3EF8BF0A4ACCF
:10167100F0EE8BF0A42CFCE435F0F8EF8AF0A42C0A
:10168100E5F038FCE433CB8DF0A42CFCE5F03BF81D
:10169100EE8AF0A42CFCE5F038F8E433CF89F0A40D
:1016A1002CFCE5F038CF3400CE89F0A42FFFE5F013
:1016B1003EFEE433C98DF0A42EFEE5F039CD8AF06B
:1016C100A42FFFE5F03EFEE43DFD33D0E0FB5007E3
:1016D1000BBB000F0218A8EC2CFCEF33FFEE33FE1E
:0616E100ED33FD0218804C
:1016E7000218A8EC5D046005E85904700302189E0F
:1016F700121869580460F6EC4860F2EC7004FDFEBD
:10170700FF22C860DB2481C85009C39860025006D5
:101717000218A59850CAF582E9294B4A7005AB8291
:1017270002189475F0007C1A7880C3EF9BEE9AED4F
:1017370099400DC3EF9BFFEE9AFEED99FDE842F04D
:10174700DC23ACF0D0E0FFD0E0FED0E0FDAB8220A0
:10175700E7101BEB60BAEC2CFCEF33FFEE33FEED2A
:1017670033FD021880E803F830E705C0F075F00094
:10177700EF2FFFEE33FEED33FD40B830E7C280AA0E
:1017870074F8CC6480CCC86480C8F582046043C315
:10179700EB9FF5F0EA9E42F0E99D42F0E89C45F0A8
:1017A70060305018E5825FFFE582F42B5582FB50CD
:1017B700210ABA001D09B90019088016E5825BFBEA
:1017C700E582F42F5582FF50090EBE00050DBD00BE
:1017D700010CC3EB9FF5F0EA9E42F0E99D42F0E869
:0D17E7009C45F06007CC4820E701B3EC22E0
:1017F40075F020800E75F010800575F0087D007E70
:10180400007F003392D530D50312195DEC334010BC
:10181400EF33FFEE33FEED33FDEC33FCD5F0ED2278
:0E182400E5F0247EA2D513CC92E7CDCEFF22B4
:10183200EDD2E7CD33EC3392D524814006E4FFFEAE
:10184200FDFC22FCE4CFCECDCC24E0501174FF800D
:10185200EDC3CC13CCCD13CDCE13CECF13CF0470AA
:07186200F030D5DE02195D34
:10186900E9D2E7C933E833F892D5EDD2E7CD33ECC5
:0718790033FC5002B2D5223E
:10188000EC30E7100FBF000C0EBE00080DBD0004C9
:101890000BEB6014A2D5EB13FCED92E7FD2274FF75
:1018A000FCFDFEFF22E480F8A2D574FF13FC7D80CE
:0318B000E480EFE2
:0300000002209249
:0C209200787FE4F6D8FD7581070220D9A4
:1018B300BB010CE58229F582E5833AF583E02250EA
:1018C30006E92582F8E622BBFE06E92582F8E22234
:0D18D300E58229F582E5833AF583E493224E
:1018E000EF8DF0A4A8F0CF8CF0A428CE8DF0A42E1C
:0218F000FE22D6
:1018F200BC000BBE0029EF8DF084FFADF022E4CCDA
:10190200F875F008EF2FFFEE33FEEC33FCEE9DECA2
:10191200984005FCEE9DFE0FD5F0E9E4CEFD22EDE8
:10192200F8F5F0EE8420D21CFEADF075F008EF2F32
:10193200FFED33FD4007985006D5F0F222C398FD23
:051942000FD5F0EA22C0
:10194700A3F8E0C5F025F0F0E58215827002158353
:06195700E0C838F0E822B0
:0E195D00C3E49FFFE49EFEE49DFDE49CFC229B
:0C196B00ECF0A3EDF0A3EEF0A3EFF022EF
:10197700A8828583F0D083D08212198E12198E1215
:10198700198E12198EE473E493A3C583C5F0C5833A
:10199700C8C582C8F0A3C583C5F0C583C8C582C8BA
:0119A700221D
:10209E00021B51E493A3F8E493A34003F68001F2EC
:1020AE0008DFF48029E493A3F85407240CC8C33343
:1020BE00C4540F4420C8834004F456800146F6DF12
:1020CE00E4800B010204081020408090211EE47E63
:1020DE00019360BCA3FF543F30E509541FFEE49307
:1020EE00A360010ECF54C025E060A840B8E493A3CE
:1020FE00FAE493A3F8E493A3C8C582C8CAC583CAF9
:10210E00F0A3C8C582C8CAC583CADFE9DEE780BEB0
:0121A000003E
:00000001FF
