:020000040800F2
:10000000000B002005060008090400080B04000886
:100010000F04000813040008170400080000000083
:100020000000000000000000000000001B040008A9
:100030001D040008000000001F040008210400083F
:100040001F0600081F0600081F0600081F060008FC
:100050001F0600081F0600081F0600081F060008EC
:100060001F0600081F0600081F0600081F060008DC
:100070001F0600081F0600081F0600081F060008CC
:100080001F0600081F0600081F0600081F060008BC
:100090001F0600081F0600081F0600081F060008AC
:1000A0001F060008C54100081F0600081F060008BB
:1000B0001F0600081F060008EB2700081F0600089F
:1000C0001F0600081F0600081F0600081F0600087C
:1000D0001F0600081F2600081F0600081F0600084C
:1000E0001F0600081F0600081F06000800F002F89F
:1000F00000F05AF80AA090E8000C82448344AAF168
:100100000107DA4501D100F04FF8AFF2090EBAE865
:100110000F0013F0010F18BFFB1A43F0010318473B
:10012000F0760000107700000A444FF0000C10F841
:10013000013B13F0070408BF10F8014B1D1108BF65
:1001400010F8015B641E05D010F8016B641E01F805
:10015000016BF9D113F0080F1EBF10F8014BAD1C55
:100160000C1B09D16D1E58BF01F801CBFAD505E073
:1001700014F8016B01F8016B6D1EF9D59142D6D3CD
:10018000704700000023002400250026103A28BFF5
:1001900078C1FBD8520728BF30C148BF0B607047F9
:1001A0001FB51FBD10B510BD04F066F91146FFF76D
:1001B000F7FF00F009F804F084F903B4FFF7F2FF49
:1001C00003BC02F0D1F900004FF0000A02F062F91E
:1001D0004FF4A06000F036FA4FF4165002F0D3F955
:1001E00002F02EFF02F060FA03F064FF03F037FE26
:1001F00003F07BFC472140F2E73003F076FF41F645
:100200001F41132002F0C4FA00BF0CE0012002F0ED
:100210008DFA044606F08CFB6F4941F82A000AF17A
:1002200001000FFA80FABAF10A0FEFDBC3E00021F8
:100230006A48006806F090FC51D269480168674836
:10024000006806F011FA67490860002166480068F6
:1002500006F082FC1ED2654801686248006806F01C
:10026000B7FC0446002106F077FC03D25D48006825
:100270005E4908605D48006806F0CAF906465C4AB7
:100280005C4B05F0C7FC044605F01CFE80465A494D
:1002900004F04FF800215448006806F05DFB1ED2C0
:1002A000524801684F48006806F092FC044600215D
:1002B00006F052FB03D24B4800684C4908604B489B
:1002C000006806F0A5F90646494A4A4B05F0A2FC2B
:1002D000044605F0F7FD8046474904F02AF800215E
:1002E0003E48006806F038FB5BD23D4801683B4859
:1002F000006806F0B9F93B49086000213A480068F7
:1003000006F02AFB23D23D4801683648006806F013
:100310005FFC0446002106F01FFB03D23148006851
:10032000364908603548006806F072F98046304A60
:10033000304B05F06FFC06460022314B05F0AEFB5A
:10034000044605F0BFFD83462E4903F0F2FF00216D
:100350002548006806F000FC23D22848016821489F
:10036000006806F035FC0446002106F0F5FB03D2D8
:100370001C480068214908602048006806F048F9D8
:1003800006461B4A1B4B05F045FC804600221C4BD1
:1003900005F084FB044605F095FD8346194903F0FA
:1003A000C8FF0E48006806F08FFA04B2224600210A
:1003B000084602F0B2FF3AE7002107E042F6E061AA
:1003C00000BF0A00A1F1010399B2FAD10200A0F125
:1003D000010398B2F2D170479C0300200000002076
:1003E000500000205400002074000020580000201D
:1003F00092CB7F48BF7D7D3FA08601005C0000203E
:1004000000005940905F0100704700BFFEE700BF49
:10041000FEE700BFFEE700BFFEE77047704770478A
:10042000704700000CB50020019000906C480068F7
:1004300040F480306A49086000BF6948006800F4F1
:10044000003000900198401C0190009818B9019864
:10045000B0F5A06FF1D16248006800F4003010B12F
:100460000120009001E0002000900098012843D175
:100470005C48006840F010005A490860084600686F
:1004800020F0030008600846006840F002000860A1
:1004900053484068524948600846406848600846EA
:1004A000406840F4806048600846406820F47C1052
:1004B00048600846406840F4E81048600846006814
:1004C00040F08070086000BF4548006800F0007090
:1004D0000028F9D04248406820F0030040494860B5
:1004E0000846406840F00200486000BF3C48406851
:1004F00000F00C000828F9D10CBD10B5FFF792FFF1
:1005000010BD10B53648006840F00100344908605D
:100510000846406834490840314948600846006848
:10052000324908402E4908600846006820F48020BF
:1005300008600846406820F4FE0048604FF41F0041
:100540008860FFF7DAFF4FF000602949086010BDAE
:1005500010B5002100200022214B5B6803F00C0144
:1005600021B1042906D0082928D107E0214B224CCB
:10057000236027E01F4B204C236023E0184B5B686F
:1005800003F47010164B5B6803F48032022303EB14
:10059000904022B9194B4343174C23600DE0104B98
:1005A0005B6803F4003323B1144B4343124C2360C4
:1005B00003E0104B4343104C236003E00D4B0E4C03
:1005C000236000BF00BF064B5B68C3F303130C4CF2
:1005D000E15C094B1B68CB40074C236010BD000059
:1005E00000100240002002400000FFF8FFFFF6FE6E
:1005F00008ED00E000127A001400002000093D0020
:10060000180000200948804709480047FEE7FEE738
:10061000FEE7FEE7FEE7FEE7FEE7FEE7FEE7FEE7B2
:1006200004480549054A064B7047000003050008C9
:10063000ED00000800050020000B0020000700204E
:100640000007002031490143314A1160704770B5FD
:10065000002100230F22C47804B32D4C246804F435
:10066000E064C4F5E064210AC1F10403CA4044789F
:1006700004FA03F18478144021430901254C0678DB
:10068000A155047804F01F050124AC4005786D11D4
:10069000AD0005F1E025C5F8004109E0047804F05B
:1006A0001F050124AC401C4D0678761145F8264004
:1006B00070BD1A4A0A400243154B1B1F1A6070474F
:1006C00039B1134A121D12680243114B1B1D1A60E7
:1006D00006E00F4A121D126882430D4B1B1D1A6063
:1006E0007047042808D14FF0E021096941F0040166
:1006F0004FF0E022116107E04FF0E021096921F09D
:1007000004014FF0E0221161704700000000FA057B
:100710000CED00E000E400E080E100E080FFFF1F5E
:1007200010B50446FA48844208D10121401500F072
:1007300055FD0021601500F051FD17E0F548844299
:1007400008D10121001500F049FD0021201500F01D
:1007500045FD0BE0F048844208D10121C80300F0B8
:100760003DFD00214FF4004000F038FD10BD30B5D4
:100770000246002000235068E84C20400D790C68A8
:1007800044EA0524204350609068E54C2040D1E9BC
:1007900002542C434D7944EA450420439060D06ACA
:1007A00020F470000C7C641EE4B2234340EA035042
:1007B000D06230BD00210160017141718160C16072
:1007C00001210174704721B1826842F00102826008
:1007D00003E0826822F001028260704721B18268E2
:1007E00042F48072826003E0826822F48072826048
:1007F000704710B50023CBB21AB144681C43446063
:1008000002E044689C43446010BD816841F00801E7
:1008100081607047014600208A6802F008020AB130
:10082000012000E000207047816841F004018160F0
:100830007047014600208A6802F004020AB10120D4
:1008400000E00020704721B1826842F4A00282607B
:1008500003E0826822F4A002826070470146002013
:100860008A6802F480020AB1012000E0002070478B
:1008700010B50A4600210023416821F46041531E4F
:1008800041EA4331416010BD21B1426842F4006247
:10089000426003E0426822F4006242607047F0B5B3
:1008A00004460D4600200021092D11DDE068A5F168
:1008B0000A0606EB4607072606FA07F18843A5F164
:1008C0000A0606EB460603FA06F10843E0600CE070
:1008D000206905EB4507072606FA07F1884305EB73
:1008E000450603FA06F108432061072A0FDA606B18
:1008F000561E06EB86071F2606FA07F18843561E8A
:1009000006EB860605FA06F10843606322E00D2A2D
:100910000FDA206BD61F06EB86071F2606FA07F1B3
:100920008843D61F06EB860605FA06F108432063C6
:1009300010E0E06AA2F10D0606EB86071F2606FA14
:1009400007F18843A2F10D0606EB860605FA06F1CB
:100950000843E062F0BD21B1826842F480128260F7
:1009600003E0826822F48012826070470146C86CFE
:1009700080B2704766484C300068704721B14268C9
:1009800042F48062426003E0426822F48062426086
:10099000704721B1426842F48052426003E04268ED
:1009A00022F48052426070470A460021816821F497
:1009B000E04111438160704721B1826842F40042F6
:1009C000826003E0826822F400428260704721B1B5
:1009D000826842F40212826003E0826822F402120A
:1009E00082607047014600208A6802F400120AB152
:1009F000012000E000207047F0B5044615460020B5
:100A000000220026092911DDE068A1F10A0707EBA1
:100A1000470C072707FA0CF29043A1F10A0707EBEE
:100A2000470703FA07F21043E0600CE0206901EB8E
:100A3000410C072707FA0CF2904301EB410703FA38
:100A400007F210432061A06BC0F30156EF1C06F1C2
:100A5000010CA7EB0C0707EB870C1F2707FA0CF21A
:100A60009043EF1C06F1010CA7EB0C0707EB87077F
:100A700001FA07F21043A063F0BD10B50A46002149
:100A80000023816B21F44011531E41EA035181631D
:100A900010BD08B5002300930090009B0B44009309
:100AA000009B1A6008BD08B5024600200090009225
:100AB00001F12800009B184400900098006880B263
:100AC00008BD0A4600214168164B19401143416098
:100AD00070474162826270470A460021416821F0F6
:100AE0001F0111434160704740B10949083109684D
:100AF00041F40001064A0832116007E00449083158
:100B0000096821F40001024A0832116070470000B0
:100B10000024014000280140003C0140FFFEF0FF9E
:100B2000FDF7F1FFFFFD3FFF0246002013680B4079
:100B30000BB1012000E000207047CA4302607047FB
:100B400070B502460020002300240B125568CEB277
:100B500005EA060415681D4015B10CB1012000E03E
:100B6000002070BD00220A12D343036070470000CA
:100B700010B50446CC48844208D10121042000F07D
:100B80002DFB0021042000F029FB46E0C7488442E9
:100B900008D10121082000F021FB0021082000F0ED
:100BA0001DFB3AE0C248844208D10121102000F028
:100BB00015FB0021102000F011FB2EE0BD488442FF
:100BC00008D10121202000F009FB0021202000F0A5
:100BD00005FB22E0B848844208D10121402000F002
:100BE000FDFA0021402000F0F9FA16E0B3488442F3
:100BF00008D10121802000F0F1FA0021802000F0CE
:100C0000EDFA0AE0AE48844207D10121801500F0D8
:100C1000E5FA0021A01500F0E1FA10BD10B50121A0
:100C2000084600F0DBFA0021012000F0D7FA10BDE1
:100C30002DE9F04102460025002600200023002473
:100C4000002791F803C00CF00F0591F803C00CF0D9
:100C5000100CBCF1000F03D091F802C04CEA05055E
:100C600091F800C0BCF1000F31D0146800202BE0D7
:100C70004FF0010C0CFA00F3B1F800C00CEA0306C7
:100C80009E4220D183004FF00F0C0CFA03F7BC43B7
:100C900005FA03FC4CEA040491F803C0BCF1280FE8
:100CA00006D14FF0010C0CFA00FCC2F814C00AE0A7
:100CB00091F803C0BCF1480F05D14FF0010C0CFABC
:100CC00000FCC2F810C0401C0828D1D31460B1F851
:100CD00000C0BCF1FF0F34DD546800202EE000F1AD
:100CE000080C4FF0010808FA0CF3B1F800C00CEA48
:100CF00003069E4221D183004FF00F0C0CFA03F73C
:100D0000BC4305FA03FC4CEA040491F803C0BCF1AF
:100D1000280F05D100F1080C08FA0CF8C2F814806D
:100D200091F803C0BCF1480F07D100F1080C4FF057
:100D3000010808FA0CF8C2F81080401C0828CED32D
:100D40005460BDE8F0814FF6FF710180022181708F
:100D50000421C17070470246002093680B400BB11C
:100D6000012000E0002070470146886880B270478B
:100D700002460020D3680B400BB1012000E00020A8
:100D800070470146C86880B2704701617047416191
:100D900070470AB1016100E041617047C16070476E
:100DA0004FF480320A438261816182618269826983
:100DB000704702460020434B18684FF68073184076
:100DC00040EA021008433F4B186070473E49C86133
:100DD0007047F0B50A46002300240021002500F0EA
:100DE0000046B6F1004F02D1364EF16901E0354EB2
:100DF0007168C0F3034583B200F44016B6F5401F96
:100E000008D121F070612F4E766826F070662D4F64
:100E10007E6012E000F48016B6F5801F06D103262E
:100E200006FA05F4A14341F0706106E0460D360173
:100E300003FA06F6B14341F0706122B1460D360166
:100E400003FA06F6314300F00046B6F1004F02D136
:100E50001C4EF16101E01B4E7160F0BD30B5002207
:100E60008B071C0F0F2303FA04F2164B08338C1068
:100E700053F824309343134C08348D1044F8253034
:100E800023468C1053F824308C07240F00FA04F406
:100E900023430C4C08348D1044F8253030BD0A49EA
:100EA000DC3108607047000000080140000C014080
:100EB000001001400014014000180140001C0140D6
:100EC000002001400000014000002042DF4800688F
:100ED00040F00100DD49086008464068DC490840F0
:100EE000DA49486008460068DA490840D74908608E
:100EF0000846006820F4802008600846406820F416
:100F0000FE0048604FF41F0088607047CF490968B1
:100F100021F48031CD4A11601146096821F4802105
:100F20001160B0F5803F03D0B0F5802F0ED106E000
:100F3000C649096841F48031C44A116007E0C349D9
:100F4000096841F4A021C14A116000E000BF00BF60
:100F5000704710B501460022002300204A11012AE3
:100F600002D1BA4C236806E0022A02D1B74C236AA8
:100F700001E0B64C636A01F01F02012494401C405A
:100F80000CB1012000E0002010BD38B50020009019
:100F90000024002500BF3120FFF7DBFF0546009845
:100FA000401C00900098B0F5A06F01D0002DF2D049
:100FB0003120FFF7CEFF08B1012400E000242046D5
:100FC00038BD01460020A14A106820F0F80040EA30
:100FD000C10010607047A0490860704702460020B9
:100FE0009A4B586820F47C1042EA01031843974B4F
:100FF0005860704798490866704701460020934A38
:10100000506820F003000843506070478F484068E4
:1010100000F00C007047014600208C4A506820F018
:10102000F00008435060704701460020874A50682E
:1010300020F4E06008435060704701460020834A76
:10104000506820F4605040EAC1005060704729B1F8
:101050007E4A527A02437D4B5A7204E07B4A527AAE
:1010600082437A4B5A7270477B49D8310860704787
:1010700001460020754A506820F440400843506003
:1010800070470021714A20321170704A82F8201096
:10109000012802D004280AD104E001216B4A203241
:1010A000117005E00521694A2032117000E000BF8F
:1010B00000BF70476949086070476449096A014385
:1010C000624A11627047654944390860704730B51B
:1010D00000210022002400235C4D6D6805F00C0106
:1010E00021B1042905D0082923D105E05C4D056014
:1010F00022E05B4D05601FE0544D6D6805F47012F1
:10110000524D6D6805F48034022505EB92421CB9FE
:10111000544D554305600BE04C4D6D6805F40035AA
:101120001DB1504D5543056002E04D4D55430560DE
:1011300002E04B4D056000BF00BF444D6D6805F0F7
:10114000F0010909484D6B5C0568DD4045603F4D85
:101150006D6805F4E061090A434D6B5C4568DD404C
:1011600085603A4D6D6805F46051C90A3E4D6B5C6F
:101170004568DD40C560354D6D6805F44041890B1B
:101180003A4D6B5CC568B5FBF3F5056130BD29B11F
:101190002E4A526902432D4B5A6104E02B4A526990
:1011A00082432A4B5A61704729B1284A9269024307
:1011B000264B9A6104E0254A92698243234B9A6147
:1011C000704729B1214AD2690243204BDA6104E019
:1011D0001E4AD26982431D4BDA61704729B11B4A0E
:1011E000D2680243194BDA6004E0184AD26882439D
:1011F000164BDA60704729B1144A12690243134B47
:101200001A6104E0114A12698243104B1A61704757
:1012100012494039086070470F49C86470470B494C
:10122000C87170470948406A40F0807007494862B9
:10123000704701460020054A92680A400AB1012021
:1012400000E000207047014988727047001002409A
:101250000000FFF8FFFFF6FE000042428004424219
:1012600000127A0000093D0028000020380000200C
:1012700010B50446FE48844208D10121C014FFF78E
:10128000ADFF0021E014FFF7A9FFC4E0B4F1804FE7
:1012900008D101210846FFF7AEFF00210120FFF72A
:1012A000AAFFB8E0F348844208D101210220FFF7E9
:1012B000A2FF00210220FFF79EFFACE0EE4884422F
:1012C00008D101210420FFF796FF00210420FFF739
:1012D00092FFA0E0E948844208D101210820FFF7ED
:1012E0008AFF00210820FFF786FF94E0E44884424B
:1012F00008D101211020FFF77EFF00211020FFF709
:101300007AFF88E0DF48844208D101212020FFF7DE
:1013100072FF00212020FFF76EFF7CE0DA48844254
:1013200008D101214014FFF759FF00216014FFF795
:1013300055FF70E0D548844209D10121C804FFF768
:101340004DFF00214FF40020FFF748FF63E0D04835
:10135000844209D101210805FFF740FF00214FF425
:101360008010FFF73BFF56E0CA48844209D10121B3
:101370004805FFF733FF00214FF40010FFF72EFF61
:1013800049E0C548844208D101214020FFF733FFDE
:1013900000214020FFF72FFF3DE0C048844208D1E4
:1013A00001218020FFF727FF00218020FFF723FF86
:1013B00031E0BB48844208D101218015FFF71BFFB3
:1013C0000021A015FFF717FF25E0B648844209D198
:1013D00001210804FFF702FF00214FF48030FFF7DE
:1013E000FDFE18E0B048844209D101214804FFF70E
:1013F000F5FE00214FF40030FFF7F0FE0BE0AB48A4
:10140000844208D101218804FFF7E8FE00214FF44F
:101410008020FFF7E3FE10BD00220288944B984223
:101420000ED0994B98420BD0B0F1804F08D0914B21
:10143000984205D0904B984202D0904B984204D1EC
:101440004FF68F731A404B881A438D4B984207D042
:101450008C4B984204D04FF6FF431A40CB881A4376
:1014600002808B8883850B880385814B98420BD043
:10147000854B984208D08B4B984205D08A4B9842B6
:1014800002D08A4B984201D10B7A038601238382D2
:10149000704770B5002400220023058C4FF6FE76BD
:1014A00035400584028C8388048B4FF68F752C4061
:1014B000B51E2C400D882C43751E2A400D892A43E9
:1014C0004D882A436A4DA8420BD06F4DA84208D0E0
:1014D000744DA84205D0744DA84202D0734DA84265
:1014E00013D14FF6F7752A404D892A434FF6FB7505
:1014F0002A408D882A434FF6FF652B404FF6FF5553
:101500002B408D892B43CD892B4383800483CD8849
:101510008586028470BD70B5002400220023058CEE
:101520004FF6EF7635400584028C8388048B48F6AD
:10153000FF752C404FF6FF452C400D884FF6FF7687
:1015400006EA05252C434FF6DF752A400D8906EA89
:1015500005152A434D8806EA05152A43444DA8423D
:1015600002D0494DA8421DD14FF67F752A404D89C2
:101570004FF6FF7606EA05152A434FF6BF752A4057
:101580008D8806EA05152A434FF6FF352B404FF2AA
:10159000FF752B408D8906EA85052B43CD8906EA28
:1015A00085052B4383800483CD880587028470BD25
:1015B00070B5002400220023058C4FF6FF663540ED
:1015C0000584028C8388848B4FF68F752C404FF6F0
:1015D000FC752C400D882C434FF6FF552A400D8991
:1015E0004FF6FF7606EA05252A434D8806EA0525CB
:1015F0002A431F4DA84202D0234DA8421DD14FF2CD
:10160000FF752A404D894FF6FF7606EA05252A43E5
:101610004FF6FF352A408D8806EA05252A434EF607
:10162000FF752B404DF6FF752B408D8906EA051599
:101630002B43CD8906EA05152B4383808483CD880F
:101640008587028470BD70B5002200230024058CBC
:101650004EF6FF7635400584038C8488828B48F6ED
:10166000FF752A404FF6FF452A400D8820E0000014
:10167000002C01400004004000080040000C004025
:10168000001000400014004000340140004C0140B4
:10169000005001400054014000180040001C004070
:1016A000002000400040014000440140004801404B
:1016B0004FF6FF7606EA05252A434DF6FF752B40C7
:1016C0000D8906EA05352B434D8806EA05352B437F
:1016D000FA4DA84202D0FA4DA84208D14BF6FF7548
:1016E0002C408D894FF6FF7606EA85152C438480C1
:1016F0008283CD88A0F84050038470BD828B4FF266
:10170000FF331A408283828B4FF6FF7303EA012373
:101710001A4382837047F0B50C461546002200211B
:101720000026078C4EF6FF7C07EA0C070784828BA5
:10173000018C4FF6FF7707EA043640F6FF473A4040
:101740004FF6FF7707EA05273A434FF6FF7707EA98
:1017500003373A43D94FB8420ED0D94FB8420BD0D5
:10176000B0F1804F08D0D74FB84205D0D64FB8421D
:1017700002D0D64FB84206D14DF6FF77394046F435
:101780008057394305E047F6FF57394044F4805706
:10179000394382830184F0BD828B4FF6F3731A4084
:1017A0008283828B0A4382837047F0B50C461546CC
:1017B000002200210026078C4FF6FF6C07EA0C0779
:1017C0000784828B018C4FF6FF7707EA04264FF6D9
:1017D0000C773A404FF6FF7707EA03172F433A4357
:1017E000B64FB8420ED0B64FB8420BD0B0F1804FD2
:1017F00008D0B44FB84205D0B34FB84202D0B34F6F
:10180000B84206D14FF6FF57394046F48077394346
:1018100005E04FF2FF57394044F480773943828323
:101820000184F0BD028B4FF2FF331A400283028B1A
:101830004FF6FF7303EA01231A4302837047F0B5A2
:101840000C461546002200210026078C4FF6EF7C3F
:1018500007EA0C070784028B018C4FF6FF7707EA33
:10186000041640F6FF473A404FF6FF7707EA033782
:101870003A434FF6FF7707EA05273A438F4FB842BE
:101880000ED08F4FB8420BD0B0F1804F08D08D4FA3
:10189000B84205D08C4FB84202D08C4FB84206D126
:1018A0004FF6DF77394046F01007394305E04FF631
:1018B0005F77394044F01007394302830184F0BD5B
:1018C000028B4FF6F3731A400283028B0A430283A2
:1018D0007047F0B50C46154600220021068C4FF6E5
:1018E000FE773E400684028B018C4FF60C76324028
:1018F0007E1C06EA03162E433243704EB0420ED0D1
:101900006F4EB0420BD0B0F1804F08D06D4EB04258
:1019100005D06D4EB04202D06C4EB04206D14FF6AB
:10192000FD76314044F00106314305E04FF6F5768F
:10193000314044F00106314302830184F0BD70B5AB
:1019400005460C465D4885420ED05D4885420BD069
:10195000B5F1804F08D05B48854205D05A48854292
:1019600002D05A48854200D100E000BF208850B91B
:101970002389A28861882846FFF7ABFFE1882846C3
:10198000FFF79EFF25E0208804280AD12389A2883A
:1019900061882846FFF753FFE1882846FFF742FF9A
:1019A00017E0208808280AD12389A2886188284660
:1019B000FFF7FBFEE1882846FFF7EEFE09E02389EA
:1019C000A28861882846FFF7A6FEE1882846FFF72F
:1019D00095FE70BD2DE9F04105460C460026012715
:1019E000608808B9022600E00026A088012801D1FD
:1019F000022700E001272088A0B92389A2886188F6
:101A00002846FFF766FFE1882846FFF759FF23893C
:101A10003A4631462846FFF712FFE1882846FFF78D
:101A200001FF13E02389A28861882846FFF707FF9A
:101A3000E1882846FFF7F6FE23893A4631462846D4
:101A4000FFF747FFE1882846FFF73AFFBDE8F0813E
:101A50000A884B881A438B881A43CB881A430B8910
:101A60001A434B891A438B891A43A0F844207047C4
:101A70004FF6FF71818000210180C1804180017299
:101A800070470021018041808180C18001814181B6
:101A90008181C181704700210180418001218180C5
:101AA0000021C18001817047002101804180818037
:101AB000C18001814181818170470000002C01407B
:101AC000003401400004004000080040000C0040C9
:101AD00021B1028842F00102028004E002884FF640
:101AE000FE731A400280704731B1B0F8442042F4CE
:101AF0000042A0F8442005E0B0F84420C2F30E02F2
:101B0000A0F8442070471AB183890B43838102E017
:101B100083898B43838170478182704741EA020346
:101B2000A0F8483070471AB183890B43838102E0E3
:101B300083898B438381704701894FF6F872114086
:101B4000018170470A46002101894FF68F731940C1
:101B500011430181704730B504460D4629462046A1
:101B6000FFF7F0FF208940F00700208130BD2DE90C
:101B7000F04104460D4616461F46602D06D13B46F1
:101B8000012231462046FFF75AFE05E03B4601227E
:101B900031462046FFF79DFE29462046FFF7D2FF3B
:101BA000208940F007002081BDE8F08130B50C4667
:101BB00000210189C9B24FF6FF7505EA03251543D7
:101BC00025432943018130BD2DE9F04105460E46EC
:101BD00017469846002443463A4631462846FFF7C2
:101BE000E5FF2C894FF6F870044044F007044FF6E7
:101BF0008F70044044F070042C81BDE8F081F0B592
:101C000004460D4616461F463B46324629462046A8
:101C1000FFF7CCFF208940F480402081F0BD018592
:101C2000828270470A46002101884FF68F7319405F
:101C3000114301807047F0B50C4615461E46002141
:101C4000002200230189028B038C4FF6F87739407C
:101C500021434FF6FC473A4040F201173A434FF612
:101C6000DD773B404FF6FF7707EA06172F433B43EC
:101C7000018102830384F0BD0A460021018B4FF6E7
:101C80008F7319401143018370470A460021018B6D
:101C900048F6FF7319404FF6FF7303EA0223194316
:101CA000018370470A460021818B4FF68F731940DC
:101CB0001143818370470A460021818B48F6FF73E8
:101CC00019404FF6FF7303EA0223194381837047DB
:101CD00021B1028842F08002028004E002884FF6BF
:101CE0007F731A400280704721B1828842F004025B
:101CF000828004E082884FF6FB731A40828070472E
:101D000021B1828842F00802828004E082884FF686
:101D1000F7731A408280704721B1828842F0010235
:101D2000828004E082884FF6FE731A4082807047FA
:101D30000A460021018B4FF6F773194011430183C6
:101D400070470A460021018B4FF2FF7319404FF68E
:101D5000FF7303EA02231943018370470A460021F7
:101D6000818B4FF6F77319401143818370470A4600
:101D70000021818B4FF2FF7319404FF6FF7303EA86
:101D800002231943818370470A460021018B4FF6D5
:101D9000FB7319401143018370470A460021018BF0
:101DA0004FF6FF3319404FF6FF7303EA022319433E
:101DB000018370470A460021818B4FF6FB7319405F
:101DC0001143818370470A460021818B4FF6FF3310
:101DD00019404FF6FF7303EA0223194381837047CA
:101DE0000A460021018B4FF67F731940114301838E
:101DF00070470A460021018BC1F30E014FF6FF73B5
:101E000003EA02231943018370470A460021818BAC
:101E10004FF67F7319401143818370470A460021B2
:101E2000818BC1F30E014FF6FF7303EA02231943BE
:101E3000818370470A460021018C4FF6FD731940DB
:101E40001143018470470A460021018C4FF6F77355
:101E500019401143018470470A460021018C4FF656
:101E6000DF7319404FF6FF7303EA0213194301842D
:101E700070470A460021018C4FF67F7319404FF6D8
:101E8000FF7303EA02131943018470470A460021D5
:101E9000018C4FF6FF5319404FF6FF7303EA0223FC
:101EA0001943018470470A460021018C4FF2FF73E9
:101EB00019404FF6FF7303EA022319430184704768
:101EC0000A460021018C4DF6FF7319404FF6FF734F
:101ED00003EA023319430184704730B5002301241B
:101EE0008C40A3B2048C9C430484048C02FA01F558
:101EF000ADB22C43048430BD30B5002304248C40A3
:101F0000A3B2048C9C430484048C02FA01F5ADB2A4
:101F10002C43048430BD70B50346002000241846CD
:101F2000183001258D40ACB21D8CA5431D8409B12C
:101F3000082909D100EB6100056825F070050560EE
:101F40000568154305600EE00D1FC5F34E052844D6
:101F5000056825F4E045056005684FF6FF7606EA5A
:101F600002263543056070BD21B1028842F00202AD
:101F7000028004E002884FF6FD731A400280704729
:101F800021B1028842F00402028004E002884FF688
:101F9000FB731A400280704721B1828842F08002B0
:101FA000828004E082884FF67F731A4082807047F7
:101FB00002884FF6F7731A40028002880A430280B3
:101FC000704782884FF68F731A40828082880A4356
:101FD0008280704702894FF6F8731A4002810289A5
:101FE0000A430281704702894FF67F731A400281CB
:101FF00002890A4302817047818470478185704756
:10200000818670470187704781877047A0F840102C
:10201000704702884FF6FF431A40028002880A4345
:10202000028070470146888E70470146088F7047CE
:102030000146888F70470146B1F84000704701465D
:10204000888C70470146088D704702460020138A2D
:102050000B400BB1012000E000207047CA43028210
:10206000704730B50246002000230024158A05EA97
:102070000103958905EA010413B10CB1012000E0C8
:10208000002030BDCA4302827047000010B50446EC
:10209000FB48844209D101218803FFF79FF8002102
:1020A0004FF48040FFF79AF832E0F648844209D1B5
:1020B00001214804FFF79FF800214FF40030FFF79B
:1020C0009AF825E0F048844209D101218804FFF7FD
:1020D00092F800214FF48020FFF78DF818E0EB48CC
:1020E000844209D10121C804FFF785F800214FF48B
:1020F0000020FFF780F80BE0E548844208D1012179
:102100000805FFF778F800214FF48010FFF773F807
:1021100010BD2DE9F04786B005460E460024A246C4
:1021200000BFA1460027B08900B100BF2F462C8A0E
:102130004CF6FF700440F08804432C82AC894EF6C4
:10214000F3100440B088318908437189084304437F
:10215000AC81AC8A4FF6FF400440B0890443AC82A6
:1021600001A8FEF7B4FFC648874202D1DDF810A0EF
:1021700001E0DDF80CA0A88900F4004040B10AEBB2
:10218000CA0000EB0A1031684900B0FBF1F807E023
:102190000AEBCA0000EB0A1031688900B0FBF1F8C5
:1021A0006420B8FBF0F004012009642101FB1089D0
:1021B000A88900F4004040B1322000EBC900B0FB18
:1021C000F1F000F00700044308E0322000EB0910B2
:1021D0006421B0FBF1F000F00F0004432C8106B045
:1021E000BDE8F0874FF41651016000218180C18065
:1021F00001810C21418100218181704710B5024687
:102200000020108A4FF2FF0318400B884C882343AC
:102210008C882343CC8823431843108210BD0021AF
:10222000018041808180C180704721B1828942F460
:102230000052828104E082894DF6FF731A40828148
:102240007047F0B50346002400260025002040F624
:102250006A17B94200D100BF1846C1F3421401F019
:102260001F06012707FA06F5012C01D10C3004E006
:10227000022C01D1103000E014301AB107682F434E
:10228000076002E00768AF430760F0BD1AB1838AB8
:102290000B43838202E0838A8B4383827047028AE6
:1022A0004FF6F0731A400282028A0A430282704794
:1022B00082894FF2FF731A40828182890A438281A8
:1022C000704721B1828942F00202828104E0828952
:1022D0004FF6FD731A4082817047028A4FF6DF7312
:1022E0001A400282028A0A430282704721B1028A9E
:1022F00042F48042028204E0028A4BF6FF731A40E5
:1023000002827047C1F308028280704701468888C4
:10231000C0F308007047818941F001018181704755
:10232000028BD2B20283028B42EA012202837047FF
:10233000028B02F47F420283028B0A4302837047BE
:1023400021B1828A42F02002828204E0828A4FF622
:10235000DF731A408282704721B1828A42F01002F4
:10236000828204E0828A4FF6EF731A4082827047BD
:1023700021B1828A42F00802828204E0828A4FF60A
:10238000F7731A408282704721B1828942F4004279
:10239000828103E08289C2F30E028281704721B1FB
:1023A000828A42F40062828204E0828A4FF2FF73E2
:1023B0001A4082827047828A4FF6FB731A408282EB
:1023C000828A0A438282704721B1828A42F00202E5
:1023D000828204E0828A4FF6FD731A40828270473F
:1023E00002460020B1F5007F00D100BF13880B40EA
:1023F0000BB1012000E00020704701F40072B2F53B
:10240000007F00D100BFCA430280704770B502460A
:10241000002400230025002040F66A16B14200D1B6
:1024200000BFC1F3421501F01F03012606FA03F3B2
:10243000012D02D19689334006E0022D02D1168A81
:10244000334001E0968A33400C12012606FA04F468
:102450001688344013B10CB1012000E0002070BD9B
:1024600010B50022002340F66A14A14200D100BF3B
:102470000A1201249440A3B2DC43048010BD000082
:10248000003801400044004000480040004C00403B
:102490000050004010B56FF00400FEF722F92E48FE
:1024A00000682E49B0FBF1F02D490870084600780D
:1024B00000EB4001C1EBC0104FF6FF7101EAC00014
:1024C0002849088010BD0146254A12784A434FF03A
:1024D000E0235A6100229A611A46126942F0010211
:1024E0001A6100BF4FF0E022106900F001021AB13A
:1024F00000F48032002AF5D04FF0E022126922F079
:1025000001024FF0E0231A6100229A6170470146F0
:10251000144A12884A434FF0E0235A6100229A611C
:102520001A46126942F001021A6100BF4FF0E02220
:10253000106900F001021AB100F48032002AF5D0CF
:102540004FF0E022126922F001024FF0E0231A61FD
:1025500000229A61704700001400002000127A00E7
:102560003C0000203E000020014600BF704700BF35
:10257000494A128802F04002002AF9D0C2B2464B02
:102580001B1D1A80704710B586B00446012144F225
:102590000400FEF709FE4FF40070ADF814000320AC
:1025A0008DF8160018208DF8170005A93B48FEF796
:1025B0003FFB4FF48060ADF8140004208DF8170045
:1025C00005A93648FEF734FB25208DF800000320CE
:1025D0008DF801008DF8020001208DF80300684697
:1025E000FEF735F801940020ADF80800ADF80A00B8
:1025F000ADF80C00ADF810000C20ADF80E0001A9EC
:102600002548FFF786FD012240F225512248FFF7B9
:1026100018FE01212048FFF708FE06B010BD10B5D6
:1026200040F225511C48FFF7F1FE10B31A48FFF79E
:102630006DFEC4B21A48008800F40040C8B91848BA
:10264000008800F4804060B10A2C03D000201449B7
:10265000088020E01248008840F4004010490880BB
:1026600019E00D2C06D10E48008840F480400C493A
:10267000088010E00A480088C0F30D0009490C5496
:1026800007480088401C0649088008460088C7287B
:1026900001DD0020088010BD003801400008014025
:1026A00044000020D402002000B587B001214FF47F
:1026B0000170FEF779FD4FF40040FEF7D9FC0220CF
:1026C000ADF8040000208DF8070001A92E48FEF7A0
:1026D000AFFA2E48FEF724F8002002908DF80C0087
:1026E0008DF80D004FF4602004900020059001202B
:1026F0008DF8180002A92548FEF739F80121234872
:10270000FEF761F82148FEF780F800BF1F48FEF78A
:1027100081F80028FAD11D48FEF786F800BF1B4853
:10272000FEF787F80028FAD107B000BD10B50446BF
:102730000323012221461548FEF7B1F80121134871
:10274000FEF781F800BF02211048FEF7EDF90028DE
:10275000F9D00E48FEF70AF910BD2DE9F041074601
:102760000C460025002608E03846FFF7DFFF054449
:102770000520FFF7CCFE701CC6B2A642F4DBB5FB09
:10278000F4F080B2BDE8F08100080140002401406F
:102790007FB505460C4601210420FEF712FDADF879
:1027A0000850ADF804400020ADF80A00ADF806006E
:1027B00001A97F48FEF730FE012211467C48FFF751
:1027C000A2F91E208DF8000002208DF801000320E0
:1027D0008DF8020001208DF803006846FDF737FFF1
:1027E00001217348FFF774F97FBD2DE9F04F93B0D5
:1027F00001216F48FFF735FC00287DD06D48008827
:10280000012805D100224FF4FA61052001F050FDA6
:1028100000F0D6FC824603F0FBFE8046664A674B1A
:1028200003F0E6FB0646664A664B03F007FE0446E5
:1028300003F002F96449086000F08EFD00F0C0FC6E
:10284000824603F0E5FE80465B4A5C4B03F0D0FB1A
:1028500006465B4A5B4B03F0F1FD044603F0ECF8DF
:10286000594908600846006803F0D2FE8246574A7C
:10287000574B03F0BDFB06460022564B03F0CAF946
:10288000044603F063F8CDE900015348006803F003
:10289000BFFE8046DDE9002303F0AAFBCDE9040179
:1028A0004E48006803F0B4FECDE90201DDE90423DF
:1028B00003F0C4FDCDE908014348006803F0A8FE19
:1028C0000646424A424B03F093FB04460022414B2A
:1028D00003F0A0F9804602F00FFBCDE902013E486B
:1028E000006803F095FECDE90001DDE9022303F065
:1028F0007FFB82468B4600E056E03748006803F0D5
:1029000087FE52465B46CDE9040103F097FDCDE911
:102910000601DDE9082303F07DF9CDE90A0102F0A3
:102920001BF900222B4BCDE90C0103F061FB274A78
:10293000274BCDE90E0103F06DF9CDE9100103F04D
:102940007BF827490860274801681F48006804F0A1
:102950003FF9254908601C4800682249086023485F
:10296000B0F90000072807DA1F480168204800680E
:1029700003F07AFE1E4908601C480088401C00B223
:102980001A4908800846B0F900000F2808DB00202B
:10299000088017480068174908600020144908603B
:1029A00001210348FFF76EFB13B0BDE8F08F000074
:1029B00000080040640000209E7AA4C16D6DB53F00
:1029C000713D0AD7A380674000000020F1D4C853AE
:1029D000FB21094000806640480000204C00002098
:1029E0005000002060000020680000206E000020E1
:1029F000700000207400002070B504460E4626B119
:102A00000221FE48FEF7C1F903E00221FB48FEF770
:102A1000BEF91021FA48FEF7BAF9002517E0202187
:102A2000F748FEF7B4F904F0800020B10121F44822
:102A3000FEF7ABF903E00121F148FEF7A8F92021E8
:102A4000EF48FEF7A2F96006040E681CC5B2082D17
:102A5000E5DB1021EA48FEF798F90221E748FEF786
:102A600094F970BD70B504460E4626B10221E348C4
:102A7000FEF78BF903E00221E048FEF788F9102108
:102A8000DF48FEF784F9002517E02021DC48FEF737
:102A90007EF904F0800020B10121D948FEF777F9D2
:102AA00003E00121D648FEF770F92021D448FEF753
:102AB0006CF96006040E681CC5B2082DE5DB102118
:102AC000CF48FEF762F90221CC48FEF75EF970BDEF
:102AD00070B504460D4605F1B001C8B20021FFF7FC
:102AE0008BFF102141EA14100021FFF785FF04F04D
:102AF0000F0141F001000021FFF77EFF70BD10B50E
:102B000000218D20FFF778FF00211420FFF774FFCC
:102B10000021AF20FFF770FF10BD10B500218D2000
:102B2000FFF76AFF00211020FFF766FF0021AE20AB
:102B3000FFF762FF10BD70B5002419E004F1B00189
:102B4000C8B20021FFF758FF00210846FFF754FFE5
:102B500000211020FFF750FF002505E00121002093
:102B6000FFF74AFF681CC5B2802DF7DB601CC4B2BA
:102B7000082CE3DB70BD2DE9F04106460C461746F4
:102B80004FF000080025A7F1200000F0FF087F2E7D
:102B900002DD0026A01CC4B2601CC1B23046FFF7A3
:102BA00097FF00250AE008EB4801964A02EB410135
:102BB000485D0121FFF720FF681CC5B2062DF2DB3E
:102BC000BDE8F0812DE9F04106460C4617464FF06E
:102BD00000080025A7F1200000F0FF087F2E02DD8D
:102BE0000026A01CC4B2601CC1B23046FFF770FFC3
:102BF00000250AE008EB4801824A02EB4101485DEA
:102C00000121FFF72FFF681CC5B2062DF2DBBDE8DE
:102C1000F08110B50246012000E050430B00A1F105
:102C20000104E1B2F9D110BD2DE9FF5F07469146DD
:102C30001D460E9E4FF0000A002433E0281B401E64
:102C4000C1B20A20FFF7E5FFB9FBF0F00A21B0FBA3
:102C5000F1F201FB1208BAF1000F13D1681EA04275
:102C600010DDB8F1000F0BD1B34606EBDB71491054
:102C700001FB0471C8B220220199FFF77CFF0FE02D
:102C80004FF0010AB34606EBDB71491001FB0471FA
:102C9000C8B208F13001CAB20199FFF76CFF00BF5A
:102CA000601CC4B2AC42C9DBBDE8FF9F2DE9F04116
:102CB00004460F46154600260EE0AA5D394620461A
:102CC000FFF759FF04F10800C4B2782C02DD00249C
:102CD000B81CC7B2701CC6B2A85D0028EDD1BDE813
:102CE000F0812DE9F041064606244749304603F0BD
:102CF00067FE074603F0E8FD054600BF0AE00A202C
:102D000095FBF0F100FB115000B105E00A2095FBA6
:102D1000F0F5641E002CF2DC00BF2046BDE8F08117
:102D200070B506460024304603F0CEFD054600BFD0
:102D3000641C0A2095FBF0F5002DF9DC204670BDDF
:102D40002DE9F74F8CB08346904630A207CA08ABF6
:102D500007C30020059006900790002400260490E9
:102D600081460027824600BF03E0202005A90855C0
:102D7000641C0A2CF9DB4046FFF7D2FF07464046A9
:102D8000FFF7AFFF824607EB0A09504603F0C9F888
:102D900002460B46CDE9000100201F4902F0FAF877
:102DA000CDE9020102F048FE04904046049903F088
:102DB00007FE039003F088FD054600243CE0A9F1DE
:102DC0000101081B03F0ADF802460B46CDE90001F6
:102DD0000020114902F0DEF8CDE9020103F072F89B
:102DE0000646BC4202D12E2005A90855BC4218DB7C
:102DF00095FBF6F008A9095C05AA0FE0000C01405C
:102E000000080140AA6D00080024744930313233B3
:102E1000343536373839000000002440601C115426
:102E200005E095FBF6F008A9085C05A9085595FB97
:102E3000F6F000FB1655641C4C45C0DB05AA58464D
:102E40000D99FFF733FF0FB0BDE8F08F2DE9FF5F5D
:102E5000074691461D460E9E4FF0000A002433E0BF
:102E6000281B401EC1B20A20FFF7D3FEB9FBF0F0C9
:102E70000A21B0FBF1F201FB1208BAF1000F13D1E5
:102E8000681EA04210DDB8F1000F0BD1B34606EB6F
:102E9000DB71491001FB0471C8B220220199FFF7D0
:102EA00091FE0FE04FF0010AB34606EBDB714910CB
:102EB00001FB0471C8B208F13001CAB20199FFF7F1
:102EC00081FE00BF601CC4B2AC42C9DBBDE8FF9FFD
:102ED0002DE9F04104460F46154600260EE0AA5D96
:102EE00039462046FFF76EFE04F10800C4B2782C84
:102EF00002DD0024B81CC7B2701CC6B2A85D002851
:102F0000EDD1BDE8F0812DE9F04180460E46154631
:102F1000002731464046FFF7DBFD00240AE0A54AC2
:102F200002EB8511085D0121FFF766FD781CC7B231
:102F3000601CC4B2102CF2DB701CC1B24046FFF71B
:102F4000C7FD00240CE06900491C9A4A02EB4111BC
:102F5000085D0121FFF750FD781CC7B2601CC4B2A8
:102F6000102CF0DBBDE8F0812DE9F04180460E46E3
:102F70001546002731464046FFF7AAFD00240AE027
:102F80008C4A02EB8511085D0121FFF76BFD781C6F
:102F9000C7B2601CC4B2102CF2DB701CC1B2404638
:102FA000FFF796FD00240CE06900491C814A02EB02
:102FB0004111085D0121FFF755FD781CC7B2601C67
:102FC000C4B2102CF0DBBDE8F0812DE9F05F0646BD
:102FD0000F4690461C46DDF828A04FF0000BE11785
:102FE00004EB5171C910A4EBC10131B92046E117BE
:102FF00004EB5171C1F3C70506E02046E11704EB6D
:103000005171C910491CCDB23D4615E029463046E4
:10301000FFF75EFDB1460BE059460BF1010B1AF8C4
:1030200001000121FFF7E8FC09F1010000F0FF09B0
:10303000C145F1DB681CC5B2A542E7DBBDE8F09FE6
:1030400008B501210420FEF7AFF83120ADF80000EB
:1030500010208DF8030003208DF8020069465648C1
:10306000FDF7E6FD31215448FDF78FFE01210820D0
:10307000FEF79AF840F20310ADF8000010208DF82A
:10308000030003208DF8020069464C48FDF7D0FD8F
:1030900040F203114948FDF778FE01214748FDF74A
:1030A00074FE6420FFF733FA01214448FDF76FFEF8
:1030B000C820FFF72CFA01214048FDF766FE0021E9
:1030C000AE20FFF799FC00210846FFF795FC002190
:1030D0001020FFF791FC00214020FFF78DFC00211C
:1030E0008120FFF789FC0021CF20FFF785FC00211C
:1030F000A120FFF781FC0021C820FFF77DFC002103
:10310000A620FFF779FC0021A820FFF775FC00211D
:103110003F20FFF771FC0021D320FFF76DFC002159
:103120000846FFF769FC0021D520FFF765FC002168
:103130008020FFF761FC0021D920FFF75DFC002112
:10314000F120FFF759FC0021DA20FFF755FC0021A0
:103150001220FFF751FC0021DB20FFF74DFC00217E
:103160004020FFF749FC00212020FFF745FC00210B
:103170000220FFF741FC00218D20FFF73DFC0021DC
:103180001420FFF739FC0021A420FFF735FC0021B3
:10319000A620FFF731FC0021AF20FFF72DFC002116
:1031A000AF20FFF729FCFFF7C6FC00210846FFF718
:1031B0008FFC08BD7800002000080140000C014091
:1031C0002DE9F0410024002500260027012408E015
:1031D0002B4850F82410601E294A42F82010601C29
:1031E00004B20A2CF4DB0120FFF7A0FA804603F0BA
:1031F0009FFB23494862002407E0214850F824003F
:10320000204941F82400601C04B20A2CF5DB00259B
:103210001FE0002417E01B4B621C53F822101A46D3
:1032200052F8240003F098FC0BD2164850F82460A2
:103230000146601C51F8200041F82400601C41F850
:103240002060601C04B2C5F10900A042E3DC681CE8
:1032500005B2092DDDDB012408E00A4850F82410EE
:10326000384603F001FA0746601C04B2092CF4DB6F
:103270004FF08241384603F065FABDE8F081000066
:103280009C030020C403002010B5044600BF402169
:103290003048FFF7A5F80028F9D021462D48FFF760
:1032A00031F810BDF0B589B006460F4615461C2D05
:1032B00001DD09B0F0BD002101AAE81C11548820ED
:1032C0008DF804008DF805608DF80650002405E0A7
:1032D000395DE01C01AA1154601CC4B2AC42F7DB9A
:1032E00000240AE001A9E81C085C095D0844C1B299
:1032F00001AAE81C1154601CC4B2E81C8442F1DB32
:10330000002405E001A9085DFFF7BEFF601CC4B200
:10331000281D8442F6DB00BFCBE77CB506460C4691
:103320001546300A8DF80000F0B28DF80100200A31
:103330008DF80200E0B28DF80300280A8DF8040031
:10334000E8B28DF8050006226946A120FFF7AAFF22
:103350007CBD0000003801402DE9FF5F442000F0F3
:1033600051FD0546432000F04DFD05EB00242046AD
:1033700003F0C6FAFE490860462000F043FD05460A
:10338000452000F03FFD05EB0024204603F0B8FA8D
:10339000F8490860482000F035FD0546472000F058
:1033A00031FD05EB0024204603F0AAFAF24908603B
:1033B0003C2000F027FD05463B2000F023FD05EBF7
:1033C0000024204603F09CFAEC4908603E2000F0FF
:1033D00019FD05463D2000F015FD05EB00242046B3
:1033E00003F08EFAE6490860402000F00BFD054628
:1033F0003F2000F007FD05EB0024204603F080FA93
:10340000E04908604FF08E41D948006803F0A4FB02
:1034100007D24FF08F41D648006803F0D9FBD4495A
:1034200008604FF08E41D348006803F095FB07D247
:103430004FF08F41CF48006803F0CAFBCD490860C8
:103440004FF08E41CC48006803F086FB07D24FF066
:103450008F41C948006803F0BBFBC74908604FF0C3
:103460008E41C648006803F077FB07D24FF08F41CA
:10347000C248006803F0ACFBC04908604FF08E41C1
:10348000BF48006803F068FB07D24FF08F41BC488B
:10349000006803F09DFBBA4908604FF08E41B948BF
:1034A000006803F059FB07D24FF08F41B548006820
:1034B00003F08EFBB3490860B348B0F900000A2856
:1034C00011DAAE48006803F0A3F8B04AAE4BB3F986
:1034D000003002EBC30203C2AB480088401C00B2BC
:1034E000A9490880D8E00120A949088016E0A7482A
:1034F000A749B1F9001000EBC100D0E90010A44ABF
:10350000B2F90020521EA14B03EBC202C2E9001027
:103510009F480088401C00B29D4908809C48B0F933
:1035200000000A28E3DB9548006803F071F8974A29
:10353000C2E9120100209649088015E09348944999
:10354000B1F9001000EBC100D0E90010914A904B96
:10355000B3F9003002EBC302C2E900108C480088C6
:10356000401C00B28A4908808948B0F900000A2846
:10357000E4DB00208649088057E000208649088067
:1035800043E084498448B0F90000401C01EBC000CE
:10359000D0E9004308468049B1F9001000EBC100B2
:1035A0002246D0E90061304602F020FE27D2794859
:1035B0007949B1F9001000EBC100D0E900211046B3
:1035C00002F03AFA7549086072497348B0F9000090
:1035D000401C01EBC00103C96E4A6F4BB3F90030C8
:1035E00002EBC30203C26D48006803F011F8694B97
:1035F000694AB2F90020521C03EBC20203C26648BA
:103600000088401C00B2644908806148B0F900009D
:10361000C0F109006049B1F900108842B1DC5C4892
:103620000088401C00B25A4908805948B0F900008F
:103630000928A2DB0120564908801DE0584800688F
:1036400002F0E6FF8046894652485149B1F9001020
:1036500000EBC100D0E9006332464046494602F023
:103660001DFA044602F0E8F94D4908604848008810
:10367000401C00B2464908804548B0F900000928BE
:10368000DCDB4FF082414648006803F05BF84549B7
:1036900008600020424908603A48006802F0B8FF1C
:1036A00006460F463648006802F0B2FF32463B46F7
:1036B000CDE9000101F060FB044600223A4B02F024
:1036C00097FC3A4A3A4BCDE9020102F0A3FA804650
:1036D00002F0B2F983462648006802F099FF0646D8
:1036E0004FF06632334B02F095FA044602F0A4F92B
:1036F0001F49086030480068304908602148006868
:1037000002F086FFCDE900011C48006802F080FF4E
:103710008046DDE9002301F02FFB06460022224B04
:1037200002F066FC0446214A214B02F073FACDE90F
:10373000020102F081F982460E48006802F068FF3B
:1037400006464FF066321B4B02F064FA044602F064
:1037500073F9084908600846006819490860054877
:10376000006880F000442146504600F035F829E01A
:103770004C0200205002002054020020440200208D
:10378000400200204802002058020020F0030020E0
:103790005A020020400400205C0200206402002045
:1037A000600200206802002000806640F1D4C85307
:1037B000FB2109406666304070020020380200207C
:1037C0000C0000200248006802490860BDE8FF9F25
:1037D000700200203C0200202DE9F04105460C4615
:1037E000AA480168204603F0F3F90746A848016893
:1037F000384603F0E5F80646A6480168304602F070
:1038000033FFA4490860A4484168A448006803F055
:10381000DFF90646A0488168304603F0D9F9A0498F
:1038200008609D48C06880F0004048609A48C068C1
:1038300080F0004088609B480068C8600868944930
:10384000096803F0BDF8064693480168304602F067
:103850000BFF91490860924948688D49096803F057
:10386000AFF806468C484168304602F0FDFE8A49B2
:1038700048608B4988688649096803F0A1F80646C4
:1038800085488168304602F0EFFE834988608449AC
:10389000C8687F49096803F093F806467E48C16806
:1038A000304602F0E1FE7C49C8607A48016828464B
:1038B00003F08EF97C4908607C48007803F038F802
:1038C000064675480168304603F07AF87849086082
:1038D0007648007803F02CF806466F488168304639
:1038E00003F06EF8734908607048007803F020F820
:1038F00007466F480168384603F062F806466E488E
:103900000168304602F0B0FE6C4908600846016864
:103910006748006802F016FF694908606748016857
:103920006448006802F00EFF66490860604800685D
:10393000654908605D48007802F0FAFF064656487F
:103940004168304603F03CF8604908605E48016811
:103950005B48006803F034F806464F48016830467B
:1039600003F02BF94C490860584801685448006836
:1039700003F026F8064648484168304603F01DF932
:1039800045494860504801684E48006803F018F8FF
:10399000064641488168304603F00FF93E49886089
:1039A0004A4801684748006803F00AF806463A4862
:1039B000C168304603F001F93749C8603A480168E8
:1039C0003F48006802F0FCFF064632480168304676
:1039D00002F04AFE2F490860334801683948006800
:1039E00002F0EEFF064629480168304602F03CFE30
:1039F0002649086008460168204603F0E9F8344982
:103A00000860BDE8F0812DE9F04F8BB083468A460F
:103A1000504602F0FDFD80462E4A2F4B02F0E8FA98
:103A2000CDE902011B48006802F0F2FDCDE900017A
:103A3000DDE9022302F032F804460D46274801680A
:103A40004FF07E5003F0C4F8804602F0E1FD0646D8
:103A500022462B4602F0CCFACDE906011F48016848
:103A6000584602F0ADFF044602F0D2FDCDE9040154
:103A7000DDE9062302F012F8CDE9080101F0DCFFD0
:103A8000044908600BB0BDE8F08F00008C020020F4
:103A90008402002070020020B00200207802002082
:103AA000900400207C020020900200208802002068
:103AB0009402002098020020800200209C02002036
:103AC000A0020020A4020020A8020020AC020020D6
:103AD000740200207B14AE47E17A743F6C02002030
:103AE00010B50220FEF7EFFC10BD08B5012108203B
:103AF000FDF75AFB4FF44060ADF8000010208DF840
:103B0000030003208DF8020069468D48FDF790F808
:103B10004FF440618A48FDF738F908BD10B5884870
:103B2000001D006820F470408549091D08600846A2
:103B3000006840F4405008600120824908608249D2
:103B4000C1F8A801FFF7CCFF00207E490860FFF70D
:103B5000C7FF00207C49C1F8A80110BD10B5784806
:103B6000001D006820F470407549091D0860084672
:103B7000006840F44050086000207249091F086046
:103B80007149C1F8AC01FFF7ABFF01206D49091F76
:103B900008606D49C1F8AC01FFF7A2FF10BD10B578
:103BA00000246748001D006820F470406449091D26
:103BB00008600846006840F4004008600120614940
:103BC0000860FFF78DFF01205F49C1F8A801FFF7EA
:103BD00087FF07E0601CC4B2FA2C03DDFFF7BEFFCD
:103BE000012010BD5748803800680028F2D155499F
:103BF000091F086000BFF4E710B500205149091FF4
:103C000008604F48001D006820F470404C49091DB1
:103C100008600846006840F44050086000204A49A7
:103C2000C1F8AC01FFF75CFF01204649091F08609D
:103C3000FFF756FF00204449C1F8A80110BD10B598
:103C400000204049091F08603D48001D006820F41D
:103C500070403B49091D08600846006840F4405028
:103C6000086001203849C1F8AC01FFF739FF012095
:103C70003449091F0860FFF733FF00203249C1F8BB
:103C8000A80110BD70B504462D48001D006820F441
:103C900070402B49091D08600846006840F44050F8
:103CA000086000202749091F0860002512E0E0098C
:103CB000244908606006040E01202349C1F8A801C8
:103CC000FFF70EFF00201F49091F0860FFF708FFDC
:103CD000681CC5B2082DEADB70BD70B5054600242E
:103CE0001748001D006820F470401549091D086040
:103CF0000846006840F400400860002615E00020F7
:103D00001049091F0860FFF7EBFE01200E49C1F8BA
:103D1000A8016006040E0B488038006808B1601CDA
:103D2000C4B2FFF7DDFE701CC6B2082EE7DB15B982
:103D3000FFF785FF01E0FFF75FFF204670BD000041
:103D4000000C0140AC8121420080214270B5054643
:103D50000C46FFF7E3FED020FFF794FFFFF71FFFAD
:103D600018B1FFF7FBFE012070BD2846FFF78AFF60
:103D7000FFF715FF2046FFF785FFFFF710FF18B18B
:103D8000FFF7ECFE0120EFE7FFF7E8FE0020EBE78E
:103D900070B504460025BC2C01DB012510E0622C27
:103DA00001DB02250CE02A2C01DB032508E0142CA2
:103DB00001DB042504E00A2C01DB052500E00625D3
:103DC00029461A20FFF7C2FF70BD70B50446B4F54E
:103DD0007A7F01DD4FF47A74042C00DA04244FF466
:103DE0007A7090FBF4F0401EC5B229461920FFF707
:103DF000ADFF0546264604EBD671C1F34F00FFF731
:103E0000C7FF70BD70B50446FFF788FED020FFF7EE
:103E100039FFFFF7C4FE2046FFF734FFFFF7BFFE70
:103E2000FFF77CFED120FFF72DFFFFF7B8FE002043
:103E3000FFF753FF0546FFF791FE284670BD10B50A
:103E40000446E006010E1C20FFF780FF10BD10B5F0
:103E50000446E006010E1B20FFF778FF10BD10B5E9
:103E6000FFF743FE80216B20FFF770FF6420FEF711
:103E70004EFB00216B20FFF769FF0320FFF7E7FFF0
:103E80000020FFF7DCFF3220FFF79FFF00213820E2
:103E9000FFF75CFF00216A20FFF758FF0021232075
:103EA000FFF754FF80213720FFF750FF7520FFF701
:103EB000A9FF0446682C0BD101216B20FFF746FFB8
:103EC00000216C20FFF742FF3220FFF77EFF01E068
:103ED000012010BD0020FCE72DE9F04106460F4609
:103EE00014461D46FFF71AFE002141EA4601C8B2FA
:103EF000FFF7C8FEFFF753FE20B1FFF72FFE0120AA
:103F0000BDE8F0813846FFF7BDFEFFF748FEFFF73A
:103F100005FE012101EB4601C8B2FFF7B3FEFFF732
:103F20003EFE0DE0012C04D10020FFF7D6FE2870E4
:103F300003E00120FFF7D1FE2870601EC4B26D1CA3
:103F4000002CEFD1FFF70AFE0020D9E72DE9F84F4A
:103F50006B46022241216820FFF7BEFF9DF8010059
:103F60009DF8001040EA01200FFA80FA504601F057
:103F7000D8FF804600224B4B01F04CFE06464A4AD1
:103F80004A4B01F08BFD044601F056FD834648493B
:103F9000584602F015FD044602F096FC00B2BDE85A
:103FA000F88F2DE9FC4104460D4616466B46062265
:103FB00043216820FFF790FF0746BFB99DF8010035
:103FC0009DF8001040EA012000B220809DF8030017
:103FD0009DF8021040EA012000B228809DF80500FB
:103FE0009DF8041040EA012000B230803846BDE858
:103FF000FC812DE9FC4104460D4616466B4606221F
:104000003B216820FFF768FF0746BFB99DF8010014
:104010009DF8001040EA012000B220809DF80300C6
:104020009DF8021040EA012000B228809DF80500AA
:104030009DF8041040EA012000B230803846BDE807
:10404000FC812DE9F04105460E4617469846FFF7DC
:1040500065FD002141EA4501C8B2FFF713FEFFF7F5
:104060009EFD20B1FFF77AFD0120BDE8F0813046CA
:10407000FFF708FEFFF793FD00240CE018F804009A
:10408000FFF700FEFFF78BFD18B1FFF767FD01207A
:10409000EBE7601CC4B2BC42F0DBFFF75FFD002021
:1040A000E3E7000000407540A4703D0AD74342405A
:1040B0000000C84208B501210420FDF775F805206D
:1040C000ADF8000010208DF8030003208DF80200E9
:1040D0006946D048FCF7ACFD0121CE48FCF755FEFF
:1040E0000421CC48FCF753FE08BD30B589B0044626
:1040F0000D460121C802FDF757F801210420FDF704
:1041000053F84FF48070ADF8200018208DF823008C
:1041100003208DF8220008A9BE48FCF789FD05A8F8
:10412000FDF7A6FCADF81840ADF814500020ADF82E
:104130001A00ADF8160005A9B748FDF76DF9012181
:10414000B548FDF79FFF0121B348FDF719FF08218E
:10415000B148FDF72DFF7020ADF804000120ADF847
:1041600006000020ADF808006010ADF80A0000203D
:10417000ADF80C0001A9A848FDF78BF90821A64865
:10418000FDF7D6FD0121A448FDF7A2FD012211464D
:10419000A148FDF7B8FC19208DF8000001208DF82A
:1041A00001008DF802008DF803006846FCF74FFA15
:1041B00001219948FDF766FF01219748FDF788FC2A
:1041C00009B030BD10B501219348FDF74AFF002822
:1041D00055D001219048FDF755FF90480078002800
:1041E00041D18F48006848B1FF208B4930310880A9
:1041F0008B480068401E8A49086010E089480078B2
:1042000060B188480078401E834930310880002022
:104210008449087001208149087000E024E00121F0
:104220007D48FDF779FC01217B48FDF75DFC01210C
:104230007948FDF74DFC7C480078012809D1764883
:1042400030300088401C7949096808447749086083
:1042500015E0714830300088401C74490968081A1C
:10426000724908600BE000BF01206C490870002112
:104270006948FDF739FC00216748FDF729FC10BDAE
:1042800070B504466A48B0FBF4F0401E85B229467A
:104290006148FDF7B3FE69105F48FDF7B1FE0021EC
:1042A0005D48FDF7A9FE01215B48FDF711FC70BDDB
:1042B00070B504460D461646002C00DC70BD56480D
:1042C000008800F0010000B1F8E7142D02D359482E
:1042D000854200D9F2E754480670007856490860D4
:1042E00051480078012805D15048006820445349BE
:1042F000086007E04C48007820B94C480068001B73
:104300004E4908602046E11704EB11610912444A46
:104310001160E11704EB11610912A4EB0121414A7C
:10432000117000203D4908702846FFF7A9FF00BF23
:10433000C4E72DE9F04780460C463748008800F076
:10434000010008B1BDE8F087142C02D3394884423B
:1043500000D9F7E73948C0F8008000683349096898
:10436000884255D03548006830490968884203DDE5
:1043700001202D49087002E000202B4908702A48CE
:1043800000782D4908602D4A1268284B1B68D11A05
:10439000002901DB0A4600E04A421046D21700EB32
:1043A000126212121E4B1A60244A12681F4B1B68BD
:1043B000D11A002901DB0A4600E04A421046D21712
:1043C00000EB12621212A0EB0222164B1A700020B0
:1043D000124908701948006814490968A0EB0109DE
:1043E000B9F1000F01DB484601E0C9F10000C11737
:1043F00000EB11610912A0EB012001F092FD0646CD
:104400000F4A104B01F0F2FE02D22046FFF738FFB0
:1044100000BF97E700080140002C0140C1020020C6
:10442000C4020020C0020020D0020020CC020020E4
:1044300040420F00A086010080012142C8020020F6
:10444000FCA9F1D24D62503F7047704770477047EA
:10445000704710B500F008F8006810BD10B50446AC
:1044600000F002F8046010BD00487047A00400206E
:1044700000487047A00400207546FFF7F9FFAE46DC
:1044800005006946534620F00700854618B020B560
:10449000FCF7C6F8BDE820404FF000064FF00007DB
:1044A0004FF000084FF0000B21F00701AC46ACE8DC
:1044B000C009ACE8C009ACE8C009ACE8C0098D4649
:1044C00070470446AFF300802046FBF776FE4900B4
:1044D00050EAC12018BF04204A0D18BF40F0010067
:1044E00040F2FF72B2EB515F08BF40F002000128BA
:1044F00008BF0520704700002DE9F74F144694B01F
:104500000021C4E902111599079121F00045C9491C
:104510008D4206DC1599C4E9000117B00020BDE802
:10452000F08FC549DFF814A3A9423CDD0799C44EBA
:104530000029C44FC44A1599534619DD01F07EFF86
:10454000554506D0C14AC24B01F078FFC4E90001CD
:104550000AE04FF0D352BE4B01F070FF32463B46AB
:1045600001F06CFFC4E9000117B00120BDE8F08F35
:1045700001F094FA554506D0B44AB54B01F08EFAD5
:10458000C4E900010AE04FF0D352B14B01F086FAC2
:1045900032463B4601F082FAC4E9000117B04FF001
:1045A000FF30BDE8F08FAB49A942159978DB21F0C7
:1045B000004183468846A84AA84B01F019FD002215
:1045C000A74B01F06BFA01F07DFC099001F0A9FC0A
:1045D00006460F469C4A534601F00AFD43465A469A
:1045E00001F03AFE80468A46984A994B3046394651
:1045F00001F0FEFC2A0D01250B924246534601F0C4
:104600002BFE032DC4E9000139D00B98C1F30A51E8
:10461000401A05EB45111139814230DA9148C34601
:10462000784400EB0510CDF80CA00C90D0E90023E5
:104630003046394601F0DCFC02460B4604910690F8
:104640005846039901F0FAFE80468A4602460B4618
:104650005846039901F0F2FE049B069A01F0EEFE23
:1046600083460C9803913946D0E90223304601F085
:10467000BFFC5A46039B01F0E1FE6D1CBDE70798A5
:104680000028A2BF099817B0BDE8F08F616881F0DB
:1046900000416160099817B04042BDE8F08FFFE724
:1046A00084461598C1F31301C0F30A50A0F2F53007
:1046B0004FEA601800F01F06C6F12000139000209A
:1046C0000690079041F4801E05206D4676B1664A3B
:1046D00008EB00017A4452F8213002EB8101B3402B
:1046E0004A68139922FA01F1194305E05F4908EB82
:1046F0000002794451F82210A1FB0E27A1FB0C13F4
:104700001A449A4234BF0123002303EB070A05EB46
:104710008003D3E901B70F448F4234BF0121002148
:1047200093448B4411B1934502D903E0934501D2E0
:10473000012100E00021C3E901B7514445F82010F0
:10474000011EA0F10100C1DC0298059F00F100509C
:10475000800F12900298DDE90356800001F0E1FB22
:10476000834628460D9101F0F3FB6FF01D0202F025
:10477000D6FACDE90E01304601F0EAFB6FF03D02BA
:1047800002F0CDFA80468A46384601F0E1FB6FF030
:104790005D0202F0C4FA074642465346119101F009
:1047A0007DF9DDE90E2301F079F95A460D9B01F000
:1047B00075F900250E465A4628460D9B01F03EFE2F
:1047C000DDE90E2301F03AFE4246534601F036FE83
:1047D0003A46119B01F040FDDFF898A0244A534669
:1047E00001F006FC07468846234A244B31462846FA
:1047F00001F0FEFB3A46434601F050F90746884671
:104800004FF0A84253463146284601F0F1FB3A46A4
:10481000434601F043F9159A12F0004F04D0129A62
:1048200081F0004152421292C4E90001129817B07F
:10483000BDE8F08FFB21E93F7CD90240FB21F93F25
:104840007370032E8A19A33B000040543163621A2F
:1048500061B4D03DFB21394183C8C96D305FE43F6D
:104860000000E03FFC300000783000005A300000CB
:10487000182D4454FB21F93D3326A611460B113C5B
:104880002DE9FF4D21F0004807460C46B8F1795F4D
:1048900008DA01F017FB002801BF0020324904B0FC
:1048A000BDE8F08D3A4623461046194601F0A0FBBC
:1048B000054602462D480E460B460621784400F078
:1048C0005DF82A46334601F093FBDDE90223824678
:1048D0008B463846214601F08BFB04460F46524674
:1048E0005B462846314601F083FB22463B4601F0F9
:1048F000A5FD07468A464FF0FF322846314602F0B2
:104900000EFA1B4A90450ADA3A46534601F096FDE4
:1049100004B00022BDE8F04D134B01F09DBC154AD8
:104920004245A8BFA8F500154FF00004B8BF124DCE
:1049300022462B4601F082FD0646884622462B463B
:104940000020094901F07AFD04460D463A465346D7
:104950003046414601F072FD04B022462B46BDE8C8
:10496000F04D01F079BC00000000F03F282E00005F
:104970003333D33F0000E93F0000D23F2DE9F0413F
:104980004F1E00EBC7010446D1E9000115461E4643
:1049900037F006020DD02A46334601F029FB7F1E70
:1049A00004EBC703D3E9002301F078F837F00602DF
:1049B000F1D1022F25D0042F13D0062F18BFBDE848
:1049C000F0812A46334601F013FBD4E90A2301F0B3
:1049D00065F82A46334601F00BFBD4E9082301F0C1
:1049E0005DF82A46334601F003FBD4E9062301F0C3
:1049F00055F82A46334601F0FBFAD4E9042301F0C6
:104A00004DF82A46334601F0F3FAD4E9022301F0C7
:104A100045F82A46334601F0EBFAD4E90023BDE815
:104A2000F04101F03BB800002DE9FF4D054621F0B3
:104A3000004084B00C46B0F1795F0BDA2846FFF7EE
:104A400046FD042808BF00F07FF8284608B021463C
:104A5000BDE8F08D2A460B46104601F0C9FA06461D
:104A60000F462A46234601F0C3FA804626488A4666
:104A700032463B4605217844FFF780FF8346109875
:104A8000029160B3214A224B4046514601F0B0FAF0
:104A9000CDE900015A4640465146029B01F0A8FA72
:104AA00082468846DDE906014FF0FF3202F037F911
:104AB0005246434601F0C2FC32463B4601F098FAAA
:104AC000DDE9062301F0BAFCDDE9002301F0B6FCC4
:104AD00008B02A462346BDE8F04D01F0BDBB0B46A9
:104AE0005A463046394601F083FA084A084B00F02E
:104AF000D5FF4246534601F07BFA08B02A462346CA
:104B0000BDE8F04D00F0CABF6E2D00004955555567
:104B10005555C5BF002213461046014901F07AB829
:104B20000000F03F012202F0FAB800F0B7BF002207
:104B300013461046114601F06DB840F201320020D4
:104B40004FF0E04102F0EBB8024A0020110702F0FA
:104B5000E6B8000001FDFFFF2DE9F84F04460D46C1
:104B600021F0004000917349814211DC7249884272
:104B700001DC06D12CB120462946BDE8F84FFFF7ED
:104B8000D1BF6E48002DCCBF6D496E49BDE8F88F8E
:104B90006D49814211DD6D498142D8BF4FF0FF362A
:104BA0006DDD20462946FFF792FC042808BFFFF779
:104BB000CBFF20462946BDE8F88F6549654F25F0B3
:104BC0000045814233DD6449814219DD00263246C9
:104BD0004FF080432046294600F060FF80468A4619
:104BE00001222046294602F09AF800223B4601F0B5
:104BF00025FC4246534601F00DF804460D463EE0C2
:104C000001260022BA463B462046294600F046FFD0
:104C100080460F46002253462046294601F00EFCEE
:104C200042463B4600F0F6FF04460D4627E04B495E
:104C300081421BDDDFF828A10226002253462046D0
:104C4000294601F0D5F900223B4600F027FF8046B7
:104C50000F46002253462046294601F0EFFB42460C
:104C60003B4600F0D7FF04460D4608E003262246E7
:104C70002B4600203B4900F0CDFF04460D4622465E
:104C80002B461046194601F0B3F98B468246024680
:104C90000B4601F0ADF907460246334888460B46FD
:104CA00006217844FFF76AFE52465B4601F0A0F900
:104CB00082462E488B463A46434605217844FFF704
:104CC0005DFE3A46434601F093F902460B46002E3C
:104CD000504659460CDA00F0E1FE22462B4601F020
:104CE00087F901B022462B46BDE8F04F01F0B4BA77
:104CF00000F0D4FE22462B4601F07AF91C4A7A4491
:104D000002EBC603D3E9002301F098FB22462B46B1
:104D100001F094FB174A7A4402EBC603D3E900235F
:104D200001F09AFA009A002AB8BF81F00041BDE86C
:104D3000F88F0000000010440000F07F182D44544C
:104D4000FB21F93FFB21F9BF0000DC3F0000203EC2
:104D50000000F33F0000F03F0000E63F008003400A
:104D60000000F83F0000F0BF8A2900004829000039
:104D7000E6280000AE2800002DE9F04D9446CCF165
:104D8000000423F000464CEA0404524F46EAD4746F
:104D90009A46884621F00042BC4206D8454240EA85
:104DA000050442EAD474BC4204D9BDE8F04D624621
:104DB000FFF7BBBEAAF14055A5F17F6555EA0C048B
:104DC0000BD0022404EAAA74434DDFF810E144EA50
:104DD000D87452EA000B04D00CE0BDE8F04DFFF7A8
:104DE000BBBE002C14BF012CBDE8F08D022C30D0CE
:104DF000032C32D056EA0C0B0AD0BE4220D1BA4264
:104E000009D126F0804622F080423346114617E051
:104E100000291ADB25E0DFF8C8B0FB44002C04BFF2
:104E2000DBE90001BDE8F08D012C02BFDBE90001E8
:104E300081F00041BDE8F08D022C0AD0032C0CD08B
:104E4000BA4212D1B8F1000F0BDA23482549BDE868
:104E5000F08D28462449BDE8F08D28467146BDE80E
:104E6000F08D1D482149BDE8F08D921B12153C2A9A
:104E7000C4BF19481D490EDCBAF1000FBEBF12F1C4
:104E80003C0F0020014606DB624600F0C3FE21F025
:104E90000041FFF761FE002C08BFBDE8F08D012C3A
:104EA00004BF81F00041BDE8F08D114A114B022C86
:104EB00007D001F0C3FA2A46BDE8F04D0A4B01F0D5
:104EC000BDBA01F0BBFA2A46BDE8F04D064B01F031
:104ED000C3B900000000F07F182D4454FB2109C025
:104EE000FA280000FB21F9BFFB210940FB21F93F13
:104EF000075C143326A6A13C00B5244B21F00042E8
:104F000087B09A42DCBF0022134629DD204B9A422B
:104F100008D140B94FF00100FFF7A0FAFFF707FEF4
:104F200007B000BD03DBFFF7FDFD07B000BD02AA1F
:104F3000FFF7E2FA10F0030104BF0DF1080C9CE842
:104F40000F000DD0012001290ED0022914D00DF13F
:104F5000080C00909CE80F00FFF766FD07B000BD4D
:104F6000FFF78EFC07B000BD0DF1080C00909CE827
:104F70000F00FFF759FD05E00DF1080C9CE80F004C
:104F8000FFF77EFC07B081F0004100BDFB21E93F47
:104F90000000F07F2DE9F04D16460F4694B01C46F8
:104FA00021F0004123F00042002814BF4FF0010C13
:104FB0004FF0000C0CEB470CFE4B0CEB03054FEADB
:104FC000630C65452BD3350018BF012505EB44055F
:104FD0001D44F94B9D4222D3F84B52EA060C02D0F5
:104FE0009F4205D148B914B000201946BDE8F08DA4
:104FF000002808BF4FF0000C01D04FF0010C0CEB63
:10500000470313F5001F0AD8002E14BF4FF0010C00
:105010004FF0000C0CEB440313F5001F07D914B03C
:10502000324623463946BDE8F04DFFF77EBDDFF836
:1050300090834FF0000A002FB8BF424523DAE14BBE
:105040009A42A8BF4FF0020A1DDADC4B93421ADCE9
:10505000DD4B03EB2253142B08DDC3F1340C26FA8D
:105060000CF303FA0CFCB4450DD108E05EB9C3F1B2
:10507000140C22FA0CF303FA0CFC944503D103F050
:105080000103C3F1020A51EA00031BD1002C19DA13
:10509000002F18BFBAF1020F02D0BAF1010F07D0EA
:1050A0000220FFF7DBF914B0BDE8F04DFFF732BD89
:1050B0000220FFF7D3F9FFF72DFD14B081F0004176
:1050C000BDE8F08D330070D1424525D107F1804213
:1050D00012F5801201BF00280020B84914B008BFA3
:1050E000BDE8F08DB548884207DC002CA1BF18460A
:1050F000214614B0BDE8F08D07E0002CBFBF184674
:1051000084F0004114B0BDE8F08DB0497944D1E994
:10511000000114B0BDE8F08DDFF8A0C262452AD1CD
:10512000002C24DA39B1414517D1002804BF0020F2
:1051300002461CD106E040B10220FFF78FF9FFF7CD
:10514000FCFC0A46394600F0D7BA9D4A394614B0ED
:10515000002062F31E01BDE8F08D08DA14B03B4672
:10516000BDE8F04D02460020614600F053BD14B08A
:105170003946BDE8F08D414517DAB4F1804F0CD0C7
:10518000A4F10053B3F1FF530FD13B1E0DDB14B05C
:105190001946BDE8F04D00F029BC3B4614B002466C
:1051A000BDE8F04D194600F023BF050027F000438D
:1051B0003AD1E1B1414537D1002F06DD002CA1BF26
:1051C0000020414614B0BDE8F08D002F01DD002C19
:1051D0001FDB002F16DA002C14DBBAF1010F4FF0A1
:1051E000000014BF76497A4914B0BDE8F08DBAF1D9
:1051F000020F18BF002F0CD0BAF1010F09D1002FF8
:1052000007DA0BE0002FB8BF002C0DDABAF1010F5E
:1052100004D0002014B00146BDE8F08D14B0002089
:105220004FF00041BDE8F08D4FF0010808EBE77C3E
:10523000CDF814C05CEA0A0C0DD0DFF898C16245C5
:105240007EDDDFF894C1654B624512DD8B420ADBDF
:10525000002C18DB23E00120FFF700F914B0BDE8B3
:10526000F04DFFF764BC554A8A4202DC002C0ADC90
:1052700015E0994202DA002C11DA04E04F4B994212
:1052800019DD002C0BDD0220FFF7E8F8FFF755FCD5
:105290004B4A14B061F31E021146BDE8F08D0220A6
:1052A000FFF7DCF8FFF750FC444A14B061F31E022C
:1052B0001146BDE8F08D0022394601F0BFF80746DF
:1052C0000D466FF0010201F02AFD4FF05532444BBC
:1052D00000F0C2FF3A462B4600F08AFE0022414B06
:1052E00000F0BAFF80468B463A462B4610461946D8
:1052F00000F07EFE42465B4600F07AFE88460E9045
:105300004FF0C042384B3846294600F071FE8346C4
:105310000091364A344B41460E9800F069FE8046B3
:105320000191334A334B3846294600F061FE42462C
:10533000019B01F083F80D4602460B460C9000E0FD
:1053400011E05846009900F0A9FB002788465A460C
:105350003846009B01F072F82B460C9A00F07CFF57
:10536000024600F079B90020B1F5801F07DA352236
:105370002846194601F0D3FC05466FF0340000EBD7
:105380002150A0F2FF300190C1F3130040F07F6183
:1053900041F04051029118498842D8BF4FF0000BAC
:1053A00035DD16498142C8BF4FF0010B2FDC4FF0AD
:1053B000000B25E0FFFF1F00FFFF0F000000F03F84
:1053C0000000F07F0000404301FCFFFF08260000C2
:1053D0000000F0FF0000E0410000F043FFFFEF3F5E
:1053E0005555D53F0000E03F4715F73FFE822B653E
:1053F00044DF5DF80BAE543E8E9803007AB60B0086
:105400000198401C01900298A0F580100290FF487E
:105410000299784400EBCB000991D0E9002328469B
:105420000B93129201F00AF800910A9028460B9B08
:10543000129A099900F032FB02460B460020F4490B
:1054400000F0E8FBCDE90C010B46024600990A98F2
:1054500000F0CEFD0690EF48884600277844029978
:10546000006810904FF0005040EA610000EB8B4064
:1054700000F5002102910B9B129A109800F0DEFFBC
:105480002A46099B00F0E8FE3A46434600F0B0FD8C
:105490000891129038464146029B109A00F0A8FDF0
:1054A000009B0A9A00F0D8FE089B129A00F0C6FFF3
:1054B000DDE90C2300F09CFD0B91069A1290434607
:1054C0001046194600F094FD05460246D2480B46A8
:1054D0000A9106217844FFF751FA0A9B2A4608915F
:1054E00002901046194600F083FD089B029A00F0D6
:1054F0007FFD05460991434638461946069A00F055
:10550000CDFA0B9B129A00F073FD2A46099B00F01E
:10551000C5FACDE908013A4643461046194600F05F
:1055200067FD0A910022BD4B009000F0B7FADDE95B
:10553000082300F0B3FA0D463A46B84B384600F05F
:105540007DFF0A9B009A00F079FFDDE9082300F057
:1055500083FECDE908013A462B461046414600F04D
:1055600047FD00910A90DDE908014346069A00F0E4
:105570003FFD069088462B463A460B99129800F05C
:1055800037FD4346069A00F089FA80460B460246EC
:105590000D9100990A9800F081FA00200F46054607
:1055A000009B0A9A00F04AFF42460D9B00F054FE11
:1055B00088460E904FF06042994B2846394600F0DD
:1055C00017FD02910090974A954B41460E9800F0C6
:1055D0000FFD80460391944A944B2846394600F0CB
:1055E00007FD4246039B00F059FA914A7A4402EBC8
:1055F000CB03D3E9002300F051FA05460791019847
:1056000000F08FFC0C9003912A46079B02990098AA
:1056100000F044FA874A7A4402EBCB03D3E9002333
:105620009346019300F03AFA039B0C9A00F036FA85
:10563000002788463846039B0C9A00F0FFFE5A4626
:10564000019B00F0FBFE029B009A00F0F7FE2A4649
:10565000079B00F001FE02460020069005986C4D65
:10566000AAF10103184301D1734D069000200B46A7
:1056700004903046214600F0BBFC82468B46234610
:1056800030461946049A00F0D9FE3A46434600F0E7
:10569000AFFC52465B4600F001FA06468A463A469F
:1056A00043462146049800F0A3FC04460F463246C8
:1056B000534600F0F3F9614A8B46914221DBABEB94
:1056C000020353EA000210D122463B4600F0B6FE28
:1056D000804603915A4A5B4B3046514600F0DEF952
:1056E0004246039B00F082FD27D20220FEF7B6FE61
:1056F000FFF723FA0A46294614B062F31E01BDE8FB
:10570000F08D514B2BF000429A4216D34F4A0BEBCF
:10571000020353EA000208D122463B4600F08EFE07
:105720003246534600F062FD07D80220FEF796FE8F
:10573000FFF70AFA0A462946DEE72BF00040444903
:10574000444A01EB20514FF00008824223DA481C02
:105750004FF4801121FA00F058443F4AC0F30A5137
:105760007A443E4BA1F2FF31CB4020EA0303C0F361
:10577000130040F4801CC1F1140012682CFA00F8E8
:10578000BBF1000FB8BFC8F100082046394600F051
:1057900055FE04460F4622463B463046514600F031
:1057A0007DF94FF0000B5A462D4B5846039100F0FF
:1057B0001FFC00910A902B4A2B4B5846039900F08E
:1057C00017FC0491029022463B465846039900F08C
:1057D00035FE3246534600F03FFD244A244B00F08C
:1057E00007FC049B029A00F059F907468A46009B81
:1057F0000A9A00F053F904460E46009B0A9A00F0FC
:105800001DFE3A46534600F027FD33E04A220000D1
:105810000000F03FB8220000B8210000000008405E
:1058200009C7EE3FFD033ADCF5015B14E02F3EBEF5
:1058300090200000562000000000F0BF00009040C3
:10584000FE822B654715973C00CC904000346F3F9B
:1058500001FCFFFF0000E03FB41F0000FFFF0F004E
:10586000432EE63F396CA80C615C20BEEF39FAFE8E
:10587000422EE63F0746224633460F911046194610
:1058800000F0B6FB834602462E488A460B460521A9
:105890007844FFF773F85A46534600F0A9FB2246B6
:1058A000334600F0D9FC82468B463A4620463146C4
:1058B0000F9B00F09DFB3A460F9B00F0EFF80F4660
:1058C0000A9000224FF080435046594600F0B6FD42
:1058D0000391009052465B462046314600F088FB1B
:1058E000039B009A00F096F93B460A9A00F0A6FD49
:1058F0002246334600F0A2FD0022134B00F0ACFC20
:105900000E46044601EB08510815002810DC4246FB
:105910002046314601F003FAFEF7D9FD042808BFFE
:10592000FFF712F942462046314601F0F8F90446E5
:1059300006980B4614B022462946BDE8F04D00F00B
:1059400057BB00002C1E00000000F03F00B5254BA7
:1059500021F0004287B09A4203DC002213460092F5
:105960002BE0214B9A4208D140B94FF00100FEF7DD
:1059700075FDFFF7DCF807B000BD03DBFFF7D2F8D9
:1059800007B000BD02AAFEF7B7FD10F003014FF00B
:1059900001000DD0012914D002291AD00DF1080CF4
:1059A0009CE80F00FEF76CFF07B081F0004100BDDE
:1059B0000DF1080C00909CE80F00FFF735F807B0D8
:1059C00000BD0DF1080C9CE80F00FEF759FF07B071
:1059D00000BD0DF1080C00909CE80F00FFF724F8C3
:1059E000E2E70000FB21E93F0000F07F2DE9F041F4
:1059F00006460F4600F03CFC04000D4618BF01208F
:105A0000284320F00040C0F17F6000F1E040C00F6B
:105A10000ED0301C18BF0120384320F00040C0F1E8
:105A20007F6000F1E040C00F04BF0120FEF716FDCB
:105A300020462946BDE8F08121F00042A2F16052E3
:105A4000B2F5801F01F0004328BFD2F17F6C0BD963
:105A50005FEA001C43EAC20242EB507018BF704775
:105A600028BF20F001007047B2F5801FBCBF184668
:105A700070474FEA410C1CF5001F02D2084601F0A6
:105A800066B870B500F05EFB00000089FFF7F6BF56
:105A90004FF00040A0F580007047000010B591EA7B
:105AA000030F48BF83F0004300F1D084841A71EBE8
:105AB000030C05D2121943EB0C03001B61EB0C0124
:105AC000DFF824E14FEA1154A4EB135C1EEA430F04
:105AD00018BF9EEA445F73D023EA0E03DCF1200E68
