:1002C60008083C42A98585A9423C08103C42A589FC
:0402D60089A5423C78
:1002F70012036C12037F1203AD120324D3EF949001
:10030700EE64809481400B7B007A007910120253CF
:0D03170080E77B007A00790812025380DC39
:1002DA00022700000225000008297FBFDFEFF7FB95
:0202EA00FDFE17
:0B03B900EF1FAC0670011E4C70F62216
:100290001201C0FF1202A07F647E001203B9E4FFC6
:1002A000C2B6C2B5E4FEEFC4131313540124FF9287
:1002B000B4EF25E0FFD2B60000C2B60EBE08E7D20A
:0502C000B50000C2B50D
:0102C5002216
:10020F00EFC394014039EFD394085033EDC39401F9
:10021F00402DEDD394085027EF14FF747F7EFFA875
:10022F0007088005CEC313CE13D8F9F580ED14FF60
:10023F007401A807088002C333D8FCFF1202A0E4A0
:04024F00FF0202A008
:060253008B378A3889395F
:10025900E4F53AF53B75807FF53AF53B7429253B82
:10026900F8E6F580AB37AA38A939853B82853A8308
:10027900120290053BE53B7002053AC39408E53A42
:060289006480948040D661
:01028F00224C
:0A0003008B188A19891A8C1B8D1CBA
:10000D00E4F51DF51EF51FF520F521F522F523F577
:10001D002475807FF521F522E51CAE1B7803C333D3
:10002D00CE33CED8F9FFC3E5229FEE6480F8E521EB
:10003D00648098400302011AE4F51FF520E4F51DD4
:10004D00F51E7429251EF8E6F580AB18AA19A91A14
:10005D00851E82851D83120290051EE51E70020508
:10006D001DC39408E51D6480948040D60520E520CD
:10007D007002051FC39450E51F6480948040BEAB91
:10008D0018AA19A91A1201A7752300F524E4F51D64
:10009D00F51EE51CAE1B7803C333CE33CED8F92441
:1000AD00FFFFEE34FFFEC3E51E9FEE6480F8E51DF5
:1000BD006480985028AB18AA19A91AE51E2401FFCF
:1000CD00E4351D8F82F5831201C0851E82851D8347
:1000DD001201ED051EE51E70B9051D80B5AD24E5B7
:1000ED001CAE1B7803C333CE33CED8F924FFF58273
:1000FD0074FF3EF583AB18AA19A91AED1201ED058F
:0D010D0022E52260030200250521020025E5
:01011A0022C2
:10034E00D3EF9400EE940040147D6E7C00ED1D7092
:0D035E00011CED4C70F7EF1F70E61E80E3F0
:01036B00226F
:0703C400D288D2A8D2AF22BB
:0703CB00D28AD2AAD2AF22B0
:10037F00438901758CFC758A18D2A9D2AFD28C2211
:10038F00438910758DFC758B18D2ABD2AFD28E22EC
:10036C00759850758920758DFD758BFDD2ACD2AF0B
:03037C00D28E22FC
:0E039F00C2ACC2998F993099FDC299D2AC229E
:0603D200AE0712039F229A
:0A02EC00023100000433000000009E
:0C03AD0075BCC8759D01E4F5BDF5BE22CD
:10032400E5BC30E4FBAFBD7531008F32E532AE3150
:100334007802C333CE33CED8F9F5328E31AFBEEF67
:09034400423275BCC8AE31AF3283
:01034D00228D
:0300000002011BDF
:0C011B00787FE4F6D8FD75813B0201629C
:1001A700BB010689828A83E0225002E722BBFE0256
:0901B700E32289828A83E4932289
:1001C000BB010CE58229F582E5833AF583E02250F4
:1001D00006E92582F8E622BBFE06E92582F8E2223E
:0D01E000E58229F582E5833AF583E4932258
:1001ED00F8BB010DE58229F582E5833AF583E8F048
:1001FD00225006E92582C8F622BBFE05E92582C8F4
:02020D00F222DB
:100127000202F7E493A3F8E493A34003F68001F2F5
:1001370008DFF48029E493A3F85407240CC8C333D9
:10014700C4540F4420C8834004F456800146F6DFA8
:10015700E4800B01020408102040809002C6E47E70
:10016700019360BCA3FF543F30E509541FFEE4939D
:10017700A360010ECF54C025E060A840B8E493A364
:10018700FAE493A3F8E493A3C8C582C8CAC583CA8F
:10019700F0A3C8C582C8CAC583CADFE9DEE780BE47
:0102F6000007
:00000001FF
