:020000040800F2
:100000000019002041080008490200084B020008BE
:100010004F020008530200085702000800000000C9
:100020000000000000000000000000005B0200086B
:100030005D020008000000005F0200086102000885
:100040005B0800085B0800085B0800085B08000804
:100050005B0800085B0800085B0800085B080008F4
:100060005B0800085B0800085B080008F30500084F
:100070005B0800085B0800085B0800085B080008D4
:100080005B0800085B0800085B0800085B080008C4
:100090005B0800085B0800085B0800085B080008B4
:1000A0005B0800085B0800085B0800085B080008A4
:1000B0005B0800085B0800085B0800085B08000894
:1000C0005B0800085B0800085B0800085B08000884
:1000D0005B080008B70700085B0800085B08000819
:1000E0005B0800085B0800085B0800085B08000864
:1000F0005B0800085B0800085B0800085B08000854
:100100005B0800085B0800085B0800085B08000843
:100110005B0800085B0800085B0800085B08000833
:100120005B0800085B0800085B0800085B08000823
:1001300000F002F800F05AF80AA090E8000C82449F
:100140008344AAF10107DA4501D100F04FF8AFF27C
:10015000090EBAE80F0013F0010F18BFFB1A43F0A5
:1001600001031847345A0000545A00000A444FF063
:10017000000C10F8013B13F0070408BF10F8014B06
:100180001D1108BF10F8015B641E05D010F8016B4B
:10019000641E01F8016BF9D113F0080F1EBF10F8AF
:1001A000014BAD1C0C1B09D16D1E58BF01F801CBD2
:1001B000FAD505E014F8016B01F8016B6D1EF9D555
:1001C0009142D6D37047000000230024002500266A
:1001D000103A28BF78C1FBD8520728BF30C148BFAA
:1001E0000B6070471FB51FBD10B510BD03F08EFE2C
:1001F0001146FFF7F7FF00F009F803F0ACFE03B477
:10020000FFF7F2FF03BC00F07BFA000000F002FAF7
:1002100000F018F900F02FF900F03EF900F06AFA4A
:10022000084801F049FA0BE000F04DF9044601F0EE
:10023000C1FC01F0C8FC642000F029FA01F050FA7A
:10024000F2E70000480D0020704700BFFEE700BF46
:10025000FEE700BFFEE700BFFEE77047704770474C
:10026000704700000CB50020019000906C480068B9
:1002700040F480306A49086000BF6948006800F4B3
:10028000003000900198401C0190009818B9019826
:10029000B0F5A06FF1D16248006800F4003010B1F1
:1002A0000120009001E0002000900098012843D137
:1002B0005C48006840F010005A4908600846006831
:1002C00020F0030008600846006840F00200086063
:1002D00053484068524948600846406848600846AC
:1002E000406840F4806048600846406820F47C1014
:1002F00048600846406840F4E810486008460068D6
:1003000040F08070086000BF4548006800F0007051
:100310000028F9D04248406820F003004049486076
:100320000846406840F00200486000BF3C48406812
:1003300000F00C000828F9D10CBD10B5FFF792FFB2
:1003400010BD10B53648006840F00100344908601F
:10035000084640683449084031494860084600680A
:10036000324908402E4908600846006820F4802081
:1003700008600846406820F4FE0048604FF41F0003
:100380008860FFF7DAFF4FF000602949086010BD70
:1003900010B5002100200022214B5B6803F00C0106
:1003A00021B1042906D0082928D107E0214B224C8D
:1003B000236027E01F4B204C236023E0184B5B6831
:1003C00003F47010164B5B6803F48032022303EBD6
:1003D000904022B9194B4343174C23600DE0104B5A
:1003E0005B6803F4003323B1144B4343124C236086
:1003F00003E0104B4343104C236003E00D4B0E4CC5
:10040000236000BF00BF064B5B68C3F303130C4CB3
:10041000E15C094B1B68CB40074C236010BD00001A
:1004200000100240002002400000FFF8FFFFF6FE2F
:1004300008ED00E000127A000000002000093D00F5
:100440000400002008B50121082000F035FD4FF41C
:100450007040ADF8000010208DF8030003208DF8E7
:1004600002006946494800F06BFA4FF400514748D2
:1004700000F013FB08BD08B50121202000F01CFD91
:100480004FF47C50ADF8000048208DF80300694619
:100490003F4800F055FA08BD08B50121202000F0C2
:1004A0000BFD8020ADF8000010208DF80300032024
:1004B0008DF802006946364800F042FA802134483F
:1004C00000F0EDFA08BD10B54FF40071304800F0AF
:1004D000CAFAE8B14FF480612D4800F0C4FAB8B10F
:1004E0004FF480512A4800F0BEFA88B14FF4807171
:1004F000274800F0B8FA58B14FF40061244800F0E2
:10050000B2FA28B14FF40051214800F0ACFA88BB90
:10051000012020490860142000F0B9F800201E498D
:10052000C1F89C014FF40071194800F09CFA08B919
:10053000302010BD4FF48061154800F094FA08B9DE
:100540002020F6E74FF48051114800F08CFA08B9EA
:100550001020EEE74FF480710D4800F084FA08B9DE
:100560004020E6E74FF40061094800F07CFA10B93A
:100570005020DEE707E04FF40051054800F073FA21
:1005800008B96020D5E70020D3E70000000C014047
:10059000001401409C81224200802242F0B58BB0C1
:1005A00007460D4616461C460121084600F077FC1A
:1005B000384600F057FF15490C7000950196002051
:1005C00002900394049080200590400006908000E3
:1005D0000790202008900002099000200A906946A8
:1005E000384600F0E1FF0121094801F008F80BB09E
:1005F000F0BD10B5022001F03CF828B1022001F056
:100600004CF8022001F049F810BD00001400002051
:100610000800024010B56FF0040000F004FF2E48FF
:1006200000682E49B0FBF1F02D49087008460078AB
:1006300000EB4001C1EBC0104FF6FF7101EAC000B2
:100640002849088010BD0146254A12784A434FF0D8
:10065000E0235A6100229A611A46126942F00102AF
:100660001A6100BF4FF0E022106900F001021AB1D8
:1006700000F48032002AF5D04FF0E022126922F017
:1006800001024FF0E0231A6100229A61704701468F
:10069000144A12884A434FF0E0235A6100229A61BB
:1006A0001A46126942F001021A6100BF4FF0E022BF
:1006B000106900F001021AB100F48032002AF5D06E
:1006C0004FF0E022126922F001024FF0E0231A619C
:1006D00000229A61704700000000002000127A009A
:1006E000160000201800002030BF704772B6704717
:1006F00062B6704710B54FF4A06000F045FE10BD23
:10070000014600BF704700BF494A128802F040020C
:10071000002AF9D0C2B2464B1B1D1A80704710B593
:1007200086B00446012144F2040000F0C5FB4FF4FA
:100730000070ADF8140003208DF8160018208DF815
:10074000170005A93B4800F0FBF84FF48060ADF8B6
:10075000140004208DF8170005A9364800F0F0F8C1
:1007600025208DF8000003208DF801008DF802008F
:1007700001208DF80300684600F00BFE0194002074
:10078000ADF80800ADF80A00ADF80C00ADF81000A7
:100790000C20ADF80E0001A9254800F034FC012220
:1007A00040F22551224800F0C6FC0121204800F00B
:1007B000B6FC06B010BD10B540F225511C4800F043
:1007C0009FFD10B31A4800F01BFDC4B21A48008800
:1007D00000F40040C8B91848008800F4804060B1B7
:1007E0000A2C03D000201449088020E01248008819
:1007F00040F400401049088019E00D2C06D10E4845
:10080000008840F480400C49088010E00A480088C5
:10081000C0F30D0009490C5407480088401C0649E4
:10082000088008460088C72801DD0020088010BD28
:100830000038014000080140200000208C0D0020FD
:100840000948804709480047FEE7FEE7FEE7FEE764
:10085000FEE7FEE7FEE7FEE7FEE7FEE704480549A0
:10086000054A064B704700004303000831010008A9
:1008700000130020001900200015002000150020A2
:1008800010B50446CC48844208D10121042000F070
:100890002DFB0021042000F029FB46E0C7488442DC
:1008A00008D10121082000F021FB0021082000F0E0
:1008B0001DFB3AE0C248844208D10121102000F01B
:1008C00015FB0021102000F011FB2EE0BD488442F2
:1008D00008D10121202000F009FB0021202000F098
:1008E00005FB22E0B848844208D10121402000F0F5
:1008F000FDFA0021402000F0F9FA16E0B3488442E6
:1009000008D10121802000F0F1FA0021802000F0C0
:10091000EDFA0AE0AE48844207D10121801500F0CB
:10092000E5FA0021A01500F0E1FA10BD10B5012193
:10093000084600F0DBFA0021012000F0D7FA10BDD4
:100940002DE9F04102460025002600200023002466
:10095000002791F803C00CF00F0591F803C00CF0CC
:10096000100CBCF1000F03D091F802C04CEA050551
:1009700091F800C0BCF1000F31D0146800202BE0CA
:100980004FF0010C0CFA00F3B1F800C00CEA0306BA
:100990009E4220D183004FF00F0C0CFA03F7BC43AA
:1009A00005FA03FC4CEA040491F803C0BCF1280FDB
:1009B00006D14FF0010C0CFA00FCC2F814C00AE09A
:1009C00091F803C0BCF1480F05D14FF0010C0CFAAF
:1009D00000FCC2F810C0401C0828D1D31460B1F844
:1009E00000C0BCF1FF0F34DD546800202EE000F1A0
:1009F000080C4FF0010808FA0CF3B1F800C00CEA3B
:100A000003069E4221D183004FF00F0C0CFA03F72E
:100A1000BC4305FA03FC4CEA040491F803C0BCF1A2
:100A2000280F05D100F1080C08FA0CF8C2F8148060
:100A300091F803C0BCF1480F07D100F1080C4FF04A
:100A4000010808FA0CF8C2F81080401C0828CED320
:100A50005460BDE8F0814FF6FF7101800221817082
:100A60000421C17070470246002093680B400BB10F
:100A7000012000E0002070470146886880B270477E
:100A800002460020D3680B400BB1012000E000209B
:100A900070470146C86880B2704701617047416184
:100AA00070470AB1016100E041617047C160704761
:100AB0004FF480320A438261816182618269826976
:100AC000704702460020434B18684FF68073184069
:100AD00040EA021008433F4B186070473E49C86126
:100AE0007047F0B50A46002300240021002500F0DD
:100AF0000046B6F1004F02D1364EF16901E0354EA5
:100B00007168C0F3034583B200F44016B6F5401F88
:100B100008D121F070612F4E766826F070662D4F57
:100B20007E6012E000F48016B6F5801F06D1032621
:100B300006FA05F4A14341F0706106E0460D360166
:100B400003FA06F6B14341F0706122B1460D360159
:100B500003FA06F6314300F00046B6F1004F02D129
:100B60001C4EF16101E01B4E7160F0BD30B50022FA
:100B70008B071C0F0F2303FA04F2164B08338C105B
:100B800053F824309343134C08348D1044F8253027
:100B900023468C1053F824308C07240F00FA04F4F9
:100BA00023430C4C08348D1044F8253030BD0A49DD
:100BB000DC3108607047000000080140000C014073
:100BC000001001400014014000180140001C0140C9
:100BD000002001400000014000002042DF48006882
:100BE00040F00100DD49086008464068DC490840E3
:100BF000DA49486008460068DA490840D749086081
:100C00000846006820F4802008600846406820F408
:100C1000FE0048604FF41F0088607047CF490968A4
:100C200021F48031CD4A11601146096821F48021F8
:100C30001160B0F5803F03D0B0F5802F0ED106E0F3
:100C4000C649096841F48031C44A116007E0C349CC
:100C5000096841F4A021C14A116000E000BF00BF53
:100C6000704710B501460022002300204A11012AD6
:100C700002D1BA4C236806E0022A02D1B74C236A9B
:100C800001E0B64C636A01F01F02012494401C404D
:100C90000CB1012000E0002010BD38B5002000900C
:100CA0000024002500BF3120FFF7DBFF0546009838
:100CB000401C00900098B0F5A06F01D0002DF2D03C
:100CC0003120FFF7CEFF08B1012400E000242046C8
:100CD00038BD01460020A14A106820F0F80040EA23
:100CE000C10010607047A0490860704702460020AC
:100CF0009A4B586820F47C1042EA01031843974B42
:100D00005860704798490866704701460020934A2A
:100D1000506820F003000843506070478F484068D7
:100D200000F00C007047014600208C4A506820F00B
:100D3000F00008435060704701460020874A506821
:100D400020F4E06008435060704701460020834A69
:100D5000506820F4605040EAC1005060704729B1EB
:100D60007E4A527A02437D4B5A7204E07B4A527AA1
:100D700082437A4B5A7270477B49D831086070477A
:100D800001460020754A506820F4404008435060F6
:100D900070470021714A20321170704A82F8201089
:100DA000012802D004280AD104E001216B4A203234
:100DB000117005E00521694A2032117000E000BF82
:100DC00000BF70476949086070476449096A014378
:100DD000624A11627047654944390860704730B50E
:100DE00000210022002400235C4D6D6805F00C01F9
:100DF00021B1042905D0082923D105E05C4D056007
:100E000022E05B4D05601FE0544D6D6805F47012E3
:100E1000524D6D6805F48034022505EB92421CB9F1
:100E2000544D554305600BE04C4D6D6805F400359D
:100E30001DB1504D5543056002E04D4D55430560D1
:100E400002E04B4D056000BF00BF444D6D6805F0EA
:100E5000F0010909484D6B5C0568DD4045603F4D78
:100E60006D6805F4E061090A434D6B5C4568DD403F
:100E700085603A4D6D6805F46051C90A3E4D6B5C62
:100E80004568DD40C560354D6D6805F44041890B0E
:100E90003A4D6B5CC568B5FBF3F5056130BD29B112
:100EA0002E4A526902432D4B5A6104E02B4A526983
:100EB00082432A4B5A61704729B1284A92690243FA
:100EC000264B9A6104E0254A92698243234B9A613A
:100ED000704729B1214AD2690243204BDA6104E00C
:100EE0001E4AD26982431D4BDA61704729B11B4A01
:100EF000D2680243194BDA6004E0184AD268824390
:100F0000164BDA60704729B1144A12690243134B39
:100F10001A6104E0114A12698243104B1A6170474A
:100F200012494039086070470F49C86470470B493F
:100F3000C87170470948406A40F0807007494862AC
:100F4000704701460020054A92680A400AB1012014
:100F500000E000207047014988727047001002408D
:100F60000000FFF8FFFFF6FE00004242800442420C
:100F700000127A0000093D0022000020320000200B
:100F800010B50446FB48844209D101218803FFF7CC
:100F9000ADFF00214FF48040FFF7A8FF32E0F64894
:100FA000844209D101214804FFF7ADFF00214FF42D
:100FB0000030FFF7A8FF25E0F048844209D1012165
:100FC0008804FFF7A0FF00214FF48020FFF79BFF6C
:100FD00018E0EB48844209D10121C804FFF793FFD0
:100FE00000214FF40020FFF78EFF0BE0E54884421C
:100FF00008D101210805FFF786FF00214FF480107A
:10100000FFF781FF10BD2DE9F04786B005460E467B
:101010000024A24600BFA1460027B08900B100BF4E
:101020002F462C8A4CF6FF700440F08804432C8233
:10103000AC894EF6F3100440B088318908437189B9
:1010400008430443AC81AC8A4FF6FF400440B089AA
:101050000443AC8201A8FFF7C2FEC648874202D112
:10106000DDF810A001E0DDF80CA0A88900F4004034
:1010700040B10AEBCA0000EB0A1031684900B0FB2E
:10108000F1F807E00AEBCA0000EB0A1031688900AA
:10109000B0FBF1F86420B8FBF0F0040120096421F2
:1010A00001FB1089A88900F4004040B1322000EB18
:1010B000C900B0FBF1F000F00700044308E0322063
:1010C00000EB09106421B0FBF1F000F00F000443C5
:1010D0002C8106B0BDE8F0874FF416510160002165
:1010E0008180C18001810C21418100218181704773
:1010F00010B502460020108A4FF2FF0318400B88FB
:101100004C8823438C882343CC8823431843108284
:1011100010BD0021018041808180C180704721B1D4
:10112000828942F40052828104E082894DF6FF7385
:101130001A4082817047F0B503460024002600253E
:10114000002040F66A17B94200D100BF1846C1F32B
:10115000421401F01F06012707FA06F5012C01D100
:101160000C3004E0022C01D1103000E014301AB130
:1011700007682F43076002E00768AF430760F0BDD0
:101180001AB1838A0B43838202E0838A8B43838272
:101190007047028A4FF6F0731A400282028A0A43AD
:1011A0000282704782894FF2FF731A4082818289DE
:1011B0000A438281704721B1828942F00202828112
:1011C00004E082894FF6FD731A4082817047028ADB
:1011D0004FF6DF731A400282028A0A430282704786
:1011E00021B1028A42F48042028204E0028A4BF674
:1011F000FF731A4002827047C1F308028280704771
:1012000001468888C0F308007047818941F00101D8
:1012100081817047028BD2B20283028B42EA0122A3
:1012200002837047028B02F47F420283028B0A43DF
:101230000283704721B1828A42F02002828204E058
:10124000828A4FF6DF731A408282704721B1828A08
:1012500042F01002828204E0828A4FF6EF731A4055
:101260008282704721B1828A42F00802828204E0C1
:10127000828A4FF6F7731A408282704721B18289C1
:1012800042F40042828103E08289C2F30E0282812D
:10129000704721B1828A42F40062828204E0828A2D
:1012A0004FF2FF731A4082827047828A4FF6FB73B7
:1012B0001A408282828A0A438282704721B1828ADE
:1012C00042F00202828204E0828A4FF6FD731A40E5
:1012D0008282704702460020B1F5007F00D100BF36
:1012E00013880B400BB1012000E00020704701F48F
:1012F0000072B2F5007F00D100BFCA430280704780
:1013000070B50246002400230025002040F66A162E
:10131000B14200D100BFC1F3421501F01F03012605
:1013200006FA03F3012D02D19689334006E0022D1F
:1013300002D1168A334001E0968A33400C1201260E
:1013400006FA04F41688344013B10CB1012000E011
:10135000002070BD10B50022002340F66A14A1429F
:1013600000D100BF0A1201249440A3B2DC430480E0
:1013700010BD00000038014000440040004800401B
:10138000004C00400050004031490143314A116097
:10139000704770B5002100230F22C47804B32D4C90
:1013A000246804F4E064C4F5E064210AC1F1040394
:1013B000CA40447804FA03F18478144021430901B7
:1013C000254C0678A155047804F01F050124AC4093
:1013D00005786D11AD0005F1E025C5F8004109E083
:1013E000047804F01F050124AC401C4D06787611EA
:1013F00045F8264070BD1A4A0A400243154B1B1F90
:101400001A60704739B1134A121D12680243114B1A
:101410001B1D1A6006E00F4A121D126882430D4B15
:101420001B1D1A607047042808D14FF0E02109699C
:1014300041F004014FF0E022116107E04FF0E0219C
:10144000096921F004014FF0E022116170470000AA
:101450000000FA050CED00E000E400E080E100E0AF
:1014600080FFFF1F01684FF6FE72114001600021EE
:10147000016041608160C1608D49884208D18C491A
:101480000839496841F00F01894A083A51608AE0F9
:1014900087491431884208D185490839496841F0A3
:1014A000F001834A083A51607DE081492831884241
:1014B00008D17F490839496841F470617C4A083A8B
:1014C000516070E07A493C31884208D17849083946
:1014D000496841F47041764A083A516063E07449C2
:1014E0005031884208D172490839496841F4702165
:1014F0006F4A083A516056E06D496431884208D11C
:101500006B490839496841F47001694A083A5160E9
:1015100049E067497831884208D165490839496806
:1015200041F07061624A083A51603CE0614988428A
:1015300006D1011F096841F00F01021F116032E05E
:101540005C491431884208D15A49091F096841F0A1
:10155000F001584A121F116025E05649283188428F
:1015600008D15449091F096841F47061514A121F9A
:10157000116018E04F493C31884208D14D49091F9C
:10158000096841F470414B4A121F11600BE0494950
:101590005031884207D14749091F096841F4702139
:1015A000444A121F1160704710B50022026847F6C6
:1015B000F0739A430C6A8B6823430C6923434C698C
:1015C00023438C692343CC6923434C6A23438C6AAD
:1015D00023431A430260CB6843600B6883604B6807
:1015E000C36010BD0021016041608160C160016184
:1015F00041618161C161016241628162704721B1D3
:10160000026842F00102026004E002684FF6FE73D5
:101610001A40026070471AB103680B43036002E08E
:1016200003688B4303607047416070470146486818
:1016300080B2704701460020002201F080531BB1A8
:101640001C4B083B1A6802E0194B083B1A6802EA77
:1016500001030BB1012000E00020704700F0805131
:1016600019B11449091F086002E01149083948609E
:10167000704701460020002201F080531BB10D4B42
:10168000083B1A6802E00A4B083B1A6802EA0103A9
:101690000BB1012000E00020704700F0805119B12B
:1016A0000449091F086002E0014908394860704791
:1016B000080002400804024010B5044600F0FFF99B
:1016C0004FF480611E4802F0A9FB204600F06BFA3F
:1016D00010BD10B54FF48061194802F09FFB10BD9A
:1016E00010B5174800F0EFF9FFF7F3FF10BDF0B5A4
:1016F0000B460024802801D2402B00D3F0BD0726E2
:10170000A6EBD306F1B203F00705C5F107070126E2
:10171000BE40F4B24AB10A4E06EBC006765C2643E0
:10172000074F07EBC0077E5408E0054E06EBC006E6
:10173000765CA643024F07EBC0077E5400BFDDE78F
:10174000540E00202DE9F04106460F4615461C4672
:1017500005F0030030B1012829D0022808D0032861
:1017600026D114E0002239463046FFF7C0FF25E0BD
:1017700004F0010028B1012239463046FFF7B7FFD7
:1017800004E0002239463046FFF7B1FF16E004F0CE
:101790000300022805D3012239463046FFF7A7FF90
:1017A00004E0002239463046FFF7A1FF06E000BF03
:1017B000012239463046FFF79AFF00BF00BFBDE85F
:1017C000F0812DE9FF4F81B081460398A0EB09001D
:1017D00004B202990498401A05B2002C01DD0120E0
:1017E00000E000200121C1EB400A002D01DD0120B5
:1017F00000E000200121C1EB400B0FFA89F70298AD
:101800000FFA80F8002000900026002C01DA6042D8
:1018100000E0204604B2002D01DA684200E02846CC
:1018200005B2AC421EDD0FFA89F716E00098401CA5
:10183000009041463846009B0E9AFFF783FF7019CF
:1018400006B2B4EB460F05DC08EB0B000FFA80F88C
:10185000301B06B207EB0A0007B203985044B842A7
:10186000E4D11EE002980FFA80F816E00098401CC0
:10187000009041463846009B0E9AFFF763FF3019EF
:1018800006B2B5EB460F04DC07EB0A0007B2701B8B
:1018900006B208EB0B000FFA80F804985844404554
:1018A000E4D105B0BDE8F08F2DE9F84F04460D46B0
:1018B00090464FF0000B002D01DCBDE8F88F012DA4
:1018C00008D154F8049BD4F800A0012251464846A0
:1018D000FFF70DFF54F8049B54F804AB4FF0010BD5
:1018E0000FE040CC80CC3B46324651464846CDF8CE
:1018F0000080FFF766FFB146BA460BF1010000F029
:10190000FF0BAB45EDDB00BFD7E72DE9F84F0746EE
:101910000C4690461E460A9D4FF0000AD14605F03F
:10192000040008B9002D33D1474502D9BA464746CD
:10193000D046B44202D9A2463446564615B94FF0B5
:10194000000901E04FF00109B44209D123464246A3
:1019500021463846CDF80090FFF733FFBDE8F88FF9
:10196000474508D133463A4621463846CDF80090DF
:10197000FFF727FFF2E708E02346424621463846B4
:10198000CDF80090FFF71DFF641CB442F4D91BE0B2
:1019900033463A46214638460095FFF712FF334654
:1019A0004246314638460095FFF70BFF3346424624
:1019B000214640460095FFF704FF23464246214654
:1019C00038460095FFF7FDFE00BFC7E72DE9F84F49
:1019D00006460F469046994600241FFA88F50320D4
:1019E000A0EB48000FFA80FA65E0B9F1040F20D1AE
:1019F00001207B19321B791900903019FFF7E1FEA5
:101A000001207B1B321B791B00903019FFF7D9FE98
:101A100001203B19721B391900907019FFF7D1FE94
:101A200001203B1B721B391B00907019FFF7C9FE88
:101A300027E0791930194A46FFF759FE7919301B0A
:101A40004A46FFF754FE791B30194A46FFF74FFE0E
:101A5000791B301B4A46FFF74AFE391970194A466E
:101A6000FFF745FE3919701B4A46FFF740FE391B48
:101A700070194A46FFF73BFE391B701B4A46FFF7B9
:101A800036FE601C84B2BAF1000F0EDB681E85B210
:101A9000A0000FFA80FBABEB85000FFA80FB0BF187
:101AA0000A0050440FFA80FA05E0062000EB84009B
:101AB00050440FFA80FAA54297DCBDE8F88F10B5C4
:101AC00002F0C2F810BD10B50446204601F013FF25
:101AD00010BD10B501F065FF10BD00004C4800219D
:101AE0000160017100204A49487188717047484976
:101AF0008979474A505411468979491CC9B2917174
:101B0000052901DB00219171704741484079404A25
:101B10009279904201D1002070473D4840793C4A7B
:101B2000115C10464079401CC0B25071052801DBA1
:101B3000002050710846EFE7F8B5044600BF00BF2B
:101B4000206802F04CF9001D00EB40004006060E34
:101B5000C6F18000C0F3470520682EA3012238217A
:101B60000090A81C00F098FB01203923AA1C1946FC
:101B700000900620FFF725FE0120A9190090881E7D
:101B8000392379221946FFF71CFE606850B12348BB
:101B9000007838B9852022A3012238210090002046
:101BA00000F07AFBF8BD00B502461E480260FFF760
:101BB00095FF00BD00B503461846FFF798FF00BD2E
:101BC00019480078704710B5FFF79FFF1649087055
:101BD00014480068FFF7B0FF124909688868804719
:101BE00011480078602812D10C48007878B90D4867
:101BF0000068406858B10B480068406809490860AF
:101C000000200A490968087008490968487010BD31
:101C10003C0000205B202573205D00004400002074
:101C2000256300003800002043000020BC00002095
:101C3000F0B50446059DC80800FB0320005D01F0D7
:101C40000706C6F107070126BE40304008B1012053
:101C5000F0BD0020FCE72DE9F84F07460E469346FD
:101C60009946DDE90A8A00240025464400BF21E0A8
:101C700000241BE04B465A4621462846CDF80080FA
:101C8000FFF7D6FF28B1311B78195246FFF72FFD19
:101C90000AE0BAF1000F01D1012300E000231A4647
:101CA000311B7819FFF723FD601C04B24445E1D3D2
:101CB000681C05B24D45DBD3BDE8F88F29B1012979
:101CC00002D0FE2907D101E000BF00BFFE4B0CCBC4
:101CD000C0E900237047FC4B0CCBC0E9002300BFD8
:101CE000F8E72DE9FE4F0446884615461E460120BA
:101CF000029004F0FF0B31466846FFF7DFFF9DF8C6
:101D0000000030400290A5F12000C5B29DF802000D
:101D1000401E47B233E09DF80210019805FB010018
:101D200010F807904FF0000A23E009F0800028B176
:101D300041462046029AFFF7DAFC09E0029808B90A
:101D4000012000E00020024641462046FFF7CFFC7C
:101D50004FEA49604FEA1069641CA4EB0B000828A5
:101D600003D15C4608F1010806E00AF1010000F029
:101D7000FF0ABAF1080FD8DB00BF781E47B2002F68
:101D8000C9DABDE8FE8F2DE9FC41064688461446B7
:101D90001F46002539466846FFF790FF0AE0625D5E
:101DA0003B4641463046FFF79CFF9DF80100064444
:101DB000681CC5B2605D0028F1D1BDE8FC812DE949
:101DC000FF4F9FB01D461F9800F0FF0800201C9099
:101DD00003201B9001200C90219908A8FFF76EFFAB
:101DE0000020129010904EE215F8011B4CB204B97D
:101DF0004EE2252C0BD0E2B24046DDE92013FFF77E
:101E000070FF9DF82100404400F0FF0836E20020FA
:101E10008146834600BF199015F8011B4CB2302C47
:101E200005D14FF0010915F8011B4CB20EE02D2C25
:101E300005D14FF0020915F8011B4CB206E02E2C1B
:101E400004D101201C9015F8011B4CB218E01C981D
:101E500001280BD1199800EB800004EB40003038CA
:101E6000C0B2199015F8011B4CB209E00BEB8B00C6
:101E700004EB4000303800F0FF0B15F8011B4CB2AA
:101E8000302C01DB392CE2DD1C98012806D1199891
:101E9000072801DD072000E019981B906C2C01D069
:101EA0004C2C04D149F0040915F8011B4CB204B9BB
:101EB000EEE12746612C04DB7A2C02DCA7F120003E
:101EC00047B24F2F79D008DC422F77D0432F64D010
:101ED000442F74D0462F73D174E0532F04D0552F64
:101EE0006FD0582FF7D126E12C98006813902C98CA
:101EF000001D2C904FF0000A03E00AF1010000F0F1
:101F0000FF0A139810F80A000028F6D1CDF83CA07B
:101F1000119009F00200A8B90EE020224046DDE948
:101F20002013FFF7DEFE1198401C00B211909DF8BF
:101F30002100404400F0FF085046411C01F0FF0A18
:101F40005845EADB4046DDE92013139AFFF71BFFF3
:101F50009DF821100F9801FB008000F0FF080F99F9
:101F60001198084400B211900EE020224046DDE9AD
:101F70002013FFF7B6FE1198401C00B211909DF897
:101F80002100404400F0FF085046411C01F0FF0AC8
:101F90005845EADB1198109070E12C9810F8041B5A
:101FA000CAB22C904046DDE92013FFF79AFE9DF857
:101FB0002100404400F0FF0860E1B5E0B1E0B6E088
:101FC000BCE0B5E02C98C01D20F0070001462C9025
:101FD000006849682C9A08322C92CDE90A01002247
:101FE0001346DDE90A0102F089FA0BD21B9840F092
:101FF00008001B900022354BDDE90A0102F0BAFA15
:10200000CDE90A01DDE90A0102F0F0F900B20E9013
:1020100001200C901B9800F007001A9009E00C9822
:1020200000EB8000400000B20C901A98401EC0B235
:102030001A901A98401E0028F1D50E9802F033FA33
:10204000CDE90001DDE90A2302F0C8FBCDE9040176
:102050000C9802F028FACDE90201DDE9042302F030
:1020600089FACDE9060102F0C1F900B20D9000260F
:102070001B9800F007001A901CE00D98A0B10A21EF
:102080000D9890FBF1F201FB120047B20D9890FB06
:10209000F1F000B20D9007F1300042B23046711CF1
:1020A000CEB214A90A5405E030223046711CCEB2DB
:1020B00014A90A541A98411EC9B21A910028DCD1F9
:1020C0002E223046711C03E0480000200000F0BFC3
:1020D000CEB214A90A5400BF0A210E9890FBF1F267
:1020E00001FB120047B20E9890FBF1F000B20E9087
:1020F00007F1300042B23046711CCEB214A90A5426
:102100000E9808B1102EE7D31B9800F0080028B1F4
:102110002D223146701CC6B214A8425400201C90D7
:102120006AE002201D9017E008201D9014E000BF17
:102130000A201D9010E010201D900DE0E2B24046F4
:10214000DDE92013FFF7CDFD9DF82100404400F0AC
:10215000FF080120109091E000BF09F0040028B1B1
:102160002C9800682C99091D2C910CE0442F05D166
:102170002C9800682C99091D2C9104E02C9800687B
:102180002C99091D2C911890442F08D1189800F013
:10219000004020B118984042189049F008090026E4
:1021A00000BF1D991898B0FBF1F201FB120047B275
:1021B0001D991898B0FBF1F01890092F06DD782CC6
:1021C00001D1272000E00720384447B207F1300052
:1021D00042B23046711CCEB214A90A54189808B104
:1021E000102EDED309F0080028B12D223046711CD4
:1021F000CEB214A90A5400BFB24609F0010008B1DA
:10220000302000E0202007460AE0FAB24046DDE92F
:102210002013FFF766FD9DF82100404400F0FF0801
:1022200009F0020028B95046411C01F0FF0A584548
:10223000EBDB00BF701EC0B2064614A90A5C404624
:10224000DDE92013FFF74DFD9DF82100404400F02B
:10225000FF08002EEED10AE0FAB24046DDE9201375
:10226000FFF73FFD9DF82100404400F0FF08504675
:10227000411C01F0FF0A5845EEDB00BF109912988F
:10228000084400B212901098401C00287FF4ACADB6
:1022900000BF23B0BDE8F08F0FB47CB504460D46F7
:1022A00016460AA801900198009032462946204619
:1022B000099BFFF784FD002001907CBC5DF814FBB6
:1022C0000146F84800684078081A0AD4F5480068C2
:1022D0004078081AF34A1268D278904201DC012053
:1022E00070470020FCE70146EE4800688078401AFD
:1022F000EC4A126852781044C00070472DE9F04F44
:102300008BB004460E4615464FF0000900200A9097
:1023100082460990834600BF0890B44202DA0A94CC
:1023200034460A9E102D00DD1025DE4800688470BA
:10233000A01BDC490968C870DA480068C078A84268
:1023400003DB681ED7490968C870FFF739FC82466D
:10235000BAF1500F1FD1D3480068007800280ADD79
:10236000D148007838B9CF4800680078401ECD4980
:102370000968087039E0CB4800684078002834DDEF
:10238000C948007888BBC74800684078401EC549E6
:102390000968487029E0BAF1200F26D1C1480068C9
:1023A0000078C0490968C97888420ADABE480078CE
:1023B00038B9BC4800680078401CBA490968087000
:1023C00013E0B84800684178B6480068C078281A19
:1023D000401E814209DAB448007830B9B14800683B
:1023E0004078401CAF4909684870AE4800684078A2
:1023F000AC4909680978084400F0FF0BE000A949DE
:1024000009684860F000A74909688860A548006825
:102410000179A44800680078A1EBC000C0B209901F
:102420008620A2A30122009000200999FFF734FF23
:10243000062C0FD0022000909A480068406800F1F6
:10244000080398480068406800F108017F220020D6
:10245000FFF7B7F96CB102200090924800688068DD
:10246000431E904800688068411E7F220020FFF7CD
:10247000A8F9284602F02EF8CDE906018949096835
:102480004968884A12689268891A01F1080002F0C6
:1024900021F8CDE90401DDE9062301F04FFE0746EE
:1024A00088460BF1010001F0FEFF3A464346CDE9B4
:1024B000000102F05FF8CDE904017A490968496832
:1024C000C81D02F007F8CDE90201DDE9042302F09E
:1024D00091F9CDE9060101F0B9FF0890089801F0E3
:1024E000F9FF3A464346CDE9020101F073FDCDE91B
:1024F000040101F0ABFF0790042000907F227C20B4
:10250000DDE90731FFF701FA012000906548006816
:102510004068C31D634800687F2281687C20FFF704
:10252000F4F94FF000090BE0CB4501D1012000E0A8
:1025300000205F4901F8090009F1010000F0FF09DE
:10254000A945F1DD0BB0BDE8F08FF8B504460D46A6
:10255000002600275448007800F0020000B1F8BDC2
:10256000102C00DBFBE72046FFF7AAFE012836D13E
:102570002046FFF7B8FE06464D48005D01280DD104
:10258000FFF71EFB0746402F08D14A480560002090
:10259000444909680870434909684870286846A397
:1025A0000122314600900620FFF776FE87203FA3E8
:1025B0000122314600907320FFF76EFE3948006813
:1025C00040783849096809780844A04207D1842036
:1025D00036A30122382100907A20FFF75DFE00BF6C
:1025E000BDE72DE9F04106460027002E01DB30460D
:1025F00000E070424FFA80F80024304D002714E0CC
:10260000002E08DB00222E4B2046294601F0B2FFA7
:1026100004460D4607E02B4A2B4B2046294601F085
:10262000A9FF04460D46781C07B24745E8DB204663
:102630002946BDE8F0812DE9FF4F8FB092461CAED0
:1026400096E8C00300200B900A9000210C460D462E
:1026500009900890834607900690059012480078EC
:1026600000F0020010B113B0BDE8F08F42464B46B7
:102670003046394601F042FF05D2CDE90C674646A7
:102680004F46DDE90C890F98102800DBEBE7BAF123
:10269000060F28D2DFE80AF0031A261D202320980F
:1026A000099023E0BC0000204400002025630000C6
:1026B0006012002038000020257300000000F03F69
:1026C000000024409A9999999999B93F20980890C7
:1026D0000CE02098079009E02098069006E02098EA
:1026E000059003E000BFDDF880B000BF00BF0F9889
:1026F000FFF7E6FD01287DD10F98FFF7F4FD0B9061
:10270000FA490F98085C012875D1FFF759FA0A9029
:102710000A98402805D1F648007880F00100F44975
:102720000870F348007800F00100002863D0F148F9
:1027300090F90000FFF755FF04460D460A9850280F
:102740007CD1BAF1060F7AD2DFE80AF00320943C7C
:102750005A7A099991F9000001F0A5FE22462B460C
:10276000CDE9000101F036FC32463B46CDE90201DD
:1027700001F0C4FE09D82046294601F037FE099928
:102780000978084441B20998017090E008990878E6
:1027900001F0A0FE22462B46CDE9000101F01AFC13
:1027A00032463B46CDE9020101F0A8FE09D8204699
:1027B000294601F04BFE089909780844C1B20898EF
:1027C000017074E00799086801F06DFE22462B46FF
:1027D000CDE9000101F0FEFB32463B46CDE90201A6
:1027E00001F08CFE0BD82046294601F0FFFD079929
:1027F000096801E0CFE120E101440798016056E05B
:102800000699086802F0E0F822462B46CDE900015F
:1028100001F0E0FB32463B46CDE9020101F06EFEDD
:102820000BD82046294601F0A3FB049006980168C6
:10283000049802F0F5F80699086038E038E01AE0EC
:10284000059903C922462B46CDE9000101F0C2FBE0
:1028500032463B46CDE9020101F050FE09D8059809
:1028600003C822462B46CDE9020101F0B3FB059ACD
:1028700003C21CE000BFBBF9000001F014FE2246B9
:102880002B46CDE9000101F0A5FB32463B46CDE9E0
:10289000020101F033FE09D82046294601F0A6FDC9
:1028A000BBF80010084400B2ABF8000000BFE6E03F
:1028B0000A98202879D1BAF1060F77D2DFE80AF01A
:1028C0000320913C5777099991F9000001F0EBFD45
:1028D00022462B46CDE9000101F08CFF42464B46D3
:1028E000CDE9020101F044FF09D82046294601F054
:1028F0007DFD09990978081A41B2099801708DE0A7
:102900000899087801F0E6FD22462B46CDE9000142
:1029100001F070FF42464B46CDE9020101F028FF6D
:1029200009D82046294601F091FD08990978081A2E
:10293000C1B20898017071E00799086801F0B3FD11
:1029400022462B46CDE9000101F054FF42464B469A
:10295000CDE9020101F00CFF08D82046294601F01C
:1029600045FD07990968091A0798016056E006991C
:10297000086802F029F822462B46CDE9000101F053
:1029800039FF42464B46CDE9020101F0F1FE0BD87A
:102990002046294601F0ECFA049006980168049854
:1029A00002F062FA0699086038E038E01AE005980B
:1029B00003C822462B46CDE9000101F01BFF424629
:1029C0004B46CDE9020101F0D3FE09D8059903C9B0
:1029D00022462B46CDE9020101F00CFF059A03C205
:1029E0001CE000BFBBF9000001F05DFD22462B4654
:1029F000CDE9000101F0FEFE42464B46CDE9020161
:102A000001F0B6FE09D82046294601F0EFFCBBF8DC
:102A10000010081A00B2ABF8000000BF2FE00A98BF
:102A200030280BD1334890F90000042827DA3148C8
:102A30000078401C40B22F49087020E00A98102806
:102A40001DD1BAF1040F02D0BAF1050F0CD12948FB
:102A500090F9000010F1030F11DD26480078401EA8
:102A600040B2244908700AE0224890F9000000288A
:102A700005DD20480078401E40B21E490870BAF1BA
:102A8000060F4AD2DFE80AF0030E4818223C0998E4
:102A900090F9000018A30122009044200B99FFF741
:102AA000FBFB45E00898007813A301220090442026
:102AB0000B99FFF7F1FB3BE0079800680EA301229A
:102AC000009044200B99FFF7E7FB31E00699086876
:102AD00001F07AFFCDE9020108A30122CDE900014E
:102AE00044200B99FFF7D8FB22E000006012002081
:102AF00044000020C000002025640000256600007E
:102B0000059903C9AFF20C030122CDE9000144206D
:102B10000B99FFF7C1FB0BE000BFBBF90000AFF260
:102B200028030122009044200B99FFF7B5FB00BF5A
:102B300000BFF648007800F0010088B1F4490F9812
:102B4000085C01280CD18320CDE902450490822045
:102B5000F0A3FE22009000200B99FFF79DFB08E0F8
:102B60001098AFF2AC430122009006200B99FFF7BA
:102B700093FBEA4800684078E8490968097801440D
:102B80000F98814207D18420E3A3012238210090CD
:102B90007A20FFF781FB00BF65E50FB47CB50446E2
:102BA0000025DA48007800F0020010B17CBC5DF826
:102BB00014FB102C00DBF9E72046FFF781FB01280E
:102BC0000FD12046FFF78FFB054608A8019001981A
:102BD0000090012229460620079BFFF7F0F800200D
:102BE000019000BFE2E72DE9F84304460D46164682
:102BF0000027B846B946C548007800F0020008B181
:102C0000BDE8F883102C00DBFAE72046FFF758FBFD
:102C1000012834D12046FFF766FB0746BC48005D1B
:102C2000012807D1FEF7CCFF8046B8F1400F01D153
:102C30004FF00109AFF2805301223946062000957A
:102C4000FFF72AFBB6A3012239464420FFF724FBF5
:102C5000B9F1010F02D14FF00009B047AF48006849
:102C60004078AE49096809780844A04207D1842019
:102C7000A9A30122382100907A20FFF70DFB00BFA5
:102C8000BEE72DE9F84F04460F4615461E464FF0A5
:102C90000009CA46012000FA06F89C48007800F0B6
:102CA000020008B1BDE8F88F012E01DB202E00DD07
:102CB0000126102C00DBF5E72046FFF701FB012879
:102CC0003BD12046FFF70FFB81469148005D01286C
:102CD00009D1FEF775FF8246BAF1400F03D128688B
:102CE00080EA08002860AFF23063012249460620DE
:102CF0000097FFF7D1FA286800EA080030B189A3ED
:102D0000012249464420FFF7C7FA05E087A30122C4
:102D100049464420FFF7C0FA8048006840787F4960
:102D2000096809780844A04207D184207AA30122C7
:102D3000382100907A20FFF7AFFA00BFB2E770B5F4
:102D400004460E461546284601F049F8A04205D92A
:102D500022462946304601F0AAF803E029463046CB
:102D600001F019F870BD2DE9FF4F85B081469246FC
:102D70009B46002004900027002400250026BAF17D
:102D8000290F02DA0AF1010000E029201FFA80F879
:102D9000B9F1100F02DB09B0BDE8F08F4846FFF72C
:102DA0008FFA012879D14846FFF79DFA04905848D8
:102DB00010F8090001286FD1FEF702FF0746402FE7
:102DC0002CD15C48008818BB5B48008800BB4F488A
:102DD000007800F0020058B14C48007820F0020062
:102DE0004A490870554A59465046FFF7A8FF15E072
:102DF0004648007840F002004449087029214F48B5
:102E000001F02EF85A464D494046FFF798FF05E07D
:102E10003E48007880F004003C4908703B48007848
:102E200000F00200002837D0424800884249098853
:102E3000132202FB010086B2502F40D133480078A4
:102E400000F0040050B33E48006801783C48006838
:102E5000001D50F821000178394800680278384890
:102E60000068001D50F82200007A401E814216DAE8
:102E700033480068017832480068001D50F821008E
:102E80000078401CC1B22E48006802782C480068C7
:102E9000001D50F822000170B5E0F3E1FFE71B4888
:102EA000007800F004000028F6D1234800880028AC
:102EB000F2DD21480088401E1F490880A3E0202F32
:102EC00055D11248007800F00400D8B31C480068BF
:102ED00001781B480068001D50F821000078002888
:102EE00031DD17480068017815480068001D50F86A
:102EF00021000078401EC1B21148006802781048D5
:102F00000068001D50F8220001707CE044000020A1
:102F1000601200202563256625630000BC000020A8
:102F20002D3E00005B4F4E205D0000005B4F46468B
:102F30005D000000C2000020C400002070120020CC
:102F4000B8000020FFE7FE48007800F004000028E9
:102F500059D1FC480088042855DA06F11300404591
:102F600051DAF8480088401CF64908804BE0302FC1
:102F700020D1F348007800F0040060B1F248006806
:102F80000078002807DDF04800680078401EEE4910
:102F90000968087037E0EA48007800F0040000BBD8
:102FA000EA48008800282EDDE8480088401EE749EE
:102FB000088028E0102F26D1E148007800F00400B6
:102FC00080B1E14800680178DF4800684078401E21
:102FD000814207DADC4800680078401CDA49096859
:102FE000087010E0D648007800F0040058B9D748BF
:102FF0000088122807DA701C404504DAD34800889C
:10300000401CD2490880CE48007800F00200002819
:1030100077D0FEF75EFB01203F237F220021009046
:103020000846FEF772FC012009237F221946009012
:103030000020FEF7C6FBC248007800F00400E8B3A9
:10304000C14800680178C0480068001D50F82100A0
:10305000C168BD4800680278BB480068001D50F890
:1030600022000078095C701EB94A1154B648006805
:103070000178B5480068001D50F821004068AFF69F
:10308000C8130122114600900220FFF705F9AE484F
:1030900000680178AC480068001D50F82100C16844
:1030A000A94800680278A8480068001D50F822006E
:1030B0000078085CA7A30122114600E004E000901C
:1030C0004020FFF7E9F81AE09E48008848B99F4879
:1030D000008830B9A1A3012211460220FFF7DCF8D5
:1030E0000DE09A480088401C96490988491C9DA318
:1030F0000122CDE9001011460220FFF7CDF800248F
:103100007DE07FE0002576E0D4B9CDB98F48008816
:1031100060B98C48008848B98520AFF20423FE22AC
:10312000302100900620FFF7B7F862E08520AFF26B
:1031300018230122302100900620FFF7ADF858E057
:10314000132000FB0450401E86B246454FDA7F48EC
:103150000088A84227D17B480088A04223D17C4820
:10316000805D78B989203022A2EBC40105EB4502CD
:103170000623009003EB4200AFF26423FE22FFF728
:103180008BF836E07248805D3022A2EBC40105EB7B
:1031900045020623009003EB4200AFF28423FE2297
:1031A000FFF77AF825E06A48805D78B989203022F7
:1031B000A2EBC40105EB45020623009003EB42009D
:1031C000AFF2AC230122FFF767F812E06048805DA0
:1031D0003022A2EBC40105EB45020623009003EB6D
:1031E0004200AFF2CC230122FFF756F801E0082499
:1031F0001525681C85B2132D86DB601C84B2052C56
:1032000080DB2DE00698AFF65033012200900620B7
:103210000499FFF741F85A4602A90720FFF78FFDEE
:1032200002A8AFF66C330122009044200499FFF706
:1032300033F8584600F0D3FD072808D98920AFF2AB
:103240002833012200906D200499FFF725F888208B
:10325000AFF23C330122009073200499FFF71CF871
:10326000434800684078424909680978084448455D
:1032700008D18420AFF260330122382100907A20F7
:10328000FFF70AF800BF86E50FB47CB504460D468B
:1032900016462B48007800F0020010B17CBC5DF8A7
:1032A00014FB0AA801900198009032462946204656
:1032B000099BFEF784FD0020019000BFEEE72DE999
:1032C000F04F87B005460C4691461E46DDF84CB0DF
:1032D000DDF844A00020059000BF04901848007855
:1032E00000F0020010B107B0BDE8F08F1098504513
:1032F00005DA10980590CDF840A0DDF814A01099DB
:103300001298884201DA129800E0109812901298F0
:10331000504501DD129800E0504612901099A1EB43
:103320000A0001F0C0F8CDE902011299A1EB0A00F0
:1033300001F0B9F8CDE90001DDE902231AE000004F
:1033400044000020C4000020B8000020C20000207B
:10335000701200205B202563205D00004241434B3A
:10336000000000004C3A256420433A256400000028
:10337000BC00002000F0E2FE074688460BF001008A
:10338000002843D1484601F0A5F83A464346CDE926
:10339000000101F0EFF8CDE9020101F057F80490C7
:1033A0000BF0060090B90120A31905EB0902214694
:1033B00000902846FEF7A9FA0420A319009004986B
:1033C0002A1821462846FEF7A0FA63E00BF0060013
:1033D00002285FD10120A31905EB090221460090C4
:1033E0002846FEF792FA0120A319009004982A18A3
:1033F00021462846FEF789FA0020A31905EB0902A9
:10340000A11900902846FEF7DCF943E0304601F0B0
:1034100061F83A464346CDE9000101F0ABF8CDE949
:10342000020101F013F804900BF0060098B9012096
:10343000A31905EB0902214600902846FEF765FA1C
:10344000042000900498231805EB09022146284621
:10345000FEF75BFA1EE00BF0060002281AD10120ED
:10346000A31905EB0902214600902846FEF74DFA04
:10347000012000900498231805EB090221462846F4
:10348000FEF743FA0020A3192A4621460090284659
:10349000FEF797F900BF26E72DE9FF4F91B00646EA
:1034A0000D469146DDE91EA400200F900E9000BF4E
:1034B00000BF00210A910B91099608950790834659
:1034C00006900590B448007800F0020010B115B0E5
:1034D000BDE8F08FA24503DACDF83CA0A2460F9CD0
:1034E000484600F0F7FFCDE90201209800F0F2FF16
:1034F000CDE90001DDE9022300F020FECDE90C0159
:10350000AAEB040000F0CFFFCDE90201149800F00F
:10351000E1FFCDE90001DDE9022300F00FFE0746DF
:10352000884600200E903CE00AA80FC800F052FD2B
:10353000CDE90A01DDE90A0100F058FF219951F8AF
:1035400020B00E9830440690A34512DBD34510DA24
:10355000ABEB040000F0A7FF3A464346CDE900017B
:1035600001F008F8CDE9020100F070FF2844059051
:1035700007E0A34501DA059503E014982844401EAE
:10358000059001200090DDE90532DDE90810FEF725
:1035900018F906980990059808900E98401C80B27A
:1035A0000E900E984845BFD30120009014982844EF
:1035B000431E06EB0900421E29463046FEF7A5F9D8
:1035C000002C13DA604200F06EFF3A464346CDE924
:1035D000000100F0CFFFCDE9020100F037FF2844E1
:1035E00007900122701C0799FEF781F800BF6EE773
:1035F0002DE9FF4705460E4617469846DDE90C9A29
:103600000E9C6548007800F0020008B1BDE8FF8715
:103610002188606843463A46CDE9009ACDE9021018
:1036200031462846FFF738FF00BFEFE730B50A46BE
:103630000023012100BF00BF09E0446854F8214085
:10364000456845F823405C1CA3B24C1CA1B2048819
:103650008C42F2DC0488641E456845F8242030BDA5
:103660002DE9F04F89B080468A4615461C46DDE9B3
:1036700013B90020089007900690059000260027B7
:103680000AEB04000490002003904348007800F007
:10369000020010B109B0BDE8F08F0121159821EAB0
:1036A000D01003905D450BD34C4509D303985B467E
:1036B000CDE9009051464046129AFEF7CCFA58E008
:1036C000284601F0F1FA0290584601F0EDFA019017
:1036D000029901F007FA0890204601F0E5FA0290FD
:1036E000484601F0E1FA0190029901F0FBF90790D8
:1036F00000273CE0384601F0D7FA0190089901F024
:10370000E7FA029001F0B0FA80B2069000262AE0B3
:10371000304601F0C9FA0190079901F0D9FA0290F8
:1037200001F0A2FA80B205905B46CDF80090129AA3
:10373000DDE90510FEF77CFA38B1049A911B08EB1D
:103740000700039AFDF7D3FF0BE0039B0BB901239E
:1037500000E000231A46049B991B08EB0700FDF7C5
:10376000C6FF701C86B2A642D2D3781C87B2AF4285
:10377000C0D3159800F0400058B1012000900AEB2A
:103780000400431E08EB0500421E51464046FEF76A
:10379000BCF800BF7EE700004400002010B5022204
:1037A00006210020FEF7AAFDF9490020FEF7CDFE14
:1037B000F8490120FEF7C9FE10BD00B585B0F6A39B
:1037C000012230210020FFF75FFDF6480021029121
:1037D000CDE90310F4480222CDE90010F3A1002046
:1037E000FEF729FF05B000BD00B585B00422062113
:1037F0000020FEF783FDEF4800210490EE48CDE95C
:103800000210EE480222CDE90010EDA10020FEF7E3
:1038100012FFED4804900020E749CDE9020101467E
:10382000E6480222CDE90010E8A10120FEF703FFDF
:10383000E84800210490E048CDE90210DF48022268
:10384000CDE90010E4A11046FEF7F5FEE4480021A2
:103850000490D948CDE90210D8480222CDE90010E1
:10386000E0A10320FEF7E7FE05B000BD10B5012280
:1038700006210020FEF742FDDCA10020FFF78DF9B4
:1038800010BD70B504460E4626B18021D948FDF71B
:1038900004F903E08021D748FDF701F94021D5481C
:1038A000FDF7FDF800251BE04FF48061D148FDF7DE
:1038B000F6F804F0800028B14FF40071CD48FDF710
:1038C000ECF804E04FF40071CA48FDF7E8F84FF453
:1038D0008061C848FDF7E1F86006040E681CC5B2B7
:1038E000082DE1DB4021C348FDF7D7F88021C1480E
:1038F000FDF7D3F870BD70B5064600241BE004F157
:10390000B001C8B20021FFF7BCFF00210846FFF755
:10391000B8FF00211020FFF7B4FF002507E006EBF9
:10392000C501085D0121FFF7ACFF681CC5B2802D01
:10393000F5DB601CC4B2082CE1DB70BD70B5044639
:103940000D4605F1B001C8B20021FFF79AFF102122
:1039500041EA14100021FFF794FF04F00F0141F039
:1039600001000021FFF78DFF70BD10B500218D20F3
:10397000FFF787FF00211420FFF783FF0021AF200E
:10398000FFF77FFF10BD10B500218D20FFF779FFF5
:1039900000211020FFF775FF0021AE20FFF771FF17
:1039A00010BD70B5002419E004F1B001C8B20021C7
:1039B000FFF767FF00210846FFF763FF0021102093
:1039C000FFF75FFF002505E001210020FFF759FF09
:1039D000681CC5B2802DF7DB601CC4B2082CE3DB89
:1039E00070BD2DE9F04107460E46904600250024A3
:1039F000A8F12000C5B27F2F02DD0027B01CC6B29F
:103A000031463846FFF79AFF002408E004EB051121
:103A1000794A505C0121FFF734FF601CC4B2082CC6
:103A2000F4DB701CC1B23846FFF788FF002409E0C0
:103A300004EB05110831704A505C0121FFF721FFAA
:103A4000601CC4B2082CF3DBBDE8F08110B502465F
:103A5000012000E050430B1EA1F10104E1B2F9D1B5
:103A600010BD2DE9FF5F074691461D460E9E4FF0A3
:103A7000000A002433E0281B401EC1B20A20FFF7D1
:103A8000E5FFB9FBF0F00A21B0FBF1F201FB1208EF
:103A9000BAF1000F13D1681EA04210DDB8F1000F7B
:103AA0000BD1B34606EBDB71491001FB0471C8B2C0
:103AB00020220199FFF795FF0FE04FF0010AB3466E
:103AC00006EBDB71491001FB0471C8B208F130014B
:103AD000CAB20199FFF785FF00BF601CC4B2AC42B7
:103AE000C9DBBDE8FF9F2DE9F04104460F461546AE
:103AF00000260EE0AA5D39462046FFF772FF04F16A
:103B00000800C4B2782C02DD0024B81CC7B2701CB7
:103B1000C6B2A85D0028EDD1BDE8F0812DE9F047DF
:103B200081460F4690461D46002415E03819C1B263
:103B30004846FFF703FF00260AE005FB08412F4A2D
:103B400002EB4111885D0121FFF79BFE701CC6B29C
:103B5000102EF2DB601CC4B2AC42E7DBBDE8F0879C
:103B60002DE9F05F06460F4690461C46DDF828A07A
:103B70004FF0000BE11704EB5171C910A4EBC10128
:103B8000F1BB2046E11704EB5171C1F3C7053FE0DB
:103B9000580D0020740D002041696D20536574207C
:103BA0003A000000540D002000806640416E676CB2
:103BB00065000000640D002000606DC000606D4075
:103BC00073706565645F3100680D00207370656512
:103BD000645F32006C0D002073706565645F3300B4
:103BE000700D002073706565645F34005049442097
:103BF000583A0000001C014043550008880200208C
:103C0000FFE72046E11704EB5171C910491CCDB202
:103C10003D4615E029463046FFF790FEB1460BE0E1
:103C200059460BF1010B1AF801000121FFF729FE9B
:103C300009F1010000F0FF09C145F1DB681CC5B2C4
:103C4000A542E7DBBDE8F09F08B501218020FDF724
:103C500033F94FF4F860ADF8000010208DF8030040
:103C600003208DF8020069464948FCF769FE4FF4CD
:103C700080714748FCF711FF6420FCF708FD4FF402
:103C800080714348FCF70BFFC820FCF700FD4FF4A0
:103C900080713F48FCF701FF0021AE20FFF7F1FDE6
:103CA00000210846FFF7EDFD00211020FFF7E9FD98
:103CB00000214020FFF7E5FD00218120FFF7E1FD15
:103CC0000021CF20FFF7DDFD0021A120FFF7D9FD66
:103CD0000021C820FFF7D5FD0021A620FFF7D1FD68
:103CE0000021A820FFF7CDFD00213F20FFF7C9FDEF
:103CF0000021D320FFF7C5FD00210846FFF7C1FDD5
:103D00000021D520FFF7BDFD00218020FFF7B9FD80
:103D10000021D920FFF7B5FD0021F120FFF7B1FD0B
:103D20000021DA20FFF7ADFD00211220FFF7A9FDE9
:103D30000021DB20FFF7A5FD00214020FFF7A1FDBA
:103D400000212020FFF79DFD00210220FFF799FDB3
:103D500000218D20FFF795FD00211420FFF791FD34
:103D60000021A420FFF78DFD0021A620FFF789FD8B
:103D70000021AF20FFF785FD0021AF20FFF781FD77
:103D8000FFF70FFE00210846FFF7D8FD08BD000031
:103D9000001C0140704740EA0103024630B59B0712
:103DA00010D14FF0013400E008C208C91D1B9D432B
:103DB00015EAC41FF8D013F0FF0102F8011B0DD063
:103DC0001B0AF8E711F8013B002B02F8013B05D074
:103DD00011F8013B002B02F8013BF3D130BD10B5C7
:103DE000431C02E010F8011B71B18107FAD14FF0BA
:103DF000013202C88C1A8C4314EAC211F9D0C01ADD
:103E00000A0603D0C01E10BDC01A10BD0A0401D09E
:103E1000801E10BD0902FCD0401E10BD4FF00002F4
:103E20000429C0F0128010F0030C00F01B80CCF1CC
:103E3000040CBCF1020F18BF00F8012BA8BF20F83A
:103E4000022BA1EB0C0100F00DB85FEAC17C24BF8E
:103E500000F8012B00F8012B48BF00F8012B704738
:103E60004FF0000200B5134694469646203922BF13
:103E7000A0E80C50A0E80C50B1F12001BFF4F7AF5E
:103E8000090728BFA0E80C5048BF0CC05DF804EB40
:103E9000890028BF40F8042B08BF704748BF20F8AE
:103EA000022B11F0804F18BF00F8012B704710B59E
:103EB000044610F0030F08BF11F0030F40F0158007
:103EC0004FF0013E121FC0F20E8051F8043BA3EBED
:103ED0000E0C2CEA030C1CEACE1C08BF40F8043B75
:103EE000F0D0A1F1040102F10402521E08DB11F826
:103EF000013B002B00F8013BF7D11146FFF78EFF85
:103F0000204610BD7047704770477047754600F0F7
:103F10002BF8AE4605006946534620F0070085465B
:103F200018B020B5FCF79AFCBDE820404FF0000621
:103F30004FF000074FF000084FF0000B21F0070191
:103F4000AC46ACE8C009ACE8C009ACE8C009ACE8D4
:103F5000C0098D46704710B50446AFF30080204677
:103F6000BDE81040FCF74BB9004870479C12002098
:103F700021F00042A2F16052B2F5801F01F000432F
:103F800028BFD2F17F6C0BD95FEA001C43EAC20262
:103F900042EB507018BF704728BF20F001007047F7
:103FA000B2F5801FBCBF184670474FEA410C1CF5A4
:103FB000001F02D2084600F052BF70B500F084FB2B
:103FC00000000089FFF7F6BF4FF00040A0F5800029
:103FD0007047000010B591EA030F48BF83F000431B
:103FE00000F11084841A71EB030C05D2121943EB13
:103FF0000C03001B61EB0C01DFF824E14FEA1154C4
:10400000A4EB135C1EEA430F18BF9EEA445F73D013
:1040100023EA0E03DCF1200E21EA045143F480135D
:1040200032D322FA0CFE10EB0E0023FA0CFE41EB09
:104030000E01CCF1200E03FA0EFE10EB0E0051F132
:104040000001B1F5801FCCF1200E32D201EB0451FA
:1040500012FA0EF2BDE8104058BF7047401C38BF3E
:104060005FEA420218BF7047002814BF20F0010029
:1040700041F100014FEA410313F5001F38BF7047BB
:10408000A1F1C04100F06EBB012A43EB0302ACF189
:10409000200CDCF11F0E32BF4FF0000E23FA0CF3A0
:1040A00010EB030041EB0451B4EB115FD0D0A1EB56
:1040B000045101F5801149085FEA300001EB045119
:1040C0000ED350F1000038BF12FA0EFE08D1BDE841
:1040D0001040C9E7401C38BF5FEA4202CAD1C3E7BB
:1040E000BDE810404FEA410313F5001F38BF704789
:1040F000A1F1C04100F036BB9EEA445F08D011EA4E
:104100005E0FBDE8104004BF01F000410020704781
:10411000BDE8104070B500F0D7FA00BF64FBBE3EAA
:104120000000E0FF491058BFC1F140415B1058BF8B
:10413000C3F140438B42EFF3008070472DE9C0414B
:1041400030B4DFF8A0C23CEA111418BF3CEA1314E3
:1041500000F0EC8081EA03051CEA111444EAD574EE
:1041600018BF1CEA131500F0C780A4EB05044FF03C
:10417000004545EAC12145EAC32341EA505143EADB
:10418000525304F17F74994204F500344FEAC02081
:104190004FEAC22208BF904200F09C804FEA1365AC
:1041A0000FF24016765D4FEA134506FB05F7C7F19F
:1041B000807706FB07F74FEAD737A7FB03687642FD
:1041C000C8F58038A7FB06CE38BFA8F1010807FB69
:1041D00008E64FF0000EA6FB028CE6FB03CEDCF1F6
:1041E000000CCEF1004E38BFAEF1010EA6FB0C580C
:1041F0004FF000074FF00005E6FB0E87A1FB08C655
:10420000A0FB07CE16EB0E0645F10005E1FB0765A6
:1042100015F1E04E7EBFA4F580345FEA46066D419D
:1042200016F1800745F100054FEA17274FEA0666A9
:1042300047EA0567A6F1DE46B6F1805F4FEA15252D
:104240001FD9384624F0010C05EBC471BCF1FE6F98
:1042500001EB0C1102D8F0BCBDE8008124425CBF28
:1042600001F5801E9EEAC47F02D4F0BCBDE8008147
:10427000244238D4F0BCA1F1C041BDE8004100F0B7
:1042800071BA4FEAD22242EA43524FEAD323A7FB44
:1042900002864FEAD02040EA415007FB03661EEA3F
:1042A0000E0F4FEAD12105FB026658BFA6EB005660
:1042B000B6EB00564FEA520E4EEAC37E18EB0E0ED6
:1042C00056EB530EBDD518EB02085E417F1C55F12D
:1042D0000005B6E74FF480154FF000074FF00006D9
:1042E0004FF00008ADE7F0BC4FF0000001F1C04115
:1042F00001F00041BDE8008111EA0C1F0CEA131522
:1043000000D00CE013EA0C1F00F025804FF00000F5
:10431000F0BC81EA030101F00041BDE80081F0BC7E
:10432000BDE8004181EA030100F01CBAF0BCBDE821
:10433000004170B500F0C8F9097EFC3E00F007B8F6
:1043400081EA03014FF0000001F00041704781EA6B
:10435000030100F007BAF0BCBDE800414FF00000D7
:1043600021497047FFFDFBF9F7F5F4F2F0EEEDEBB4
:10437000E9E8E6E4E3E1E0DEDDDBDAD8D7D5D4D363
:10438000D1D0CFCDCCCBCAC8C7C6C5C4C2C1C0BFAF
:10439000BEBDBCBBBAB9B8B7B6B5B4B3B2B1B0AFB5
:1043A000AEADACABAAA9A8A8A7A6A5A4A3A3A2A199
:1043B000A09F9F9E9D9C9C9B9A9999989797969554
:1043C00095949393929191908F8F8E8E8D8C8C8BF0
:1043D0008B8A898988888787868585848483838278
:1043E000828181800000FF070000F87F4FEA4103CF
:1043F0004FEA5353A3F58063D3F11E03C8BFD3F133
:10440000210C0CDD4FF0004242EAC12242EA505238
:1044100032FA03FC8CEAE17CACEBE1707047102BC4
:10442000C4BF0020704703F5787CBCF1FF3F04D087
:104430006FF0004282EA2100704770B500F044F945
:104440004992248000207047F2E700004FEA1153A0
:10445000A3F58063D3F11E03A8BFD3F1200C08DBC2
:104460004FF0004242EAC12252EA505232FA03F0BF
:10447000704709420BD4102BC4BF0020704703F5CE
:10448000787CBCF1FF3F05D04FF0FF3070474FF014
:104490000000704770B500F017F900BF4992248002
:1044A00000207047F0E710F0004248BF4042B0FAE9
:1044B00080F310FA03F10AD0C3F11D0303F5806302
:1044C0004FEA415002EB035202EBD12170474FF00B
:1044D00000007047B0FA80F310FA03F10AD0C3F17C
:1044E0001D0303F580634FEA41504FEA035202EB8C
:1044F000D12170474FF000007047000051EA030CD3
:1045000017D41CF5801F58BFBCF5801F00F1068032
:10451000994218BF704708BF9042704707D711F5FE
:10452000801F58BF13F5801F19D4994270478942E4
:1045300070471CF5801F08D5BCF5801FF7D58B424E
:1045400018BF704708BF824270474FF4001C1CEB35
:10455000410F38BF1CEB430F01D28B42704770B53F
:1045600000F0B2F8922449004FF000514FF0805310
:10457000FFF7D8BDDFF848C170B51CEA111E1EBF99
:104580001CEA13159EEA0C0F95EA0C0F00F06F80E1
:1045900081EA030423EA4C134EEAD47E21EA4C114B
:1045A00041F4801143F48013AE44A1FB024CA0FB04
:1045B0000365AEF17F7E361955EB0C05A1FB034C6C
:1045C0004CF10003A0FB021C16EB0C06654153F1F5
:1045D0000003094218BF46F0010613F4007F0BD117
:1045E0004FEA03314FEA0530340341EA155140EAFE
:1045F00016506FF003020AE04FEAC3214FEAC520CC
:10460000F40241EA555140EA56506FF0020202EBC3
:104610002E4201EB025585EACE710AD05FEA440CC6
:1046200018BF24F0004450F1000041F1000120EADD
:10463000D47040F2FE7C624500D270BDA84214BF27
:104640004FF080444FF04044002E08BF0024BEF1DC
:10465000806FA8BFA1F1C041BDE8704080F28280A8
:104660004FF0000001F1C04101F0004170479EEAA7
:104670000C0F0CEA131518BF95EA0C0F06D04FF07B
:10468000000081EA030E0EF0004170BD00F01CF83E
:104690008900013E00F007B800F009B84FEA430C6A
:1046A0005FEA5C5C08D081EA030100F05BB84FEA86
:1046B000410C5FEA5C5CF6D14FF0000001497047A5
:1046C0000000FF070000F87F0EF1020E2EF0030E2F
:1046D0005EF8046B364205D4012A43EB030515F559
:1046E000001F12D8012841EB010C1CF5001F0CD84B
:1046F0000ED14FEAD17C15F5001F0CEB4C0C0CF1E0
:10470000020C08BF4CEBD37C04E04FF0080C01E036
:104710004FEAD37C0CEB4C0526FA05F606F00706AB
:10472000B6F1040C06D20EEB860CBDE870404CF0DE
:10473000010C6047DFE80CF0090B02024FF000416A
:104740004FF00000A1F5002170BD19461046012868
:1047500051EB010418BFD4F5001484BF002001F010
:10476000004170BD0808A0F500114FEA3101704703
:1047700053EA010C17D41CF5801F58BFBCF5801FED
:1047800000F106808B4218BF704708BF8242704715
:1047900007D713F5801F58BF11F5801F19D48B421E
:1047A00070479B4270471CF5801F08D5BCF5801FE1
:1047B000F7D5994218BF704708BF904270474FF431
:1047C000001C1CEB430F38BF1CEB410F01D2994278
:1047D00070470FB40CBC03BCFFF7C1BE91EA030FD6
:1047E00010B581F000413FF5FDAB83F0004300F0D0
:1047F00009B8000010B591EA030F48BF83F00043E9
:104800003FF5F0AB841A71EB030C07D212198CF050
:10481000004C43EB0C03001B61EB0C01DFF8A4E13F
:104820004FEA1154A4EB135C1EEA430F18BF9EEA33
:10483000445F00F0B08023EA6E03524221EA045143
:10484000C3EB6E0338BF5B1EDCF1200E25D322FACA
:104850000CFE10EB0E0043FA0CFE41EB0E01CCF106
:10486000200E03FA0EFE10EB0E0051F10001CCF108
:10487000200E29D412FA0EF201EB0451BDE81040CB
:1048800058BF7047401C1CBFB2F1004F7047002852
:104890000CBF491C20F00100704712EB020E43EBE5
:1048A000030218BF4FF0010E4EEA4202ACF1200C99
:1048B000DCF11E0E54D943FA0CFE10EB0E0051F140
:1048C000FF31CCF11E0ED5D50EF1010E12FA0EFEFF
:1048D000404141EB010101EB445C5FEA5C5C10D9B3
:1048E00010EBDE7001EB045138BFBEF1004FBDE8A4
:1048F000104018BF704700280CBF491C20F0010071
:10490000704730D24FEAD42C11F5001124F4006422
:104910001BD0B1FA81F20B3AA41AA41ED2F12003E3
:10492000914030FA03F31943904001EBCC71002C15
:1049300001EB0451BDE81040A8BF704701F1C04130
:104940004FF0000001F000417047B0FA80F310FA18
:1049500003F100D110BDE41A173C4805C90AE4E789
:1049600001EB045110BD491001EB0451BDE81040AA
:104970004FEA300002E04FF0000170474A0008BFE4
:104980000042F8D0B2F5001F28BF704701F0004187
:104990004FF0000070479EEA445F07D011EA5E0FB7
:1049A000BDE8104004BF002100207047BDE8104062
:1049B00070B5FFF789FE00BF40DFF63E83F000418F
:1049C000104670470000E0FF43004FEAD30C4FEA67
:1049D0003C0C43401FBF40070CF1605113F0FE4FE9
:1049E00070471CF0006F03D100200CF000417047AD
:1049F0000CF0004343EA507010B540EACC0000F0E0
:104A0000E8F900BF000000924FEA0001FFF7AABEDC
:104A10004FF000414FF00000A1F500217047000069
:104A200090EA010F48BF81F0004100F12E82421A46
:104A30003CBF801A89184FEAD0524FF07F4C1CEAD5
:104A4000410FA2EBD15318BF9CEA026F00F03B80EC
:104A50004FF0004C4CEA00204CEA012121FA03FC03
:104A600010EB0C0C1ED202F1FF325FEA1C2040EB6F
:104A7000C25038BF70471CF07F0F4FEA400C18BF80
:104A8000BCF17F4F38BF7047C3F12003994008BF86
:104A900020F00100BCF17F4F38BF7047A0F1C0404B
:104AA00000F0DDB94FEA3C00000A40EBC25028BFDD
:104AB0001CF0FF0F4FEA400CE6D018BFBCF17F4F4F
:104AC00038BF7047EAE79CEA026F05D010EA5C0F36
:104AD00008BF00F00040704710B500F07AF900BF41
:104AE00064FBBE3E4FF47F0C1CEAD0121EBF1CEAD2
:104AF000D11392EA0C0F93EA0C0F00F0858090EA34
:104B0000010F48BF42F4807240F4000C41F40000F1
:104B10002CF07F4120F07F4000B58142A2EB0302E0
:104B20000FF2081CACEB504EC0F100009EF800E004
:104B30004FEA4E0E00FB0EFC38BF49004FEA2C1C1A
:104B400002F5FA020CFB0EF34FEACE1E4FEA112CCF
:104B50004FEAC1210EEB635E42EB22420EFB0CFCDE
:104B60004FEA1C5300FB03114FEA112C4FEA0131AD
:104B70000EFB0CFC4FEADC4C00FB0C11C14228BFC1
:104B800009184CEB03335DF804EB10EB410143EBE8
:104B9000C250B2F57C0F38BF704729D512F0F00F24
:104BA0001CBF00F1C04000F00040704700818283CC
:104BB0008485868788898B8C8D8E8F91929395962C
:104BC00097999A9C9D9FA0A2A3A5A7A8AAACAEB0B6
:104BD000B2B3B5B7B9BCBEC0C2C5C7C9CCCED1D4BB
:104BE000D7D9DCDFE2E6E9ECF0F3F7FAFE000000EB
:104BF0004FEA400C0CF1807CBCF17E4F28BF70471F
:104C0000B0F1C04000F02BB990EA010F0CEAD113CB
:104C100048BF42F48072624538BF634507D213F43F
:104C20007F0F16D080EA010000F00040704710B5F9
:104C300000F0CFF8097EFC3E00F005B880EA0100E4
:104C400000F00040704780EA010000F0004000F0F2
:104C500006B912F47F0F04BF0248704780EA0100D2
:104C600000F0FDB80000C07FC10DD1F19E0206DB4F
:104C70004FEA002343F0004323FA02F0704700425A
:104C800007D54FEA4001B1F1FE4F02D24FF00000CC
:104C9000704710B500F09DF84992248000207047BD
:104CA0006FEA200070470000B0FA80F310FA03F2B8
:104CB000C3F19D030AD0D90501EB1220530638BF7A
:104CC000704700F1010008BF20F0010070470000AC
:104CD0004FF47F0C1CEAD0121EBF1CEAD11392EADB
:104CE0000C0F93EA0C0F00F0478090EA010F48BFC9
:104CF00042F480724FF0004C4CEA00204CEA012153
:104D000002EB0302A0FB0113A2F50002002918BF69
:104D100043F001035B0028BF4FEA330342EB22421A
:104D20005FEA132C4CEBC2502EBFBCEB436FB2F5C5
:104D30007C0F70474FEA036CBCF1004F08BF20F0B6
:104D40000100B2F57C0F38BF70470BD582F0FF022F
:104D500012F5803FC8BF704700F1C040D8BF00F0D7
:104D60000040704700F5000C5FEA4C0C48BF7047EC
:104D7000B0F1C04000F073B890EA010F0CEAD11313
:104D800048BF42F48072624538BF634504D280EA6E
:104D9000010000F00040704710B500F01AF800BFA5
:104DA0008900013E00F007B800F009B85FEA410C45
:104DB0005FEA1C6C08D080EA010000F050B85FEA9E
:104DC000400C5FEA1C6CF6D14FF00040A0F580006B
:104DD00070470EF1020E2EF0030E5EF8044B2442D3
:104DE00004D44FEA4102B2F17F4F11D84FEA400399
:104DF000B3F17F4F0CD80ED14FEAD07CB2F17F4F88
:104E00000CEB4C0C0CF1020C08BF4CEBD17C04E019
:104E10004FF0080C01E04FEAD17C0CEB4C0324FA74
:104E200003F404F00704B4F1040C06D20EEB840C76
:104E3000BDE810404CF0010C6047DFE80CF00708BB
:104E400002024FF00040A0F5800010BD084642006D
:104E500018BFD2F1807288BF00F0004010BDFF2162
:104E600041EAD050C005704780F0004090EA010F41
:104E70007FF5DDAD81F0004100F007B890EA010F49
:104E800048BF81F000413FF5D2AD421A04D882F00C
:104E90000042A0EB020011444FEAD0524FF07F4C89
:104EA0001CEA410FA2EBD15318BF9CEA026F4AD013
:104EB0004FF0004C4CEA00204CEA012121FA03FC9F
:104EC000B0EB0C0C0FD412F0FE0F36D05FEA4C00A2
:104ED0001DD5001240EBC25038BF70471CF03F0F89
:104EE00018BF70470BE0A2F101025FEA1C2040EB03
:104EF000C25038BF70471CF07F0F18BF7047C3F116
:104F00002003994014BF401E20F001007047800824
:104F10004FEA122308BF7047B0FA80FCA2EB0C02E4
:104F2000CCF1280C60FA0CF093EA122F04BF00EBCE
:104F3000C25070474FEAC3707047130A5FEADC1033
:104F400008BF7047F6E79CEA026F04D010EA5C0FD6
:104F500008BF0020704710B5FFF73BFF40DFF63E6B
:104F600081F0004070476162636465666768696AE2
:104F70006B6C6D6E6F707172737475767778797A09
:104F8000004142434445464748494A4B4C4D4E4FE9
:104F9000505152535455565758595A0030313233A4
:104FA0003435363738392B2D2A2F3D2528295B5D9E
:104FB0007B7D3C3E267C7E5E00202E2C3A3B5F3F74
:104FC0002140232427225C00000A0D00000000007D
:104FD0000000008080808080008000A0A0A00000F1
:104FE0000000005050F850F85050002078A0702871
:104FF000F02000C0C81020409818006090A040A881
:10500000906800C040800000000000204080808048
:105010004020008040202020408000005020F820C8
:10502000500000002020F8202000000000000000B8
:10503000C04080000000F8000000000000000000F8
:10504000C0C0000008102040800000708898A8C8E8
:105050008870002060202020207000708808304078
:1050600080F800708808300888700010305090F880
:10507000101000F880F00808887000304080F08838
:10508000887000F8081020404040007088887088C0
:10509000887000708888780810600000C0C000C068
:1050A000C000000000C0C000C04080102040804010
:1050B0002010000000F800F80000008040201020C0
:1050C000408000708808102000200070880868A8C0
:1050D000A87000708888F888888800F08888F08830
:1050E00088F0007088808080887000E090888888D0
:1050F00090E000F88080F08080F800F88080F080F8
:105100008080007088808098887800888888F888F7
:10511000888800E04040404040E000381010101007
:105120009060008890A0C0A09088008080808080DF
:1051300080F80088D8A8A8888888008888C8A89897
:105140008888007088888888887000F08888F08057
:1051500080800070888888A8906800F08888F0A017
:105160009088007088807008887000F820202020C7
:1051700020200088888888888870008888888888A7
:10518000502000888888A8A8A850008888502050FF
:105190008888008888502020202000F808102040AF
:1051A00080F800E08080808080E000008040201057
:1051B000080000E02020202020E00020508800008F
:1051C000000000000000000000F800804020000007
:1051D00000000000007008788878008080B0C888DF
:1051E00088F000000060908090600008086898884F
:1051F00088780000007088F8807000205040E040FF
:1052000040400000007888887808708080B0C888A6
:10521000888800400040404040400020006020203E
:105220002020C0808090A0C0A09000C0404040409E
:1052300040E0000000D0A8A88888000000B0D0900E
:1052400090900000006090909060000000E09090CE
:10525000E08080000070909070101000005060405E
:10526000404000000070806010E0004040E040409E
:105270004060000000909090907000000088888846
:1052800050200000008888A8A85000000088502006
:1052900050880000009090907010600000F810207E
:1052A00040F8002040408040402000202020202066
:1052B0002020008040402040408000689000000096
:1052C000000000FCFCFCFCFCFCFC00002070A820A2
:1052D000200000002020A87020000000102078206E
:1052E00010000000201078102000000050487C08BA
:1052F000100000002040F84828000000E0F0F8F01E
:10530000E000000010181C18100000008040204031
:10531000803C00000000000000A800000000000029
:10532000000000002F000000000700070000147FAD
:10533000147F1400242A7F2A1200626408132300B9
:10534000364955225000000503000000001C224190
:1053500000000041221C000014083E081400080848
:105360003E0808000000A0600000080808080800C7
:105370000060600000002010080402003E51494512
:105380003E0000427F4000004261514946002141F9
:10539000454B31001814127F100027454545390050
:1053A0003C4A494930000171090503003649494921
:1053B0003600064949291E00003636000000005616
:1053C00036000000081422410000141414141400C4
:1053D00000412214080002015109060032495951C6
:1053E0003E007C1211127C007F49494936003E4143
:1053F000414122007F4141221C007F49494941002F
:105400007F09090901003E4149497A007F080808DF
:105410007F0000417F4100002040413F01007F08A4
:10542000142241007F40404040007F020C027F0078
:105430007F0408107F003E4141413E007F09090979
:1054400006003E4151215E007F0919294600464968
:105450004949310001017F0101003F4040403F00C8
:105460001F2040201F003F4038403F0063140814B5
:105470006300070870080700615149454300007F39
:1054800041410000552A552A55000041417F000046
:1054900004020102040040404040400000010204B8
:1054A00000002054545478007F4844443800384465
:1054B00044442000384444487F0038545454180071
:1054C000087E0901020018A4A4A47C007F0804043B
:1054D000780000447D4000004080847D00007F1003
:1054E0002844000000417F4000007C04180478003C
:1054F0007C0804047800384444443800FC24242404
:10550000180018242418FC007C08040408004854DF
:1055100054542000043F444020003C4040207C0084
:105520001C2040201C003C4030403C0044281028F7
:1055300044001CA0A0A07C004464544C44141414E7
:10554000141414000000000000000000000000001F
:10555000000000000000F8000000000000003330F0
:1055600000000000100C06100C06000000000000F7
:1055700000000040C07840C0784000043F04043F71
:10558000040400007088FC08300000001820FF218F
:105590001E0000F008F000E018000000211C031EAF
:1055A000211E0000F00888700000001E212324192D
:1055B00027211010160E000000000000000000005F
:1055C000000000000000E0180402000000000718BE
:1055D00020400000020418E00000000040201807EE
:1055E000000000404080F0804040000202010F01B6
:1055F000020200000000F0000000000101011F0194
:10560000010100000000000000000080B0700000F8
:105610000000000000000000000000000101010186
:105620000101010000000000000000003030000017
:1056300000000000000000806018040060180601EF
:1056400000000000E010080810E000000F1020200B
:10565000100F00001010F8000000000020203F2074
:1056600020000000700808088870000030282422FC
:1056700021300000300888884830000018202020A1
:10568000110E000000C02010F800000007042424C0
:105690003F240000F808888808080000192120200D
:1056A000110E0000E0108888180000000F11202063
:1056B000110E0000380808C83808000000003F003C
:1056C0000000000070880808887000001C2221215A
:1056D000221C0000E010080810E000000031222227
:1056E000110F00000000C0C00000000000003030BA
:1056F000000000000000800000000000008060004A
:105700000000000000804020100800000102040892
:105710001020004040404040404000040404040485
:10572000040400000810204080000000201008043D
:10573000020100007048080808F000000000303640
:10574000010000C030C828E810E000071827242313
:10575000140B000000C038E0000000203C230202CF
:1057600027382008F8888888700000203F202020F3
:10577000110E00C030080808083800071820202043
:1057800010080008F808080810E000203F2020203A
:10579000100F0008F88888E8081000203F20202318
:1057A00020180008F88888E8081000203F2000032F
:1057B000000000C030080808380000071820202228
:1057C0001E020008F808000008F808203F21010127
:1057D000213F20000808F8080800000020203F2092
:1057E00020000000000808F8080800C08080807FC2
:1057F00000000008F888C028180800203F20012673
:1058000038200008F8080000000000203F20202079
:1058100020300008F8F800F8F80800203F003F00AA
:105820003F200008F830C00008F808203F2000079B
:10583000183F00E01008080810E0000F102020209A
:10584000100F0008F808080808F000203F210101A7
:10585000010000E01008080810E0000F18242438A8
:10586000504F0008F8888888887000203F20000387
:105870000C302000708808080838000038202121EA
:10588000221C00180808F8080818000000203F2013
:1058900000000008F808000008F808001F20202079
:1058A000201F000878880000C83808000007380E5C
:1058B000010000F80800F80008F800033C070007A2
:1058C0003C0300081868808068180820302C030307
:1058D0002C30200838C800C83808000000203F20BD
:1058E00000000010080808C83808002038262120C9
:1058F000201800000000FE020202000000007F40AD
:10590000404000000C30C000000000000000010614
:1059100038C00000020202FE000000004040407F4C
:105920000000000000040202020400000000000069
:1059300000000000000000000000008080808080E7
:1059400080808000020204000000000000000000CF
:1059500000000000008080808000000019242222C6
:10596000223F2008F8008080000000003F11202026
:10597000110E000000008080800000000E11202029
:10598000201100000000808088F800000E11202007
:10599000103F200000808080800000001F22222213
:1059A000221300008080F0888888180020203F2083
:1059B0002000000000808080808000006B94949420
:1059C00093600008F8008080800000203F210000E4
:1059D000203F2000809898000000000020203F20F9
:1059E000200000000000809898000000C0808080A7
:1059F0007F000008F8000080808000203F24022DF6
:105A0000302000000808F8000000000020203F209F
:105A10002000008080808080808000203F20003F28
:105A200020003F8080008080800000203F21000017
:105A3000203F200000808080800000001F20202068
:105A4000201F00808000808000000080FFA12020B7
:105A5000110E000000008080808000000E112020C8
:105A6000A0FF80808080008080800020203F212057
:105A70000001000000808080808000003324242406
:105A8000241900008080E0808000000000001F20BA
:105A90002000008080000000808000001F20202067
:105AA000103F20808080000080808000010E300840
:105AB00006010080800080008080800F300C030C85
:105AC000300F0000808000808080000020312E0E8A
:105AD000312000808080000080808080818E70185E
