:020000040800F2
:10000000200E0020F5040008F9020008FB02000899
:10001000FF020008030300080703000800000000B7
:100020000000000000000000000000000B030008BA
:100030000D030008000000000F0300081103000872
:100040000F0500080F0500080F0500080F05000840
:100050000F0500080F0500080F0500080F05000830
:100060000F0500080F0500080F0500080F05000820
:100070000F0500080F0500080F0500080F05000810
:100080000F0500080F0500080F0500080F05000800
:100090000F0500080F0500080F0500080F050008F0
:1000A0000F0500080F0500080F0500080F050008E0
:1000B0000F0500080F050008232B00080F05000896
:1000C0000F0500080F0500080F0500080F050008C0
:1000D0000F050008BD2000080F0500080F050008E7
:1000E0000F0500080F0500080F0500080F050008A0
:1000F0000F0500080F0500080F0500080F05000890
:100100000F0500080F0500080F0500080F0500087F
:100110000F0500080F0500080F0500080F0500086F
:100120000F0500080F0500080F0500080F0500085F
:1001300000F002F800F05AF80AA090E8000C82449F
:100140008344AAF10107DA4501D100F04FF8AFF27C
:10015000090EBAE80F0013F0010F18BFFB1A43F0A5
:1001600001031847E4700000047100000A444FF0D6
:10017000000C10F8013B13F0070408BF10F8014B06
:100180001D1108BF10F8015B641E05D010F8016B4B
:10019000641E01F8016BF9D113F0080F1EBF10F8AF
:1001A000014BAD1C0C1B09D16D1E58BF01F801CBD2
:1001B000FAD505E014F8016B01F8016B6D1EF9D555
:1001C0009142D6D37047000000230024002500266A
:1001D000103A28BF78C1FBD8520728BF30C148BFAA
:1001E0000B6070471FB51FBD10B510BD04F070FC4B
:1001F0001146FFF7F7FF00F02BF804F08EFC03B474
:10020000FFF7F2FF03BC01F0FFFE00003548008855
:1002100000F40040D0B1344800783349497840EACE
:10022000012000B2314908802F4880782E49C978D2
:1002300040EA012000B22D49488000202949088069
:100240002B480088401C00B22949088000207047D4
:1002500001F070FE4FF4A06000F06CF94FF4E13053
:1002600001F0E1FE472144F61F6002F0CBFB41F6AE
:100270001F41632002F028FC03F0F4FA02F0FBFABD
:1002800003E0FFF7C3FF04F0A9FBFAE70EB5014650
:100290000020009141228DF8042042228DF8052093
:1002A0009DF800208DF806209DF801208DF807208C
:1002B0000D228DF808200A228DF8092000BF0DE0DC
:1002C00001AA125C0B4B1A8000BF0A4A121F128847
:1002D00002F04002002AF8D0421CD0B20628EFDB20
:1002E0000EBD000038000020A80200200000002001
:1002F0000400002004380140704700BFFEE700BF43
:10030000FEE700BFFEE700BFFEE77047704770479B
:10031000704700000CB50020019000906C48006808
:1003200040F480306A49086000BF6948006800F402
:10033000003000900198401C0190009818B9019875
:10034000B0F5A06FF1D16248006800F4003010B140
:100350000120009001E0002000900098012843D186
:100360005C48006840F010005A4908600846006880
:1003700020F0030008600846006840F002000860B2
:1003800053484068524948600846406848600846FB
:10039000406840F4806048600846406820F47C1063
:1003A00048600846406840F4E81048600846006825
:1003B00040F08070086000BF4548006800F00070A1
:1003C0000028F9D04248406820F0030040494860C6
:1003D0000846406840F00200486000BF3C48406862
:1003E00000F00C000828F9D10CBD10B5FFF792FF02
:1003F00010BD10B53648006840F00100344908606F
:100400000846406834490840314948600846006859
:10041000324908402E4908600846006820F48020D0
:1004200008600846406820F4FE0048604FF41F0052
:100430008860FFF7DAFF4FF000602949086010BDBF
:1004400010B5002100200022214B5B6803F00C0155
:1004500021B1042906D0082928D107E0214B224CDC
:10046000236027E01F4B204C236023E0184B5B6880
:1004700003F47010164B5B6803F48032022303EB25
:10048000904022B9194B4343174C23600DE0104BA9
:100490005B6803F4003323B1144B4343124C2360D5
:1004A00003E0104B4343104C236003E00D4B0E4C14
:1004B000236000BF00BF064B5B68C3F303130C4C03
:1004C000E15C094B1B68CB40074C236010BD00006A
:1004D00000100240002002400000FFF8FFFFF6FE7F
:1004E00008ED00E000127A000800002000093D003D
:1004F0000C0000200948804709480047FEE7FEE756
:10050000FEE7FEE7FEE7FEE7FEE7FEE7FEE7FEE7C3
:1005100004480549054A064B70470000F3030008EC
:100520003101000820080020200E0020200A0020B1
:10053000200A002031490143314A1160704770B5EB
:10054000002100230F22C47804B32D4C246804F446
:10055000E064C4F5E064210AC1F10403CA404478B0
:1005600004FA03F18478144021430901254C0678EC
:10057000A155047804F01F050124AC4005786D11E5
:10058000AD0005F1E025C5F8004109E0047804F06C
:100590001F050124AC401C4D0678761145F8264015
:1005A00070BD1A4A0A400243154B1B1F1A60704760
:1005B00039B1134A121D12680243114B1B1D1A60F8
:1005C00006E00F4A121D126882430D4B1B1D1A6074
:1005D0007047042808D14FF0E021096941F0040177
:1005E0004FF0E022116107E04FF0E021096921F0AE
:1005F00004014FF0E0221161704700000000FA058D
:100600000CED00E000E400E080E100E080FFFF1F6F
:1006100010B50446CC48844208D10121042000F0E2
:100620002DFB0021042000F029FB46E0C74884424E
:1006300008D10121082000F021FB0021082000F052
:100640001DFB3AE0C248844208D10121102000F08D
:1006500015FB0021102000F011FB2EE0BD48844264
:1006600008D10121202000F009FB0021202000F00A
:1006700005FB22E0B848844208D10121402000F067
:10068000FDFA0021402000F0F9FA16E0B348844258
:1006900008D10121802000F0F1FA0021802000F033
:1006A000EDFA0AE0AE48844207D10121801500F03E
:1006B000E5FA0021A01500F0E1FA10BD10B5012106
:1006C000084600F0DBFA0021012000F0D7FA10BD47
:1006D0002DE9F041024600250026002000230024D9
:1006E000002791F803C00CF00F0591F803C00CF03F
:1006F000100CBCF1000F03D091F802C04CEA0505C4
:1007000091F800C0BCF1000F31D0146800202BE03C
:100710004FF0010C0CFA00F3B1F800C00CEA03062C
:100720009E4220D183004FF00F0C0CFA03F7BC431C
:1007300005FA03FC4CEA040491F803C0BCF1280F4D
:1007400006D14FF0010C0CFA00FCC2F814C00AE00C
:1007500091F803C0BCF1480F05D14FF0010C0CFA21
:1007600000FCC2F810C0401C0828D1D31460B1F8B6
:1007700000C0BCF1FF0F34DD546800202EE000F112
:10078000080C4FF0010808FA0CF3B1F800C00CEAAD
:1007900003069E4221D183004FF00F0C0CFA03F7A1
:1007A000BC4305FA03FC4CEA040491F803C0BCF115
:1007B000280F05D100F1080C08FA0CF8C2F81480D3
:1007C00091F803C0BCF1480F07D100F1080C4FF0BD
:1007D000010808FA0CF8C2F81080401C0828CED393
:1007E0005460BDE8F0814FF6FF71018002218170F5
:1007F0000421C17070470246002093680B400BB182
:10080000012000E0002070470146886880B27047F0
:1008100002460020D3680B400BB1012000E000200D
:1008200070470146C86880B27047016170474161F6
:1008300070470AB1016100E041617047C1607047D3
:100840004FF480320A4382618161826182698269E8
:10085000704702460020434B18684FF680731840DB
:1008600040EA021008433F4B186070473E49C86198
:100870007047F0B50A46002300240021002500F04F
:100880000046B6F1004F02D1364EF16901E0354E17
:100890007168C0F3034583B200F44016B6F5401FFB
:1008A00008D121F070612F4E766826F070662D4FCA
:1008B0007E6012E000F48016B6F5801F06D1032694
:1008C00006FA05F4A14341F0706106E0460D3601D9
:1008D00003FA06F6B14341F0706122B1460D3601CC
:1008E00003FA06F6314300F00046B6F1004F02D19C
:1008F0001C4EF16101E01B4E7160F0BD30B500226D
:100900008B071C0F0F2303FA04F2164B08338C10CD
:1009100053F824309343134C08348D1044F8253099
:1009200023468C1053F824308C07240F00FA04F46B
:1009300023430C4C08348D1044F8253030BD0A494F
:10094000DC3108607047000000080140000C0140E5
:10095000001001400014014000180140001C01403B
:10096000002001400000014000002042DF480068F4
:1009700040F00100DD49086008464068DC49084055
:10098000DA49486008460068DA490840D7490860F3
:100990000846006820F4802008600846406820F47B
:1009A000FE0048604FF41F0088607047CF49096817
:1009B00021F48031CD4A11601146096821F480216B
:1009C0001160B0F5803F03D0B0F5802F0ED106E066
:1009D000C649096841F48031C44A116007E0C3493F
:1009E000096841F4A021C14A116000E000BF00BFC6
:1009F000704710B501460022002300204A11012A49
:100A000002D1BA4C236806E0022A02D1B74C236A0D
:100A100001E0B64C636A01F01F02012494401C40BF
:100A20000CB1012000E0002010BD38B5002000907E
:100A30000024002500BF3120FFF7DBFF05460098AA
:100A4000401C00900098B0F5A06F01D0002DF2D0AE
:100A50003120FFF7CEFF08B1012400E0002420463A
:100A600038BD01460020A14A106820F0F80040EA95
:100A7000C10010607047A04908607047024600201E
:100A80009A4B586820F47C1042EA01031843974BB4
:100A90005860704798490866704701460020934A9D
:100AA000506820F003000843506070478F4840684A
:100AB00000F00C007047014600208C4A506820F07E
:100AC000F00008435060704701460020874A506894
:100AD00020F4E06008435060704701460020834ADC
:100AE000506820F4605040EAC1005060704729B15E
:100AF0007E4A527A02437D4B5A7204E07B4A527A14
:100B000082437A4B5A7270477B49D83108607047EC
:100B100001460020754A506820F440400843506068
:100B200070470021714A20321170704A82F82010FB
:100B3000012802D004280AD104E001216B4A2032A6
:100B4000117005E00521694A2032117000E000BFF4
:100B500000BF70476949086070476449096A0143EA
:100B6000624A11627047654944390860704730B580
:100B700000210022002400235C4D6D6805F00C016B
:100B800021B1042905D0082923D105E05C4D056079
:100B900022E05B4D05601FE0544D6D6805F4701256
:100BA000524D6D6805F48034022505EB92421CB964
:100BB000544D554305600BE04C4D6D6805F4003510
:100BC0001DB1504D5543056002E04D4D5543056044
:100BD00002E04B4D056000BF00BF444D6D6805F05D
:100BE000F0010909484D6B5C0568DD4045603F4DEB
:100BF0006D6805F4E061090A434D6B5C4568DD40B2
:100C000085603A4D6D6805F46051C90A3E4D6B5CD4
:100C10004568DD40C560354D6D6805F44041890B80
:100C20003A4D6B5CC568B5FBF3F5056130BD29B184
:100C30002E4A526902432D4B5A6104E02B4A5269F5
:100C400082432A4B5A61704729B1284A926902436C
:100C5000264B9A6104E0254A92698243234B9A61AC
:100C6000704729B1214AD2690243204BDA6104E07E
:100C70001E4AD26982431D4BDA61704729B11B4A73
:100C8000D2680243194BDA6004E0184AD268824302
:100C9000164BDA60704729B1144A12690243134BAC
:100CA0001A6104E0114A12698243104B1A617047BD
:100CB00012494039086070470F49C86470470B49B2
:100CC000C87170470948406A40F08070074948621F
:100CD000704701460020054A92680A400AB1012087
:100CE00000E0002070470149887270470010024000
:100CF0000000FFF8FFFFF6FE00004242800442427F
:100D000000127A0000093D001C0000202C00002089
:100D100010B50446FE48844208D10121C014FFF7F3
:100D2000ADFF0021E014FFF7A9FFC4E0B4F1804F4C
:100D300008D101210846FFF7AEFF00210120FFF78F
:100D4000AAFFB8E0F348844208D101210220FFF74E
:100D5000A2FF00210220FFF79EFFACE0EE48844294
:100D600008D101210420FFF796FF00210420FFF79E
:100D700092FFA0E0E948844208D101210820FFF752
:100D80008AFF00210820FFF786FF94E0E4488442B0
:100D900008D101211020FFF77EFF00211020FFF76E
:100DA0007AFF88E0DF48844208D101212020FFF744
:100DB00072FF00212020FFF76EFF7CE0DA488442BA
:100DC00008D101214014FFF759FF00216014FFF7FB
:100DD00055FF70E0D548844209D10121C804FFF7CE
:100DE0004DFF00214FF40020FFF748FF63E0D0489B
:100DF000844209D101210805FFF740FF00214FF48B
:100E00008010FFF73BFF56E0CA48844209D1012118
:100E10004805FFF733FF00214FF40010FFF72EFFC6
:100E200049E0C548844208D101214020FFF733FF43
:100E300000214020FFF72FFF3DE0C048844208D149
:100E400001218020FFF727FF00218020FFF723FFEB
:100E500031E0BB48844208D101218015FFF71BFF18
:100E60000021A015FFF717FF25E0B648844209D1FD
:100E700001210804FFF702FF00214FF48030FFF743
:100E8000FDFE18E0B048844209D101214804FFF773
:100E9000F5FE00214FF40030FFF7F0FE0BE0AB4809
:100EA000844208D101218804FFF7E8FE00214FF4B5
:100EB0008020FFF7E3FE10BD00220288944B984289
:100EC0000ED0994B98420BD0B0F1804F08D0914B87
:100ED000984205D0904B984202D0904B984204D152
:100EE0004FF68F731A404B881A438D4B984207D0A8
:100EF0008C4B984204D04FF6FF431A40CB881A43DC
:100F000002808B8883850B880385814B98420BD0A8
:100F1000854B984208D08B4B984205D08A4B98421B
:100F200002D08A4B984201D10B7A03860123838237
:100F3000704770B5002400220023058C4FF6FE7622
:100F400035400584028C8388048B4FF68F752C40C6
:100F5000B51E2C400D882C43751E2A400D892A434E
:100F60004D882A436A4DA8420BD06F4DA84208D045
:100F7000744DA84205D0744DA84202D0734DA842CA
:100F800013D14FF6F7752A404D892A434FF6FB756A
:100F90002A408D882A434FF6FF652B404FF6FF55B8
:100FA0002B408D892B43CD892B4383800483CD88AF
:100FB0008586028470BD70B5002400220023058C54
:100FC0004FF6EF7635400584028C8388048B48F613
:100FD000FF752C404FF6FF452C400D884FF6FF76ED
:100FE00006EA05252C434FF6DF752A400D8906EAEF
:100FF00005152A434D8806EA05152A43444DA842A3
:1010000002D0494DA8421DD14FF67F752A404D8927
:101010004FF6FF7606EA05152A434FF6BF752A40BC
:101020008D8806EA05152A434FF6FF352B404FF20F
:10103000FF752B408D8906EA85052B43CD8906EA8D
:1010400085052B4383800483CD880587028470BD8A
:1010500070B5002400220023058C4FF6FF66354052
:101060000584028C8388848B4FF68F752C404FF655
:10107000FC752C400D882C434FF6FF552A400D89F6
:101080004FF6FF7606EA05252A434D8806EA052530
:101090002A431F4DA84202D0234DA8421DD14FF232
:1010A000FF752A404D894FF6FF7606EA05252A434B
:1010B0004FF6FF352A408D8806EA05252A434EF66D
:1010C000FF752B404DF6FF752B408D8906EA0515FF
:1010D0002B43CD8906EA05152B4383808483CD8875
:1010E0008587028470BD70B5002200230024058C22
:1010F0004EF6FF7635400584038C8488828B48F653
:10110000FF752A404FF6FF452A400D8820E0000079
:10111000002C01400004004000080040000C00408A
:10112000001000400014004000340140004C014019
:10113000005001400054014000180040001C0040D5
:1011400000200040004001400044014000480140B0
:101150004FF6FF7606EA05252A434DF6FF752B402C
:101160000D8906EA05352B434D8806EA05352B43E4
:10117000FA4DA84202D0FA4DA84208D14BF6FF75AD
:101180002C408D894FF6FF7606EA85152C43848026
:101190008283CD88A0F84050038470BD828B4FF2CB
:1011A000FF331A408283828B4FF6FF7303EA0123D9
:1011B0001A4382837047F0B50C4615460022002181
:1011C0000026078C4EF6FF7C07EA0C070784828B0B
:1011D000018C4FF6FF7707EA043640F6FF473A40A6
:1011E0004FF6FF7707EA05273A434FF6FF7707EAFE
:1011F00003373A43D94FB8420ED0D94FB8420BD03B
:10120000B0F1804F08D0D74FB84205D0D64FB84282
:1012100002D0D64FB84206D14DF6FF77394046F49A
:101220008057394305E047F6FF57394044F480576B
:10123000394382830184F0BD828B4FF6F3731A40E9
:101240008283828B0A4382837047F0B50C46154631
:10125000002200210026078C4FF6FF6C07EA0C07DE
:101260000784828B018C4FF6FF7707EA04264FF63E
:101270000C773A404FF6FF7707EA03172F433A43BC
:10128000B64FB8420ED0B64FB8420BD0B0F1804F37
:1012900008D0B44FB84205D0B34FB84202D0B34FD4
:1012A000B84206D14FF6FF57394046F480773943AC
:1012B00005E04FF2FF57394044F480773943828389
:1012C0000184F0BD028B4FF2FF331A400283028B80
:1012D0004FF6FF7303EA01231A4302837047F0B508
:1012E0000C461546002200210026078C4FF6EF7CA5
:1012F00007EA0C070784028B018C4FF6FF7707EA99
:10130000041640F6FF473A404FF6FF7707EA0337E7
:101310003A434FF6FF7707EA05273A438F4FB84223
:101320000ED08F4FB8420BD0B0F1804F08D08D4F08
:10133000B84205D08C4FB84202D08C4FB84206D18B
:101340004FF6DF77394046F01007394305E04FF696
:101350005F77394044F01007394302830184F0BDC0
:10136000028B4FF6F3731A400283028B0A43028307
:101370007047F0B50C46154600220021068C4FF64A
:10138000FE773E400684028B018C4FF60C7632408D
:101390007E1C06EA03162E433243704EB0420ED036
:1013A0006F4EB0420BD0B0F1804F08D06D4EB042BE
:1013B00005D06D4EB04202D06C4EB04206D14FF611
:1013C000FD76314044F00106314305E04FF6F576F5
:1013D000314044F00106314302830184F0BD70B511
:1013E00005460C465D4885420ED05D4885420BD0CF
:1013F000B5F1804F08D05B48854205D05A488542F8
:1014000002D05A48854200D100E000BF208850B980
:101410002389A28861882846FFF7ABFFE188284628
:10142000FFF79EFF25E0208804280AD12389A2889F
:1014300061882846FFF753FFE1882846FFF742FFFF
:1014400017E0208808280AD12389A28861882846C5
:10145000FFF7FBFEE1882846FFF7EEFE09E023894F
:10146000A28861882846FFF7A6FEE1882846FFF794
:1014700095FE70BD2DE9F04105460C46002601277A
:10148000608808B9022600E00026A088012801D162
:10149000022700E001272088A0B92389A28861885B
:1014A0002846FFF766FFE1882846FFF759FF2389A2
:1014B0003A4631462846FFF712FFE1882846FFF7F3
:1014C00001FF13E02389A28861882846FFF707FF00
:1014D000E1882846FFF7F6FE23893A46314628463A
:1014E000FFF747FFE1882846FFF73AFFBDE8F081A4
:1014F0000A884B881A438B881A43CB881A430B8976
:101500001A434B891A438B891A43A0F84420704729
:101510004FF6FF71818000210180C18041800172FE
:1015200070470021018041808180C180018141811B
:101530008181C1817047002101804180012181802A
:101540000021C1800181704700210180418081809C
:10155000C18001814181818170470000002C0140E0
:10156000003401400004004000080040000C00402E
:1015700021B1028842F00102028004E002884FF6A5
:10158000FE731A400280704731B1B0F8442042F433
:101590000042A0F8442005E0B0F84420C2F30E0257
:1015A000A0F8442070471AB183890B43838102E07D
:1015B00083898B43838170478182704741EA0203AC
:1015C000A0F8483070471AB183890B43838102E049
:1015D00083898B438381704701894FF6F8721140EC
:1015E000018170470A46002101894FF68F73194027
:1015F00011430181704730B504460D462946204607
:10160000FFF7F0FF208940F00700208130BD2DE971
:10161000F04104460D4616461F46602D06D13B4656
:10162000012231462046FFF75AFE05E03B460122E3
:1016300031462046FFF79DFE29462046FFF7D2FFA0
:10164000208940F007002081BDE8F08130B50C46CC
:1016500000210189C9B24FF6FF7505EA032515433C
:1016600025432943018130BD2DE9F04105460E4651
:1016700017469846002443463A4631462846FFF727
:10168000E5FF2C894FF6F870044044F007044FF64C
:101690008F70044044F070042C81BDE8F081F0B5F7
:1016A00004460D4616461F463B463246294620460E
:1016B000FFF7CCFF208940F480402081F0BD0185F8
:1016C000828270470A46002101884FF68F731940C5
:1016D000114301807047F0B50C4615461E460021A7
:1016E000002200230189028B038C4FF6F8773940E2
:1016F00021434FF6FC473A4040F201173A434FF678
:10170000DD773B404FF6FF7707EA06172F433B4351
:10171000018102830384F0BD0A460021018B4FF64C
:101720008F7319401143018370470A460021018BD2
:1017300048F6FF7319404FF6FF7303EA022319437B
:10174000018370470A460021818B4FF68F73194041
:101750001143818370470A460021818B48F6FF734D
:1017600019404FF6FF7303EA022319438183704740
:1017700021B1028842F08002028004E002884FF624
:101780007F731A400280704721B1828842F00402C0
:10179000828004E082884FF6FB731A408280704793
:1017A00021B1828842F00802828004E082884FF6EC
:1017B000F7731A408280704721B1828842F001029B
:1017C000828004E082884FF6FE731A408280704760
:1017D0000A460021018B4FF6F7731940114301832C
:1017E00070470A460021018B4FF2FF7319404FF6F4
:1017F000FF7303EA02231943018370470A4600215D
:10180000818B4FF6F77319401143818370470A4665
:101810000021818B4FF2FF7319404FF6FF7303EAEB
:1018200002231943818370470A460021018B4FF63A
:10183000FB7319401143018370470A460021018B55
:101840004FF6FF3319404FF6FF7303EA02231943A3
:10185000018370470A460021818B4FF6FB731940C4
:101860001143818370470A460021818B4FF6FF3375
:1018700019404FF6FF7303EA02231943818370472F
:101880000A460021018B4FF67F73194011430183F3
:1018900070470A460021018BC1F30E014FF6FF731A
:1018A00003EA02231943018370470A460021818B12
:1018B0004FF67F7319401143818370470A46002118
:1018C000818BC1F30E014FF6FF7303EA0223194324
:1018D000818370470A460021018C4FF6FD73194041
:1018E0001143018470470A460021018C4FF6F773BB
:1018F00019401143018470470A460021018C4FF6BC
:10190000DF7319404FF6FF7303EA02131943018492
:1019100070470A460021018C4FF67F7319404FF63D
:10192000FF7303EA02131943018470470A4600213A
:10193000018C4FF6FF5319404FF6FF7303EA022361
:101940001943018470470A460021018C4FF2FF734E
:1019500019404FF6FF7303EA0223194301847047CD
:101960000A460021018C4DF6FF7319404FF6FF73B4
:1019700003EA023319430184704730B50023012480
:101980008C40A3B2048C9C430484048C02FA01F5BD
:10199000ADB22C43048430BD30B5002304248C4008
:1019A000A3B2048C9C430484048C02FA01F5ADB20A
:1019B0002C43048430BD70B5034600200024184633
:1019C000183001258D40ACB21D8CA5431D8409B192
:1019D000082909D100EB6100056825F07005056054
:1019E0000568154305600EE00D1FC5F34E0528443C
:1019F000056825F4E045056005684FF6FF7606EAC0
:101A000002263543056070BD21B1028842F0020212
:101A1000028004E002884FF6FD731A40028070478E
:101A200021B1028842F00402028004E002884FF6ED
:101A3000FB731A400280704721B1828842F0800215
:101A4000828004E082884FF67F731A40828070475C
:101A500002884FF6F7731A40028002880A43028018
:101A6000704782884FF68F731A40828082880A43BB
:101A70008280704702894FF6F8731A40028102890A
:101A80000A430281704702894FF67F731A40028130
:101A900002890A43028170478184704781857047BB
:101AA000818670470187704781877047A0F8401092
:101AB000704702884FF6FF431A40028002880A43AB
:101AC000028070470146888E70470146088F704734
:101AD0000146888F70470146B1F8400070470146C3
:101AE000888C70470146088D704702460020138A93
:101AF0000B400BB1012000E000207047CA43028276
:101B0000704730B50246002000230024158A05EAFC
:101B10000103958905EA010413B10CB1012000E02D
:101B2000002030BDCA4302827047000010B5044651
:101B3000FB48844209D101218803FFF79FF8002167
:101B40004FF48040FFF79AF832E0F648844209D11A
:101B500001214804FFF79FF800214FF40030FFF700
:101B60009AF825E0F048844209D101218804FFF762
:101B700092F800214FF48020FFF78DF818E0EB4831
:101B8000844209D10121C804FFF785F800214FF4F0
:101B90000020FFF780F80BE0E548844208D10121DE
:101BA0000805FFF778F800214FF48010FFF773F86D
:101BB00010BD2DE9F04786B005460E460024A2462A
:101BC00000BFA1460027B08900B100BF2F462C8A74
:101BD0004CF6FF700440F08804432C82AC894EF62A
:101BE000F3100440B08831890843718908430443E5
:101BF000AC81AC8A4FF6FF400440B0890443AC820C
:101C000001A8FEF7B4FFC648874202D1DDF810A054
:101C100001E0DDF80CA0A88900F4004040B10AEB17
:101C2000CA0000EB0A1031684900B0FBF1F807E088
:101C30000AEBCA0000EB0A1031688900B0FBF1F82A
:101C40006420B8FBF0F004012009642101FB108935
:101C5000A88900F4004040B1322000EBC900B0FB7D
:101C6000F1F000F00700044308E0322000EB091017
:101C70006421B0FBF1F000F00F0004432C8106B0AA
:101C8000BDE8F0874FF41651016000218180C180CA
:101C900001810C21418100218181704710B50246EC
:101CA0000020108A4FF2FF0318400B884C88234312
:101CB0008C882343CC8823431843108210BD002115
:101CC000018041808180C180704721B1828942F4C6
:101CD0000052828104E082894DF6FF731A408281AE
:101CE0007047F0B50346002400260025002040F68A
:101CF0006A17B94200D100BF1846C1F3421401F07F
:101D00001F06012707FA06F5012C01D10C3004E06B
:101D1000022C01D1103000E014301AB107682F43B3
:101D2000076002E00768AF430760F0BD1AB1838A1D
:101D30000B43838202E0838A8B4383827047028A4B
:101D40004FF6F0731A400282028A0A4302827047F9
:101D500082894FF2FF731A40828182890A4382810D
:101D6000704721B1828942F00202828104E08289B7
:101D70004FF6FD731A4082817047028A4FF6DF7377
:101D80001A400282028A0A430282704721B1028A03
:101D900042F48042028204E0028A4BF6FF731A404A
:101DA00002827047C1F3080282807047014688882A
:101DB000C0F308007047818941F0010181817047BB
:101DC000028BD2B20283028B42EA01220283704765
:101DD000028B02F47F420283028B0A430283704724
:101DE00021B1828A42F02002828204E0828A4FF688
:101DF000DF731A408282704721B1828A42F010025A
:101E0000828204E0828A4FF6EF731A408282704722
:101E100021B1828A42F00802828204E0828A4FF66F
:101E2000F7731A408282704721B1828942F40042DE
:101E3000828103E08289C2F30E028281704721B160
:101E4000828A42F40062828204E0828A4FF2FF7347
:101E50001A4082827047828A4FF6FB731A40828250
:101E6000828A0A438282704721B1828A42F002024A
:101E7000828204E0828A4FF6FD731A4082827047A4
:101E800002460020B1F5007F00D100BF13880B404F
:101E90000BB1012000E00020704701F40072B2F5A0
:101EA000007F00D100BFCA430280704770B5024670
:101EB000002400230025002040F66A16B14200D11C
:101EC00000BFC1F3421501F01F03012606FA03F318
:101ED000012D02D19689334006E0022D02D1168AE7
:101EE000334001E0968A33400C12012606FA04F4CE
:101EF0001688344013B10CB1012000E0002070BD01
:101F000010B50022002340F66A14A14200D100BFA0
:101F10000A1201249440A3B2DC43048010BD0000E7
:101F2000003801400044004000480040004C0040A0
:101F30000050004010B56FF00400FEF74AFB2E4839
:101F400000682E49B0FBF1F02D4908700846007872
:101F500000EB4001C1EBC0104FF6FF7101EAC00079
:101F60002849088010BD0146254A12784A434FF09F
:101F7000E0235A6100229A611A46126942F0010276
:101F80001A6100BF4FF0E022106900F001021AB19F
:101F900000F48032002AF5D04FF0E022126922F0DE
:101FA00001024FF0E0231A6100229A617047014656
:101FB000144A12884A434FF0E0235A6100229A6182
:101FC0001A46126942F001021A6100BF4FF0E02286
:101FD000106900F001021AB100F48032002AF5D035
:101FE0004FF0E022126922F001024FF0E0231A6163
:101FF00000229A61704700000800002000127A0059
:102000003000002032000020014600BF704700BFB2
:102010005B4A128802F04002002AF9D0C2B2584B43
:102020001B1D1A80704710B586B00446012144F28A
:102030000400FEF709FE4FF40070ADF81400032011
:102040008DF8160018208DF8170005A94D48FEF7E9
:102050003FFB4FF48060ADF8140004208DF81700AA
:1020600005A94848FEF734FB25208DF80000012023
:102070008DF801008DF802008DF803006846FEF728
:102080005EFA01940020ADF80800ADF80A00ADF842
:102090000C00ADF810000C20ADF80E0001A9384876
:1020A000FFF787FD012240F225513548FFF719FE61
:1020B00001213348FFF709FE06B010BD10B540F20C
:1020C00025512F48FFF7F2FE002857D02C48FFF784
:1020D0006DFEC4B22C48008800F40050002845D0A2
:1020E0002948008800F48050B0B32748008800F4E5
:1020F0000040002842D12448008800F4804060B1AC
:102100000A2C03D000202049088037E01E480088B0
:1021100040F400401C49088030E00D2C06D11A48DC
:10212000008840F480401849088027E0164800885D
:10213000C0F30B0015490C5413480088401C124989
:1021400008800846008843F2C701884216DD4FF434
:1021500040500D49088011E0FFE7422C0ED10A489B
:10216000008840F480500849088007E0412C05D1E0
:102170000548008840F400500349088010BD000065
:10218000003801400008014038000020A80200206B
:1021900070B504460E4626B10821FA48FEF745FB05
:1021A00003E00821F748FEF742FB0221F548FEF75D
:1021B0003EFB002517E02021F348FEF738FB04F032
:1021C000800020B10121EF48FEF72FFB03E0012141
:1021D000EC48FEF72CFB2021EB48FEF726FB6006BF
:1021E000040E681CC5B2082DE5DB0221E548FEF7A8
:1021F0001CFB0821E348FEF718FB70BD70B50446D0
:102200000E4626B10821DF48FEF70FFB03E0082148
:10221000DC48FEF70CFB0221DA48FEF708FB00253C
:1022200017E02021D848FEF702FB04F0800020B11F
:102230000121D448FEF7FBFA03E00121D148FEF763
:10224000F4FA2021D048FEF7F0FA6006040E681C6C
:10225000C5B2082DE5DB0221CA48FEF7E6FA0821DF
:10226000C848FEF7E2FA70BD70B504460D4605F1A8
:10227000B001C8B20021FFF78BFF102141EA141012
:102280000021FFF785FF04F00F0141F0010000215C
:10229000FFF77EFF70BD10B500218D20FFF778FF9E
:1022A00000211420FFF774FF0021AF20FFF770FF1B
:1022B00010BD10B500218D20FFF76AFF002110200E
:1022C000FFF766FF0021AE20FFF762FF10BD70B57B
:1022D000002419E004F1B001C8B20021FFF758FF53
:1022E00000210846FFF754FF00211020FFF750FFA0
:1022F000002505E001210020FFF74AFF681CC5B258
:10230000802DF7DB601CC4B2082CE3DB70BDF0B598
:10231000144600267F2801DC3F2900DDF0BD0B4676
:10232000CF1701EB5777FF10C7F10707FAB2CF17A6
:1023300001EB5777FF10A1EBC707FDB2C5F1070707
:102340000123BB40DEB24CB1904B03EBC0039B5C5E
:1023500033438E4F07EBC007BB5408E08B4B03EBB6
:10236000C0039B5CB343894F07EBC007BB5400BF5E
:10237000D4E770B500241CE004F1B001C8B200211C
:10238000FFF706FF00210846FFF702FF002110209B
:10239000FFF7FEFE002508E07C4901EBC501085D62
:1023A0000121FFF7F5FE681CC5B2802DF4DB601C2F
:1023B000C4B2082CE0DB70BD2DE9F04106460C46A6
:1023C00017464FF000080025A7F1200000F0FF0895
:1023D0007F2E02DD0026A01CC4B2601CC1B23046B4
:1023E000FFF742FF00250AE008EB4801684A02EBCC
:1023F0004101485D0121FFF7CBFE681CC5B2062DE7
:10240000F2DBBDE8F0812DE9F04106460C461746A7
:102410004FF000080025A7F1200000F0FF087F2EF4
:1024200002DD0026A01CC4B2601CC1B23046FFF71A
:102430001BFF00250AE008EB4801554A02EB410169
:10244000485D0121FFF7DAFE681CC5B2062DF2DBFC
:10245000BDE8F08110B50246012000E050430B00BA
:10246000A1F10104E1B2F9D110BD2DE9FF5F0746EA
:1024700091461D460E9E4FF0000A002433E0281BB3
:10248000401EC1B20A20FFF7E5FFB9FBF0F00A21B8
:10249000B0FBF1F201FB1208BAF1000F13D1681E74
:1024A000A04210DDB8F1000F0BD1B34606EBDB7193
:1024B000491001FB0471C8B220220199FFF77CFF8B
:1024C0000FE04FF0010AB34606EBDB71491001FB48
:1024D0000471C8B208F13001CAB20199FFF76CFF6C
:1024E00000BF601CC4B2AC42C9DBBDE8FF9F2DE950
:1024F000F04104460F46154600260EE0AA5D394617
:102500002046FFF759FF04F10800C4B2782C02DD21
:102510000024B81CC7B2701CC6B2A85D0028EDD15B
:10252000BDE8F0812DE9F041064606241949304600
:1025300004F040F8074603F0B5FF054600BF0AE087
:102540000A2095FBF0F100FB115000B105E00A20D4
:1025500095FBF0F5641E002CF2DC00BF2046BDE8C0
:10256000F08170B506460024304603F09BFF054617
:1025700000BF641C0A2095FBF0F5002DF9DC204615
:1025800070BD0000001801400008014070030020E9
:102590009E690008002474492DE9F74F8CB08346EA
:1025A0009046FEA207CA08AB07C30020059006901C
:1025B000079000240026049081460027824600BF31
:1025C00003E0202005A90855641C0A2CF9DB4046CD
:1025D000FFF7C7FF07464046FFF7A4FF824607EB19
:1025E0000A09504603F09FFA02460B46CDE9000166
:1025F0000020ED4902F020FBCDE9020103F01EF8B6
:1026000004904046049903F0D5FF039003F04AFF7D
:10261000054600242BE0A9F10101081B03F083FA11
:1026200002460B46CDE900010020DF4902F004FB21
:10263000CDE9020103F048FA0646BC4202D12E2041
:1026400005A90855BC4207DB95FBF6F008A9095C13
:1026500005AA601C115405E095FBF6F008A9085C7A
:1026600005A9085595FBF6F000FB1655641C4C4572
:10267000D1DB05AA58460D99FFF739FF0FB0BDE829
:10268000F08F2DE9FF5F074691461D460E9E4FF0E5
:10269000000A002433E0281B401EC1B20A20FFF7C5
:1026A000D9FEB9FBF0F00A21B0FBF1F201FB1208F0
:1026B000BAF1000F13D1681EA04210DDB8F1000F6F
:1026C0000BD1B34606EBDB71491001FB0471C8B2B4
:1026D00020220199FFF797FE0FE04FF0010AB34661
:1026E00006EBDB71491001FB0471C8B208F130013F
:1026F000CAB20199FFF787FE00BF601CC4B2AC42AA
:10270000C9DBBDE8FF9F2DE9F04104460F461546A1
:1027100000260EE0AA5D39462046FFF774FE04F15C
:102720000800C4B2782C02DD0024B81CC7B2701CAB
:10273000C6B2A85D0028EDD1BDE8F0812DE9F041D9
:1027400080460E461546002731464046FFF78CFD71
:1027500000240AE0954A02EB8511085D0121FFF78C
:1027600017FD781CC7B2601CC4B2102CF2DB701CC1
:10277000C1B24046FFF778FD00240CE06900491C17
:102780008A4A02EB4111085D0121FFF701FD781C27
:10279000C7B2601CC4B2102CF0DBBDE8F0812DE99B
:1027A000F04180460E461546002731464046FFF769
:1027B0005BFD00240AE07D4A02EB8511085D0121E2
:1027C000FFF71CFD781CC7B2601CC4B2102CF2DBF2
:1027D000701CC1B24046FFF747FD00240CE06900C1
:1027E000491C724A02EB4111085D0121FFF706FD09
:1027F000781CC7B2601CC4B2102CF0DBBDE8F081BD
:102800002DE9F05F06460F4690461C46DDF828A0ED
:102810004FF0000BE11704EB5171C910A4EBC1019B
:1028200031B92046E11704EB5171C1F3C70506E049
:102830002046E11704EB5171C910491CCDB23D4649
:1028400015E029463046FFF70FFDB1460BE059462B
:102850000BF1010B1AF801000121FFF799FC09F1B6
:10286000010000F0FF09C145F1DB681CC5B2A542BB
:10287000E7DBBDE8F09F08B501210420FEF7E4F98D
:102880002020ADF8000010208DF8030003208DF803
:10289000020069464648FDF71BFF20214448FDF72A
:1028A000C4FF01214020FEF7CFF90F20ADF8000052
:1028B00010208DF8030003208DF8020069463D4882
:1028C000FDF706FF0F213B48FDF7AFFF0421394814
:1028D000FDF7ABFF6420FFF76AFB04213548FDF7E5
:1028E000A6FFC820FFF763FB04213248FDF79DFFD8
:1028F0000021AE20FFF74CFC00210846FFF748FC02
:1029000000211020FFF744FC00214020FFF740FC8D
:1029100000218120FFF73CFC0021CF20FFF738FC8D
:102920000021A120FFF734FC0021C820FFF730FC74
:102930000021A620FFF72CFC0021A820FFF728FC8F
:1029400000213F20FFF724FC0021D320FFF720FCCB
:1029500000210846FFF71CFC0021D520FFF718FCDA
:1029600000218020FFF714FC0021D920FFF710FC84
:102970000021F120FFF70CFC0021DA20FFF708FC12
:1029800000211220FFF704FC0021DB20FFF700FCF0
:1029900000214020FFF7FCFB00210DE030313233F5
:1029A0003435363738390000000024403A00002022
:1029B00000080140001801402020FFF7E9FB00213A
:1029C0000220FFF7E5FB00218D20FFF7E1FB00214E
:1029D0001420FFF7DDFB0021A420FFF7D9FB002125
:1029E000A620FFF7D5FB0021AF20FFF7D1FB002188
:1029F000AF20FFF7CDFBFFF76AFC00210846FFF789
:102A000033FC08BD30B589B005460C4601210220D3
:102A1000FEF727F901210420FEF716F9012108200D
:102A2000FEF712F9C020ADF8200018208DF8230021
:102A300003208DF8220008A92048FDF749FE012057
:102A4000ADF8200018208DF8230003208DF8220017
:102A500008A91B48FDF73CFEADF81850ADF814402E
:102A60000020ADF8160005A91648FEF725FA6020EB
:102A7000ADF804000120ADF806000020ADF80C0010
:102A800001A91048FEF755FA01A90E48FEF793FA7E
:102A900001A90C48FEF7DCFA08210A48FEF798FE67
:102AA00008210848FEF79DFE08210648FEF7A6FE0D
:102AB00001210448FEF75CFD09B030BD000801406B
:102AC000000C0140000400407FB505460C46012182
:102AD0000420FEF7C6F8ADF80850ADF80440002019
:102AE000ADF80A00ADF8060001A9FE48FEF7E4F9CA
:102AF00001221146FB48FEF756FD1E208DF800000E
:102B000002208DF8010003208DF8020001208DF8CD
:102B100003006846FDF713FD0121F248FEF728FD8A
:102B20007FBD00B585B00121EE48FEF7EAFF002821
:102B300072D0ED480078012804D1EC480068401CB0
:102B4000EA490860EA48007860B940F2AA51E948C9
:102B5000FEF7A6FF40F2AA51E648FEF7A3FF0020C9
:102B6000E1490870E248007801285CD1E248B0F9F8
:102B70001000009003F0D2FC019000F03DFDDF4911
:102B8000029003F05FFB039003F0A8FC80B20146C3
:102B90000490D848FEF784FFD748B0F9120000909F
:102BA00003F0BCFC019000F0AAFDD549029003F0AF
:102BB00049FB039003F092FC80B201460490CD489B
:102BC000FEF770FFCF49D048006803F0BFFC24D85F
:102BD000CE49CD48006803F0B9FD1ED8CB49CC489A
:102BE000006803F0B3FD18D8C649C948006803F06F
:102BF000ADFC12D8C7480088401C00B2C549088007
:102C00000846B0F90000FA280DDB0020B64908702C
:102C1000FA20C049088006E0FEE30020BD49088094
:102C20000120B1490870B2480078022866D1BA493B
:102C3000B548006803F08AFC15D8B849B248006866
:102C400003F084FD0FD8B549B148006803F07EFD5C
:102C500009D8B149AE48006803F078FC03D80120D8
:102C6000AF49088005E00020AD49088001209E4959
:102C70000870AB48008801280ED1AA480088401C83
:102C800000B2A84908800846B0F90000B0F5C87F36
:102C900002DB4FF4C8700880A248B0F90000B0F51C
:102CA000967F2CDC9448B0F90C00009003F036FCC1
:102CB000019000F0A1FC9149029003F0C3FA039047
:102CC00003F00CFC80B2014604908A48FEF7E8FE4F
:102CD0008948B0F90E00009003F020FC019000F04C
:102CE0000EFD8749029003F0ADFA039003F0F6FB66
:102CF00080B2014604907F48FEF7D4FE5BE07E4838
:102D0000B0F91000009003F009FC019000F074FC91
:102D10007A49029003F096FA039003F0DFFB80B249
:102D2000014604907348FEF7BBFE7348B0F91200E9
:102D3000009003F0F3FB019000F0E1FC7049029079
:102D400003F080FA039003F0C9FB80B201460490BF
:102D50006848FEF7A7FE70496B48006803F0F6FB71
:102D600023D86E496848006803F0F0FC1DD86B4911
:102D70006748006803F0EAFC17D8674964480068B0
:102D800003F0E4FB11D863480088401C00B261499D
:102D900008800846B0F90000C8280CDB0020524922
:102DA0000870C8205B49088005E000205949088068
:102DB00001204D4908704E48007803287DD15A48BB
:102DC000008858BB4C48B0F92400009003F0A6FBE3
:102DD000019000F011FC4949029003F033FA03908E
:102DE00003F07CFB80B2014604904248FEF758FE97
:102DF0004148B0F92600009003F090FB019000F0EC
:102E00007EFC3F49029003F01DFA039003F066FB3D
:102E100080B2014604903748FEF744FE42480088DD
:102E200001282BD13448B0F92C00009003F076FB38
:102E3000019000F0E1FB3149029003F003FA0390A6
:102E400003F04CFB80B2014604902A48FEF728FEAE
:102E50002948B0F92E00009003F060FB019000F0CB
:102E60004EFC2749029003F0EDF9039003F036FB86
:102E700080B2014604901F48FEF714FE2A480088DD
:102E800002282DD11C48B0F93000009003F046FB19
:102E9000019000F0B1FB1949029003F0D3F90390BF
:102EA00003F01CFB80B2014604901248FEF7F8FDC7
:102EB0001148B0F93200009000E0C6E003F02EFBAC
:102EC000019000F01CFC0E49029003F0BBF9039046
:102ED00003F004FB80B2014604900648FEF7E2FDD1
:102EE000114823E000080040FC01002000020020FF
:102EF0000602002000040040080200200040B54403
:102F00000000B9440000204154020020000020C10C
:102F1000700200200402002000004040000040C079
:102F20003E0200203C0200204002002000880328CE
:102F30005BD1FE48B0F92000009003F0EFFA019059
:102F400000F05AFBFA49029003F07CF9039003F079
:102F5000C5FA80B201460490F648FEF7A1FDF34899
:102F6000B0F92200009003F0D9FA019000F0C7FBFD
:102F7000F149029003F066F9039003F0AFFA80B2D2
:102F800001460490EB48FEF78DFDEC49EC480068E3
:102F900003F0DCFA23D8EB49E948006803F0D6FBDC
:102FA0001DD8E849E848006803F0D0FB17D8E3498A
:102FB000E548006803F0CAFA11D8E4480088401CCC
:102FC00000B2E24908800846B0F90000C8280CDBCE
:102FD0000020DF490870C820DC49088005E0002097
:102FE000DA4908800120DA490870DA49D4480068D3
:102FF00003F0ACFA2AD8D849D148006803F0A6FB00
:1030000024D8D549D048006803F0A0FB1ED8D14988
:10301000CD48006803F09AFA18D8D0480088401CC0
:1030200000B2CE4908800846B0F90000642813DBDE
:10303000CB480088401C00B2C94908800846B0F956
:103040000000032808DB0320088005E00020C349B6
:1030500008800120BE490870C248007804287DD14C
:10306000C148008858BBB148B0F90400009003F093
:1030700055FA019000F0C0FAAD49029003F0E2F871
:10308000039003F02BFA80B201460490A948FEF7A2
:1030900007FDA648B0F90600009003F03FFA019042
:1030A00000F02DFBA449029003F0CCF8039003F04C
:1030B00015FA80B2014604909E48FEF7F3FCAA4838
:1030C000008801282BD19948B0F91400009003F032
:1030D00025FA019000F090FA9549029003F0B2F8B9
:1030E000039003F0FBF980B2014604909148FEF78B
:1030F000D7FC8E48B0F91600009003F00FFA01904B
:1031000000F0FDFA8C49029003F09CF8039003F064
:10311000E5F980B2014604908648FEF7C3FC924868
:10312000008802285DD18148B0F92000009003F0AA
:10313000F5F9019000F060FA7D49029003F082F801
:10314000039003F0CBF980B2014604907948FEF772
:10315000A7FC7648B0F92200009000E071E003F08F
:10316000DDF9019000F0CBFA7349029003F06AF8A0
:10317000039003F0B3F980B2014604906D48FEF766
:1031800091FC6E496E48006803F0E0F923D86D4960
:103190006B48006803F0DAFA1DD86A496A4800688B
:1031A00003F0D4FA17D865496748006803F0CEF9F0
:1031B00011D866480088401C00B26449088008465F
:1031C000B0F90000C8280CDB002061490870C82055
:1031D0005E49088005E000205C49088001205C49C8
:1031E00008705C495648006803F0B0F92AD85A497B
:1031F0005348006803F0AAFA24D857495248006897
:1032000003F0A4FA1ED853494F48006803F09EF912
:1032100018D856480088401C00B254490880084617
:10322000B0F90000642813DB4F480088401C00B24E
:103230004D4908800846B0F90000022808DB02204A
:10324000088005E0002049490880012040490870B5
:1032500044480078052867D14548008858B144485B
:103260000088042807D042480088082803D0404836
:1032700000880C282BD12D48B0F92400009003F0D1
:103280004DF9019000F0B8F92949029002F0DAFFF7
:10329000039003F023F980B2014604902548FEF71D
:1032A000FFFB2248B0F92600009003F037F90190A7
:1032B00000F025FA2049029002F0C4FF039003F0C9
:1032C0000DF980B2014604901A48FEF7EBFB28483E
:1032D000008801280BD026480088052807D02448FC
:1032E0000088092803D0224800880D2852D10F48B1
:1032F000B0F92800009003F011F9019000F07CF97A
:103300000B49029002F09EFF039003F0E7F880B2B1
:10331000014604900748FEF7C3FB0448B0F92A00B1
:10332000009003F0FBF825E03AE1000008020020DD
:103330000040B544000400400000B9440000404093
:1033400054020020000040C070020020040200204F
:10335000FC01002000002041000020C142020020AA
:103360004002002006020020440200204602002005
:1033700048020020019000F0C2F99049029002F04A
:1033800061FF039003F0AAF880B2014604908C48D4
:10339000FEF788FB8B48008802280BD089480088FC
:1033A000062807D0874800880A2803D08548008867
:1033B0000E282BD18448B0F93000009003F0AEF80D
:1033C000019000F019F98149029002F03BFF03904F
:1033D00003F084F880B2014604907948FEF760FB60
:1033E0007948B0F93200009003F098F8019000F0AD
:1033F00086F97249029002F025FF039003F06EF8FF
:1034000080B2014604906E48FEF74CFB6D48008880
:10341000032809D06B4800E0CDE00088072803D0DE
:10342000684800880B282BD16748B0F92C00009021
:1034300003F074F8019000F0DFF86449029002F0A4
:1034400001FF039003F04AF880B2014604905C4803
:10345000FEF726FB5C48B0F92E00009003F05EF802
:10346000019000F04CF95549029002F0EBFE0390F8
:1034700003F034F880B2014604905148FEF712FB85
:10348000504800880F285BD14F48B0F920000090C9
:1034900003F044F8019000F0AFF84C49029002F0BC
:1034A000D1FE039003F01AF880B20146049044481C
:1034B000FEF7F6FA4448B0F92200009003F02EF827
:1034C000019000F01CF93D49029002F0BBFE039010
:1034D00003F004F880B2014604903948FEF7E2FA9E
:1034E0003B493C48006803F031F823D83A49394851
:1034F000006803F02BF91DD837493848006803F0FD
:1035000025F917D832493548006803F01FF811D85B
:1035100033480088401C00B2314908800846B0F9A1
:103520000000C8280CDB00202E490870C8202C4958
:10353000088005E000202A490880012029490870F8
:1035400029492448006803F001F82AD8274921486E
:10355000006803F0FBF824D824492048006803F0F1
:10356000F5F81ED820491D48006802F0EFFF18D872
:103570001F480088401C00B21D4908800846B0F969
:103580000000322813DB0F480088401C00B20D49B0
:1035900008800846B0F900000F2808DB0F200880DB
:1035A00005E000201249088001200E490870012121
:1035B0001048FEF7B7FA05B000BD00000000B9449E
:1035C0000004004048020020080200200040B544EA
:1035D0000000404054020020000040C07002002063
:1035E00004020020FC01002000002041000020C156
:1035F0004A020020000800402DE9F04704468349B4
:10360000B1F9000002F08AFF0546214603F0CFF829
:103610007F4908607F4801687F48006802F0CAFF60
:1036200007467E4801687A48006803F0CBF8814677
:103630007B480168484602F0BDFF064674480168B1
:103640007848006802F0B6FF8046314602F0FAFD85
:103650000546394602F0F6FD734908607348006874
:103660000A2802DD002071490860694800686B493A
:103670006E4A126841F822006C480068401C6B4991
:1036800008606B496248006802F060FF0ED2694929
:103690005F48006803F05AF808D25D4801685E4848
:1036A000006802F0CFFD5C49086002E000205A4942
:1036B00008604FF081415648006802F047FF08D883
:1036C0005D495348006803F041F802D8002056498C
:1036D00008605A495448006802F038FF02D8574839
:1036E0005149086056495048006803F02FF802D845
:1036F00053484D4908604C480068BDE8F0872DE903
:10370000F04704464149B1F9020002F007FF0546BF
:10371000214603F04CF84B4908604B4801684B4880
:10372000006802F047FF074649484A4A126850F8C5
:1037300022104448006803F045F881464648016875
:10374000484602F037FF06463E4801684348006895
:1037500002F030FF8046314602F074FD05463946DE
:1037600002F070FD3E4908603A4800680A2802DD10
:10377000002038490860334801683548354A1268E6
:1037800040F8221033480068401C3249086028493C
:103790002C48006802F0DAFE0ED22649294800685B
:1037A00002F0D4FF08D2274801682848006802F0D8
:1037B00049FD2649086002E00020244908604FF0D6
:1037C00081412048006802F0C1FE08D81A491D480E
:1037D000006802F0BBFF02D80020214908601749A9
:1037E0001F48006802F0B2FE02D814481C49086065
:1037F00013491B48006802F0A9FF02D81048184975
:10380000086017480068BDE8F0870000000000204D
:1038100054020020600200206C020020700700208B
:10382000640200205C020020680200208C0200205C
:1038300000000C4200000CC2000080C0000048C321
:1038400000004843700200207C0200208802002013
:1038500098070020900200208002002078020020BB
:103860008402002008B501210420FDF7EDF90121B3
:103870003048FCF7FEFF48208DF803000220ADF829
:10388000000069462C48FCF723FF48208DF8030010
:103890000420ADF8000069462748FCF719FF4820CE
:1038A0008DF803000820ADF8000069462248FCF7B7
:1038B0000FFF48208DF803001020ADF80000694686
:1038C0001D48FCF705FF08BD10B502211A48FCF79A
:1038D00092FF70B104211848FCF78DFF48B1082110
:1038E0001548FCF788FF20B110211348FCF783FF2F
:1038F000F0B91E20FEF75BFB02210F48FCF77BFFAF
:1039000008B9012010BD04210B48FCF774FF08B969
:103910000220F7E708210848FCF76DFF08B90320EB
:10392000F0E710210448FCF766FF08B90420E9E736
:103930000020E7E700023000000801402DE9F041D7
:10394000FE48008880B9FFF7BFFF01280CD1FC4872
:103950000088401C00B2FA4908800846B0F900000F
:10396000062801DB00200880F448008801287DD16A
:10397000F34800880028FAD1FFF7A6FF01280CD1F0
:10398000F0480088401C00B2EE4908800846B0F9B3
:103990000000032801DB00200880EA48008800BB03
:1039A000FFF792FF022807D1E7480168E74800685F
:1039B00002F048FCE5490860FFF786FF032807D1BD
:1039C000E1480168E148006802F0FCFEDF49086058
:1039D0000021DE48006802F0B9FD02D80020DB4972
:1039E0000860D8480088012820D1FFF76DFF022821
:1039F00007D1D7480168D748006802F023FCD549B1
:103A00000860FFF761FF032807D1D1480168D1485A
:103A1000006802F0D7FECF4908600021CD48006859
:103A200002F094FD02D80020CA490860C548008809
:103A3000022822D1FFF748FF022807D1C6480168B3
:103A4000C648006802F0FEFBC4490860FFF73CFF6F
:103A5000032807D1C0480168C048006802F0B2FEE0
:103A6000BE4908600021BD48006800E005E002F0A2
:103A70006DFD02D80020B9490860B04800880128CF
:103A80007DD1AF480088012879D1FFF71DFF0128BB
:103A90000CD1AC480088401C00B2AA4908800846F6
:103AA000B0F90000032801DB00200880A548008849
:103AB00000BBFFF709FF022807D1A3480168A84807
:103AC000006802F0BFFBA6490860FFF7FDFE03286F
:103AD00007D19D480168A248006802F073FEA04922
:103AE000086000219E48006802F030FD02D80020E6
:103AF0009B49086093480088012820D1FFF7E4FE25
:103B0000022807D1924801689648006802F09AFBA3
:103B100094490860FFF7D8FE032807D18C48016854
:103B20009048006802F04EFE8E49086000218D48E2
:103B3000006802F00BFD02D800208A490860814825
:103B40000088022822D1FFF7BFFE022807D1824851
:103B500001688548006802F075FB83490860FFF73B
:103B6000B3FE032807D17C4801687F48006802F053
:103B700029FE7D49086000217B48006800E005E0DF
:103B800002F0E4FC02D80020774908606B48008806
:103B900001287DD16A4800880228FAD1FFF794FEF7
:103BA00001280CD167480088401C00B26549088094
:103BB0000846B0F90000032801DB002008806148B6
:103BC000008860BBFFF780FE02280DD15E480068C8
:103BD00002F00CFB0646654A654B01F061FD0446A8
:103BE00001F02CFD58490860FFF76EFE03280DD147
:103BF0005548006802F0FAFA06465C4A5C4B02F04F
:103C00000BFA044601F01AFD4F49086000214E48A6
:103C1000006802F09BFC02D800204B49086049482C
:103C2000008801282CD1FFF74FFE02280DD14A4809
:103C3000006802F0DBFA06464C4A4D4B01F030FDBD
:103C4000044601F0FBFC44490860FFF73DFE0328F1
:103C50000DD14148006802F0C9FA0646434A444B78
:103C600002F0DAF9044601F0E9FC3B490860002162
:103C70003948006802F06AFC02D800203649086022
:103C80003048008802282ED1FFF71EFE022800E0EF
:103C900029E00DD12E48006802F0A8FA0646334A02
:103CA000334B01F0FDFC044601F0C8FC28490860D4
:103CB000FFF70AFE03280DD12548006802F096FAA6
:103CC00006462A4A2A4B02F0A7F9044601F0B6FC40
:103CD0001F49086000211E48006802F037FC02D826
:103CE00000201B4908601548008801287ED114482F
:103CF000008804287AD1FFF7E7FD01280CD111488C
:103D00000088401C00B20F4908800846B0F9000046
:103D1000062801DB002008801648007860BB0948AF
:103D2000008840B9FFF7D0FD022804D101201149D5
:103D30000870FEF7CCFA034800881EE096020020C7
:103D400094020020980200209C0200205C020020C7
:103D5000A402002060020020A002002064020020D3
:103D6000780200207C020020800200202D431CEB02
:103D7000E2361A3F060200204FE001280AD1FFF781
:103D8000A3FD022806D1FD4908700020FC490880E7
:103D9000FEF79DFAFB48008802280BD1FFF794FD3F
:103DA000022807D10320F54908700020F649088051
:103DB000FEF78DFAF348008803280BD1FFF784FD46
:103DC000022807D10420ED4908700020EF4908803F
:103DD000FEF77DFAEB48008804280DD1FFF774FD4B
:103DE000022809D10520E549087000E014E0002010
:103DF000E7490880FEF76BFAE248008805281AD1E7
:103E0000FFF762FD022816D10620DC490870002069
:103E1000E0490880FEF75BFA0DE0FFF755FD032847
:103E200009D10020D5490870FEF751FA0020DA497F
:103E30000860DA490880DA48008801287ED1D9482C
:103E400000880528FAD1FFF73FFD01280CD1CD48A5
:103E50000088401C00B2CB4908800846B0F9000039
:103E6000042801DB00200880C6480088F8B9FFF765
:103E70002BFD022804D1CC480078401CCA490870A8
:103E8000FFF722FD032804D1C7480078401EC64929
:103E90000870C5480078012802DC0120C24908707A
:103EA000C14800780A2802DB0A20BF490870B548DB
:103EB000008801281FD1FFF707FD022804D1BB4865
:103EC0000078401CB9490870FFF7FEFC032804D1B4
:103ED000B6480078401EB5490870B44800780128FB
:103EE00002DC0120B1490870B04800780A2802DBE2
:103EF0000A20AE490870A3480088022821D1FFF7A4
:103F0000E3FC022804D1AA480078401CA8490870A4
:103F1000FFF7DAFC032804D1A5480078401EA44925
:103F20000870A3480078012802DC0120A04908702D
:103F30009F4800780A2804DB0A2000E025E09C491D
:103F400008709048008803281FD1FFF7BDFC0228A5
:103F500004D198480078401C96490870FFF7B4FCDB
:103F6000032804D193480078401E92490870914874
:103F70000078012802DC01208E4908708D48007805
:103F80000A2802DB0A208B490870BDE8F08138B5A9
:103F90008448008800286FD17A48B0F9000020B129
:103FA000012824D0022866D143E083A200210846DC
:103FB000FEF7A9FB8248012102681220FEF7ECFA05
:103FC00080A202210020FEF792FA804803210268B5
:103FD0001220FEF7E1FA7EA204210020FEF787FA04
:103FE0007D48052102681220FEF7D6FA43E072A24E
:103FF00000210846FEF77BFA714801210268122071
:10400000FEF7CAFA6FA202210020FEF77CFB6F4880
:10401000032102681220FEF7BFFA6DA204210020DE
:10402000FEF765FA6C48052102681220FEF7B4FA23
:1040300021E061A200210846FEF759FA60480121FB
:1040400002681220FEF7A8FA5EA202210020FEF705
:104050004EFA5E48032102681220FEF79DFA5CA228
:1040600004210020FEF74FFB5B4805210268122067
:10407000FEF792FA00BF00BF4A48008801286FD1BE
:104080004048B0F9000020B1012824D0022866D1B0
:1040900043E052A200210846FEF735FB51480121BA
:1040A00002681220FEF778FA4FA202210020FEF7E4
:1040B0001EFA4F48032102681220FEF76DFA4DA246
:1040C00004210020FEF713FA4C4805210268122053
:1040D000FEF762FA43E041A200210846FEF707FA24
:1040E0004048012102681220FEF756FA3EA2022142
:1040F0000020FEF708FB3E48032102681220FEF76D
:104100004BFA3CA204210020FEF7F1F93B480521BF
:1041100002681220FEF740FA21E030A20021084692
:10412000FEF7E5F92F48012102681220FEF734FA64
:104130002DA202210020FEF7DAF92D4803210268A2
:104140001220FEF729FA2BA204210020FEF7DBFA49
:104150002A48052102681220FEF71EFA00BF00BFA0
:104160001048008802287CD10648B0F9000020B130
:10417000012867D0022864D188E041E006020020CF
:104180003C0200209802002040020020440200204F
:10419000480200204C0200200002002004020020FF
:1041A00096020020940200205002002051020020BC
:1041B00052020020530200204B705F583A0000006A
:1041C0005C0200204B695F583A000000600200204A
:1041D0004B645F583A000000640200204B705F5946
:1041E0003A000000780200204B695F593A00000055
:1041F0007C0200204B645F593A00000080020020DE
:10420000FEA200210846FEF77EFAFE480121026860
:104210001220FEF7C1F9FCA202210020FEF767F987
:10422000FB48032102681220FEF7B6F9F9A2042127
:104230000020FEF75CF9F948052102681220FEF71C
:10424000ABF945E0EDA200210846FEF750F9ED4834
:10425000012102681220FEF79FF9EBA20221002043
:1042600000E036E0FEF74FFAE94803210268122029
:10427000FEF792F9E7A204210020FEF738F9E7489B
:10428000052102681220FEF787F921E0DBA2002158
:104290000846FEF72CF9DB48012102681220FEF7E0
:1042A0007BF9D9A202210020FEF721F9D848032189
:1042B00002681220FEF770F9D6A204210020FEF752
:1042C00022FAD648052102681220FEF765F900BFE0
:1042D00000BFD348008803281DD1D2A20021084680
:1042E000FEF705F90C200090CF48B0F90020032319
:1042F00000211420FEF7B9F8CCA203210020FEF71C
:10430000F6F80C200090C848B0F9022003231946A3
:104310001420FEF7AAF8C248008804287DD1C448BA
:10432000007800287AD1C348B0F90000062822D2CC
:10433000DFE800F00322416082A1BFA2002108460D
:10434000FEF7E1F9BEA201210020FEF7D0F8BEA2DF
:1043500002210020FEF7CBF8BDA203210020FEF7CA
:10436000C6F8BDA204210020FEF7C1F8BCA20521B9
:104370000020FEF7BCF89DE0AFA200210846FEF742
:10438000B6F8AFA201210020FEF7BDF9AEA20221CE
:104390000020FEF7ACF8AEA203210020FEF7A7F83C
:1043A000ADA204210020FEF7A2F8ADA20521002055
:1043B000FEF79DF87EE0A0A200210846FEF797F8E0
:1043C0009FA201210020FEF792F89FA20221002067
:1043D000FEF799F99EA203210020FEF788F89EA21D
:1043E00004210020FEF783F89DA205210020FEF79E
:1043F0007EF85FE090A200210846FEF778F890A2D0
:1044000001210020FEF773F88FA202210020FEF7A1
:104410006EF88FA20321002001E08EE04BE0FEF752
:1044200072F98DA204210020FEF761F88CA205210B
:104430000020FEF75CF83DE07FA200210846FEF771
:1044400056F87FA201210020FEF751F87EA202213A
:104450000020FEF74CF87EA203210020FEF747F86B
:104460007DA204210020FEF74EF97DA20521002047
:10447000FEF73DF81EE070A200210846FEF737F86F
:104480006FA201210020FEF732F86FA20221002066
:10449000FEF72DF86EA203210020FEF728F86EA289
:1044A00004210020FEF723F86DA205210020FEF76D
:1044B0002AF900BF41E06CA202210A20FEF717F89A
:1044C0006B48006802F02AF805466A4901F028FFA7
:1044D0000446224603213220FEF75EF85448007855
:1044E000072829D2DFE800F028040A10161C220051
:1044F00061A200210846FDF7FAFF1DE063A200213A
:104500000846FDF7F4FF17E065A200210846FDF715
:10451000EEFF11E067A200210846FDF7E8FF0BE07F
:1045200069A200210846FDF7E2FF05E06AA200212A
:104530000846FDF7DCFF00BF00BF394800880528AA
:104540005AD13C48B0F9000030B101283DD00228D2
:1045500053D0032838D13BE164A200210846FEF77E
:10456000D2F80C20022300906148027800210E202E
:10457000FDF77BFF5FA202210020FDF7B8FF0C20B2
:10458000022300905C48027819460E20FDF76DFF6B
:104590005AA204210020FDF7AAFF0C20022300905C
:1045A0005748027804210E20FDF75FFF55A206212F
:1045B0000020FDF79CFF0C20022300905248027857
:1045C00006210E20FDF751FF3FE148A200210846D9
:1045D000FDF78DFF0C200223009045480278002152
:1045E0000E20FDF742FF43A202210020FEF78BF8C8
:1045F0000C200223009089E028E1ACE04B705F6161
:1046000064643A009C0200204B645F6164643A0079
:10461000A00200204B695F6164643A00A40200209C
:1046200094020020583A000000000020593A00008F
:1046300006020020980200204D4F4445490000002A
:104640004D4F4445494900004D4F444549494900B3
:104650004D4F4445495600004D4F4445560000001B
:104660004D4F44455649000054494D453A0000001D
:10467000000200200000C8424D4F4445495F52559A
:104680004E494E472E2E2E2E000000004D4F444521
:1046900049495F52554E494E472E2E2E00000000CC
:1046A0004D4F44454949495F52554E494E472E2E7C
:1046B0002E0000004D4F444549565F52554E494E1D
:1046C000472E2E2E000000004D4F4445565F525598
:1046D0004E494E472E2E2E004D4F444556495F52AF
:1046E000554E494E472E2E2E00000000413A000044
:1046F00050020020423A000051020020433A0000DC
:1047000052020020443A000053020020C9480278B7
:1047100019460E20FDF7A9FEAFF220020421002069
:10472000FDF7E5FE0C2002230090C3480278042127
:104730000E20FDF79AFEAFF2340206210020FDF7AD
:10474000D6FE0C2002230090BC48027806210E20E1
:10475000FDF78BFE79E0AFF26C0200210846FDF711
:10476000C6FE0C2002230090B548027800210E20DE
:10477000FDF77BFEAFF2840202210020FDF7B7FEB9
:104780000C2002230090AB48027819460E20FDF75A
:104790006CFEAFF2980204210020FDF7B4FF0C205C
:1047A00002230090A448027804210E20FDF75DFE4C
:1047B000AFF2B00206210020FDF799FE0C20022383
:1047C00000909E48027806210E20FDF74EFE3CE048
:1047D000AFF2E80200210846FDF789FE0C20022313
:1047E00000909748027800210E20FDF73EFEAFF2C0
:1047F000FC0202210020FDF77AFE0C20022300902B
:104800008C48027819460E20FDF72FFEAFF21412E5
:1048100004210020FDF76BFE0C2002230090864847
:10482000027804210E20FDF720FEAFF228120621A7
:104830000020FDF768FF0C20022300907F480278DB
:1048400006210E20FDF711FE00BF00BF38BD10B5D8
:104850007C48B0F90000062822D2DFE800F00322ED
:1048600041607F9E78A200210846FDF74CFF78A2A8
:1048700001210020FDF73BFE77A202210020FDF779
:1048800036FE79A203210020FDF731FE78A2042133
:104890000020FDF72CFE7AA205210020FDF727FE5F
:1048A0009AE069A200210846FDF721FE68A20121D5
:1048B0000020FDF728FF68A202210020FDF717FE67
:1048C00069A203210020FDF712FE69A20421002045
:1048D000FDF70DFE6AA205210020FDF708FE7BE032
:1048E00059A200210846FDF702FE59A2012100202D
:1048F000FDF7FDFD58A202210020FDF704FF5AA29A
:1049000003210020FDF7F3FD59A204210020FDF74B
:10491000EEFD5BA205210020FDF7E9FD5CE04AA267
:1049200000210846FDF7E3FD49A201210020FDF723
:10493000DEFD49A202210020FDF7D9FD4AA2032194
:104940000020FDF7E0FE4AA204210020FDF7CFFD84
:104950004BA205210020FDF7CAFD3DE03AA200214F
:104960000846FDF7C4FD3AA201210020FDF7BFFD76
:1049700039A202210020FDF7BAFD3BA2032100204D
:10498000FDF7B5FD3AA204210020FDF7BCFE3CA2D4
:1049900005210020FDF7ABFD1EE02BA200210846FB
:1049A000FDF7A5FD2AA201210020FDF7A0FD2AA206
:1049B00002210020FDF79BFD2BA203210020FDF723
:1049C00096FD2BA204210020FDF791FD2CA20521CC
:1049D0000020FDF798FE00BF00BF10BD10B52B48AA
:1049E000008860B9FFF733FFFEF7A8FFFEF76CFF02
:1049F000042804D1012025490880FDF768FC2348DC
:104A00000088012814D1FFF7C2FAFEF797FFFEF7DE
:104A10005BFF04280CD100201C4908801C49088039
:104A20001C4908701C4908601C490880FDF74FFCB0
:104A300010BD00005102002052020020530200204D
:104A40005002002094020020312E5049445F58004B
:104A5000322E5049445F5900332E5049445F494E2D
:104A60004352454D454E5400342E585F59000000C6
:104A7000352E4D4F44455F43484F494345000000A4
:104A8000362E504C4143455F53455400960200205A
:104A900098020020060200200002002004020020EC
:104AA0007047704770477047704710B500F008F8BE
:104AB000006810BD10B5044600F002F8046010BD97
:104AC00000487047C007002000487047C00700201A
:104AD0007546FFF7F9FFAE4605006946534620F0DC
:104AE0000700854618B020B5FBF712FDBDE8204051
:104AF0004FF000064FF000074FF000084FF0000B9A
:104B000021F00701AC46ACE8C009ACE8C009ACE84C
:104B1000C009ACE8C0098D4670470446AFF3008079
:104B20002046FBF76CFB490050EAC12018BF042067
:104B30004A0D18BF40F0010040F2FF72B2EB515F26
:104B400008BF40F00200012808BF052070472DE98A
:104B5000F0414F1E00EBC7010446D1E900011546A4
:104B60001E4637F006020DD02A46334601F02EF8D5
:104B70007F1E04EBC703D3E9002300F091FD37F05B
:104B80000602F1D1022F25D0042F13D0062F18BF13
:104B9000BDE8F0812A46334601F018F8D4E90A232B
:104BA00000F07EFD2A46334601F010F8D4E90823D0
:104BB00000F076FD2A46334601F008F8D4E90623D2
:104BC00000F06EFD2A46334601F000F8D4E90423D4
:104BD00000F066FD2A46334600F0F8FFD4E90223D0
:104BE00000F05EFD2A46334600F0F0FFD4E90023D2
:104BF000BDE8F04100F054BD0022134610460149C3
:104C000000F00ABE0000F03F00F04ABD002213464B
:104C10001046114600F000BE40F2013200204FF075
:104C2000E04101F076BE0000024A0020110701F0C9
:104C300070BE000001FDFFFF2DE9F04D16460F4646
:104C400094B01C4621F0004123F00042002814BF1C
:104C50004FF0010C4FF0000C0CEB470CFE4B0CEB33
:104C600003054FEA630C65452BD3350018BF0125BA
:104C700005EB44051D44F94B9D4222D3F84B52EA03
:104C8000060C02D09F4205D148B914B00020194645
:104C9000BDE8F08D002808BF4FF0000C01D04FF0A8
:104CA000010C0CEB470313F5001F0AD8002E14BFAC
:104CB0004FF0010C4FF0000C0CEB440313F5001FF8
:104CC00007D914B0324623463946BDE8F04DFFF708
:104CD0009BBFDFF890834FF0000A002FB8BF42451A
:104CE00023DAE14B9A42A8BF4FF0020A1DDADC4BEF
:104CF00093421ADCDD4B03EB2253142B08DDC3F186
:104D0000340C26FA0CF303FA0CFCB4450DD108E080
:104D10005EB9C3F1140C22FA0CF303FA0CFC9445AF
:104D200003D103F00103C3F1020A51EA00031BD1CE
:104D3000002C19DA002F18BFBAF1020F02D0BAF115
:104D4000010F07D00220FFF7B5FE14B0BDE8F04D0B
:104D5000FFF752BF0220FFF7ADFEFFF74DFF14B083
:104D600081F00041BDE8F08D330070D1424525D17E
:104D700007F1804212F5801201BF00280020B849D7
:104D800014B008BFBDE8F08DB548884207DC002CA0
:104D9000A1BF1846214614B0BDE8F08D07E0002CF5
:104DA000BFBF184684F0004114B0BDE8F08DB04993
:104DB0007944D1E9000114B0BDE8F08DDFF8A0C25C
:104DC00062452AD1002C24DA39B1414517D1002897
:104DD00004BF002002461CD106E040B10220FFF7CC
:104DE00069FEFFF719FF0A46394600F0D7BA9D4A17
:104DF000394614B0002062F31E01BDE8F08D08DAD8
:104E000014B03B46BDE8F04D02460020614600F07C
:104E100003BD14B03946BDE8F08D414517DAB4F151
:104E2000804F0CD0A4F10053B3F1FF530FD13B1EC0
:104E30000DDB14B01946BDE8F04D00F0D9BB3B4680
:104E400014B00246BDE8F04D194600F0BFBE0500A3
:104E500027F000433AD1E1B1414537D1002F06DDBB
:104E6000002CA1BF0020414614B0BDE8F08D002FFA
:104E700001DD002C1FDB002F16DA002C14DBBAF149
:104E8000010F4FF0000014BF76497A4914B0BDE815
:104E9000F08DBAF1020F18BF002F0CD0BAF1010F3C
:104EA00009D1002F07DA0BE0002FB8BF002C0DDA74
:104EB000BAF1010F04D0002014B00146BDE8F08D16
:104EC00014B000204FF00041BDE8F08D4FF0010814
:104ED00008EBE77CCDF814C05CEA0A0C0DD0DFF8D3
:104EE00098C162457EDDDFF894C1654B624512DDF5
:104EF0008B420ADB002C18DB23E00120FFF7DAFDF0
:104F000014B0BDE8F04DFFF781BE554A8A4202DC7D
:104F1000002C0ADC15E0994202DA002C11DA04E0D8
:104F20004F4B994219DD002C0BDD0220FFF7C2FD2B
:104F3000FFF772FE4B4A14B061F31E021146BDE842
:104F4000F08D0220FFF7B6FDFFF76EFE444A14B065
:104F500061F31E021146BDE8F08D0022394601F0D2
:104F60005BF807460D466FF0010201F0D2FC4FF0EE
:104F70005532444B00F05EFF3A462B4600F026FEC9
:104F80000022414B00F056FF80468B463A462B46A6
:104F90001046194600F01AFE42465B4600F016FE27
:104FA00088460E904FF0C042384B3846294600F0F4
:104FB0000DFE83460091364A344B41460E9800F070
:104FC00005FE80460191334A334B3846294600F0AE
:104FD000FDFD4246019B01F01FF80D4602460B46BF
:104FE0000C9000E011E05846009900F059FB0027B2
:104FF00088465A463846009B01F00EF82B460C9A1C
:1050000000F018FF024600F079B90020B1F5801FCA
:1050100007DA35222846194601F07BFC05466FF079
:10502000340000EB2150A0F2FF300190C1F31300D7
:1050300040F07F6141F04051029118498842D8BF49
:105040004FF0000B35DD16498142C8BF4FF0010B10
:105050002FDC4FF0000B25E0FFFF1F00FFFF0F00CC
:105060000000F03F0000F07F0000404301FCFFFF24
:105070008C2400000000F0FF0000E0410000F0433D
:10508000FFFFEF3F5555D53F0000E03F4715F73F85
:10509000FE822B6544DF5DF80BAE543E8E98030014
:1050A0007AB60B000198401C01900298A0F5801080
:1050B0000290FF480299784400EBCB000991D0E9B7
:1050C000002328460B93129200F0A6FF00910A904D
:1050D00028460B9B129A099900F0E2FA02460B4609
:1050E0000020F44900F098FBCDE90C010B46024684
:1050F00000990A9800F06AFD0690EF48884600275C
:1051000078440299006810904FF0005040EA610026
:1051100000EB8B4000F5002102910B9B129A109836
:1051200000F07AFF2A46099B00F084FE3A46434687
:1051300000F04CFD0891129038464146029B109AAF
:1051400000F044FD009B0A9A00F074FE089B129A3E
:1051500000F062FFDDE90C2300F038FD0B91069AA8
:10516000129043461046194600F030FD05460246AF
:10517000D2480B460A9106217844FFF7E8FC0A9BC7
:105180002A46089102901046194600F01FFD089B20
:10519000029A00F01BFD0546099143463846194620
:1051A000069A00F07DFA0B9B129A00F00FFD2A463A
:1051B000099B00F075FACDE908013A4643461046CE
:1051C000194600F003FD0A910022BD4B009000F04B
:1051D00067FADDE9082300F063FA0D463A46B84B5A
:1051E000384600F019FF0A9B009A00F015FFDDE930
:1051F000082300F01FFECDE908013A462B46104671
:10520000414600F0E3FC00910A90DDE908014346C5
:10521000069A00F0DBFC069088462B463A460B992E
:10522000129800F0D3FC4346069A00F039FA804603
:105230000B4602460D9100990A9800F031FA0020C1
:105240000F460546009B0A9A00F0E6FE42460D9B7B
:1052500000F0F0FD88460E904FF06042994B2846D2
:10526000394600F0B3FC02910090974A954B4146B5
:105270000E9800F0ABFC80460391944A944B28466C
:10528000394600F0A3FC4246039B00F009FA914A1C
:105290007A4402EBCB03D3E9002300F001FA054680
:1052A0000791019800F03FFC0C9003912A46079B60
:1052B0000299009800F0F4F9874A7A4402EBCB0394
:1052C000D3E900239346019300F0EAF9039B0C9A7B
:1052D00000F0E6F9002788463846039B0C9A00F058
:1052E0009BFE5A46019B00F097FE029B009A00F03D
:1052F00093FE2A46079B00F09DFD02460020069083
:1053000005986C4DAAF10103184301D1734D069025
:1053100000200B4604903046214600F057FC8246A0
:105320008B46234630461946049A00F075FE3A46ED
:10533000434600F04BFC52465B4600F0B1F906468E
:105340008A463A4643462146049800F03FFC04460C
:105350000F463246534600F0A3F9614A8B4691420C
:1053600021DBABEB020353EA000210D122463B469D
:1053700000F052FE804603915A4A5B4B304651463C
:1053800000F08EF94246039B00F01EFD27D202205A
:10539000FFF790FBFFF740FC0A46294614B062F382
:1053A0001E01BDE8F08D514B2BF000429A4216D3FE
:1053B0004F4A0BEB020353EA000208D122463B4658
:1053C00000F02AFE3246534600F0FEFC07D80220C9
:1053D000FFF770FBFFF728FC0A462946DEE72BF0B3
:1053E00000404449444A01EB20514FF000088242FA
:1053F00023DA481C4FF4801121FA00F058443F4A48
:10540000C0F30A517A443E4BA1F2FF31CB4020EA6F
:105410000303C0F3130040F4801CC1F114001268B0
:105420002CFA00F8BBF1000FB8BFC8F10008204605
:10543000394600F0F1FD04460F4622463B46304611
:10544000514600F02DF94FF0000B5A462D4B5846AF
:10545000039100F0BBFB00910A902B4A2B4B58465E
:10546000039900F0B3FB0491029022463B46584654
:10547000039900F0D1FD3246534600F0DBFC244A8C
:10548000244B00F0A3FB049B029A00F009F90746A5
:105490008A46009B0A9A00F003F904460E46009BD8
:1054A0000A9A00F0B9FD3A46534600F0C3FC33E0D7
:1054B000FE2000000000F03F3C2100006C200000B6
:1054C0000000084009C7EE3FFD033ADCF5015B141C
:1054D000E02F3EBE441F00000A1F00000000F0BF86
:1054E00000009040FE822B654715973C00CC904011
:1054F00000346F3F01FCFFFF0000E03F381E00005A
:10550000FFFF0F00432EE63F396CA80C615C20BE04
:10551000EF39FAFE422EE63F0746224633460F9108
:105520001046194600F052FB834602462E488A4632
:105530000B4605217844FFF70AFB5A46534600F014
:1055400045FB2246334600F075FC82468B463A46C0
:10555000204631460F9B00F039FB3A460F9B00F086
:105560009FF80F460A9000224FF08043504659465C
:1055700000F052FD0391009052465B4620463146B2
:1055800000F024FB039B009A00F046F93B460A9A80
:1055900000F042FD2246334600F03EFD0022134B50
:1055A00000F048FC0E46044601EB0851081500289F
:1055B00010DC42462046314601F0ABF9FFF7B3FA62
:1055C000042808BFFFF730FB42462046314601F071
:1055D000A0F9044606980B4614B022462946BDE8B9
:1055E000F04D00F0F3BA0000E01C00000000F03FB6
:1055F0002DE9F04106460F4600F028FC04000D4658
:1056000018BF0120284320F00040C0F17F6000F166
:10561000E040C00F0ED0301C18BF0120384320F0EE
:105620000040C0F17F6000F1E040C00F04BF0120E6
:10563000FFF740FA20462946BDE8F08121F00042FC
:10564000A2F16052B2F5801F01F0004328BFD2F1F1
:105650007F6C0BD95FEA001C43EAC20242EB507038
:1056600018BF704728BF20F001007047B2F5801FB7
:10567000BCBF184670474FEA410C1CF5001F02D210
:10568000084601F05EB870B500F04AFB00000089E2
:10569000FFF7F6BF4FF00040A0F580007047000014
:1056A00010B591EA030F48BF83F0004300F1BC84BA
:1056B000841A71EB030C05D2121943EB0C03001B87
:1056C00061EB0C01DFF824E14FEA1154A4EB135C09
:1056D0001EEA430F18BF9EEA445F73D023EA0E030D
:1056E000DCF1200E21EA045143F4801332D322FA74
:1056F0000CFE10EB0E0023FA0CFE41EB0E01CCF178
:10570000200E03FA0EFE10EB0E0051F10001B1F570
:10571000801FCCF1200E32D201EB045112FA0EF2AE
:10572000BDE8104058BF7047401C38BF5FEA4202D6
:1057300018BF7047002814BF20F0010041F100019C
:105740004FEA410313F5001F38BF7047A1F1C04174
:1057500000F034BB012A43EB0302ACF1200CDCF176
:105760001F0E32BF4FF0000E23FA0CF310EB0300B4
:1057700041EB0451B4EB115FD0D0A1EB045101F522
:10578000801149085FEA300001EB04510ED350F15B
:10579000000038BF12FA0EFE08D1BDE81040C9E77C
:1057A000401C38BF5FEA4202CAD1C3E7BDE81040DF
:1057B0004FEA410313F5001F38BF7047A1F1C04104
:1057C00000F0FCBA9EEA445F08D011EA5E0FBDE823
:1057D000104004BF01F0004100207047BDE81040B8
:1057E00070B500F09DFA00BF64FBBE3E0000E0FF14
:1057F00002494FF0000001F05AB800BF0000F87FE6
:10580000491058BFC1F140415B1058BFC3F140433C
:105810008B42EFF3008070472DE9C04130B4DFF8D0
:10582000A0C23CEA111418BF3CEA131400F0EC804B
:1058300081EA03051CEA111444EAD57418BF1CEA76
:10584000131500F0C780A4EB05044FF0004545EAAE
:10585000C12145EAC32341EA505143EA525304F1BE
:105860007F74994204F500344FEAC0204FEAC22207
:1058700008BF904200F09C804FEA13650FF240167B
:10588000765D4FEA134506FB05F7C7F1807706FB07
:1058900007F74FEAD737A7FB03687642C8F5803889
:1058A000A7FB06CE38BFA8F1010807FB08E64FF0BA
:1058B000000EA6FB028CE6FB03CEDCF1000CCEF161
:1058C000004E38BFAEF1010EA6FB0C584FF000079A
:1058D0004FF00005E6FB0E87A1FB08C6A0FB07CE34
:1058E00016EB0E0645F10005E1FB076515F1E04EEC
:1058F0007EBFA4F580345FEA46066D4116F180074D
:1059000045F100054FEA17274FEA066647EA0567A3
:10591000A6F1DE46B6F1805F4FEA15251FD938465D
:1059200024F0010C05EBC471BCF1FE6F01EB0C110E
:1059300002D8F0BCBDE8008124425CBF01F5801EA6
:105940009EEAC47F02D4F0BCBDE80081244238D472
:10595000F0BCA1F1C041BDE8004100F02FBA4FEA10
:10596000D22242EA43524FEAD323A7FB02864FEAF0
:10597000D02040EA415007FB03661EEA0E0F4FEAB3
:10598000D12105FB026658BFA6EB0056B6EB0056C8
:105990004FEA520E4EEAC37E18EB0E0E56EB530E34
:1059A000BDD518EB02085E417F1C55F10005B6E736
:1059B0004FF480154FF000074FF000064FF000083D
:1059C000ADE7F0BC4FF0000001F1C04101F0004133
:1059D000BDE8008111EA0C1F0CEA131500D00CE0A1
:1059E00013EA0C1F00F025804FF00000F0BC81EAA4
:1059F000030101F00041BDE80081F0BCBDE80041B9
:105A000081EA030100F0DAB9F0BCBDE8004170B5ED
:105A100000F086F9097EFC3E00F007B881EA030138
:105A20004FF0000001F00041704781EA030100F0EF
:105A3000C5B9F0BCBDE800414FF0000021497047F6
:105A4000FFFDFBF9F7F5F4F2F0EEEDEBE9E8E6E443
:105A5000E3E1E0DEDDDBDAD8D7D5D4D3D1D0CFCDCA
:105A6000CCCBCAC8C7C6C5C4C2C1C0BFBEBDBCBB03
:105A7000BAB9B8B7B6B5B4B3B2B1B0AFAEADACABFE
:105A8000AAA9A8A8A7A6A5A4A3A3A2A1A09F9F9ED8
:105A90009D9C9C9B9A99999897979695959493938A
:105AA000929191908F8F8E8E8D8C8C8B8B8A898921
:105AB00088888787868585848483838282818180A4
:105AC0000000FF070000F87F4FEA41034FEA5353FD
:105AD000A3F58063D3F11E03C8BFD3F1210C0CDD05
