:020000040800F2
:100000004018002051060008550400085704000855
:100010005B0400085F04000863040008000000009F
:10002000000000000000000000000000670400085D
:1000300069040008000000006B0400086D0400085B
:100040006B0600086B0600086B0600086B060008CC
:100050006B0600086B0600086B0600086B060008BC
:100060006B0600086B0600086B0600086B060008AC
:100070006B0600086B0600086B0600086B0600089C
:100080006B0600086B0600086B0600086B0600088C
:100090006B0600086B0600086B0600086B0600087C
:1000A0006B0600086B0600086B0600086B0600086C
:1000B0006B0600086B0600086B3900086B06000829
:1000C0006B0600086B0600086B0600086B0600084C
:1000D0006B0600081B2200086B0600086B06000870
:1000E0006B0600086B0600086B0600086B0600082C
:1000F0006B0600086B0600086B0600086B0600081C
:100100006B0600086B0600086B0600086B0600080B
:100110006B0600086B0600086B0600086B060008FB
:100120006B0600086B0600086B0600086B060008EB
:1001300000F002F800F06AF80AA090E8000C82448F
:100140008344AAF10107DA4501D100F05FF8AFF26C
:10015000090EBAE80F0013F0010F18BFFB1A43F0A5
:1001600001031847E07D0000007E00000A444FF0C4
:10017000000C10F8013B13F0070408BF10F8014B06
:100180001D1108BF10F8015B641E05D010F8016B4B
:10019000641E01F8016BF9D113F0080F1EBF10F8AF
:1001A000014BAD1C0C1B09D16D1E58BF01F801CBD2
:1001B000FAD505E014F8016B01F8016B6D1EF9D555
:1001C0009142D6D37047000000230024002500266A
:1001D000103A28BF78C1FBD8520728BF30C148BFAA
:1001E0000B607047662907F02881642904F0D083EA
:1001F000002070471FB504F0D9FF04000020002143
:1002000006F0D8F8E0601FBD10B510BD05F0CEF8BF
:100210001146FFF7EFFF00F009F805F0ECF803B422
:10022000FFF7F2FF03BC01F09DFF000086B001F074
:100230002FFF4FF4A06000F02BFA4FF4E13001F0F3
:10024000A0FF724802F090FE03F043FE03F0BFFDF2
:1002500003F0F0FA42F20F7141F61F4003F058FB31
:100260006B48008820F001006949088004F00AF812
:1002700037E003F0E2F867486749009008784023C8
:100280001A46002102F082FA03F010F963490220B5
:1002900003F0C4FB62490968604A1268881A0028A2
:1002A00001DB014600E041425E4A126891420FDDE7
:1002B0000A2001F02AFF58480068401C564908608F
:1002C00008460068642806DD00205749086002E0FF
:1002D00019205149086003F0BEFA10B100205249BC
:1002E0000860514800680028C3D18DE002F032FE5A
:1002F00003F0B1FA044602F047FE4849022003F039
:100300008DFB4A49032003F089FB444800680490B0
:1003100046480068059046480068002808DD4548C2
:10032000006828B94248DDE90412006803F0E2FFE2
:1003300040480068002814DD3D48006888B93D4801
:100340000068012806D13B48DDE90412006803F08B
:10035000D1FF06E03748DDE904120068C01C03F055
:10036000C9FF33480068002803DC324800680028D1
:1003700006DD2748008840F001002549088008E094
:1003800000202D4908602248008820F00100204903
:1003900008802A48006801280CD12548006848B91F
:1003A0002448006830B9DDE9040104F024F8244948
:1003B000086002E000202149086022480068012806
:1003C0000CD11C48006848B91948006830B9DDE90B
:1003D000040104F0BFF81C49086002E0002019493C
:1003E00008601A48006801280ED11248006858B900
:1003F0000F48006840B901A8DDE9041204F0E0F9F3
:10040000134801A90EC90EC070E70000C4090020FE
:10041000000800402C0000200800002014000020EC
:1004200000000020040000205002002018000020DE
:10043000480200204C020020CC0B00203802002093
:100440003C02002040020020440200205402002010
:100450003C0C0020704700BFFEE700BFFEE700BF76
:10046000FEE700BFFEE77047704770477047000027
:100470000CB50020019000906C48006840F480307A
:100480006A49086000BF6948006800F400300090C5
:100490000198401C0190009818B90198B0F5A06F20
:1004A000F1D16248006800F4003010B101200090E2
:1004B00001E0002000900098012843D15C480068CA
:1004C00040F010005A4908600846006820F0030018
:1004D00008600846006840F0020008605348406821
:1004E000524948600846406848600846406840F401
:1004F000806048600846406820F47C1048600846E8
:10050000406840F4E81048600846006840F0807099
:10051000086000BF4548006800F000700028F9D06E
:100520004248406820F0030040494860084640685F
:1005300040F00200486000BF3C48406800F00C00FA
:100540000828F9D10CBD10B5FFF792FF10BD10B50A
:100550003648006840F001003449086008464068A9
:10056000344908403149486008460068324908402B
:100570002E4908600846006820F48020086008467C
:10058000406820F4FE0048604FF41F008860FFF7C9
:10059000DAFF4FF000602949086010BD10B5002156
:1005A00000200022214B5B6803F00C0121B10429DB
:1005B00006D0082928D107E0214B224C236027E0F0
:1005C0001F4B204C236023E0184B5B6803F4701032
:1005D000164B5B6803F48032022303EB904022B990
:1005E000194B4343174C23600DE0104B5B6803F439
:1005F000003323B1144B4343124C236003E0104BF0
:100600004343104C236003E00D4B0E4C236000BFAE
:1006100000BF064B5B68C3F303130C4CE15C094B52
:100620001B68CB40074C236010BD00000010024047
:10063000002002400000FFF8FFFFF6FE08ED00E09A
:1006400000127A005802002000093D005C020020E0
:100650000948804709480047FEE7FEE7FEE7FEE756
:10066000FEE7FEE7FEE7FEE7FEE7FEE70448054992
:10067000054A064B704700004F050008310100088D
:100680004012002040180020401400204014002098
:1006900031490143314A1160704770B50021002390
:1006A0000F22C47804B32D4C246804F4E064C4F52C
:1006B000E064210AC1F10403CA40447804FA03F15A
:1006C0008478144021430901254C0678A15504780B
:1006D00004F01F050124AC4005786D11AD0005F153
:1006E000E025C5F8004109E0047804F01F05012465
:1006F000AC401C4D0678761145F8264070BD1A4A6C
:100700000A400243154B1B1F1A60704739B1134A48
:10071000121D12680243114B1B1D1A6006E00F4A9E
:10072000121D126882430D4B1B1D1A60704704286E
:1007300008D14FF0E021096941F004014FF0E022B7
:10074000116107E04FF0E021096921F004014FF049
:10075000E0221161704700000000FA050CED00E096
:1007600000E400E080E100E080FFFF1F10B50446D8
:10077000CC48844208D10121042000F02DFB002147
:10078000042000F029FB46E0C748844208D101213B
:10079000082000F021FB0021082000F01DFB3AE0BA
:1007A000C248844208D10121102000F015FB00212D
:1007B000102000F011FB2EE0BD48844208D1012139
:1007C000202000F009FB0021202000F005FB22E0A2
:1007D000B848844208D10121402000F0FDFA0021F0
:1007E000402000F0F9FA16E0B348844208D1012114
:1007F000802000F0F1FA0021802000F0EDFA0AE0FC
:10080000AE48844207D10121801500F0E5FA0021AD
:10081000A01500F0E1FA10BD10B50121084600F066
:10082000DBFA0021012000F0D7FA10BD2DE9F041DC
:10083000024600250026002000230024002791F80E
:1008400003C00CF00F0591F803C00CF0100CBCF1C4
:10085000000F03D091F802C04CEA050591F800C0E2
:10086000BCF1000F31D0146800202BE04FF0010CD8
:100870000CFA00F3B1F800C00CEA03069E4220D146
:1008800083004FF00F0C0CFA03F7BC4305FA03FC8E
:100890004CEA040491F803C0BCF1280F06D14FF0D4
:1008A000010C0CFA00FCC2F814C00AE091F803C075
:1008B000BCF1480F05D14FF0010C0CFA00FCC2F856
:1008C00010C0401C0828D1D31460B1F800C0BCF19E
:1008D000FF0F34DD546800202EE000F1080C4FF0CB
:1008E000010808FA0CF3B1F800C00CEA03069E42B6
:1008F00021D183004FF00F0C0CFA03F7BC4305FA2B
:1009000003FC4CEA040491F803C0BCF1280F05D1A4
:1009100000F1080C08FA0CF8C2F8148091F803C032
:10092000BCF1480F07D100F1080C4FF0010808FA9C
:100930000CF8C2F81080401C0828CED35460BDE8E3
:10094000F0814FF6FF710180022181700421C17096
:1009500070470246002093680B400BB1012000E075
:10096000002070470146886880B270470246002028
:10097000D3680B400BB1012000E000207047014616
:10098000C86880B2704701617047416170470AB121
:10099000016100E041617047C16070474FF48032EF
:1009A0000A4382618161826182698269704702467D
:1009B0000020434B18684FF68073184040EA02103D
:1009C00008433F4B186070473E49C8617047F0B517
:1009D0000A46002300240021002500F00046B6F15D
:1009E000004F02D1364EF16901E0354E7168C0F317
:1009F000034583B200F44016B6F5401F08D121F03C
:100A000070612F4E766826F070662D4F7E6012E082
:100A100000F48016B6F5801F06D1032606FA05F409
:100A2000A14341F0706106E0460D360103FA06F677
:100A3000B14341F0706122B1460D360103FA06F66A
:100A4000314300F00046B6F1004F02D11C4EF16177
:100A500001E01B4E7160F0BD30B500228B071C0F0A
:100A60000F2303FA04F2164B08338C1053F824308A
:100A70009343134C08348D1044F8253023468C10D2
:100A800053F824308C07240F00FA04F423430C4C51
:100A900008348D1044F8253030BD0A49DC31086037
:100AA0007047000000080140000C014000100140A8
:100AB0000014014000180140001C014000200140CA
:100AC0000000014000002042DF48006840F00100C3
:100AD000DD49086008464068DC490840DA4948605A
:100AE00008460068DA490840D749086008460068A7
:100AF00020F4802008600846406820F4FE0048602A
:100B00004FF41F0088607047CF49096821F4803195
:100B1000CD4A11601146096821F480211160B0F5B9
:100B2000803F03D0B0F5802F0ED106E0C64909689A
:100B300041F48031C44A116007E0C349096841F4B7
:100B4000A021C14A116000E000BF00BF704710B58E
:100B500001460022002300204A11012A02D1BA4C8A
:100B6000236806E0022A02D1B74C236A01E0B64CA2
:100B7000636A01F01F02012494401C400CB1012063
:100B800000E0002010BD38B50020009000240025B2
:100B900000BF3120FFF7DBFF05460098401C0090A6
:100BA0000098B0F5A06F01D0002DF2D03120FFF7F2
:100BB000CEFF08B1012400E00024204638BD0146E4
:100BC0000020A14A106820F0F80040EAC10010603F
:100BD0007047A04908607047024600209A4B586849
:100BE00020F47C1042EA01031843974B5860704789
:100BF00098490866704701460020934A506820F0E3
:100C000003000843506070478F48406800F00C00B4
:100C10007047014600208C4A506820F0F0000843DD
:100C20005060704701460020874A506820F4E06019
:100C300008435060704701460020834A506820F402
:100C4000605040EAC1005060704729B17E4A527A34
:100C500002437D4B5A7204E07B4A527A82437A4BBC
:100C60005A7270477B49D8310860704701460020AE
:100C7000754A506820F44040084350607047002196
:100C8000714A20321170704A82F82010012802D077
:100C900004280AD104E001216B4A2032117005E0DA
:100CA0000521694A2032117000E000BF00BF704783
:100CB0006949086070476449096A0143624A1162E0
:100CC0007047654944390860704730B500210022FB
:100CD000002400235C4D6D6805F00C0121B104294E
:100CE00005D0082923D105E05C4D056022E05B4D6D
:100CF00005601FE0544D6D6805F47012524D6D682B
:100D000005F48034022505EB92421CB9544D55433D
:100D100005600BE04C4D6D6805F400351DB1504D7C
:100D20005543056002E04D4D5543056002E04B4DD3
:100D3000056000BF00BF444D6D6805F0F001090972
:100D4000484D6B5C0568DD4045603F4D6D6805F4BE
:100D5000E061090A434D6B5C4568DD4085603A4DB2
:100D60006D6805F46051C90A3E4D6B5C4568DD4015
:100D7000C560354D6D6805F44041890B3A4D6B5C9B
:100D8000C568B5FBF3F5056130BD29B12E4A52693E
:100D900002432D4B5A6104E02B4A526982432A4B8D
:100DA0005A61704729B1284A92690243264B9A61D9
:100DB00004E0254A92698243234B9A61704729B126
:100DC000214AD2690243204BDA6104E01E4AD2690B
:100DD00082431D4BDA61704729B11B4AD268024336
:100DE000194BDA6004E0184AD2688243164BDA6085
:100DF000704729B1144A12690243134B1A6104E087
:100E0000114A12698243104B1A61704712494039E6
:100E1000086070470F49C86470470B49C871704734
:100E20000948406A40F080700749486270470146AF
:100E30000020054A92680A400AB1012000E0002023
:100E40007047014988727047001002400000FFF8A7
:100E5000FFFFF6FE000042428004424200127A0088
:100E600000093D006C0200207C02002010B5044601
:100E7000FE48844208D10121C014FFF7ADFF0021D4
:100E8000E014FFF7A9FFC4E0B4F1804F08D10121BD
:100E90000846FFF7AEFF00210120FFF7AAFFB8E0E8
:100EA000F348844208D101210220FFF7A2FF00216C
:100EB0000220FFF79EFFACE0EE48844208D10121FA
:100EC0000420FFF796FF00210420FFF792FFA0E027
:100ED000E948844208D101210820FFF78AFF002158
:100EE0000820FFF786FF94E0E448844208D10121FE
:100EF0001020FFF77EFF00211020FFF77AFF88E027
:100F0000DF48844208D101212020FFF772FF002131
:100F10002020FFF76EFF7CE0DA48844208D10121EF
:100F20004014FFF759FF00216014FFF755FF70E0F0
:100F3000D548844209D10121C804FFF74DFF0021A3
:100F40004FF40020FFF748FF63E0D048844209D106
:100F500001210805FFF740FF00214FF48010FFF743
:100F60003BFF56E0CA48844209D101214805FFF7FA
:100F700033FF00214FF40010FFF72EFF49E0C54872
:100F8000844208D101214020FFF733FF0021402097
:100F9000FFF72FFF3DE0C048844208D101218020A7
:100FA000FFF727FF00218020FFF723FF31E0BB4838
:100FB000844208D101218015FFF71BFF0021A015F5
:100FC000FFF717FF25E0B648844209D10121080444
:100FD000FFF702FF00214FF48030FFF7FDFE18E01D
:100FE000B048844209D101214804FFF7F5FE0021F1
:100FF0004FF40030FFF7F0FE0BE0AB48844208D11D
:1010000001218804FFF7E8FE00214FF48020FFF75C
:10101000E3FE10BD00220288944B98420ED0994BFB
:1010200098420BD0B0F1804F08D0914B984205D038
:10103000904B984202D0904B984204D14FF68F7358
:101040001A404B881A438D4B984207D08C4B9842DC
:1010500004D04FF6FF431A40CB881A4302808B8896
:1010600083850B880385814B98420BD0854B984232
:1010700008D08B4B984205D08A4B984202D08A4BBD
:10108000984201D10B7A038601238382704770B5A1
:10109000002400220023058C4FF6FE76354005849F
:1010A000028C8388048B4FF68F752C40B51E2C4024
:1010B0000D882C43751E2A400D892A434D882A43EA
:1010C0006A4DA8420BD06F4DA84208D0744DA8427B
:1010D00005D0744DA84202D0734DA84213D14FF6EB
:1010E000F7752A404D892A434FF6FB752A408D88B3
:1010F0002A434FF6FF652B404FF6FF552B408D8955
:101100002B43CD892B4383800483CD88858602843D
:1011100070BD70B5002400220023058C4FF6EF76D9
:1011200035400584028C8388048B48F6FF752C407B
:101130004FF6FF452C400D884FF6FF7606EA052551
:101140002C434FF6DF752A400D8906EA05152A4320
:101150004D8806EA05152A43444DA84202D0494D60
:10116000A8421DD14FF67F752A404D894FF6FF7674
:1011700006EA05152A434FF6BF752A408D8806EA10
:1011800005152A434FF6FF352B404FF2FF752B40D4
:101190008D8906EA85052B43CD8906EA85052B4313
:1011A00083800483CD880587028470BD70B50024D8
:1011B00000220023058C4FF6FF6635400584028C23
:1011C0008388848B4FF68F752C404FF6FC752C402E
:1011D0000D882C434FF6FF552A400D894FF6FF76B8
:1011E00006EA05252A434D8806EA05252A431F4DB0
:1011F000A84202D0234DA8421DD14FF2FF752A40CC
:101200004D894FF6FF7606EA05252A434FF6FF354E
:101210002A408D8806EA05252A434EF6FF752B40A5
:101220004DF6FF752B408D8906EA05152B43CD89B8
:1012300006EA05152B4383808483CD888587028445
:1012400070BD70B5002200230024058C4EF6FF7699
:1012500035400584038C8488828B48F6FF752A40CC
:101260004FF6FF452A400D8820E00000002C014089
:101270000004004000080040000C00400010004046
:101280000014004000340140004C01400050014077
:101290000054014000180040001C004000200040A5
:1012A0000040014000440140004801404FF6FF76F5
:1012B00006EA05252A434DF6FF752B400D8906EAFF
:1012C00005352B434D8806EA05352B43FA4DA842D8
:1012D00002D0FA4DA84208D14BF6FF752C408D89FB
:1012E0004FF6FF7606EA85152C4384808283CD88ED
:1012F000A0F84050038470BD828B4FF2FF331A4038
:101300008283828B4FF6FF7303EA01231A438283A1
:101310007047F0B50C461546002200210026078CC8
:101320004EF6FF7C07EA0C070784828B018C4FF690
:10133000FF7707EA043640F6FF473A404FF6FF775B
:1013400007EA05273A434FF6FF7707EA03373A43A0
:10135000D94FB8420ED0D94FB8420BD0B0F1804F20
:1013600008D0D74FB84205D0D64FB84202D0D64F9A
:10137000B84206D14DF6FF77394046F480573943DD
:1013800005E047F6FF57394044F4805739438283DC
:101390000184F0BD828B4FF6F3731A408283828BF7
:1013A0000A4382837047F0B50C461546002200219F
:1013B0000026078C4FF6FF6C07EA0C070784828B28
:1013C000018C4FF6FF7707EA04264FF60C773A4078
:1013D0004FF6FF7707EA03172F433A43B64FB84259
:1013E0000ED0B64FB8420BD0B0F1804F08D0B44FFA
:1013F000B84205D0B34FB84202D0B34FB84206D17D
:101400004FF6FF57394046F48077394305E04FF2F5
:10141000FF57394044F48077394382830184F0BD1B
:10142000028B4FF2FF331A400283028B4FF6FF7399
:1014300003EA01231A4302837047F0B50C461546B0
:10144000002200210026078C4FF6EF7C07EA0C07EC
:101450000784028B018C4FF6FF7707EA041640F6EB
:10146000FF473A404FF6FF7707EA03373A434FF614
:10147000FF7707EA05273A438F4FB8420ED08F4FC8
:10148000B8420BD0B0F1804F08D08D4FB84205D094
:101490008C4FB84202D08C4FB84206D14FF6DF775E
:1014A000394046F01007394305E04FF65F77394081
:1014B00044F01007394302830184F0BD028B4FF6DC
:1014C000F3731A400283028B0A4302837047F0B51C
:1014D0000C46154600220021068C4FF6FE773E4052
:1014E0000684028B018C4FF60C7632407E1C06EA95
:1014F00003162E433243704EB0420ED06F4EB042B0
:101500000BD0B0F1804F08D06D4EB04205D06D4E7B
:10151000B04202D06C4EB04206D14FF6FD7631405B
:1015200044F00106314305E04FF6F576314044F0D2
:101530000106314302830184F0BD70B505460C46B7
:101540005D4885420ED05D4885420BD0B5F1804F95
:1015500008D05B48854205D05A48854202D05A4897
:10156000854200D100E000BF208850B92389A288BD
:1015700061882846FFF7ABFFE1882846FFF79EFF0A
:1015800025E0208804280AD12389A288618828467A
:10159000FFF753FFE1882846FFF742FF17E0208856
:1015A00008280AD12389A28861882846FFF7FBFE14
:1015B000E1882846FFF7EEFE09E02389A2886188CA
:1015C0002846FFF7A6FEE1882846FFF795FE70BD86
:1015D0002DE9F04105460C4600260127608808B930
:1015E000022600E00026A088012801D1022700E0A1
:1015F00001272088A0B92389A28861882846FFF79F
:1016000066FFE1882846FFF759FF23893A463146AD
:101610002846FFF712FFE1882846FFF701FF13E095
:101620002389A28861882846FFF707FFE1882846BA
:10163000FFF7F6FE23893A4631462846FFF747FF73
:10164000E1882846FFF73AFFBDE8F0810A884B8819
:101650001A438B881A43CB881A430B891A434B8948
:101660001A438B891A43A0F8442070474FF6FF7144
:10167000818000210180C18041800172704700217A
:10168000018041808180C180018141818181C1814E
:101690007047002101804180012181800021C180AB
:1016A000018170470021018041808180C1800181DA
:1016B0004181818170470000002C014000340140CD
:1016C0000004004000080040000C004021B10288E6
:1016D00042F00102028004E002884FF6FE731A40D5
:1016E0000280704731B1B0F8442042F40042A0F8C3
:1016F000442005E0B0F84420C2F30E02A0F84420D4
:1017000070471AB183890B43838102E083898B433D
:10171000838170478182704741EA0203A0F8483014
:1017200070471AB183890B43838102E083898B431D
:101730008381704701894FF6F8721140018170472B
:101740000A46002101894FF68F7319401143018128
:10175000704730B504460D4629462046FFF7F0FF96
:10176000208940F00700208130BD2DE9F04104467A
:101770000D4616461F46602D06D13B4601223146D6
:101780002046FFF75AFE05E03B460122314620463F
:10179000FFF79DFE29462046FFF7D2FF208940F043
:1017A00007002081BDE8F08130B50C460021018999
:1017B000C9B24FF6FF7505EA0325154325432943B2
:1017C000018130BD2DE9F04105460E461746984689
:1017D000002443463A4631462846FFF7E5FF2C8968
:1017E0004FF6F870044044F007044FF68F70044041
:1017F00044F070042C81BDE8F081F0B504460D463C
:1018000016461F463B46324629462046FFF7CCFF88
:10181000208940F480402081F0BD0185828270479C
:101820000A46002101884FF68F7319401143018049
:101830007047F0B50C4615461E46002100220023D5
:101840000189028B038C4FF6F877394021434FF61C
:10185000FC473A4040F201173A434FF6DD773B40F0
:101860004FF6FF7707EA06172F433B4301810283B8
:101870000384F0BD0A460021018B4FF68F73194097
:101880001143018370470A460021018B48F6FF731C
:1018900019404FF6FF7303EA02231943018370478F
:1018A0000A460021818B4FF68F73194011438183C3
:1018B00070470A460021818B48F6FF7319404FF6A6
:1018C000FF7303EA022319438183704721B1028821
:1018D00042F08002028004E002884FF67F731A40D3
:1018E0000280704721B1828842F00402828004E0C5
:1018F00082884FF6FB731A408280704721B182883C
:1019000042F00802828004E082884FF6F7731A40A2
:101910008280704721B1828842F00102828004E017
:1019200082884FF6FE731A40828070470A46002173
:10193000018B4FF6F77319401143018370470A4634
:101940000021018B4FF2FF7319404FF6FF7303EA3A
:1019500002231943018370470A460021818B4FF609
:10196000F77319401143818370470A460021818B28
:101970004FF2FF7319404FF6FF7303EA0223194336
:10198000818370470A460021018B4FF6FB73194093
:101990001143018370470A460021018B4FF6FF3344
:1019A00019404FF6FF7303EA02231943018370477E
:1019B0000A460021818B4FF6FB7319401143818346
:1019C00070470A460021818B4FF6FF3319404FF6CE
:1019D000FF7303EA02231943818370470A460021FB
:1019E000018B4FF67F7319401143018370470A46FC
:1019F0000021018BC1F30E014FF6FF7303EA0223AE
:101A00001943018370470A460021818B4FF67F738B
:101A100019401143818370470A460021818BC1F32D
:101A20000E014FF6FF7303EA0223194381837047C7
:101A30000A460021018C4FF6FD73194011430184C1
:101A400070470A460021018C4FF6F7731940114385
:101A5000018470470A460021018C4FF6DF7319405C
:101A60004FF6FF7303EA02131943018470470A46D5
:101A70000021018C4FF67F7319404FF6FF7303EA84
:101A800002131943018470470A460021018C4FF666
:101A9000FF5319404FF6FF7303EA022319430184F1
:101AA00070470A460021018C4FF2FF7319404FF630
:101AB000FF7303EA02231943018470470A46002199
:101AC000018C4DF6FF7319404FF6FF7303EA0233A2
:101AD00019430184704730B5002301248C40A3B220
:101AE000048C9C430484048C02FA01F5ADB22C43AF
:101AF000048430BD30B5002304248C40A3B2048C90
:101B00009C430484048C02FA01F5ADB22C43048496
:101B100030BD70B50346002000241846183001255A
:101B20008D40ACB21D8CA5431D8409B1082909D193
:101B300000EB6100056825F0700505600568154338
:101B400005600EE00D1FC5F34E052844056825F419
:101B5000E045056005684FF6FF7606EA0226354344
:101B6000056070BD21B1028842F00202028004E0EB
:101B700002884FF6FD731A400280704721B1028837
:101B800042F00402028004E002884FF6FB731A4020
:101B90000280704721B1828842F08002828004E096
:101BA00082884FF67F731A408280704702884FF612
:101BB000F7731A40028002880A43028070478288C5
:101BC0004FF68F731A40828082880A438280704762
:101BD00002894FF6F8731A40028102890A43028192
:101BE000704702894FF67F731A40028102890A43C7
:101BF0000281704781847047818570478186704774
:101C00000187704781877047A0F8401070470288AD
:101C10004FF6FF431A40028002880A430280704751
:101C20000146888E70470146088F70470146888FAD
:101C300070470146B1F8400070470146888C7047F4
:101C40000146088D704702460020138A0B400BB1F5
:101C5000012000E000207047CA430282704730B57F
:101C60000246002000230024158A05EA0103958915
:101C700005EA010413B10CB1012000E0002030BDE1
:101C8000CA4302827047000010B50446FB488442F4
:101C900009D101218803FFF79FF800214FF480400C
:101CA000FFF79AF832E0F648844209D1012148044E
:101CB000FFF79FF800214FF40030FFF79AF825E076
:101CC000F048844209D101218804FFF792F80021ED
:101CD0004FF48020FFF78DF818E0EB48844209D1DB
:101CE0000121C804FFF785F800214FF40020FFF719
:101CF00080F80BE0E548844208D101210805FFF790
:101D000078F800214FF48010FFF773F810BD2DE92B
:101D1000F04786B005460E460024A24600BFA14605
:101D20000027B08900B100BF2F462C8A4CF6FF7007
:101D30000440F08804432C82AC894EF6F310044032
:101D4000B08831890843718908430443AC81AC8A67
:101D50004FF6FF400440B0890443AC8201A8FEF76F
:101D6000B4FFC648874202D1DDF810A001E0DDF8DB
:101D70000CA0A88900F4004040B10AEBCA0000EBB7
:101D80000A1031684900B0FBF1F807E00AEBCA001D
:101D900000EB0A1031688900B0FBF1F86420B8FB51
:101DA000F0F004012009642101FB1089A88900F4E6
:101DB000004040B1322000EBC900B0FBF1F000F070
:101DC0000700044308E0322000EB09106421B0FB57
:101DD000F1F000F00F0004432C8106B0BDE8F0875D
:101DE0004FF41651016000218180C18001810C21D6
:101DF000418100218181704710B502460020108A80
:101E00004FF2FF0318400B884C8823438C882343F0
:101E1000CC8823431843108210BD002101804180EB
:101E20008180C180704721B1828942F40052828151
:101E300004E082894DF6FF731A4082817047F0B545
:101E40000346002400260025002040F66A17B94208
:101E500000D100BF1846C1F3421401F01F0601274C
:101E600007FA06F5012C01D10C3004E0022C01D157
:101E7000103000E014301AB107682F43076002E009
:101E80000768AF430760F0BD1AB1838A0B438382B2
:101E900002E0838A8B4383827047028A4FF6F07395
:101EA0001A400282028A0A430282704782894FF2F4
:101EB000FF731A40828182890A438281704721B16F
:101EC000828942F00202828104E082894FF6FD732A
:101ED0001A4082817047028A4FF6DF731A400282ED
:101EE000028A0A430282704721B1028A42F4804288
:101EF000028204E0028A4BF6FF731A4002827047A6
:101F0000C1F308028280704701468888C0F3080048
:101F10007047818941F0010181817047028BD2B203
:101F20000283028B42EA012202837047028B02F491
:101F30007F420283028B0A430283704721B1828A67
:101F400042F02002828204E0828A4FF6DF731A4058
:101F50008282704721B1828A42F01002828204E0BC
:101F6000828A4FF6EF731A408282704721B1828ACB
:101F700042F00802828204E0828A4FF6F7731A4028
:101F80008282704721B1828942F40042828103E05B
:101F90008289C2F30E028281704721B1828A42F4A3
:101FA0000062828204E0828A4FF2FF731A408282CA
:101FB0007047828A4FF6FB731A408282828A0A43F4
:101FC0008282704721B1828A42F00202828204E05A
:101FD000828A4FF6FD731A408282704702460020C3
:101FE000B1F5007F00D100BF13880B400BB1012079
:101FF00000E00020704701F40072B2F5007F00D1CC
:1020000000BFCA430280704770B502460024002317
:102010000025002040F66A16B14200D100BFC1F38E
:10202000421501F01F03012606FA03F3012D02D128
:102030009689334006E0022D02D1168A334001E032
:10204000968A33400C12012606FA04F416883440AE
:1020500013B10CB1012000E0002070BD10B50022CA
:10206000002340F66A14A14200D100BF0A120124E5
:102070009440A3B2DC43048010BD0000003801404E
:102080000044004000480040004C00400050004028
:1020900010B56FF00400FEF74AFB2E4800682E4989
:1020A000B0FBF1F02D4908700846007800EB4001C4
:1020B000C1EBC0104FF6FF7101EAC000284908804B
:1020C00010BD0146254A12784A434FF0E0235A6179
:1020D00000229A611A46126942F001021A6100BF99
:1020E0004FF0E022106900F001021AB100F48032D2
:1020F000002AF5D04FF0E022126922F001024FF0E1
:10210000E0231A6100229A6170470146144A12883E
:102110004A434FF0E0235A6100229A611A4612693D
:1021200042F001021A6100BF4FF0E022106900F096
:1021300001021AB100F48032002AF5D04FF0E022FB
:10214000126922F001024FF0E0231A6100229A6125
:10215000704700005802002000127A008002002020
:1021600082020020014600BF704700BF494A128822
:1021700002F04002002AF9D0C2B2464B1B1D1A8061
:10218000704710B586B00446012144F20400FEF702
:1021900009FE4FF40070ADF8140003208DF816000E
:1021A00018208DF8170005A93B48FEF73FFB4FF4B8
:1021B0008060ADF8140004208DF8170005A936489A
:1021C000FEF734FB25208DF8000003208DF8010078
:1021D0008DF8020001208DF803006846FEF75DFAD5
:1021E00001940020ADF80800ADF80A00ADF80C002D
:1021F000ADF810000C20ADF80E0001A92548FFF73E
:1022000086FD012240F225512248FFF718FE0121E8
:102210002048FFF708FE06B010BD10B540F225516A
:102220001C48FFF7F1FE10B31A48FFF76DFEC4B269
:102230001A48008800F40040C8B91848008800F423
:10224000804060B10A2C03D000201449088020E0AF
:102250001248008840F400401049088019E00D2C15
:1022600006D10E48008840F480400C49088010E0F8
:102270000A480088C0F30D0009490C54074800883B
:10228000401C0649088008460088C72801DD002058
:10229000088010BD0038014000080140880200207D
:1022A000480C002070B505460C46FE480068806862
:1022B000FC49096849680844A84214D1FA480078E2
:1022C000052810D17CB1F74800680EC8F74800F027
:1022D000A0FFF74804600020F249096888600120E7
:1022E000F0490968486070BD0146EE4800688068A2
:1022F000081A704710B5002300BF04E011F8014B25
:1023000000F8014B5B1C9342F8DB10BD0146E54829
:10231000006880680A1A002A03DD082A01DA012011
:1023200070470020FCE70FB42DE9F04389B0054663
:102330000026B146142103A802F07EFC0020009084
:10234000019002902846FFF7E1FF20B909B0BDE8EF
:10235000F0035DF814FB12A80890D6A1119802F0C2
:10236000DAFB0446002C3FD01198201AC2B203A811
:102370001199FFF7BFFF641C2078642802D06628FB
:1023800022D108E0089840C808903246CAA16846A1
:1023900002F0EAFA19E00898C01D20F00700089042
:1023A000D0E90021089F08371046089704F018F874
:1023B0008146484604F0CAFC07463A460B46BFA190
:1023C000684602F0D1FA00E000BF00BF694603A8EA
:1023D00002F0D2FB2846FFF787FFC7B203AA3946AF
:1023E0000A2001F0F4F808E02846FFF77DFFC7B2A5
:1023F00039460A20119A01F0EAF80020089000BF3F
:10240000A4E770B505460C46072C00DD0724ADA2F5
:102410002146284601F0DBF870BD2DE9F04F87B06A
:1024200005468A4616461F4600243146284604F0D3
:1024300085FF8046002104F0E5FD51D03146284655
:1024400004F07CFF81465146384604F081FF834604
:10245000494604F015FD06902846069904F0A2FEB0
:102460008146514604F06AFF05903146284604F043
:102470006FFF834604F0FAFDB0F1000901DB484626
:1024800001E0C9F10000401C00F0FF08002424E036
:10249000204604F027FE2946019004F083FC0290B8
:1024A000069904F07FFE8346059904F07BFC814683
:1024B00004F0F8FDC0B20490204604F013FE8346F9
:1024C000294604F06FFC814604F0ECFDC0B2012205
:1024D0000390049900F0B8FF641C4445D8DB2AE05F
:1024E000002416E0204604F0FDFD5146069004F05D
:1024F00059FC834604F0D6FD00F0FF08284604F09E
:10250000D1FD00F0FF0901224146484600F09CFF42
:10251000641C5146384604F01BFF83464FF07E5141
:1025200004F040FC8046204604F0DCFD8146414634
:1025300004F004FED6D307B0BDE8F08F10B5044612
:10254000614800F03CFE58490870084600780228AF
:102550002BD1544800684068401C524909684860C3
:10256000072C19DD4F4800684068072850DD072018
:102570004C49096848604B4800688068401C4949DC
:1025800009688860474800688168E01F81423FDD34
:102590004449096888603BE0424800684068A042BE
:1025A00036DD40480068446032E03F48007801284A
:1025B0001CD13C4800684068401E3A4909684860A0
:1025C000384800684068012822DA01203549096846
:1025D0004860344800688068002819DD3148006888
:1025E0008068401E2F490968886011E02E480078F5
:1025F00006280DD12E480068406848B12C48006874
:1026000040682B49086027480168284800F023FEED
:1026100010BD2DE9F047054600BF00BF2846FFF773
:102620008DFF23490968086802F087FA0446601E96
:1026300000EB40007F21A1EB400606EBD67148106D
:1026400004F050FD80462149404604F081FE0646D4
:102650001F4B324619460020FFF7DFFE1B4940465C
:1026600004F076FE074604F01DFDC6B219A2002153
:10267000304600F0ACFF04EB4401480004F032FDAA
:102680008146414604F08EFB074604F00BFDC6B2BE
:102690000CA20021304600F09AFF404604F002FDF3
:1026A000C6B219E0B4090020A4090020400D0020A2
:1026B000B80900202500000025640000252E3266A0
:1026C000000000003E000000100D00200000C0408F
:1026D000000070423C000000FD48006800210268D4
:1026E000304600F074FF04EB4401480004F0FAFCAB
:1026F0008146414604F056FB0746F64904F052FB7A
:102700000646F54B4FF086421946FFF786FEF34B1F
:102710004FF0824200211046FFF77FFEF04800682C
:1027200001790020FFF76DFEBDE8F08710B50520A8
:10273000FFF76FFFEBA10120FFF7F5FDEC4901204A
:10274000FFF7B0FDEBA10220FFF7EDFDEC49022001
:10275000FFF7A8FDEBA10320FFF7E5FDEC490320FF
:10276000FFF7A0FDEBA10420FFF7DDFDEC490420FD
:10277000FFF798FDEBA10520FFF7D5FDEC490520FB
:10278000FFF790FD0020EB49086010BD2DE9FE4FDA
:102790008046894615469A462846E91705EB517149
:1027A000C1F3C70B002002900026002701200190F2
:1027B00000240020009000BF22E000241DE006FB62
:1027C0000B410C98405C0290002713E0C7F1070111
:1027D00001988840029908400090009848B106EBA3
:1027E0000902D1B207EBC4024244D0B2012200F088
:1027F0002BFE7F1C082FE9DB641C5C45DFDB761CAD
:102800005645DADBBDE8FE8FB54A12689268B44BD4
:102810001B685B681A4482420DD1C74A1278042AA9
:1028200002D10A68521C0A60C34A1278032A02D1F4
:102830000A68521E0A60704708B50120FFF7E9FEDA
:10284000BE48BFA102680120FFF76DFDBB49012012
:10285000FFF7DAFFB9480068012803DD0120B74916
:10286000086006E0B5480068002802DA0020B34995
:102870000860B748006830B1012808D0022812D09B
:10288000032828D11BE0B3A0B549086024E0B5A017
:10289000B3490860B64828231A46002100905A2000
:1028A000FFF774FF18E0B3A0AD490860B4482823CF
:1028B0001A46002100905A20FFF768FF0CE0B1A0F3
:1028C000A7490860B24828231A46002100905A20E0
:1028D000FFF75CFF00E000BF00BFAE48AEA102689A
:1028E0000320FFF720FDAE48AEA102680520FFF7E8
:1028F0001AFD9B4801680720FFF715FD08BD08B5C4
:102900000220FFF786FEA9488DA102680120FFF78B
:102910000AFDA6490120FFF777FFA44800680128B7
:1029200003DD0120A149086006E0A04800680028F6
:1029300002DA00209D4908609D480068062844D2BC
:10294000DFE800F00307131F2B37002099490860C8
:102950003CE0012097490860974828231A46002147
:1029600000905A20FFF712FF30E0022091490860E2
:10297000924828231A46002100905A20FFF706FFAC
:1029800024E003208B4908608D4828231A46002143
:1029900000905A20FFF7FAFE18E0042085490860ED
:1029A000884828231A46002100905A20FFF7EEFE9F
:1029B0000CE005207F490860834828231A4600213F
:1029C00000905A20FFF7E2FE00E000BF00BF714810
:1029D00071A102680320FFF7A6FC714871A102688B
:1029E0000520FFF7A0FC734878A102680720FFF7D5
:1029F0009AFC08BD2DE9F05F05460C4616461F46B9
:102A0000204604F087FB8046A81904F06BFB814642
:102A1000204604F07FFB8246284604F07BFB834679
:102A200043464A465146FFF7F8FCE01904F05AFBCA
:102A30008046284604F06EFB8146204604F06AFB7F
:102A40008246284604F066FB834643464A46514682
:102A5000FFF7E3FCE01904F045FB8046A81904F0F9
:102A600041FB8146E01904F03DFB8246284604F014
:102A700051FB834643464A465146FFF7CEFCE019D8
:102A800004F030FB8046A81904F02CFB8146204658
:102A900004F040FB8246A81904F024FB8346434619
:102AA0004A465146FFF7B9FCBDE8F09F08B5012042
:102AB000FFF7AFFD484849A102680120FFF733FC4A
:102AC00045490120FFF7A0FE4348006804288FE035
:102AD000B80900200000C0400000704200007C42A5
:102AE000B4090020313A4A7564676548616E640034
:102AF000D0090020323A4A756467654E756D000052
:102B0000DC090020333A4C6561726E48616E6400E6
:102B1000E8090020343A4C6561726E4E756D000014
:102B2000F4090020353A506C617947616D65000009
:102B3000000A002054020020A409002038020020CE
:102B400073746172744A756467653A2564000000A5
:102B50003C020020656E643A6E6F7468696E6700AF
:102B6000BC090020656E643A73746F6E65000000E6
:102B70008C020020656E643A636C6F74680000001C
:102B800054030020656E643A73686561720000004A
:102B90001C04002014000020657272313A25640084
:102BA00018000020657272323A256400400200204D
:102BB00044020020C0090020E4040020AC050020ED
:102BC000740600203C07002004080020656E644461
:102BD0006174613A256400004802002073747564D2
:102BE0007948616E64466C61673A256400000000B4
:102BF00003DD0020FE49086006E0FD48006800286B
:102C000002DA0420FA490860F9480068012806D071
:102C1000022817D003282AD0042852D13CE02823C8
:102C20001A4600215020FFF7E5FEF248F2A10268A3
:102C30000320FFF778FBEF48F2A142680520FFF779
:102C400072FB3FE0F24828231A46002100905A20E8
:102C5000FFF79CFDEF48E8A102680320FFF763FB44
:102C6000EC48E8A142680520FFF75DFB2AE0EA484E
:102C700028231A46002100905A20FFF787FDE748D5
:102C8000DDA102680320FFF74EFBE448DDA14268A6
:102C90000520FFF748FB15E0E14828231A460021EC
:102CA00000905A20FFF772FDDE48D3A1026803208E
:102CB000FFF739FBDB48D3A142680520FFF733FB60
:102CC00000E000BF00BFD848D8A102680720FFF786
:102CD0002AFB08BD08B50120FFF79BFCD748D8A107
:102CE00002680120FFF71FFBD4490120FFF78CFD8C
:102CF000D2480068062803DD0020D049086006E0BD
:102D0000CE480068002802DA0620CC490860CB488B
:102D1000006807287ED2DFE800F08204172C4156B5
:102D20006B0028231A4600215020FFF763FEB148AC
:102D3000B1A102680320FFF7F6FAAE48B1A14268DC
:102D40000520FFF7F0FA6BE0C14828231A4600215E
:102D500000905A20FFF71AFDBE48A7A10268032081
:102D6000FFF7E1FABB48A7A142680520FFF7DBFAAD
:102D700056E0B94828231A46002100905A20FFF750
:102D800005FDB6489CA102680320FFF7CCFAB348C2
:102D90009CA142680520FFF7C6FA41E0B04828230D
:102DA0001A46002100905A20FFF7F0FCAD4892A18E
:102DB00002680320FFF7B7FAAA4892A142680520EB
:102DC000FFF7B1FA2CE0A84828231A46002100900A
:102DD0005A20FFF7DBFCA54887A102680320FFF714
:102DE000A2FAA24887A142680520FFF79CFA17E0E3
:102DF0009F4828231A46002100905A20FFF7C6FC5E
:102E00009C487DA102680320FFF78DFA99487DA1B7
:102E1000426800E003E00520FFF785FA00E000BF0C
:102E200000BF814881A102680720FFF77CFA08BD36
:102E300008B50120FFF782FB01208F4908604FF0A1
:102E400084434FF0864219460020FFF7E6FA8B488C
:102E5000006830B101280AD0022811D0032821D1FE
:102E600017E0AFF20C310220FFF75DFA1BE0844857
:102E700018231A46282100906420FFF787FC12E0EF
:102E8000804818231A46282100906420FFF77EFC12
:102E900009E07D4818231A46282100906420FFF796
:102EA00075FC00E000BF00BF7448406830B10128E5
:102EB0000AD0022811D0032821D117E0AFF26831DF
:102EC0000620FFF730FA1BE06D4818231A46002150
:102ED00000906420FFF75AFC12E06A4818231A4653
:102EE000002100906420FFF751FC09E06648182398
:102EF0001A46002100906420FFF748FC00E000BF64
:102F000000BF5E48806820B35C488068012804D018
:102F100002280BD003281BD111E05CA10220FFF78F
:102F200002FA5BA10620FFF7FEF911E058A102208A
:102F3000FFF7F9F955A10620FFF7F5F908E056A1CA
:102F40000220FFF7F0F954A10620FFF7ECF900BFCB
:102F500000BF08BD10B500F070FA504909688868D4
:102F6000804700F0A3FA10BD10B5044600F0BCFB8A
:102F700000F043FA00204A49C8628862401E49496D
:102F800088674648046010BD10B504462146444891
:102F900000F0F6F810BD2DE9F74F8EB00C469146C3
:102FA00000200C900C90C4E00C9803F0CFFE074674
:102FB0003D4A3E4B03F0D6FC00223D4BCDE90001DB
:102FC00003F0F0FA054603F057F9CDE9040148464D
:102FD00003F0BCFECDE90201DDE9042303F0C2FCED
:102FE000CDE90801204603F0B1FECDE9060161E01C
:102FF00048020020D40B00204461746131313A252D
:10300000640000004461746131323A2564000000BC
:103010008C020020DC0B002054030020E40B002075
:103020001C040020EC0B0020CC0B00206C656172AE
:103030006E54696D653A2564000000004C02002062
:1030400073747564794E756D466C61673A256400DA
:10305000E4040020F40B0020AC050020FC0B002051
:1030600074060020040C00203C0700200C0C0020FB
:1030700004080020140C0020540200203C0C002006
:10308000CC080020140900205C09002057494E009C
:103090004C4F53450000000045510000B809002086
:1030A000100D0020400D00201F85EB51B81E094077
:1030B00000806640DDE9082303F0C4F9824603F08E
:1030C000F9FBC0B20B900E9803F040FECDE906016B
:1030D0000C9803F03BFE82461A4A1B4B03F042FC5D
:1030E00007460022194B03F05DFACDE9000103F019
:1030F00011F9CDE90201484603F028FE0546DDE955
:10310000022303F02FFCCDE90401DDE9062303F0DF
:1031100099F9CDE9080103F0CDFBC0B201220A9074
:103120000B9900F091F94FF07E510C9803F03AFEA4
:103130000C9007490C9804F001F8FFF435AF11B07A
:10314000BDE8F08F1F85EB51B81E09400080664036
:103150000000B4430FB40A21DDE90A02904202D113
:10316000012004B070470A98401C90FBF1F201FB6B
:1031700012000B9A904201D10020F2E70220F0E702
:1031800070B588B004460D460A26202204F11001CD
:10319000684601F0FDFC94E80F00FFF7DBFF10B973
:1031A000002008B070BDA06A44F82050A06A401CFE
:1031B00090FBF6F106FB1100A0620120F1E770B56B
:1031C00088B0044600250026202204F1100168463C
:1031D00001F0DEFC94E80F00FFF7BCFF012802D1EC
:1031E000002008B070BD0A25E06A54F82060E06A4B
:1031F000401C90FBF5F105FB1100E0623046F0E762
:103200000FB41E98401C10B9012004B07047002074
:10321000FBE71FB504460A21A06F092819DAA06F41
:10322000401CA0670198A26F02EB420244F8220002
:103230000398A26F02EB420204EB820290600298B4
:10324000A26F02EB420204EB82025060012004B044
:1032500010BD0020FBE730B59BB004460D466C2244
:1032600004F11001684601F093FC94E80F00FFF7A9
:10327000C7FFC0B9A06F00EB400054F820002860E1
:10328000A06F00EB400004EB800040686860A16F15
:10329000481EA06701EB410004EB80008068A86035
:1032A00001201BB030BD0020FBE7000070B50446D4
:1032B0000E4626B18021FB48FDF765FB03E0802127
:1032C000F848FDF762FB4021F648FDF75EFB00255C
:1032D0001BE04FF48061F348FDF757FB04F08000DA
:1032E00028B14FF40071EF48FDF74DFB04E04FF4B7
:1032F0000071EC48FDF749FB4FF48061E948FDF7A8
:1033000042FB6006040E681CC5B2082DE1DB4021BB
:10331000E448FDF738FB8021E248FDF734FB70BD3F
:1033200070B504460E4626B18021DE48FDF72BFB22
:1033300003E08021DB48FDF728FB4021D948FDF759
:1033400024FB00251BE04FF48061D648FDF71DFBF0
:1033500004F0800028B14FF40071D248FDF715FB4E
:1033600004E04FF40071CF48FDF70DFB4FF480618E
:10337000CC48FDF708FB6006040E681CC5B2082D9A
:10338000E1DB4021C748FDF7FEFA8021C548FDF783
:10339000FAFA70BD70B504460D4605F1B001C8B229
:1033A0000021FFF783FF102141EA14100021FFF7ED
:1033B0007DFF04F00F0141F001000021FFF776FFCF
:1033C00070BD10B500218D20FFF770FF0021142083
:1033D000FFF76CFF0021AF20FFF768FF10BD10B5AD
:1033E00000218D20FFF762FF00211020FFF75EFF14
:1033F0000021AE20FFF75AFF10BD70B5002419E080
:1034000004F1B001C8B20021FFF750FF00210846C7
:10341000FFF74CFF00211020FFF748FF002505E0D3
:1034200001210020FFF742FF681CC5B2802DF7DBA9
:10343000601CC4B2082CE3DB70BD10B54FF4806192
:10344000994801F0D7FB10BDF0B5144600267F283F
:1034500001DC3F2900DDF0BD0B46CF1701EB5777AC
:10346000FF10C7F10707FAB2CF1701EB5777FF102C
:10347000A1EBC707FDB2C5F107070123BB40DEB2D0
:103480004CB1894B03EBC0039B5C3343864F07EB86
:10349000C007BB5408E0844B03EBC0039B5CB34301
:1034A000814F07EBC007BB5400BFD4E770B50024C1
:1034B0001CE004F1B001C8B20021FFF7F7FE0021C3
:1034C0000846FFF7F3FE00211020FFF7EFFE00256E
:1034D00008E0754901EBC501085D0121FFF7E6FE33
:1034E000681CC5B2802DF4DB601CC4B2082CE0DB84
:1034F00070BDF0B5034600240020A2F12005ECB217
:103500007F2B02DD00238D1CE9B2072900DD072196
:1035100000200CE004EB4405644E06EB45052D5CF1
:103520001E18614F07EBC6067554451CE8B2062805
:10353000F0DBF0BD10B50246012000E050430B1E49
:10354000A1F10104E1B2F9D110BD2DE9FF4F074609
:1035500091461D460D9E4FF0000A002433E0281BC3
:10356000401EC1B20A20FFF7E5FFB9FBF0F00A21C7
:10357000B0FBF1F201FB1208BAF1000F13D1681E83
:10358000A04210DDB8F1000F0BD1B34606EBDB71A2
:10359000491001FB0471C8B220220199FFF7A9FF6D
:1035A0000FE04FF0010AB34606EBDB71491001FB57
:1035B0000471C8B208F13001CAB20199FFF799FF4E
:1035C00000BF601CC4B2AC42C9DBBDE8FF8FF0B5E0
:1035D00004460F46154600260DE0AA5D39462046F2
:1035E000FFF787FFA01DC4B2782C02DD0024781CF1
:1035F000C7B2701CC6B2A85D0028EED1F0BD2DE99F
:10360000F04180460E461546002731464046FFF7FA
:10361000C1FE00240AE0264A02EB8511085D012163
:10362000FFF744FE781CC7B2601CC4B2102CF2DB5A
:10363000701CC1B24046FFF7ADFE00240CE06900EB
:10364000491C1B4A02EB4111085D0121FFF72EFEC8
:10365000781CC7B2601CC4B2102CF0DBBDE8F0814E
:103660002DE9F05F06460F4690461C46DDF828A07F
:103670004FF0000BE11704EB5171C910A4EBC1012D
:1036800031B92046E11704EB5171C1F3C70506E0DB
:103690002046E11704EB5171C910491CCDB23D46DB
:1036A0001EE00000001C0140BC0D00202E7500082B
:1036B0000C0A002029463046FFF76CFEB1460BE0AD
:1036C00059460BF1010B1AF801000121FFF7EEFD3D
:1036D00009F1010000F0FF09C145F1DB681CC5B22A
:1036E000A542E7DBBDE8F09F08B501218020FDF78A
:1036F00059FB4FF4F860ADF8000010208DF803007E
:1037000003208DF8020069464948FDF78FF84FF411
:1037100080714748FDF737F96420FEF7F6FC4FF457
:1037200080714348FDF731F9C820FEF7EEFC4FF4F5
:1037300080713F48FDF727F90021AE20FFF7B6FD65
:1037400000210846FFF7B2FD00211020FFF7AEFD73
:1037500000214020FFF7AAFD00218120FFF7A6FDF0
:103760000021CF20FFF7A2FD0021A120FFF79EFD41
:103770000021C820FFF79AFD0021A620FFF796FD43
:103780000021A820FFF792FD00213F20FFF78EFDCA
:103790000021D320FFF78AFD00210846FFF786FDB0
:1037A0000021D520FFF782FD00218020FFF77EFD5C
:1037B0000021D920FFF77AFD0021F120FFF776FDE7
:1037C0000021DA20FFF772FD00211220FFF76EFDC5
:1037D0000021DB20FFF76AFD00214020FFF766FD96
:1037E00000212020FFF762FD00210220FFF75EFD8F
:1037F00000218D20FFF75AFD00211420FFF756FD10
:103800000021A420FFF752FD0021A620FFF74EFD66
:103810000021AF20FFF74AFD0021AF20FFF746FD52
:10382000FFF7EBFD00210846FFF7B4FD08BD0000DF
:10383000001C014008B501212020FDF7B3FA4FF428
:103840007C50ADF8000048208DF8030069462F48F1
:10385000FCF7ECFF08BD10B54FF400712B48FDF7E5
:1038600078F8E8B14FF480612848FDF772F8B8B1F4
:103870004FF480512548FDF76CF888B14FF4807102
:103880002248FDF766F858B14FF400611F48FDF774
:1038900060F828B14FF400511C48FDF75AF890BB6E
:1038A0003C20FEF732FC4FF400711848FDF751F848
:1038B00008B9032010BD4FF480611448FDF749F8A2
:1038C00008B90220F6E74FF480511048FDF741F89F
:1038D00008B90420EEE74FF480710C48FDF739F881
:1038E00008B90520E6E74FF400610848FDF731F814
:1038F00008B90120DEE74FF400510448FDF729F82C
:1039000008B90620D6E7FFE70020D3E700140140FE
:103910007FB505460C4601210420FDF750FAADF8AD
:103920000850ADF804400020ADF80A00ADF80600DC
:1039300001A91648FDF76EFB012211461348FDF759
:10394000E0FE1E208DF8000002208DF8010003200B
:103950008DF8020001208DF803006846FCF79DFEFB
:1039600001210A48FDF7B2FE7FBD10B501210748CD
:10397000FEF775F940B106480068401C044908602C
:1039800001210248FEF77CF910BD0000000800404C
:10399000CC0B002070B505460E46144600F0ADFA7B
:1039A0006906080E00F06BFB00F0F3FA304600F0F9
:1039B00066FB00F0EEFA201200F061FB00F0E9FA7D
:1039C000E0B200F05CFB00F0E4FA00F0BCFA70BD7D
:1039D00070B504460D4600F090FA6106080E00F03E
:1039E0004EFB00F0D6FA284600F049FB00F0D1FA71
:1039F00000F083FA012101EB4401C8B200F03FFB63
:103A000000F0C7FA012000F075FB0602002000F06C
:103A100071FB064300F097FA304670BD2DE9F05F68
:103A200080468946642718212A20FFF7D1FF834664
:103A3000B8F1000F09D0B8F1010F0AD0B8F1020FA8
:103A40000BD0B8F1030F10D10BE00024012508269C
:103A50000BE002240325042607E0042405250226A2
:103A600003E006240725012600BF00BF06E0182159
:103A70002A20FFF7ADFF8346781E07B21FB10BEA7D
:103A800006000028F3D087B121462A20FFF7A0FFC7
:103A90004FEA004A29462A20FFF79AFF40EA0A0A1D
:103AA000C9F800A00120BDE8F09F0020FBE770B539
:103AB00005460C46FF2C00DC70BD35B1012D0AD047
:103AC000022D0ED0032D18D111E0224608212A2004
:103AD000FFF760FF11E0224609212A20FFF75AFF75
:103AE0000BE022460A212A20FFF754FF05E0224678
:103AF0000B212A20FFF74EFF00BF00BF00BFDBE70E
:103B000070B505460C4635B1012D0AD0022D0ED0F8
:103B1000032D18D111E0224610212A20FFF73AFF89
:103B200011E0224611212A20FFF734FF0BE0224644
:103B300012212A20FFF72EFF05E0224613212A201A
:103B4000FFF728FF00BF00BF70BD2DE9F047044616
:103B50000D4616464FF000094FF6FF7000EA05309B
:103B6000C6F3090140EA0109CE480555304602F086
:103B7000E5FE07463A460B460020CB4902F012FD0F
:103B8000CA4A02EBC40203C234B1012C0AD0022C8F
:103B90000ED0032C18D111E04A4614212A20FFF739
:103BA000F9FE11E04A4615212A20FFF7F3FE0BE04B
:103BB0004A4616212A20FFF7EDFE05E04A46172166
:103BC0002A20FFF7E7FE00BF00BFBDE8F08770B511
:103BD000054600241A212A20FFF7FAFE04464FF674
:103BE0007F7004400DB144F0800422461A212A203F
:103BF000FFF7D0FE19212A20FFF7EAFE04464FF610
:103C0000FE7004400DB144F00104224619212A201F
:103C1000FFF7C0FE70BD70B5054600241A212A20AA
:103C2000FFF7D6FE0446C4F30D044FF6FF7000EA1A
:103C30008530044322461A212A20FFF7ABFE70BDCF
:103C400070B5054600241A212A20FFF7C1FE04465C
:103C50004DF6FF7004400DB144F4005422461A2181
:103C60002A20FFF797FE70BD70B5054600241A2183
:103C70002A20FFF7ADFE04464FF2FF7004400DB15D
:103C800044F4006422461A212A20FFF783FE70BD07
:103C900070B5054600241A212A20FFF799FE044634
:103CA0004FF6FF5004400DB144F4007422461A212F
:103CB0002A20FFF76FFE70BD70B5054600241A215B
:103CC0002A20FFF785FE04464FF6BF7004400DB171
:103CD00044F0400422461A212A20FFF75BFE70BD03
:103CE0002DE9F04104460E46154600273CB1E0039D
:103CF00040EA463040F40270284387B201E045F4C0
:103D000002773A461B212A20FFF744FEBDE8F081E6
:103D100010B54FF400421C212A20FFF73BFE10BDD6
:103D200070B504460D4600264FF6FF7000EAC52622
:103D300034B1012C0AD0022C0ED0032C18D111E082
:103D400032461E212A20FFF725FE11E032461F21B0
:103D50002A20FFF71FFE0BE0324620212A20FFF722
:103D600019FE05E0324621212A20FFF713FE00BF8D
:103D700000BF70BD2DE9F04F87B082468B4600BF73
:103D8000584602F0DBFD80468946464911F80A0094
:103D900002F0D4FD0446454800EBCA00D0E90063B8
:103DA0003246204602F0DEFD42464B46CDE9000198
:103DB00002F0D8FD00223E4BCDE9020102F0F2FBF9
:103DC000CDE90401DDE9040107B0BDE8F08F10B5CD
:103DD00000247F212A20FFF7FBFD044643F2550013
:103DE00084425CD1FFF794FF40F2D6410020FFF7F8
:103DF0005EFE40F2D6410120FFF759FE40F2D64167
:103E00000220FFF754FE40F2D6410320FFF74FFE99
:103E1000C8210020FFF774FEC8210120FFF770FEC3
:103E2000C8210220FFF76CFEC8210320FFF768FEBF
:103E3000012211460020FFF788FE0122114610469C
:103E4000FFF783FE012211460220FFF77EFE0122CA
:103E500011460320FFF779FE0120FFF705FF01203F
:103E6000FFF716FF0020FFF727FF052202210120A0
:103E7000FFF736FF14210020FFF752FF1221012027
:103E8000FFF74EFF12210220FFF74AFF1221032005
:103E9000FFF746FF0020FFF7D3FE012010BD0020F2
:103EA000FCE70000D00B0020D0128341C01100209D
:103EB0000000B04108B50021009106E000E0401E7E
:103EC0000028FCD10099491C009100996429F5DB78
:103ED00008BD08B501211020FCF764FF4FF4C05065
:103EE000ADF8000003208DF8020010208DF80300CB
:103EF0006946E348FCF79AFC08BD10B5E048406805
:103F000020F47040DE4948600846406840F4405064
:103F10004860C914DA48FCF736FD4FF48051D848A0
:103F2000FCF731FD0420FFF7C5FF4FF40061D448D2
:103F3000FCF72BFD0420FFF7BDFF4FF48051D04864
:103F4000FCF723FD10BD10B5CD48406820F470404B
:103F5000CB4948600846406840F4405048608914A6
:103F6000C748FCF712FD4FF40061C548FCF70DFD92
:103F70000420FFF79FFF4FF48051C148FCF703FD79
:103F80004FF40061BE48FCF7FEFC0420FFF792FFEF
:103F900010BD10B5BA48406820F47040B849486078
:103FA0000846406840F400404860C914B448FCF733
:103FB000EAFC0120FFF77EFF4FF48051B048FCF788
:103FC000E2FC0120FFF776FF4FF40061AC48FCF7FC
:103FD000C0FC0520FFF76EFF4FF48051A848FCF7A6
:103FE000D4FC002010BD10B54FF48051A448FCF75C
:103FF000CCFCA348406820F47040A14948600846C2
:10400000406840F440504860C9149D48FCF7BDFC2E
:104010000220FFF74FFF4FF480519948FCF7B3FCA3
:104020000220FFF747FF4FF480519548FCF7ADFCA5
:1040300010BD10B54FF480519148FCF7A6FC904894
:10404000406820F470408E4948600846406840F45B
:1040500040504860C9148A48FCF795FC0220FFF7DD
:1040600029FF4FF480518648FCF78DFC0220FFF7B2
:1040700021FF4FF480518248FCF787FC10BD70B5DA
:1040800004467F48406820F470407D4948600846F7
:10409000406840F44050486089147948FCF775FC4A
:1040A000002524E004F0800028B14FF4006174483A
:1040B000FCF769FC04E04FF400617148FCF765FC13
:1040C0006006040E0220FFF7F5FE4FF480516C48A5
:1040D000FCF759FC0220FFF7EDFE4FF480516848D1
:1040E000FCF753FC0220FFF7E5FE681CC5B2082D63
:1040F000D8DB70BD70B5054600246148406820F4E7
:1041000070405F4948600846406840F4004048609D
:1041100000261BE04FF480515948FCF736FC022082
:10412000FFF7C8FE4FF480515548FCF72CFC6006A1
:10413000040E4FF400615248FCF70BFC08B1601C00
:10414000C4B20120FFF7B6FE701CC6B2082EE1DB38
:1041500015B9FFF76EFF01E0FFF745FF204670BD80
:104160002DE9F04180460D4616461F46FFF7C5FE75
:104170004046FFF784FFFFF70CFF2846FFF77FFF5D
:10418000FFF707FF00240CE0385DFFF778FFFFF72B
:1041900000FF20B1FFF7D7FE0120BDE8F081601CD1
:1041A000C4B2B442F0DBFFF7CEFE0020F5E72DE904
:1041B000F04106460F4614461D46FFF79EFE304668
:1041C000FFF75DFFFFF7E5FE3846FFF758FFFFF703
:1041D000E0FEFFF792FE46F00100FFF750FFFFF709
:1041E000D8FE0DE0012C04D10020FFF783FF2870DA
:1041F00003E00120FFF77EFF2870601EC4B26D1C33
:10420000002CEFD1FFF79FFE0020BDE8F08170B5D4
:1042100006460C461546FFF770FE3046FFF72FFFA7
:10422000FFF7B7FE2046FFF72AFFFFF7B2FE28464A
:10423000FFF725FFFFF7ADFEFFF785FE002070BDFD
:1042400070B504460D46FFF758FE2046FFF717FFEE
:10425000FFF79FFE2846FFF712FFFFF79AFEFFF7D2
:104260004CFE44F00100FFF70AFFFFF792FE00202A
:10427000FFF740FF0646FFF766FE304670BD0000C0
:10428000001001400020F74948600860F649486086
:104290000860F64948600860F54948600860F549DB
:1042A00048600860F44948600860F4494860086064
:1042B000F34948600860F3494860086070470FB4EC
:1042C0000CB5069B049AD11A002901DB0A4600E0CE
:1042D0004A420092079B059AD11A002901DB0A463F
:1042E00000E04A420192DDE90012C0E9001202B08A
:1042F0005DF814FB17B583B00446002C79DD0A2C59
:1043000075D2DFE804F074050A1724313E4B586576
:10431000D448DDE9041206C06AE005980090D1484F
:10432000049B06C801A8FFF7CAFFCF48DDE90112C8
:1043300006C05DE005980090CA48049B06C801A825
:10434000FFF7BDFFC948DDE9011206C050E005983E
:104350000090C448049B06C801A8FFF7B0FFC448FA
:10436000DDE9011206C043E005980090BD48049BBA
:1043700006C801A8FFF7A3FFBE48DDE9011206C089
:1043800036E005980090B748049B06C801A8FFF7DF
:1043900096FFB948DDE9011206C029E005980090B2
:1043A000B048049B06C801A8FFF789FFB348DDE9C0
:1043B000011206C01CE005980090AA48049B06C89C
:1043C00001A8FFF77CFFAE48DDE9011206C00FE04F
:1043D00005980090A348049B06C801A8FFF76FFF4B
:1043E000A848DDE9011206C002E002E0FFE700BFD5
:1043F00000BF06B010BD73B58CB0002200230021B1
:10440000984C24680C9D601B002801DB044600E0EA
:1044100044420A94934C64680D9D601B002801DBA4
:10442000044600E044420B94DDE90A0402198E4878
:1044300000688D4C64682044934C20608B48006871
:104440008A4C64682044914C206089480068884CFC
:10445000646820448E4C20601046002801DB04462E
:1044600000E04442029400200390874C2468101B13
:10447000002801DB044600E0444204940124059432
:10448000824C2468101B002801DB044600E04442F3
:104490000694022407947E4C2468101B002801DB3C
:1044A000044600E04442089403240994002330E0C9
:1044B000002129E002A850F8314002AD481C55F80F
:1044C000300084421FDD02AC481C54F830000090DC
:1044D000481C04EBC0004068019002A850F831402D
:1044E000481C45F8304002A800EBC1004468481C55
:1044F00005EBC000446002AC009844F8310004EBC6
:10450000C10401986060491CC3F103008842D1DCFA
:104510005B1C032BCCDB0398022801D0039810B955
:1045200003980EB070BD504E0A9D3668A81B504EC1
:104530003668AC1B002C01DB254600E065420028F4
:1045400001DB064600E04642B54201DA0320E8E717
:104550000120E6E773B59AB00024002141480068C5
:104560001A9D421B3F4840681B9D431B1046002874
:1045700001DB054600E045420295002003903D4DD9
:104580002D68501B002801DB054600E045420495DC
:1045900001250595384D2D68501B002801DB054687
:1045A00000E04542069502250795344D2D68501BC5
:1045B000002801DB054600E04542089503250995E2
:1045C0002F4D2D68501B002801DB054600E04542B9
:1045D0000A9504250B952B4D2D68501B002801DBF7
:1045E000054600E045420C9505250D951846002826
:1045F00001DB054600E045420E9500250F951D4D57
:104600006D68581B002801DB054600E04542109507
:1046100001251195184D6D68581B002801DB0546D2
:1046200000E04542129502251395144D6D68581B04
:10463000002801DB054600E0454214950325159549
:104640000F4D6D68581B002801DB054600E0454210
:104650001695042517950B4D6D68581B002819DB1E
:10466000054618E0D40B0020DC0B0020E40B0020F2
:10467000EC0B0020F40B0020FC0B0020040C0020AD
:104680000C0C0020140C00201C0C0020200C00201E
:10469000240C00204542189505251995002455E065
:1046A00000214EE002A850F8315002AE481C56F8E6
:1046B000300085421FDD02AD481C55F830000090E7
:1046C000481C05EBC0004068019002A850F831502A
:1046D000481C46F8305002A800EBC1004568481C51
:1046E00006EBC000456002AD009845F8310005EBCF
:1046F000C105019868600EA850F831604D1C50F853
:10470000350086421CDD0EA850F8350000900EA83A
:1047100000EBC500406801900EA850F8316040F8E9
:10472000356000EBC10046680EA800EBC50046608E
:104730000EA8009D40F8315000EBC100019D45607E
:10474000491CC4F105008842ACDC641C052CA7DBC5
:104750000F98052801D11CB070BD0398FBE70246F5
:1047600002B109B900207047012A0BD1012901D1FA
:104770000320F8E7022901D10220F4E703291DD123
:104780000120F0E7022A0BD1012901D10120EAE73B
:10479000022901D10320E6E703290FD10220E2E735
:1047A000032A0BD1012901D10220DCE7022901D122
:1047B0000120D8E7032901D10320D4E70020D2E764
:1047C000F7B595B0074600260023624800681699A1
:1047D000441A604840681799451A2046002801DBB2
:1047E000014600E041420291002003905A490968C5
:1047F000601A002801DB014600E0414204910121DA
:10480000059156490968601A002801DB014600E05D
:10481000414206910221079151490968601A002816
:1048200001DB014600E0414208910321099128463D
:10483000002801DB014600E041420A9100210B9172
:1048400045494968681A002801DB014600E04142F9
:104850000C9101210D9141494968681A002801DB3A
:10486000014600E041420E9102210F913C49496806
:10487000681A002801DB014600E041421091032143
:104880001191002655E000234EE002A850F83310A5
:1048900002AA581C52F8300081421FDD02A9581CA0
:1048A00051F830000090581C01EBC00040680190A6
:1048B00002A850F83310581C42F8301002A800EB40
:1048C000C3004168581C02EBC000416002A9009877
:1048D00041F8330001EBC301019848600AA850F881
:1048E0003320591C50F8310082421CDD0AA850F8D0
:1048F000310000900AA800EBC100406801900AA8AE
:1049000050F8332040F8312000EBC30042680AA879
:1049100000EBC10042600AA8009940F8331000EB98
:10492000C300019941605B1CC6F103009842ACDCF6
:10493000761C032EA7DB039812900B9813900B990B
:104940000398FFF70CFF149012A807C887E8070028
:1049500018B0F0BDD40B0020DC0B0020E40B0020CD
:10496000EC0B0020704700000FB41CB5074B06AAE3
:104970007B4469460090059800F0FFFB00206946E3
:1049800000F00EFC1CBC5DF814FB00002D080000BC
:104990002DE9F0410646002410687529314616A518
:1049A00010D0AFF30080002802DA404213A507E0E0
:1049B00031688A0701D512A502E0490704D511A57F
:1049C000012401E0AFF3008000210A2206F1240750
:1049D00009E0B0FBF2FCB0FBF2F302FB1C0030304C
:1049E00078541846491C0028F3D123462A463046FD
:1049F000BDE8F04100F056B9000000002D000000B5
:104A00002B000000200000002DE9F0474FF0000AC5
:104A100089460446C0F820A02046E168884700285F
:104A200076D0252806D0D4E901219047206A401C81
:104A30002062F1E7E168204600258847C4F81CA001
:104A400006460027C4F818A02A2E09D0304601F0E7
:104A50000BFC38B304EB8708303EC8F8186019E047
:104A600059F8041B204604EB87029161E1688847EE
:104A7000012F064618D1E069002820DA25F020052C
:104A80001DE0D8F8180000EB800006EB400030383D
:104A9000C8F818002046E1688847064601F0E4FBA4
:104AA0000028EED1012F0AD02E2E08D12046E16831
:104AB00088477F1C0646022F45F02005C4DBA0690D
:104AC000002803DA404245F00105A061E80701D063
:104AD00025F01005B6B1A6F14100192802D82036FC
:104AE00045F400654A463146204625604D46FBF7B1
:104AF00079FB58B1012806D0ED1D25F0070000F123
:104B0000080989E704E005F1040985E730468AE7EA
:104B1000206ABDE8F08730B505460B462A4613F8F3
:104B2000014B12F8010B08B1A042F8D01CB10028CB
:104B300002D06D1CF1E7284630BD10B5431C02E0E1
:104B400010F8011B71B18107FAD14FF0013202C890
:104B50008C1A8C4314EAC211F9D0C01A0A0603D089
:104B6000C01E10BDC01A10BD0A0401D0801E10BDA9
:104B70000902FCD0401E10BD421E12F8013F002B5E
:104B8000FBD111F8013B002B02F8013BF9D1704732
:104B900010B5203AC0F00B80B1E81850203AA0E8D8
:104BA0001850B1E81850A0E81850BFF4F5AF5FEA0C
:104BB000027C24BFB1E81850A0E8185044BF18C9BF
:104BC00018C0BDE810405FEA827C24BF51F8043B66
:104BD00040F8043B08BF7047D20728BF31F8023BBA
:104BE00048BF11F8012B28BF20F8023B48BF00F84E
:104BF000012B70474FF000020429C0F0128010F022
:104C0000030C00F01B80CCF1040CBCF1020F18BFA8
:104C100000F8012BA8BF20F8022BA1EB0C0100F03B
:104C20000DB85FEAC17C24BF00F8012B00F8012B0E
:104C300048BF00F8012B70474FF0000200B5134643
:104C400094469646203922BFA0E80C50A0E80C50AC
:104C5000B1F12001BFF4F7AF090728BFA0E80C505D
:104C600048BF0CC05DF804EB890028BF40F8042B56
:104C700008BF704748BF20F8022B11F0804F18BFC3
:104C800000F8012B7047704770477047704710B5A8
:104C900000F090FA006810BD10B5044600F08AFAE2
:104CA000046010BD2DE9F0470D4699469246044632
:104CB00000F124080168880604D5E06921F010019C
:104CC000216000E00120A84201DD471B00E0002731
:104CD000A1697A1902EB0900081AA0612078C006C0
:104CE00002D42046AFF30080002608E0D4E9012179
:104CF0001AF806009047206A401C761C20624E4538
:104D0000F4DB2078C0060AD52046AFF3008006E029
:104D1000D4E9012130209047206A401C2062381ECF
:104D2000A7F10107F4DC07E0D4E9012118F8050038
:104D30009047206A401C2062281EA5F10105F3DC83
:104D40002046AFF300802078000602D50220BDE89F
:104D5000F0870120FBE770472DE9FF4F0C461E4608
:104D60004FF0FF378BB0D2E90001DDF860800A9088
:104D70008A46C1F30A5505B93D46002108464FF061
:104D80000000BAF1000F00F4400005DA00EB8000EB
:104D90004FF4400101EA50004FEA9059B9F1010F78
:104DA00000DDB9460A9850EA4A000ED044F6105089
:104DB000A5F2FF3545432F14B8F1000F1ED0754200
:104DC000291E1EDDC9F100021CE0B8F1010F4FF0F1
:104DD000000001D0302103E0F24305E02154401CE3
:104DE000B042FBDB30460022002121540B99C1F870
:104DF0000880C1E900200FB0BDE8F08FBD1B6D1C1D
:104E0000DEE74A4600DA694206A800F05DFA06AB22
:104E100093E8070003AB83E8070050460A9900F0C7
:104E200033FB8DE80700A0F500501F380090039871
:104E3000002D09DD42F21F014A46084403A90390F0
:104E4000684600F092FD08E0A0F500504A461F3881
:104E500003A90390684600F09CFD8DE8070000045C
:104E6000000C03D04FF0FF30410800E01046B8F1CD
:104E7000000F03D00022009215461EE0751E05D4D7
:104E800000F09CF9303262556D1EF9D5B34601220F
:104E9000084302D000227F1C04E02078302801D192
:104EA00000227F1E002A099786D01DE0112D07DA07
:104EB00000F084F9303262556D1C50EA0102F5D1E0
:104EC000084302D00098C8B10EE00021681E05E03A
:104ED000235C625C63542254401E491C8142F7DB10
:104EE000AB46A81B401E0990002004F80B000B984D
:104EF000099AC0F80880C0E9002B7CE711264FF022
:104F0000000859E72DE9F04F88460446D21D22F0EB
:104F1000070191B0D1E90001CDE90A0100F06FFE6F
:104F200002460B98C00F01D02D2007E020688107B2
:104F300001D52B2002E0202101EAC000032A0990BC
:104F400001D0072A05DB03464146204600F07CF9E4
:104F50000BE12078800601D5E06900E00620B8F179
:104F6000650F814606D0B8F1660F18D0B8F1670F0B
:104F700070D131E00020B9F1110F009001DB112355
:104F800001E009F101030AAA01A90CA8FFF7E4FE58
:104F9000DDE90C70002609F10105834647E0012098
:104FA0004B4600904FF000470AAA01A90CA8FFF752
:104FB000D3FEDDE90DB00C995D46002610B909F16C
:104FC00001000D18B9EB050003D4C0F1FF3609F15B
:104FD0000105A5EB09002BE0B9F1010F01DA4FF053
:104FE00001090020B9F1110F0090484601DD11239D
:104FF00000E003460AAA01A90CA8FFF7ADFEDDE90F
:105000000C704D4600268346207800070AD4AB4535
:1050100000DA5D4601A8012D04DD411911F8011CDB
:10502000302907D04F4502DA17F1040F04DA0120C6
:1050300082460FE06D1EEEE7002F02DCED1B3E44C2
:1050400003E0781CA84200DD7D1CB81B00F1010ABA
:105050004FF000472078000703D4AA4501DB4FF04A
:10506000FF3A0021B7F1004F0DF143088DF84310CE
:1050700024D002202B23002F01DA7F422D230A2186
:10508000021EA0F1010000DC5FB197FBF1FC97FB71
:10509000F1F201FB1C7C17460CF1300C08F801CD35
:1050A000EEE7A8F1010003702188090501D545212B
:1050B00000E06521A0F1010800F8011C09980FA982
:1050C000A1EB0807FF1D00B10120411901EBEA70B7
:1050D000A1693844081A401EA0612078C00602D495
:1050E0002046AFF30080099828B1D4E90121904708
:1050F000206A401C20622078C00622D52046AFF3EB
:1051000000801EE0002E04DBB34502DD01A8805DB7
:1051100000E03020D4E901219047206A401C206241
:10512000761CAAF101005FEA000A0AD100F03EF8FD
:10513000C0680168405CD4E901219047206A401CA6
:105140002062281EA5F10105DCDC07E0D4E901217D
:1051500018F8010B9047206A401C2062381EA7F106
:105160000107F3DC2046AFF30080032011B043E6D3
:1051700001694A1C02610878704700B58FB0CDE91B
:1051800001310021059105497944CDE9031011460B
:105190006846FFF739FC0FB000BD0000E5FFFFFFD8
:1051A0000A6802F8010B0A60704700000048704767
:1051B0000012002000487047E011002030B5B0F127
:1051C0000A024FEA900E71F100034EEA817EB0EBC5
:1051D0000E0061EB91014FEA101E4EEA017E10EBCA
:1051E0000E0041EB11114FEA102E4EEA016E10EB4A
:1051F0000E0041EB11214FEA104E4EEA014E10EB2A
:105200000E0041EB1141401841F100014FEAD0007E
:1052100040EA41704FEAD10110EB80054FEA81046A
:1052200044EA907444EB01046D1944EB0404521BEE
:10523000A3414FF0000348BF0A3200D530BD401CE7
:1052400041F1000130BD00002DE9F0411F46044648
:1052500003260168072A01F4006004DB08B116A5E3
:1052600005E016A503E008B115A500E015A521F09D
:1052700010002060A069C01EA0610FB1401EA06197
:105280002046AFF300804FB1D4E901213846904762
:10529000206A401C2062C01C206206E0206AFAE7F7
:1052A000D4E9012115F8010B9047761EF8D220466B
:1052B000AFF30080BDE8F0814E414E006E616E009C
:1052C000494E4600696E66002DE9F0478146164654
:1052D0008AB0334878440DC88DE80D0030487844D2
:1052E000801C03AC0DC884E80D0041F69B300844D7
:1052F000372190FBF1F290FBF1F5A5F1800501FB60
:1053000012041B3C02D56442012000E00020DFF8BB
:1053100090A080460027FA44AAF1BE0A0DE0E007FB
:1053200009D03246684607EB47010AEB810100F0DD
:1053300030FB8DE8070064107F1C002CEFD1184F64
:105340007F44AC3F18E0E80714D007EB04100DF1E0
:10535000180A90E80E008AE80E00C068F04201D1F9
:1053600098190890324606A903A800F012FB03AB77
:1053700083E807006D10641C002DE4D132466946B5
:10538000B8F1000F03A802D000F0EFFA01E000F03E
:1053900000FBC9E90001C9F808200AB0BDE8F087A0
:1053A0000C2C000000487047E01100207546FFF704
:1053B000F9FFAE4605006946534620F007008546D2
:1053C00018B020B5FBF752F9BDE820404FF00006B9
:1053D0004FF000074FF000084FF0000B21F00701DD
:1053E000AC46ACE8C009ACE8C009ACE8C009ACE820
:1053F000C0098D46704710B50446AFF300802046C3
:10540000BDE81040FAF70BBF4FF0013C50F8042BF9
:1054100051F8043B9A4221D1A2EB0C03934313EAC7
:10542000CC1317D150F8042B51F8043B9A4215D1F4
:10543000A2EB0C03934313EACC130BD150F8042BCB
:1054400051F8043B9A4209D1A2EB0C03934313EAAF
:10545000CC13DBD04FF00000704700BFD01A01BA68
:10546000B1FA81F101F0180122FA01F0CB40C1F14B
:105470002001DBB2C0B2C01A2CFA01F3D11A914359
:1054800011EAC311E6D170475FEA400C08BF91F002
:10549000000F4FEA8C234FEAC12243EA51514FEAF1
:1054A0001C5018BF00F5F0404FEA300018BF41F023
:1054B00000415FEA6C5C00F02980BCF1FF3F08BF4F
:1054C00040F080407047130C06BF12044FF0100CE0
:1054D0004FF0000C130E04BF12020CF1080C130F56
:1054E00004BF12010CF1040C930F04BF92000CF1E5
:1054F000020CD30F04BF52000CF1010C11464FF007
:105500000002A0F11F00A0EB0C00704711F0004F4B
:1055100008BF704731F000413FF4D5AF0B0C06BF18
:1055200009044FF0100C4FF0000C0B0E04BF0902E1
:105530000CF1080C0B0F04BF09010CF1040C8B0FCC
:1055400004BF89000CF1020CCB0F04BF49000CF121
:10555000010CCCF12003A0EB0C0022FA03F302FAB9
:105560000CF241EA030100F10100704720F07F4C8A
:1055700080EA030023F07F47ACEB070303F57C537D
:1055800000F0004003F1FF032DE980494FEA154B7D
:1055900009B44FEA144325EA0B4E24EA03480FF2FC
:1055A000042606EB132749083E785FEA320203FB24
:1055B0000667C7F5000707FB06F64FEA54374FEAC0
:1055C000D64606F1020607FB066CCCF1005C4FEAFA
:1055D0001C472CEA074C07FB06F40CFB06F504EB12
:1055E00015464FEA961634BF00204FF000404FEAB0
:1055F000D13706FB07FC4FEA1C4C0CFB0BF7D21B08
:1056000003FB0CF761EB07010CFB0EF7B0EB074057
:1056100072EB17420CFB08F734BFA2EB0742B2EB68
:10562000074261EB17414FEA0C444FEA910706FB32
:1056300007FC4FEA1C4C0CFB0BF7B0EBC74072EBBE
:10564000573203FB0CF734BFA2EBC742B2EBC742A1
:1056500061EB57310CFB0EF7B0EBC70072EB5772E2
:105660000CFB08F734BFA2EBC702B2EBC70261EB39
:105670005771039F4FEA816141EA921104EBCC0418
:105680004FEAD1374FEA826206FB07FC42EA9012EA
:105690004FEA80604FEA1C4C0CFB0BF7D21B03FB5C
:1056A0000CF761EB07010CFB0EF7B0EB074072EB58
:1056B00017420CFB08F734BFA2EB0742B2EB0742DC
:1056C00061EB17414FEA8C554FEA910704EB9C249C
:1056D00006FB07FC4FEA1C4C0CFB0BF7B0EBC7407A
:1056E00072EB573203FB0CF734BFA2EBC742B2EBAD
:1056F000C74261EB57310CFB0EF7B0EBC70072EB02
:1057000057720CFB08F734BFA2EBC702B2EBC7021B
:1057100061EB577115EB4C254FEA816141EA92111B
:105720004FEA82624FEAD13742EA901206FB07FC49
:1057300044F100044FEA80604FEA1C4C0CFB0BF76D
:10574000D21B03FB0CF761EB07010CFB0EF7B0EB70
:10575000074072EB17420CFB08F734BFA2EB07427D
:10576000B2EB074261EB174115EB1C154FEA813193
:1057700041EA92414FEA823242EA90424FEA803057
:105780004FEA0C7644F1000448EA03434EEA0B4822
:105790004FF0000EB2EB080C71EB030724BF62461A
:1057A00039464EEB0E0E4FF0000B001852414941A6
:1057B0004BEB0B0BB2EB080C71EB03077BF1000B0F
:1057C00024BF624639464EEB0E0E4FF0000B001818
:1057D000524149414BEB0B0BB2EB080C71EB030749
:1057E0007BF1000B24BF624639464EEB0E0E51EAA8
:1057F000020718BF46F0010616EB0E7655F10002BF
:1058000054F1000103D5BDE88901BDE80088BDE879
:105810008901BDE80048B619524141EB0101A3F1ED
:105820000103704780807F7E7D7C7B7A79787776F4
:1058300076757473727171706F6E6E6D6C6C6B6A6D
:105840006A6968686766666564646363626161600B
:10585000605F5F5E5E5D5D5C5C5B5B5A5A59595888
:1058600058575756565555555454535352525251F2
:10587000515050504F4F4F4E4E4D4D4D4C4C4C4B48
:105880004B4B4A4A4A49494948484847474747468F
:1058900046464545454444444443434343424242CB
:1058A00042414141002B26D4770021D01CB54FEA5C
:1058B000370703B44FF010004FF010014FF0000015
:1058C0000FBCBDE810400BF1010BBBF1010F08BF8D
:1058D0005FEA170722BF12F1010211F101014FF037
:1058E000004143F1000300F0004043EA000070472C
:1058F000F9D35708DAE746EA064613F1400F4FEAB4
:1059000016461FDD13F1200FDFBF16430A460021A4
:1059100020335B42C8D0C3F1200746EA064602FAAC
:1059200007F74FEA164646EA0706C3F1200722FAB0
:1059300003F201FA07F721FA03F14FF0000342EAFC
:105940000702B1E746EA020646EA06464FEA16466D
:1059500046EA0106BCBF46EA0646360C4FF0000395
:105960004FF000024FF000019EE72DE9C04893463A
:1059700030B491E8380007C831EA400C48BF34EA37
:10598000430C03D5FFF7F2FDFFF78CFFF0BCBDE839
:1059900000882DE9C048934630B491E8380007C824
:1059A00010F0804F08BF13F0804F03D100F005F8CE
:1059B000FFF778FFF0BCBDE8008820F07F4780EA61
:1059C000030023F07F4C07EB0C03A3F57C5300F09E
:1059D0000040A3F1FE0392F0000F00F0B38095F0B9
:1059E000000F00F077802DE901494FEA11404FEA9E
:1059F000144621EA004800FB06FC24EA064708FB9F
:105A000006F607FB08F800FB07F718EB06484CEB17
:105A1000164C4FEA124B18EB07484FEA15464CEB71
:105A2000174022EA0B4E0BFB06FC25EA06470EFB4D
:105A300006F607FB0EFE0BFB07F71EEB064E4CEBC4
:105A4000164C4FF000061EEB074E4CEB174B18EBB5
:105A50000B0840F1000018EB0E0B58EB000840F16A
:105A600000008F1A4FF000013CBFC943661B14BFF2
:105A7000B5EB040C00213CBFC943F61B4FEA1744A9
:105A80004EEA8E0E27EA04454FEA1C4704FB0762E4
:105A90002CEA074C05FB07F70CFB05F604FB0CFC96
:105AA00016EB074642EB174216EB0C4642EB1C4244
:105AB0001BEB060658EB0202414146EA9E0601D561
:105AC000BDE80189B619524141EB0101A3F101037F
:105AD000BDE801894FEA14454FEA114724EA05461B
