:020000040800F2
:10000000D80E0020F9080008FD060008FF060008C9
:1000100003070008070700080B070008000000009E
:100020000000000000000000000000000F070008B2
:10003000110700080000000013070008150700085A
:100040001309000813090008130900081309000820
:100050001309000813090008130900081309000810
:100060001309000813090008130900081309000800
:1000700013090008130900081309000813090008F0
:1000800013090008130900081309000813090008E0
:1000900013090008130900081309000813090008D0
:1000A00013090008130900081309000813090008C0
:1000B0001309000813090008C337000813090008D2
:1000C00013090008130900081309000813090008A0
:1000D00013090008C32400081309000813090008C5
:1000E0001309000813090008130900081309000880
:1000F0001309000813090008130900081309000870
:10010000130900081309000813090008130900085F
:10011000130900081309000813090008130900084F
:10012000130900081309000813090008130900083F
:1001300000F002F800F06AF80AA090E8000C82448F
:100140008344AAF10107DA4501D100F05FF8AFF26C
:10015000090EBAE80F0013F0010F18BFFB1A43F0A5
:100160000103184738780000587800000A444FF01F
:10017000000C10F8013B13F0070408BF10F8014B06
:100180001D1108BF10F8015B641E05D010F8016B4B
:10019000641E01F8016BF9D113F0080F1EBF10F8AF
:1001A000014BAD1C0C1B09D16D1E58BF01F801CBD2
:1001B000FAD505E014F8016B01F8016B6D1EF9D555
:1001C0009142D6D37047000000230024002500266A
:1001D000103A28BF78C1FBD8520728BF30C148BFAA
:1001E0000B607047662906F06486642904F00C8170
:1001F000002070471FB504F015FD04000020002109
:1002000005F014FEE0601FBD10B510BD04F00AFE3D
:100210001146FFF7EFFF00F06FF904F028FE03B47A
:10022000FFF7F2FF03BC02F0F1F8000070B58AB0EE
:10023000044600230021F9480068021B10460028EC
:1002400001DB054600E04542029500200390F44D95
:100250002D68501B002801DB054600E0454204954F
:1002600001250595EF4D2D68501B002801DB054643
:1002700000E04542069502250795EB4D2D68501B81
:10028000002801DB054600E0454208950325099555
:10029000002330E0002129E002A850F8315002AEDE
:1002A000481C56F8300085421FDD02AD481C55F849
:1002B00030000090481C05EBC0004068019002A887
:1002C00050F83150481C46F8305002A800EBC100ED
:1002D0004568481C06EBC000456002AD009845F833
:1002E000310005EBC10501986860491CC3F10300AA
:1002F0008842D1DC5B1C032BCCDB03980AB070BDB9
:1003000070B58EB0044600230021C4480068021B6B
:100310001046002801DB054600E04542029500201A
:100320000390C24D2D68501B002801DB054600E0FC
:100330004542049501250595BD4D2D68501B0028AB
:1003400001DB054600E04542069502250795B94DBB
:100350002D68501B002801DB054600E0454208954A
:1003600003250995B44D2D68501B002801DB054677
:1003700000E045420A9504250B95B04D2D68501BB1
:10038000002801DB054600E045420C9505250D954A
:10039000002330E0002129E002A850F8315002AEDD
:1003A000481C56F8300085421FDD02AD481C55F848
:1003B00030000090481C05EBC0004068019002A886
:1003C00050F83150481C46F8305002A800EBC100EC
:1003D0004568481C06EBC000456002AD009845F832
:1003E000310005EBC10501986860491CC3F10500A7
:1003F0008842D1DC5B1C052BCCDB03980EB070BDB2
:1004000001468F48006800281ADD8E4800680A28D7
:100410000ADA8D48006808448B4B186089480068E8
:10042000401C884B186010E00020864B18608648FE
:1004300002680020844B18600A2092FBF0F070479D
:100440000020804B1860804B18600020F7E72DE9F2
:10045000FF5F8EB014461D46DDE91CABCDE90CAB49
:10046000CDE90A4500BF794803C8CDE908017849BC
:10047000DDE90A2303C905F021FD8046894640468F
:100480004946DDE90C2305F019FD02460B46CDE98E
:1004900002014046494605F0C1FDCDE90401DDE910
:1004A0000823DDE90E0106F0A3F8CDE90001DDE93E
:1004B000042305F093FFCDE90201DDE9082305F0EF
:1004C000FDFC06460F4600206249DDE9042306F0E4
:1004D0008FF842464B46CDE9020105F07FFFCDE99A
:1004E00006015B4ADDE9060103C25848C0C0304638
:1004F000394612B0BDE8F09F01F01EFF4FF4A06036
:1005000000F01AFA4FF4E13001F08FFF524802F088
:100510007AFE03F004FC03F07EFB03F0B7F8D8E0AA
:1005200002F067FE03F0C3F8044602F07CFE4B497C
:10053000002003F097F9494800684949B0FBF1F2FF
:1005400001FB120045490860464800684449B0FB79
:10055000F1F201FB1200434908604348006840493A
:10056000B0FBF1F201FB12003F4908603F48006810
:100570003B49B0FBF1F201FB12003C4908603A48EC
:100580000268384801683548006803F07CFE2C4852
:100590000068002841DD31480068FFF731FF344929
:1005A00008600846006800287FDD254800680A28A2
:1005B00079D2DFE800F078050A121A222A5F677004
:1005C0002B480068154908606EE014480068284907
:1005D0000968401A1249086066E01048006824491A
:1005E0000968401A0F4908605EE00C48006820491D
:1005F0000968401A0C49086056E0084800681C4920
:100600000968401A094908604EE004480068184922
:100610000968401A0649086046E046E034000020B8
:100620004000002044000020480000204C00002032
:100630005000002054000020580000205C000020E2
:1006400020000020640000206800002070000020CE
:10065000780000200000F03F9802002000000020F9
:1006600000E1F50504000020080000200C00002037
:10067000600000201748006817490968401A1749A8
:10068000086011E01348006813490968401A1449CA
:10069000086009E007E00F4800680F490968401A40
:1006A0001049086000E000BF00BF0F480068012843
:1006B00005D10E480068FFF7B9FD0D4908600D48E7
:1006C0000068012805D109480068FFF719FE0A49AA
:1006D000086025E73400002060000020540000205E
:1006E000580000205C0000202400002000000020B2
:1006F000280000202C00002030000020704700BFA0
:10070000FEE700BFFEE700BFFEE700BFFEE7704761
:1007100070477047704700000CB5002001900090B2
:100720006C48006840F480306A49086000BF69483E
:10073000006800F4003000900198401C019000987F
:1007400018B90198B0F5A06FF1D16248006800F4C3
:10075000003010B10120009001E0002000900098CE
:10076000012843D15C48006840F010005A490860F5
:100770000846006820F0030008600846006840F062
:100780000200086053484068524948600846406883
:1007900048600846406840F4806048600846406809
:1007A00020F47C1048600846406840F4E810486037
:1007B0000846006840F08070086000BF4548006847
:1007C00000F000700028F9D04248406820F0030093
:1007D000404948600846406840F00200486000BF59
:1007E0003C48406800F00C000828F9D10CBD10B559
:1007F000FFF792FF10BD10B53648006840F00100C9
:100800003449086008464068344908403149486026
:1008100008460068324908402E49086008460068CA
:1008200020F4802008600846406820F4FE004860FC
:100830004FF41F008860FFF7DAFF4FF0006029498E
:10084000086010BD10B5002100200022214B5B681C
:1008500003F00C0121B1042906D0082928D107E0B2
:10086000214B224C236027E01F4B204C236023E0C8
:10087000184B5B6803F47010164B5B6803F480320E
:10088000022303EB904022B9194B4343174C2360DA
:100890000DE0104B5B6803F4003323B1144B43436A
:1008A000124C236003E0104B4343104C236003E0E1
:1008B0000D4B0E4C236000BF00BF064B5B68C3F3BB
:1008C00003130C4CE15C094B1B68CB40074C2360C5
:1008D00010BD000000100240002002400000FFF8A0
:1008E000FFFFF6FE08ED00E000127A008000002015
:1008F00000093D008400002009488047094800475E
:10090000FEE7FEE7FEE7FEE7FEE7FEE7FEE7FEE7BF
:10091000FEE7FEE704480549054A064B704700001C
:10092000F707000831010008D8080020D80E002081
:10093000D80A0020D80A002031490143314A116009
:10094000704770B5002100230F22C47804B32D4CEA
:10095000246804F4E064C4F5E064210AC1F10403EE
:10096000CA40447804FA03F1847814402143090111
:10097000254C0678A155047804F01F050124AC40ED
:1009800005786D11AD0005F1E025C5F8004109E0DD
:10099000047804F01F050124AC401C4D0678761144
:1009A00045F8264070BD1A4A0A400243154B1B1FEA
:1009B0001A60704739B1134A121D12680243114B75
:1009C0001B1D1A6006E00F4A121D126882430D4B70
:1009D0001B1D1A607047042808D14FF0E0210969F7
:1009E00041F004014FF0E022116107E04FF0E021F7
:1009F000096921F004014FF0E02211617047000005
:100A00000000FA050CED00E000E400E080E100E009
:100A100080FFFF1F10B50446CC48844208D1012155
:100A2000042000F02DFB0021042000F029FB46E00B
:100A3000C748844208D10121082000F021FB002191
:100A4000082000F01DFB3AE0C248844208D1012191
:100A5000102000F015FB0021102000F011FB2EE00B
:100A6000BD48844208D10121202000F009FB00216B
:100A7000202000F005FB22E0B848844208D1012183
:100A8000402000F0FDFA0021402000F0F9FA16E0C5
:100A9000B348844208D10121802000F0F1FA0021FE
:100AA000802000F0EDFA0AE0AE48844207D101212F
:100AB000801500F0E5FA0021A01500F0E1FA10BD64
:100AC00010B50121084600F0DBFA0021012000F0FA
:100AD000D7FA10BD2DE9F04102460025002600207E
:100AE00000230024002791F803C00CF00F0591F8B3
:100AF00003C00CF0100CBCF1000F03D091F802C041
:100B00004CEA050591F800C0BCF1000F31D0146823
:100B100000202BE04FF0010C0CFA00F3B1F800C0FC
:100B20000CEA03069E4220D183004FF00F0C0CFA12
:100B300003F7BC4305FA03FC4CEA040491F803C034
:100B4000BCF1280F06D14FF0010C0CFA00FCC2F8E2
:100B500014C00AE091F803C0BCF1480F05D14FF072
:100B6000010C0CFA00FCC2F810C0401C0828D1D3BC
:100B70001460B1F800C0BCF1FF0F34DD54680020F0
:100B80002EE000F1080C4FF0010808FA0CF3B1F860
:100B900000C00CEA03069E4221D183004FF00F0CE7
:100BA0000CFA03F7BC4305FA03FC4CEA040491F881
:100BB00003C0BCF1280F05D100F1080C08FA0CF8AD
:100BC000C2F8148091F803C0BCF1480F07D100F1BE
:100BD000080C4FF0010808FA0CF8C2F81080401C0D
:100BE0000828CED35460BDE8F0814FF6FF71018034
:100BF000022181700421C170704702460020936871
:100C00000B400BB1012000E00020704701468868CE
:100C100080B2704702460020D3680B400BB1012020
:100C200000E0002070470146C86880B2704701614B
:100C30007047416170470AB1016100E0416170474E
:100C4000C16070474FF480320A43826181618261E2
:100C500082698269704702460020434B18684FF64C
:100C60008073184040EA021008433F4B18607047F9
:100C70003E49C8617047F0B50A46002300240021B0
:100C8000002500F00046B6F1004F02D1364EF16962
:100C900001E0354E7168C0F3034583B200F440169D
:100CA000B6F5401F08D121F070612F4E766826F00E
:100CB00070662D4F7E6012E000F48016B6F5801F3E
:100CC00006D1032606FA05F4A14341F0706106E05F
:100CD000460D360103FA06F6B14341F0706122B1C8
:100CE000460D360103FA06F6314300F00046B6F130
:100CF000004F02D11C4EF16101E01B4E7160F0BD4E
:100D000030B500228B071C0F0F2303FA04F2164B99
:100D100008338C1053F824309343134C08348D104F
:100D200044F8253023468C1053F824308C07240FC8
:100D300000FA04F423430C4C08348D1044F8253099
:100D400030BD0A49DC3108607047000000080140EE
:100D5000000C014000100140001401400018014047
:100D6000001C014000200140000001400000204222
:100D7000DF48006840F00100DD490860084640682F
:100D8000DC490840DA49486008460068DA4908400A
:100D9000D74908600846006820F4802008600846AB
:100DA000406820F4FE0048604FF41F0088607047E0
:100DB000CF49096821F48031CD4A11601146096894
:100DC00021F480211160B0F5803F03D0B0F5802F71
:100DD0000ED106E0C649096841F48031C44A116069
:100DE00007E0C349096841F4A021C14A116000E04D
:100DF00000BF00BF704710B501460022002300204D
:100E00004A11012A02D1BA4C236806E0022A02D113
:100E1000B74C236A01E0B64C636A01F01F0201245B
:100E200094401C400CB1012000E0002010BD38B5FA
:100E3000002000900024002500BF3120FFF7DBFFD9
:100E400005460098401C00900098B0F5A06F01D0B6
:100E5000002DF2D03120FFF7CEFF08B1012400E0D1
:100E60000024204638BD01460020A14A106820F029
:100E7000F80040EAC10010607047A0490860704760
:100E8000024600209A4B586820F47C1042EA010385
:100E90001843974B58607047984908667047014659
:100EA0000020934A506820F00300084350607047C8
:100EB0008F48406800F00C007047014600208C4AC3
:100EC000506820F0F0000843506070470146002051
:100ED000874A506820F4E06008435060704701463C
:100EE0000020834A506820F4605040EAC1005060FE
:100EF000704729B17E4A527A02437D4B5A7204E010
:100F00007B4A527A82437A4B5A7270477B49D83176
:100F10000860704701460020754A506820F4404040
:100F20000843506070470021714A20321170704AA6
:100F300082F82010012802D004280AD104E00121FF
:100F40006B4A2032117005E00521694A2032117088
:100F500000E000BF00BF70476949086070476449FE
:100F6000096A0143624A1162704765494439086061
:100F7000704730B500210022002400235C4D6D68CD
:100F800005F00C0121B1042905D0082923D105E081
:100F90005C4D056022E05B4D05601FE0544D6D68BF
:100FA00005F47012524D6D6805F48034022505EB8E
:100FB00092421CB9544D554305600BE04C4D6D6891
:100FC00005F400351DB1504D5543056002E04D4D0F
:100FD0005543056002E04B4D056000BF00BF444D26
:100FE0006D6805F0F0010909484D6B5C0568DD404E
:100FF00045603F4D6D6805F4E061090A434D6B5C47
:101000004568DD4085603A4D6D6805F46051C90A58
:101010003E4D6B5C4568DD40C560354D6D6805F43F
:101020004041890B3A4D6B5CC568B5FBF3F5056132
:1010300030BD29B12E4A526902432D4B5A6104E05A
:101040002B4A526982432A4B5A61704729B1284A78
:1010500092690243264B9A6104E0254A92698243D1
:10106000234B9A61704729B1214AD2690243204B30
:10107000DA6104E01E4AD26982431D4BDA6170478F
:1010800029B11B4AD2680243194BDA6004E0184ABE
:10109000D2688243164BDA60704729B1144A12694C
:1010A0000243134B1A6104E0114A12698243104B48
:1010B0001A61704712494039086070470F49C86487
:1010C00070470B49C87170470948406A40F080700A
:1010D00007494862704701460020054A92680A4065
:1010E0000AB1012000E00020704701498872704772
:1010F000001002400000FFF8FFFFF6FE0000424231
:101100008004424200127A0000093D009400002051
:10111000A400002010B50446FE48844208D10121F5
:10112000C014FFF7ADFF0021E014FFF7A9FFC4E0F2
:10113000B4F1804F08D101210846FFF7AEFF00212E
:101140000120FFF7AAFFB8E0F348844208D101214B
:101150000220FFF7A2FF00210220FFF79EFFACE074
:10116000EE48844208D101210420FFF796FF0021B8
:101170000420FFF792FFA0E0E948844208D1012152
:101180000820FFF78AFF00210820FFF786FF94E080
:10119000E448844208D101211020FFF77EFF00219E
:1011A0001020FFF77AFF88E0DF48844208D1012150
:1011B0002020FFF772FF00212020FFF76EFF7CE068
:1011C000DA48844208D101214014FFF759FF002179
:1011D0006014FFF755FF70E0D548844209D1012122
:1011E000C804FFF74DFF00214FF40020FFF748FF30
:1011F00063E0D048844209D101210805FFF740FF90
:1012000000214FF48010FFF73BFF56E0CA488442AC
:1012100009D101214805FFF733FF00214FF40010E9
:10122000FFF72EFF49E0C548844208D10121402044
:10123000FFF733FF00214020FFF72FFF3DE0C048BC
:10124000844208D101218020FFF727FF0021802060
:10125000FFF723FF31E0BB48844208D1012180150C
:10126000FFF71BFF0021A015FFF717FF25E0B64889
:10127000844209D101210804FFF702FF00214FF445
:101280008030FFF7FDFE18E0B048844209D101210B
:101290004804FFF7F5FE00214FF40030FFF7F0FEA1
:1012A0000BE0AB48844208D101218804FFF7E8FE37
:1012B00000214FF48020FFF7E3FE10BD00220288DA
:1012C000944B98420ED0994B98420BD0B0F1804F7E
:1012D00008D0914B984205D0904B984202D0904B49
:1012E000984204D14FF68F731A404B881A438D4BA6
:1012F000984207D08C4B984204D04FF6FF431A40D7
:10130000CB881A4302808B8883850B880385814BA9
:1013100098420BD0854B984208D08B4B984205D011
:101320008A4B984202D08A4B984201D10B7A0386AD
:1013300001238382704770B5002400220023058CAE
:101340004FF6FE7635400584028C8388048B4FF679
:101350008F752C40B51E2C400D882C43751E2A40DD
:101360000D892A434D882A436A4DA8420BD06F4D00
:10137000A84208D0744DA84205D0744DA84202D0AE
:10138000734DA84213D14FF6F7752A404D892A4371
:101390004FF6FB752A408D882A434FF6FF652B4098
:1013A0004FF6FF552B408D892B43CD892B438380EE
:1013B0000483CD888586028470BD70B50024002228
:1013C0000023058C4FF6EF7635400584028C838828
:1013D000048B48F6FF752C404FF6FF452C400D88D6
:1013E0004FF6FF7606EA05252C434FF6DF752A40B7
:1013F0000D8906EA05152A434D8806EA05152A4394
:10140000444DA84202D0494DA8421DD14FF67F75E8
:101410002A404D894FF6FF7606EA05152A434FF616
:10142000BF752A408D8806EA05152A434FF6FF3519
:101430002B404FF2FF752B408D8906EA85052B4323
:10144000CD8906EA85052B4383800483CD880587F3
:10145000028470BD70B5002400220023058C4FF675
:10146000FF6635400584028C8388848B4FF68F7528
:101470002C404FF6FC752C400D882C434FF6FF5541
:101480002A400D894FF6FF7606EA05252A434D8846
:1014900006EA05252A431F4DA84202D0234DA84243
:1014A0001DD14FF2FF752A404D894FF6FF7606EAAF
:1014B00005252A434FF6FF352A408D8806EA052583
:1014C0002A434EF6FF752B404DF6FF752B408D8954
:1014D00006EA05152B43CD8906EA05152B438380C3
:1014E0008483CD888587028470BD70B50022002377
:1014F0000024058C4EF6FF7635400584038C8488E5
:10150000828B48F6FF752A404FF6FF452A400D882A
:1015100020E00000002C01400004004000080040D2
:10152000000C004000100040001400400034014056
:10153000004C0140005001400054014000180040A0
:10154000001C0040002000400040014000440140D9
:10155000004801404FF6FF7606EA05252A434DF67E
:10156000FF752B400D8906EA05352B434D8806EAA9
:1015700005352B43FA4DA84202D0FA4DA84208D1B6
:101580004BF6FF752C408D894FF6FF7606EA8515E0
:101590002C4384808283CD88A0F84050038470BDA2
:1015A000828B4FF2FF331A408283828B4FF6FF7398
:1015B00003EA01231A4382837047F0B50C461546AF
:1015C000002200210026078C4EF6FF7C07EA0C075C
:1015D0000784828B018C4FF6FF7707EA043640F6CA
:1015E000FF473A404FF6FF7707EA05273A434FF6A1
:1015F000FF7707EA03373A43D94FB8420ED0D94FA5
:10160000B8420BD0B0F1804F08D0D74FB84205D0C8
:10161000D64FB84202D0D64FB84206D14DF6FF772A
:10162000394046F48057394305E047F6FF573940C3
:1016300044F48057394382830184F0BD828B4FF696
:10164000F3731A408283828B0A4382837047F0B51A
:101650000C461546002200210026078C4FF6FF6C31
:1016600007EA0C070784828B018C4FF6FF7707EAA5
:1016700004264FF60C773A404FF6FF7707EA031738
:101680002F433A43B64FB8420ED0B64FB8420BD0B4
:10169000B0F1804F08D0B44FB84205D0B34FB84234
:1016A00002D0B34FB84206D14FF6FF57394046F447
:1016B0008077394305E04FF2FF57394044F4807793
:1016C000394382830184F0BD028B4FF2FF331A400D
:1016D0000283028B4FF6FF7303EA01231A4302834E
:1016E0007047F0B50C461546002200210026078CF5
:1016F0004FF6EF7C07EA0C070784028B018C4FF64C
:10170000FF7707EA041640F6FF473A404FF6FF77A7
:1017100007EA03373A434FF6FF7707EA05273A43CC
:101720008F4FB8420ED08F4FB8420BD0B0F1804FE0
:1017300008D08D4FB84205D08C4FB84202D08C4FA4
:10174000B84206D14FF6DF77394046F010073943EB
:1017500005E04FF65F77394044F0100739430283C4
:101760000184F0BD028B4FF6F3731A400283028BA3
:101770000A4302837047F0B50C461546002200214B
:10178000068C4FF6FE773E400684028B018C4FF6A6
:101790000C7632407E1C06EA03162E433243704E0E
:1017A000B0420ED06F4EB0420BD0B0F1804F08D097
:1017B0006D4EB04205D06D4EB04202D06C4EB0427C
:1017C00006D14FF6FD76314044F00106314305E085
:1017D0004FF6F576314044F001063143028301842F
:1017E000F0BD70B505460C465D4885420ED05D489B
:1017F00085420BD0B5F1804F08D05B48854205D0BB
:101800005A48854202D05A48854200D100E000BFC4
:10181000208850B92389A28861882846FFF7ABFF4A
:10182000E1882846FFF79EFF25E0208804280AD19A
:101830002389A28861882846FFF753FFE18828465C
:10184000FFF742FF17E0208808280AD12389A288E1
:1018500061882846FFF7FBFEE1882846FFF7EEFE89
:1018600009E02389A28861882846FFF7A6FEE1885F
:101870002846FFF795FE70BD2DE9F04105460C4660
:1018800000260127608808B9022600E00026A0880B
:10189000012801D1022700E001272088A0B923896F
:1018A000A28861882846FFF766FFE1882846FFF78F
:1018B00059FF23893A4631462846FFF712FFE1884F
:1018C0002846FFF701FF13E02389A2886188284694
:1018D000FFF707FFE1882846FFF7F6FE23893A461F
:1018E00031462846FFF747FFE1882846FFF73AFFD1
:1018F000BDE8F0810A884B881A438B881A43CB884D
:101900001A430B891A434B891A438B891A43A0F84F
:10191000442070474FF6FF71818000210180C18013
:101920004180017270470021018041808180C18027
:10193000018141818181C181704700210180418005
:10194000012181800021C180018170470021018037
:1019500041808180C1800181418181817047000087
:10196000002C014000340140000400400008004009
:10197000000C004021B1028842F00102028004E024
:1019800002884FF6FE731A400280704731B1B0F8FA
:10199000442042F40042A0F8442005E0B0F844207E
:1019A000C2F30E02A0F8442070471AB183890B439A
:1019B000838102E083898B438381704781827047F2
:1019C00041EA0203A0F8483070471AB183890B43FB
:1019D000838102E083898B438381704701894FF6BD
:1019E000F8721140018170470A46002101894FF6C3
:1019F0008F73194011430181704730B504460D467D
:101A000029462046FFF7F0FF208940F0070020819B
:101A100030BD2DE9F04104460D4616461F46602DA7
:101A200006D13B46012231462046FFF75AFE05E02B
:101A30003B46012231462046FFF79DFE29462046BF
:101A4000FFF7D2FF208940F007002081BDE8F08138
:101A500030B50C4600210189C9B24FF6FF7505EA81
:101A60000325154325432943018130BD2DE9F0416C
:101A700005460E4617469846002443463A463146E8
:101A80002846FFF7E5FF2C894FF6F870044044F034
:101A900007044FF68F70044044F070042C81BDE8B9
:101AA000F081F0B504460D4616461F463B463246C9
:101AB00029462046FFF7CCFF208940F48040208152
:101AC000F0BD0185828270470A46002101884FF6E9
:101AD0008F731940114301807047F0B50C461546CD
:101AE0001E460021002200230189028B038C4FF641
:101AF000F877394021434FF6FC473A4040F201174E
:101B00003A434FF6DD773B404FF6FF7707EA06177B
:101B10002F433B43018102830384F0BD0A46002129
:101B2000018B4FF68F7319401143018370470A46AA
:101B30000021018B48F6FF7319404FF6FF7303EA4B
:101B400002231943018370470A460021818B4FF617
:101B50008F7319401143818370470A460021818B9E
:101B600048F6FF7319404FF6FF7303EA0223194347
:101B70008183704721B1028842F08002028004E034
:101B800002884FF67F731A400280704721B1828825
:101B900042F00402828004E082884FF6FB731A4010
:101BA0008280704721B1828842F00802828004E07E
:101BB00082884FF6F7731A408280704721B182887D
:101BC00042F00102828004E082884FF6FE731A40E0
:101BD000828070470A460021018B4FF6F773194047
:101BE0001143018370470A460021018B4FF2FF73B6
:101BF00019404FF6FF7303EA02231943018370472C
:101C00000A460021818B4FF6F773194011438183F7
:101C100070470A460021818B4FF2FF7319404FF63F
:101C2000FF7303EA02231943818370470A460021A8
:101C3000018B4FF6FB7319401143018370470A462D
:101C40000021018B4FF6FF3319404FF6FF7303EA73
:101C500002231943018370470A460021818B4FF606
:101C6000FB7319401143818370470A460021818B21
:101C70004FF6FF3319404FF6FF7303EA022319436F
:101C8000818370470A460021018B4FF67F7319400C
:101C90001143018370470A460021018BC1F30E01F5
:101CA0004FF6FF7303EA02231943018370470A4684
:101CB0000021818B4FF67F73194011438183704758
:101CC0000A460021818BC1F30E014FF6FF7303EA30
:101CD00002231943818370470A460021018C4FF685
:101CE000FD7319401143018470470A460021018C9D
:101CF0004FF6F77319401143018470470A460021DB
:101D0000018C4FF6DF7319404FF6FF7303EA02139D
:101D10001943018470470A460021018C4FF67F73F6
:101D200019404FF6FF7303EA021319430184704709
:101D30000A460021018C4FF6FF5319404FF6FF73FE
:101D400003EA02231943018470470A460021018CEB
:101D50004FF2FF7319404FF6FF7303EA0223194352
:101D6000018470470A460021018C4DF6FF7319402B
:101D70004FF6FF7303EA023319430184704730B50D
:101D8000002301248C40A3B2048C9C430484048C63
:101D900002FA01F5ADB22C43048430BD30B5002306
:101DA00004248C40A3B2048C9C430484048C02FA67
:101DB00001F5ADB22C43048430BD70B5034600205C
:101DC00000241846183001258D40ACB21D8CA54367
:101DD0001D8409B1082909D100EB6100056825F0CF
:101DE000700505600568154305600EE00D1FC5F31D
:101DF0004E052844056825F4E045056005684FF662
:101E0000FF7606EA02263543056070BD21B10288DF
:101E100042F00202028004E002884FF6FD731A408D
:101E20000280704721B1028842F00402028004E07F
:101E300002884FF6FB731A400280704721B18288F6
:101E400042F08002828004E082884FF67F731A405D
:101E50008280704702884FF6F7731A40028002882A
:101E60000A430280704782884FF68F731A4082803F
:101E700082880A438280704702894FF6F8731A40BD
:101E8000028102890A430281704702894FF67F73FB
:101E90001A40028102890A43028170478184704797
:101EA00081857047818670470187704781877047B9
:101EB000A0F84010704702884FF6FF431A40028096
:101EC00002880A43028070470146888E70470146A7
:101ED000088F70470146888F70470146B1F840006F
:101EE00070470146888C70470146088D704702464E
:101EF0000020138A0B400BB1012000E00020704746
:101F0000CA430282704730B50246002000230024F5
:101F1000158A05EA0103958905EA010413B10CB19C
:101F2000012000E0002030BDCA430282704700005B
:101F300010B50446FB48844209D101218803FFF70C
:101F40009FF800214FF48040FFF79AF832E0F648FE
:101F5000844209D101214804FFF79FF800214FF482
:101F60000030FFF79AF825E0F048844209D10121BA
:101F70008804FFF792F800214FF48020FFF78DF8D6
:101F800018E0EB48844209D10121C804FFF785F825
:101F900000214FF40020FFF780F80BE0E548844271
:101FA00008D101210805FFF778F800214FF48010CF
:101FB000FFF773F810BD2DE9F04786B005460E46D1
:101FC0000024A24600BFA1460027B08900B100BF8F
:101FD0002F462C8A4CF6FF700440F08804432C8274
:101FE000AC894EF6F3100440B088318908437189FA
:101FF00008430443AC81AC8A4FF6FF400440B089EB
:102000000443AC8201A8FEF7B4FFC648874202D160
:10201000DDF810A001E0DDF80CA0A88900F4004074
:1020200040B10AEBCA0000EB0A1031684900B0FB6E
:10203000F1F807E00AEBCA0000EB0A1031688900EA
:10204000B0FBF1F86420B8FBF0F004012009642132
:1020500001FB1089A88900F4004040B1322000EB58
:10206000C900B0FBF1F000F00700044308E03220A3
:1020700000EB09106421B0FBF1F000F00F00044305
:102080002C8106B0BDE8F0874FF4165101600021A5
:102090008180C18001810C214181002181817047B3
:1020A00010B502460020108A4FF2FF0318400B883B
:1020B0004C8823438C882343CC88234318431082C5
:1020C00010BD0021018041808180C180704721B115
:1020D000828942F40052828104E082894DF6FF73C6
:1020E0001A4082817047F0B503460024002600257F
:1020F000002040F66A17B94200D100BF1846C1F36C
:10210000421401F01F06012707FA06F5012C01D140
:102110000C3004E0022C01D1103000E014301AB170
:1021200007682F43076002E00768AF430760F0BD10
:102130001AB1838A0B43838202E0838A8B438382B2
:102140007047028A4FF6F0731A400282028A0A43ED
:102150000282704782894FF2FF731A40828182891E
:102160000A438281704721B1828942F00202828152
:1021700004E082894FF6FD731A4082817047028A1B
:102180004FF6DF731A400282028A0A4302827047C6
:1021900021B1028A42F48042028204E0028A4BF6B4
:1021A000FF731A4002827047C1F3080282807047B1
:1021B00001468888C0F308007047818941F0010119
:1021C00081817047028BD2B20283028B42EA0122E4
:1021D00002837047028B02F47F420283028B0A4320
:1021E0000283704721B1828A42F02002828204E099
:1021F000828A4FF6DF731A408282704721B1828A49
:1022000042F01002828204E0828A4FF6EF731A4095
:102210008282704721B1828A42F00802828204E001
:10222000828A4FF6F7731A408282704721B1828901
:1022300042F40042828103E08289C2F30E0282816D
:10224000704721B1828A42F40062828204E0828A6D
:102250004FF2FF731A4082827047828A4FF6FB73F7
:102260001A408282828A0A438282704721B1828A1E
:1022700042F00202828204E0828A4FF6FD731A4025
:102280008282704702460020B1F5007F00D100BF76
:1022900013880B400BB1012000E00020704701F4CF
:1022A0000072B2F5007F00D100BFCA4302807047C0
:1022B00070B50246002400230025002040F66A166F
:1022C000B14200D100BFC1F3421501F01F03012646
:1022D00006FA03F3012D02D19689334006E0022D60
:1022E00002D1168A334001E0968A33400C1201264F
:1022F00006FA04F41688344013B10CB1012000E052
:10230000002070BD10B50022002340F66A14A142DF
:1023100000D100BF0A1201249440A3B2DC43048020
:1023200010BD00000038014000440040004800405B
:10233000004C00400050004010B56FF00400FEF764
:102340004AFB2E4800682E49B0FBF1F02D49087079
:102350000846007800EB4001C1EBC0104FF6FF715A
:1023600001EAC0002849088010BD0146254A1278BC
:102370004A434FF0E0235A6100229A611A461269DB
:1023800042F001021A6100BF4FF0E022106900F034
:1023900001021AB100F48032002AF5D04FF0E02299
:1023A000126922F001024FF0E0231A6100229A61C3
:1023B00070470146144A12884A434FF0E0235A619D
:1023C00000229A611A46126942F001021A6100BFA6
:1023D0004FF0E022106900F001021AB100F48032DF
:1023E000002AF5D04FF0E022126922F001024FF0EE
:1023F000E0231A6100229A617047000080000020EB
:1024000000127A00A8000020AA000020014600BFA8
:10241000704700BF494A128802F04002002AF9D0F2
:10242000C2B2464B1B1D1A80704710B586B00446D9
:10243000012144F20400FEF709FE4FF40070ADF8EC
:10244000140003208DF8160018208DF8170005A938
:102450003B48FEF73FFB4FF48060ADF814000420CA
:102460008DF8170005A93648FEF734FB25208DF8B6
:10247000000003208DF801008DF8020001208DF886
:1024800003006846FEF75DFA01940020ADF80800ED
:10249000ADF80A00ADF80C00ADF810000C20ADF856
:1024A0000E0001A92548FFF786FD012240F22551C3
:1024B0002248FFF718FE01212048FFF708FE06B06A
:1024C00010BD10B540F225511C48FFF7F1FE10B3C6
:1024D0001A48FFF76DFEC4B21A48008800F40040A5
:1024E000C8B91848008800F4804060B10A2C03D0B5
:1024F00000201449088020E01248008840F4004081
:102500001049088019E00D2C06D10E48008840F4CF
:1025100080400C49088010E00A480088C0F30D0094
:1025200009490C5407480088401C064908800846A1
:102530000088C72801DD0020088010BD0038014058
:1025400000080140B0000020CC02002070B5044615
:102550000E4626B18021FB48FEF769FB03E080218F
:10256000F848FEF766FB4021F648FEF762FB0025BF
:102570001BE04FF48061F348FEF75BFB04F0800042
:1025800028B14FF40071EF48FEF751FB04E04FF41F
:102590000071EC48FEF74DFB4FF48061E948FEF70F
:1025A00046FB6006040E681CC5B2082DE1DB402125
:1025B000E448FEF73CFB8021E248FEF738FB70BDA3
:1025C00070B504460E4626B18021DE48FEF72FFB8B
:1025D00003E08021DB48FEF72CFB4021D948FEF7C1
:1025E00028FB00251BE04FF48061D648FEF721FB55
:1025F00004F0800028B14FF40071D248FEF719FBB7
:1026000004E04FF40071CF48FEF711FB4FF48061F6
:10261000CC48FEF70CFB6006040E681CC5B2082D02
:10262000E1DB4021C748FEF702FB8021C548FEF7E9
:10263000FEFA70BD70B504460D4605F1B001C8B292
:102640000021FFF783FF102141EA14100021FFF75A
:102650007DFF04F00F0141F001000021FFF776FF3C
:1026600070BD10B500218D20FFF770FF00211420F0
:10267000FFF76CFF0021AF20FFF768FF10BD10B51A
:1026800000218D20FFF762FF00211020FFF75EFF81
:102690000021AE20FFF75AFF10BD70B5002419E0ED
:1026A00004F1B001C8B20021FFF750FF0021084635
:1026B000FFF74CFF00211020FFF748FF002505E041
:1026C00001210020FFF742FF681CC5B2802DF7DB17
:1026D000601CC4B2082CE3DB70BD10B54FF4806100
:1026E000994801F0C3FF10BDF0B5144600267F28BD
:1026F00001DC3F2900DDF0BD0B46CF1701EB57771A
:10270000FF10C7F10707FAB2CF1701EB5777FF1099
:10271000A1EBC707FDB2C5F107070123BB40DEB23D
:102720004CB1894B03EBC0039B5C3343864F07EBF3
:10273000C007BB5408E0844B03EBC0039B5CB3436E
:10274000814F07EBC007BB5400BFD4E770B500242E
:102750001CE004F1B001C8B20021FFF7F7FE002130
:102760000846FFF7F3FE00211020FFF7EFFE0025DB
:1027700008E0754901EBC501085D0121FFF7E6FEA0
:10278000681CC5B2802DF4DB601CC4B2082CE0DBF1
:1027900070BDF0B5034600240020A2F12005ECB284
:1027A0007F2B02DD00238D1CE9B2072900DD072104
:1027B00000200CE004EB4405644E06EB45052D5C5F
:1027C0001E18614F07EBC6067554451CE8B2062873
:1027D000F0DBF0BD10B50246012000E050430B1EB7
:1027E000A1F10104E1B2F9D110BD2DE9FF4F074677
:1027F00091461D460D9E4FF0000A002433E0281B31
:10280000401EC1B20A20FFF7E5FFB9FBF0F00A2134
:10281000B0FBF1F201FB1208BAF1000F13D1681EF0
:10282000A04210DDB8F1000F0BD1B34606EBDB710F
:10283000491001FB0471C8B220220199FFF7A9FFDA
:102840000FE04FF0010AB34606EBDB71491001FBC4
:102850000471C8B208F13001CAB20199FFF799FFBB
:1028600000BF601CC4B2AC42C9DBBDE8FF8FF0B54D
:1028700004460F46154600260DE0AA5D394620465F
:10288000FFF787FFA01DC4B2782C02DD0024781C5E
:10289000C7B2701CC6B2A85D0028EED1F0BD2DE90C
:1028A000F04180460E461546002731464046FFF768
:1028B000C1FE00240AE0264A02EB8511085D0121D1
:1028C000FFF744FE781CC7B2601CC4B2102CF2DBC8
:1028D000701CC1B24046FFF7ADFE00240CE0690059
:1028E000491C1B4A02EB4111085D0121FFF72EFE36
:1028F000781CC7B2601CC4B2102CF0DBBDE8F081BC
:102900002DE9F05F06460F4690461C46DDF828A0EC
:102910004FF0000BE11704EB5171C910A4EBC1019A
:1029200031B92046E11704EB5171C1F3C70506E048
:102930002046E11704EB5171C910491CCDB23D4648
:102940001EE00000001C014094030020A66F000858
:10295000B200002029463046FFF76CFEB1460BE07E
:1029600059460BF1010B1AF801000121FFF7EEFDAA
:1029700009F1010000F0FF09C145F1DB681CC5B297
:10298000A542E7DBBDE8F09F08B501218020FEF7F6
:102990005DFB4FF4F860ADF8000010208DF80300E7
:1029A00003208DF8020069464948FEF793F84FF47A
:1029B00080714748FEF73BF96420FFF7FAFC4FF4BB
:1029C00080714348FEF735F9C820FFF7F2FC4FF459
:1029D00080713F48FEF72BF90021AE20FFF7B6FDCE
:1029E00000210846FFF7B2FD00211020FFF7AEFDE1
:1029F00000214020FFF7AAFD00218120FFF7A6FD5E
:102A00000021CF20FFF7A2FD0021A120FFF79EFDAE
:102A10000021C820FFF79AFD0021A620FFF796FDB0
:102A20000021A820FFF792FD00213F20FFF78EFD37
:102A30000021D320FFF78AFD00210846FFF786FD1D
:102A40000021D520FFF782FD00218020FFF77EFDC9
:102A50000021D920FFF77AFD0021F120FFF776FD54
:102A60000021DA20FFF772FD00211220FFF76EFD32
:102A70000021DB20FFF76AFD00214020FFF766FD03
:102A800000212020FFF762FD00210220FFF75EFDFC
:102A900000218D20FFF75AFD00211420FFF756FD7D
:102AA0000021A420FFF752FD0021A620FFF74EFDD4
:102AB0000021AF20FFF74AFD0021AF20FFF746FDC0
:102AC000FFF7EBFD00210846FFF7B4FD08BD00004D
:102AD000001C014070B505460C46FE480068806841
:102AE000FC49096849680844A84214D1FA480078AA
:102AF000052810D17CB1F74800680EC8F74800F0EF
:102B000078FDF74804600020F249096888600120D8
:102B1000F0490968486070BD0146EE480068806869
:102B2000081A704710B5002300BF04E011F8014BEC
:102B300000F8014B5B1C9342F8DB10BD0146E548F1
:102B4000006880680A1A002A03DD082A01DA0120D9
:102B500070470020FCE70FB42DE9F04389B005462B
:102B60000026B146142103A801F0A2FD0020009028
:102B7000019002902846FFF7E1FF20B909B0BDE8B7
:102B8000F0035DF814FB12A80890D6A1119801F08B
:102B9000FEFC0446002C3FD01198201AC2B203A8B4
:102BA0001199FFF7BFFF641C2078642802D06628C3
:102BB00022D108E0089840C808903246CAA1684669
:102BC00001F00EFC19E00898C01D20F007000890E5
:102BD000D0E90021089F08371046089703F03CF918
:102BE0008146484603F0EEFD07463A460B46BFA134
:102BF000684601F0F5FB00E000BF00BF694603A88E
:102C000001F0F6FC2846FFF787FFC7B203AA394652
:102C10000A20FFF72CFE08E02846FFF77DFFC7B229
:102C200039460A20119AFFF722FE0020089000BFC3
:102C3000A4E770B505460C46072C00DD0724ADA2BD
:102C400021462846FFF713FE70BD2DE9F04F87B0EF
:102C500005468A4616461F4600243146284604F09B
:102C6000A9F88046002103F009FF51D031462846DB
:102C700004F0A0F881465146384604F0A5F8834692
:102C8000494603F039FE06902846069903F0C6FF30
:102C90008146514604F08EF805903146284604F0EE
:102CA00093F8834603F01EFFB0F1000901DB4846AC
:102CB00001E0C9F10000401C00F0FF08002424E0FE
:102CC000204603F04BFF2946019003F0A7FD029038
:102CD000069903F0A3FF8346059903F09FFD814603
:102CE00003F01CFFC0B20490204603F037FF834678
:102CF000294603F093FD814603F010FFC0B2012284
:102D000003900499FFF7F0FC641C4445D8DB2AE0EB
:102D1000002416E0204603F021FF5146069003F000
:102D20007DFD834603F0FAFE00F0FF08284603F01D
:102D3000F5FE00F0FF09012241464846FFF7D4FCAA
:102D4000641C5146384604F03FF883464FF07E51EC
:102D500003F064FD8046204603F000FF81464146B3
:102D600003F028FFD6D307B0BDE8F08F10B50446B6
:102D7000614800F014FC58490870084600780228A1
:102D80002BD1544800684068401C5249096848608B
:102D9000072C19DD4F4800684068072850DD0720E0
:102DA0004C49096848604B4800688068401C4949A4
:102DB00009688860474800688168E01F81423FDDFC
:102DC0004449096888603BE0424800684068A04286
:102DD00036DD40480068446032E03F480078012812
:102DE0001CD13C4800684068401E3A490968486068
:102DF000384800684068012822DA0120354909680E
:102E00004860344800688068002819DD314800684F
:102E10008068401E2F490968886011E02E480078BC
:102E200006280DD12E480068406848B12C4800683B
:102E300040682B49086027480168284800F0FBFBE0
:102E400010BD2DE9F047054600BF00BF2846FFF73B
:102E50008DFF23490968086801F0ABFB0446601E3A
:102E600000EB40007F21A1EB400606EBD671481035
:102E700003F074FE80462149404603F0A5FF064654
:102E80001F4B324619460020FFF7DFFE1B49404624
:102E900003F09AFF074603F041FEC6B219A20021D3
:102EA0003046FFF7E4FC04EB4401480003F056FE13
:102EB0008146414603F0B2FC074603F02FFEC6B23E
:102EC0000CA200213046FFF7D2FC404603F026FE5C
:102ED000C6B219E08402002074020020C40700205A
:102EE000880200202500000025640000252E32669F
:102EF000000000003E000000940700200000C040D9
:102F0000000070423C000000F848006800210268A0
:102F10003046FFF7ACFC04EB4401480003F01EFE12
:102F20008146414603F07AFC0746F14903F076FCFE
:102F30000646F04B4FF086421946FFF786FEEE4BF1
:102F40004FF0824200211046FFF77FFEEB480068F9
:102F500001790020FFF76DFEBDE8F08710B5052070
:102F6000FFF76FFFE6A10120FFF7F5FDE64901201D
:102F7000FFF7B0FDE5A10220FFF7EDFDE5490220D6
:102F8000FFF7A8FDE1A10320FFF7E5FDE2A1042082
:102F9000FFF7E1FDE2A10520FFF7DDFDE249052095
:102FA000FFF798FD10BDD54A12689268D34B1B6895
:102FB0005B681A4482420DD1DC4A1278042A02D19D
:102FC0000A68521C0A60D94A1278032A02D10A6898
:102FD000521E0A60704710B50220FFF732FFD44836
:102FE000D4A102680120FFF7B6FDD1490120FFF707
:102FF000DAFFCF480068012803DD0120CC490860D2
:1030000006E0CB480068002802DA0020C8490860C2
:10301000CC48006830B1012808D002280AD0032823
:1030200010D10BE0C8A0CA4908600CE0C9A0C8498B
:10303000086008E0C9A0C649086004E0C9A0C44906
:10304000086000E000BF00BFC14801680220FFF730
:1030500082FD10BD10B50220FFF7F3FEC348C4A1E6
:1030600002680120FFF777FDC0490120FFF79BFFB1
:10307000BE480068012803DD0120BC49086006E065
:10308000BA480068002802DA0020B8490860BC4845
:10309000006806281CD2DFE800F003070B0F1317A7
:1030A0000020B849086014E00120B649086010E02B
:1030B0000220B44908600CE00320B249086008E02F
:1030C0000420B049086004E00520AE49086000E033
:1030D00000BF00BFAB48ACA102680220FFF73BFD78
:1030E00010BD10B50A20FFF7ACFEAA48AAA10268DD
:1030F0000120FFF730FDAB48ABA102680220FFF7CB
:103100002AFDAC48ACA102680320FFF724FDAD48BE
:10311000ADA102680420FFF71EFDAE48AEA1026813
:103120000520FFF718FDAF48AFA102680620FFF7A2
:1031300012FDB048B0A102680720FFF70CFDB148AE
:10314000B1A102680820FFF706FDB248B2A10268EB
:103150000920FFF700FDB348B3A102680A20FFF77A
:10316000FAFCB0480068092803DD0020AD4908607A
:1031700006E0AC480068002802DA0020A94908608F
:10318000A8490A20FFF70FFFA64800680A282ED298
:10319000DFE800F005090D1115191D212529002072
:1031A000A349086023E00120A14908601FE0022034
:1031B0009F4908601BE003209D49086017E0042038
:1031C0009B49086013E00520994908600FE006203C
:1031D000974908600BE007209549086007E0082040
:1031E0009349086003E009209149086000BF00BFCF
:1031F00010BD10B5FFF771FA3C490968886880472F
:10320000FFF7A4FA10BD10B50446FFF7BDFBFFF7AA
:1032100044FA00208749C8628862401E8649886750
:103220003248046010BD10B504462146814800F0C4
:1032300097F910BD2DE9F05F05460C4616461F466E
:10324000204603F0A3FC8046A81903F087FC8146C2
:10325000204603F09BFC8246284603F097FC8346F9
:1032600043464A465146FFF7F0FCE01903F076FC6E
:103270008046284603F08AFC8146204603F086FCFF
:103280008246284603F082FC834643464A4651461E
:10329000FFF7DBFCE01903F061FC8046A81903F09E
:1032A0005DFC8146E01903F059FC8246284603F094
:1032B0006DFC834643464A465146FFF7C6FCE0197B
:1032C00003F04CFC8046A81903F048FC81462046D8
:1032D00003F05CFC8246A81903F040FC8346434699
:1032E0004A465146FFF7B1FCBDE8F09F8802002036
:1032F0000000C0400000704200007C4284020020B8
:103300004D4F444549000000A40200204D4F444564
:1033100049490000B00200204D4F44454956000085
:103320005354554459000000BC0200207402002090
:10333000240000206D6F646531466C61673A256436
:1033400000000000280000206E6F7468696E67003E
:103350008C02002073746F6E65000000636C6F74E4
:103360006800000073686561720000002C00002096
:103370006D6F646532466C61673A25640000000039
:1033800030000020900200206E6F774E756D3A2558
:103390006400000034000020626173654461746160
:1033A0003A2564004000002073746F6E65457272A8
:1033B0003A25640044000020636C6F7468457272A3
:1033C0003A25640048000020736865617245727296
:1033D0003A2564004C0000206F6E654572723A25F4
:1033E000640000005000002074776F4572723A2527
:1033F00064000000540000207468726565457272B4
:103400003A25640058000020666F75724572723A62
:10341000256400005C000020666976654572723A9A
:103420002564000094020020666C61673A25640000
:103430002000002094070020C40700202DE9F74F4A
:103440008EB00C46914600200C900C9061E00C98D8
:1034500003F0B8F90746334A334B02F0BFFF0022AE
:10346000324BCDE9000102F0D9FD054602F040FCE7
:10347000CDE90401484603F0A5F9CDE90201DDE9F3
:10348000042302F0ABFFCDE90801204603F09AF9CE
:10349000CDE90601DDE9082302F010FD824602F0C5
:1034A00045FFC0B20B900E9803F08CF9CDE90601F0
:1034B0000C9803F087F982461A4A1B4B02F08EFFE4
:1034C00007460022194B02F0A9FDCDE9000102F0E8
:1034D0005DFCCDE90201484603F074F90546DDE9DB
:1034E000022302F07BFFCDE90401DDE9062302F0AF
:1034F000E5FCCDE9080102F019FFC0B201220A90F3
:103500000B99FFF7F1F84FF07E510C9803F086F914
:103510000C9007490C9803F04DFB98D311B0BDE80F
:10352000F08F00001F85EB51B81E094000806640F7
:103530000000B4430FB40A21DDE90A02904202D12F
:10354000012004B070470A98401C90FBF1F201FB87
:1035500012000B9A904201D10020F2E70220F0E71E
:1035600070B588B004460D460A26202204F11001E9
:10357000684601F049F894E80F00FFF7DBFF10B947
:10358000002008B070BDA06A44F82050A06A401C1A
:1035900090FBF6F106FB1100A0620120F1E770B587
:1035A00088B0044600250026202204F11001684658
:1035B00001F02AF894E80F00FFF7BCFF012802D1C0
:1035C000002008B070BD0A25E06A54F82060E06A67
:1035D000401C90FBF5F105FB1100E0623046F0E77E
:1035E0000FB41E98401C10B9012004B07047002091
:1035F000FBE71FB504460A21A06F092819DAA06F5E
:10360000401CA0670198A26F02EB420244F822001E
:103610000398A26F02EB420204EB820290600298D0
:10362000A26F02EB420204EB82025060012004B060
:1036300010BD0020FBE730B59BB004460D466C2260
:1036400004F11001684600F0DFFF94E80F00FFF777
:10365000C7FFC0B9A06F00EB400054F820002860FD
:10366000A06F00EB400004EB800040686860A16F31
:10367000481EA06701EB410004EB80008068A86051
:1036800001201BB030BD0020FBE7000008B5012180
:103690002020FDF7DBFC4FF47C50ADF80000482003
:1036A0008DF8030069462F48FDF714FA08BD10B5E0
:1036B0004FF400712B48FDF7A0FAE8B14FF4806198
:1036C0002848FDF79AFAB8B14FF480512548FDF724
:1036D00094FA88B14FF480712248FDF78EFA58B100
:1036E0004FF400611F48FDF788FA28B14FF40051EC
:1036F0001C48FDF782FA90BB3C20FEF75AFE4FF4BF
:1037000000711848FDF779FA08B9032010BD4FF48D
:1037100080611448FDF771FA08B90220F6E74FF40A
:1037200080511048FDF769FA08B90420EEE74FF41C
:1037300080710C48FDF761FA08B90520E6E74FF4FF
:1037400000610848FDF759FA08B90120DEE74FF497
:1037500000510448FDF751FA08B90620D6E7FFE703
:103760000020D3E7001401407FB505460C46012137
:103770000420FDF778FCADF80850ADF804400020B7
:10378000ADF80A00ADF8060001A91348FDF796FD53
:10379000012211461048FEF708F91E208DF800009E
:1037A00002208DF8010003208DF8020001208DF821
:1037B00003006846FDF7C5F801210748FEF7DAF86F
:1037C0007FBD10B501210448FEF79DFB18B1012112
:1037D0000148FEF7A9FB10BD0008004070B5054682
:1037E0000E46144600F0AFFA6906080E00F06DFBB5
:1037F00000F0F5FA304600F068FB00F0F0FA201215
:1038000000F063FB00F0EBFAE0B200F05EFB00F0CA
:10381000E6FA00F0BEFA70BD70B504460D4600F041
:1038200092FA6106080E00F050FB00F0D8FA284624
:1038300000F04BFB00F0D3FA00F085FA012101EB18
:103840004401C8B200F041FB00F0C9FA012000F0C9
:1038500077FB0602002000F073FB064300F099FAA4
:10386000304670BD2DE9F05F8046894664271821F7
:103870002A20FFF7D1FF8346B8F1000F09D0B8F135
:10388000010F0AD0B8F1020F0BD0B8F1030F10D11D
:103890000BE00024012508260BE002240325042662
:1038A00007E004240525022603E006240725012657
:1038B00000BF00BF06E018212A20FFF7ADFF8346B6
:1038C000781E07B21FB10BEA06000028F3D087B1BB
:1038D00021462A20FFF7A0FF4FEA004A29462A2066
:1038E000FFF79AFF40EA0A0AC9F800A00120BDE8E4
:1038F000F09F0020FBE770B505460C46FF2C00DC6E
:1039000070BD35B1012D0AD0022D0ED0032D18D176
:1039100011E0224608212A20FFF760FF11E022462D
:1039200009212A20FFF75AFF0BE022460A212A200C
:10393000FFF754FF05E022460B212A20FFF74EFF38
:1039400000BF00BF00BFDBE770B505460C4635B1D0
:10395000012D0AD0022D0ED0032D18D111E02246E0
:1039600010212A20FFF73AFF11E0224611212A20D8
:10397000FFF734FF0BE0224612212A20FFF72EFF2B
:1039800005E0224613212A20FFF728FF00BF00BFD1
:1039900070BD2DE9F04704460D4616464FF000096C
:1039A0004FF6FF7000EA0530C6F3090140EA01094D
:1039B000CF480555304602F0FDFC07463A460B4617
:1039C0000020CC4902F02AFBCB4A02EBC40203C21E
:1039D00034B1012C0AD0022C0ED0032C18D111E0E6
:1039E0004A4614212A20FFF7F9FE11E04A46152124
:1039F0002A20FFF7F3FE0BE04A4616212A20FFF7A4
:103A0000EDFE05E04A4617212A20FFF7E7FE00BF3A
:103A100000BFBDE8F08770B5054600241A212A20B2
:103A2000FFF7FAFE04464FF67F7004400DB144F0F4
:103A3000800422461A212A20FFF7D0FE19212A20CD
:103A4000FFF7EAFE04464FF6FE7004400DB144F065
:103A50000104224619212A20FFF7C0FE70BD70B56F
:103A6000054600241A212A20FFF7D6FE0446C4F397
:103A70000D044FF6FF7000EA8530044322461A21F8
:103A80002A20FFF7ABFE70BD70B5054600241A2151
:103A90002A20FFF7C1FE04464DF6FF7004400DB129
:103AA00044F4005422461A212A20FFF797FE70BDE5
:103AB00070B5054600241A212A20FFF7ADFE044602
:103AC0004FF2FF7004400DB144F4006422461A2105
:103AD0002A20FFF783FE70BD70B5054600241A2129
:103AE0002A20FFF799FE04464FF6FF5004400DB11F
:103AF00044F4007422461A212A20FFF76FFE70BD9D
:103B000070B5054600241A212A20FFF785FE0446D9
:103B10004FF6BF7004400DB144F0400422461A2114
:103B20002A20FFF75BFE70BD2DE9F04104460E46EA
:103B3000154600273CB1E00340EA463040F40270ED
:103B4000284387B201E045F402773A461B212A2038
:103B5000FFF744FEBDE8F08110B54FF400421C2190
:103B60002A20FFF73BFE10BD70B504460D46002627
:103B70004FF6FF7000EAC52634B1012C0AD0022CA2
:103B80000ED0032C18D111E032461E212A20FFF757
:103B900025FE11E032461F212A20FFF71FFE0BE011
:103BA000324620212A20FFF719FE05E03246212166
:103BB0002A20FFF713FE00BF00BF70BD2DE9F04FB4
:103BC00087B082468B4600BF584602F0F3FB804622
:103BD0008946474911F80A0002F0ECFB04464648C2
:103BE00000EBCA00D0E900633246204602F0F6FB43
:103BF00042464B46CDE9000102F0F0FB00223F4B6C
:103C0000CDE9020102F00AFACDE90401DDE904017F
:103C100007B0BDE8F08F10B500247F212A20FFF700
:103C2000FBFD044643F2550084425FD1FFF794FF49
:103C300040F2D6410020FFF75EFE40F2D64101205F
:103C4000FFF759FE40F2D6410220FFF754FE40F242
:103C5000D6410320FFF74FFEC8210020FFF774FE76
:103C6000C8210120FFF770FEC8210220FFF76CFE7B
:103C7000C8210320FFF768FE012211460020FFF74C
:103C800088FE012211461046FFF783FE01221146ED
:103C90000220FFF77EFE012211460320FFF779FE86
:103CA0000020FFF7DCFE0020FFF702FF0120FFF7F6
:103CB00013FF0120FFF724FF052202210020FFF758
:103CC00033FF14210020FFF74FFF12210120FFF7DF
:103CD0004BFF12210220FFF747FF12210320FFF7BD
:103CE00043FF0020FFF7D0FE012010BD0020FCE7BD
:103CF000C8020020D0128341580800200000B041C3
:103D000008B50021009106E000E0401E0028FCD12B
:103D10000099491C009100996429F5DB08BD08B59C
:103D200001211020FDF792F94FF4C050ADF80000CA
:103D300003208DF8020010208DF803006946E34847
:103D4000FCF7C8FE08BD10B5E048406820F470409C
:103D5000DE4948600846406840F440504860C91455
:103D6000DA48FCF764FF4FF48051D848FCF75FFF56
:103D70000420FFF7C5FF4FF40061D448FCF759FF5A
:103D80000420FFF7BDFF4FF48051D048FCF751FFEE
:103D900010BD10B5CD48406820F47040CB49486054
:103DA0000846406840F4405048608914C748FCF712
:103DB00040FF4FF40061C548FCF73BFF0420FFF7CC
:103DC0009FFF4FF48051C148FCF731FF4FF4006171
:103DD000BE48FCF72CFF0420FFF792FF10BD10B582
:103DE000BA48406820F47040B849486008464068C6
:103DF00040F400404860C914B448FCF718FF0120A3
:103E0000FFF77EFF4FF48051B048FCF710FF012010
:103E1000FFF776FF4FF40061AC48FCF7EEFE05209B
:103E2000FFF76EFF4FF48051A848FCF702FF002017
:103E300010BD10B54FF48051A448FCF7FAFEA3481A
:103E4000406820F47040A14948600846406840F44A
:103E500040504860C9149D48FCF7EBFE0220FFF774
:103E60004FFF4FF480519948FCF7E1FE0220FFF725
:103E700047FF4FF480519548FCF7DBFE10BD10B5AD
:103E80004FF480519148FCF7D4FE9048406820F4EC
:103E900070408E4948600846406840F44050486091
:103EA000C9148A48FCF7C3FE0220FFF729FF4FF42C
:103EB00080518648FCF7BBFE0220FFF721FF4FF43C
:103EC00080518248FCF7B5FE10BD70B504467F48AE
:103ED000406820F470407D4948600846406840F4DE
:103EE0004050486089147948FCF7A3FE002524E07F
:103EF00004F0800028B14FF400617448FCF797FE8D
:103F000004E04FF400617148FCF793FE6006040E74
:103F10000220FFF7F5FE4FF480516C48FCF787FE56
:103F20000220FFF7EDFE4FF480516848FCF781FE58
:103F30000220FFF7E5FE681CC5B2082DD8DB70BD76
:103F400070B5054600246148406820F470405F4920
:103F500048600846406840F40040486000261BE086
:103F60004FF480515948FCF764FE0220FFF7C8FE69
:103F70004FF480515548FCF75AFE6006040E4FF48A
:103F800000615248FCF739FE08B1601CC4B2012040
:103F9000FFF7B6FE701CC6B2082EE1DB15B9FFF7BD
:103FA0006EFF01E0FFF745FF204670BD2DE9F041AF
:103FB00080460D4616461F46FFF7C5FE4046FFF7F2
:103FC00084FFFFF70CFF2846FFF77FFFFFF707FF8F
:103FD00000240CE0385DFFF778FFFFF700FF20B109
:103FE000FFF7D7FE0120BDE8F081601CC4B2B442E7
:103FF000F0DBFFF7CEFE0020F5E72DE9F0410646A5
:104000000F4614461D46FFF79EFE3046FFF75DFF44
:10401000FFF7E5FE3846FFF758FFFFF7E0FEFFF732
:1040200092FE46F00100FFF750FFFFF7D8FE0DE0CB
:10403000012C04D10020FFF783FF287003E001204A
:10404000FFF77EFF2870601EC4B26D1C002CEFD1FC
:10405000FFF79FFE0020BDE8F08170B506460C46D4
:104060001546FFF770FE3046FFF72FFFFFF7B7FE4C
:104070002046FFF72AFFFFF7B2FE2846FFF725FF8D
:10408000FFF7ADFEFFF785FE002070BD70B504465A
:104090000D46FFF758FE2046FFF717FFFFF79FFE7C
:1040A0002846FFF712FFFFF79AFEFFF74CFE44F099
:1040B0000100FFF70AFFFFF792FE0020FFF740FF25
:1040C0000646FFF766FE304670BD00000010014056
:1040D00000BFC049098801F040010029F9D0BD495D
:1040E000091D0880704770B588B004460D46134618
:1040F0001C2B01DD08B070BD0021D81C0DF800108C
:1041000088208DF800008DF801408DF802300022E3
:1041100005E0A95CD01C0DF80010501CC2B29A42F8
:10412000F7DB00220BE0D81C1DF800001DF8021080
:104130000844C1B2D81C0DF80010501CC2B2D81CE3
:104140008242F0DB002205E01DF80200FFF7C0FF0D
:10415000501CC2B2181D8242F6DB00BFCAE710B580
:1041600088B0034688208DF80000AC208DF801004F
:104170001C208DF80200AD208DF80300002205E020
:10418000995C101D0DF80010501CC2B2062AF7DB16
:10419000002206E0002102F10A000DF80010501C78
:1041A000C2B20C2AF6DB00208DF81600002209E0CE
:1041B0009DF817001DF802100844C0B28DF81700D2
:1041C000501CC2B2172AF3DB002205E01DF80200E2
:1041D000FFF77EFF501CC2B2182AF7DB08B010BDF3
:1041E0002DE9FE4304460D4617461E46DDE90A89C1
:1041F000200A8DF80000E0B28DF80100280A8DF841
:104200000200E8B28DF80300380A8DF80400F8B215
:104210008DF80500300A8DF80600F0B28DF8070021
:104220004FEA18208DF8080008F0FF008DF809000B
:104230004FEA19208DF80A0009F0FF008DF80B00F5
:104240000C226946A120FFF74EFFBDE8FE837CB536
:1042500006460C461546300A8DF80000F0B28DF87F
:104260000100200A8DF80200E0B28DF80300280A50
:104270008DF80400E8B28DF8050006226946A120F9
:10428000FFF731FF7CBD7EB506460C461546300E65
:104290008DF80000300C8DF80100300A8DF8020016
:1042A000F0B28DF80300200E8DF80400200C8DF87C
:1042B0000500200A8DF80600E0B28DF80700280EF0
:1042C0008DF80800280C8DF80900280A8DF80A00DE
:1042D000E8B28DF80B000C226946A120FFF703FF1E
:1042E0007EBD7FB506460C46154600969DF8030038
:1042F0008DF804009DF802008DF805009DF801007E
:104300008DF806009DF800008DF8070000949DF8D8
:1043100003008DF808009DF802008DF809009DF853
:1043200001008DF80A009DF800008DF80B00009543
:104330009DF803008DF80C009DF802008DF80D002B
:104340009DF801008DF80E009DF800008DF80F001B
:104350000C2201A9A120FFF7C6FE7FBDFEB50646CF
:104360000C4615461C49304602F058FC074602F040
:10437000D5FB80B200909DF801008DF804009DF8F7
:1043800000008DF805001449204602F047FC07465E
:1043900002F0C4FB80B200909DF801008DF8060089
:1043A0009DF800008DF807000B49284602F036FC06
:1043B000074602F0B3FB80B200909DF801008DF833
:1043C00008009DF800008DF8090001A8FFF7C7FE5E
:1043D000FEBD00000038014000007A447047000034
:1043E0000FB41CB5074B06AA7B446946009005989C
:1043F00000F0FFFB0020694600F00EFC1CBC5DF8DD
:1044000014FB00002D0800002DE9F04106460024B1
:1044100010687529314616A510D0AFF3008000282A
:1044200002DA404213A507E031688A0701D512A5D8
:1044300002E0490704D511A5012401E0AFF3008093
:1044400000210A2206F1240709E0B0FBF2FCB0FBD0
:10445000F2F302FB1C00303078541846491C002847
:10446000F3D123462A463046BDE8F04100F056B964
:10447000000000002D0000002B00000020000000C4
:104480002DE9F0474FF0000A89460446C0F820A005
:104490002046E1688847002876D0252806D0D4E950
:1044A00001219047206A401C2062F1E7E168204624
:1044B00000258847C4F81CA006460027C4F818A0A9
:1044C0002A2E09D0304601F00BFC38B304EB8708E4
:1044D000303EC8F8186019E059F8041B204604EB78
:1044E00087029161E1688847012F064618D1E0698B
:1044F000002820DA25F020051DE0D8F8180000EB90
:10450000800006EB40003038C8F818002046E1680B
:104510008847064601F0E4FB0028EED1012F0AD0BF
:104520002E2E08D12046E16888477F1C0646022FC0
:1045300045F02005C4DBA069002803DA404245F0BD
:104540000105A061E80701D025F01005B6B1A6F17C
:104550004100192802D8203645F400654A46314604
:10456000204625604D46FBF73DFE58B1012806D098
:10457000ED1D25F0070000F1080989E704E005F1C9
:10458000040985E730468AE7206ABDE8F08730B540
:1045900005460B462A4613F8014B12F8010B08B1E9
:1045A000A042F8D01CB1002802D06D1CF1E72846CB
:1045B00030BD10B5431C02E010F8011B71B181073A
:1045C000FAD14FF0013202C88C1A8C4314EAC2119E
:1045D000F9D0C01A0A0603D0C01E10BDC01A10BD03
:1045E0000A0401D0801E10BD0902FCD0401E10BD7F
:1045F000421E12F8013F002BFBD111F8013B002BAA
:1046000002F8013BF9D1704710B5203AC0F00B8099
:10461000B1E81850203AA0E81850B1E81850A0E8C6
:104620001850BFF4F5AF5FEA027C24BFB1E8185020
:10463000A0E8185044BF18C918C0BDE810405FEA90
:10464000827C24BF51F8043B40F8043B08BF70470C
:10465000D20728BF31F8023B48BF11F8012B28BF11
:1046600020F8023B48BF00F8012B70474FF00002D2
:104670000429C0F0128010F0030C00F01B80CCF174
:10468000040CBCF1020F18BF00F8012BA8BF20F8E2
:10469000022BA1EB0C0100F00DB85FEAC17C24BF36
:1046A00000F8012B00F8012B48BF00F8012B7047E0
:1046B0004FF0000200B5134694469646203922BFBB
:1046C000A0E80C50A0E80C50B1F12001BFF4F7AF06
:1046D000090728BFA0E80C5048BF0CC05DF804EBE8
:1046E000890028BF40F8042B08BF704748BF20F856
:1046F000022B11F0804F18BF00F8012B7047704754
:1047000070477047704710B500F090FA006810BD10
:1047100010B5044600F08AFA046010BD2DE9F04798
:104720000D4699469246044600F124080168880621
:1047300004D5E06921F01001216000E00120A842C9
:1047400001DD471B00E00027A1697A1902EB09008F
:10475000081AA0612078C00602D42046AFF300807A
:10476000002608E0D4E901211AF806009047206AE3
:10477000401C761C20624E45F4DB2078C0060AD52A
:104780002046AFF3008006E0D4E9012130209047B5
:10479000206A401C2062381EA7F10107F4DC07E004
:1047A000D4E9012118F805009047206A401C2062D6
:1047B000281EA5F10105F3DC2046AFF30080207828
:1047C000000602D50220BDE8F0870120FBE7704714
:1047D0002DE9FF4F0C461E464FF0FF378BB0D2E954
:1047E0000001DDF860800A908A46C1F30A5505B9D8
:1047F0003D46002108464FF00000BAF1000F00F4DA
:10480000400005DA00EB80004FF4400101EA50005F
:104810004FEA9059B9F1010F00DDB9460A9850EA04
:104820004A000ED044F61050A5F2FF3545432F1430
:10483000B8F1000F1ED07542291E1EDDC9F100021D
:104840001CE0B8F1010F4FF0000001D0302103E06F
:10485000F24305E02154401CB042FBDB304600220D
:10486000002121540B99C1F80880C1E900200FB044
:10487000BDE8F08FBD1B6D1CDEE74A4600DA6942D9
:1048800006A800F05DFA06AB93E8070003AB83E8E7
:10489000070050460A9900F033FB8DE80700A0F5A9
:1048A00000501F3800900398002D09DD42F21F01CF
:1048B0004A46084403A90390684600F092FD08E0C8
:1048C000A0F500504A461F3803A90390684600F03F
:1048D0009CFD8DE807000004000C03D04FF0FF3072
:1048E000410800E01046B8F1000F03D0002200920A
:1048F00015461EE0751E05D400F09CF93032625555
:104900006D1EF9D5B3460122084302D000227F1C58
:1049100004E02078302801D100227F1E002A099768
:1049200086D01DE0112D07DA00F084F9303262558F
:104930006D1C50EA0102F5D1084302D00098C8B1BD
:104940000EE00021681E05E0235C625C6354225483
:10495000401E491C8142F7DBAB46A81B401E099054
:10496000002004F80B000B98099AC0F80880C0E9F1
:10497000002B7CE711264FF0000859E72DE9F04F96
:1049800088460446D21D22F0070191B0D1E900010A
:10499000CDE90A0100F06FFE02460B98C00F01D06E
:1049A0002D2007E02068810701D52B2002E020217F
:1049B00001EAC000032A099001D0072A05DB03465B
:1049C0004146204600F07CF90BE12078800601D5B5
:1049D000E06900E00620B8F1650F814606D0B8F125
:1049E000660F18D0B8F1670F70D131E00020B9F12F
:1049F000110F009001DB112301E009F101030AAA64
:104A000001A90CA8FFF7E4FEDDE90C70002609F10E
:104A10000105834647E001204B4600904FF00047D8
:104A20000AAA01A90CA8FFF7D3FEDDE90DB00C9985
:104A30005D46002610B909F101000D18B9EB05001B
:104A400003D4C0F1FF3609F10105A5EB09002BE005
:104A5000B9F1010F01DA4FF001090020B9F1110F8E
:104A60000090484601DD112300E003460AAA01A98F
:104A70000CA8FFF7ADFEDDE90C704D46002683461D
:104A8000207800070AD4AB4500DA5D4601A8012D65
:104A900004DD411911F8011C302907D04F4502DA15
:104AA00017F1040F04DA012082460FE06D1EEEE7D5
:104AB000002F02DCED1B3E4403E0781CA84200DD21
:104AC0007D1CB81B00F1010A4FF000472078000759
:104AD00003D4AA4501DB4FF0FF3A0021B7F1004FA4
:104AE0000DF143088DF8431024D002202B23002F12
:104AF00001DA7F422D230A21021EA0F1010000DC11
:104B00005FB197FBF1FC97FBF1F201FB1C7C1746B0
:104B10000CF1300C08F801CDEEE7A8F101000370AC
:104B20002188090501D5452100E06521A0F1010892
:104B300000F8011C09980FA9A1EB0807FF1D00B19F
:104B40000120411901EBEA70A1693844081A401E9E
:104B5000A0612078C00602D42046AFF300800998F7
:104B600028B1D4E901219047206A401C20622078B6
:104B7000C00622D52046AFF300801EE0002E04DBE5
:104B8000B34502DD01A8805D00E03020D4E90121B9
:104B90009047206A401C2062761CAAF101005FEA5F
:104BA000000A0AD100F03EF8C0680168405CD4E910
:104BB00001219047206A401C2062281EA5F10105B2
:104BC000DCDC07E0D4E9012118F8010B9047206AEA
:104BD000401C2062381EA7F10107F3DC2046AFF32A
:104BE0000080032011B043E601694A1C0261087885
:104BF000704700B58FB0CDE901310021059105491D
:104C00007944CDE9031011466846FFF739FC0FB02F
:104C100000BD0000E5FFFFFF0A6802F8010B0A6013
:104C2000704700000048704798080020004870470F
:104C30007808002030B5B0F10A024FEA900E71F109
:104C400000034EEA817EB0EB0E0061EB91014FEA6A
:104C5000101E4EEA017E10EB0E0041EB11114FEADF
:104C6000102E4EEA016E10EB0E0041EB11214FEABF
:104C7000104E4EEA014E10EB0E0041EB1141401870
:104C800041F100014FEAD00040EA41704FEAD10102
:104C900010EB80054FEA810444EA907444EB010470
:104CA0006D1944EB0404521BA3414FF0000348BFAD
:104CB0000A3200D530BD401C41F1000130BD00007A
:104CC0002DE9F0411F46044603260168072A01F436
:104CD000006004DB08B116A505E016A503E008B1E5
:104CE00015A500E015A521F010002060A069C01EE8
:104CF000A0610FB1401EA0612046AFF300804FB10C
:104D0000D4E9012138469047206A401C2062C01C2B
:104D1000206206E0206AFAE7D4E9012115F8010BC8
:104D20009047761EF8D22046AFF30080BDE8F081B0
:104D30004E414E006E616E00494E4600696E66003F
:104D40002DE9F047814616468AB0334878440DC8AD
:104D50008DE80D0030487844801C03AC0DC884E811
:104D60000D0041F69B300844372190FBF1F290FB97
:104D7000F1F5A5F1800501FB12041B3C02D564424C
:104D8000012000E00020DFF890A080460027FA44D0
:104D9000AAF1BE0A0DE0E00709D03246684607EBEB
:104DA00047010AEB810100F030FB8DE80700641039
:104DB0007F1C002CEFD1184F7F44AC3F18E0E80770
:104DC00014D007EB04100DF1180A90E80E008AE8E1
:104DD0000E00C068F04201D198190890324606A929
:104DE00003A800F012FB03AB83E807006D10641CFE
:104DF000002DE4D132466946B8F1000F03A802D075
:104E000000F0EFFA01E000F000FBC9E90001C9F889
:104E100008200AB0BDE8F0870C2C0000004870475D
:104E2000780800207546FFF7F9FFAE460500694691
:104E3000534620F00700854618B020B5FBF76AFD01
:104E4000BDE820404FF000064FF000074FF000088B
:104E50004FF0000B21F00701AC46ACE8C009ACE80C
:104E6000C009ACE8C009ACE8C0098D46704710B570
:104E70000446AFF300802046BDE81040FBF7CFB9F1
:104E80004FF0013C50F8042B51F8043B9A4221D1D9
:104E9000A2EB0C03934313EACC1317D150F8042B65
:104EA00051F8043B9A4215D1A2EB0C03934313EA49
:104EB000CC130BD150F8042B51F8043B9A4209D182
:104EC000A2EB0C03934313EACC13DBD04FF00000AA
:104ED000704700BFD01A01BAB1FA81F101F0180190
:104EE00022FA01F0CB40C1F12001DBB2C0B2C01AFE
:104EF0002CFA01F3D11A914311EAC311E6D170479C
:104F00005FEA400C08BF91F0000F4FEA8C234FEA94
:104F1000C12243EA51514FEA1C5018BF00F5F0403E
:104F20004FEA300018BF41F000415FEA6C5C00F0CE
:104F30002980BCF1FF3F08BF40F080407047130C50
:104F400006BF12044FF0100C4FF0000C130E04BFFC
:104F500012020CF1080C130F04BF12010CF1040C27
:104F6000930F04BF92000CF1020CD30F04BF520048
:104F70000CF1010C11464FF00002A0F11F00A0EB54
:104F80000C00704711F0004F08BF704731F000412E
:104F90003FF4D5AF0B0C06BF09044FF0100C4FF0D7
:104FA000000C0B0E04BF09020CF1080C0B0F04BF20
:104FB00009010CF1040C8B0F04BF89000CF1020CE9
:104FC000CB0F04BF49000CF1010CCCF12003A0EB86
:104FD0000C0022FA03F302FA0CF241EA030100F199
:104FE0000100704720F07F4C80EA030023F07F47E8
:104FF000ACEB070303F57C5300F0004003F1FF0323
:105000002DE980494FEA154B09B44FEA144325EACC
:105010000B4E24EA03480FF2042606EB1327490837
:105020003E785FEA320203FB0667C7F5000707FB1D
:1050300006F64FEA54374FEAD64606F1020607FB5A
:10504000066CCCF1005C4FEA1C472CEA074C07FBCE
:1050500006F40CFB06F504EB15464FEA961634BF32
:1050600000204FF000404FEAD13706FB07FC4FEA23
:105070001C4C0CFB0BF7D21B03FB0CF761EB07017D
:105080000CFB0EF7B0EB074072EB17420CFB08F776
:1050900034BFA2EB0742B2EB074261EB17414FEA84
:1050A0000C444FEA910706FB07FC4FEA1C4C0CFB33
:1050B0000BF7B0EBC74072EB573203FB0CF734BF72
:1050C000A2EBC742B2EBC74261EB57310CFB0EF7C4
:1050D000B0EBC70072EB57720CFB08F734BFA2EBC2
:1050E000C702B2EBC70261EB5771039F4FEA8161C0
:1050F00041EA921104EBCC044FEAD1374FEA8262C5
:1051000006FB07FC42EA90124FEA80604FEA1C4C13
:105110000CFB0BF7D21B03FB0CF761EB07010CFB3D
:105120000EF7B0EB074072EB17420CFB08F734BFE9
:10513000A2EB0742B2EB074261EB17414FEA8C55F5
:105140004FEA910704EB9C2406FB07FC4FEA1C4C3A
:105150000CFB0BF7B0EBC74072EB573203FB0CF7BD
:1051600034BFA2EBC742B2EBC74261EB57310CFB35
:105170000EF7B0EBC70072EB57720CFB08F734BFA9
:10518000A2EBC702B2EBC70261EB577115EB4C25DE
:105190004FEA816141EA92114FEA82624FEAD137C8
:1051A00042EA901206FB07FC44F100044FEA8060DB
:1051B0004FEA1C4C0CFB0BF7D21B03FB0CF761EB0B
:1051C00007010CFB0EF7B0EB074072EB17420CFB2C
:1051D00008F734BFA2EB0742B2EB074261EB17417D
:1051E00015EB1C154FEA813141EA92414FEA8232B8
:1051F00042EA90424FEA80304FEA0C7644F10004D4
:1052000048EA03434EEA0B484FF0000EB2EB080C9D
:1052100071EB030724BF624639464EEB0E0E4FF08A
:10522000000B0018524149414BEB0B0BB2EB080C41
:1052300071EB03077BF1000B24BF624639464EEB4E
:105240000E0E4FF0000B0018524149414BEB0B0B77
:10525000B2EB080C71EB03077BF1000B24BF624635
:1052600039464EEB0E0E51EA020718BF46F0010612
:1052700016EB0E7655F1000254F1000103D5BDE89E
:105280008901BDE80088BDE88901BDE80048B6197C
:10529000524141EB0101A3F10103704780807F7E01
:1052A0007D7C7B7A7978777676757473727171709C
:1052B0006F6E6E6D6C6C6B6A6A696868676666654E
:1052C0006464636362616160605F5F5E5E5D5D5CDC
:1052D0005C5B5B5A5A59595858575756565555554D
:1052E0005454535352525251515050504F4F4F4EAD
:1052F0004E4D4D4D4C4C4C4B4B4B4A4A4A494949FB
:10530000484848474747474646464545454444443C
:10531000444343434342424242414141002B26D44D
:10532000770021D01CB54FEA370703B44FF01000C7
:105330004FF010014FF000000FBCBDE810400BF122
:10534000010BBBF1010F08BF5FEA170722BF12F183
:10535000010211F101014FF0004143F1000300F09F
:10536000004043EA00007047F9D35708DAE746EAFD
:10537000064613F1400F4FEA16461FDD13F1200FCA
:10538000DFBF16430A46002120335B42C8D0C3F179
:10539000200746EA064602FA07F74FEA164646EAAB
:1053A0000706C3F1200722FA03F201FA07F721FAF0
:1053B00003F14FF0000342EA0702B1E746EA0206B2
:1053C00046EA06464FEA164646EA0106BCBF46EAEA
:1053D0000646360C4FF000034FF000024FF000017C
:1053E0009EE72DE9C048934630B491E8380007C8DD
:1053F00031EA400C48BF34EA430C03D5FFF7F2FD15
:10540000FFF78CFFF0BCBDE800882DE9C04893464B
:1054100030B491E8380007C810F0804F08BF13F08F
:10542000804F03D100F005F8FFF778FFF0BCBDE82E
:10543000008820F07F4780EA030023F07F4C07EBD1
:105440000C03A3F57C5300F00040A3F1FE0392F09F
:10545000000F00F0B38095F0000F00F077802DE989
:1054600001494FEA11404FEA144621EA004800FB87
:1054700006FC24EA064708FB06F607FB08F800FBD3
:1054800007F718EB06484CEB164C4FEA124B18EB9B
:1054900007484FEA15464CEB174022EA0B4E0BFB30
:1054A00006FC25EA06470EFB06F607FB0EFE0BFB85
:1054B00007F71EEB064E4CEB164C4FF000061EEBAA
:1054C000074E4CEB174B18EB0B0840F1000018EBA4
:1054D0000E0B58EB000840F100008F1A4FF000014E
:1054E0003CBFC943661B14BFB5EB040C00213CBF95
:1054F000C943F61B4FEA17444EEA8E0E27EA0445CD
:105500004FEA1C4704FB07622CEA074C05FB07F730
:105510000CFB05F604FB0CFC16EB074642EB1742AE
:1055200016EB0C4642EB1C421BEB060658EB020244
:10553000414146EA9E0601D5BDE80189B6195241AE
:1055400041EB0101A3F10103BDE801894FEA1445D4
:105550004FEA114724EA054621EA074C05FB07F408
:1055600006FB07F70CFB06F105FB0CFC11EB0741F2
:1055700044EB17444FEA124711EB0C4144EB1C4437
:1055800022EA074C05FB07F206FB07F70CFB06F6C1
:1055900005FB0CFC16EB074642EB174216EB0C46DC
:1055A00042EB1C456A1854F1000148BF7047B61918
:1055B000524141EB0101A3F10103704795F0000F47
:1055C00037D04FEA11424FEA144721EA024624EA53
:1055D000074C02FB07F106FB07F70CFB06F402FB86
:1055E0000CFC14EB074441EB17414FEA154714EB51
:1055F0000C4441EB1C4125EA074C02FB07F506FB76
:1056000007F70CFB06F602FB0CFC16EB074645EB16
:10561000174516EB0C4645EB1C42121951F10001DF
:1056200048BF7047B619524141EB0101A3F1010394
:1056300070474FEA14454FEA114724EA054621EA2C
:10564000074C05FB07F106FB07F70CFB06F24FF0D2
:10565000000605FB0CFC12EB074241EB174112EB75
:105660000C4251EB1C4148BF7047921841EB0101BD
:10567000A3F101037047490050EAC12018BF04207C
:105680004A0D18BF40F0010040F2FF72B2EB515FCB
:1056900008BF40F00200012808BF05207047000045
:1056A0002DE9F74F144694B00021C4E90211159971
:1056B000079121F00045C9498D4206DC1599C4E9DE
:1056C000000117B00020BDE8F08FC549DFF814A332
:1056D000A9423CDD0799C44E0029C44FC44A15991C
:1056E000534619DD00F084FF554506D0C14AC24B30
:1056F00000F07EFFC4E900010AE04FF0D352BE4B38
:1057000000F076FF32463B4600F072FFC4E900012C
:1057100017B00120BDE8F08F00F0D0FB554506D052
:10572000B44AB54B00F0CAFBC4E900010AE04FF0EF
:10573000D352B14B00F0C2FB32463B4600F0BEFBF9
:10574000C4E9000117B04FF0FF30BDE8F08FAB495E
:10575000A942159978DB21F0004183468846A84A82
:10576000A84B00F03BFE0022A74B00F0A7FB00F087
:10577000ADFD099000F007FE06460F469C4A5346D1
:1057800000F02CFE43465A4600F026FF80468A462B
:10579000984A994B3046394600F020FE2A0D0125E3
:1057A0000B924246534600F017FF032DC4E9000157
:1057B00039D00B98C1F30A51401A05EB4511113944
:1057C000814230DA9148C346784400EB0510CDF8A9
:1057D0000CA00C90D0E900233046394600F0FEFDC5
:1057E00002460B46049106905846039900F000FFCC
:1057F00080468A4602460B465846039900F0F8FE5A
:10580000049B069A00F0F4FE83460C9803913946F7
:10581000D0E90223304600F0E1FD5A46039B00F038
:10582000E7FE6D1CBDE707980028A2BF099817B0D6
:10583000BDE8F08F616881F000416160099817B0A0
:105840004042BDE8F08FFFE784461598C1F313018D
:10585000C0F30A50A0F2F5304FEA601800F01F06BE
:10586000C6F12000139000200690079041F4801E9E
:1058700005206D4676B1664A08EB00017A4452F87D
:10588000213002EB8101B3404A68139922FA01F1F9
:10589000194305E05F4908EB0002794451F82210F2
:1058A000A1FB0E27A1FB0C131A449A4234BF01231B
:1058B000002303EB070A05EB8003D3E901B70F448C
:1058C0008F4234BF0121002193448B4411B1934591
:1058D00002D903E0934501D2012100E00021C3E990
:1058E00001B7514445F82010011EA0F10100C1DCB0
:1058F0000298059F00F10050800F12900298DDE998
:105900000356800000F03FFD834628460D9100F0CD
:1059100051FD6FF01D0201F000FBCDE90E01304694
:1059200000F048FD6FF03D0201F0F7FA80468A462C
:10593000384600F03FFD6FF05D0201F0EEFA0746D9
:1059400042465346119100F0B9FADDE90E2300F00A
:10595000B5FA5A460D9B00F0B1FA00250E465A469C
:1059600028460D9B00F044FEDDE90E2300F040FECA
:105970004246534600F03CFE3A46119B00F02CFE96
:10598000DFF898A0244A534600F028FD07468846D1
:10599000234A244B3146284600F020FD3A46434630
:1059A00000F08CFA074688464FF0A842534631462D
:1059B000284600F013FD3A46434600F07FFA159A58
:1059C00012F0004F04D0129A81F00041524212921C
:1059D000C4E90001129817B0BDE8F08FFB21E93F40
:1059E0007CD90240FB21F93F7370032E8A19A33B37
:1059F000000040543163621A61B4D03DFB2139414B
:105A000083C8C96D305FE43F0000E03F2420000000
:105A1000A01F0000821F0000182D4454FB21F93DF7
:105A20003326A611460B113C2DE9FF4D21F000480D
:105A300007460C46B8F1795F08DA00F047FC002809
:105A400001BF0020324904B0BDE8F08D3A4623463C
:105A50001046194600F0C2FC054602462D480E4687
:105A60000B460621784400F05DF82A46334600F0E4
:105A7000B5FCDDE9022382468B463846214600F01C
:105A8000ADFC04460F4652465B462846314600F0C0
:105A9000A5FC22463B4600F0ABFD07468A464FF088
:105AA000FF322846314601F038FA1B4A90450ADA9F
:105AB0003A46534600F09CFD04B00022BDE8F04D8C
:105AC000134B00F089BD154A4245A8BFA8F5001543
:105AD0004FF00004B8BF124D22462B4600F088FD5F
