:0A0EBB0025660D0A0025640D0A00EB
:100DA900023E0000024001F402280000043A00005B
:100DB9000000044200000000043640000000043234
:100DC90000000000042E00000000042400000000C0
:0F0DD900042A000000000146000122000123004F
:100AF300C3E5419FFDE5409EFC1202978F3D8E3C6E
:100B03008D3B8C3AAB45AA44A943A842120019ABCA
:100B130031AA30A92FA82E12010EC004C005C006A9
:100B2300C007AF3DAE3CAD3BAC3AAB39AA38A937B1
:100B3300A83612010ED003D002D001D00012001D3E
:100B4300C004C005C006C007AF2DAE2CAD2BAC2A28
:100B5300AB35AA34A933A83212010ED003D002D088
:100B630001D00012001D8F278E268D258C24E4FFD3
:100B7300FE7D807C3FAB3DAA3CA93BA83A12021400
:100B83006002501DE4FFFE7D807CBFAB3DAA3CA903
:100B93003BA83A1202144009E4F527F526F525F59A
:100BA30024853D45853C44853B43853A42AF2DAE84
:100BB3002CAD2BAC2AAB3DAA3CA93BA83A12001D95
:100BC3008F2D8E2C8D2B8C2AE4FFFEFDFCAB27AAE8
:100BD30026A925A82412021460074005E4F528F588
:100BE30029E4FFFEFDFCAB27AA26A925A8241202AF
:100BF300145019752800752901AF27AE26AD25AC11
:100C0300241202818F278E268D258C24E5294528E1
:100C13007004D291C292E529640145287004C291FF
:100C2300D292E4FFFE7DC87C42AB27AA26A925A861
:100C330024120214400BE4F527F5267525C8752404
:100C430042E4FFFEFDFCAB27AA26A925A824120235
:100C53001460025009E4F527F526F525F524AF279E
:070C6300AE26AD25AC2422F2
:100CF600120EC5120ECC120E11120E7C120E8D7B28
:100D0600FF7A0E79BB853D4D853C4C853B4B853A3C
:100D16004A1206E67BFF7A0E79BB85454D85444C23
:100D260085434B85424A1206E67BFF7A0E79BB85E0
:100D3600274D85264C85254B85244A1206E67BFFE2
:100D46007A0E79C085284A85294B1206E67FE87E09
:060D560003120E3380A918
:03000B00020D5C87
:100D5C00C0E0C0F0C083C082C0D075D000C000C05D
:100D6C0001C002C003C004C005C006C007758CD802
:100D7C00758AEFAF3FAE3E120AF31202D08F4612C5
:100D8C000E51D007D006D005D004D003D002D0012C
:0D0D9C00D000D0D0D082D083D0F0D0E03293
:03000300020DE902
:100DE900C0E0C2A8E522701B20B30A053FE53F70A9
:100DF9000C053E8008E53F153F7002153E7522013E
:080E0900752300D2A8D0E032ED
:03001300020E6A70
:100E6A00C0E0C2AAE5237005F522752301D2AAD0F3
:020E7A00E03264
:100E3300D3EF9400EE940040147D6E7C00ED1D70A2
:0D0E4300011CED4C70F7EF1F70E61E80E300
:010E5000227F
:070EC500D288D2A8D2AF22AF
:070ECC00D28AD2AAD2AF22A4
:100E8D00438901758CFC758A18D2A9D2AFD28C22F8
:100E9D00438910758DFC758B18D2ABD2AFD28E22D3
:100E7C00759850758920758DFD758BFDD2AFD28E0E
:010E8C002243
:0E0EAD00C2ACC2998F993099FDC299D2AC2285
:060ED300AE07120EAD2275
:100E1100E4F5D8F5E9F5F975D90275EA8075FA8036
:100E210075DA4275EBFF75FBFF75F30375DB42D293
:020E3100DE22BF
:100E5100EF75F0FFA4FFAEF07C007D641205EBC3DB
:090E610074FF9FF5FA85FAEA22FC
:1000160002033CE86480F8E933E83360110460F0D9
:10002600ED33EC337009E8FCE9FDEAFEEBFF220450
:1000360060DED3EB9FEA9EE99DE8C2E78CF0C2F74B
:1000460095F0400CE8CCF8E9CDF9EACEFAEBCFFB17
:1000560012030785D0F05804700320D5B3E8047066
:10006600075002B2D502034692D5EC0460F7E4CC01
:10007600C0E0C398F8603B94186008400DD0E0FBE0
:1000860002031EE4FBFAC9FC8028E830E406E4C952
:10009600FBE4CAFCE830E305E4C9CACBFCE8540734
:1000A6006010F8C3E913F9EA13FAEB13FBEC13FC3F
:1000B600D8F130F52FC3E49CFCEF9BFFEE9AFEEDE2
:1000C60099FDD0E0FBEF4E4D4C701222DB0302038C
:1000D60043EC2CFCEF33FFEE33FEED33FDED30E762
:1000E600EB02031EEF2BFFEE3AFEED39FDD0E0FBEF
:1000F60050130BBB0003020346ED13FDEE13FEEF98
:0801060013FFEC13FC02031EC1
:10010E00EC4D6011E8497017ED33EC3304600DE4EB
:10011E00FCFFFEFD22E933E8330470F802033C12C3
:10012E00030758046009E4CC2481500628500902C4
:10013E000346284003020343C0E0EB4A7044B980F3
:10014E0006D0E0FB020332EF4E701CBD8008EBFFC1
:10015E00EAFEE9FD80EBE98DF0A4FEE5F00201F781
:10016E00E9CDF9EAFEEBFFEF89F0A4FCE5F0CE89CC
:10017E00F0A42EFFE435F0CD89F0A42DFEE435F089
:10018E008067EF4E7005BD80D780C3EF8BF0A4ACB7
:10019E00F0EE8BF0A42CFCE435F0F8EF8AF0A42CF2
:1001AE00E5F038FCE433CB8DF0A42CFCE5F03BF805
:1001BE00EE8AF0A42CFCE5F038F8E433CF89F0A4F5
:1001CE002CFCE5F038CF3400CE89F0A42FFFE5F0FB
:1001DE003EFEE433C98DF0A42EFEE5F039CD8AF053
:1001EE00A42FFFE5F03EFEE43DFD33D0E0FB5007CB
:1001FE000BBB000F020346EC2CFCEF33FFEE33FE7D
:06020E00ED33FD02031EAA
:1002140074F8CC6480CCC86480C8F582046043C39D
:10022400EB9FF5F0EA9E42F0E99D42F0E89C45F030
:1002340060305018E5825FFFE582F42B5582FB5055
:10024400210ABA001D09B90019088016E5825BFB72
:10025400E582F42F5582FF50090EBE00050DBD0046
:10026400010CC3EB9FF5F0EA9E42F0E99D42F0E8F1
:0D0274009C45F06007CC4820E701B3EC2268
:10028100ED33EC33600A047003BD8004ECB2E7FC8B
:01029100224A
:1002920075F020800E75F010800575F0087D007EE7
:1002A200007F003392D530D503120640EC33401064
:1002B200EF33FFEE33FEED33FDEC33FCD5F0ED22F0
:0E02C200E5F0247EA2D513CC92E7CDCEFF222C
:1002D000EDD2E7CD33EC3392D524814006E4FFFE26
:1002E000FDFC22FCE4CFCECDCC24E0501174FF8085
:1002F000EDC3CC13CCCD13CDCE13CECF13CF047022
:07030000F030D5DE020640DB
:10068400E55E244AF8E6055E227847300702784A98
:10069400E475F00112064E0205932000EB7F2ED282
:1006A400008018EF540F2490D43440D4FF30040B4E
:1006B400EF24BFB41A0050032461FFE55F60021504
:1006C4005F0562E5627002056130070D7847E475E5
:1006D400F00112064EEF0205D9020ED37403D207BD
:1006E4008003E4C207F55E8B478A488949E4F55FD5
:1006F400F561F562E55F60077F201206BF80F5753E
:1007040060FFC201C200C202C203C205C206C2081F
:1007140012068DFF700D3007057F001206D0AF6200
:10072400AE6122B4255FC2D5C20412068DFF24D067
:10073400B40A00501A75F00A785F30D50508B6FF80
:100744000106C6A426F620D5047002D20380D9245B
:10075400CFB41A00EF5004C2E5D2040209BDD2019D
:1007640080C6D20080C0D20280BCD2D580BAD20565
:1007740080B47F201206BF2002077401B55F0040D9
:10078400F1120684FF1206BF0206F8D208D20680D0
:1007940095120684FB120684FA120684F94A4B70F9
:1007A4000679B47A0A7BFF20022EE55F602A7E0078
:1007B4008E827583001205AC60060EEE656070F0E3
:1007C400C2D5EBC0E0EAC0E0E9C0E0EE120A1DD0F9
:1007D400E0F9D0E0FAD0E0FB120593FF60AAEBC089
:1007E400E0EAC0E0E9C0E01206BFD0E02401F9D09D
:1007F400E03400FAD0E0FBE5600460DCD560D98029
:1008040087D20280A2120A0060F7E5607001041228
:100814000351A960600DE560600914F560120AA730
:10082400EF60F3EA30E702F404C3995077EAF42561
:10083400600430E701E404F560800D120A0060C131
:10084400EA05602560120351EA785DF630E701E4B9
:10085400256004D5600420050114120A1DE4C0E0DB
:10086400120AA7785DE6601320E70714F61206A7BC
:10087400802204F6D0E014C0E07F001206A7E560F1
:10088400600712069E1560800B30050312069ED089
:10089400E00206F8D0E00480C5120A0060A0E5601A
:1008A40004120351785DEAF6E56020050260010454
:0508B4002404120A1DDE
:1008B90074FF04C0E0120AA71206A7E5602005022A
:1008C900600312069ED0E0B560E87F451206B17854
:1008D9005DE67F2B30E7047F2DF404C0E01206BFEC
:1008E900D0E075F00A84C0F01206A8D0E01206A87C
:1008F9000206F8791080027908C206C2088008D277
:10090900D5790A8004790AC2D5E560047002F560D8
:10091900E4FAFDFEFF120684FC7B0820011312068F
:1009290084FD7B1030000A120684FE120684FF7BC8
:1009390020EC3382D592D55013C3E43000069FFFD3
:10094900E49EFEE42001039DFDE49CFCE4CBF8C297
:1009590001EC700CCFCECDCCE824F8F870F38017F9
:10096900C3EF33FFEE33FEED33FDEC33FCEB33FB2A
:10097900994002FB0FD8E9EB300105F8D0E0C448F3
:10098900B201C0E00AEC4D4E4F78207B0070C2EAFC
:10099900B5600040BCC0E0120A1FD0F0D0E02001D1
:1009A90004C4C0E0C4B201C0F01206A8D0F0D5F06A
:1009B900EB0206F812065E07955308FC5807664CC9
:1009C90007624209004F090844090849077B43099E
:1009D9000E55083F46089D450809470AD450076A3D
:1009E9002D076E2E07912B077223078F200ABD2A28
:1009F900072A4800000789E560B4FF0375600612FD
:100A09000684FC120684FD120684FE120684FF7811
:100A190056020380790AA2D5200314300509B910BA
:100A2900020404B9080104A2D520060250010420D9
:100A390002689202B55F005034C0E07F203003198C
:100A49007F30A20272067205500F120A76C202C2E4
:100A590006C205C2087F30800F300503E9C0E012E5
:100A690006BF300503D0E0F9D0E0B55FCC300517FB
:100A79007F30B9100C1206BF7F583004077F788089
:100A890003B908031206BF3002057F2D0206BF7F96
:100A9900202008F87F2B2006F322920280CF7F00C6
:100AA900B4070050052456F8E6FF22286E756C6CD1
:100AB9002900D2011206843001F8C201785F30D5CD
:100AC9000108F602072A2D504349581206842403C7
:100AD900B405004001E4900ACF931206B0743A12AB
:0A0AE90006B0D203755F040208FC9A
:10030700E9D2E7C933E833F892D5EDD2E7CD33EC3C
:0703170033FC5002B2D522B5
:10031E00EC30E7100FBF000C0EBE00080DBD000440
:10032E000BEB6014A2D5EB13FCED92E7FD2274FFEC
:10033E00FCFDFEFF22E480F8A2D574FF13FC7D8045
:03034E00E480EF59
:10035100F920E72824F950037907E4F42402FB1873
:10036100DBFDE624FB5014E9600DE4F618E604F623
:0F037100B40A08E4F6D9F57401F60A22C2D522BF
:10038000ED33EC3392D5FA602AB4FF33EDC2E77B4C
:10039000FF60067A0379A5E4227A0379AE20D504BA
:1003A0007A0379A9224E614E002B494E46002D4911
:1003B0004E4600E47A08F608DAFC7B00740722E86F
:1003C000C0E0ECC0E0EDC0E0EEC0E0EFC0E0EA75F8
:1003D000F010A4CAABF075F04DA42BFBE435F0FC93
:1003E000EA2410FAEB34C5FBEC34D9FCEDC2E7FF8C
:1003F00075F056A4F42411C5F0F434C58FF0A42A86
:10040000E5F03BE43CF620E714120553D0E0FFD0C2
:10041000E0FED0E0FDD0E0FC1204868014F404126B
:100420000553D0E0FFD0E0FED0E0FDD0E0FC1201AB
:100430000ED0E0F8E6FAEDD2E7CD33EC332482FBC0
:10044000E4C3CF33CFCE33CECD33CD33DBF37B0715
:1004500075F00A846004F6081B0AE5F0F6088FF0D0
:10046000740AA4FFACF08EF0740AA42CFEACF05019
:10047000010C8DF0740AA42CFDE435F0F608DBDEE7
:03048000740722DC
:10048300020346EC5D046005E85904700302033C73
:10049300120307580460F6EC4860F2EC7004FDFEAA
:1004A300FF22C860DB2481C85009C398600250064C
:1004B3000203439850CAF582E9294B4A7005AB827F
:1004C30002033275F0007C1A7880C3EF9BEE9AED3D
:1004D30099400DC3EF9BFFEE9AFEED99FDE842F0C4
:1004E300DC23ACF0D0E0FFD0E0FED0E0FDAB822017
:1004F300E7101BEB60BAEC2CFCEF33FFEE33FEEDA1
:1005030033FD02031EE803F830E705C0F075F00081
:10051300EF2FFFEE33FEED33FD40B830E7C280AA84
:100523003F8000004120000042C80000447A0000E0
:10053300461C400047C35000497424004B18968062
:100543004CBEBC205A0E1BCA6753C21C749DC5AE59
:10055300FB60065407601C2323120581EB543860AB
:100563000912056D12057C12010EECF8EDF9EEFA95
:10057300EFCB22EB12057C80F1543803241C900549
:1005830023FE93FC0EEE93FD0EEE930ECE93FF220D
:03000000020C6A85
:0C0C6A00787FE4F6D8FD758162020CB1C1
:10059300BB010689828A83E0225002E722BBFE0266
:0905A300E32289828A83E4932299
:1005AC00BB010CE58229F582E5833AF583E0225004
:1005BC0006E92582F8E622BBFE06E92582F8E2224E
:0D05CC00E58229F582E5833AF583E4932268
:1005D900BB010689828A83F0225002F722BBFE0101
:0205E900F322FB
:1005EB00BC000BBE0029EF8DF084FFADF022E4CCF4
:1005FB00F875F008EF2FFFEE33FEEC33FCEE9DECBD
:10060B00984005FCEE9DFE0FD5F0E9E4CEFD22ED02
:10061B00F8F5F0EE8420D21CFEADF075F008EF2F4C
:10062B00FFED33FD4007985006D5F0F222C398FD3D
:05063B000FD5F0EA22DA
:0E064000C3E49FFFE49EFEE49DFDE49CFC22CB
:10064E00FAE6FB0808E6F925F0F618E6CA3AF622AD
:10065E00D083D082F8E4937012740193700DA3A32B
:10066E0093F8740193F5828883E47374029368603F
:06067E00EFA3A3A380DF3F
:100C7600020CF6E493A3F8E493A34003F68001F292
:100C860008DFF48029E493A3F85407240CC8C3337F
:100C9600C4540F4420C8834004F456800146F6DF4E
:100CA600E4800B0102040810204080900DA9E47E28
:100CB600019360BCA3FF543F30E509541FFEE49343
:100CC600A360010ECF54C025E060A840B8E493A30A
:100CD600FAE493A3F8E493A3C8C582C8CAC583CA35
:100CE600F0A3C8C582C8CAC583CADFE9DEE780BEED
:010DE800000A
:00000001FF
