:020000040800F2
:10000000D80D0020F5040008F9020008FB020008E2
:10001000FF020008030300080703000800000000B7
:100020000000000000000000000000000B030008BA
:100030000D030008000000000F0300081103000872
:100040000F0500080F0500080F0500080F05000840
:100050000F0500080F0500080F0500080F05000830
:100060000F0500080F0500080F0500080F05000820
:100070000F0500080F0500080F0500080F05000810
:100080000F0500080F0500080F0500080F05000800
:100090000F0500080F0500080F0500080F050008F0
:1000A0000F0500080F0500080F0500080F050008E0
:1000B0000F0500080F050008232B00080F05000896
:1000C0000F0500080F0500080F0500080F050008C0
:1000D0000F050008BD2000080F0500080F050008E7
:1000E0000F0500080F0500080F0500080F050008A0
:1000F0000F0500080F0500080F0500080F05000890
:100100000F0500080F0500080F0500080F0500087F
:100110000F0500080F0500080F0500080F0500086F
:100120000F0500080F0500080F0500080F0500085F
:1001300000F002F800F05AF80AA090E8000C82449F
:100140008344AAF10107DA4501D100F04FF8AFF27C
:10015000090EBAE80F0013F0010F18BFFB1A43F0A5
:10016000010318477C6400009C6400000A444FF0BF
:10017000000C10F8013B13F0070408BF10F8014B06
:100180001D1108BF10F8015B641E05D010F8016B4B
:10019000641E01F8016BF9D113F0080F1EBF10F8AF
:1001A000014BAD1C0C1B09D16D1E58BF01F801CBD2
:1001B000FAD505E014F8016B01F8016B6D1EF9D555
:1001C0009142D6D37047000000230024002500266A
:1001D000103A28BF78C1FBD8520728BF30C148BFAA
:1001E0000B6070471FB51FBD10B510BD03F0FCFEBE
:1001F0001146FFF7F7FF00F02BF803F01AFF03B4E6
:10020000FFF7F2FF03BC01F0FFFE00003548008855
:1002100000F40040D0B1344800783349497840EACE
:10022000012000B2314908802F4880782E49C978D2
:1002300040EA012000B22D49488000202949088069
:100240002B480088401C00B22949088000207047D4
:1002500001F070FE4FF4A06000F06CF94FF4E13053
:1002600001F0E1FE472144F61F6002F0CBFB41F6AE
:100270001F41632002F028FC03F008F802F0FBFAAB
:1002800003E0FFF7C3FF03F0FCFDFAE70EB50146FC
:100290000020009141228DF8042042228DF8052093
:1002A0009DF800208DF806209DF801208DF807208C
:1002B0000D228DF808200A228DF8092000BF0DE0DC
:1002C00001AA125C0B4B1A8000BF0A4A121F128847
:1002D00002F04002002AF8D0421CD0B20628EFDB20
:1002E0000EBD000038000020600200200000002049
:1002F0000400002004380140704700BFFEE700BF43
:10030000FEE700BFFEE700BFFEE77047704770479B
:10031000704700000CB50020019000906C48006808
:1003200040F480306A49086000BF6948006800F402
:10033000003000900198401C0190009818B9019875
:10034000B0F5A06FF1D16248006800F4003010B140
:100350000120009001E0002000900098012843D186
:100360005C48006840F010005A4908600846006880
:1003700020F0030008600846006840F002000860B2
:1003800053484068524948600846406848600846FB
:10039000406840F4806048600846406820F47C1063
:1003A00048600846406840F4E81048600846006825
:1003B00040F08070086000BF4548006800F00070A1
:1003C0000028F9D04248406820F0030040494860C6
:1003D0000846406840F00200486000BF3C48406862
:1003E00000F00C000828F9D10CBD10B5FFF792FF02
:1003F00010BD10B53648006840F00100344908606F
:100400000846406834490840314948600846006859
:10041000324908402E4908600846006820F48020D0
:1004200008600846406820F4FE0048604FF41F0052
:100430008860FFF7DAFF4FF000602949086010BDBF
:1004400010B5002100200022214B5B6803F00C0155
:1004500021B1042906D0082928D107E0214B224CDC
:10046000236027E01F4B204C236023E0184B5B6880
:1004700003F47010164B5B6803F48032022303EB25
:10048000904022B9194B4343174C23600DE0104BA9
:100490005B6803F4003323B1144B4343124C2360D5
:1004A00003E0104B4343104C236003E00D4B0E4C14
:1004B000236000BF00BF064B5B68C3F303130C4C03
:1004C000E15C094B1B68CB40074C236010BD00006A
:1004D00000100240002002400000FFF8FFFFF6FE7F
:1004E00008ED00E000127A000800002000093D003D
:1004F0000C0000200948804709480047FEE7FEE756
:10050000FEE7FEE7FEE7FEE7FEE7FEE7FEE7FEE7C3
:1005100004480549054A064B70470000F3030008EC
:1005200031010008D8070020D80D0020D80900208C
:10053000D809002031490143314A1160704770B534
:10054000002100230F22C47804B32D4C246804F446
:10055000E064C4F5E064210AC1F10403CA404478B0
:1005600004FA03F18478144021430901254C0678EC
:10057000A155047804F01F050124AC4005786D11E5
:10058000AD0005F1E025C5F8004109E0047804F06C
:100590001F050124AC401C4D0678761145F8264015
:1005A00070BD1A4A0A400243154B1B1F1A60704760
:1005B00039B1134A121D12680243114B1B1D1A60F8
:1005C00006E00F4A121D126882430D4B1B1D1A6074
:1005D0007047042808D14FF0E021096941F0040177
:1005E0004FF0E022116107E04FF0E021096921F0AE
:1005F00004014FF0E0221161704700000000FA058D
:100600000CED00E000E400E080E100E080FFFF1F6F
:1006100010B50446CC48844208D10121042000F0E2
:100620002DFB0021042000F029FB46E0C74884424E
:1006300008D10121082000F021FB0021082000F052
:100640001DFB3AE0C248844208D10121102000F08D
:1006500015FB0021102000F011FB2EE0BD48844264
:1006600008D10121202000F009FB0021202000F00A
:1006700005FB22E0B848844208D10121402000F067
:10068000FDFA0021402000F0F9FA16E0B348844258
:1006900008D10121802000F0F1FA0021802000F033
:1006A000EDFA0AE0AE48844207D10121801500F03E
:1006B000E5FA0021A01500F0E1FA10BD10B5012106
:1006C000084600F0DBFA0021012000F0D7FA10BD47
:1006D0002DE9F041024600250026002000230024D9
:1006E000002791F803C00CF00F0591F803C00CF03F
:1006F000100CBCF1000F03D091F802C04CEA0505C4
:1007000091F800C0BCF1000F31D0146800202BE03C
:100710004FF0010C0CFA00F3B1F800C00CEA03062C
:100720009E4220D183004FF00F0C0CFA03F7BC431C
:1007300005FA03FC4CEA040491F803C0BCF1280F4D
:1007400006D14FF0010C0CFA00FCC2F814C00AE00C
:1007500091F803C0BCF1480F05D14FF0010C0CFA21
:1007600000FCC2F810C0401C0828D1D31460B1F8B6
:1007700000C0BCF1FF0F34DD546800202EE000F112
:10078000080C4FF0010808FA0CF3B1F800C00CEAAD
:1007900003069E4221D183004FF00F0C0CFA03F7A1
:1007A000BC4305FA03FC4CEA040491F803C0BCF115
:1007B000280F05D100F1080C08FA0CF8C2F81480D3
:1007C00091F803C0BCF1480F07D100F1080C4FF0BD
:1007D000010808FA0CF8C2F81080401C0828CED393
:1007E0005460BDE8F0814FF6FF71018002218170F5
:1007F0000421C17070470246002093680B400BB182
:10080000012000E0002070470146886880B27047F0
:1008100002460020D3680B400BB1012000E000200D
:1008200070470146C86880B27047016170474161F6
:1008300070470AB1016100E041617047C1607047D3
:100840004FF480320A4382618161826182698269E8
:10085000704702460020434B18684FF680731840DB
:1008600040EA021008433F4B186070473E49C86198
:100870007047F0B50A46002300240021002500F04F
:100880000046B6F1004F02D1364EF16901E0354E17
:100890007168C0F3034583B200F44016B6F5401FFB
:1008A00008D121F070612F4E766826F070662D4FCA
:1008B0007E6012E000F48016B6F5801F06D1032694
:1008C00006FA05F4A14341F0706106E0460D3601D9
:1008D00003FA06F6B14341F0706122B1460D3601CC
:1008E00003FA06F6314300F00046B6F1004F02D19C
:1008F0001C4EF16101E01B4E7160F0BD30B500226D
:100900008B071C0F0F2303FA04F2164B08338C10CD
:1009100053F824309343134C08348D1044F8253099
:1009200023468C1053F824308C07240F00FA04F46B
:1009300023430C4C08348D1044F8253030BD0A494F
:10094000DC3108607047000000080140000C0140E5
:10095000001001400014014000180140001C01403B
:10096000002001400000014000002042DF480068F4
:1009700040F00100DD49086008464068DC49084055
:10098000DA49486008460068DA490840D7490860F3
:100990000846006820F4802008600846406820F47B
:1009A000FE0048604FF41F0088607047CF49096817
:1009B00021F48031CD4A11601146096821F480216B
:1009C0001160B0F5803F03D0B0F5802F0ED106E066
:1009D000C649096841F48031C44A116007E0C3493F
:1009E000096841F4A021C14A116000E000BF00BFC6
:1009F000704710B501460022002300204A11012A49
:100A000002D1BA4C236806E0022A02D1B74C236A0D
:100A100001E0B64C636A01F01F02012494401C40BF
:100A20000CB1012000E0002010BD38B5002000907E
:100A30000024002500BF3120FFF7DBFF05460098AA
:100A4000401C00900098B0F5A06F01D0002DF2D0AE
:100A50003120FFF7CEFF08B1012400E0002420463A
:100A600038BD01460020A14A106820F0F80040EA95
:100A7000C10010607047A04908607047024600201E
:100A80009A4B586820F47C1042EA01031843974BB4
:100A90005860704798490866704701460020934A9D
:100AA000506820F003000843506070478F4840684A
:100AB00000F00C007047014600208C4A506820F07E
:100AC000F00008435060704701460020874A506894
:100AD00020F4E06008435060704701460020834ADC
:100AE000506820F4605040EAC1005060704729B15E
:100AF0007E4A527A02437D4B5A7204E07B4A527A14
:100B000082437A4B5A7270477B49D83108607047EC
:100B100001460020754A506820F440400843506068
:100B200070470021714A20321170704A82F82010FB
:100B3000012802D004280AD104E001216B4A2032A6
:100B4000117005E00521694A2032117000E000BFF4
:100B500000BF70476949086070476449096A0143EA
:100B6000624A11627047654944390860704730B580
:100B700000210022002400235C4D6D6805F00C016B
:100B800021B1042905D0082923D105E05C4D056079
:100B900022E05B4D05601FE0544D6D6805F4701256
:100BA000524D6D6805F48034022505EB92421CB964
:100BB000544D554305600BE04C4D6D6805F4003510
:100BC0001DB1504D5543056002E04D4D5543056044
:100BD00002E04B4D056000BF00BF444D6D6805F05D
:100BE000F0010909484D6B5C0568DD4045603F4DEB
:100BF0006D6805F4E061090A434D6B5C4568DD40B2
:100C000085603A4D6D6805F46051C90A3E4D6B5CD4
:100C10004568DD40C560354D6D6805F44041890B80
:100C20003A4D6B5CC568B5FBF3F5056130BD29B184
:100C30002E4A526902432D4B5A6104E02B4A5269F5
:100C400082432A4B5A61704729B1284A926902436C
:100C5000264B9A6104E0254A92698243234B9A61AC
:100C6000704729B1214AD2690243204BDA6104E07E
:100C70001E4AD26982431D4BDA61704729B11B4A73
:100C8000D2680243194BDA6004E0184AD268824302
:100C9000164BDA60704729B1144A12690243134BAC
:100CA0001A6104E0114A12698243104B1A617047BD
:100CB00012494039086070470F49C86470470B49B2
:100CC000C87170470948406A40F08070074948621F
:100CD000704701460020054A92680A400AB1012087
:100CE00000E0002070470149887270470010024000
:100CF0000000FFF8FFFFF6FE00004242800442427F
:100D000000127A0000093D001C0000202C00002089
:100D100010B50446FE48844208D10121C014FFF7F3
:100D2000ADFF0021E014FFF7A9FFC4E0B4F1804F4C
:100D300008D101210846FFF7AEFF00210120FFF78F
:100D4000AAFFB8E0F348844208D101210220FFF74E
:100D5000A2FF00210220FFF79EFFACE0EE48844294
:100D600008D101210420FFF796FF00210420FFF79E
:100D700092FFA0E0E948844208D101210820FFF752
:100D80008AFF00210820FFF786FF94E0E4488442B0
:100D900008D101211020FFF77EFF00211020FFF76E
:100DA0007AFF88E0DF48844208D101212020FFF744
:100DB00072FF00212020FFF76EFF7CE0DA488442BA
:100DC00008D101214014FFF759FF00216014FFF7FB
:100DD00055FF70E0D548844209D10121C804FFF7CE
:100DE0004DFF00214FF40020FFF748FF63E0D0489B
:100DF000844209D101210805FFF740FF00214FF48B
:100E00008010FFF73BFF56E0CA48844209D1012118
:100E10004805FFF733FF00214FF40010FFF72EFFC6
:100E200049E0C548844208D101214020FFF733FF43
:100E300000214020FFF72FFF3DE0C048844208D149
:100E400001218020FFF727FF00218020FFF723FFEB
:100E500031E0BB48844208D101218015FFF71BFF18
:100E60000021A015FFF717FF25E0B648844209D1FD
:100E700001210804FFF702FF00214FF48030FFF743
:100E8000FDFE18E0B048844209D101214804FFF773
:100E9000F5FE00214FF40030FFF7F0FE0BE0AB4809
:100EA000844208D101218804FFF7E8FE00214FF4B5
:100EB0008020FFF7E3FE10BD00220288944B984289
:100EC0000ED0994B98420BD0B0F1804F08D0914B87
:100ED000984205D0904B984202D0904B984204D152
:100EE0004FF68F731A404B881A438D4B984207D0A8
:100EF0008C4B984204D04FF6FF431A40CB881A43DC
:100F000002808B8883850B880385814B98420BD0A8
:100F1000854B984208D08B4B984205D08A4B98421B
:100F200002D08A4B984201D10B7A03860123838237
:100F3000704770B5002400220023058C4FF6FE7622
:100F400035400584028C8388048B4FF68F752C40C6
:100F5000B51E2C400D882C43751E2A400D892A434E
:100F60004D882A436A4DA8420BD06F4DA84208D045
:100F7000744DA84205D0744DA84202D0734DA842CA
:100F800013D14FF6F7752A404D892A434FF6FB756A
:100F90002A408D882A434FF6FF652B404FF6FF55B8
:100FA0002B408D892B43CD892B4383800483CD88AF
:100FB0008586028470BD70B5002400220023058C54
:100FC0004FF6EF7635400584028C8388048B48F613
:100FD000FF752C404FF6FF452C400D884FF6FF76ED
:100FE00006EA05252C434FF6DF752A400D8906EAEF
:100FF00005152A434D8806EA05152A43444DA842A3
:1010000002D0494DA8421DD14FF67F752A404D8927
:101010004FF6FF7606EA05152A434FF6BF752A40BC
:101020008D8806EA05152A434FF6FF352B404FF20F
:10103000FF752B408D8906EA85052B43CD8906EA8D
:1010400085052B4383800483CD880587028470BD8A
:1010500070B5002400220023058C4FF6FF66354052
:101060000584028C8388848B4FF68F752C404FF655
:10107000FC752C400D882C434FF6FF552A400D89F6
:101080004FF6FF7606EA05252A434D8806EA052530
:101090002A431F4DA84202D0234DA8421DD14FF232
:1010A000FF752A404D894FF6FF7606EA05252A434B
:1010B0004FF6FF352A408D8806EA05252A434EF66D
:1010C000FF752B404DF6FF752B408D8906EA0515FF
:1010D0002B43CD8906EA05152B4383808483CD8875
:1010E0008587028470BD70B5002200230024058C22
:1010F0004EF6FF7635400584038C8488828B48F653
:10110000FF752A404FF6FF452A400D8820E0000079
:10111000002C01400004004000080040000C00408A
:10112000001000400014004000340140004C014019
:10113000005001400054014000180040001C0040D5
:1011400000200040004001400044014000480140B0
:101150004FF6FF7606EA05252A434DF6FF752B402C
:101160000D8906EA05352B434D8806EA05352B43E4
:10117000FA4DA84202D0FA4DA84208D14BF6FF75AD
:101180002C408D894FF6FF7606EA85152C43848026
:101190008283CD88A0F84050038470BD828B4FF2CB
:1011A000FF331A408283828B4FF6FF7303EA0123D9
:1011B0001A4382837047F0B50C4615460022002181
:1011C0000026078C4EF6FF7C07EA0C070784828B0B
:1011D000018C4FF6FF7707EA043640F6FF473A40A6
:1011E0004FF6FF7707EA05273A434FF6FF7707EAFE
:1011F00003373A43D94FB8420ED0D94FB8420BD03B
:10120000B0F1804F08D0D74FB84205D0D64FB84282
:1012100002D0D64FB84206D14DF6FF77394046F49A
:101220008057394305E047F6FF57394044F480576B
:10123000394382830184F0BD828B4FF6F3731A40E9
:101240008283828B0A4382837047F0B50C46154631
:10125000002200210026078C4FF6FF6C07EA0C07DE
:101260000784828B018C4FF6FF7707EA04264FF63E
:101270000C773A404FF6FF7707EA03172F433A43BC
:10128000B64FB8420ED0B64FB8420BD0B0F1804F37
:1012900008D0B44FB84205D0B34FB84202D0B34FD4
:1012A000B84206D14FF6FF57394046F480773943AC
:1012B00005E04FF2FF57394044F480773943828389
:1012C0000184F0BD028B4FF2FF331A400283028B80
:1012D0004FF6FF7303EA01231A4302837047F0B508
:1012E0000C461546002200210026078C4FF6EF7CA5
:1012F00007EA0C070784028B018C4FF6FF7707EA99
:10130000041640F6FF473A404FF6FF7707EA0337E7
:101310003A434FF6FF7707EA05273A438F4FB84223
:101320000ED08F4FB8420BD0B0F1804F08D08D4F08
:10133000B84205D08C4FB84202D08C4FB84206D18B
:101340004FF6DF77394046F01007394305E04FF696
:101350005F77394044F01007394302830184F0BDC0
:10136000028B4FF6F3731A400283028B0A43028307
:101370007047F0B50C46154600220021068C4FF64A
:10138000FE773E400684028B018C4FF60C7632408D
:101390007E1C06EA03162E433243704EB0420ED036
:1013A0006F4EB0420BD0B0F1804F08D06D4EB042BE
:1013B00005D06D4EB04202D06C4EB04206D14FF611
:1013C000FD76314044F00106314305E04FF6F576F5
:1013D000314044F00106314302830184F0BD70B511
:1013E00005460C465D4885420ED05D4885420BD0CF
:1013F000B5F1804F08D05B48854205D05A488542F8
:1014000002D05A48854200D100E000BF208850B980
:101410002389A28861882846FFF7ABFFE188284628
:10142000FFF79EFF25E0208804280AD12389A2889F
:1014300061882846FFF753FFE1882846FFF742FFFF
:1014400017E0208808280AD12389A28861882846C5
:10145000FFF7FBFEE1882846FFF7EEFE09E023894F
:10146000A28861882846FFF7A6FEE1882846FFF794
:1014700095FE70BD2DE9F04105460C46002601277A
:10148000608808B9022600E00026A088012801D162
:10149000022700E001272088A0B92389A28861885B
:1014A0002846FFF766FFE1882846FFF759FF2389A2
:1014B0003A4631462846FFF712FFE1882846FFF7F3
:1014C00001FF13E02389A28861882846FFF707FF00
:1014D000E1882846FFF7F6FE23893A46314628463A
:1014E000FFF747FFE1882846FFF73AFFBDE8F081A4
:1014F0000A884B881A438B881A43CB881A430B8976
:101500001A434B891A438B891A43A0F84420704729
:101510004FF6FF71818000210180C18041800172FE
:1015200070470021018041808180C180018141811B
:101530008181C1817047002101804180012181802A
:101540000021C1800181704700210180418081809C
:10155000C18001814181818170470000002C0140E0
:10156000003401400004004000080040000C00402E
:1015700021B1028842F00102028004E002884FF6A5
:10158000FE731A400280704731B1B0F8442042F433
:101590000042A0F8442005E0B0F84420C2F30E0257
:1015A000A0F8442070471AB183890B43838102E07D
:1015B00083898B43838170478182704741EA0203AC
:1015C000A0F8483070471AB183890B43838102E049
:1015D00083898B438381704701894FF6F8721140EC
:1015E000018170470A46002101894FF68F73194027
:1015F00011430181704730B504460D462946204607
:10160000FFF7F0FF208940F00700208130BD2DE971
:10161000F04104460D4616461F46602D06D13B4656
:10162000012231462046FFF75AFE05E03B460122E3
:1016300031462046FFF79DFE29462046FFF7D2FFA0
:10164000208940F007002081BDE8F08130B50C46CC
:1016500000210189C9B24FF6FF7505EA032515433C
:1016600025432943018130BD2DE9F04105460E4651
:1016700017469846002443463A4631462846FFF727
:10168000E5FF2C894FF6F870044044F007044FF64C
:101690008F70044044F070042C81BDE8F081F0B5F7
:1016A00004460D4616461F463B463246294620460E
:1016B000FFF7CCFF208940F480402081F0BD0185F8
:1016C000828270470A46002101884FF68F731940C5
:1016D000114301807047F0B50C4615461E460021A7
:1016E000002200230189028B038C4FF6F8773940E2
:1016F00021434FF6FC473A4040F201173A434FF678
:10170000DD773B404FF6FF7707EA06172F433B4351
:10171000018102830384F0BD0A460021018B4FF64C
:101720008F7319401143018370470A460021018BD2
:1017300048F6FF7319404FF6FF7303EA022319437B
:10174000018370470A460021818B4FF68F73194041
:101750001143818370470A460021818B48F6FF734D
:1017600019404FF6FF7303EA022319438183704740
:1017700021B1028842F08002028004E002884FF624
:101780007F731A400280704721B1828842F00402C0
:10179000828004E082884FF6FB731A408280704793
:1017A00021B1828842F00802828004E082884FF6EC
:1017B000F7731A408280704721B1828842F001029B
:1017C000828004E082884FF6FE731A408280704760
:1017D0000A460021018B4FF6F7731940114301832C
:1017E00070470A460021018B4FF2FF7319404FF6F4
:1017F000FF7303EA02231943018370470A4600215D
:10180000818B4FF6F77319401143818370470A4665
:101810000021818B4FF2FF7319404FF6FF7303EAEB
:1018200002231943818370470A460021018B4FF63A
:10183000FB7319401143018370470A460021018B55
:101840004FF6FF3319404FF6FF7303EA02231943A3
:10185000018370470A460021818B4FF6FB731940C4
:101860001143818370470A460021818B4FF6FF3375
:1018700019404FF6FF7303EA02231943818370472F
:101880000A460021018B4FF67F73194011430183F3
:1018900070470A460021018BC1F30E014FF6FF731A
:1018A00003EA02231943018370470A460021818B12
:1018B0004FF67F7319401143818370470A46002118
:1018C000818BC1F30E014FF6FF7303EA0223194324
:1018D000818370470A460021018C4FF6FD73194041
:1018E0001143018470470A460021018C4FF6F773BB
:1018F00019401143018470470A460021018C4FF6BC
:10190000DF7319404FF6FF7303EA02131943018492
:1019100070470A460021018C4FF67F7319404FF63D
:10192000FF7303EA02131943018470470A4600213A
:10193000018C4FF6FF5319404FF6FF7303EA022361
:101940001943018470470A460021018C4FF2FF734E
:1019500019404FF6FF7303EA0223194301847047CD
:101960000A460021018C4DF6FF7319404FF6FF73B4
:1019700003EA023319430184704730B50023012480
:101980008C40A3B2048C9C430484048C02FA01F5BD
:10199000ADB22C43048430BD30B5002304248C4008
:1019A000A3B2048C9C430484048C02FA01F5ADB20A
:1019B0002C43048430BD70B5034600200024184633
:1019C000183001258D40ACB21D8CA5431D8409B192
:1019D000082909D100EB6100056825F07005056054
:1019E0000568154305600EE00D1FC5F34E0528443C
:1019F000056825F4E045056005684FF6FF7606EAC0
:101A000002263543056070BD21B1028842F0020212
:101A1000028004E002884FF6FD731A40028070478E
:101A200021B1028842F00402028004E002884FF6ED
:101A3000FB731A400280704721B1828842F0800215
:101A4000828004E082884FF67F731A40828070475C
:101A500002884FF6F7731A40028002880A43028018
:101A6000704782884FF68F731A40828082880A43BB
:101A70008280704702894FF6F8731A40028102890A
:101A80000A430281704702894FF67F731A40028130
:101A900002890A43028170478184704781857047BB
:101AA000818670470187704781877047A0F8401092
:101AB000704702884FF6FF431A40028002880A43AB
:101AC000028070470146888E70470146088F704734
:101AD0000146888F70470146B1F8400070470146C3
:101AE000888C70470146088D704702460020138A93
:101AF0000B400BB1012000E000207047CA43028276
:101B0000704730B50246002000230024158A05EAFC
:101B10000103958905EA010413B10CB1012000E02D
:101B2000002030BDCA4302827047000010B5044651
:101B3000FB48844209D101218803FFF79FF8002167
:101B40004FF48040FFF79AF832E0F648844209D11A
:101B500001214804FFF79FF800214FF40030FFF700
:101B60009AF825E0F048844209D101218804FFF762
:101B700092F800214FF48020FFF78DF818E0EB4831
:101B8000844209D10121C804FFF785F800214FF4F0
:101B90000020FFF780F80BE0E548844208D10121DE
:101BA0000805FFF778F800214FF48010FFF773F86D
:101BB00010BD2DE9F04786B005460E460024A2462A
:101BC00000BFA1460027B08900B100BF2F462C8A74
:101BD0004CF6FF700440F08804432C82AC894EF62A
:101BE000F3100440B08831890843718908430443E5
:101BF000AC81AC8A4FF6FF400440B0890443AC820C
:101C000001A8FEF7B4FFC648874202D1DDF810A054
:101C100001E0DDF80CA0A88900F4004040B10AEB17
:101C2000CA0000EB0A1031684900B0FBF1F807E088
:101C30000AEBCA0000EB0A1031688900B0FBF1F82A
:101C40006420B8FBF0F004012009642101FB108935
:101C5000A88900F4004040B1322000EBC900B0FB7D
:101C6000F1F000F00700044308E0322000EB091017
:101C70006421B0FBF1F000F00F0004432C8106B0AA
:101C8000BDE8F0874FF41651016000218180C180CA
:101C900001810C21418100218181704710B50246EC
:101CA0000020108A4FF2FF0318400B884C88234312
:101CB0008C882343CC8823431843108210BD002115
:101CC000018041808180C180704721B1828942F4C6
:101CD0000052828104E082894DF6FF731A408281AE
:101CE0007047F0B50346002400260025002040F68A
:101CF0006A17B94200D100BF1846C1F3421401F07F
:101D00001F06012707FA06F5012C01D10C3004E06B
:101D1000022C01D1103000E014301AB107682F43B3
:101D2000076002E00768AF430760F0BD1AB1838A1D
:101D30000B43838202E0838A8B4383827047028A4B
:101D40004FF6F0731A400282028A0A4302827047F9
:101D500082894FF2FF731A40828182890A4382810D
:101D6000704721B1828942F00202828104E08289B7
:101D70004FF6FD731A4082817047028A4FF6DF7377
:101D80001A400282028A0A430282704721B1028A03
:101D900042F48042028204E0028A4BF6FF731A404A
:101DA00002827047C1F3080282807047014688882A
:101DB000C0F308007047818941F0010181817047BB
:101DC000028BD2B20283028B42EA01220283704765
:101DD000028B02F47F420283028B0A430283704724
:101DE00021B1828A42F02002828204E0828A4FF688
:101DF000DF731A408282704721B1828A42F010025A
:101E0000828204E0828A4FF6EF731A408282704722
:101E100021B1828A42F00802828204E0828A4FF66F
:101E2000F7731A408282704721B1828942F40042DE
:101E3000828103E08289C2F30E028281704721B160
:101E4000828A42F40062828204E0828A4FF2FF7347
:101E50001A4082827047828A4FF6FB731A40828250
:101E6000828A0A438282704721B1828A42F002024A
:101E7000828204E0828A4FF6FD731A4082827047A4
:101E800002460020B1F5007F00D100BF13880B404F
:101E90000BB1012000E00020704701F40072B2F5A0
:101EA000007F00D100BFCA430280704770B5024670
:101EB000002400230025002040F66A16B14200D11C
:101EC00000BFC1F3421501F01F03012606FA03F318
:101ED000012D02D19689334006E0022D02D1168AE7
:101EE000334001E0968A33400C12012606FA04F4CE
:101EF0001688344013B10CB1012000E0002070BD01
:101F000010B50022002340F66A14A14200D100BFA0
:101F10000A1201249440A3B2DC43048010BD0000E7
:101F2000003801400044004000480040004C0040A0
:101F30000050004010B56FF00400FEF74AFB2E4839
:101F400000682E49B0FBF1F02D4908700846007872
:101F500000EB4001C1EBC0104FF6FF7101EAC00079
:101F60002849088010BD0146254A12784A434FF09F
:101F7000E0235A6100229A611A46126942F0010276
:101F80001A6100BF4FF0E022106900F001021AB19F
:101F900000F48032002AF5D04FF0E022126922F0DE
:101FA00001024FF0E0231A6100229A617047014656
:101FB000144A12884A434FF0E0235A6100229A6182
:101FC0001A46126942F001021A6100BF4FF0E02286
:101FD000106900F001021AB100F48032002AF5D035
:101FE0004FF0E022126922F001024FF0E0231A6163
:101FF00000229A61704700000800002000127A0059
:102000003000002032000020014600BF704700BFB2
:102010005B4A128802F04002002AF9D0C2B2584B43
:102020001B1D1A80704710B586B00446012144F28A
:102030000400FEF709FE4FF40070ADF81400032011
:102040008DF8160018208DF8170005A94D48FEF7E9
:102050003FFB4FF48060ADF8140004208DF81700AA
:1020600005A94848FEF734FB25208DF80000012023
:102070008DF801008DF802008DF803006846FEF728
:102080005EFA01940020ADF80800ADF80A00ADF842
:102090000C00ADF810000C20ADF80E0001A9384876
:1020A000FFF787FD012240F225513548FFF719FE61
:1020B00001213348FFF709FE06B010BD10B540F20C
:1020C00025512F48FFF7F2FE002857D02C48FFF784
:1020D0006DFEC4B22C48008800F40050002845D0A2
:1020E0002948008800F48050B0B32748008800F4E5
:1020F0000040002842D12448008800F4804060B1AC
:102100000A2C03D000202049088037E01E480088B0
:1021100040F400401C49088030E00D2C06D11A48DC
:10212000008840F480401849088027E0164800885D
:10213000C0F30B0015490C5413480088401C124989
:1021400008800846008843F2C701884216DD4FF434
:1021500040500D49088011E0FFE7422C0ED10A489B
:10216000008840F480500849088007E0412C05D1E0
:102170000548008840F400500349088010BD000065
:1021800000380140000801403800002060020020B3
:1021900070B504460E4626B10821FA48FEF745FB05
:1021A00003E00821F748FEF742FB0221F548FEF75D
:1021B0003EFB002517E02021F348FEF738FB04F032
:1021C000800020B10121EF48FEF72FFB03E0012141
:1021D000EC48FEF72CFB2021EB48FEF726FB6006BF
:1021E000040E681CC5B2082DE5DB0221E548FEF7A8
:1021F0001CFB0821E348FEF718FB70BD70B50446D0
:102200000E4626B10821DF48FEF70FFB03E0082148
:10221000DC48FEF70CFB0221DA48FEF708FB00253C
:1022200017E02021D848FEF702FB04F0800020B11F
:102230000121D448FEF7FBFA03E00121D148FEF763
:10224000F4FA2021D048FEF7F0FA6006040E681C6C
:10225000C5B2082DE5DB0221CA48FEF7E6FA0821DF
:10226000C848FEF7E2FA70BD70B504460D4605F1A8
:10227000B001C8B20021FFF78BFF102141EA141012
:102280000021FFF785FF04F00F0141F0010000215C
:10229000FFF77EFF70BD10B500218D20FFF778FF9E
:1022A00000211420FFF774FF0021AF20FFF770FF1B
:1022B00010BD10B500218D20FFF76AFF002110200E
:1022C000FFF766FF0021AE20FFF762FF10BD70B57B
:1022D000002419E004F1B001C8B20021FFF758FF53
:1022E00000210846FFF754FF00211020FFF750FFA0
:1022F000002505E001210020FFF74AFF681CC5B258
:10230000802DF7DB601CC4B2082CE3DB70BDF0B598
:10231000144600267F2801DC3F2900DDF0BD0B4676
:10232000CF1701EB5777FF10C7F10707FAB2CF17A6
:1023300001EB5777FF10A1EBC707FDB2C5F1070707
:102340000123BB40DEB24CB1904B03EBC0039B5C5E
:1023500033438E4F07EBC007BB5408E08B4B03EBB6
:10236000C0039B5CB343894F07EBC007BB5400BF5E
:10237000D4E770B500241CE004F1B001C8B200211C
:10238000FFF706FF00210846FFF702FF002110209B
:10239000FFF7FEFE002508E07C4901EBC501085D62
:1023A0000121FFF7F5FE681CC5B2802DF4DB601C2F
:1023B000C4B2082CE0DB70BD2DE9F04106460C46A6
:1023C00017464FF000080025A7F1200000F0FF0895
:1023D0007F2E02DD0026A01CC4B2601CC1B23046B4
:1023E000FFF742FF00250AE008EB4801684A02EBCC
:1023F0004101485D0121FFF7CBFE681CC5B2062DE7
:10240000F2DBBDE8F0812DE9F04106460C461746A7
:102410004FF000080025A7F1200000F0FF087F2EF4
:1024200002DD0026A01CC4B2601CC1B23046FFF71A
:102430001BFF00250AE008EB4801554A02EB410169
:10244000485D0121FFF7DAFE681CC5B2062DF2DBFC
:10245000BDE8F08110B50246012000E050430B00BA
:10246000A1F10104E1B2F9D110BD2DE9FF5F0746EA
:1024700091461D460E9E4FF0000A002433E0281BB3
:10248000401EC1B20A20FFF7E5FFB9FBF0F00A21B8
:10249000B0FBF1F201FB1208BAF1000F13D1681E74
:1024A000A04210DDB8F1000F0BD1B34606EBDB7193
:1024B000491001FB0471C8B220220199FFF77CFF8B
:1024C0000FE04FF0010AB34606EBDB71491001FB48
:1024D0000471C8B208F13001CAB20199FFF76CFF6C
:1024E00000BF601CC4B2AC42C9DBBDE8FF9F2DE950
:1024F000F04104460F46154600260EE0AA5D394617
:102500002046FFF759FF04F10800C4B2782C02DD21
:102510000024B81CC7B2701CC6B2A85D0028EDD15B
:10252000BDE8F0812DE9F041064606241949304600
:1025300003F00AFA074603F07FF9054600BF0AE0F8
:102540000A2095FBF0F100FB115000B105E00A20D4
:1025500095FBF0F5641E002CF2DC00BF2046BDE8C0
:10256000F08170B506460024304603F065F9054653
:1025700000BF641C0A2095FBF0F5002DF9DC204615
:1025800070BD000000180140000801402803002031
:10259000325D0008002474492DE9F74F8CB0834662
:1025A0009046FEA207CA08AB07C30020059006901C
:1025B000079000240026049081460027824600BF31
:1025C00003E0202005A90855641C0A2CF9DB4046CD
:1025D000FFF7C7FF07464046FFF7A4FF824607EB19
:1025E0000A09504602F02BFD02460B46CDE90001D8
:1025F0000020ED4901F0ACFDCDE9020102F0AAFA9C
:1026000004904046049903F09FF9039003F014F9F5
:10261000054600242BE0A9F10101081B02F00FFD83
:1026200002460B46CDE900010020DF4901F090FD94
:10263000CDE9020102F0D4FC0646BC4202D12E20B4
:1026400005A90855BC4207DB95FBF6F008A9095C13
:1026500005AA601C115405E095FBF6F008A9085C7A
:1026600005A9085595FBF6F000FB1655641C4C4572
:10267000D1DB05AA58460D99FFF739FF0FB0BDE829
:10268000F08F2DE9FF5F074691461D460E9E4FF0E5
:10269000000A002433E0281B401EC1B20A20FFF7C5
:1026A000D9FEB9FBF0F00A21B0FBF1F201FB1208F0
:1026B000BAF1000F13D1681EA04210DDB8F1000F6F
:1026C0000BD1B34606EBDB71491001FB0471C8B2B4
:1026D00020220199FFF797FE0FE04FF0010AB34661
:1026E00006EBDB71491001FB0471C8B208F130013F
:1026F000CAB20199FFF787FE00BF601CC4B2AC42AA
:10270000C9DBBDE8FF9F2DE9F04104460F461546A1
:1027100000260EE0AA5D39462046FFF774FE04F15C
:102720000800C4B2782C02DD0024B81CC7B2701CAB
:10273000C6B2A85D0028EDD1BDE8F0812DE9F041D9
:1027400080460E461546002731464046FFF78CFD71
:1027500000240AE0954A02EB8511085D0121FFF78C
:1027600017FD781CC7B2601CC4B2102CF2DB701CC1
:10277000C1B24046FFF778FD00240CE06900491C17
:102780008A4A02EB4111085D0121FFF701FD781C27
:10279000C7B2601CC4B2102CF0DBBDE8F0812DE99B
:1027A000F04180460E461546002731464046FFF769
:1027B0005BFD00240AE07D4A02EB8511085D0121E2
:1027C000FFF71CFD781CC7B2601CC4B2102CF2DBF2
:1027D000701CC1B24046FFF747FD00240CE06900C1
:1027E000491C724A02EB4111085D0121FFF706FD09
:1027F000781CC7B2601CC4B2102CF0DBBDE8F081BD
:102800002DE9F05F06460F4690461C46DDF828A0ED
:102810004FF0000BE11704EB5171C910A4EBC1019B
:1028200031B92046E11704EB5171C1F3C70506E049
:102830002046E11704EB5171C910491CCDB23D4649
:1028400015E029463046FFF70FFDB1460BE059462B
:102850000BF1010B1AF801000121FFF799FC09F1B6
:10286000010000F0FF09C145F1DB681CC5B2A542BB
:10287000E7DBBDE8F09F08B501210420FEF7E4F98D
:102880002020ADF8000010208DF8030003208DF803
:10289000020069464648FDF71BFF20214448FDF72A
:1028A000C4FF01214020FEF7CFF90F20ADF8000052
:1028B00010208DF8030003208DF8020069463D4882
:1028C000FDF706FF0F213B48FDF7AFFF0421394814
:1028D000FDF7ABFF6420FFF76AFB04213548FDF7E5
:1028E000A6FFC820FFF763FB04213248FDF79DFFD8
:1028F0000021AE20FFF74CFC00210846FFF748FC02
:1029000000211020FFF744FC00214020FFF740FC8D
:1029100000218120FFF73CFC0021CF20FFF738FC8D
:102920000021A120FFF734FC0021C820FFF730FC74
:102930000021A620FFF72CFC0021A820FFF728FC8F
:1029400000213F20FFF724FC0021D320FFF720FCCB
:1029500000210846FFF71CFC0021D520FFF718FCDA
:1029600000218020FFF714FC0021D920FFF710FC84
:102970000021F120FFF70CFC0021DA20FFF708FC12
:1029800000211220FFF704FC0021DB20FFF700FCF0
:1029900000214020FFF7FCFB00210DE030313233F5
:1029A0003435363738390000000024403A00002022
:1029B00000080140001801402020FFF7E9FB00213A
:1029C0000220FFF7E5FB00218D20FFF7E1FB00214E
:1029D0001420FFF7DDFB0021A420FFF7D9FB002125
:1029E000A620FFF7D5FB0021AF20FFF7D1FB002188
:1029F000AF20FFF7CDFBFFF76AFC00210846FFF789
:102A000033FC08BD30B589B005460C4601210220D3
:102A1000FEF727F901210420FEF716F9012108200D
:102A2000FEF712F9C020ADF8200018208DF8230021
:102A300003208DF8220008A92048FDF749FE012057
:102A4000ADF8200018208DF8230003208DF8220017
:102A500008A91B48FDF73CFEADF81850ADF814402E
:102A60000020ADF8160005A91648FEF725FA6020EB
:102A7000ADF804000120ADF806000020ADF80C0010
:102A800001A91048FEF755FA01A90E48FEF793FA7E
:102A900001A90C48FEF7DCFA08210A48FEF798FE67
:102AA00008210848FEF79DFE08210648FEF7A6FE0D
:102AB00001210448FEF75CFD09B030BD000801406B
:102AC000000C0140000400407FB505460C46012182
:102AD0000420FEF7C6F8ADF80850ADF80440002019
:102AE000ADF80A00ADF8060001A9FE48FEF7E4F9CA
:102AF00001221146FB48FEF756FD1E208DF800000E
:102B000002208DF8010003208DF8020001208DF8CD
:102B100003006846FDF713FD0121F248FEF728FD8A
:102B20007FBD70B50121EF48FEF7EBFF00287DD097
:102B3000ED480088401C00B2EB4908800846B0F917
:102B40000000642805DB0120E84908700020E64900
:102B50000880E748007848B940F24651E548FEF75A
:102B60009FFF40F2AA51E348FEF79CFFE04800783F
:102B700001281DD1E04800F053FA0646DF4902F073
:102B8000EDFD054602F074FE84B22146D948FEF7F9
:102B900087FFDB4800F0C7FA0646DA4902F0DEFD9F
:102BA000054602F065FE84B22146D248FEF77AFF60
:102BB000CF480078022877D1D349D448006802F082
:102BC0008FFE15D8D249D148006802F089FF0FD88E
:102BD000CF49D048006802F083FF09D8CA49CD48E0
:102BE000006802F07DFE03D80120CB49088002E096
:102BF0000020C9490880C848008801280FD1C7486B
:102C00000088401C00B2C54908800846B0F90000A1
:102C100042F21071884202DB0846C0490880BF4872
:102C2000B0F90000B0F5967F20DC00E0E3E1BC489D
:102C300000F0F6F90646B14902F090FD054602F0B3
:102C400017FE84B22146AB48FEF72AFFB54800F0D4
:102C50006AFA0646AB4902F081FD054602F008FE1D
:102C600084B22146A348FEF71DFF1DE0A24800F0F4
:102C7000D7F90646A14902F071FD054602F0F8FDBC
:102C800084B221469B48FEF70BFF9D4800F04BFAAB
:102C900006469C4902F062FD054602F0E9FD84B259
:102CA00021469448FEF7FEFE9148007803287DD126
:102CB0009D480088E8B99D4800F0B2F906468F4962
:102CC00002F04CFD054602F0D3FD84B2214689484E
:102CD000FEF7E6FE964800F026FA0646894902F01D
:102CE0003DFD054602F0C4FD84B221468148FEF751
:102CF000D9FE8D48008801281DD18E4800F090F93A
:102D000006467E4902F02AFD054602F0B1FD84B276
:102D100021467848FEF7C4FE874800F004FA0646CC
:102D2000784902F01BFD054602F0A2FD84B221465F
:102D30007048FEF7B7FE7C48008802281DD17D4808
:102D400000F06EF906466D4902F008FD054602F0F6
:102D50008FFD84B221466748FEF7A2FE774800F057
:102D6000E2F90646674902F0F9FC054602F080FDEB
:102D700084B221465F48FEF795FE6B480088032821
:102D80001FD16F4800F04CF906465C4902F0E6FCA2
:102D9000054602F06DFD84B221465648FEF780FEDE
:102DA000684800F0C0F90646564900E039E002F0F4
:102DB000D5FC054602F05CFD84B221464D48FEF785
:102DC00071FE61495148006802F08AFD2AD85F49C6
:102DD0004E48006802F084FE24D85C494D480068E3
:102DE00002F07EFE1ED858494A48006802F078FD7D
:102DF00018D857480088401C00B25549088008463A
:102E0000B0F90000642810DB47480088401C00B27D
:102E1000454908800846B0F90000032805DB032077
:102E2000088002E000204A490880314800780428E0
:102E300056D148480088E8B9474800F0F1F80646FE
:102E40002E4902F08BFC054602F012FD84B22146A9
:102E50002848FEF725FE414800F065F90646294955
:102E600002F07CFC054602F003FD84B221462148B5
:102E7000FEF718FE3748008801281DD1384800F0B9
:102E8000CFF806461D4902F069FC054602F0F0FC49
:102E900084B221461748FEF703FE324800F043F99A
:102EA0000646184902F05AFC054602F0E1FC84B2DD
:102EB00021461048FEF7F6FD26480088022862D118
:102EC0001F4800F0ADF806460C4902F047FC0546E5
:102ED00002F0CEFC84B221460648FEF7E1FD43E055
:102EE00081E0000000080040FC010020FA01002001
:102EF000FE010020000400400000BC4200C0A844C5
:102F00000000CE420000B944000040400C02002006
:102F1000000040C028020020020200200002002021
:102F20000000BA420000F041040200200000034308
:102F300000007C42000064420000844200000E4316
:102F40000000C0410000304300002041000020C1CB
:102F50000602002008020020000029430000C842A9
:102F60000000C04200003143234800F0DCF8064670
:102F7000224902F0F3FB054602F07AFC84B22146B6
:102F80001F48FEF78FFD1F491F48006802F0A8FC8C
:102F90002AD81E491C48006802F0A2FD24D81B490B
:102FA0001B48006802F09CFD1ED8164918480068AE
:102FB00002F096FC18D817480088401C00B215494A
:102FC00008800846B0F90000642810DB1248008829
:102FD000401C00B2104908800846B0F900000228E1
:102FE00005DB0220088002E000200A490880012158
:102FF0000A48FEF797FD70BD000031430000B94458
:1030000000040040000020410C020020000020C10C
:10301000280200200A0200200802002000080040C8
:103020002DE9F04704468349B1F9000002F040FC65
:103030000546214602F085FD7F4908607F4801680A
:103040007F48006802F080FC07467E4801687A48A5
:10305000006802F081FD81467B480168484602F025
:1030600073FC0646744801687848006802F06CFCFE
:103070008046314602F072FB0546394602F06EFB8F
:1030800073490860734800680A2802DD002071490E
:103090000860694800686B496E4A126841F822006E
:1030A0006C480068401C6B4908606B4962480068C6
:1030B00002F016FC0ED269495F48006802F010FD6C
:1030C00008D25D4801685E48006802F047FB5C4931
:1030D000086002E000205A4908604FF081415648DC
:1030E000006802F0FDFB08D85D495348006802F013
:1030F000F7FC02D80020564908605A495448006835
:1031000002F0EEFB02D85748514908605649504832
:10311000006802F0E5FC02D853484D4908604C486D
:103120000068BDE8F0872DE9F04704464149B1F950
:10313000020002F0BDFB0546214602F002FD4B49AC
:1031400008604B4801684B48006802F0FDFB0746E9
:1031500049484A4A126850F822104448006802F070
:10316000FBFC814646480168484602F0EDFB0646F6
:103170003E4801684348006802F0E6FB804631465D
:1031800002F0ECFA0546394602F0E8FA3E490860DA
:103190003A4800680A2802DD0020384908603348B0
:1031A00001683548354A126840F8221033480068F3
:1031B000401C3249086028492C48006802F090FB06
:1031C0000ED226492948006802F08AFC08D2274816
:1031D00001682848006802F0C1FA2649086002E048
:1031E0000020244908604FF081412048006802F027
:1031F00077FB08D81A491D48006802F071FC02D814
:1032000000202149086017491F48006802F068FB48
:1032100002D814481C49086013491B48006802F092
:103220005FFC02D810481849086017480068BDE8DC
:10323000F0870000000000200C020020180200208F
:1032400024020020280700201C0200201402002075
:10325000200200204402002000000C4200000CC2AA
:10326000000080C0000048C300004843280200203E
:1032700034020020400200205007002048020020B5
:1032800038020020300200203C02002008B5012155
:103290000420FDF7D9FC01213048FDF7EAFA482067
:1032A0008DF803000220ADF8000069462C48FDF7B8
:1032B0000FFA48208DF803000420ADF8000069469D
:1032C0002748FDF705FA48208DF803000820ADF8DF
:1032D000000069462248FDF7FBF948208DF80300FD
:1032E0001020ADF8000069461D48FDF7F1F908BD52
:1032F00010B502211A48FDF77EFA70B10421184872
:10330000FDF779FA48B108211548FDF774FA20B1A4
:1033100010211348FDF76FFAF0B91E20FEF747FEA3
:1033200002210F48FDF767FA08B9012010BD0421FA
:103330000B48FDF760FA08B90220F7E708210848B2
:10334000FDF759FA08B90320F0E710210448FDF70A
:1033500052FA08B90420E9E70020E7E7000230004C
:10336000000801402DE9F041FE48008880B9FFF7D0
:10337000BFFF01280CD1FC480088401C00B2FA496C
:1033800008800846B0F90000062801DB002008800C
:10339000F448008801287DD1F34800880028FAD13C
:1033A000FFF7A6FF01280CD1F0480088401C00B2AE
:1033B000EE4908800846B0F90000032801DB002030
:1033C0000880EA48008800BBFFF792FF022807D177
:1033D000E7480168E748006802F0C0F9E54908607D
:1033E000FFF786FF032807D1E1480168E14800683C
:1033F00002F0B2FBDF4908600021DE48006802F0FD
:103400006FFA02D80020DB490860D84800880128FC
:1034100020D1FFF76DFF022807D1D7480168D748B0
:10342000006802F09BF9D5490860FFF761FF0328A7
:1034300007D1D1480168D148006802F08DFBCF491F
:1034400008600021CD48006802F04AFA02D8002046
:10345000CA490860C5480088022822D1FFF748FF02
:10346000022807D1C6480168C648006802F076F90C
:10347000C4490860FFF73CFF032807D1C048016832
:10348000C048006802F068FBBE4908600021BD48E2
:10349000006800E005E002F023FA02D80020B949F4
:1034A0000860B048008801287DD1AF480088012815
:1034B00079D1FFF71DFF01280CD1AC480088401CD2
:1034C00000B2AA4908800846B0F90000032801DBD1
:1034D00000200880A548008800BBFFF709FF0228EC
:1034E00007D1A3480168A848006802F037F9A64947
:1034F0000860FFF7FDFE032807D19D480168A24838
:10350000006802F029FBA049086000219E4800687D
:1035100002F0E6F902D800209B4908609348008831
:10352000012820D1FFF7E4FE022807D19248016864
:103530009648006802F012F994490860FFF7D8FE37
:10354000032807D18C4801689048006802F004FB0A
:103550008E49086000218D48006802F0C1F902D848
:1035600000208A49086081480088022822D1FFF79C
:10357000BFFE022807D1824801688548006802F032
:10358000EDF883490860FFF7B3FE032807D17C48B4
:1035900001687F48006802F0DFFA7D490860002179
:1035A0007B48006800E005E002F09AF902D80020AC
:1035B000774908606B48008801287DD16A480088F7
:1035C0000228FAD1FFF794FE01280CD16748008841
:1035D000401C00B2654908800846B0F90000042884
:1035E00001DB002008806148008860BBFFF780FE97
:1035F00002280DD15E48006802F084F80646654A4C
:10360000654B01F0D9FA044601F0A4FA5849086064
:10361000FFF76EFE03280DD15548006802F072F8DE
:1036200006465C4A5C4B01F083FF044601F092FAC7
:103630004F49086000214E48006802F051F902D855
:1036400000204B4908604948008801282CD1FFF729
:103650004FFE02280DD14A48006802F053F8064692
:103660004C4A4D4B01F0A8FA044601F073FA444964
:103670000860FFF73DFE03280DD14148006802F0C5
:1036800041F80646434A444B01F052FF044601F01C
:1036900061FA3B49086000213948006802F020F9CE
:1036A00002D80020364908603048008802282ED110
:1036B000FFF71EFE022800E029E00DD12E48006829
:1036C00002F020F80646334A334B01F075FA0446FF
:1036D00001F040FA28490860FFF70AFE03280DD1DF
:1036E0002548006802F00EF806462A4A2A4B01F0E7
:1036F0001FFF044601F02EFA1F49086000211E48F2
:10370000006802F0EDF802D800201B490860154857
:10371000008801287CD114480088042878D1FFF75C
:10372000E7FD01280CD111480088401C00B20F4968
:1037300008800846B0F90000042801DB002008805A
:103740001648007860BB0948008840B9FFF7D0FDF3
:10375000022804D1012011490870FEF7B8FD034882
:1037600000881EE04E0200204C0200205002002083
:1037700054020020140200205C02002018020020E5
:10378000580200201C0200203002002034020020D9
:10379000380200202D431CEBE2361A3FFE010020C8
:1037A0002DE001280AD1FFF7A3FD022806D1F9492F
:1037B00008700020F8490880FEF789FDF748008866
:1037C00002280BD1FFF794FD022807D10320F1490D
:1037D00008700020F2490880FEF779FDEF48008864
:1037E000032815D1FFF784FD022811D10420E949EF
:1037F00008700020EB490880FEF769FD08E0FFF73C
:1038000077FD032804D10020E2490870FEF75FFD30
:10381000BDE8F08108B5E448008800286FD1DF4892
:10382000B0F9000020B1012824D0022866D143E07D
:10383000DEA200210846FEF766FFDE48012102688D
:103840001220FEF7A9FEDCA202210020FEF74FFEA7
:10385000DB48032102681220FEF79EFED9A2042154
:103860000020FEF744FED948052102681220FEF729
:1038700093FE43E0CDA200210846FEF738FECD4876
:10388000012102681220FEF787FECBA20221002050
:10389000FEF739FFCA48032102681220FEF77CFEBA
:1038A000C8A204210020FEF722FEC84805210268B4
:1038B0001220FEF771FE21E0BCA200210846FEF7AF
:1038C00016FEBC48012102681220FEF765FEBAA26E
:1038D00002210020FEF70BFEB948032102681220E6
:1038E000FEF75AFEB7A204210020FEF70CFFB748EE
:1038F000052102681220FEF74FFE00BF00BFAA4854
:10390000008801286FD1A548B0F9000020B1012836
:1039100024D0022866D143E0ADA200210846FEF77C
:10392000F2FEAD48012102681220FEF735FEABA27F
:1039300002210020FEF7DBFDAA48032102681220C5
:10394000FEF72AFEA8A204210020FEF7D0FDA84819
:10395000052102681220FEF71FFE43E09CA2002111
:103960000846FEF7C4FD9C48012102681220FEF7BC
:1039700013FE9AA202210020FEF7C5FE99480321FA
:1039800002681220FEF708FE97A204210020FEF72D
:10399000AEFD9748052102681220FEF7FDFD21E0EB
:1039A0008BA200210846FEF7A2FD8B480121026888
:1039B0001220FEF7F1FD89A202210020FEF797FDFB
:1039C0008848032102681220FEF7E6FD86A2042142
:1039D0000020FEF798FE8648052102681220FEF7B7
:1039E000DBFD00BF00BF7048008802286FD16B4824
:1039F000B0F9000020B1012824D0022866D143E0AC
:103A00007CA200210846FEF77EFE7C480121026868
:103A10001220FEF7C1FD7AA202210020FEF767FD09
:103A20007948032102681220FEF7B6FD77A204212F
:103A30000020FEF75CFD7748052102681220FEF7A2
:103A4000ABFD43E06BA200210846FEF750FD6B483A
:103A5000012102681220FEF79FFD69A202210020C9
:103A6000FEF751FE6848032102681220FEF794FD1C
:103A700066A204210020FEF73AFD6648052102688F
:103A80001220FEF789FD21E05AA200210846FEF728
:103A90002EFD5A48012102681220FEF77DFD58A232
:103AA00002210020FEF723FD57480321026812205F
:103AB000FEF772FD55A204210020FEF724FE5548B2
:103AC000052102681220FEF767FD00BF00BF3648DF
:103AD000008803281DD150A200210846FEF707FDEB
:103AE0000C2000904D48B0F9002003230021142041
:103AF000FEF7BBFC4AA203210020FEF7F8FC0C20D5
:103B000000904648B0F90220032319461420FEF71E
:103B1000ACFC25480088042838D11E4800780028CD
:103B200035D11E48B0F9000030B1012819D0022863
:103B30002ED0032814D19EE03AA200210846FEF7B9
:103B4000E2FD3AA201210020FEF7D1FC39A20221B8
:103B50000020FEF7CCFC39A203210020FEF7C7FCB1
:103B6000A2E030A200210846FEF7C1FC2FA20121ED
:103B70000020FEF7C8FD2FA202210020FEF7B7FCAF
:103B80002EA203210020FEF7B2FC8DE0B1E08CE014
:103B900058E00000FE01002000020020500200203A
:103BA00004020020080200204C0200204B705F58E5
:103BB0003A000000140200204B695F583A000000F0
:103BC000180200204B645F583A0000001C020020DD
:103BD0004B705F593A000000300200204B695F597A
:103BE0003A000000340200204B645F593A000000A4
:103BF000380200204B705F6164643A005402002078
:103C00004B645F6164643A00580200204B695F6155
:103C100064643A005C020020583A00000000002072
:103C2000593A00004D4F4445490000004D4F44456E
:103C3000494900004D4F4445494949004D4F4445CD
:103C400056490000AFF2240200210846FEF74FFC5F
:103C5000AFF2280201210020FEF749FCAFF22C024E
:103C600002210020FEF74FFDAFF2300203210020B9
:103C7000FEF73DFC18E0AFF2540200210846FEF7C3
:103C800036FCAFF2580201210020FEF730FCAFF203
:103C90005C0202210020FEF72AFCAFF26002032141
:103CA0000020FEF730FD00BF23E095480078012892
:103CB00006D002280AD003280ED0042818D111E01B
:103CC00090A203210020FEF712FC11E092A2032132
:103CD0000020FEF70CFC0BE094A203210020FEF76D
:103CE00006FC05E096A203210020FEF700FC00BFC1
:103CF00000BF08BD10B59748B0F90000062822D2D1
:103D0000DFE800F0032241607F9E93A20021084675
:103D1000FEF7F9FC92A201210020FEF7E8FB92A237
:103D200002210020FEF7E3FB93A203210020FEF70F
:103D3000DEFB93A204210020FEF7D9FB94A205210B
:103D40000020FEF7D4FB9AE083A200210846FEF78C
:103D5000CEFB83A201210020FEF7D5FC82A2022126
:103D60000020FEF7C4FB84A203210020FEF7BFFB66
:103D700083A204210020FEF7BAFB85A205210020C2
:103D8000FEF7B5FB7BE074A200210846FEF7AFFB0F
:103D900073A201210020FEF7AAFB73A202210020DA
:103DA000FEF7B1FC74A203210020FEF7A0FB74A271
:103DB00004210020FEF79BFB75A205210020FEF7E1
:103DC00096FB5CE064A200210846FEF790FB64A22B
:103DD00001210020FEF78BFB63A202210020FEF7E9
:103DE00086FB65A203210020FEF78DFC64A204215E
:103DF0000020FEF77CFB66A205210020FEF777FB82
:103E00003DE055A200210846FEF771FB54A20121B6
:103E10000020FEF76CFB54A202210020FEF767FB96
:103E200055A203210020FEF762FB55A204210020C9
:103E3000FEF769FC56A205210020FEF758FB1EE0A4
:103E400045A200210846FEF752FB45A201210020B1
:103E5000FEF74DFB44A202210020FEF748FB46A2DC
:103E600003210020FEF743FB45A204210020FEF7BA
:103E70003EFB47A205210020FEF745FC00BF00BF26
:103E800010BD08B546480078012813D145A200218D
:103E90004620FEF72CFB0C20032300904348B0F98A
:103EA000002000216420FEF7E0FA00203F4908804E
:103EB0003B4908703E48008860B9FFF71BFFFFF7D9
:103EC00051FAFFF715FA042804D101203849088077
:103ED000FEF7FDF936480088012810D1FFF79AFC5B
:103EE000FFF740FAFFF704FA042808D10020304910
:103EF00008803049088002490870FEF7E8F908BDDB
:103F0000FE0100204D4F4445495F52554E494E47F2
:103F10002E2E2E2E000000004D4F444549495F5281
:103F2000554E494E472E2E2E000000004D4F444561
:103F30004949495F52554E494E472E2E2E000000EA
:103F40004D4F444556495F52554E494E472E2E2EF1
:103F5000000000004C020020312E5049445F580000
:103F6000322E5049445F5900332E5049445F494E28
:103F70004352454D454E5400342E585F59000000C1
:103F8000352E4D4F44455F43484F4943450000009F
:103F9000362E4D465F494E4352454D454E54000026
:103FA000FA0100206670733A00000000040000204F
:103FB0004E02002050020020704770477047704743
:103FC000704710B500F008F8006810BD10B5044641
:103FD00000F002F8046010BD004870477807002028
:103FE00000487047780700207546FFF7F9FFAE4696
:103FF00005006946534620F00700854618B020B5F5
:10400000FCF786FABDE820404FF000064FF00007AD
:104010004FF000084FF0000B21F00701AC46ACE870
:10402000C009ACE8C009ACE8C009ACE8C0098D46DD
:1040300070470446AFF300802046FCF7E0F84900E3
:1040400050EAC12018BF04204A0D18BF40F00100FB
:1040500040F2FF72B2EB515F08BF40F0020001284E
:1040600008BF052070472DE9F0414F1E00EBC70146
:104070000446D1E9000115461E4637F006020DD070
:104080002A46334601F02EF87F1E04EBC703D3E91E
:10409000002300F091FD37F00602F1D1022F25D068
:1040A000042F13D0062F18BFBDE8F0812A463346EF
:1040B00001F018F8D4E90A2300F07EFD2A463346C1
:1040C00001F010F8D4E9082300F076FD2A463346C3
:1040D00001F008F8D4E9062300F06EFD2A463346C5
:1040E00001F000F8D4E9042300F066FD2A463346C7
:1040F00000F0F8FFD4E9022300F05EFD2A463346C3
:1041000000F0F0FFD4E90023BDE8F04100F054BD19
:10411000002213461046014900F00ABE0000F03F9D
:1041200000F04ABD002213461046114600F000BEC2
:1041300040F2013200204FF0E04101F0B4BD000038
:10414000024A0020110701F0AEBD000001FDFFFF93
:104150002DE9F04D16460F4694B01C4621F0004163
:1041600023F00042002814BF4FF0010C4FF0000C68
:104170000CEB470CFE4B0CEB03054FEA630C65455B
:104180002BD3350018BF012505EB44051D44F94B21
:104190009D4222D3F84B52EA060C02D09F4205D131
:1041A00048B914B000201946BDE8F08D002808BFBA
:1041B0004FF0000C01D04FF0010C0CEB470313F54E
:1041C000001F0AD8002E14BF4FF0010C4FF0000C56
:1041D0000CEB440313F5001F07D914B032462346F5
:1041E0003946BDE8F04DFFF79BBFDFF890834FF0F5
:1041F000000A002FB8BF424523DAE14B9A42A8BF1C
:104200004FF0020A1DDADC4B93421ADCDD4B03EB64
:104210002253142B08DDC3F1340C26FA0CF303FAF5
:104220000CFCB4450DD108E05EB9C3F1140C22FAC0
:104230000CF303FA0CFC944503D103F00103C3F122
:10424000020A51EA00031BD1002C19DA002F18BF13
:10425000BAF1020F02D0BAF1010F07D00220FFF726
:10426000B5FE14B0BDE8F04DFFF752BF0220FFF7D6
:10427000ADFEFFF74DFF14B081F00041BDE8F08DB9
:10428000330070D1424525D107F1804212F58012EA
:1042900001BF00280020B84914B008BFBDE8F08D68
:1042A000B548884207DC002CA1BF1846214614B04F
:1042B000BDE8F08D07E0002CBFBF184684F0004138
:1042C00014B0BDE8F08DB0497944D1E9000114B0D3
:1042D000BDE8F08DDFF8A0C262452AD1002C24DAB7
:1042E00039B1414517D1002804BF002002461CD136
:1042F00006E040B10220FFF769FEFFF719FF0A460A
:10430000394600F0D7BA9D4A394614B0002062F30E
:104310001E01BDE8F08D08DA14B03B46BDE8F04D53
:1043200002460020614600F003BD14B03946BDE8E6
:10433000F08D414517DAB4F1804F0CD0A4F1005351
:10434000B3F1FF530FD13B1E0DDB14B01946BDE88E
:10435000F04D00F0D9BB3B4614B00246BDE8F04D2D
:10436000194600F0BFBE050027F000433AD1E1B185
:10437000414537D1002F06DD002CA1BF002041466A
:1043800014B0BDE8F08D002F01DD002C1FDB002FE5
:1043900016DA002C14DBBAF1010F4FF0000014BF45
:1043A00076497A4914B0BDE8F08DBAF1020F18BF12
:1043B000002F0CD0BAF1010F09D1002F07DA0BE062
:1043C000002FB8BF002C0DDABAF1010F04D0002085
:1043D00014B00146BDE8F08D14B000204FF000414C
:1043E000BDE8F08D4FF0010808EBE77CCDF814C074
:1043F0005CEA0A0C0DD0DFF898C162457EDDDFF87B
:1044000094C1654B624512DD8B420ADB002C18DB40
:1044100023E00120FFF7DAFD14B0BDE8F04DFFF70F
:1044200081BE554A8A4202DC002C0ADC15E0994222
:1044300002DA002C11DA04E04F4B994219DD002C0E
:104440000BDD0220FFF7C2FDFFF772FE4B4A14B0EE
:1044500061F31E021146BDE8F08D0220FFF7B6FDA4
:10446000FFF76EFE444A14B061F31E021146BDE828
:10447000F08D0022394601F05BF807460D466FF0DB
:10448000010201F010FC4FF05532444B00F05EFF8A
:104490003A462B4600F026FE0022414B00F056FF24
:1044A00080468B463A462B461046194600F01AFEC7
:1044B00042465B4600F016FE88460E904FF0C04222
:1044C000384B3846294600F00DFE83460091364AA7
:1044D000344B41460E9800F005FE80460191334A68
:1044E000334B3846294600F0FDFD4246019B01F062
:1044F0001FF80D4602460B460C9000E011E05846AE
:10450000009900F059FB002788465A463846009B20
:1045100001F00EF82B460C9A00F018FF024600F04E
:1045200079B90020B1F5801F07DA352228461946EF
:1045300001F0B9FB05466FF0340000EB2150A0F20A
:10454000FF300190C1F3130040F07F6141F0405112
:10455000029118498842D8BF4FF0000B35DD16494B
:104560008142C8BF4FF0010B2FDC4FF0000B25E05C
:10457000FFFF1F00FFFF0F000000F03F0000F07F73
:104580000000404301FCFFFF0C2300000000F0FF8F
:104590000000E0410000F043FFFFEF3F5555D53FDD
:1045A0000000E03F4715F73FFE822B6544DF5DF8D2
:1045B0000BAE543E8E9803007AB60B000198401C57
:1045C00001900298A0F580100290FF48029978446B
:1045D00000EBCB000991D0E9002328460B931292FF
:1045E00000F0A6FF00910A9028460B9B129A0999A9
:1045F00000F0E2FA02460B460020F44900F098FB76
:10460000CDE90C010B46024600990A9800F06AFDBC
:104610000690EF4888460027784402990068109079
:104620004FF0005040EA610000EB8B4000F50021A4
:1046300002910B9B129A109800F07AFF2A46099B70
:1046400000F084FE3A46434600F04CFD089112907B
:1046500038464146029B109A00F044FD009B0A9A9E
:1046600000F074FE089B129A00F062FFDDE90C2353
:1046700000F038FD0B91069A1290434610461946F9
:1046800000F030FD05460246D2480B460A9106214D
:104690007844FFF7E8FC0A9B2A46089102901046EE
:1046A000194600F01FFD089B029A00F01BFD05460D
:1046B0000991434638461946069A00F07DFA0B9B4D
:1046C000129A00F00FFD2A46099B00F075FACDE919
:1046D00008013A4643461046194600F003FD0A9188
:1046E0000022BD4B009000F067FADDE9082300F0DE
:1046F00063FA0D463A46B84B384600F019FF0A9B5C
:10470000009A00F015FFDDE9082300F01FFECDE957
:1047100008013A462B461046414600F0E3FC009162
:104720000A90DDE908014346069A00F0DBFC06909A
:1047300088462B463A460B99129800F0D3FC434624
:10474000069A00F039FA80460B4602460D91009910
:104750000A9800F031FA00200F460546009B0A9A9D
:1047600000F0E6FE42460D9B00F0F0FD88460E90FC
:104770004FF06042994B2846394600F0B3FC029155
:104780000090974A954B41460E9800F0ABFC80464E
:104790000391944A944B2846394600F0A3FC4246C4
:1047A000039B00F009FA914A7A4402EBCB03D3E968
:1047B000002300F001FA05460791019800F03FFC44
:1047C0000C9003912A46079B0299009800F0F4F997
:1047D000874A7A4402EBCB03D3E900239346019343
:1047E00000F0EAF9039B0C9A00F0E6F900278846EE
:1047F0003846039B0C9A00F09BFE5A46019B00F042
:1048000097FE029B009A00F093FE2A46079B00F059
:104810009DFD02460020069005986C4DAAF101030B
:10482000184301D1734D069000200B46049030468A
:10483000214600F057FC82468B46234630461946F7
:10484000049A00F075FE3A46434600F04BFC52468F
:104850005B4600F0B1F906468A463A464346214691
:10486000049800F03FFC04460F463246534600F0E1
:10487000A3F9614A8B46914221DBABEB020353EA79
:10488000000210D122463B4600F052FE80460391C2
:104890005A4A5B4B3046514600F08EF94246039B24
:1048A00000F01EFD27D20220FFF790FBFFF740FC2F
:1048B0000A46294614B062F31E01BDE8F08D514B43
:1048C0002BF000429A4216D34F4A0BEB020353EAF5
:1048D000000208D122463B4600F02AFE32465346EB
:1048E00000F0FEFC07D80220FFF770FBFFF728FC62
:1048F0000A462946DEE72BF000404449444A01EBD2
:1049000020514FF00008824223DA481C4FF48011F6
:1049100021FA00F058443F4AC0F30A517A443E4B12
:10492000A1F2FF31CB4020EA0303C0F3130040F4AF
:10493000801CC1F1140012682CFA00F8BBF1000FC2
:10494000B8BFC8F100082046394600F0F1FD044622
:104950000F4622463B463046514600F02DF94FF0B7
:10496000000B5A462D4B5846039100F0BBFB0091BB
:104970000A902B4A2B4B5846039900F0B3FB049145
:10498000029022463B465846039900F0D1FD32463C
:10499000534600F0DBFC244A244B00F0A3FB049BAD
:1049A000029A00F009F907468A46009B0A9A00F02D
:1049B00003F904460E46009B0A9A00F0B9FD3A46F8
:1049C000534600F0C3FC33E07E1F00000000F03FC0
:1049D000BC1F0000EC1E00000000084009C7EE3FAD
:1049E000FD033ADCF5015B14E02F3EBEC41D000060
:1049F0008A1D00000000F0BF00009040FE822B6581
:104A00004715973C00CC904000346F3F01FCFFFFFE
:104A10000000E03FB81C0000FFFF0F00432EE63F00
:104A2000396CA80C615C20BEEF39FAFE422EE63FDD
:104A30000746224633460F911046194600F052FBB6
:104A4000834602462E488A460B4605217844FFF7E6
:104A50000AFB5A46534600F045FB2246334600F017
:104A600075FC82468B463A46204631460F9B00F045
:104A700039FB3A460F9B00F09FF80F460A90002240
:104A80004FF080435046594600F052FD039100908C
:104A900052465B462046314600F024FB039B009AB9
:104AA00000F046F93B460A9A00F042FD22463346A2
:104AB00000F03EFD0022134B00F048FC0E46044679
:104AC00001EB08510815002810DC4246204631460B
:104AD00001F0E9F8FFF7B3FA042808BFFFF730FB4D
:104AE00042462046314601F0DEF8044606980B4661
:104AF00014B022462946BDE8F04D00F0F3BA00009C
:104B0000601B00000000F03F2DE9F04106460F4613
:104B100000F028FC04000D4618BF0120284320F0B7
:104B20000040C0F17F6000F1E040C00F0ED0301CAB
:104B300018BF0120384320F00040C0F17F6000F131
:104B4000E040C00F04BF0120FFF740FA204629468D
:104B5000BDE8F08121F00042A2F16052B2F5801F61
:104B600001F0004328BFD2F17F6C0BD95FEA001C33
:104B700043EAC20242EB507018BF704728BF20F0D2
:104B800001007047B2F5801FBCBF184670474FEA5E
:104B9000410C1CF5001F02D2084600F09CBF70B506
:104BA00000F04AFB00000089FFF7F6BF4FF000401D
:104BB000A0F580007047000010B591EA030F48BFD0
:104BC00083F0004300F1BC84841A71EB030C05D21E
:104BD000121943EB0C03001B61EB0C01DFF824E11D
:104BE0004FEA1154A4EB135C1EEA430F18BF9EEA70
:104BF000445F73D023EA0E03DCF1200E21EA045156
:104C000043F4801332D322FA0CFE10EB0E0023FA89
:104C10000CFE41EB0E01CCF1200E03FA0EFE10EB60
:104C20000E0051F10001B1F5801FCCF1200E32D2FF
:104C300001EB045112FA0EF2BDE8104058BF704764
:104C4000401C38BF5FEA420218BF7047002814BFFB
:104C500020F0010041F100014FEA410313F5001F6C
:104C600038BF7047A1F1C04100F034BB012A43EBCB
:104C70000302ACF1200CDCF11F0E32BF4FF0000E2E
:104C800023FA0CF310EB030041EB0451B4EB115F7A
:104C9000D0D0A1EB045101F5801149085FEA300042
:104CA00001EB04510ED350F1000038BF12FA0EFE92
:104CB00008D1BDE81040C9E7401C38BF5FEA420296
:104CC000CAD1C3E7BDE810404FEA410313F5001F06
:104CD00038BF7047A1F1C04100F0FCBA9EEA445FC2
:104CE00008D011EA5E0FBDE8104004BF01F000419A
:104CF00000207047BDE8104070B500F09DFA00BF7D
:104D000064FBBE3E0000E0FF02494FF0000000F0EF
:104D100098BF00BF0000F87F491058BFC1F1404163
:104D20005B1058BFC3F140438B42EFF300807047E4
:104D30002DE9C04130B4DFF8A0C23CEA111418BF1D
:104D40003CEA131400F0EC8081EA03051CEA11141C
:104D500044EAD57418BF1CEA131500F0C780A4EB11
:104D600005044FF0004545EAC12145EAC32341EA65
:104D7000505143EA525304F17F74994204F50034D0
:104D80004FEAC0204FEAC22208BF904200F09C8048
:104D90004FEA13650FF24016765D4FEA134506FBA6
:104DA00005F7C7F1807706FB07F74FEAD737A7FB70
:104DB00003687642C8F58038A7FB06CE38BFA8F155
:104DC000010807FB08E64FF0000EA6FB028CE6FB8D
:104DD00003CEDCF1000CCEF1004E38BFAEF1010E77
:104DE000A6FB0C584FF000074FF00005E6FB0E87BE
:104DF000A1FB08C6A0FB07CE16EB0E0645F1000589
:104E0000E1FB076515F1E04E7EBFA4F580345FEA53
:104E100046066D4116F1800745F100054FEA172758
:104E20004FEA066647EA0567A6F1DE46B6F1805FFF
:104E30004FEA15251FD9384624F0010C05EBC47143
:104E4000BCF1FE6F01EB0C1102D8F0BCBDE8008193
:104E500024425CBF01F5801E9EEAC47F02D4F0BCF0
:104E6000BDE80081244238D4F0BCA1F1C041BDE8C6
:104E7000004100F02FBA4FEAD22242EA43524FEAF1
:104E8000D323A7FB02864FEAD02040EA415007FB1C
:104E900003661EEA0E0F4FEAD12105FB026658BFDA
:104EA000A6EB0056B6EB00564FEA520E4EEAC37E12
:104EB00018EB0E0E56EB530EBDD518EB02085E41F3
:104EC0007F1C55F10005B6E74FF480154FF0000741
:104ED0004FF000064FF00008ADE7F0BC4FF00000C7
:104EE00001F1C04101F00041BDE8008111EA0C1F51
:104EF0000CEA131500D00CE013EA0C1F00F025801B
:104F00004FF00000F0BC81EA030101F00041BDE870
:104F10000081F0BCBDE8004181EA030100F0DAB98C
:104F2000F0BCBDE8004170B500F086F9097EFC3E9A
:104F300000F007B881EA03014FF0000001F00041E2
:104F4000704781EA030100F0C5B9F0BCBDE800413B
:104F50004FF0000021497047FFFDFBF9F7F5F4F22F
:104F6000F0EEEDEBE9E8E6E4E3E1E0DEDDDBDAD804
:104F7000D7D5D4D3D1D0CFCDCCCBCAC8C7C6C5C462
:104F8000C2C1C0BFBEBDBCBBBAB9B8B7B6B5B4B379
:104F9000B2B1B0AFAEADACABAAA9A8A8A7A6A5A464
:104FA000A3A3A2A1A09F9F9E9D9C9C9B9A99999828
:104FB0009797969595949393929191908F8F8E8ECB
:104FC0008D8C8C8B8B8A8989888887878685858458
:104FD00084838382828181800000FF070000F87F44
:104FE0004FEA41034FEA5353A3F58063D3F11E0305
:104FF000C8BFD3F1210C0CDD4FF0004242EAC122C0
:1050000042EA505232FA03FC8CEAE17CACEBE170EC
:105010007047102BC4BF0020704703F5787CBCF1AB
:10502000FF3F04D06FF0004282EA2100704770B564
:1050300000F002F94992248000207047F2E710F056
:10504000004248BF4042B0FA80F310FA03F10AD0A0
:10505000C3F11D0303F580634FEA415002EB035295
:1050600002EBD12170474FF00000704751EA030C6A
:1050700017D41CF5801F58BFBCF5801F00F10680B7
:10508000994218BF704708BF9042704707D711F583
:10509000801F58BF13F5801F19D499427047894269
:1050A00070471CF5801F08D5BCF5801FF7D58B42D3
:1050B00018BF704708BF824270474FF4001C1CEBBA
:1050C000410F38BF1CEB430F01D28B42704770B5C4
:1050D00000F0B2F8922449004FF000514FF0805395
:1050E000FFF71ABEDFF848C170B51CEA111E1EBFDB
:1050F0001CEA13159EEA0C0F95EA0C0F00F06F8066
:1051000081EA030423EA4C134EEAD47E21EA4C11CF
:1051100041F4801143F48013AE44A1FB024CA0FB88
:105120000365AEF17F7E361955EB0C05A1FB034CF0
:105130004CF10003A0FB021C16EB0C06654153F179
:105140000003094218BF46F0010613F4007F0BD19B
:105150004FEA03314FEA0530340341EA155140EA82
:1051600016506FF003020AE04FEAC3214FEAC52050
:10517000F40241EA555140EA56506FF0020202EB48
:105180002E4201EB025585EACE710AD05FEA440C4B
:1051900018BF24F0004450F1000041F1000120EA62
:1051A000D47040F2FE7C624500D270BDA84214BFAC
:1051B0004FF080444FF04044002E08BF0024BEF161
:1051C000806FA8BFA1F1C041BDE8704080F282802D
:1051D0004FF0000001F1C04101F0004170479EEA2C
:1051E0000C0F0CEA131518BF95EA0C0F06D04FF000
:1051F000000081EA030E0EF0004170BD00F01CF8C3
:105200008900013E00F007B800F009B84FEA430CEE
:105210005FEA5C5C08D081EA030100F05BB84FEA0A
:10522000410C5FEA5C5CF6D14FF000000149704729
:105230000000FF070000F87F0EF1020E2EF0030EB3
:105240005EF8046B364205D4012A43EB030515F5DD
:10525000001F12D8012841EB010C1CF5001F0CD8CF
:105260000ED14FEAD17C15F5001F0CEB4C0C0CF164
:10527000020C08BF4CEBD37C04E04FF0080C01E0BB
:105280004FEAD37C0CEB4C0526FA05F606F0070630
:10529000B6F1040C06D20EEB860CBDE870404CF063
:1052A000010C6047DFE80CF0090B02024FF00041EF
:1052B0004FF00000A1F5002170BD194610460128ED
:1052C00051EB010418BFD4F5001484BF002001F095
:1052D000004170BD0808A0F500114FEA3101704788
:1052E00053EA010C17D41CF5801F58BFBCF5801F72
:1052F00000F106808B4218BF704708BF824270479A
:1053000007D713F5801F58BF11F5801F19D48B42A2
:1053100070479B4270471CF5801F08D5BCF5801F65
:10532000F7D5994218BF704708BF904270474FF4B5
:10533000001C1CEB430F38BF1CEB410F01D29942FC
:1053400070470FB40CBC03BCFFF7C1BE91EA030F5A
:1053500010B581F000413FF537AC83F0004300F019
:10536000EFB800002DE9F04101F5801CBCF5001FED
:10537000C0F2C3804FEA115C21EA0C510CF1FD0C24
:1053800041F480115FEA5C0C0CF5C07C01D3400055
:1053900049413DA4890241EA905187028E0E0A0CD0
:1053A000A45D04FB04F602FB06F6C6F14046A4FB2E
:1053B0000662F60D46EA422606FB06F4A4FB01232C
:1053C0005242C3F1404338BF5B1EA6FB0242002499
:1053D000E6FB0324D20B42EA4446A6FB0623A1FBCC
:1053E00002E2A3FB07E4A4184FF0000252F100020E
:1053F000E3FB01426442C2F1404E38BFAEF1010E00
:10540000A6FB04234FF00002E6FB0E32A2FB03468C
:105410004FF00004B61954F10004E2FB0264A1FB52
:1054200006E6A4FB07E816EB08064FF0000858F163
:105430000008E4FB01687642C8F1405838BFA8F183
:105440000108A2FB06E4A3FB08E52D194FF00004B8
:1054500054F10004E2FB0854A1FB05E6A7FB04E8B5
:1054600018EB06084FF0000656F10006E1FB048633
:1054700018F1200556F10006A809A8F11B08B1098A
:1054800008F03F08B8F10A0F40EA86601CD901EB2A
:105490000C51BDE8F08100BFFCF5EEE8E2DDD8D3A9
:1054A000CFCBC7C3C0BDB9B6B4B1AEACA9A7A5A395
:1054B000A19F9D9B9A9896959392908F8D8C8B89A6
:1054C0008887868584838281A0FB006800FB01F2C7
:1054D00008EB4208B8EB872807D5341858EB0104CD
:1054E000D5D5401C51F10001D1E7341A78EB010405
:1054F000CDD4401E71F10001C9E75FEA4C0C5FEAB0
:105500009C5C0DD105D34FF0000001F00041BDE8D7
:10551000F081BDE8F04170B5FFF78EFE6DDBFFBE98
:10552000BDE8F0414FF00000004970470000F87FEF
:1055300010B591EA030F48BF83F000433FF544AB39
:10554000841A71EB030C07D212198CF0004C43EB58
:105550000C03001B61EB0C01DFF8A4E14FEA1154CE
:10556000A4EB135C1EEA430F18BF9EEA445F00F0F1
:10557000B08023EA6E03524221EA0451C3EB6E036A
:1055800038BF5B1EDCF1200E25D322FA0CFE10EB97
:105590000E0043FA0CFE41EB0E01CCF1200E03FA93
:1055A0000EFE10EB0E0051F10001CCF1200E29D4BB
:1055B00012FA0EF201EB0451BDE8104058BF7047DB
:1055C000401C1CBFB2F1004F704700280CBF491CA3
:1055D00020F00100704712EB020E43EB030218BFEC
:1055E0004FF0010E4EEA4202ACF1200CDCF11E0E2F
:1055F00054D943FA0CFE10EB0E0051F1FF31CCF1FF
:105600001E0ED5D50EF1010E12FA0EFE404141EBF1
:10561000010101EB445C5FEA5C5C10D910EBDE70C9
:1056200001EB045138BFBEF1004FBDE8104018BF78
:10563000704700280CBF491C20F00100704730D291
:105640004FEAD42C11F5001124F400641BD0B1FAF8
:1056500081F20B3AA41AA41ED2F12003914030FA31
:1056600003F31943904001EBCC71002C01EB045182
:10567000BDE81040A8BF704701F1C0414FF00000E5
:1056800001F000417047B0FA80F310FA03F100D145
:1056900010BDE41A173C4805C90AE4E701EB0451C0
:1056A00010BD491001EB0451BDE810404FEA300035
:1056B00002E04FF0000170474A0008BF0042F8D0F6
:1056C000B2F5001F28BF704701F000414FF0000005
:1056D00070479EEA445F07D011EA5E0FBDE81040B4
:1056E00004BF002100207047BDE8104070B5FFF7EF
:1056F000A3FD00BF40DFF63E83F000411046704737
:105700000000E0FF43004FEAD30C4FEA3C0C43405B
:105710001FBF40070CF1605113F0FE4F70471CF0A3
:10572000006F03D100200CF0004170470CF00043E3
:1057300043EA507010B540EACC0000F086F900BF93
:10574000000000924FEA0001FFF7C4BD4FF0004196
:105750004FF00000A1F500217047000090EA010F12
:1057600048BF81F0004100F1FE81421A3CBF801A1F
:1057700089184FEAD0524FF07F4C1CEA410FA2EB40
:10578000D15318BF9CEA026F00F03B804FF0004CF1
:105790004CEA00204CEA012121FA03FC10EB0C0C2E
:1057A0001ED202F1FF325FEA1C2040EBC25038BF2C
:1057B00070471CF07F0F4FEA400C18BFBCF17F4FC1
:1057C00038BF7047C3F12003994008BF20F00100A3
:1057D000BCF17F4F38BF7047A0F1C04000F07BB9EB
:1057E0004FEA3C00000A40EBC25028BF1CF0FF0FFC
:1057F0004FEA400CE6D018BFBCF17F4F38BF70476E
:10580000EAE79CEA026F05D010EA5C0F08BF00F0DF
:105810000040704710B500F018F900BF64FBBE3EB1
:10582000401058BFC0F14040491058BFC1F140413D
:105830008142EFF30080704741000B0ED3F19E02CE
:1058400008D950F400034FEA032323FA02F048BFBB
:105850004042704710B500F0F8F800BF499224802C
:10586000002070476FF0004282EA2000704700007D
:10587000C10DD1F19E0206DB4FEA002343F0004345
:1058800023FA02F07047004207D54FEA4001B1F118
:10589000FE4F02D24FF00000704710B500F0D5F86F
:1058A00049922480002070476FEA20007047000072
:1058B00010F0004148BF4042B0FA80F310FA03F202
:1058C000C3F19D030BD051EAC35101EB12205306E3
:1058D00038BF704700F1010008BF20F00100704799
:1058E00050EA010C00F113801CF5000F58BFBCF505
:1058F000000F01D48842704707D710F5000F58BF3A
:1059000011F5000F15D488427047894270471CF585
:10591000000F04D5BCF5000FF7D5814270474FF05A
:10592000807C1CEB400F38BF1CEB410F01D2814241
:10593000704710B500F089F8922449004FF00050EC
:105940004FF08051FFF76CBF4FF47F0C1CEAD01270
:105950001EBF1CEAD11392EA0C0F93EA0C0F00F061
:10596000478090EA010F48BF42F480724FF0004C2C
:105970004CEA00204CEA012102EB0302A0FB0113D8
:10598000A2F50002002918BF43F001035B0028BF05
:105990004FEA330342EB22425FEA132C4CEBC25036
:1059A0002EBFBCEB436FB2F57C0F70474FEA036C20
:1059B000BCF1004F08BF20F00100B2F57C0F38BFEA
:1059C00070470BD582F0FF0212F5803FC8BF7047C9
:1059D00000F1C040D8BF00F00040704700F5000C57
:1059E0005FEA4C0C48BF7047B0F1C04000F073B89C
:1059F00090EA010F0CEAD11348BF42F4807262456D
:105A000038BF634504D280EA010000F000407047CF
:105A100010B500F01AF800BF8900013E00F007B889
:105A200000F009B85FEA410C5FEA1C6C08D080EA1C
:105A3000010000F050B85FEA400C5FEA1C6CF6D140
:105A40004FF00040A0F5800070470EF1020E2EF0DE
:105A5000030E5EF8044B244204D44FEA4102B2F133
:105A60007F4F11D84FEA4003B3F17F4F0CD80ED1CE
:105A70004FEAD07CB2F17F4F0CEB4C0C0CF1020CD6
:105A800008BF4CEBD17C04E04FF0080C01E04FEA7A
:105A9000D17C0CEB4C0324FA03F404F00704B4F1BA
:105AA000040C06D20EEB840CBDE810404CF0010C47
:105AB0006047DFE80CF0070802024FF00040A0F555
:105AC000800010BD0846420018BFD2F1807288BF26
:105AD00000F0004010BDFF2141EAD050C0057047E2
