:10085500E4F5D8F5E9F5F975D90275EA8075FA80F8
:1008650075DA4275EBFF75FBFF75F30375DB42D255
:02087500DE2281
:10087700EF75F0FFA4FFAEF07C007D64120800C3A3
:0908870074FF9FF5FA85FAEA22DC
:10080000BC000BBE0029EF8DF084FFADF022E4CCDC
:10081000F875F008EF2FFFEE33FEEC33FCEE9DECA5
:10082000984005FCEE9DFE0FD5F0E9E4CEFD22EDEB
:10083000F8F5F0EE8420D21CFEADF075F008EF2F35
:10084000FFED33FD4007985006D5F0F222C398FD26
:050850000FD5F0EA22C3
:00000001FF
