:020000040800F2
:10000000080F0020F5040008F9020008FB020008B0
:10001000FF020008030300080703000800000000B7
:100020000000000000000000000000000B030008BA
:100030000D030008000000000F0300081103000872
:100040000F0500080F0500080F0500080F05000840
:100050000F0500080F0500080F0500080F05000830
:100060000F0500080F0500080F0500080F05000820
:100070000F0500080F0500080F0500080F05000810
:100080000F0500080F0500080F0500080F05000800
:100090000F0500080F0500080F0500080F050008F0
:1000A0000F0500080F0500080F0500080F050008E0
:1000B0000F0500080F050008232B00080F05000896
:1000C0000F0500080F0500080F0500080F050008C0
:1000D0000F050008BD2000080F0500080F050008E7
:1000E0000F0500080F0500080F0500080F050008A0
:1000F0000F0500080F0500080F0500080F05000890
:100100000F0500080F0500080F0500080F0500087F
:100110000F0500080F0500080F0500080F0500086F
:100120000F0500080F0500080F0500080F0500085F
:1001300000F002F800F05AF80AA090E8000C82449F
:100140008344AAF10107DA4501D100F04FF8AFF27C
:10015000090EBAE80F0013F0010F18BFFB1A43F0A5
:10016000010318477CA600009CA600000A444FF03B
:10017000000C10F8013B13F0070408BF10F8014B06
:100180001D1108BF10F8015B641E05D010F8016B4B
:10019000641E01F8016BF9D113F0080F1EBF10F8AF
:1001A000014BAD1C0C1B09D16D1E58BF01F801CBD2
:1001B000FAD505E014F8016B01F8016B6D1EF9D555
:1001C0009142D6D37047000000230024002500266A
:1001D000103A28BF78C1FBD8520728BF30C148BFAA
:1001E0000B6070471FB51FBD10B510BD07F028FF8D
:1001F0001146FFF7F7FF00F02BF807F046FF03B4B6
:10020000FFF7F2FF03BC01F0FFFE00003548008855
:1002100000F40040D0B1344800783349497840EACE
:10022000012000B2314908802F4880782E49C978D2
:1002300040EA012000B22D49488000202949088069
:100240002B480088401C00B22949088000207047D4
:1002500001F070FE4FF4A06000F06CF94FF4E13053
:1002600001F0E1FE472144F61F6002F0CBFB41F6AE
:100270001F41632002F028FC03F0B8FF02F0FBFAF4
:1002800003E0FFF7C3FF07F0F8FAFAE70EB50146FF
:100290000020009141228DF8042042228DF8052093
:1002A0009DF800208DF806209DF801208DF807208C
:1002B0000D228DF808200A228DF8092000BF0DE0DC
:1002C00001AA125C0B4B1A8000BF0A4A121F128847
:1002D00002F04002002AF8D0421CD0B20628EFDB20
:1002E0000EBD000038000020C402002000000020E5
:1002F0000400002004380140704700BFFEE700BF43
:10030000FEE700BFFEE700BFFEE77047704770479B
:10031000704700000CB50020019000906C48006808
:1003200040F480306A49086000BF6948006800F402
:10033000003000900198401C0190009818B9019875
:10034000B0F5A06FF1D16248006800F4003010B140
:100350000120009001E0002000900098012843D186
:100360005C48006840F010005A4908600846006880
:1003700020F0030008600846006840F002000860B2
:1003800053484068524948600846406848600846FB
:10039000406840F4806048600846406820F47C1063
:1003A00048600846406840F4E81048600846006825
:1003B00040F08070086000BF4548006800F00070A1
:1003C0000028F9D04248406820F0030040494860C6
:1003D0000846406840F00200486000BF3C48406862
:1003E00000F00C000828F9D10CBD10B5FFF792FF02
:1003F00010BD10B53648006840F00100344908606F
:100400000846406834490840314948600846006859
:10041000324908402E4908600846006820F48020D0
:1004200008600846406820F4FE0048604FF41F0052
:100430008860FFF7DAFF4FF000602949086010BDBF
:1004400010B5002100200022214B5B6803F00C0155
:1004500021B1042906D0082928D107E0214B224CDC
:10046000236027E01F4B204C236023E0184B5B6880
:1004700003F47010164B5B6803F48032022303EB25
:10048000904022B9194B4343174C23600DE0104BA9
:100490005B6803F4003323B1144B4343124C2360D5
:1004A00003E0104B4343104C236003E00D4B0E4C14
:1004B000236000BF00BF064B5B68C3F303130C4C03
:1004C000E15C094B1B68CB40074C236010BD00006A
:1004D00000100240002002400000FFF8FFFFF6FE7F
:1004E00008ED00E000127A000800002000093D003D
:1004F0000C0000200948804709480047FEE7FEE756
:10050000FEE7FEE7FEE7FEE7FEE7FEE7FEE7FEE7C3
:1005100004480549054A064B70470000F3030008EC
:100520003101000808090020080F0020080B0020F6
:10053000080B002031490143314A1160704770B502
:10054000002100230F22C47804B32D4C246804F446
:10055000E064C4F5E064210AC1F10403CA404478B0
:1005600004FA03F18478144021430901254C0678EC
:10057000A155047804F01F050124AC4005786D11E5
:10058000AD0005F1E025C5F8004109E0047804F06C
:100590001F050124AC401C4D0678761145F8264015
:1005A00070BD1A4A0A400243154B1B1F1A60704760
:1005B00039B1134A121D12680243114B1B1D1A60F8
:1005C00006E00F4A121D126882430D4B1B1D1A6074
:1005D0007047042808D14FF0E021096941F0040177
:1005E0004FF0E022116107E04FF0E021096921F0AE
:1005F00004014FF0E0221161704700000000FA058D
:100600000CED00E000E400E080E100E080FFFF1F6F
:1006100010B50446CC48844208D10121042000F0E2
:100620002DFB0021042000F029FB46E0C74884424E
:1006300008D10121082000F021FB0021082000F052
:100640001DFB3AE0C248844208D10121102000F08D
:1006500015FB0021102000F011FB2EE0BD48844264
:1006600008D10121202000F009FB0021202000F00A
:1006700005FB22E0B848844208D10121402000F067
:10068000FDFA0021402000F0F9FA16E0B348844258
:1006900008D10121802000F0F1FA0021802000F033
:1006A000EDFA0AE0AE48844207D10121801500F03E
:1006B000E5FA0021A01500F0E1FA10BD10B5012106
:1006C000084600F0DBFA0021012000F0D7FA10BD47
:1006D0002DE9F041024600250026002000230024D9
:1006E000002791F803C00CF00F0591F803C00CF03F
:1006F000100CBCF1000F03D091F802C04CEA0505C4
:1007000091F800C0BCF1000F31D0146800202BE03C
:100710004FF0010C0CFA00F3B1F800C00CEA03062C
:100720009E4220D183004FF00F0C0CFA03F7BC431C
:1007300005FA03FC4CEA040491F803C0BCF1280F4D
:1007400006D14FF0010C0CFA00FCC2F814C00AE00C
:1007500091F803C0BCF1480F05D14FF0010C0CFA21
:1007600000FCC2F810C0401C0828D1D31460B1F8B6
:1007700000C0BCF1FF0F34DD546800202EE000F112
:10078000080C4FF0010808FA0CF3B1F800C00CEAAD
:1007900003069E4221D183004FF00F0C0CFA03F7A1
:1007A000BC4305FA03FC4CEA040491F803C0BCF115
:1007B000280F05D100F1080C08FA0CF8C2F81480D3
:1007C00091F803C0BCF1480F07D100F1080C4FF0BD
:1007D000010808FA0CF8C2F81080401C0828CED393
:1007E0005460BDE8F0814FF6FF71018002218170F5
:1007F0000421C17070470246002093680B400BB182
:10080000012000E0002070470146886880B27047F0
:1008100002460020D3680B400BB1012000E000200D
:1008200070470146C86880B27047016170474161F6
:1008300070470AB1016100E041617047C1607047D3
:100840004FF480320A4382618161826182698269E8
:10085000704702460020434B18684FF680731840DB
:1008600040EA021008433F4B186070473E49C86198
:100870007047F0B50A46002300240021002500F04F
:100880000046B6F1004F02D1364EF16901E0354E17
:100890007168C0F3034583B200F44016B6F5401FFB
:1008A00008D121F070612F4E766826F070662D4FCA
:1008B0007E6012E000F48016B6F5801F06D1032694
:1008C00006FA05F4A14341F0706106E0460D3601D9
:1008D00003FA06F6B14341F0706122B1460D3601CC
:1008E00003FA06F6314300F00046B6F1004F02D19C
:1008F0001C4EF16101E01B4E7160F0BD30B500226D
:100900008B071C0F0F2303FA04F2164B08338C10CD
:1009100053F824309343134C08348D1044F8253099
:1009200023468C1053F824308C07240F00FA04F46B
:1009300023430C4C08348D1044F8253030BD0A494F
:10094000DC3108607047000000080140000C0140E5
:10095000001001400014014000180140001C01403B
:10096000002001400000014000002042DF480068F4
:1009700040F00100DD49086008464068DC49084055
:10098000DA49486008460068DA490840D7490860F3
:100990000846006820F4802008600846406820F47B
:1009A000FE0048604FF41F0088607047CF49096817
:1009B00021F48031CD4A11601146096821F480216B
:1009C0001160B0F5803F03D0B0F5802F0ED106E066
:1009D000C649096841F48031C44A116007E0C3493F
:1009E000096841F4A021C14A116000E000BF00BFC6
:1009F000704710B501460022002300204A11012A49
:100A000002D1BA4C236806E0022A02D1B74C236A0D
:100A100001E0B64C636A01F01F02012494401C40BF
:100A20000CB1012000E0002010BD38B5002000907E
:100A30000024002500BF3120FFF7DBFF05460098AA
:100A4000401C00900098B0F5A06F01D0002DF2D0AE
:100A50003120FFF7CEFF08B1012400E0002420463A
:100A600038BD01460020A14A106820F0F80040EA95
:100A7000C10010607047A04908607047024600201E
:100A80009A4B586820F47C1042EA01031843974BB4
:100A90005860704798490866704701460020934A9D
:100AA000506820F003000843506070478F4840684A
:100AB00000F00C007047014600208C4A506820F07E
:100AC000F00008435060704701460020874A506894
:100AD00020F4E06008435060704701460020834ADC
:100AE000506820F4605040EAC1005060704729B15E
:100AF0007E4A527A02437D4B5A7204E07B4A527A14
:100B000082437A4B5A7270477B49D83108607047EC
:100B100001460020754A506820F440400843506068
:100B200070470021714A20321170704A82F82010FB
:100B3000012802D004280AD104E001216B4A2032A6
:100B4000117005E00521694A2032117000E000BFF4
:100B500000BF70476949086070476449096A0143EA
:100B6000624A11627047654944390860704730B580
:100B700000210022002400235C4D6D6805F00C016B
:100B800021B1042905D0082923D105E05C4D056079
:100B900022E05B4D05601FE0544D6D6805F4701256
:100BA000524D6D6805F48034022505EB92421CB964
:100BB000544D554305600BE04C4D6D6805F4003510
:100BC0001DB1504D5543056002E04D4D5543056044
:100BD00002E04B4D056000BF00BF444D6D6805F05D
:100BE000F0010909484D6B5C0568DD4045603F4DEB
:100BF0006D6805F4E061090A434D6B5C4568DD40B2
:100C000085603A4D6D6805F46051C90A3E4D6B5CD4
:100C10004568DD40C560354D6D6805F44041890B80
:100C20003A4D6B5CC568B5FBF3F5056130BD29B184
:100C30002E4A526902432D4B5A6104E02B4A5269F5
:100C400082432A4B5A61704729B1284A926902436C
:100C5000264B9A6104E0254A92698243234B9A61AC
:100C6000704729B1214AD2690243204BDA6104E07E
:100C70001E4AD26982431D4BDA61704729B11B4A73
:100C8000D2680243194BDA6004E0184AD268824302
:100C9000164BDA60704729B1144A12690243134BAC
:100CA0001A6104E0114A12698243104B1A617047BD
:100CB00012494039086070470F49C86470470B49B2
:100CC000C87170470948406A40F08070074948621F
:100CD000704701460020054A92680A400AB1012087
:100CE00000E0002070470149887270470010024000
:100CF0000000FFF8FFFFF6FE00004242800442427F
:100D000000127A0000093D001C0000202C00002089
:100D100010B50446FE48844208D10121C014FFF7F3
:100D2000ADFF0021E014FFF7A9FFC4E0B4F1804F4C
:100D300008D101210846FFF7AEFF00210120FFF78F
:100D4000AAFFB8E0F348844208D101210220FFF74E
:100D5000A2FF00210220FFF79EFFACE0EE48844294
:100D600008D101210420FFF796FF00210420FFF79E
:100D700092FFA0E0E948844208D101210820FFF752
:100D80008AFF00210820FFF786FF94E0E4488442B0
:100D900008D101211020FFF77EFF00211020FFF76E
:100DA0007AFF88E0DF48844208D101212020FFF744
:100DB00072FF00212020FFF76EFF7CE0DA488442BA
:100DC00008D101214014FFF759FF00216014FFF7FB
:100DD00055FF70E0D548844209D10121C804FFF7CE
:100DE0004DFF00214FF40020FFF748FF63E0D0489B
:100DF000844209D101210805FFF740FF00214FF48B
:100E00008010FFF73BFF56E0CA48844209D1012118
:100E10004805FFF733FF00214FF40010FFF72EFFC6
:100E200049E0C548844208D101214020FFF733FF43
:100E300000214020FFF72FFF3DE0C048844208D149
:100E400001218020FFF727FF00218020FFF723FFEB
:100E500031E0BB48844208D101218015FFF71BFF18
:100E60000021A015FFF717FF25E0B648844209D1FD
:100E700001210804FFF702FF00214FF48030FFF743
:100E8000FDFE18E0B048844209D101214804FFF773
:100E9000F5FE00214FF40030FFF7F0FE0BE0AB4809
:100EA000844208D101218804FFF7E8FE00214FF4B5
:100EB0008020FFF7E3FE10BD00220288944B984289
:100EC0000ED0994B98420BD0B0F1804F08D0914B87
:100ED000984205D0904B984202D0904B984204D152
:100EE0004FF68F731A404B881A438D4B984207D0A8
:100EF0008C4B984204D04FF6FF431A40CB881A43DC
:100F000002808B8883850B880385814B98420BD0A8
:100F1000854B984208D08B4B984205D08A4B98421B
:100F200002D08A4B984201D10B7A03860123838237
:100F3000704770B5002400220023058C4FF6FE7622
:100F400035400584028C8388048B4FF68F752C40C6
:100F5000B51E2C400D882C43751E2A400D892A434E
:100F60004D882A436A4DA8420BD06F4DA84208D045
:100F7000744DA84205D0744DA84202D0734DA842CA
:100F800013D14FF6F7752A404D892A434FF6FB756A
:100F90002A408D882A434FF6FF652B404FF6FF55B8
:100FA0002B408D892B43CD892B4383800483CD88AF
:100FB0008586028470BD70B5002400220023058C54
:100FC0004FF6EF7635400584028C8388048B48F613
:100FD000FF752C404FF6FF452C400D884FF6FF76ED
:100FE00006EA05252C434FF6DF752A400D8906EAEF
:100FF00005152A434D8806EA05152A43444DA842A3
:1010000002D0494DA8421DD14FF67F752A404D8927
:101010004FF6FF7606EA05152A434FF6BF752A40BC
:101020008D8806EA05152A434FF6FF352B404FF20F
:10103000FF752B408D8906EA85052B43CD8906EA8D
:1010400085052B4383800483CD880587028470BD8A
:1010500070B5002400220023058C4FF6FF66354052
:101060000584028C8388848B4FF68F752C404FF655
:10107000FC752C400D882C434FF6FF552A400D89F6
:101080004FF6FF7606EA05252A434D8806EA052530
:101090002A431F4DA84202D0234DA8421DD14FF232
:1010A000FF752A404D894FF6FF7606EA05252A434B
:1010B0004FF6FF352A408D8806EA05252A434EF66D
:1010C000FF752B404DF6FF752B408D8906EA0515FF
:1010D0002B43CD8906EA05152B4383808483CD8875
:1010E0008587028470BD70B5002200230024058C22
:1010F0004EF6FF7635400584038C8488828B48F653
:10110000FF752A404FF6FF452A400D8820E0000079
:10111000002C01400004004000080040000C00408A
:10112000001000400014004000340140004C014019
:10113000005001400054014000180040001C0040D5
:1011400000200040004001400044014000480140B0
:101150004FF6FF7606EA05252A434DF6FF752B402C
:101160000D8906EA05352B434D8806EA05352B43E4
:10117000FA4DA84202D0FA4DA84208D14BF6FF75AD
:101180002C408D894FF6FF7606EA85152C43848026
:101190008283CD88A0F84050038470BD828B4FF2CB
:1011A000FF331A408283828B4FF6FF7303EA0123D9
:1011B0001A4382837047F0B50C4615460022002181
:1011C0000026078C4EF6FF7C07EA0C070784828B0B
:1011D000018C4FF6FF7707EA043640F6FF473A40A6
:1011E0004FF6FF7707EA05273A434FF6FF7707EAFE
:1011F00003373A43D94FB8420ED0D94FB8420BD03B
:10120000B0F1804F08D0D74FB84205D0D64FB84282
:1012100002D0D64FB84206D14DF6FF77394046F49A
:101220008057394305E047F6FF57394044F480576B
:10123000394382830184F0BD828B4FF6F3731A40E9
:101240008283828B0A4382837047F0B50C46154631
:10125000002200210026078C4FF6FF6C07EA0C07DE
:101260000784828B018C4FF6FF7707EA04264FF63E
:101270000C773A404FF6FF7707EA03172F433A43BC
:10128000B64FB8420ED0B64FB8420BD0B0F1804F37
:1012900008D0B44FB84205D0B34FB84202D0B34FD4
:1012A000B84206D14FF6FF57394046F480773943AC
:1012B00005E04FF2FF57394044F480773943828389
:1012C0000184F0BD028B4FF2FF331A400283028B80
:1012D0004FF6FF7303EA01231A4302837047F0B508
:1012E0000C461546002200210026078C4FF6EF7CA5
:1012F00007EA0C070784028B018C4FF6FF7707EA99
:10130000041640F6FF473A404FF6FF7707EA0337E7
:101310003A434FF6FF7707EA05273A438F4FB84223
:101320000ED08F4FB8420BD0B0F1804F08D08D4F08
:10133000B84205D08C4FB84202D08C4FB84206D18B
:101340004FF6DF77394046F01007394305E04FF696
:101350005F77394044F01007394302830184F0BDC0
:10136000028B4FF6F3731A400283028B0A43028307
:101370007047F0B50C46154600220021068C4FF64A
:10138000FE773E400684028B018C4FF60C7632408D
:101390007E1C06EA03162E433243704EB0420ED036
:1013A0006F4EB0420BD0B0F1804F08D06D4EB042BE
:1013B00005D06D4EB04202D06C4EB04206D14FF611
:1013C000FD76314044F00106314305E04FF6F576F5
:1013D000314044F00106314302830184F0BD70B511
:1013E00005460C465D4885420ED05D4885420BD0CF
:1013F000B5F1804F08D05B48854205D05A488542F8
:1014000002D05A48854200D100E000BF208850B980
:101410002389A28861882846FFF7ABFFE188284628
:10142000FFF79EFF25E0208804280AD12389A2889F
:1014300061882846FFF753FFE1882846FFF742FFFF
:1014400017E0208808280AD12389A28861882846C5
:10145000FFF7FBFEE1882846FFF7EEFE09E023894F
:10146000A28861882846FFF7A6FEE1882846FFF794
:1014700095FE70BD2DE9F04105460C46002601277A
:10148000608808B9022600E00026A088012801D162
:10149000022700E001272088A0B92389A28861885B
:1014A0002846FFF766FFE1882846FFF759FF2389A2
:1014B0003A4631462846FFF712FFE1882846FFF7F3
:1014C00001FF13E02389A28861882846FFF707FF00
:1014D000E1882846FFF7F6FE23893A46314628463A
:1014E000FFF747FFE1882846FFF73AFFBDE8F081A4
:1014F0000A884B881A438B881A43CB881A430B8976
:101500001A434B891A438B891A43A0F84420704729
:101510004FF6FF71818000210180C18041800172FE
:1015200070470021018041808180C180018141811B
:101530008181C1817047002101804180012181802A
:101540000021C1800181704700210180418081809C
:10155000C18001814181818170470000002C0140E0
:10156000003401400004004000080040000C00402E
:1015700021B1028842F00102028004E002884FF6A5
:10158000FE731A400280704731B1B0F8442042F433
:101590000042A0F8442005E0B0F84420C2F30E0257
:1015A000A0F8442070471AB183890B43838102E07D
:1015B00083898B43838170478182704741EA0203AC
:1015C000A0F8483070471AB183890B43838102E049
:1015D00083898B438381704701894FF6F8721140EC
:1015E000018170470A46002101894FF68F73194027
:1015F00011430181704730B504460D462946204607
:10160000FFF7F0FF208940F00700208130BD2DE971
:10161000F04104460D4616461F46602D06D13B4656
:10162000012231462046FFF75AFE05E03B460122E3
:1016300031462046FFF79DFE29462046FFF7D2FFA0
:10164000208940F007002081BDE8F08130B50C46CC
:1016500000210189C9B24FF6FF7505EA032515433C
:1016600025432943018130BD2DE9F04105460E4651
:1016700017469846002443463A4631462846FFF727
:10168000E5FF2C894FF6F870044044F007044FF64C
:101690008F70044044F070042C81BDE8F081F0B5F7
:1016A00004460D4616461F463B463246294620460E
:1016B000FFF7CCFF208940F480402081F0BD0185F8
:1016C000828270470A46002101884FF68F731940C5
:1016D000114301807047F0B50C4615461E460021A7
:1016E000002200230189028B038C4FF6F8773940E2
:1016F00021434FF6FC473A4040F201173A434FF678
:10170000DD773B404FF6FF7707EA06172F433B4351
:10171000018102830384F0BD0A460021018B4FF64C
:101720008F7319401143018370470A460021018BD2
:1017300048F6FF7319404FF6FF7303EA022319437B
:10174000018370470A460021818B4FF68F73194041
:101750001143818370470A460021818B48F6FF734D
:1017600019404FF6FF7303EA022319438183704740
:1017700021B1028842F08002028004E002884FF624
:101780007F731A400280704721B1828842F00402C0
:10179000828004E082884FF6FB731A408280704793
:1017A00021B1828842F00802828004E082884FF6EC
:1017B000F7731A408280704721B1828842F001029B
:1017C000828004E082884FF6FE731A408280704760
:1017D0000A460021018B4FF6F7731940114301832C
:1017E00070470A460021018B4FF2FF7319404FF6F4
:1017F000FF7303EA02231943018370470A4600215D
:10180000818B4FF6F77319401143818370470A4665
:101810000021818B4FF2FF7319404FF6FF7303EAEB
:1018200002231943818370470A460021018B4FF63A
:10183000FB7319401143018370470A460021018B55
:101840004FF6FF3319404FF6FF7303EA02231943A3
:10185000018370470A460021818B4FF6FB731940C4
:101860001143818370470A460021818B4FF6FF3375
:1018700019404FF6FF7303EA02231943818370472F
:101880000A460021018B4FF67F73194011430183F3
:1018900070470A460021018BC1F30E014FF6FF731A
:1018A00003EA02231943018370470A460021818B12
:1018B0004FF67F7319401143818370470A46002118
:1018C000818BC1F30E014FF6FF7303EA0223194324
:1018D000818370470A460021018C4FF6FD73194041
:1018E0001143018470470A460021018C4FF6F773BB
:1018F00019401143018470470A460021018C4FF6BC
:10190000DF7319404FF6FF7303EA02131943018492
:1019100070470A460021018C4FF67F7319404FF63D
:10192000FF7303EA02131943018470470A4600213A
:10193000018C4FF6FF5319404FF6FF7303EA022361
:101940001943018470470A460021018C4FF2FF734E
:1019500019404FF6FF7303EA0223194301847047CD
:101960000A460021018C4DF6FF7319404FF6FF73B4
:1019700003EA023319430184704730B50023012480
:101980008C40A3B2048C9C430484048C02FA01F5BD
:10199000ADB22C43048430BD30B5002304248C4008
:1019A000A3B2048C9C430484048C02FA01F5ADB20A
:1019B0002C43048430BD70B5034600200024184633
:1019C000183001258D40ACB21D8CA5431D8409B192
:1019D000082909D100EB6100056825F07005056054
:1019E0000568154305600EE00D1FC5F34E0528443C
:1019F000056825F4E045056005684FF6FF7606EAC0
:101A000002263543056070BD21B1028842F0020212
:101A1000028004E002884FF6FD731A40028070478E
:101A200021B1028842F00402028004E002884FF6ED
:101A3000FB731A400280704721B1828842F0800215
:101A4000828004E082884FF67F731A40828070475C
:101A500002884FF6F7731A40028002880A43028018
:101A6000704782884FF68F731A40828082880A43BB
:101A70008280704702894FF6F8731A40028102890A
:101A80000A430281704702894FF67F731A40028130
:101A900002890A43028170478184704781857047BB
:101AA000818670470187704781877047A0F8401092
:101AB000704702884FF6FF431A40028002880A43AB
:101AC000028070470146888E70470146088F704734
:101AD0000146888F70470146B1F8400070470146C3
:101AE000888C70470146088D704702460020138A93
:101AF0000B400BB1012000E000207047CA43028276
:101B0000704730B50246002000230024158A05EAFC
:101B10000103958905EA010413B10CB1012000E02D
:101B2000002030BDCA4302827047000010B5044651
:101B3000FB48844209D101218803FFF79FF8002167
:101B40004FF48040FFF79AF832E0F648844209D11A
:101B500001214804FFF79FF800214FF40030FFF700
:101B60009AF825E0F048844209D101218804FFF762
:101B700092F800214FF48020FFF78DF818E0EB4831
:101B8000844209D10121C804FFF785F800214FF4F0
:101B90000020FFF780F80BE0E548844208D10121DE
:101BA0000805FFF778F800214FF48010FFF773F86D
:101BB00010BD2DE9F04786B005460E460024A2462A
:101BC00000BFA1460027B08900B100BF2F462C8A74
:101BD0004CF6FF700440F08804432C82AC894EF62A
:101BE000F3100440B08831890843718908430443E5
:101BF000AC81AC8A4FF6FF400440B0890443AC820C
:101C000001A8FEF7B4FFC648874202D1DDF810A054
:101C100001E0DDF80CA0A88900F4004040B10AEB17
:101C2000CA0000EB0A1031684900B0FBF1F807E088
:101C30000AEBCA0000EB0A1031688900B0FBF1F82A
:101C40006420B8FBF0F004012009642101FB108935
:101C5000A88900F4004040B1322000EBC900B0FB7D
:101C6000F1F000F00700044308E0322000EB091017
:101C70006421B0FBF1F000F00F0004432C8106B0AA
:101C8000BDE8F0874FF41651016000218180C180CA
:101C900001810C21418100218181704710B50246EC
:101CA0000020108A4FF2FF0318400B884C88234312
:101CB0008C882343CC8823431843108210BD002115
:101CC000018041808180C180704721B1828942F4C6
:101CD0000052828104E082894DF6FF731A408281AE
:101CE0007047F0B50346002400260025002040F68A
:101CF0006A17B94200D100BF1846C1F3421401F07F
:101D00001F06012707FA06F5012C01D10C3004E06B
:101D1000022C01D1103000E014301AB107682F43B3
:101D2000076002E00768AF430760F0BD1AB1838A1D
:101D30000B43838202E0838A8B4383827047028A4B
:101D40004FF6F0731A400282028A0A4302827047F9
:101D500082894FF2FF731A40828182890A4382810D
:101D6000704721B1828942F00202828104E08289B7
:101D70004FF6FD731A4082817047028A4FF6DF7377
:101D80001A400282028A0A430282704721B1028A03
:101D900042F48042028204E0028A4BF6FF731A404A
:101DA00002827047C1F3080282807047014688882A
:101DB000C0F308007047818941F0010181817047BB
:101DC000028BD2B20283028B42EA01220283704765
:101DD000028B02F47F420283028B0A430283704724
:101DE00021B1828A42F02002828204E0828A4FF688
:101DF000DF731A408282704721B1828A42F010025A
:101E0000828204E0828A4FF6EF731A408282704722
:101E100021B1828A42F00802828204E0828A4FF66F
:101E2000F7731A408282704721B1828942F40042DE
:101E3000828103E08289C2F30E028281704721B160
:101E4000828A42F40062828204E0828A4FF2FF7347
:101E50001A4082827047828A4FF6FB731A40828250
:101E6000828A0A438282704721B1828A42F002024A
:101E7000828204E0828A4FF6FD731A4082827047A4
:101E800002460020B1F5007F00D100BF13880B404F
:101E90000BB1012000E00020704701F40072B2F5A0
:101EA000007F00D100BFCA430280704770B5024670
:101EB000002400230025002040F66A16B14200D11C
:101EC00000BFC1F3421501F01F03012606FA03F318
:101ED000012D02D19689334006E0022D02D1168AE7
:101EE000334001E0968A33400C12012606FA04F4CE
:101EF0001688344013B10CB1012000E0002070BD01
:101F000010B50022002340F66A14A14200D100BFA0
:101F10000A1201249440A3B2DC43048010BD0000E7
:101F2000003801400044004000480040004C0040A0
:101F30000050004010B56FF00400FEF74AFB2E4839
:101F400000682E49B0FBF1F02D4908700846007872
:101F500000EB4001C1EBC0104FF6FF7101EAC00079
:101F60002849088010BD0146254A12784A434FF09F
:101F7000E0235A6100229A611A46126942F0010276
:101F80001A6100BF4FF0E022106900F001021AB19F
:101F900000F48032002AF5D04FF0E022126922F0DE
:101FA00001024FF0E0231A6100229A617047014656
:101FB000144A12884A434FF0E0235A6100229A6182
:101FC0001A46126942F001021A6100BF4FF0E02286
:101FD000106900F001021AB100F48032002AF5D035
:101FE0004FF0E022126922F001024FF0E0231A6163
:101FF00000229A61704700000800002000127A0059
:102000003000002032000020014600BF704700BFB2
:102010005B4A128802F04002002AF9D0C2B2584B43
:102020001B1D1A80704710B586B00446012144F28A
:102030000400FEF709FE4FF40070ADF81400032011
:102040008DF8160018208DF8170005A94D48FEF7E9
:102050003FFB4FF48060ADF8140004208DF81700AA
:1020600005A94848FEF734FB25208DF80000012023
:102070008DF801008DF802008DF803006846FEF728
:102080005EFA01940020ADF80800ADF80A00ADF842
:102090000C00ADF810000C20ADF80E0001A9384876
:1020A000FFF787FD012240F225513548FFF719FE61
:1020B00001213348FFF709FE06B010BD10B540F20C
:1020C00025512F48FFF7F2FE002857D02C48FFF784
:1020D0006DFEC4B22C48008800F40050002845D0A2
:1020E0002948008800F48050B0B32748008800F4E5
:1020F0000040002842D12448008800F4804060B1AC
:102100000A2C03D000202049088037E01E480088B0
:1021100040F400401C49088030E00D2C06D11A48DC
:10212000008840F480401849088027E0164800885D
:10213000C0F30B0015490C5413480088401C124989
:1021400008800846008843F2C701884216DD4FF434
:1021500040500D49088011E0FFE7422C0ED10A489B
:10216000008840F480500849088007E0412C05D1E0
:102170000548008840F400500349088010BD000065
:10218000003801400008014038000020C40200204F
:1021900070B504460E4626B10821FA48FEF745FB05
:1021A00003E00821F748FEF742FB0221F548FEF75D
:1021B0003EFB002517E02021F348FEF738FB04F032
:1021C000800020B10121EF48FEF72FFB03E0012141
:1021D000EC48FEF72CFB2021EB48FEF726FB6006BF
:1021E000040E681CC5B2082DE5DB0221E548FEF7A8
:1021F0001CFB0821E348FEF718FB70BD70B50446D0
:102200000E4626B10821DF48FEF70FFB03E0082148
:10221000DC48FEF70CFB0221DA48FEF708FB00253C
:1022200017E02021D848FEF702FB04F0800020B11F
:102230000121D448FEF7FBFA03E00121D148FEF763
:10224000F4FA2021D048FEF7F0FA6006040E681C6C
:10225000C5B2082DE5DB0221CA48FEF7E6FA0821DF
:10226000C848FEF7E2FA70BD70B504460D4605F1A8
:10227000B001C8B20021FFF78BFF102141EA141012
:102280000021FFF785FF04F00F0141F0010000215C
:10229000FFF77EFF70BD10B500218D20FFF778FF9E
:1022A00000211420FFF774FF0021AF20FFF770FF1B
:1022B00010BD10B500218D20FFF76AFF002110200E
:1022C000FFF766FF0021AE20FFF762FF10BD70B57B
:1022D000002419E004F1B001C8B20021FFF758FF53
:1022E00000210846FFF754FF00211020FFF750FFA0
:1022F000002505E001210020FFF74AFF681CC5B258
:10230000802DF7DB601CC4B2082CE3DB70BDF0B598
:10231000144600267F2801DC3F2900DDF0BD0B4676
:10232000CF1701EB5777FF10C7F10707FAB2CF17A6
:1023300001EB5777FF10A1EBC707FDB2C5F1070707
:102340000123BB40DEB24CB1904B03EBC0039B5C5E
:1023500033438E4F07EBC007BB5408E08B4B03EBB6
:10236000C0039B5CB343894F07EBC007BB5400BF5E
:10237000D4E770B500241CE004F1B001C8B200211C
:10238000FFF706FF00210846FFF702FF002110209B
:10239000FFF7FEFE002508E07C4901EBC501085D62
:1023A0000121FFF7F5FE681CC5B2802DF4DB601C2F
:1023B000C4B2082CE0DB70BD2DE9F04106460C46A6
:1023C00017464FF000080025A7F1200000F0FF0895
:1023D0007F2E02DD0026A01CC4B2601CC1B23046B4
:1023E000FFF742FF00250AE008EB4801684A02EBCC
:1023F0004101485D0121FFF7CBFE681CC5B2062DE7
:10240000F2DBBDE8F0812DE9F04106460C461746A7
:102410004FF000080025A7F1200000F0FF087F2EF4
:1024200002DD0026A01CC4B2601CC1B23046FFF71A
:102430001BFF00250AE008EB4801554A02EB410169
:10244000485D0121FFF7DAFE681CC5B2062DF2DBFC
:10245000BDE8F08110B50246012000E050430B00BA
:10246000A1F10104E1B2F9D110BD2DE9FF5F0746EA
:1024700091461D460E9E4FF0000A002433E0281BB3
:10248000401EC1B20A20FFF7E5FFB9FBF0F00A21B8
:10249000B0FBF1F201FB1208BAF1000F13D1681E74
:1024A000A04210DDB8F1000F0BD1B34606EBDB7193
:1024B000491001FB0471C8B220220199FFF77CFF8B
:1024C0000FE04FF0010AB34606EBDB71491001FB48
:1024D0000471C8B208F13001CAB20199FFF76CFF6C
:1024E00000BF601CC4B2AC42C9DBBDE8FF9F2DE950
:1024F000F04104460F46154600260EE0AA5D394617
:102500002046FFF759FF04F10800C4B2782C02DD21
:102510000024B81CC7B2701CC6B2A85D0028EDD15B
:10252000BDE8F0812DE9F041064606241949304600
:1025300007F00CFB074607F06DFA054600BF0AE0FE
:102540000A2095FBF0F100FB115000B105E00A20D4
:1025500095FBF0F5641E002CF2DC00BF2046BDE8C0
:10256000F08170B506460024304607F053FA054660
:1025700000BF641C0A2095FBF0F5002DF9DC204615
:1025800070BD000000180140000801408C030020CD
:10259000369F0008002474492DE9F74F8CB083461C
:1025A0009046FEA207CA08AB07C30020059006901C
:1025B000079000240026049081460027824600BF31
:1025C00003E0202005A90855641C0A2CF9DB4046CD
:1025D000FFF7C7FF07464046FFF7A4FF824607EB19
:1025E0000A09504606F057FD02460B46CDE90001A8
:1025F0000020ED4905F0D8FDCDE9020106F0D6FA3C
:1026000004904046049907F0A1FA039007F002FAFB
:10261000054600242BE0A9F10101081B06F03BFD53
:1026200002460B46CDE900010020DF4905F0BCFD64
:10263000CDE9020106F000FD0646BC4202D12E2083
:1026400005A90855BC4207DB95FBF6F008A9095C13
:1026500005AA601C115405E095FBF6F008A9085C7A
:1026600005A9085595FBF6F000FB1655641C4C4572
:10267000D1DB05AA58460D99FFF739FF0FB0BDE829
:10268000F08F2DE9FF5F074691461D460E9E4FF0E5
:10269000000A002433E0281B401EC1B20A20FFF7C5
:1026A000D9FEB9FBF0F00A21B0FBF1F201FB1208F0
:1026B000BAF1000F13D1681EA04210DDB8F1000F6F
:1026C0000BD1B34606EBDB71491001FB0471C8B2B4
:1026D00020220199FFF797FE0FE04FF0010AB34661
:1026E00006EBDB71491001FB0471C8B208F130013F
:1026F000CAB20199FFF787FE00BF601CC4B2AC42AA
:10270000C9DBBDE8FF9F2DE9F04104460F461546A1
:1027100000260EE0AA5D39462046FFF774FE04F15C
:102720000800C4B2782C02DD0024B81CC7B2701CAB
:10273000C6B2A85D0028EDD1BDE8F0812DE9F041D9
:1027400080460E461546002731464046FFF78CFD71
:1027500000240AE0954A02EB8511085D0121FFF78C
:1027600017FD781CC7B2601CC4B2102CF2DB701CC1
:10277000C1B24046FFF778FD00240CE06900491C17
:102780008A4A02EB4111085D0121FFF701FD781C27
:10279000C7B2601CC4B2102CF0DBBDE8F0812DE99B
:1027A000F04180460E461546002731464046FFF769
:1027B0005BFD00240AE07D4A02EB8511085D0121E2
:1027C000FFF71CFD781CC7B2601CC4B2102CF2DBF2
:1027D000701CC1B24046FFF747FD00240CE06900C1
:1027E000491C724A02EB4111085D0121FFF706FD09
:1027F000781CC7B2601CC4B2102CF0DBBDE8F081BD
:102800002DE9F05F06460F4690461C46DDF828A0ED
:102810004FF0000BE11704EB5171C910A4EBC1019B
:1028200031B92046E11704EB5171C1F3C70506E049
:102830002046E11704EB5171C910491CCDB23D4649
:1028400015E029463046FFF70FFDB1460BE059462B
:102850000BF1010B1AF801000121FFF799FC09F1B6
:10286000010000F0FF09C145F1DB681CC5B2A542BB
:10287000E7DBBDE8F09F08B501210420FEF7E4F98D
:102880002020ADF8000010208DF8030003208DF803
:10289000020069464648FDF71BFF20214448FDF72A
:1028A000C4FF01214020FEF7CFF90F20ADF8000052
:1028B00010208DF8030003208DF8020069463D4882
:1028C000FDF706FF0F213B48FDF7AFFF0421394814
:1028D000FDF7ABFF6420FFF76AFB04213548FDF7E5
:1028E000A6FFC820FFF763FB04213248FDF79DFFD8
:1028F0000021AE20FFF74CFC00210846FFF748FC02
:1029000000211020FFF744FC00214020FFF740FC8D
:1029100000218120FFF73CFC0021CF20FFF738FC8D
:102920000021A120FFF734FC0021C820FFF730FC74
:102930000021A620FFF72CFC0021A820FFF728FC8F
:1029400000213F20FFF724FC0021D320FFF720FCCB
:1029500000210846FFF71CFC0021D520FFF718FCDA
:1029600000218020FFF714FC0021D920FFF710FC84
:102970000021F120FFF70CFC0021DA20FFF708FC12
:1029800000211220FFF704FC0021DB20FFF700FCF0
:1029900000214020FFF7FCFB00210DE030313233F5
:1029A0003435363738390000000024403A00002022
:1029B00000080140001801402020FFF7E9FB00213A
:1029C0000220FFF7E5FB00218D20FFF7E1FB00214E
:1029D0001420FFF7DDFB0021A420FFF7D9FB002125
:1029E000A620FFF7D5FB0021AF20FFF7D1FB002188
:1029F000AF20FFF7CDFBFFF76AFC00210846FFF789
:102A000033FC08BD30B589B005460C4601210220D3
:102A1000FEF727F901210420FEF716F9012108200D
:102A2000FEF712F9C020ADF8200018208DF8230021
:102A300003208DF8220008A92048FDF749FE012057
:102A4000ADF8200018208DF8230003208DF8220017
:102A500008A91B48FDF73CFEADF81850ADF814402E
:102A60000020ADF8160005A91648FEF725FA6020EB
:102A7000ADF804000120ADF806000020ADF80C0010
:102A800001A91048FEF755FA01A90E48FEF793FA7E
:102A900001A90C48FEF7DCFA08210A48FEF798FE67
:102AA00008210848FEF79DFE08210648FEF7A6FE0D
:102AB00001210448FEF75CFD09B030BD000801406B
:102AC000000C0140000400407FB505460C46012182
:102AD0000420FEF7C6F8ADF80850ADF80440002019
:102AE000ADF80A00ADF8060001A9FD48FEF7E4F9CB
:102AF00001221146FA48FEF756FD1E208DF800000F
:102B000002208DF8010003208DF8020001208DF8CD
:102B100003006846FDF713FD0121F148FEF728FD8B
:102B20007FBD00B587B00121ED48FEF7EAFF002820
:102B300001F00582EB480078012804D1EA480068DA
:102B4000401CE9490860E948007860B9E848018814
:102B5000E848FEF7A5FFE8480188E648FEF7A2FF2F
:102B60000020E0490870E1480078012865D1E34879
:102B7000B0F91000019006F089FF029001F000FA10
:102B80000490DB48008806F099FF0390049906F052
:102B900011FE059006F05AFF80B201460690D54816
:102BA000FEF77EFFD548B0F91200019006F06EFFE7
:102BB000029001F068FA0490CF48008806F07EFF8A
:102BC0000390049906F0F6FD059006F03FFF80B2F1
:102BD00001460690C748FEF765FFC949C948006825
:102BE00006F080FF23D8C849C648006807F07AF885
:102BF0001DD8C549C548006807F074F817D8C04902
:102C0000C248006806F06EFF11D8C1480088401C19
:102C100000B2BF4908800846B0F90000FA280CDB72
:102C20000020B0490870FA20B949088005E000206A
:102C3000B74908800120AB490870AC4800780228E9
:102C400070D1B449AF48006806F04CFF15D8B249BE
:102C5000AC48006807F046F80FD8AF49AB480068A9
:102C600007F040F809D8AB49A848006806F03AFFD9
:102C700003D80120A949088005E00020A749088061
:102C8000012098490870A548008801280ED1A44861
:102C90000088401C00B2A24908800846B0F9000034
:102CA000B0F5C87F02DB4FF4C87008809C48B0F9CB
:102CB0000000B0F5967F36DC9048B0F90C0001902A
:102CC00006F0E4FE029001F05BF904908848008869
:102CD00006F0F4FE0390049906F06CFD059006F0F2
:102CE000B5FE80B2014606908248FEF7D9FE8348C1
:102CF000B0F90E00019006F0C9FE029001F0C3F990
:102D000004907D48008806F0D9FE0390049906F0EF
:102D100051FD059006F09AFE80B201460690754876
:102D2000FEF7C0FE65E07548B0F91000019006F0AE
:102D3000ADFE029001F024F904906D48008806F081
:102D4000BDFE0390049906F035FD059006F07EFE69
:102D500080B2014606906748FEF7A2FE6748B0F9C8
:102D60001200019006F092FE029001F08CF904909E
:102D70006148008806F0A2FE0390049906F01AFD4F
:102D8000059006F063FE80B2014606905948FEF7B2
:102D900089FE60495B48006806F0A4FE23D85E49BE
:102DA0005848006806F09EFF1DD85B4957480068E8
:102DB00006F098FF17D857495448006806F092FE6D
:102DC00011D853480088401C00B251490880084679
:102DD000B0F90000C8280CDB002042490870C82068
:102DE0004B49088005E000204949088001203D4901
:102DF00008703E480078032871D14A480088A8BB73
:102E00003E48B0F92400019006F040FE029001F027
:102E1000B7F804903648008806F050FE03900499F5
:102E200006F0C8FC059006F011FE80B2014606903F
:102E30003048FEF735FE3148B0F92600019006F023
:102E400025FE029001F01FF904902B48008806F03F
:102E500035FE0390049906F0ADFC059006F0F6FDF2
:102E600080B2014606902348FEF71CFE2D480088DC
:102E700001285BD12148B0F92C00019006F006FE34
:102E8000029001F07DF804901948008806F016FEC3
:102E90000390049906F08EFC059006F0D7FD80B2F1
:102EA000014606901348FEF7FBFD1448B0F92E00CA
:102EB000019006F0EBFD029001F0E5F804900E4859
:102EC000008806F0FBFD0390049906F073FC059062
:102ED00006F0BCFD80B201460690064824E0FCE006
:102EE00000080040FC010020000200200602002033
:102EF0005E02002000040040600200200802002062
:102F00000000204164020020000020C18002002057
:102F10000402002000004040000040C03E020020AB
:102F20003C02002040020020FEF7BCFDFA48008869
:102F3000022835D1F948B0F93000019006F0A6FD1D
:102F4000029001F01DF80490F548008806F0B6FDE7
:102F50000390049906F02EFC059006F077FD80B2F0
:102F600001460690EF48FEF79BFDEC48B0F93200B1
:102F7000019006F08BFD029001F085F80490EA487C
:102F8000008806F09BFD0390049906F013FC059061
:102F900006F05CFD80B201460690E248FEF782FD35
:102FA000DD480088032865D1DC48B0F92000019095
:102FB00006F06CFD029000F0E3FF0490D848008812
:102FC00006F07CFD0390049906F0F4FB059006F0F2
:102FD0003DFD80B201460690D248FEF761FDCF4824
:102FE000B0F92200019006F051FD029001F04BF87B
:102FF0000490CD48008806F061FD0390049906F026
:10300000D9FB059006F022FD80B201460690C54826
:10301000FEF748FDC549C648006806F063FD23D8A1
:10302000C449C348006806F05DFE1DD8C149C248C6
:10303000006806F057FE17D8BC49BF48006806F084
:1030400051FD11D8BD480088401C00B2BB49088022
:103050000846B0F90000C8280CDB0020B849087009
:10306000C820B649088005E00020B4490880012046
:10307000B3490870B349AE48006806F033FD2DD857
:10308000B149AB48006806F02DFE27D8AE49AA48E2
:10309000006806F027FE21D8AA49A748006806F074
:1030A00021FD1BD8A9480088401C00B2A749088010
:1030B0000846B0F90000642816DB97480088401CD9
:1030C00000B2954908800846B0F90000032801DBEA
:1030D0000320088064209D49088005E000209B496A
:1030E00008800120964908709948007804287DD10D
:1030F00098480088A8BB8948B0F90400019006F000
:10310000C5FC029000F03CFF04908548008806F062
:10311000D5FC0390049906F04DFB059006F096FC53
:1031200080B2014606907F48FEF7BAFC7B48B0F9B2
:103130000600019006F0AAFC029000F0A4FF0490A3
:103140007948008806F0BAFC0390049906F032FB37
:10315000059006F07BFC80B2014606907148FEF7B0
:10316000A1FC7C480088012835D16C48B0F91400D6
:10317000019006F08BFC029000F002FF049068487A
:10318000008806F09BFC0390049906F013FB059061
:1031900006F05CFC80B2014606906248FEF780FCB7
:1031A0005E48B0F91600019006F070FC029000F045
:1031B0006AFF04905C48008806F080FC0390049944
:1031C00006F0F8FA059006F041FC80B20146069040
:1031D0005448FEF767FC5F480088022867D14F48D3
:1031E000B0F92000019006F051FC00E092E002905E
:1031F00000F0C6FE04904A48008806F05FFC039089
:10320000049906F0D7FA059006F020FC80B201463A
:1032100006904448FEF744FC4048B0F92200019073
:1032200006F034FC029000F02EFF04903E48008827
:1032300006F044FC0390049906F0BCFA059006F0F1
:1032400005FC80B2014606903648FEF72BFC374954
:103250003748006806F046FC23D8364934480068F1
:1032600006F040FD1DD833493348006806F03AFDAA
:1032700017D82E493048006806F034FC11D82F4882
:103280000088401C00B22D4908800846B0F90000B3
:10329000C8280CDB00202A490870C820274908806C
:1032A00005E00020254908800120254908702549AE
:1032B0001F48006806F016FC50D823491C480068D7
:1032C00006F010FD4AD820491B48006806F00AFDA8
:1032D00044D81C491848006806F004FC3ED81E4833
:1032E0000088401C00B21C4908800846B0F9000064
:1032F000C82839DB17480088401C00B215490880EF
:103300000846B0F90000022801DB02200880C8202E
:103310001149088028E00000400200200802002037
:103320005E020020000400406002002000004040D7
:1033300064020020000040C080020020040200203F
:10334000FC01002000002041000020C142020020BA
:103350000602002044020020460200200020FE4910
:1033600008800120FD490870FD48007805287CD1BF
:10337000FC48008858B1FB480088042807D0F94869
:103380000088082803D0F74800880C2835D1F64873
:10339000B0F92400019006F079FB029000F0F0FDF6
:1033A0000490F248008806F089FB0390049906F027
:1033B00001FA059006F04AFB80B201460690EC48FF
:1033C000FEF76EFBE848B0F92600019006F05EFBC0
:1033D000029000F058FE0490E648008806F06EFB6C
:1033E0000390049906F0E6F9059006F02FFB80B2F1
:1033F00001460690DE48FEF755FBDA4800880128B2
:103400000BD0D8480088052807D0D648008809285E
:1034100003D0D44800880D2837D1D348B0F928000C
:10342000019006F033FB029000F0AAFD0490CF4813
:10343000008806F043FB0390049906F0BBF9059061
:1034400006F004FB80B201460690C948FEF728FB4F
:10345000C548B0F92A00019006F018FB029000F070
:1034600012FE0490C348008800E033E106F026FB1A
:103470000390049906F09EF9059006F0E7FA80B2F1
:1034800001460690BA48FEF70DFBB64800880228B0
:103490000BD0B4480088062807D0B24800880A2814
:1034A00003D0B04800880E2835D1AF48B0F93000BD
:1034B000019006F0EBFA029000F062FD0490AB4838
:1034C000008806F0FBFA0390049906F073F9059062
:1034D00006F0BCFA80B201460690A548FEF7E0FA75
:1034E000A148B0F93200019006F0D0FA029000F045
:1034F000CAFD04909F48008806F0E0FA0390049902
:1035000006F058F9059006F0A1FA80B2014606903F
:103510009748FEF7C7FA93480088032807D09148D8
:103520000088072803D08F4800880B2835D18E48A3
:10353000B0F92C00019006F0A9FA029000F020FDED
:1035400004908A48008806F0B9FA0390049906F0BE
:1035500031F9059006F07AFA80B201460690844867
:10356000FEF79EFA8048B0F92E00019006F08EFA20
:10357000029000F088FD04907E48008806F09EFAD4
:103580000390049906F016F9059006F05FFA80B2F0
:10359000014606907648FEF785FA724800880F28A3
:1035A00065D17148B0F92000019006F06FFA0290E1
:1035B00000F0E6FC04906D48008806F07FFA039066
:1035C000049906F0F7F8059006F040FA80B201463B
:1035D00006906748FEF764FA6348B0F9220001904C
:1035E00006F054FA029000F04EFD04906148008805
:1035F00006F064FA0390049906F0DCF8059006F0F2
:1036000025FA80B2014606905948FEF74BFA5A490E
:103610005A48006806F066FA23D8594957480068A6
:1036200006F060FB1DD856495648006806F05AFB64
:1036300017D851495348006806F054FA11D8524837
:103640000088401C00B2504908800846B0F90000CC
:10365000C8280CDB002041490870C8204A4908806E
:1036600005E000204849088001203C49087047498E
:103670004248006806F036FA2DD845493F480068B0
:1036800006F030FB27D842493E48006806F02AFB86
:1036900021D83E493B48006806F024FA1BD83D4833
:1036A0000088401C00B23B4908800846B0F9000081
:1036B000322816DB2B480088401C00B229490880BC
:1036C0000846B0F900000F2801DB0F2008803220E7
:1036D0003049088005E000202E49088001201F495C
:1036E00008701F480078062866D12B4800880128FA
:1036F0007CD12A4801782A48007804F030F900206B
:10370000284908705AE00020274908701BE0274824
:103710002449097800EBC1002349097830F82100D9
:1037200000B22349B1F900101E4A12781144214A0F
:1037300002EB81011C4A127821F812001A48007825
:10374000401C19490870184800780228DFDB15482A
:103750000078401C134930E046020020FC010020A4
:103760000602002048020020080200205E0200201D
:10377000000400406002002000004040640200207D
:10378000000040C080020020040200200000204110
:10379000000020C14A0200204C0200205B020020F1
:1037A0005A02002057020020560200208408002000
:1037B000540200208C07002048E10870FE48007881
:1037C000FE49096888429EDBFC480088FC4909885C
:1037D000084400B2FA490880FA480178FA480078AB
:1037E00004F0BDF80020F449087029E07AE00020D8
:1037F000F64908701BE0F648EF49097800EBC10074
:10380000F249097830F8210000B2ED49B1F9001011
:10381000E94A12781144EF4A02EB8101EB4A12782F
:1038200021F81200E9480078401CE8490870E74890
:1038300000780228DFDBE0480078401CDE49087091
:10384000DD480078DD4909688842D0DBDB48008824
:10385000DB490988084400B2D9490880DE4801786C
:10386000D848007804F07BF80020D349087028E09D
:103870000020D64908701BE0D548CF49097800EBF5
:10388000C100D249097830F8210000B2CC49B1F921
:103890000010C94A12781144CE4A02EB8101CB4A8A
:1038A000127821F81200C9480078401CC7490870F6
:1038B000C64800780228DFDBBF480078401CBE49BC
:1038C0000870BD480078BD4909688842D0DBBB4814
:1038D0000088BB490988084400B2B9490880012022
:1038E000BE4908700020BE490880BA48BD49B1F9F8
:1038F000001030F92100019006F0C8F8029000F0A5
:103900003FFB0490B848008806F0D8F8039004996B
:1039100005F050FF059006F099F880B20146069038
:10392000B248FEF7BDF8AB48AE49B1F9001000EB64
:103930008100B0F90200019006F0A8F8029000F0B2
:10394000A2FB0490AA48008806F0B8F803900499F6
:1039500005F030FF059006F079F880B20146069038
:10396000A248FEF79FF89648B0F90000401E9D4916
:10397000B1F9001088422FD19E499F48006806F097
:10398000B1F823D89D499C48006806F0ABF91DD8D2
:103990009A499B48006806F0A5F917D895499848B8
:1039A000006806F09FF811D896480088401C00B2C5
:1039B000944908800846B0F90000C8280CDB0020B4
:1039C00086490870C8208F49088005E000208D498D
:1039D000088001208149087086498748006806F000
:1039E00081F834D885498448006806F07BF92ED8E0
:1039F00082498348006806F075F928D87D498048D7
:103A0000006806F06FF822D87F480088401C00B29A
:103A10007D4908800846B0F90000C8281ADB7148C3
:103A20000088401C00B26F4908800846B0F90000C9
:103A30006349B1F90010884205DB61480088401EE7
:103A400000B268490880C8206F49088002E0002061
:103A50006D4908806D48007807287DD16C48008842
:103A6000A8BB6C48B0F90400019006F00FF8029072
:103A700000F086FA04905C48008806F01FF8039076
:103A8000049905F097FE059005F0E0FF80B201462D
:103A900006905648FEF704F85E48B0F9060001901B
:103AA00005F0F4FF029000F0EEFA04905048008810
:103AB00006F004F80390049905F07CFE059005F0EB
:103AC000C5FF80B2014606904848FDF7EBFF50481D
:103AD0000088012835D14F48B0F91400019005F055
:103AE000D5FF029000F04CFA04903F48008805F0A2
:103AF000E5FF0390049905F05DFE059005F0A6FF33
:103B000080B2014606903948FDF7CAFF4148B0F936
:103B10001600019005F0BAFF029000F0B4FA04908C
:103B20003348008805F0CAFF0390049905F042FE6F
:103B3000059005F08BFF80B2014606902B48FDF7FB
:103B4000B1FF33480088022869D13248B0F910002B
:103B5000019005F09BFF00E0E6E1029000F010FA12
:103B600004902148008805F0A9FF0390049905F00E
:103B700021FE059005F06AFF80B2014606901B48C1
:103B8000FDF78EFF2348B0F91200019005F07EFF8B
:103B9000029000F078FA04901548008805F08EFF36
:103BA0000390049905F006FE059005F04FFF80B2E2
:103BB000014606900D4830E057020020C002002068
:103BC000540200205C0200205B020020560200200C
:103BD000840800208C0700205D020020FC010020EA
:103BE0004C020020580200205E0200200004004029
:103BF000600200200000204164020020000020C17B
:103C000080020020040200204E0200200602002054
:103C1000500200200802002001E0FDF743FFC948E0
:103C20000088032835D1C848B0F90C00019005F090
:103C30002DFF029000F0A4F90490C448008805F01C
:103C40003DFF0390049905F0B5FD059005F0FEFEDB
:103C500080B201460690BE48FDF722FFBA48B0F98F
:103C60000E00019005F012FF029000F00CFA049093
:103C7000B848008805F022FF0390049905F09AFDEA
:103C8000059005F0E3FE80B201460690B048FDF7CE
:103C900009FFAC480088042835D1AB48B0F91C00B6
:103CA000019005F0F3FE029000F06AF90490A74835
:103CB000008805F003FF0390049905F07BFD059053
:103CC00005F0C4FE80B201460690A148FDF7E8FE6B
:103CD0009D48B0F91E00019005F0D8FE029000F05A
:103CE000D2F904909B48008805F0E8FE03900499FF
:103CF00005F060FD059005F0A9FE80B20146069032
:103D00009348FDF7CFFE8F480088052835D18E48AF
:103D1000B0F91400019005F0B9FE029000F030F9FE
:103D200004908A48008805F0C9FE0390049905F0C4
:103D300041FD059005F08AFE80B201460690844858
:103D4000FDF7AEFE8048B0F91600019005F09EFE2A
:103D5000029000F098F904907E48008805F0AEFECD
:103D60000390049905F026FD059005F06FFE80B2E2
:103D7000014606907648FDF795FE724800880628B1
:103D800035D17148B0F91000019005F07FFE029026
:103D900000F0F6F804906D48008805F08FFE03905F
:103DA000049905F007FD059005F050FE80B201462C
:103DB00006906748FDF774FE6348B0F91200019061
:103DC00005F064FE029000F05EF9049061480088FE
:103DD00005F074FE0390049905F0ECFC059005F0E5
:103DE00035FE80B2014606905948FDF75BFE554806
:103DF0000088072865D15448B0F90C00019005F0FF
:103E000045FE029000F0BCF804905048008805F090
:103E100055FE0390049905F0CDFC059005F016FEC3
:103E200080B2014606904A48FDF73AFE4648B0F98E
:103E30000E00019005F02AFE029000F024F9049093
:103E40004448008805F03AFE0390049905F0B2FC5E
:103E5000059005F0FBFD80B2014606903C48FDF759
:103E600021FE3D493D48006805F03CFE23D83C4911
:103E70003A48006805F036FF1DD8394939480068CE
:103E800005F030FF17D834493648006805F02AFE9F
:103E900011D835480088401C00B2334908800846D4
:103EA000B0F9000096280CDB002030490870C820CB
:103EB0002D49088005E000202B49088001202B496E
:103EC00008702B492548006805F00CFE2DD82949BB
:103ED0002248006805F006FF27D8264921480068D7
:103EE00005F000FF21D822491E48006805F0FAFDC0
:103EF0001BD821480088401C00B21F490880084692
:103F0000B0F90000962816DB0E480088401C00B26D
:103F10000C4908800846B0F90000072801DB07209B
:103F2000088096201449088005E000201249088086
:103F300001200E49087001211048FDF7F3FD07B07C
:103F400000BD000050020020080200205E02002098
:103F50000004004060020020000040406402002095
:103F6000000040C08002002004020020FC0100206C
:103F700000002041000020C1520200200008004043
:103F80002DE9F04704468349B1F9000005F07EFDB4
:103F90000546214605F0D7FE7F4908607F48016845
:103FA0007F48006805F0D2FD07467E4801687A48E0
:103FB000006805F0D3FE81467B480168484605F05D
:103FC000C5FD0646744801687848006805F0BEFDE6
:103FD0008046314605F0EEFB0546394605F0EAFB22
:103FE00073490860734800680A2802DD002071499F
:103FF0000860694800686B496E4A126841F82200FF
:104000006C480068401C6B4908606B496248006856
:1040100005F068FD0ED269495F48006805F062FE50
:1040200008D25D4801685E48006805F0C3FB5C4942
:10403000086002E000205A4908604FF0814156486C
:10404000006805F04FFD08D85D495348006805F049
:1040500049FE02D80020564908605A495448006871
:1040600005F040FD02D8574851490860564950486C
:10407000006805F037FE02D853484D4908604C48A7
:104080000068BDE8F0872DE9F04704464149B1F9E1
:10409000020005F0FBFC0546214605F054FE4B49A5
:1040A00008604B4801684B48006805F04FFD074623
:1040B00049484A4A126850F822104448006805F0FE
:1040C0004DFE814646480168484605F03FFD0646DC
:1040D0003E4801684348006805F038FD8046314697
:1040E00005F068FB0546394605F064FB3E4908606B
:1040F0003A4800680A2802DD002038490860334841
:1041000001683548354A126840F822103348006883
:10411000401C3249086028492C48006805F0E2FC40
:104120000ED226492948006805F0DCFD08D2274850
:1041300001682848006805F03DFB2649086002E058
:104140000020244908604FF081412048006805F0B4
:10415000C9FC08D81A491D48006805F0C3FD02D8FB
:1041600000202149086017491F48006805F0BAFC83
:1041700002D814481C49086013491B48006805F020
:10418000B1FD02D810481849086017480068BDE81A
:10419000F087000000000020640200207002002070
:1041A0007C020020CC070020740200206C0200205A
:1041B000780200209C02002000000C4200000CC28B
:1041C000000080C0000048C3000048438002002077
:1041D0008C02002098020020F4070020A00200209A
:1041E00090020020880200209402002008B50121DE
:1041F0000420FCF729FD01213048FCF73AFB482058
:104200008DF803000220ADF8000069462C48FCF749
:104210005FFA48208DF803000420ADF800006946DD
:104220002748FCF755FA48208DF803000820ADF820
:10423000000069462248FCF74BFA48208DF803003D
:104240001020ADF8000069461D48FCF741FA08BD92
:1042500010B502211A48FCF7CEFA70B104211848B3
:10426000FCF7C9FA48B108211548FCF7C4FA20B197
:1042700010211348FCF7BFFAF0B91E20FDF797FE96
:1042800002210F48FCF7B7FA08B9012010BD04213C
:104290000B48FCF7B0FA08B90220F7E708210848F4
:1042A000FCF7A9FA08B90320F0E710210448FCF74D
:1042B000A2FA08B90420E9E70020E7E7000230008D
:1042C000000801402DE9F041FE48008880B9FFF761
:1042D000BFFF01280CD1FC480088401C00B2FA49FD
:1042E00008800846B0F90000072801DB002008809C
:1042F000F448008801287DD1F34800880028FAD1CD
:10430000FFF7A6FF01280CD1F0480088401C00B23E
:10431000EE4908800846B0F90000032801DB0020C0
:104320000880EA48008800BBFFF792FF022807D107
:10433000E7480168E748006805F03CFAE54908608D
:10434000FFF786FF032807D1E1480168E1480068CC
:1043500005F004FDDF4908600021DE48006805F033
:10436000C1FB02D80020DB490860D848008801283A
:1043700020D1FFF76DFF022807D1D7480168D74841
:10438000006805F017FAD5490860FFF761FF0328B8
:1043900007D1D1480168D148006805F0DFFCCF495A
:1043A00008600021CD48006805F09CFB02D8002081
:1043B000CA490860C5480088022822D1FFF748FF93
:1043C000022807D1C6480168C648006805F0F2F91E
:1043D000C4490860FFF73CFF032807D1C0480168C3
:1043E000C048006805F0BAFCBE4908600021BD481D
:1043F000006800E005E005F075FB02D80020B9492F
:104400000860B048008801287DD1AF4800880128A5
:1044100079D1FFF71DFF01280CD1AC480088401C62
:1044200000B2AA4908800846B0F90000032801DB61
:1044300000200880A548008800BBFFF709FF02287C
:1044400007D1A3480168A848006805F0B3F9A64958
:104450000860FFF7FDFE032807D19D480168A248C8
:10446000006805F07BFCA049086000219E480068B8
:1044700005F038FB02D800209B490860934800886B
:10448000012820D1FFF7E4FE022807D192480168F5
:104490009648006805F08EF994490860FFF7D8FE49
:1044A000032807D18C4801689048006805F056FC45
:1044B0008E49086000218D48006805F013FB02D882
:1044C00000208A49086081480088022822D1FFF72D
:1044D000BFFE022807D1824801688548006805F0C0
:1044E00069F983490860FFF7B3FE032807D17C48C8
:1044F00001687F48006805F031FC7D4908600021B3
:104500007B48006800E005E005F0ECFA02D80020E6
:10451000774908606B48008801287DD16A48008887
:104520000228FAD1FFF794FE01280CD167480088D1
:10453000401C00B2654908800846B0F90000032815
:1045400001DB002008806148008860BBFFF780FE27
:1045500002280DD15E48006805F000F90646654A5C
:10456000654B04F055FB044604F020FB58490860F5
:10457000FFF76EFE03280DD15548006805F0EEF8F0
:1045800006465C4A5C4B04F0FFFF044604F00EFB59
:104590004F49086000214E48006805F0A3FA02D890
:1045A00000204B4908604948008801282CD1FFF7BA
:1045B0004FFE02280DD14A48006805F0CFF80646A4
:1045C0004C4A4D4B04F024FB044604F0EFFA4449F6
:1045D0000860FFF73DFE03280DD14148006805F053
:1045E000BDF80646434A444B04F0CEFF044604F0AF
:1045F000DDFA3B49086000213948006805F072FA8D
:1046000002D80020364908603048008802282ED1A0
:10461000FFF71EFE022800E029E00DD12E480068B9
:1046200005F09CF80646334A334B04F0F1FA044691
:1046300004F0BCFA28490860FFF70AFE03280DD1F0
:104640002548006805F08AF806462A4A2A4B04F0F5
:104650009BFF044604F0AAFA1F49086000211E4887
:10466000006805F03FFA02D800201B490860154891
:10467000008801287ED1144800880428FAD1FFF769
:10468000E7FD01280CD111480088401C00B20F49F9
:1046900008800846B0F90000072801DB00200880E8
:1046A00016480078002866D10848008840B9FFF70E
:1046B000CFFD022804D1012010490870FDF707FE44
:1046C00002481DE0A6020020A4020020A80200204B
:1046D000AC0200206C020020B40200207002002016
:1046E000B002002074020020880200208C0200200A
:1046F000900200202D431CEBE2361A3F06020020F8
:10470000008801280AD1FFF7A3FD022806D1FE493F
:1047100008700020FD490880FDF7D9FDFC4800889D
:1047200002280BD1FFF794FD022807D10320F64998
:1047300008700020F7490880FDF7C9FDF44800889B
:1047400003280BD1FFF784FD022807D10420EE498E
:1047500008700020F0490880FDF7B9FDEC4800889A
:1047600004280ED1FFF774FD02280AD10520E6497E
:10477000087001E02AE02AE00020E8490880FDF7FF
:10478000A6FDE3480088052810D1FFF761FD022847
:104790000CD10620DC4908700120E1490880002086
:1047A000E0490880E0490880FDF791FDD84800887D
:1047B00006281AD1FFF74CFD022816D10720D2494E
:1047C00008700020D9490880FDF781FD0DE0FFF752
:1047D0003FFD032809D10020CB490870FDF777FD84
:1047E0000020D3490860D3490880D34800880128B5
:1047F0007ED1D24800880528FAD1FFF729FD01288B
:104800000CD1C3480088401C00B2C149088008464A
:10481000B0F90000042801DB00200880BC480088B3
:10482000F8B9FFF715FD022804D1C5480078401CEF
:10483000C3490870FFF70CFD032804D1C048007875
:10484000401EBF490870BE480078012802DC0120E4
:10485000BB490870BA4800780A2802DB0A20B84928
:104860000870AB48008801281FD1FFF7F1FC02282F
:1048700004D1B4480078401CB2490870FFF7E8FC46
:10488000032804D1AF480078401EAE490870AD48F7
:104890000078012802DC0120AA490870A9480078A4
:1048A0000A2802DB0A20A7490870994800880228D4
:1048B00021D1FFF7CDFC022804D1A3480078401C89
:1048C000A1490870FFF7C4FC032804D19E48007872
:1048D000401E9D4908709C480078012802DC012098
:1048E00099490870984800780A2804DB0A2000E0FB
:1048F00025E0954908708648008803281FD1FFF7F6
:10490000A7FC022804D191480078401C8F49087008
:10491000FFF79EFC032804D18C480078401E8B4989
:1049200008708A480078012802DC01208749087055
:10493000864800780A2802DB0A20844908707E48ED
:10494000008801287ED17D4800880628FAD1FFF72B
:104950007FFC01281DD16E480088401C00B26C49C4
:1049600008800846B0F900001C2801DB0020088000
:104970006748008858B166480088072807D064480F
:1049800000880E2803D062480088152801D1FDF761
:104990009EFC5F480088C0B9FFF75AFC022804D18A
:1049A0006B480088401C6A490880FFF751FC0328C7
:1049B00004D167480088401E654908806448008823
:1049C000002802DC00206249088051480088012844
:1049D00018D1FFF73DFC022804D15E480088401C36
:1049E0005C490880FFF734FC032804D1594800884B
:1049F000401E5849088057480088002802DC0020E3
:104A0000544908804248008802281DD1FFF720FC45
:104A1000022805D150480088401C00B24E49088049
:104A2000FFF716FC032805D14B480088401E00B252
:104A3000494908804848B0F90000002804DC0020FB
:104A4000454900E050E308803148008803281BD125
:104A5000FFF7FEFB022805D13F484088401C00B20A
:104A60003D494880FFF7F4FB032805D13A484088C8
:104A7000401E00B2384948803748B0F9020000288B
:104A800002DC0020344948802148008804281BD1DA
:104A9000FFF7DEFB022805D12F488088401C00B2BA
:104AA0002D498880FFF7D4FB032805D12A48808848
:104AB000401E00B2284988802748B0F90400002829
:104AC00002DC00202449888011480088052846D14E
:104AD000FFF7BEFB022805D11F48C088401C01B269
:104AE0001D48C180FFF7B4FB032805D11A48C088D0
:104AF000401E01B21848C1801748B0F906000028CE
:104B00002DDC0021144829E0060200203C02002090
:104B1000A802002040020020440200204802002099
:104B20004C020020580200205402002050020020B5
:104B30000002002004020020A6020020A40200209F
:104B40005A0200205B0200205C0200205D0200206F
:104B50005E0200206002002008020020C180FE48A2
:104B6000008806281BD1FFF773FB022805D1FB48FC
:104B70000089401C00B2F9490881FFF769FB03284E
:104B800005D1F6480089401E00B2F4490881F34877
:104B9000B0F90800002802DC0020F0490881EE4846
:104BA000008807281BD1FFF753FB022805D1EB48EB
:104BB0004089401C01B2E9484181FFF749FB0328C5
:104BC00005D1E6484089401E01B2E4484181E348EE
:104BD000B0F90A00002802DC0021E0484181DE48EB
:104BE000008808281BD1FFF733FB022805D1DB48DA
:104BF0008089401C00B2D9498881FFF729FB03282E
:104C000005D1D6488089401E00B2D4498881D34856
:104C1000B0F90C00002802DC0020D0498881CE4881
:104C2000008809281BD1FFF713FB022805D1CB48C8
:104C3000C089401C01B2C948C181FFF709FB0328A4
:104C400005D1C648C089401E01B2C448C181C348CD
:104C5000B0F90E00002802DC0021C048C181BE4826
:104C600000880A281BD1FFF7F3FA022805D1BB48B8
:104C7000008A401C00B2B9490882FFF7E9FA03280C
:104C800005D1B648008A401E00B2B4490882B34834
:104C9000B0F91000002802DC0020B0490882AE48BC
:104CA00000880B281BD1FFF7D3FA022805D1AB48A7
:104CB000408A401C01B2A9484182FFF7C9FA032883
:104CC00005D1A648408A401E01B2A4484182A348AB
:104CD000B0F91200002802DC0021A04841829E4861
:104CE00000880C281BD1FFF7B3FA022805D19B4896
:104CF000808A401C00B299498882FFF7A9FA0328EC
:104D000005D19648808A401E00B294498882934813
:104D1000B0F91400002802DC0020904988828E48F7
:104D200000880D281BD1FFF793FA022805D18B4884
:104D3000C08A401C01B28948C182FFF789FA032862
:104D400005D18648C08A401E01B28448C18283488A
:104D5000B0F91600002802DC00218048C1827E489C
:104D600000880E281BD1FFF773FA022805D17B4873
:104D7000008B401C00B279490883FFF769FA0328C9
:104D800005D17648008B401E00B2744908837348F1
:104D9000B0F91800002802DC0020704908836E4832
:104DA00000880F281BD1FFF753FA022805D16B4862
:104DB000408B401C01B269484183FFF749FA032840
:104DC00005D16648408B401E01B264484183634868
:104DD000B0F91A00002802DC0021604841835E48D7
:104DE000008810281BD1FFF733FA022805D15B4851
:104DF000808B401C00B259498883FFF729FA0328A9
:104E000005D15648808B401E00B2544988835348D0
:104E1000B0F91C00002802DC0020504988834E486D
:104E2000008811281BD1FFF713FA022805D14B483F
:104E3000C08B401C01B24948C183FFF709FA03281F
:104E400005D14648C08B401E01B24448C183434847
:104E5000B0F91E00002802DC00214048C1833E4812
:104E6000008812281BD1FFF7F3F9022805D13B482F
:104E7000008C401C00B239490884FFF7E9F9032887
:104E800005D13648008C401E00B2344908843348AE
:104E9000B0F92000002802DC0020304908842E48A8
:104EA000008813281BD1FFF7D3F9022805D12B481E
:104EB000408C401C01B229484184FFF7C9F90328FE
:104EC00005D12648408C401E01B224484184234825
:104ED000B0F92200002802DC0021204841841E484D
:104EE000008814281BD1FFF7B3F9022805D11B480D
:104EF000808C401C00B219498884FFF7A9F9032867
:104F000005D11648808C401E00B21449888413488D
:104F1000B0F92400002802DC0020104988840E48E3
:104F20000088152820D1FFF793F9022805D10B48F6
:104F3000C08C401C01B20948C184FFF789F90328DD
:104F400005D10648C08C401E01B20448C184034804
:104F5000B0F92600002803E0A80200200802002083
:104F600002DC0021FE48C184FE48008816281BD1BF
:104F7000FFF76EF9022805D1F948008D401C00B2F8
:104F8000F7490885FFF764F9032805D1F448008D37
:104F9000401E00B2F2490885F148B0F92800002807
:104FA00002DC0020EE490885EE48008817281BD156
:104FB000FFF74EF9022805D1E948408D401C01B2A7
:104FC000E7484185FFF744F9032805D1E448408DBF
:104FD000401E01B2E2484185E148B0F92A000028AC
:104FE00002DC0021DE484185DE48008818281BD1FC
:104FF000FFF72EF9022805D1D948808D401C00B258
:10500000D7498885FFF724F9032805D1D448808D36
:10501000401E00B2D2498885D148B0F92C00002842
:1050200002DC0020CE498885CE48008819281BD193
:10503000FFF70EF9022805D1C948C08D401C01B206
:10504000C748C185FFF704F9032805D1C448C08DBE
:10505000401E01B2C248C185C148B0F92E000028E7
:1050600002DC0021BE48C185BE4800881A281BD139
:10507000FFF7EEF8022805D1B948008E401C00B2B7
:10508000B7490886FFF7E4F8032805D1B448008E35
:10509000401E00B2B2490886B148B0F9300000287D
:1050A00002DC0020AE490886AE4800881B281BD1D0
:1050B000FFF7CEF8022805D1A948408E401C01B266
:1050C000A7484186FFF7C4F8032805D1A448408EBD
:1050D000401E01B2A2484186A148B0F93200002822
:1050E00002DC00219E484186BDE8F0811CB59E4847
:1050F000008800286FD19B48B0F9000020B101283A
:1051000024D0022866D143E098A200210846FDF78A
:10511000FAFA9848012102681220FDF73DFA96A29A
:1051200002210020FDF7E3F99548032102681220CF
:10513000FDF732FA93A204210020FDF7D8F9934835
:10514000052102681220FDF727FA43E087A200211B
:105150000846FDF7CCF98748012102681220FDF7C7
:105160001BFA85A202210020FDF7CDFA8448032115
:1051700002681220FDF710FA82A204210020FDF738
:10518000B6F98248052102681220FDF705FA21E0F0
:1051900076A200210846FDF7AAF9764801210268A7
:1051A0001220FDF7F9F974A202210020FDF79FF902
:1051B0007348032102681220FDF7EEF971A2042161
:1051C0000020FDF7A0FA7148052102681220FDF7C2
:1051D000E3F900BF00BF6448008801286FD161482F
:1051E000B0F9000020B1012824D0022866D143E0A4
:1051F00067A200210846FDF786FA67480121026888
:105200001220FDF7C9F965A202210020FDF76FF910
:105210006448032102681220FDF7BEF962A204214E
:105220000020FDF764F96248052102681220FDF7AD
:10523000B3F943E056A200210846FDF758F9564855
:10524000012102681220FDF7A7F954A202210020D3
:10525000FDF759FA5348032102681220FDF79CF923
:1052600051A204210020FDF742F9514805210268AE
:105270001220FDF791F921E045A200210846FDF733
:1052800036F94548012102681220FDF785F943A24D
:1052900002210020FDF72BF9424803210268122069
:1052A000FDF77AF940A204210020FDF72CFA4048CE
:1052B000052102681220FDF76FF900BF00BF2A48E0
:1052C000008802284AD12748B0F9000020B10128FF
:1052D00024D0022821D182E036A200210846FDF721
:1052E00012FA3648012102681220FDF755F934A25E
:1052F00002210020FDF7FBF8334803210268122049
:10530000FDF74AF931A204210020FDF7F0F83148F9
:10531000052102681220FDF73FF985E025A2002152
:105320000846FDF7E4F82548012102681220FDF740
:1053300033F923A202210020FDF7E5F922480321D9
:1053400002681220FDF728F920A204210020FDF7B1
:10535000CEF820480521026812203DE065E00000FB
:1053600008020020A8020020A40200204B705F5811
:105370003A0000006C0200204B695F583A000000C0
:10538000700200204B645F583A0000007402002055
:105390004B705F593A000000880200204B695F594A
:1053A0003A0000008C0200204B645F593A00000074
:1053B000900200204B705F6164643A00AC020020F0
:1053C0004B645F6164643A00B00200204B695F6126
:1053D00064643A00B4020020FDF7DEF824E0AFF286
:1053E0002C0200210846FDF782F8FE4801210268E0
:1053F0001220FDF7D1F8AFF2380202210020FDF7AC
:1054000076F8F948032102681220FDF7C5F8AFF2DB
:10541000440204210020FDF776F9F44805210268D2
:105420001220FDF7B9F800BF00BFF148008803283B
:1054300021D1F0A200210846FDF759F80C20009078
:10544000ED48B0F90000032302460021019014202A
:10545000FDF70BF8E9A203210020FDF748F80C2026
:105460000090E548B0F90200032302461946019076
:105470001420FCF7FAFFDE48008804287AD1E048BF
:105480000078002877D1DF48B0F90000072828D23B
:10549000DFE800F004284C7296BADE00DAA20021A0
:1054A0000846FDF730F9DAA201210020FDF71FF8C8
:1054B000D9A202210020FDF71AF8D9A20321002069
:1054C000FDF715F8D8A204210020FDF710F8D8A2A6
:1054D00005210020FDF70BF8D7A206210020FDF7DB
:1054E00006F8D9E0C8A200210846FDF700F8C8A2D6
:1054F00001210020FDF707F9C7A202210020FCF7D7
:10550000F6FFC7A203210020FCF7F1FFC6A2042189
:105510000020FCF7ECFFC6A205210020FCF7E7FF06
:10552000C5A206210020FCF7E2FFB5E0B6A20021EB
:105530000846FCF7DCFFB6A201210020FCF7D7FFEC
:10554000B5A202210020FDF7DEF8B5A2032100205C
:10555000FCF7CDFFB4A204210020FCF7C8FFB4A2E1
:1055600005210020FCF7C3FFB3A206210020FCF7B1
:10557000BEFF91E0D9E090E0A3A200210846FCF72D
:10558000B6FFA3A201210020FCF7B1FFA2A20221D5
:105590000020FCF7ACFFA2A203210020FDF7B3F826
:1055A000A1A204210020FCF7A2FFA1A20521002056
:1055B000FCF79DFFA0A206210020FCF798FF6BE0FE
:1055C00091A200210846FCF792FF91A20121002040
:1055D000FCF78DFF90A202210020FCF788FF90A22B
:1055E00003210020FCF783FF8FA204210020FDF798
:1055F0008AF88FA205210020FCF779FF8EA20621F0
:105600000020FCF774FF47E07FA200210846FCF76A
:105610006EFF7FA201210020FCF769FF7EA202211C
:105620000020FCF764FF7EA203210020FCF75FFF4F
:105630007DA204210020FCF75AFF7DA20521002055
:10564000FDF761F87CA206210020FCF750FF23E063
:105650006DA200210846FCF74AFF6DA2012100203F
:10566000FCF745FF6CA202210020FCF740FF6CA272
:1056700003210020FCF73BFF6BA204210020FCF774
:1056800036FF6BA205210020FCF731FF6AA206213C
:105690000020FDF738F800BF47E069A202210A2088
:1056A000FCF725FF6848006804F0F0F967490090AE
:1056B00004F0EEF80246032101903220FCF76CFF63
:1056C0004F48007808282FD2DFE800F02E040A1097
:1056D000161C22285EA200210846FCF708FF23E0E2
:1056E00060A200210846FCF702FF1DE062A2002133
:1056F0000846FCF7FCFE17E064A200210846FCF710
:10570000F6FE11E066A200210846FCF7F0FE0BE071
:1057100067A200210846FCF7EAFE05E069A2002125
:105720000846FCF7E4FE00BF00BF314800880528AA
:1057300055D13448B0F9000030B101283DD00228DD
:105740004ED0032838D13EE163A200210846FCF781
:10575000DAFF0C20022300906048027800210E201E
:10576000FCF783FE5EA202210020FCF7C0FE0C20A5
:10577000022300905B48027819460E20FCF775FE64
:1057800059A204210020FCF7B2FE0C200223009055
:105790005648027804210E20FCF767FE54A2062129
:1057A0000020FCF7A4FE0C20022300905148027850
:1057B00006210E20FCF759FE42E147A200210846CF
:1057C000FCF795FE0C20022300904448027800214B
:1057D0000E20FCF74AFE42A2022100208CE030E1BC
:1057E000B4E00000AC020020B0020020B4020020AF
:1057F000A4020020583A000000000020593A00009E
:1058000006020020A80200204D4F44454900000038
:105810004D4F4445494900004D4F444549494900D1
:105820004D4F4445495600004D4F44455600000039
:105830004D4F4445564900004D4F44455649490097
:1058400054494D453A000000000200200000C842C3
:105850004D4F4445495F52554E494E472E2E2E2EF0
:10586000000000004D4F444549495F52554E494E96
:10587000472E2E2E000000004D4F44454949495FF8
:1058800052554E494E472E2E2E0000004D4F444596
:1058900049565F52554E494E472E2E2E00000000AD
:1058A0004D4F4445565F52554E494E472E2E2E00C1
:1058B0004D4F444556495F52554E494E472E2E2E68
:1058C000000000004D4F44455649495F52554E492E
:1058D0004E472E2E2E000000413A00005A020020B2
:1058E000423A00005B020020433A00005C020020C4
:1058F000443A00005D020020FCF705FF0C20022363
:105900000090FE48027819460E20FCF7AEFDAFF27B
:10591000280204210020FCF7EAFD0C20022300905D
:10592000F748027804210E20FCF79FFDAFF24002F9
:1059300006210020FCF7DBFD0C2002230090F1483B
:10594000027806210E20FCF790FD79E0AFF2780294
:1059500000210846FCF7CBFD0C2002230090EA480A
:10596000027800210E20FCF780FDAFF28C020221AC
:105970000020FCF7BCFD0C2002230090DF480278D9
:1059800019460E20FCF771FDAFF2A402042100209D
:10599000FCF7B9FE0C2002230090D94802780421BC
:1059A0000E20FCF762FDAFF2B80206210020FCF7E2
:1059B0009EFD0C2002230090D248027806210E2082
:1059C000FCF753FD3CE0AFF2F00200210846FCF783
:1059D0008EFD0C2002230090CB48027800210E207F
:1059E000FCF743FDAFF2081202210020FCF77FFD17
:1059F0000C2002230090C148027819460E20FCF7C3
:105A000034FDAFF21C1204210020FCF770FD0C20C5
:105A100002230090BA48027804210E20FCF725FDED
:105A2000AFF2341206210020FCF76DFE0C20022399
:105A30000090B448027806210E20FCF716FD00BF46
:105A400000BFB2480088062841F00C86B048B0F983
:105A500000001C2881F00586DFE810F01C008F0094
:105A600001019F01180291020A038A0302047A04C9
:105A7000F2046A05F8057706F6066E07FD077C084E
:105A8000FB087A09FC097B0AF30A6B0B040C830CF4
:105A9000020D810D9FA200210846FCF734FE0C2068
:105AA000042300909E48028800215A20FCF7DDFC68
:105AB0009CA201210020FCF71AFD0C200423009079
:105AC0009B48028801215A20FCF7CFFC99A20221B1
:105AD0000020FCF70CFD0C2000909748B0F9000066
