:020000040800F2
:1000000000140020FD4F000823020008250200080C
:10001000290200082D02000831020008000000003B
:100020000000000000000000000000003502000891
:100030003702000800000000390200083B020008F7
:1000400017500008175000081750000817500008F4
:1000500017500008175000081750000817500008E4
:1000600017500008175000081750000817500008D4
:1000700017500008175000081750000817500008C4
:1000800017500008175000081750000817500008B4
:1000900017500008175000081750000817500008A4
:1000A0001750000817500008175000081750000894
:1000B0001750000817500008175000081750000884
:1000C0001750000817500008175000081750000874
:1000D00017500008734F0008175000081750000809
:1000E0001750000817500008175000081750000854
:1000F0001750000817500008175000081750000844
:100100001750000817500008175000081750000833
:100110001750000817500008175000081750000823
:100120001750000817500008175000081750000813
:1001300000F002F800F066F80AA090E8000C824493
:100140008344AAF10107DA4501D100F05BF8AFF270
:10015000090EBAE80F0013F0010F18BFFB1A43F0A5
:1001600001031847548F0000748F000010F8013B02
:100170000A4413F0030408BF10F8014B1D1108BF17
:1001800010F8015B641E05D010F8016B641E01F8C5
:10019000016BF9D1002D15D010F8014B03F00C03C1
:1001A0000C2BA1EB04040ABF10F8013BA4EB831451
:1001B000A4EB032405F1010314F8016B5B1E01F8A5
:1001C000016BF9D5914238BF10F8013BD1D370478C
:1001D0000023002400250026103A28BF78C1FBD850
:1001E000520728BF30C148BF0B607047642905F033
:1001F000A785632905F0FB86002070471FB51FBD4A
:1002000010B510BD05F080FF1146FFF7F7FF04F0B1
:1002100056FC05F09EFF03B4FFF7F2FF03BC04F0A9
:100220004DFE704700BFFEE700BFFEE700BFFEE7E0
:1002300000BFFEE770477047704770470CB500205D
:10024000019000906C48006840F480306A49086072
:1002500000BF6948006800F4003000900198401C1D
:100260000190009818B90198B0F5A06FF1D16248DB
:10027000006800F4003010B10120009001E000207F
:1002800000900098012843D15C48006840F01000BD
:100290005A4908600846006820F0030008600846D4
:1002A000006840F0020008605348406852494860C6
:1002B0000846406848600846406840F480604860EE
:1002C0000846406820F47C1048600846406840F4C6
:1002D000E81048600846006840F08070086000BF81
:1002E0004548006800F000700028F9D04248406896
:1002F00020F00300404948600846406840F0020092
:10030000486000BF3C48406800F00C000828F9D164
:100310000CBD10B5FFF792FF10BD10B53648006850
:1003200040F00100344908600846406834490840FC
:100330003149486008460068324908402E49086043
:100340000846006820F4802008600846406820F4D1
:10035000FE0048604FF41F008860FFF7DAFF4FF09F
:1003600000602949086010BD10B50021002000225E
:10037000214B5B6803F00C0121B1042906D0082948
:1003800028D107E0214B224C236027E01F4B204C53
:10039000236023E0184B5B6803F47010164B5B6816
:1003A00003F48032022303EB904022B9194B4343FC
:1003B000174C23600DE0104B5B6803F4003323B14E
:1003C000144B4343124C236003E0104B4343104C47
:1003D000236003E00D4B0E4C236000BF00BF064BB3
:1003E0005B68C3F303130C4CE15C094B1B68CB4007
:1003F000074C236010BD00000010024000200240A6
:100400000000FFF8FFFFF6FE08ED00E000127A00A2
:100410000000002000093D000400002070B50446E3
:100420000E4626B10221FE4804F083FF03E00221BC
:10043000FB4804F080FF1021FA4804F07CFF0025FF
:1004400017E02021F74804F076FF04F0800020B187
:100450008021F44804F06DFF03E08021F14804F0AE
:100460006AFF2021EF4804F064FF6006040E681C58
:10047000C5B2082DE5DB1021EA4804F05AFF02213D
:10048000E74804F056FF70BD70B504460E4626B12D
:100490000221E34804F04DFF03E00221E04804F0AC
:1004A0004AFF1021DF4804F046FF002517E0202115
:1004B000DC4804F040FF04F0800020B18021D948DE
:1004C00004F039FF03E08021D64804F032FF2021F8
:1004D000D44804F02EFF6006040E681CC5B2082D37
:1004E000E5DB1021CF4804F024FF0221CC4804F0C2
:1004F00020FF70BD70B504460D4605F1B001C8B2CD
:100500000021FFF78BFF102141EA14100021FFF7B3
:1005100085FF04F00F0141F001000021FFF77EFF8D
:1005200070BD10B500218D20FFF778FF0021142049
:10053000FFF774FF0021AF20FFF770FF10BD10B56B
:1005400000218D20FFF76AFF00211020FFF766FFD2
:100550000021AE20FFF762FF10BD70B5002419E046
:1005600004F1B001C8B20021FFF758FF002108468E
:10057000FFF754FF00211020FFF750FF002505E092
:1005800001210020FFF74AFF681CC5B2802DF7DB70
:10059000601CC4B2082CE3DB70BD2DE9F0410746B6
:1005A0000E46904600250024A8F12000C5B27F2FFA
:1005B00002DD0027B01CC6B231463846FFF79AFF6D
:1005C000002408E004EB0511974A505C0121FFF775
:1005D00025FF601CC4B2082CF4DB701CC1B2384685
:1005E000FFF788FF002409E004EB051108318E4A6B
:1005F000505C0121FFF712FF601CC4B2082CF3DB32
:10060000BDE8F0812DE9F04107460E4690460025F1
:100610000024A8F12000C5B27F2F02DD0027B01C06
:10062000C6B231463846FFF765FF002408E004EB08
:1006300005117D4A505C0121FFF726FF601CC4B202
:10064000082CF4DB701CC1B23846FFF753FF0024BE
:1006500009E004EB05110831734A505C0121FFF7F2
:1006600013FF601CC4B2082CF3DBBDE8F08110B5A9
:100670000246012000E050430B00A1F10104E1B269
:10068000F9D110BD2DE9FF5F074691461D460E9E2C
:100690004FF0000A002433E0281B401EC1B20A209C
:1006A000FFF7E5FFB9FBF0F00A21B0FBF1F201FB27
:1006B0001208BAF1000F13D1681EA04210DDB8F184
:1006C000000F0BD1B34606EBDB71491001FB04713F
:1006D000C8B220220199FFF760FF0FE04FF0010A36
:1006E000B34606EBDB71491001FB0471C8B208F197
:1006F0003001CAB20199FFF750FF00BF601CC4B2BD
:10070000AC42C9DBBDE8FF9F2DE9F04105460F462D
:10071000164698460024B8F1000F12D10EE0325D63
:1007200039462846FFF739FF05F10800C5B2782D94
:1007300002DD0025B81CC7B2601CC4B2305D0028C1
:10074000EDD1B8F1010F12D10EE0325D39462846E5
:10075000FFF758FF05F10800C5B2782D02DD00252E
:10076000B81CC7B2601CC4B2305D0028EDD1BDE832
:10077000F0812DE9F04781460E4615461F46012FB0
:100780002FD14FF0000831464846FFF7B3FE002452
:100790000CE0264A02EB8511085D0121FFF774FE8B
:1007A00008F1010000F0FF08601CC4B2102CF0DB5F
:1007B000701CC1B24846FFF79DFE00240EE06900A0
:1007C000491C1A4A02EB4111085D0121FFF75CFE4A
:1007D00008F1010000F0FF08601CC4B2102CEEDB31
:1007E00000BFBFBB4FF0000831464846FFF782FE0E
:1007F00000240CE00D4A02EB8511085D0121FFF792
:100800000DFE08F1010000F0FF08601CC4B2102CBE
:10081000F0DB701CC1B24846FFF76CFE002416E006
:10082000000C0140000801403E7D0008140000203B
:100830006900491C834A02EB4111085D0121FFF761
:10084000EDFD08F1010000F0FF08601CC4B2102C9F
:10085000EEDB00BFBDE8F0872DE9F05F06460F46EE
:1008600090461C46DDF828A04FF0000BE11704EB82
:100870005171C910A4EBC10131B92046E11704EB55
:100880005171C1F3C70506E02046E11704EB517131
:10089000C910491CCDB23D4615E029463046FFF748
:1008A00029FEB1460BE059460BF1010B1AF8010085
:1008B0000121FFF7B3FD09F1010000F0FF09C14577
:1008C000F1DB681CC5B2A542E7DBBDE8F09F08B5C7
:1008D0000121042004F03CFFB020ADF800001020FE
:1008E0008DF8030003208DF802006946564804F095
:1008F00073FCB021544804F01CFD0121082004F0D1
:1009000027FF40F20310ADF8000010208DF803001F
:1009100003208DF8020069464C4804F05DFC40F26B
:1009200003114A4804F005FD0121484804F001FD87
:10093000642003F048FF0121444804F0FCFC6420DB
:1009400003F041FF0121414804F0F3FC0021AE20F7
:10095000FFF764FD00210846FFF760FD002110202D
:10096000FFF75CFD00214020FFF758FD00218120AA
:10097000FFF754FD0021CF20FFF750FD0021A120FB
:10098000FFF74CFD0021C820FFF748FD0021A620FD
:10099000FFF744FD0021A820FFF740FD00213F2084
:1009A000FFF73CFD0021D320FFF738FD002108466A
:1009B000FFF734FD0021D520FFF730FD0021802016
:1009C000FFF72CFD0021D920FFF728FD0021F120A1
:1009D000FFF724FD0021DA20FFF720FD002112207F
:1009E000FFF71CFD0021DB20FFF718FD0021402050
:1009F000FFF714FD00212020FFF710FD0021022049
:100A0000FFF70CFD00218D20FFF708FD00211420C9
:100A1000FFF704FD0021A420FFF700FD0021A62020
:100A2000FFF7FCFC0021AF20FFF7F8FC0021AF200E
:100A3000FFF7F4FCFFF791FD00210846FFF75AFD90
:100A400008BD00001400002000080140000C014017
:100A500038B50446FB4890F82400C0B114B1022018
:100A6000009001E000200090F64A1268D17BF54A20
:100A7000526810786B46012203F06FF810B14FF006
:100A8000FF3038BD9DF80010EE48417423E0ED487A
:100A9000807A10B94FF0FF30F3E724B1E948407C89
:100AA00008B10020EDE714B10120009001E0002022
:100AB0000090E44A1268D17BE24A526810786B4693
:100AC000012203F04AF810B14FF0FF30D9E79DF84A
:100AD0000010DC4841740020D3E738B5002419E049
:100AE000D8480068C07AA04204D0D6480068407D4B
:100AF000A04200D10CE0D349496808786B46012236
:100B0000214603F08CF810B14FF0FF3038BD00BF24
:100B1000601CC4B2CB4840680079A042E0DC0020F1
:100B2000F4E770B504460D46C6480068C07AA04296
:100B300004D0C4480068407DA04202D14FF0FF308D
:100B400070BDC04840680079A04202DC4FF0FF3021
:100B5000F6E7BC49496808782B460122214603F094
:100B60005EF8EDE738B50446B64890F82300A04299
:100B700001D1002038BD14B13020009001E00020E8
:100B80000090B048807C20B19DF8000040F0020049
:100B90000090AC4890F8220020B19DF8000040F091
:100BA00080000090A74A1268117DA64A526810780A
:100BB0006B46012202F0D1FF10B14FF0FF30D9E7B0
:100BC000A04880F823400020D4E738B5044604F05C
:100BD000700010B10120009005E014B100200090D9
:100BE00001E040200090974A1268917C954A526833
:100BF00010786B46012202F0B0FF20B1002191482D
:100C00008172481E38BD9DF8000020F040018D48DB
:100C100001730020009004F0400020B99DF800000E
:100C200040F00400009004F0200020B99DF800007E
:100C300040F00200009004F0100020B99DF8000080
:100C400040F00100009004F0080020B99DF8000079
:100C500040F0380000907B4A1268D17C794A526893
:100C600010786B46012202F078FF20B10021754810
:100C70008172481EC6E724B1082C02D00020FFF77D
:100C800071FF7048847200210175322003F09BFDD2
:100C90000020B7E738B504466A48807CA04201D1FD
:100CA000002038BD002C46D0664A12681179654A8A
:100CB000526810786B46012202F0B1FF10B14FF07C
:100CC000FF30EEE79DF8000020F0200000905D4A24
:100CD000126811795B4A526810786B46012202F063
:100CE0003CFF10B14FF0FF30DBE7032003F06BFD5A
:100CF00002200090534890F8220020B19DF8000097
:100D000040F0800000904F4890F8230020B19DF8FB
:100D1000000040F0300000904A4A1268117D494AB4
:100D2000526810786B46012202F017FF002851D05C
:100D30004FF0FF30B5E7434A12681179414A5268D3
:100D400010786B46012202F06AFF10B14FF0FF30BD
:100D5000A7E73C48807A00F0010028B19DF8000028
:100D600040F02000009004E09DF8000020F02000FA
:100D70000090344A12681179324A526810786B46F2
:100D8000012202F0EAFE10B14FF0FF3089E70320A4
:100D900003F019FD2B4890F8220010B1802000903C
:100DA00001E000200090274890F8230020B19DF832
:100DB000000040F030000090224A1268117D214A64
:100DC000526810786B46012202F0C7FE10B14FF056
:100DD000FF3066E71B488474002062E708B51948B5
:100DE000807A10B94FF0FF3008BD00200090154AFE
:100DF0001268D17B134A526810786B46012202F0C8
:100E0000ACFE10B14FF0FF30EEE70E4A1268517998
:100E10000C4A526810786B46012202F09EFE10B117
:100E20004FF0FF30E0E7074A12681179054A52682F
:100E300010786B46012202F090FE28B14FF0FF308F
:100E4000D2E7000014030020F74890F8240000289F
:100E500050D00C200090F44A12681179F24A52687E
:100E600010786B46012202F078FE10B14FF0FF308F
:100E7000BAE7C0200090EC48807A00F0010020B171
:100E80009DF8000040F020000090E74A12681179B8
:100E9000E54A526810786B46012202F05EFE10B1FE
:100EA0004FF0FF30A0E7E048407C10B102200090F6
:100EB00001E000200090DC4A1268D17BDA4A5268D7
:100EC00010786B46012202F048FE10B14FF0FF305F
:100ED0008AE700200090D44A12685179D24A5268B9
:100EE00010786B46012202F038FE002852D04FF0F5
:100EF000FF3079E704200090CB4A12681179CA4A82
:100F0000526810786B46012202F027FE10B14FF0B4
:100F1000FF3069E7C448807C20B9C348807A00F07C
:100F2000010010B94020009001E060200090BE4A0E
:100F300012681179BC4A526810786B46012202F09F
:100F40000CFE10B14FF0FF304EE7B748407C10B1B7
:100F50000120009001E000200090B34A1268D17B8C
:100F6000B14A526810786B46012202F0F6FD10B1CA
:100F70004FF0FF3038E7AC4A12685179AA4A5268FC
:100F80001078A94B1033012202F0E7FD10B14FF0A9
:100F9000FF3029E7002027E770B50446002624F03B
:100FA0000104A14890F8240008B1002070BD9E48BB
:100FB000807A10B94FF0FF30F8E79B48057C807AC3
:100FC0002040994908740846007CA04202D04FF0A6
:100FD000FF3600E0002614B99348007D18B10120C7
:100FE000FFF736FD02E00020FFF732FD3CB1FFF7CE
:100FF000F5FE20B18C4805744FF0FF30D6E730463F
:10100000D4E738B504468848807A10B94FF0FF30ED
:1010100038BDBC2C02DB0120009015E0622C02DB05
:101020000220009010E02A2C02DB032000900BE04D
:10103000142C02DB0420009006E00A2C02DB0520C1
:10104000009001E0062000907748C07A9DF80010DB
:10105000884201D10020DBE7734A12689178724A16
:10106000526810786B46012202F077FD10B14FF004
:10107000FF30CDE79DF800106B48C1720020C7E734
:1010800038B50446282C02DD4FF0FF3038BDDCB9FE
:101090000020FFF767FD00208DF8000007208DF885
:1010A0000100614A1268917C5F4A526810786B4671
:1010B000022202F052FD10B14FF0FF30E6E70021AE
:1010C000594801750020E1E70120FFF74BFD202082
:1010D0008DF80000012C06D100208DF801000520BC
:1010E000FFF78FFF17E0052C06DC01208DF80100CB
:1010F0000520FFF786FF0EE0142C06DC02208DF899
:1011000001000A20FFF77DFF05E003208DF80100B4
:101110001420FFF776FF9DF80100072101EB8010F6
:10112000C0B28DF80100404A1268917C3E4A526874
:1011300010786B46022202F010FD10B14FF0FF3024
:10114000A4E708213848817200210173012101754B
:101150000020FFF721FF002098E738B50446324809
:10116000807A10B94FF0FF3038BD2F4890F8240036
:1011700010B14FF0FF30F7E72B48007D50B134B18C
:10118000282C04DCE0B2FFF77BFF0020ECE7002016
:10119000FFF776FF042C01DA042404E0B4F57A7F2B
:1011A00001DD4FF47A744FF47A7090FBF4F0401E36
:1011B000C0B200901C4A126851781B4A52681078DD
:1011C0006B46012202F0C9FC10B14FF0FF30CBE7B3
:1011D0009DF80000401C4FF47A7191FBF0F081B251
:1011E0001148C1810146C9894810FFF70AFF002054
:1011F000BAE738B504460C48807A10B94FF0FF3092
:1012000038BD022C06D0042C07D0082C08D0102C96
:101210000FD10BE0002000900EE0082000900BE0C2
:101220001020009008E00000140300201820009017
:1012300002E04FF0FF30E3E700BFF948407A9DF845
:101240000010B0EBE10F01D10020D9E7F44A126899
:10125000D179F34A526810786B46012202F07DFC86
:1012600010B14FF0FF30CBE79DF80000C110EC4803
:1012700041720020C4E738B50446E948807A10B9C5
:101280004FF0FF3038BDFA2C09D0B4F5FA7F09D001
:10129000B4F57A7F09D0B4F5FA6F0CD108E00020DC
:1012A00000900BE00820009008E01020009005E07E
:1012B0001820009002E04FF0FF30E3E700BFD8486D
:1012C000007A9DF80010B0EBE10F01D10020D9E7C2
:1012D000D34A12689179D24A526810786B4601223B
:1012E00002F03BFC10B14FF0FF30CBE79DF800005F
:1012F000C010CB4908720020C4E71CB580208DF8CF
:101300000000C74A1268917CC54A526810786B4643
:10131000012202F022FC10B14FF0FF301CBD64200E
:1013200003F051FA00208DF80000BD4A1268917C4C
:10133000BB4A526810786B46012202F00EFC10B1D5
:101340004FF0FF30EAE7B64A1268917DB44A52681E
:1013500010786B46062202F062FC10B14FF0FF30AD
:10136000DCE79DF80500C007400F9DF8031001F071
:10137000010140EA41009DF8011001F0010140EA3D
:10138000010494B1012C03D10121A548C17431E0BD
:10139000022C03D10021A248C1742BE02146A1A058
:1013A00004F064FC4FF0FF30B8E79D4A1268D17832
:1013B0009B4A526810786B46012202F030FC10B153
:1013C0004FF0FF30AAE79DF8000000F00F042CB9A1
:1013D0009E4804F04BFC4FF0FF309FE7042C06D1F1
:1013E0009BA004F043FC01218D48C17402E0002160
:1013F0008B48C174FF218A488172FF208849087296
:10140000FF2187484172C1724FF6FF71C181FF21F0
:10141000017481740121017380F82210002180F889
:1014200023104175017516300160416081601638E6
:1014300080F8241080F82510C1844FF4FA60FFF77B
:101440001AFF10B14FF0FF3068E70220FFF7D1FE1E
:1014500010B14FF0FF3061E72A20FFF7D2FD10B145
:101460004FF0FF305AE73220FFF777FE10B14FF010
:10147000FF3053E70020FFF78FFD10B14FF0FF3032
:101480004CE70020FFF706FC10B14FF0FF3045E7B6
:101490000020FFF79AFB002040E770477CB5044628
:1014A0000D465F48807A00F0700010B94FF0FF30B1
:1014B0007CBD5B4A1268117B594A526810786B46B2
:1014C000062202F0ACFB10B14FF0FF30F0E79DF8C0
:1014D00001009DF8001040EA012000B220809DF834
:1014E00003009DF8021040EA012000B260809DF8E0
:1014F00005009DF8041040EA012000B2A08015B15B
:101500002846FFF7CAFF0020D2E77CB504460D4607
:101510004348807A00F0080010B94FF0FF307CBDDE
:101520003F4A1268517B3E4A526810786B46062249
:1015300002F075FB10B14FF0FF30F0E79DF80100AD
:101540009DF8001040EA012000B220809DF80300C1
:101550009DF8021040EA012000B260809DF805006D
:101560009DF8041040EA012000B2A08015B1284681
:10157000FFF793FF0020D2E72DE9FE4F05460C460A
:101580002748807A18B94FF0FF30BDE8FE8F244A13
:101590001268917B224A5268107802AB022202F054
:1015A0003EFB10B14FF0FF30EFE79DF809009DF8CA
:1015B000081040EA012006B214B12046FFF76DFF83
:1015C00017494968C88806F069F8154901904968C3
:1015D000B1F9080006F04AF88346304606F046F8AE
:1015E0005946009006F0AAF98246019905F00CFFD1
:1015F00081461F4905F09AFE80464FF08F4106F064
:1016000095F8074605F0F6FF28600020BDE710B505
:1016100088B004461CB94FF0FF3008B010BD29E077
:1016200014030020556E737570706F7274656420BA
:10163000736F6674776172652070726F647563741E
:10164000207265762025642E0A000000689000084C
:1016500048616C662073656E736974697669747924
:10166000207061727420666F756E642E0D0A000022
:1016700000000C42206830B9606820B9A06810B939
:10168000002008B010BDFA494968087806AB03226B
:10169000114602F0C4FA10B14FF0FF30F1E79DF8A7
:1016A0001800082101EB201000F00F00ADF8000039
:1016B0009DF8190001EB201000F00F00ADF80200BA
:1016C0009DF81A0001EB201000F00F00ADF80400A7
:1016D00020684100BDF90000403091FBF0F000B2FD
:1016E000ADF8100060684100BDF90200403091FB88
:1016F000F0F000B2ADF81200A0684100BDF904009E
:10170000403091FBF0F000B2ADF81400D8494968C0
:10171000087806AB0622114602F081FA10B14FF0AC
:10172000FF30AEE79DF819009DF8181040EA01203F
:1017300000B2ADF808009DF81B009DF81A1040EAB1
:10174000012000B2ADF80A009DF81D009DF81C10A4
:1017500040EA012000B2ADF80C00BDF81000BDF861
:101760000810084400B2ADF81000BDF81200BDF832
:101770000A10084400B2ADF81200BDF81400BDF81C
:101780000C10084400B2ADF81400BDF81000000AB7
:101790008DF81800BDF81000C0B28DF81900BDF822
:1017A0001200000A8DF81A00BDF81200C0B28DF8C0
:1017B0001B00BDF81400000A8DF81C00BDF81400D1
:1017C000C0B28DF81D00AA494968087806AB062208
:1017D000114602F0C2F910B14FF0FF3051E700207E
:1017E0004FE70146A248007A30B1012807D002280D
:1017F00009D003280FD10AE0FA2008800EE04FF448
:10180000FA7008800AE04FF47A70088006E04FF41E
:10181000FA60088002E00020088000BF00BF0020BE
:10182000704701469248407A30B1012807D002281B
:1018300008D003280CD108E0022008700BE0042037
:10184000087008E00820087005E01020087002E029
:101850004FF0FF30704700BF8548C07C18B1087852
:101860004006000E08700020F4E701468048C07A68
:10187000082817D2DFE800F01704070A0D10131824
:10188000BC20088013E06220088010E02A20088035
:101890000DE0142008800AE00A20088007E00520F7
:1018A000088004E000BF00BF0020088000BF00BF28
:1018B0000020704701466E4890F8240010B14FF0A8
:1018C000FF3070476A48C08908800020F9E7014668
:1018D00000200880401E704701464FF0FF307047DF
:1018E00001466348007A30B1012807D0022808D0A9
:1018F00003280CD108E05F4808600BE05E480860F0
:1019000008E05E48086005E05D48086002E04FF0CE
:10191000FF30704700BF0020FBE701465448407A83
:1019200030B1012808D002280AD0032810D10BE0DA
:101930004FF4804008800EE041F69C7008800AE079
:101940004FF48050088006E04FF40060088002E009
:101950004FF0FF30704700BF4548C07C10B1088889
:10196000401008800020F5E701464148007C0870DF
:101970000020704701463E48807A10B1012008706F
:1019800001E0002008700020704738B50446384850
:10199000807A10B94FF0FF3038BD354A1268117C9B
:1019A000334A526810786B46022202F038F910B1BF
:1019B0004FF0FF30F0E79DF801009DF8001040EA7D
:1019C000012000B220800020E6E72DE9FE4F074607
:1019D000884692461D46DDF830B000260024244893
:1019E00090F8240010B1601EBDE8FE8F0020287022
:1019F0001F48807A10B94FF0FF30F5E71C48007C93
:101A000010B94FF0FF30EFE71948007C00F04000BC
:101A100008B1B01CC6B21648007C00F0200008B126
:101A2000B01CC6B21248007C00F0100008B1B01C17
:101A3000C6B20F48007C00F0080008B1B01DC6B265
:101A40000B4A1268917A0A4A526810786B46022251
:101A500002F0E5F810B14FF0FF30C5E79DF8010046
:101A60009DF8001040EA0129B1450BDA0020BBE7E0
:101A70001403002000000343000083423333034279
:101A800033338341FC4840684088B9EB600F17DD71
:101A9000F94A1268517CF84A526810786B46012264
:101AA00002F0BDF810B14FF0FF309DE79DF8000047
:101AB00000F0100020B1FFF791F96FF0010093E7FB
:101AC0005046FFF7EAFCEC4A1268D17AEA4A5268BB
:101AD00010786B46324602F0A2F810B14FF0FF309A
:101AE00082E799FBF6F0401E8BF80000002028707A
:101AF000B4422AD0E048007C00F0080028B3601C03
:101B00001DF800001DF8041040EA012000B2A8F8FA
:101B10000000E01C1DF80010A01C1DF8000041EAA8
:101B2000002000B2A8F80200601D1DF80010201D62
:101B30001DF8000041EA002000B2A8F8040028784F
:101B400040F008002870A01D84B2B44213D0CA48E7
:101B5000007C00F0400070B1601C1DF800001DF812
:101B6000041040EA012000B23880287840F040009C
:101B70002870A01C84B2B44213D0BF48007C00F08F
:101B8000200070B1601C1DF800001DF8041040EA30
:101B9000012000B27880287840F020002870A01C36
:101BA00084B2B44213D0B448007C00F0100070B18D
:101BB000601C1DF800001DF8041040EA012000B26E
:101BC000B880287840F010002870A01C84B2002053
:101BD0000AE7F8B504460F461646A74890F82400D1
:101BE00010B94FF0FF30F8BDA348807A10B94FF01C
:101BF000FF30F8E7A04A1268917A9F4A526810783D
:101C00006B46022202F00BF810B14FF0FF30EAE70A
:101C10009DF801009DF8001040EA0125A54203DA75
:101C200000203070401EDEE7934840684088B5EBE6
:101C3000600F17DD904A1268517C8F4A5268107805
:101C40006B46012201F0EBFF10B14FF0FF30CAE705
:101C50009DF8000000F0100020B1FFF7BFF86FF012
:101C60000100C0E7E2B2844B1B68D97A824B5B6803
:101C700018783B4601F0D3FF10B14FF0FF30B2E7C8
:101C800095FBF4F0401E30700020ACE701467A4826
:101C900080F82210002070477CB5054676494968D7
:101CA000087801AB04220D2101F0B9FF08B107202B
:101CB0007CBD9DF80700C0F301109DF8041001F0F1
:101CC000E00140EAE1008DF800009DF80700C0F354
:101CD00081009DF8051001F0E00140EAE1008DF877
:101CE00001009DF8070000F003009DF8061001F0C8
:101CF000E00140EAE1008DF8020000241CE01DF83C
:101D0000040018B9002045F8240013E05B4845F8AA
:101D1000240006E055F82400594905F007FD45F870
:101D200024001DF80400401EC0B20DF80400002875
:101D3000F0D100BF601CC4B2032CE0DB0020B7E789
:101D40002DE9FE4F06460F4600256846FFF7A4FF23
:101D5000002442E056F8240057F82410A0EB010AB2
:101D6000BAF1000F01DB514601E0CAF1000108465B
:101D700005F07CFC83464FF08F4105F045FB804623
:101D80005DF82400002105F001FC16D05DF8241058
:101D9000404605F039FB82464FF07E5105F0CEFDFE
:101DA000814629F0004A3748416A504605F08AFDCD
:101DB00012D20120A04005430EE03248C1694046DE
:101DC00005F080FC05D32F48016A404605F07AFDF6
:101DD00002D20120A0400543641C032CBADB284634
:101DE000BDE8FE8F2DE9FC5F06460F46002522491F
:101DF0004968087801AB03220D2101F010FF10B1F2
:101E00000720BDE8FC9F9DF8040000F01F008DF83E
:101E100004009DF8050000F01F008DF805009DF8F6
:101E2000060000F01F008DF80600002462E056F85E
:101E3000240057F82410A0EB010BBBF1000F01DBCD
:101E4000594601E0CBF10001084605F00FFC4FF0C8
:101E50008F41009005F0D8FA814601A8005DC0B31B
:101E60000849086805F01AFC83465946064805F0FB
:101E7000CBFA80460FE00000140300207B14AE3E36
:101E80001D5A843F5883000800B04C45FE49404627
:101E900005F04CFC804601A8005D401EC0B201A9BF
:101EA00008550028F2D14146484605F0ADFA834670
:101EB0004FF07E5105F042FD82462AF0004BF34878
:101EC0008169584605F0FEFC13D20120A04005436D
:101ED0000FE0FFE7ED480169484605F0F3FB05D345
:101EE000EA484169484605F0EDFC02D20120A040D5
:101EF0000543641C032C9ADB284682E72DE9F04F4A
:101F000087B005460C46914601208DF81000002050
:101F10008DF81100DE4A1268917CDD4A5268107813
:101F200004AB022201F019FE20B14FF0FF3007B0E0
:101F3000BDE8F08FC82002F046FC00208DF81000AC
:101F4000D34A1268D17BD24A5268107804AB01227E
:101F500001F003FE10B14FF0FF30E8E7CC4A126801
:101F60005179CB4A5268107804AB012201F0F5FD9B
:101F700010B14FF0FF30DAE7C54A1268917CC44ACD
:101F80005268107804AB012201F0E7FD10B14FF068
:101F9000FF30CCE7BE4A1268D17DBD4A5268107846
:101FA00004AB012201F0D9FD10B14FF0FF30BEE7C4
:101FB000B74A12681179B64A5268107804AB012208
:101FC00001F0CBFD10B14FF0FF30B0E70C208DF8E1
:101FD0001000AF4A12681179AD4A5268107804AB0C
:101FE000012201F0BAFD10B14FF0FF309FE70F2042
:101FF00002F0E9FBA648806A407A8DF81000A44AF6
:1020000012689178A24A5268107804AB012201F05C
:10201000A4FD10B14FF0FF3089E79D48806A007A37
:102020008DF810009A4A12685178994A52681078CF
:1020300004AB012201F091FD10B14FF0FF3076E7C3
:10204000B9F1000F07D09248806A807A40F0E00032
:102050008DF8100004E08E48806A807A8DF81000B8
:102060008B4A126891798A4A5268107804AB01222F
:1020700001F073FD10B14FF0FF3058E7B9F1000FD8
:1020800007D08348806AC07A40F0E0008DF81000E5
:1020900003E07E48C07A8DF810007D4A1268D1793D
:1020A0007B4A5268107804AB012201F056FD10B152
:1020B0004FF0FF303BE7B9F1000F02D0C82002F02B
:1020C00082FB40208DF81000714A12681179704A25
:1020D0005268107804AB012201F03FFD10B14FF0BF
:1020E000FF3024E778208DF81000694A1268517992
:1020F000674A5268107804AB012201F02EFD10B13E
:102100004FF0FF3013E76149888902F05CFB002043
:102110008DF810005E4A126851795D4A5268107855
:1021200004AB012201F019FD10B14FF0FF30FEE6C3
:10213000574A1268917A564A5268107804AB0222C4
:1021400001F06DFD10B14FF0FF30F0E69DF8110089
:102150009DF8101040EA012B0C209BFBF0F0C6B25A
:102160000020A86068602860A060606020608246EF
:1021700065E0474A1268D17A454A5268107804AB44
:102180000C2201F04CFD10B14FF0FF30CFE69DF86E
:1021900011009DF8101040EA012000B2ADF80800CF
:1021A0009DF813009DF8121040EA012000B2ADF82E
:1021B0000A009DF815009DF8141040EA012000B2B5
:1021C000ADF80C00BDF90810206808442060BDF986
:1021D0000A10606808446060BDF90C10A0680844EB
:1021E000A0609DF817009DF8161040EA012000B28B
:1021F000ADF800009DF819009DF8181040EA012084
:1022000000B2ADF802009DF81B009DF81A1040EADC
:10221000012000B2ADF80400BDF9001028680844A0
:102220002860BDF90210686808446860BDF90410B0
:10223000A8680844A8600AF1010000F0FF0AB2454E
:1022400097DB1248D0F800C02868C117090441EA9A
:102250001041070462460023384603F0E2FC324690
:102260000023CDE9020103F0DCFC28600748D0F828
:1022700000C06868C117090441EA104107046246BA
:102280000023384606E0000054E3853F58830008E9
:102290001403002003F0C5FC32460023CDE90201FF
:1022A00003F0BFFC6860FE48D0F800C0A868C11702
:1022B000090441EA1041070462460023384603F04E
:1022C000B0FC32460023CDE9020103F0AAFCA8606D
:1022D000F348D0F804C02168C817000440EA114848
:1022E0000F04624600233846414603F09AFC32460A
:1022F0000023CDE9020103F094FC2060E848D0F807
:1023000004C06068C117090441EA1041070462462D
:102310000023384603F085FC32460023CDE9020154
:1023200003F07FFC6060DE48D0F804C0A068C117ED
:10233000090441EA1041070462460023384603F0CD
:1023400070FC32460023CDE9020103F06AFCA06074
:10235000A068002804DDA068A0F58030A06003E03C
:10236000A06800F58030A0600020E0E538B50446A4
:10237000CC4890F82400A04201D1002038BD24B3FD
:10238000C84890F8250010B94FF0FF30F6E700205C
:10239000FEF75EFB0020FEF77DFCC249C88CFEF70D
:1023A000DCFE00200090BF49496808786B46012296
:1023B000232101F0D2FB0121BA4880F8241001202A
:1023C000FEF746FBFEF70AFD13E00020FEF740FB98
:1023D000B448007C0090B349496808786B460122F4
:1023E000232101F0BAFB0021AE4880F82410FEF74B
:1023F000F5FC0020C2E72DE9F04F8DB083460F4673
:1024000002200C90A74890F8240020B10020FFF78C
:10241000ADFF012600E0002603A8FFF7E2F905A8BA
:10242000FFF7FFF901A8FFF720FA02A8FFF742FA29
:102430009C4890F80AA004A8FFF796FA002407E049
:10244000002239465846FFF759FD00B902E0641CE6
:10245000022CF5DB00BF022C01D1002528E000246E
:1024600007E0012206A909A8FFF748FD00B902E02C
:10247000641C022CF5DB00BF022C01D1002517E003
:1024800006A93846FFF75CFC00F0FF0809A958468A
:10249000FFF7A8FC00F0FF090025B9F1000F01D1FA
:1024A00045F00105B8F1000F01D145F0020500BF6C
:1024B000FF207C490872FF217A484172C1724FF6B1
:1024C000FF71C181FF218172017401210173BDF887
:1024D0000C00FEF7D0FE9DF81400FEF78AFEBDF852
:1024E0000400FEF78EFDBDF80800FEF736FE5046EC
:1024F000FEF76BFB9DF81000FEF74EFD16B10120B4
:10250000FFF734FF28460DB0BDE8F08FF8B504465C
:102510000D46164616B94FF0FF30F8BD6148807A77
:1025200010B94FF0FF30F8E720128DF80000E0B24C
:102530008DF801009DF8010028445A4949684989ED
:10254000884202DD4FF0FF30E7E7564A1268117EFD
:10255000544A526810786B46022201F0FEFA10B11C
:102560004FF0FF30D9E7EAB24E4B1B68597D4D4B17
:102570005B681878334601F0F0FA10B14FF0FF3085
:10258000CBE70020C9E7F8B504460D46164616B954
:102590004FF0FF30F8BD4348807A10B94FF0FF305C
:1025A000F8E720128DF80000E0B28DF801009DF8E8
:1025B000010028443B4949684989884202DD4FF0BF
:1025C000FF30E7E7374A1268117E364A52681078C2
:1025D0006B46022201F0C1FA10B14FF0FF30D9E78B
:1025E000EAB2304B1B68597D2E4B5B681878334636
:1025F00001F015FB10B14FF0FF30CBE70020C9E729
:102600002DE9F04385B005460E469046994625488B
:1026100090F8250020B14FF0FF3005B0BDE8F08301
:1026200016B94FF0FF30F8E7002423E0281B1028EC
:1026300001DD102000E0281B87B232193946204600
:10264000FFF764FF10B14FF0FF30E6E701AA39460B
:102650002046FFF798FF10B14FF0FF30DDE730194B
:102660003A4601A903F0A6FB10B16FF00100D4E7D0
:10267000E01984B2AC42D9DB4FEA28208DF8000083
:1026800008F0FF008DF80100064A1268917E054AA5
:10269000526810786B46022201F05FFA38B103E00D
:1026A00058830008140300204FF0FF30B5E70121E4
:1026B0008A4880F82510A0F826900020ADE7014652
:1026C000864890F8240008700020704702464FF0BA
:1026D000FF30704701464FF0FF307047F8B50546B0
:1026E0000F461446002C70D0B5F5FF5F01DDFF26C4
:1026F00005E0202D01DA012601E0C5F3471607B9F0
:102700000127282C02DD4FF0FF30F8BD7348407DD3
:1027100028BB724890F8240038B10020FFF726FE4D
:1027200001216E4880F8201003E000216B4880F8FA
:1027300020106A481630FFF754F868481830FFF741
:1027400070F866481A30FFF790F864481C30FFF7BD
:10275000B1F86248817A81771F30FFF705F90020D0
:10276000FEF776F90020FEF78BFC00208DF80000C4
:102770005A4A12689178594A526810786B46012279
:1027800001F0EBF910B14FF0FF30BEE740208DF8BB
:102790000000524A1268D17B504A526810786B464A
:1027A000012201F0DAF900B165E08DF800608DF8E2
:1027B00001704A4A1268117A484A526810786B468A
:1027C000022201F0CAF908B155E047E0052001F006
:1027D000FAFF4248407A072101EBC000C0B28DF8F1
:1027E00000003E4A1268D1793C4A526810786B4624
:1027F000012201F0B2F900B13DE020208DF8000087
:10280000012C03D100208DF801000EE0052C03DC23
:1028100001208DF8010008E0142C03DC02208DF863
:10282000010002E003208DF801009DF8010007215E
:1028300001EB8010C0B28DF80100284A1268917C2B
:10284000264A526810786B46022201F086F900B1E0
:1028500011E0012121484175002056E71F4A163238
:10286000002103E0505C00B105E0491C0C29F9D3BC
:102870004FF0FF3049E7FF2018490872FF21174841
:102880004172C1724FF6FF71C181FF2181720174E3
:10289000012101730146887FFEF797F90F49C88A25
:1028A000FEF7E9FC0D49087EFEF7A3FC0B49488BB7
:1028B000FEF7A7FB0949888BFEF74FFC0749C87F45
:1028C000FEF76AFB054890F8200010B10120FFF7E1
:1028D0004DFD002101484175002016E7140300203A
:1028E00010B5C8234FF48062F74940F6F630FFF781
:1028F00087FE10BD10B586B00446F4A000680390B2
:10290000F3A000680290F3A000680190F2A00068B4
:10291000009004F0030003A9085C8DF8140003A8DC
:10292000C4F3C101405C8DF8150003A8C4F3811104
:10293000405C8DF8160004F0030002A9085C8DF8D5
:10294000100002A8C4F3C101405C8DF8110002A878
:10295000C4F38111405C8DF8120005AA032140F2F6
:102960002640FFF7D3FD18B14FF0FF3006B010BD81
:1029700004AA032140F22A40FFF7C8FD10B14FF02E
:10298000FF30F3E7019805900098049004F00400EC
:1029900058B19DF8140040F001008DF814009DF826
:1029A000100040F001008DF8100004F0200058B134
:1029B0009DF8150040F001008DF815009DF81100FC
:1029C00040F001008DF8110004F4807058B19DF8BA
:1029D000160040F001008DF816009DF8120040F03E
:1029E00001008DF8120005AA03214FF48860FFF75B
:1029F0008DFD10B14FF0FF30B8E704AA032140F27B
:102A00003140FFF783FD10B14FF0FF30AEE7B34820
:102A100004810020AAE71FB50446B048007A00F000
:102A2000030054F820000190AC48007A00F0040044
:102A300010B1019840420190A848007AC0F3C1004B
:102A400054F820000290A548007A00F0200010B150
:102A5000029840420290A148007AC0F3811054F8D5
:102A6000200003909D48008900F4807010B1039805
:102A7000404203909A49019880FB0101800F40EA8F
:102A8000810001909649029880FB0110820042EA81
:102A9000917002909249039880FB0110820042EAF3
:102AA000917003900198000E8DF800000198000CC1
:102AB0008DF801000198000A8DF802000198C0B25B
:102AC0008DF803006A4604214FF47470FFF71EFD71
:102AD00018B14FF0FF3004B010BD0298000E8DF811
:102AE00000000298000C8DF801000298000A8DF891
:102AF00002000298C0B28DF803006A4604214FF428
:102B00007570FFF703FD10B14FF0FF30E3E7039856
:102B1000000E8DF800000398000C8DF8010003985A
:102B2000000A8DF802000398C0B28DF803006A46CF
:102B300004214FF47670FFF7E9FCCCE770B588B05C
:102B4000064601A8FEF7E9FEBDF804000021C9030E
:102B500041EA5045C4036148007A00F0030056F88A
:102B6000200005905D48007A00F0040010B105983F
:102B7000404205905948007AC0F3C10056F8200041
:102B800006905648007A00F0200010B106984042A6
:102B900006905248007AC0F3811056F82000079042
:102BA0004E48008900F4807010B1079840420790A9
:102BB0000598C117A0FB042301FB043100FB05109D
:102BC000810041EA927005900698C117A0FB04238A
:102BD00001FB043100FB0510810041EA9270069070
:102BE0000798C117A0FB042301FB043100FB05106B
:102BF000810041EA927007900598000E8DF8080058
:102C00000598000C8DF809000598000A8DF80A0057
:102C10000598C0B28DF80B000698000E8DF80C00D8
:102C20000698000C8DF80D000698000A8DF80E002D
:102C30000698C0B28DF80F000798000E8DF81000AE
:102C40000798000C8DF811000798000A8DF8120003
:102C50000798C0B28DF8130002AA0C214FF425701A
:102C6000FFF754FC08B070BD30B585B004461DA216
:102C700007CA02AB07C3C82C03DD4FF0FF3005B015
:102C800030BDC82090FBF4F0401E85B2280A8DF8B4
:102C90000000E8B28DF801006A46022140F21620D9
:102CA000FFF734FC10B14FF0FF30E8E702AA0C2127
:102CB00040F6C120FFF72AFC10B14FF0FF30DEE7ED
:102CC000064884810020DAE7808300084CCD6C0040
:102CD0000CC92C003656760026466600080C0020EB
:102CE00009E3CA02FEF2ABC4AAF1DFDFBBAFDFDF4C
:102CF0000146FC4880890880002070472DE9FC4788
:102D000006460F4606F0070010B1B7F5C86F03DDA1
:102D10004FF0FF30BDE8FC87384604F0BFFC814629
:102D2000F14904F071FB80466846FEF77AFD9DF894
:102D30000000022806D0042816D0082826D0102823
:102D400048D135E04FF08D41404604F0EFFC81461C
:102D500004F06CFC84B2E549404604F0E7FC81468F
:102D600004F064FC85B238E04FF08C41404604F03A
:102D7000DDFC814604F05AFC84B2DD49404604F093
:102D8000D5FC814604F052FC85B226E04FF08B4121
:102D9000404604F0CBFC814604F048FC84B2D5499F
:102DA000404604F0C3FC814604F040FC85B214E0C8
:102DB0004FF08A41404604F0B9FC814604F036FCED
:102DC00084B2CD49404604F0B1FC814604F02EFCAB
:102DD00085B202E04FF0FF309CE700BF20128DF873
:102DE0000400E0B28DF8050028128DF80600E8B264
:102DF0008DF8070006F00100A0B101AA02214FF4EE
:102E0000EA70FFF783FB10B14FF0FF3082E70DF15E
:102E1000060202214FF49270FFF778FB10B14FF0D9
:102E2000FF3077E706F00200A0B101AA02214FF4BB
:102E3000EC70FFF76BFB10B14FF0FF306AE70DF15C
:102E4000060202214FF49470FFF760FB10B14FF0BF
:102E5000FF305FE706F00400A0B101AA02214FF4A1
:102E6000EE70FFF753FB10B14FF0FF3052E70DF15A
:102E7000060202214FF49670FFF748FB10B14FF0A5
:102E8000FF3047E7002045E738B5044600200090B2
:102E900004F0010020B19DF8000040F030000090E7
:102EA00004F0020020B19DF8000040F00C000090FA
:102EB00004F0040020B19DF8000040F003000090F1
:102EC0006A4601214FF4A470FFF720FB38BD38B5E6
:102ED0000446012C01DA012402E0042C00DD042464
:102EE000601EC0B200906A46012140F24F10FFF709
:102EF0000DFB38BD38B50446052094FBF0F085B2D3
:102F000028128DF80000E8B28DF801006A4602210F
:102F10004FF4EF70FFF7FAFA38BD38B504460520D4
:102F200094FBF0F085B228128DF80000E8B28DF81D
:102F300001006A4602214FF4ED70FFF7E7FA38BD51
:102F4000F8B505460E464FF47A7095FBF0F000FB9D
:102F500006F4200E8DF80000200C8DF80100200AE8
:102F60008DF80200E0B28DF803006A4604214FF4A8
:102F7000AE70FFF7CBFAF8BD38B50446052094FBD8
:102F8000F0F084B220128DF80000E0B28DF801005C
:102F90006A4602214FF4AD70FFF7B8FA38BD38B574
:102FA0000446052094FBF0F084B220128DF8000056
:102FB000E0B28DF801006A4602214FF4AC70FFF7D1
:102FC000A5FA38BD38B5044614B94FF0FF3038BD06
:102FD0006A4604214FF45870FFF7D5FA10B14FF04C
:102FE000FF30F4E79DF8000000069DF8011040EA6C
:102FF00001409DF8021040EA01209DF803100843AB
:1030000020600020E3E738B50446200E8DF800006C
:10301000200C8DF80100200A8DF80200E0B28DF836
:1030200003006A4604214FF45870FFF76FFA38BD69
:1030300038B5044614B94FF0FF3038BD6A46042154
:103040004FF47170FFF79FFA10B14FF0FF30F4E7C3
:103050009DF8000000069DF8011040EA01409DF82F
:10306000021040EA01209DF80310084300EB8000A5
:10307000800020600020E0E738B504461420B4FB4F
:10308000F0F4200E8DF80000200C8DF80100200ACD
:103090008DF80200E0B28DF803006A4604214FF477
:1030A0007170FFF733FA38BD38B5044664B120209B
:1030B0008DF8000028208DF8010030208DF80200E6
:1030C00038208DF8030004E0A3220421684602F0B2
:1030D0009DFE6A46042140F69E20FFF717FAFDF791
:1030E0007DFE38BD080C002000004843000040462B
:1030F0000000C045000040450000C04438B504460B
:1031000064B1C0208DF80000C2208DF80100C420F9
:103110008DF80200C6208DF8030004E08B22042104
:10312000684602F073FE6A46042140F69820FFF7D5
:10313000EDF9FDF753FE38BD3EB504466CB1FDA177
:10314000D1E900208968CDE9002002916A46092171
:103150004FF49760FFF7DAF93EBDF9A2D2E900100B
:103160009268CDE9010200916A4609214FF4976007
:10317000FFF7CCF9F0E73EB5044602208DF80000D9
:10318000CA208DF80100E3208DF8020009208DF897
:1031900003006A4604216820FFF7B8F9A3208DF8E0
:1031A000000004F0400048B1C0208DF80100C820A4
:1031B0008DF80200C2208DF8030006E0A3208DF8F0
:1031C00001008DF802008DF8030004F4C07048B1CE
:1031D000C4208DF80400CC208DF80500C6208DF8A1
:1031E000060006E0A3208DF804008DF805008DF898
:1031F0000600A3208DF807008DF808008DF809005F
:103200006A460A2140F6A720FFF780F904F0030080
:1032100018B120208DF8000002E0D8208DF80000C1
:103220006A46012140F6B620FFF770F904F020004D
:1032300018B10120FFF780FF02E00020FFF77CFFBC
:1032400004F4C07008B304F4807060B1B2208DF84B
:1032500000008B208DF80100B6208DF802009B2025
:103260008DF803000BE0B0208DF8000080208DF871
:103270000100B4208DF8020090208DF803006A460A
:10328000042140F6A220FFF741F904F0010020B329
:10329000F8208DF800006A4601214FF40B60FFF71B
:1032A00035F9FA210720FFF729FD0720FFF7ECFD8C
:1032B0000120FFF70CFE6420FFF71CFE4FF4FA70AC
:1032C000FFF72BFEC821A148FFF73AFE2820FFF7A1
:1032D00053FE0A20FFF763FE08E0D8208DF80000B7
:1032E0006A4601214FF40B60FFF710F904F0020069
:1032F00018B1D9208DF8000002E0D8208DF8000028
:103300006A46012140F23D70FFF700F904F0040025
:1033100018B10120FFF7F2FE02E00020FFF7EEFEF9
:1033200004F0100018B10120FFF7BEFE02E00020FB
:10333000FFF7BAFE44F0080085494881FDF74EFDCD
:1033400000208349887304F0400018B10846807B50
:10335000801D887304F4C07020B17D48807B801D7F
:103360007B49887304F0140020B17948807B1030C9
:103370007749887304F0030020B17548807B001DF5
:103380007349887300203EBD01467148408908801A
:10339000002070472DE9F0410446E07800F0C006B7
:1033A000E07800F03F05607800F0010098B1EF1080
:1033B0002846E91705EB5171C910A5EBC101491C5D
:1033C00001F0FF086248006820B161484146026888
:1033D0003846904700BF607800F0080030B15C4884
:1033E000406818B1B0115A4A516888470020BDE8BA
:1033F000F08110B586B0044656A207CA03AB07C3D6
:1034000057A207CA8DE80700012C09D0022C0ED163
:1034100003AA0B2140F68220FFF778F806B010BD12
:103420006A460B2140F68220FFF770F8F6E74FF06E
:10343000FF30F3E72DE9F04F8DB00746884615467B
:103440009946DDE9166B0024002030804049887BD6
:103450005A4605A9FEF7BDFB18B1601E0DB0BDE8C8
:10346000F08F3B48807A00F01400002861D09DF86E
:10347000140000069DF8151040EA01409DF8161052
:1034800040EA01209DF81710084328609DF81800B5
:1034900000069DF8191040EA01409DF81A1040EA14
:1034A00001209DF81B10084368609DF81C00000671
:1034B0009DF81D1040EA01409DF81E1040EA0120D1
:1034C0009DF81F100843A8609DF8200000069DF895
:1034D000211040EA01409DF8221040EA01209DF8A9
:1034E00023100843E86004F11000C4B228680014F7
:1034F0000190686800140290A86800140390E868BE
:103500000014049001984043029901FB01000399C3
:1035100001FB0100049901FB010ABAF1706F02DBA3
:10352000BAF1885F22DDFDF759FC00203080401E93
:1035300094E721E0B8AAB38DB4980D355D00000082
:10354000B8AAAAAAB088C3C5C700000009E3CA0286
:10355000080C0020D8B1B9F38BA391B609B4D900F7
:10356000DAB1B9F38BA391B6DAB4DA00B6F9000098
:1035700040F48070308000BF3448807A00F0400012
:1035800020B305A9601C085C095D40EA012000B277
:10359000A8F8000005A9E01C095C05AAA01C105CA5
:1035A00041EA002000B2A8F8020005A9601D095CEC
:1035B000201D105C41EA002000B2A8F80400A01D04
:1035C000C4B2B6F9000040F0080030801F484089BE
:1035D00000F4C07008B305A9601C085C095D40EAEE
:1035E000012000B2388005A9E01C095C05AAA01CD6
:1035F000105C41EA002000B2788005A9601D095CDA
:10360000201D105C41EA002000B2B880A01DC4B2A9
:10361000B6F9000040F0700030800C48807A00F06D
:10362000030018B105A90819FFF7B4FE4846FDF7D5
:1036300034FF002012E70146044801600020704773
:10364000014602484160002070470000080C00203D
:103650002DE9F04105460C46AA480168204604F0D1
:103660006DF90746A8480168384604F05FF8064639
:10367000A6480168304603F059FEA4490860A448F2
:103680004168A448006804F059F90646A0488168DA
:10369000304604F053F9A04908609D48C06880F0A6
:1036A000004048609A48C06880F0004088609B48AD
:1036B0000068C86008689449096804F037F806464D
:1036C00093480168304603F031FE91490860924901
:1036D00048688D49096804F029F806468C48416815
:1036E000304603F023FE8A4948608B498868864942
:1036F000096804F01BF8064685488168304603F0E7
:1037000015FE834988608449C8687F49096804F0C8
:103710000DF806467E48C168304603F007FE7C4936
:10372000C8607A480168284604F008F97C490860B6
:103730007C48007803F0B2FF0646754801683046C1
:1037400003F0F4FF784908607648007803F0A6FF9C
:1037500006466F488168304603F0E8FF7349086009
:103760007048007803F09AFF07466F4801683846B2
:1037700003F0DCFF06466E480168304603F0D6FDD4
:103780006C490860084601686748006803F03CFE21
:1037900069490860674801686448006803F034FEBE
:1037A0006649086060480068654908605D480078BF
:1037B00003F074FF064656484168304603F0B6FFF2
:1037C000604908605E4801685B48006803F0AEFF2E
:1037D00006464F480168304604F0A5F84C49086099
:1037E000584801685448006803F0A0FF064648485E
:1037F0004168304604F097F84549486050480168F0
:103800004E48006803F092FF064641488168304602
:1038100004F089F83E4988604A48016847480068D2
:1038200003F084FF06463A48C168304604F07BF84E
:103830003749C8603A4801683F48006803F076FF9E
:10384000064632480168304603F070FD2F49086093
:10385000334801683948006803F068FF0646294884
:103860000168304603F062FD264908600846016899
:10387000204604F063F834490860BDE8F0812DE982
:10388000F04F8BB083468A46504603F023FD8046B6
:103890002E4A2F4B03F044FACDE902011B48006881
:1038A00003F018FDCDE90001DDE9022303F030F853
:1038B00004460D46274801684FF07E5004F03EF85C
:1038C000804603F007FD064622462B4603F028FA01
:1038D000CDE906011F480168584603F027FF04465A
:1038E00003F0F8FCCDE90401DDE9062303F010F84C
:1038F000CDE9080102F0DAFF044908600BB0BDE829
:10390000F08F0000600300205803002044030020D3
:10391000840300204C030020180C002050030020DA
:10392000640300205C030020680300206C03002077
:10393000540300207003002074030020780300204B
:103940007C03002080030020480300207B14AE4746
:10395000E17A743F40030020F948806940F0040098
:10396000F7498861F74800684FF20F018843F5492D
:1039700008600846006843F203010843F149086003
:10398000704710B5EF48006820F00F00ED4908605F
:103990000846006840F0030008600120EA4908601A
:1039A000EA48D0F8200108B9002010BD0120E649FE
:1039B0000C31086000F0E3FE0020E449C1F8A001EA
:1039C000E1488038006808B10020EEE7012000F0EF
:1039D000D6FE0020DC490C3108600120E5E710B577
:1039E000D848006820F00F00D649086008460068F3
:1039F00040F0030008600020D3490C310860D3492F
:103A0000C1F8A001012000F0BAFE0120CE490C311E
:103A10000860CE49C1F8A00100F0B1FE10BD10B59C
:103A20000024C848006820F00F00C6490860084616
:103A3000006840F0080008600120C349086000F0F9
:103A40009EFE0120C149C1F8AC0100F098FE0AE0D9
:103A5000601CC4B2322C03DDFFF7C1FF002010BD93
:103A6000012000F08CFEB848803800680028EFD1B3
:103A7000B5490C3108600120F1E710B50020B249CA
:103A80000C310860AF48006820F00F00AD490860B5
:103A90000846006840F0030008600020AB49C1F808
:103AA000A001012000F06BFE0120A7490C31086045
:103AB00000F065FE0020A549C1F8AC0110BD10B5AD
:103AC0000020A1490C3108609E48006820F00F00DA
:103AD0009C4908600846006840F003000860012027
:103AE0009A49C1F8A00100F04AFE012096490C3124
:103AF000086000F044FE00209449C1F8AC0110BDFC
:103B000070B504468F48006820F00F008D490860AA
:103B10000846006840F00300086000208A490C3124
:103B20000860002516E0E009874908606006040E79
:103B3000012000F024FE01208449C1F8AC0100F00E
:103B40001EFE002080490C310860012000F017FEA5
:103B5000681CC5B2082DE6DB70BD2DE9F0410546B5
:103B60000E4617469846FFF70CFF10B90120BDE836
:103B7000F0816906080EFFF7C3FFFFF750FF18B981
:103B8000FFF72DFF0120F2E73046FFF7B9FFFFF7FF
:103B900046FF00240BE018F80400FFF7B1FFFFF721
:103BA0003EFF18B9FFF71BFF0020E0E7641CBC4292
:103BB000F1DBFFF714FF0020D9E770B505460024BC
:103BC0006048006820F00F005E4908600846006801
:103BD00040F008000860002617E000205A490C3128
:103BE0000860022000F0CBFD01205849C1F8AC016B
:103BF0006006040E54488038006808B1601CC4B2E6
:103C0000022000F0BCFD701CC6B2082EE5DB15B129
:103C1000FFF733FF01E0FFF752FF204670BD2DE9AB
:103C2000F04106460F4614461D46FFF7AAFE10B99E
:103C30000120BDE8F0817106080EFFF761FFFFF774
:103C4000EEFE18B9FFF7CBFE0120F2E73846FFF78A
:103C500057FFFFF7E4FEFFF794FE012101EB460159
:103C6000C8B2FFF74DFFFFF7DAFE0DE0012C04D1DB
:103C70000020FFF7A2FF287003E00120FFF79DFF5F
:103C800028706D1C601EC4B2002CEFD1FFF7A7FE98
:103C90000020CEE770B505460E460024FFF771FE02
:103CA0002846FFF72DFF641CFFF7B9FE3046FFF7EB
:103CB00027FF641CFFF7B3FEFFF763FE691CC8B261
:103CC000FFF71EFF641CFFF7AAFE0020FFF775FF39
:103CD0000446FFF784FE204670BD2DE9F0410746FB
:103CE000884615461E460024FFF74BFE3846FFF770
:103CF00007FFFFF794FE4046FFF702FFFFF78FFE36
:103D0000FFF73FFE791CC8B2FFF7FAFEFFF787FE08
:103D100000BF0DE0681EA04204D00120FFF74DFF58
:103D2000305503E00020FFF748FF3055601CC4B257
:103D3000AC42EFDBFFF753FE2046BDE8F081000008
:103D40000010024004080140A0012142000021426D
:103D50002DE9F04180460D4616461F460024FFF728
:103D600010FE4046FFF7CCFEFFF759FE2846FFF74E
:103D7000C7FEFFF754FE00BF06E0385DFFF7C0FE48
:103D8000FFF74DFE601CC4B2B442F6DBFFF727FE1E
:103D90000120BDE8F08170B505460E461446314657
:103DA0002846FFF777FF2070012070BD37B5044625
:103DB0000D4602AB012229462046FFF7C9FF3EBD52
:103DC0002DE9F8430746884614461D46089E6A4674
:103DD00041463846FFF7DFFF28B3601CFF2101FA98
:103DE00000F0C4F108012944491EFF220A41104392
:103DF00000F0FF09C5F1080006FA00F0C6B2C4F1F0
:103E0000070006419DF8000000EA090000909DF8B7
:103E10000000304300909DF8002041463846FFF7EF
:103E2000C5FFBDE8F8830020FBE7F8B506460F465E
:103E300014461D466A4639463046FFF7ACFF2DB1A1
:103E40000120A0409DF80010084305E00120A0409B
:103E50009DF8001021EA0000C0B200909DF80020FB
:103E600039463046FFF7A2FFF8BD0000014691F940
:103E70000020002A01DD00201EE091F90020002A28
:103E800001DA042018E091F90120002A01DD012067
:103E900012E091F90120002A01DA05200CE091F9E5
:103EA0000220002A01DD022006E091F90220002A0A
:103EB00001DA062000E00720704770B50546284665
:103EC000FFF7D4FF0446E81CFFF7D0FF44EAC00028
:103ED00084B2A81DFFF7CAFF44EA801084B22046CE
:103EE00070BD70B588B002A905A8FEF784FA044633
:103EF000072C3FD101A8FDF7F3FC059803F0B6FBB2
:103F00000646019903F012FC054603F073FB059089
:103F1000069803F0ABFB0646019903F007FC054643
:103F200003F068FB0690079803F0A0FB0646019992
:103F300003F0FCFB054603F05DFB079005A8FEF7C8
:103F40006AFD6846FDF7E9FCBDF800100298484399
:103F50000290BDF80010039848430390BDF800108C
:103F600004984843049002A8FEF7E8FDFEA001F083
:103F70007DFE00BF08B070BD2DE9F04304460D463C
:103F8000DDE907670021012041E0DFF800C43CF8CB
:103F90001080A0F1010CDFF8F49329F81C8009F1DE
:103FA000160C3CF81090A0F1010CDFF8E08308F14A
:103FB000160828F81C9008F1160C3CF81090A0F197
:103FC000010C08F1160828F81C9008F1160C3CF8B2
:103FD0001090A0F1010C08F1160828F81C9008F1C7
:103FE000160C3CF81090A0F1010C08F1160828F806
:103FF0001C9008F1160C3CF81090A0F1010C08F18F
:10400000160828F81C9000F1010C0CF0FF000A289B
:10401000BBDBDFF878C3ACF81240ACF82850ACF842
:104020003E20ACF85430ACF86A60ACF880700021E7
:10403000002008E0DFF854C33CF910C0614400F1EF
:10404000010C0CF0FF000A28F4DB4FF00A0C91FB86
:10405000FCFC0FFA8CFCDFF83483A8F814C00021B4
:1040600000200AE0DFF824C30CF1160C3CF910C064
:10407000614400F1010C0CF0FF000A28F2DB4FF064
:104080000A0C91FBFCFC0FFA8CF8DFF800C3ACF8CB
:104090002A80002100200AE0DFF8F0C20CF12C0C8D
:1040A0003CF910C0614400F1010C0CF0FF000A283B
:1040B000F2DB4FF00A0C91FBFCFC0FFA8CF8DFF8F6
:1040C000CCC2ACF84080002100200AE0DFF8BCC27E
:1040D0000CF1420C3CF910C0614400F1010C0CF0F1
:1040E000FF000A28F2DB4FF00A0C91FBFCFC0FFAF0
:1040F0008CF8DFF898C2ACF85680002100200AE066
:10410000DFF888C20CF1580C3CF910C0614400F192
:10411000010C0CF0FF000A28F2DB4FF00A0C91FBB7
:10412000FCFC0FFA8CF8DFF864C2ACF86C8000215C
:1041300000200AE0DFF854C20CF16E0C3CF910C00C
:10414000614400F1010C0CF0FF000A28F2DB4FF093
:104150000A0C91FBFCFC0FFA8CF8DFF830C2ACF8CB
:104160008280BDE8F08338B50446032302226B2128
:10417000D0200094FFF724FE38BD38B50446022352
:1041800004221B21D0200094FFF71AFE38BD38B559
:104190000446022304221C21D0200094FFF710FEC5
:1041A00038BD10B50446234606226B21D020FFF708
:1041B0003CFE10BD10B5764B01227521D020FFF7D3
:1041C0008CFD7348007810BD10B5FFF7F3FF682829
:1041D00001D1012010BD0020FCE710B504462346A4
:1041E00005226A21D020FFF720FE10BD10B504463D
:1041F000234601223721D020FFF717FE10BD10B54E
:104200000220FFF7B0FF0320FFF7B7FF0020FFF702
:10421000BEFF0020FFF7C5FF0020FFF7DEFF0020F4
:10422000FFF7E4FF10BD38B5002000906B46012277
:1042300075216820FFF7F3FC56A001F017FD9DF8EB
:10424000000068280ED000BF5B48006800F4E06002
:104250005A490843001D58490860BFF3408F00BF0A
:1042600000BFFEE7FDF749F800283CD17820FCF7B5
:10427000ACFC10B947A001F0F9FC7820FCF78CFEEB
:1042800010B94FA001F0F2FCC820FCF766FF10B98E
:1042900055A001F0EBFCFEF723FB10B95CA001F088
:1042A000E5FC6848FFF709FE0446FEF723FB10B95A
:1042B00065A001F0DBFC40F27310FEF75CFF10B963
:1042C0006BA001F0D3FCC820FEF7CEFC10B972A0A1
:1042D00001F0CCFCFFF705FE0120FEF747F810B90E
:1042E00076A001F0C3FC38BD2DE9F04F8FB00CA8CB
:1042F0007B490DAB08AACDE900107A497A48FFF74F
:1043000099F87748008800F4807000282AD008982F
:1043100003F0ACF904464FF09D4103F075F8734982
:104320000860099803F0A2F904464FF09D4103F09C
:104330006BF86F4908600A9803F098F904464FF04B
:104340009D4103F061F86B4908600B9803F08EF90A
:1043500004464FF09D4103F057F8674908606348F1
:104360000168CBE0A0E1000073657474696E67209A
:10437000626961732073756363657366756C6C79CC
:10438000202E2E2E2E2E2E0D0A000000360C002080
:10439000280C00206D70755F7365745F73656E73B4
:1043A0006F7220636F6D706C657465202E2E2E2EDB
:1043B0002E2E0D0A000000000CED00E00000FA05B2
:1043C0006D70755F636F6E6669677572655F66694C
:1043D000666F20636F6D706C657465202E2E2E2EB7
:1043E0002E2E0D0A000000006D70755F7365745FFE
:1043F00073616D706C655F7261746520636F6D7061
:104400006C657465202E2E2E2E2E2E0D0A000000B7
:10441000646D705F6C6F61645F6D6F74696F6E5F08
:104420006472697665725F6669726D776172652024
:10443000636F6D706C657465202E2E2E2E2E2E0DE2
:104440000A000000C0030020646D705F7365745F34
:104450006F7269656E746174696F6E20636F6D70E1
:104460006C657465202E2E2E2E2E2E0D0A00000057
:10447000646D705F656E61626C655F6665617475C1
:10448000726520636F6D706C657465202E2E2E2E04
:104490002E2E0D0A00000000646D705F7365745F5E
:1044A0006669666F5F7261746520636F6D706C65BD
:1044B0007465202E2E2E2E2E2E0D0A006D70755F27
:1044C0007365745F646D705F737461746520636F8E
:1044D0006D706C657465202E2E2E2E2E2E0D0A000A
:1044E000A00300209A03002094030020B0030020C2
:1044F000B4030020B8030020BC0300204FF080402C
:1045000003F014F9069085480168069803F00EF947
:104510008246834801684FF0404003F007F9069057
:1045200080480168069803F001F98346514602F07D
:10453000FDFE079002F0CEFE804601F081FE0646A9
:104540004FF06632784B02F0EBFB044602F0AEF916
:1045500076490860714801684FF0804003F0E6F842
:1045600003906E480168039803F0E0F882466C48B7
:1045700001684FF0404003F0D9F8039068480168A3
:10458000039803F0D3F88346514603F0D7F98146E8
:104590004FF07E5102F0CAFE044602F09BFECDE9C8
:1045A0000401634801684FF0804003F0BFF8834680
:1045B0005B480168584603F0B9F8814657480168DE
:1045C0004FF0804003F0B2F88346564801685846E1
:1045D00003F0ACF88246494602F0A8FE044602F019
:1045E00079FE0746DDE9042302F07AF84FF06632DF
:1045F0004D4BCDE9060102F093FB054602F056F95A
:104600004C49086047480168006803F08FF8039040
:1046100042480168006803F089F802904048016848
:10462000006803F083F8834641480168006803F09E
:104630007DF85946019002F079FE8246029903F016
:104640007DF98146039903F079F9044602F042FEB0
:10465000CDE90401334801683548006803F066F885
:1046600082462E4801682E48006803F05FF88346B2
:10467000514602F05BFE81464FF0804103F056F850
:10468000044602F027FE0746DDE9042302F028F87D
:104690004FF06632244BCDE9060102F041FB05469E
:1046A00002F004F9244908600FB0BDE8F08F2DE94D
:1046B000F05F4221D020FFF7EDFA05464121D020DE
:1046C000FFF7E8FA05EB0024204602F0CFFF824610
:1046D0004FF08E41504603F0F5F805D24FF08F4170
:1046E000504603F02BF982461449504602F08CFEE6
:1046F000834602F0EFFD8046114A124B02F008F9A2
:1047000006460022104B02F00BFB044602F0CEF8E6
:104710008246504602F06EFFBDE8F09FB8030020CD
:10472000B4030020BC03002066A64C40A403002074
:10473000B0030020A8030020AC0300200000AA431F
:10474000A4703D0AD74342400000244010B56FF0EA
:10475000040000F0C2FC2E4800682E49B0FBF1F0C6
:104760002D4908700846007800EB4001C1EBC010ED
:104770004FF6FF7101EAC0002849088010BD0146CC
:10478000254A12784A434FF0E0235A6100229A6189
:104790001A46126942F001021A6100BF4FF0E0228E
:1047A000106900F001021AB100F48032002AF5D03D
:1047B0004FF0E022126922F001024FF0E0231A616B
:1047C00000229A6170470146144A12884A434FF00A
:1047D000E0235A6100229A611A46126942F00102EE
:1047E0001A6100BF4FF0E022106900F001021AB117
:1047F00000F48032002AF5D04FF0E022126922F056
:1048000001024FF0E0231A6100229A617047000014
:104810000000002000127A00D0030020D203002004
:1048200010B54FF4A06000F009FC10BD2DE9FF4762
:104830008246BAF1010F7DD04621D020FFF72AFA37
:1048400005464521D020FFF725FA05EB0024204638
:1048500002F00CFFFC4908604021D020FFF71AFA53
:1048600005463F21D020FFF715FA05EB002420462E
:1048700002F0FCFEF54908603C21D020FFF70AFA5F
:1048800005463B21D020FFF705FA05EB0024204622
:1048900002F0ECFEEE4908603E21D020FFF7FAF965
:1048A00005463B21D020FFF7F5F905EB0024204613
:1048B00002F0DCFEE74908604FF08E41E2480068F4
:1048C00003F000F807D24FF08F41DF48006803F093
:1048D00035F8DD4908604FF08E41DC48006802F091
:1048E000F1FF07D24FF08F41D848006803F026F857
:1048F000D64908604FF08E41D548006802F0E2FFCB
:1049000007D24FF08F41D248006803F017F8D04922
:104910000860CE48006802F0DDFC80468946CC483D
:10492000006802F0D7FC42464B46CDE9000101F099
:10493000D7FE00E03DE006460022C74B02F0F0F94A
:104940000446C64AC64B02F093F8CDE9020101F0D5
:10495000ADFFC0490860BC48006802F0BBFC0446DB
:104960004FF06632BF4B02F083F8064601F09EFF1F
:10497000B5490860BC480078022809D1084600689B
:1049800080F000442146B3480068FEF761FE0CE069
:10499000B5480078032808D1AB48006880F000448F
:1049A0002146AC480068FEF76AFFB0480068B0498D
:1049B0000860BDE8FF8730B502460B464FF6FF7032
:1049C000002112E0555C684000240AE000F0010577
:1049D00025B14AF2010585EA600000E04010651C3F
:1049E000ECB2082CF2DB4D1CE9B29942EADB30BD97
:1049F00070B590B0064600200C900D900E900F9070
:104A0000089009900A900B90059006900790002559
:104A1000002406E056F8240001A941F82400601C97
:104A2000C4B2042CF6DB00240FE001A951F82400E5
:104A300002F0E0FD0CA941F824000CA850F8240075
:104A400008A941F82400601CC4B2042CEDDB00244A
:104A500011E008A810F8240005A901F8140008A81E
:104A600030F82400C0F30720012101EB440105AA1E
:104A70005054601CC4B2042CEBDB082105A8FFF7DE
:104A80009AFF05462846E91705EB11610912A5EBC7
:104A90000121C9B28DF81C10E91705EB1161090A53
:104AA0008DF81D10002406E005A8015D71A001F03D
:104AB000DDF8601CC4B20A2CF6DB10B070BDFFF745
:104AC00045FEFFF7ADFEFBF702FFFBF746FDFFF7E4
:104AD0003DFE4FF4E13000F000FAFEF73DFFFFF736
:104AE0008EFBFFF7A0FBDBE10320FFF79FFE62498F
:104AF0005F48006802F01AFE604908605E49554848
:104B0000006802F013FE5D4948605B494E4800684A
:104B100002F00CFE594988600846FFF769FF002142
:104B20005348006802F0CEFE3CD22B205449087056
:104B30004F48006802F05EFD4FF47A7190FBF1F08F
:104B40000A2190FBF1F201FB120030304C49487011
:104B50004748006802F04EFD642190FBF1F00A2105
:104B600090FBF1F201FB120030304549887040485B
:104B7000006802F03FFD0A2190FBF1F090FBF1F29A
:104B800001FB120030303E49C8703948006802F01D
:104B900031FD0A2190FBF1F201FB1200303038495F
:104BA000087147E02D20364908703148006880F0D0
:104BB0000044204602F01EFD4FF47A7190FBF1F0A4
:104BC0000A2190FBF1F201FB120030302C494870B1
:104BD0002748006880F00044204602F00BFD642165
:104BE00090FBF1F00A2190FBF1F201FB1200303052
:104BF000234988701E48006880F00044204602F077
:104C0000F9FC0A2190FBF1F090FBF1F201FB12009C
:104C100030301B49C8701648006880F000442046B8
:104C200002F0E8FC0A2190FBF1F201FB12003030A7
:104C30001349087113480078002871D11248007890
:104C400008B9012023E021E0E80B0020E40B00205C
:104C5000E00B0020DC0B002000806640F1D4C8533C
:104C6000FB21094066663040D60B0020440300203B
:104C7000D80B0020256300000000C842C80C0020AB
:104C8000BC0C0020D50B0020D40B002000200346D4
:104C9000002211461046FBF76CFD8248007808B9E7
:104CA000012000E000200346012200211020FBF734
:104CB00060FD7C480078012800D100E00020034618
:104CC000042202210020FBF754FD764800780128D9
:104CD00000D100E000200346092202211020FBF74A
:104CE00048FD70480078012800D100E0002003460C
:104CF0006DA202212020FBF707FD6A4800780228F8
:104D000001D1012000E000200346052204210020FB
:104D1000FBF72FFD63480078022802D1012001E053
:104D20003AE000200346022204211020FBF721FD77
:104D30005C480078022801D1012000E000200346F1
:104D4000032204212020FBF714FD56480078032895
:104D500001D1012000E00020034606221146002078
:104D6000FBF707FD4F480078032801D1012000E040
:104D700000200346022206211020FBF7FAFC4948D6
:104D80000078032801D1012000E00020034603221F
:104D900006212020FBF7EDFC1021454800F0AFFA7A
:104DA00060B900BF1021424800F0A9FA0028F9D0EC
:104DB0003C480078401C40B23A49087020213C48E9
:104DC00000F09DFA60B900BF2021394800F097FA41
:104DD0000028F9D033480078401E40B231490870AD
:104DE0004021334800F08BFA58B9FBF7B6FB00BFFF
:104DF00040212F4800F083FA0028F9D001202D49E6
:104E0000087080212A4800F07AFA58B9FBF7A5FB10
:104E100000BF8021264800F072FA0028F9D0002057
:104E2000244908701F4890F90000032802DD002083
:104E30001C4908701B4890F90000002802DA032082
:104E4000184908701B480078012829D115480078B6
:104E5000012805D10023184A02211846FBF754FC0B
:104E60001048007802280BD10023072206211220C7
:104E7000FBF77FFC0023082206212420FBF779FCA6
:104E80000848007803280BD10023072206211220AE
:104E9000FBF76FFC0023082206212420FBF769FCA6
:104EA00022E60000D40B00204D505536303530003E
:104EB000000C0140D50B0020BC0C0020014600BFB7
:104EC000704700BF494A128802F04002002AF9D018
:104ED000C2B2464B1B1D1A80704710B586B00446FF
:104EE000012144F2050000F033FC4FF40070ADF8EE
:104EF000140003208DF8160018208DF8170005A95E
:104F00003B4800F069F94FF48060ADF814000420CC
:104F10008DF8170005A9364800F05EF925208DF8B8
:104F2000000003208DF801008DF8020001208DF8AB
:104F30000300684600F087F801940020ADF80800EF
:104F4000ADF80A00ADF80C00ADF810000C20ADF87B
:104F50000E0001A9254800F0A2FC012240F22551D3
:104F6000224800F034FD0121204800F024FD06B065
:104F700010BD10B540F225511C4800F00DFE10B3D5
:104F80001A4800F089FDC4B21A48008800F40040B5
:104F9000C8B91848008800F4804060B10A2C03D0DA
:104FA00000201449088020E01248008840F40040A6
:104FB0001049088019E00D2C06D10E48008840F4F5
:104FC00080400C49088010E00A480088C0F30D00BA
:104FD00009490C5407480088401C064908800846C7
:104FE0000088C72801DD0020088010BD003801407E
:104FF00000080140F00B0020D80C00200948804731
:1050000009480047FEE7FEE7FEE7FEE7FEE7FEE7AA
:10501000FEE7FEE7FEE7FEE704480549054A064BC2
:10502000704700001B03000831010008000E00203B
:10503000001400200010002000100020314901431E
:10504000314A1160704770B5002100230F22C478E7
:1050500004B32D4C246804F4E064C4F5E064210A30
:10506000C1F10403CA40447804FA03F1847814407F
:1050700021430901254C0678A155047804F01F0549
:105080000124AC4005786D11AD0005F1E025C5F8AF
:10509000004109E0047804F01F050124AC401C4DD8
:1050A0000678761145F8264070BD1A4A0A40024338
:1050B000154B1B1F1A60704739B1134A121D126835
:1050C0000243114B1B1D1A6006E00F4A121D1268A5
:1050D00082430D4B1B1D1A607047042808D14FF006
:1050E000E021096941F004014FF0E022116107E07D
:1050F0004FF0E021096921F004014FF0E022116135
:10510000704700000000FA050CED00E000E400E04C
:1051100080E100E080FFFF1F10B50446CC488442C8
:1051200008D10121042000F02DFB0021042000F013
:1051300029FB46E0C748844208D10121082000F03D
:1051400021FB0021082000F01DFB3AE0C248844208
:1051500008D10121102000F015FB0021102000F0E3
:1051600011FB2EE0BD48844208D10121202000F02F
:1051700009FB0021202000F005FB22E0B848844212
:1051800008D10121402000F0FDFA0021402000F06C
:10519000F9FA16E0B348844208D10121802000F0DA
:1051A000F1FA0021802000F0EDFA0AE0AE488442D6
:1051B00007D10121801500F0E5FA0021A01500F0CB
:1051C000E1FA10BD10B50121084600F0DBFA00211C
:1051D000012000F0D7FA10BD2DE9F041024600256C
:1051E0000026002000230024002791F803C00CF0C3
:1051F0000F0591F803C00CF0100CBCF1000F03D0A8
:1052000091F802C04CEA050591F800C0BCF1000F0E
:1052100031D0146800202BE04FF0010C0CFA00F3A1
:10522000B1F800C00CEA03069E4220D183004FF083
:105230000F0C0CFA03F7BC4305FA03FC4CEA040418
:1052400091F803C0BCF1280F06D14FF0010C0CFA05
:1052500000FCC2F814C00AE091F803C0BCF1480F8A
:1052600005D14FF0010C0CFA00FCC2F810C0401C34
:105270000828D1D31460B1F800C0BCF1FF0F34DDB1
:10528000546800202EE000F1080C4FF0010808FAE5
:105290000CF3B1F800C00CEA03069E4221D1830052
:1052A0004FF00F0C0CFA03F7BC4305FA03FC4CEA71
:1052B000040491F803C0BCF1280F05D100F1080CDB
:1052C00008FA0CF8C2F8148091F803C0BCF1480F3A
:1052D00007D100F1080C4FF0010808FA0CF8C2F8E9
:1052E0001080401C0828CED35460BDE8F0814FF6F2
:1052F000FF710180022181700421C1707047024654
:10530000002093680B400BB1012000E000207047A3
:105310000146886880B2704702460020D3680B407F
:105320000BB1012000E0002070470146C86880B240
:10533000704701617047416170470AB1016100E047
:1053400041617047C16070474FF480320A43826107
:105350008161826182698269704702460020434B05
:1053600018684FF68073184040EA021008433F4B1C
:10537000186070473E49C8617047F0B50A4600237F
:1053800000240021002500F00046B6F1004F02D1B4
:10539000364EF16901E0354E7168C0F3034583B2C2
:1053A00000F44016B6F5401F08D121F070612F4E71
:1053B000766826F070662D4F7E6012E000F480164D
:1053C000B6F5801F06D1032606FA05F4A14341F085
:1053D000706106E0460D360103FA06F6B14341F06E
:1053E000706122B1460D360103FA06F6314300F032
:1053F0000046B6F1004F02D11C4EF16101E01B4E98
:105400007160F0BD30B500228B071C0F0F2303FA2B
:1054100004F2164B08338C1053F824309343134C8A
:1054200008348D1044F8253023468C1053F824306E
:105430008C07240F00FA04F423430C4C08348D101D
:1054400044F8253030BD0A49DC310860704700005F
:1054500000080140000C0140001001400014014010
:1054600000180140001C01400020014000000140E4
:1054700000002042DF48006840F00100DD4908607C
:1054800008464068DC490840DA4948600846006838
:10549000DA490840D74908600846006820F48020AF
:1054A00008600846406820F4FE0048604FF41F0082
:1054B00088607047CF49096821F48031CD4A116076
:1054C0001146096821F480211160B0F5803F03D0B6
:1054D000B0F5802F0ED106E0C649096841F480314D
:1054E000C44A116007E0C349096841F4A021C14AD8
:1054F000116000E000BF00BF704710B501460022F8
:10550000002300204A11012A02D1BA4C236806E088
:10551000022A02D1B74C236A01E0B64C636A01F05B
:105520001F02012494401C400CB1012000E0002027
:1055300010BD38B5002000900024002500BF3120A8
:10554000FFF7DBFF05460098401C00900098B0F57F
:10555000A06F01D0002DF2D03120FFF7CEFF08B1AF
:10556000012400E00024204638BD01460020A14A65
:10557000106820F0F80040EAC10010607047A049B0
:1055800008607047024600209A4B586820F47C104F
:1055900042EA01031843974B5860704798490866E0
:1055A000704701460020934A506820F003000843EA
:1055B000506070478F48406800F00C00704701460B
:1055C00000208C4A506820F0F0000843506070477B
:1055D00001460020874A506820F4E060084350608C
:1055E000704701460020834A506820F4605040EA2A
:1055F000C1005060704729B17E4A527A02437D4B08
:105600005A7204E07B4A527A82437A4B5A7270474C
:105610007B49D8310860704701460020754A5068C0
:1056200020F440400843506070470021714A203206
:105630001170704A82F82010012802D004280AD183
:1056400004E001216B4A2032117005E00521694A0E
:105650002032117000E000BF00BF70476949086048
:1056600070476449096A0143624A1162704765499B
:1056700044390860704730B500210022002400231F
:105680005C4D6D6805F00C0121B1042905D0082995
:1056900023D105E05C4D056022E05B4D05601FE015
:1056A000544D6D6805F47012524D6D6805F48034E8
:1056B000022505EB92421CB9544D554305600BE0A1
:1056C0004C4D6D6805F400351DB1504D55430560D6
:1056D00002E04D4D5543056002E04B4D056000BFB3
:1056E00000BF444D6D6805F0F0010909484D6B5C41
:1056F0000568DD4045603F4D6D6805F4E061090ACD
:10570000434D6B5C4568DD4085603A4D6D6805F43E
:105710006051C90A3E4D6B5C4568DD40C560354D42
:105720006D6805F44041890B3A4D6B5CC568B5FB6B
:10573000F3F5056130BD29B12E4A526902432D4B64
:105740005A6104E02B4A526982432A4B5A617047DE
:1057500029B1284A92690243264B9A6104E0254AFE
:1057600092698243234B9A61704729B1214AD269D9
:105770000243204BDA6104E01E4AD26982431D4B8A
:10578000DA61704729B11B4AD2680243194BDA60CB
:1057900004E0184AD2688243164BDA60704729B198
:1057A000144A12690243134B1A6104E0114A126948
:1057B0008243104B1A6170471249403908607047A4
:1057C0000F49C86470470B49C87170470948406A5F
:1057D00040F0807007494862704701460020054A42
:1057E00092680A400AB1012000E000207047014998
:1057F00088727047001002400000FFF8FFFFF6FEBD
:10580000000042428004424200127A0000093D003A
:10581000F20B0020020C002010B50446FB48844225
:1058200009D101218803FFF7ADFF00214FF480402B
:10583000FFF7A8FF32E0F648844209D1012148046D
:10584000FFF7ADFF00214FF40030FFF7A8FF25E080
:10585000F048844209D101218804FFF7A0FF00210C
:105860004FF48020FFF79BFF18E0EB48844209D1FA
:105870000121C804FFF793FF00214FF40020FFF738
:105880008EFF0BE0E548844208D101210805FFF7AF
:1058900086FF00214FF48010FFF781FF10BD2DE936
:1058A000F04786B005460E460024A24600BFA1463A
:1058B0000027B08900B100BF2F462C8A4CF6FF703C
:1058C0000440F08804432C82AC894EF6F310044067
:1058D000B08831890843718908430443AC81AC8A9C
:1058E0004FF6FF400440B0890443AC8201A8FFF7A3
:1058F000C2FEC648874202D1DDF810A001E0DDF803
:105900000CA0A88900F4004040B10AEBCA0000EBEB
:105910000A1031684900B0FBF1F807E00AEBCA0051
:1059200000EB0A1031688900B0FBF1F86420B8FB85
:10593000F0F004012009642101FB1089A88900F41A
:10594000004040B1322000EBC900B0FBF1F000F0A4
:105950000700044308E0322000EB09106421B0FB8B
:10596000F1F000F00F0004432C8106B0BDE8F08791
:105970004FF41651016000218180C18001810C210A
:10598000418100218181704710B502460020108AB4
:105990004FF2FF0318400B884C8823438C88234325
:1059A000CC8823431843108210BD00210180418020
:1059B0008180C180704721B1828942F40052828186
:1059C00004E082894DF6FF731A4082817047F0B57A
:1059D0000346002400260025002040F66A17B9423D
:1059E00000D100BF1846C1F3421401F01F06012781
:1059F00007FA06F5012C01D10C3004E0022C01D18C
:105A0000103000E014301AB107682F43076002E03D
:105A10000768AF430760F0BD1AB1838A0B438382E6
:105A200002E0838A8B4383827047028A4FF6F073C9
:105A30001A400282028A0A430282704782894FF228
:105A4000FF731A40828182890A438281704721B1A3
:105A5000828942F00202828104E082894FF6FD735E
:105A60001A4082817047028A4FF6DF731A40028221
:105A7000028A0A430282704721B1028A42F48042BC
:105A8000028204E0028A4BF6FF731A4002827047DA
:105A9000C1F308028280704701468888C0F308007D
:105AA0007047818941F0010181817047028BD2B238
:105AB0000283028B42EA012202837047028B02F4C6
:105AC0007F420283028B0A430283704721B1828A9C
:105AD00042F02002828204E0828A4FF6DF731A408D
