:020000040800F2
:10000000D8160020CD660008390200083B0200081F
:100010003F020008430200084702000800000000F9
:100020000000000000000000000000004B0200087B
:100030004D020008000000004F02000851020008B5
:10004000E7660008E7660008E7660008E76600085C
:10005000E7660008E7660008E7660008E76600084C
:10006000E7660008E7660008E7660008E76600083C
:10007000E7660008E7660008E7660008E76600082C
:10008000E7660008E7660008E7660008E76600081C
:10009000E7660008E7660008E7660008E76600080C
:1000A000E7660008E7660008E7660008E7660008FC
:1000B000E7660008335C0008E7660008E7660008AA
:1000C000E7660008E7660008E7660008E7660008DC
:1000D000E766000843660008E7660008E766000870
:1000E000E7660008E7660008E7660008E7660008BC
:1000F000E7660008E7660008E7660008E7660008AC
:10010000E7660008E7660008E7660008E76600089B
:10011000E7660008E7660008E7660008E76600088B
:10012000E7660008E7660008E7660008E76600087B
:1001300000F002F800F071F80AA090E8000C824488
:100140008344AAF10107DA4501D100F066F8AFF265
:10015000090EBAE80F0013F0010F18BFFB1A43F0A5
:100160000103184798CC0000B8CC000010F8013B00
:100170000A4413F0030408BF10F8014B1D1108BF17
:1001800010F8015B641E05D010F8016B641E01F8C5
:10019000016BF9D1002D15D010F8014B03F00C03C1
:1001A0000C2BA1EB04040ABF10F8013BA4EB831451
:1001B000A4EB032405F1010314F8016B5B1E01F8A5
:1001C000016BF9D5914238BF10F8013BD1D370478C
:1001D0000023002400250026103A28BF78C1FBD850
:1001E000520728BF30C148BF0B60704766290BF02B
:1001F000E081642908F01880632908F077830020E3
:1002000070471FB508F0B2FB0400002000210AF07F
:1002100025F8E0601FBD10B510BD08F0E9FC1146DF
:10022000FFF7EFFF04F085FE08F007FD03B4FFF7CA
:10023000F2FF03BC06F0AAF9704700BFFEE700BF5B
:10024000FEE700BFFEE700BFFEE77047704770475C
:10025000704700000CB50020019000906C480068C9
:1002600040F480306A49086000BF6948006800F4C3
:10027000003000900198401C0190009818B9019836
:10028000B0F5A06FF1D16248006800F4003010B101
:100290000120009001E0002000900098012843D147
:1002A0005C48006840F010005A4908600846006841
:1002B00020F0030008600846006840F00200086073
:1002C00053484068524948600846406848600846BC
:1002D000406840F4806048600846406820F47C1024
:1002E00048600846406840F4E810486008460068E6
:1002F00040F08070086000BF4548006800F0007062
:100300000028F9D04248406820F003004049486086
:100310000846406840F00200486000BF3C48406822
:1003200000F00C000828F9D10CBD10B5FFF792FFC2
:1003300010BD10B53648006840F00100344908602F
:10034000084640683449084031494860084600681A
:10035000324908402E4908600846006820F4802091
:1003600008600846406820F4FE0048604FF41F0013
:100370008860FFF7DAFF4FF000602949086010BD80
:1003800010B5002100200022214B5B6803F00C0116
:1003900021B1042906D0082928D107E0214B224C9D
:1003A000236027E01F4B204C236023E0184B5B6841
:1003B00003F47010164B5B6803F48032022303EBE6
:1003C000904022B9194B4343174C23600DE0104B6A
:1003D0005B6803F4003323B1144B4343124C236096
:1003E00003E0104B4343104C236003E00D4B0E4CD5
:1003F000236000BF00BF064B5B68C3F303130C4CC4
:10040000E15C094B1B68CB40074C236010BD00002A
:1004100000100240002002400000FFF8FFFFF6FE3F
:1004200008ED00E000127A000000002000093D0005
:100430000400002070B504460E4626B10221FE4895
:1004400006F0DFFA03E00221FB4806F0DCFA102197
:10045000FA4806F0D8FA002517E02021F74806F000
:10046000D2FA04F0800020B18021F44806F0C9FAE5
:1004700003E08021F14806F0C6FA2021EF4806F09B
:10048000C0FA6006040E681CC5B2082DE5DB102119
:10049000EA4806F0B6FA0221E74806F0B2FA70BD63
:1004A00070B504460E4626B10221E34806F0A9FACB
:1004B00003E00221E04806F0A6FA1021DF4806F02A
:1004C000A2FA002517E02021DC4806F09CFA04F08F
:1004D000800020B18021D94806F095FA03E0802100
:1004E000D64806F08EFA2021D44806F08AFA600633
:1004F000040E681CC5B2082DE5DB1021CF4806F0BC
:1005000080FA0221CC4806F07CFA70BD70B5044632
:100510000D4605F1B001C8B20021FFF78BFF102195
:1005200041EA14100021FFF785FF04F00F0141F0AC
:1005300001000021FFF77EFF70BD10B500218D2066
:10054000FFF778FF00211420FFF774FF0021AF2090
:10055000FFF770FF10BD10B500218D20FFF76AFF77
:1005600000211020FFF766FF0021AE20FFF762FF99
:1005700010BD70B5002419E004F1B001C8B200212B
:10058000FFF758FF00210846FFF754FF0021102015
:10059000FFF750FF002505E001210020FFF74AFF8B
:1005A000681CC5B2802DF7DB601CC4B2082CE3DBED
:1005B00070BD2DE9F04107460E4690460025002407
:1005C000A8F12000C5B27F2F02DD0027B01CC6B203
:1005D00031463846FFF79AFF002408E004EB051186
:1005E000974A505C0121FFF725FF601CC4B2082C1C
:1005F000F4DB701CC1B23846FFF788FF002409E025
:1006000004EB051108318E4A505C0121FFF712FFFF
:10061000601CC4B2082CF3DBBDE8F0812DE9F04189
:1006200007460E46904600250024A8F12000C5B2DA
:100630007F2F02DD0027B01CC6B231463846FFF7D7
:1006400065FF002408E004EB05117D4A505C0121A0
:10065000FFF726FF601CC4B2082CF4DB701CC1B28B
:100660003846FFF753FF002409E004EB0511083179
:10067000734A505C0121FFF713FF601CC4B2082CC1
:10068000F3DBBDE8F08110B50246012000E05043E5
:100690000B00A1F10104E1B2F9D110BD2DE9FF5F1A
:1006A000074691461D460E9E4FF0000A002433E097
:1006B000281B401EC1B20A20FFF7E5FFB9FBF0F08E
:1006C0000A21B0FBF1F201FB1208BAF1000F13D1BD
:1006D000681EA04210DDB8F1000F0BD1B34606EB47
:1006E000DB71491001FB0471C8B220220199FFF7A8
:1006F00060FF0FE04FF0010AB34606EBDB714910D3
:1007000001FB0471C8B208F13001CAB20199FFF7C8
:1007100050FF00BF601CC4B2AC42C9DBBDE8FF9F04
:100720002DE9F04105460F46164698460024B8F1DB
:10073000000F12D10EE0325D39462846FFF739FF2F
:1007400005F10800C5B2782D02DD0025B81CC7B23E
:10075000601CC4B2305D0028EDD1B8F1010F12D198
:100760000EE0325D39462846FFF758FF05F10800D4
:10077000C5B2782D02DD0025B81CC7B2601CC4B21A
:10078000305D0028EDD1BDE8F0812DE9F0478146CC
:100790000E4615461F46012F2FD14FF00008314657
:1007A0004846FFF7B3FE00240CE0264A02EB851111
:1007B000085D0121FFF774FE08F1010000F0FF0859
:1007C000601CC4B2102CF0DB701CC1B24846FFF7AD
:1007D0009DFE00240EE06900491C1A4A02EB4111FB
:1007E000085D0121FFF75CFE08F1010000F0FF0841
:1007F000601CC4B2102CEEDB00BFBFBB4FF0000882
:1008000031464846FFF782FE00240CE00D4A02EB19
:100810008511085D0121FFF70DFE08F1010000F0D0
:10082000FF08601CC4B2102CF0DB701CC1B248463B
:10083000FFF76CFE002416E0000C014000080140A8
:10084000CEB80008140000206900491C834A02EB5E
:100850004111085D0121FFF7EDFD08F1010000F0F5
:10086000FF08601CC4B2102CEEDB00BFBDE8F087AF
:100870002DE9F05F06460F4690461C46DDF828A09D
:100880004FF0000BE11704EB5171C910A4EBC1014B
:1008900031B92046E11704EB5171C1F3C70506E0F9
:1008A0002046E11704EB5171C910491CCDB23D46F9
:1008B00015E029463046FFF729FEB1460BE05946C0
:1008C0000BF1010B1AF801000121FFF7B3FD09F14B
:1008D000010000F0FF09C145F1DB681CC5B2A5426B
:1008E000E7DBBDE8F09F08B50121042006F098FA87
:1008F000B020ADF8000010208DF8030003208DF823
:1009000002006946564805F0CFFFB021544806F072
:1009100078F80121082006F083FA40F20310ADF8C0
:10092000000010208DF8030003208DF802006946B6
:100930004C4805F0B9FF40F203114A4806F061F84F
:100940000121484806F05DF8642004F0FAF801211E
:10095000444806F058F8642004F0F3F801214148B7
:1009600006F04FF80021AE20FFF764FD0021084695
:10097000FFF760FD00211020FFF75CFD0021402003
:10098000FFF758FD00218120FFF754FD0021CF2003
:10099000FFF750FD0021A120FFF74CFD0021C820EA
:1009A000FFF748FD0021A620FFF744FD0021A82005
:1009B000FFF740FD00213F20FFF73CFD0021D32041
:1009C000FFF738FD00210846FFF734FD0021D52050
:1009D000FFF730FD00218020FFF72CFD0021D920FA
:1009E000FFF728FD0021F120FFF724FD0021DA2088
:1009F000FFF720FD00211220FFF71CFD0021DB2066
:100A0000FFF718FD00214020FFF714FD00212020F2
:100A1000FFF710FD00210220FFF70CFD00218D20C3
:100A2000FFF708FD00211420FFF704FD0021A4209A
:100A3000FFF700FD0021A620FFF7FCFC0021AF20FE
:100A4000FFF7F8FC0021AF20FFF7F4FCFFF791FD62
:100A500000210846FFF75AFD08BD000014000020E1
:100A600000080140000C014038B50446FB4890F8EE
:100A70002400C0B114B10220009001E000200090D9
:100A8000F64A1268D17BF54A526810786B4601220B
:100A900003F06BF910B14FF0FF3038BD9DF8001036
:100AA000EE48417423E0ED48807A10B94FF0FF30F2
:100AB000F3E724B1E948407C08B10020EDE714B128
:100AC0000120009001E000200090E44A1268D17BF0
:100AD000E24A526810786B46012203F046F910B1E1
:100AE0004FF0FF30D9E79DF80010DC48417400203A
:100AF000D3E738B5002419E0D8480068C07AA0428E
:100B000004D0D6480068407DA04200D10CE0D34913
:100B1000496808786B460122214603F088F910B134
:100B20004FF0FF3038BD00BF601CC4B2CB484068F6
:100B30000079A042E0DC0020F4E770B504460D46E1
:100B4000C6480068C07AA04204D0C4480068407D0E
:100B5000A04202D14FF0FF3070BDC048406800791C
:100B6000A04202DC4FF0FF30F6E7BC494968087844
:100B70002B460122214603F05AF9EDE738B5044629
:100B8000B64890F82300A04201D1002038BD14B12E
:100B90003020009001E000200090B048807C20B11F
:100BA0009DF8000040F002000090AC4890F8220050
:100BB00020B19DF8000040F080000090A74A126824
:100BC000117DA64A526810786B46012203F0CDF8D9
:100BD00010B14FF0FF30D9E7A04880F82340002043
:100BE000D4E738B5044604F0700010B1012000903D
:100BF00005E014B10020009001E040200090974AE9
:100C00001268917C954A526810786B46012203F075
:100C1000ACF820B1002191488172481E38BD9DF882
:100C2000000020F040018D4801730020009004F086
:100C3000400020B99DF8000040F00400009004F04E
:100C4000200020B99DF8000040F00200009004F060
:100C5000100020B99DF8000040F00100009004F061
:100C6000080020B99DF8000040F0380000907B4A51
:100C70001268D17C794A526810786B46012203F0E1
:100C800074F820B1002175488172481EC6E724B16E
:100C9000082C02D00020FFF771FF704884720021F9
:100CA0000175322003F04DFF0020B7E738B5044648
:100CB0006A48807CA04201D1002038BD002C46D07B
:100CC000664A12681179654A526810786B460122AB
:100CD00003F0ADF810B14FF0FF30EEE79DF80000E3
:100CE00020F0200000905D4A126811795B4A52683A
:100CF00010786B46012203F038F810B14FF0FF3046
:100D0000DBE7032003F01DFF02200090534890F81A
:100D1000220020B19DF8000040F0800000904F4874
:100D200090F8230020B19DF8000040F030000090C2
:100D30004A4A1268117D494A526810786B4601226E
:100D400003F013F8002851D04FF0FF30B5E7434AC5
:100D500012681179414A526810786B46012203F0FB
:100D600066F810B14FF0FF30A7E73C48807A00F0FA
:100D7000010028B19DF8000040F02000009004E040
:100D80009DF8000020F020000090344A126811798C
:100D9000324A526810786B46012202F0E6FF10B129
:100DA0004FF0FF3089E7032003F0CBFE2B4890F88B
:100DB000220010B18020009001E000200090274820
:100DC00090F8230020B19DF8000040F03000009022
:100DD000224A1268117D214A526810786B4601221E
:100DE00002F0C3FF10B14FF0FF3066E71B48847478
:100DF000002062E708B51948807A10B94FF0FF303B
:100E000008BD00200090154A1268D17B134A526831
:100E100010786B46012202F0A8FF10B14FF0FF30AE
:100E2000EEE70E4A126851790C4A526810786B4608
:100E3000012202F09AFF10B14FF0FF30E0E7074ABD
:100E400012681179054A526810786B46012202F047
:100E50008CFF28B14FF0FF30D2E70000940400204F
:100E6000F74890F82400002850D00C200090F44A55
:100E700012681179F24A526810786B46012202F02A
:100E800074FF10B14FF0FF30BAE7C0200090EC487B
:100E9000807A00F0010020B19DF8000040F02000B1
:100EA0000090E74A12681179E54A526810786B465B
:100EB000012202F05AFF10B14FF0FF30A0E7E048E6
:100EC000407C10B10220009001E000200090DC4A3C
:100ED0001268D17BDA4A526810786B46012202F020
:100EE00044FF10B14FF0FF308AE700200090D44A51
:100EF00012685179D24A526810786B46012202F08A
:100F000034FF002852D04FF0FF3079E704200090E2
:100F1000CB4A12681179CA4A526810786B4601228E
:100F200002F023FF10B14FF0FF3069E7C448807C26
:100F300020B9C348807A00F0010010B94020009029
:100F400001E060200090BE4A12681179BC4A5268E4
:100F500010786B46012202F008FF10B14FF0FF300D
:100F60004EE7B748407C10B10120009001E000201E
:100F70000090B34A1268D17BB14A526810786B4630
:100F8000012202F0F2FE10B14FF0FF3038E7AC4A18
:100F900012685179AA4A52681078A94B103301227D
:100FA00002F0E3FE10B14FF0FF3029E7002027E701
:100FB00070B50446002624F00104A14890F82400EE
:100FC00008B1002070BD9E48807A10B94FF0FF3004
:100FD000F8E79B48057C807A2040994908740846C8
:100FE000007CA04202D04FF0FF3600E0002614B98A
:100FF0009348007D18B10120FFF736FD02E0002084
:10100000FFF732FD3CB1FFF7F5FE20B18C480574C7
:101010004FF0FF30D6E73046D4E738B5044688486D
:10102000807A10B94FF0FF3038BDBC2C02DB0120B4
:10103000009015E0622C02DB0220009010E02A2CC8
:1010400002DB032000900BE0142C02DB0420009054
:1010500006E00A2C02DB0520009001E0062000904B
:101060007748C07A9DF80010884201D10020DBE764
:10107000734A12689178724A526810786B4601225E
:1010800002F073FE10B14FF0FF30CDE79DF8001075
:101090006B48C1720020C7E738B50446282C02DD32
:1010A0004FF0FF3038BDDCB90020FFF767FD0020AE
:1010B0008DF8000007208DF80100614A1268917CCC
:1010C0005F4A526810786B46022202F04EFE10B161
:1010D0004FF0FF30E6E70021594801750020E1E7B5
:1010E0000120FFF74BFD20208DF80000012C06D1D8
:1010F00000208DF801000520FFF78FFF17E0052C79
:1011000006DC01208DF801000520FFF786FF0EE0C8
:10111000142C06DC02208DF801000A20FFF77DFF69
:1011200005E003208DF801001420FFF776FF9DF8FD
:101130000100072101EB8010C0B28DF80100404A88
:101140001268917C3E4A526810786B46022202F087
:101150000CFE10B14FF0FF30A4E70821384881722F
:1011600000210173012101750020FFF721FF0020FC
:1011700098E738B504463248807A10B94FF0FF300E
:1011800038BD2F4890F8240010B14FF0FF30F7E73A
:101190002B48007D50B134B1282C04DCE0B2FFF7BD
:1011A0007BFF0020ECE70020FFF776FF042C01DA3C
:1011B000042404E0B4F57A7F01DD4FF47A744FF42F
:1011C0007A7090FBF4F0401EC0B200901C4A126886
:1011D00051781B4A526810786B46012202F0C5FD17
:1011E00010B14FF0FF30CBE79DF80000401C4FF4EA
:1011F0007A7191FBF0F081B21148C1810146C98931
:101200004810FFF70AFF0020BAE738B504460C483B
:10121000807A10B94FF0FF3038BD022C06D0042C74
:1012200007D0082C08D0102C0FD10BE00020009024
:101230000EE0082000900BE01020009008E0000075
:10124000940400201820009002E04FF0FF30E3E704
:1012500000BFF948407A9DF80010B0EBE10F01D1D2
:101260000020D9E7F44A1268D179F34A526810781D
:101270006B46012202F079FD10B14FF0FF30CBE751
:101280009DF80000C110EC4841720020C4E738B559
:101290000446E948807A10B94FF0FF3038BDFA2C87
:1012A00009D0B4F5FA7F09D0B4F57A7F09D0B4F546
:1012B000FA6F0CD108E0002000900BE008200090AD
:1012C00008E01020009005E01820009002E04FF0A8
:1012D000FF30E3E700BFD848007A9DF80010B0EB7C
:1012E000E10F01D10020D9E7D34A12689179D24A9F
:1012F000526810786B46012202F037FD10B14FF0B2
:10130000FF30CBE79DF80000C010CB4908720020E9
:10131000C4E71CB580208DF80000C74A1268917C94
:10132000C54A526810786B46012202F01EFD10B1CA
:101330004FF0FF301CBD642003F003FC00208DF84B
:101340000000BD4A1268917CBB4A526810786B4617
:10135000012202F00AFD10B14FF0FF30EAE7B64A71
:101360001268917DB44A526810786B46062202F0EA
:101370005EFD10B14FF0FF30DCE79DF80500C007BF
:10138000400F9DF8031001F0010140EA41009DF873
:10139000011001F0010140EA010494B1012C03D1D4
:1013A0000121A548C17431E0022C03D10021A248DB
:1013B000C1742BE02146A1A006F0CCFE4FF0FF3017
:1013C000B8E79D4A1268D1789B4A526810786B46FC
:1013D000012202F02CFD10B14FF0FF30AAE79DF87A
:1013E000000000F00F042CB99E4806F0B3FE4FF049
:1013F000FF309FE7042C06D19BA006F0ABFE012135
:101400008D48C17402E000218B48C174FF218A48D5
:101410008172FF2088490872FF2187484172C1729A
:101420004FF6FF71C181FF210174817401210173A5
:1014300080F82210002180F82310417501751630C4
:10144000016041608160163880F8241080F8251012
:10145000C1844FF4FA60FFF71AFF10B14FF0FF306C
:1014600068E70220FFF7D1FE10B14FF0FF3061E7CF
:101470002A20FFF7D2FD10B14FF0FF305AE732209B
:10148000FFF777FE10B14FF0FF3053E70020FFF772
:101490008FFD10B14FF0FF304CE70020FFF706FC46
:1014A00010B14FF0FF3045E70020FFF79AFB002016
:1014B00040E770477CB504460D465F48807A00F0EF
:1014C000700010B94FF0FF307CBD5B4A1268117B91
:1014D000594A526810786B46062202F0A8FC10B1F7
:1014E0004FF0FF30F0E79DF801009DF8001040EA52
:1014F000012000B220809DF803009DF8021040EA10
:10150000012000B260809DF805009DF8041040EABB
:10151000012000B2A08015B12846FFF7CAFF0020C5
:10152000D2E77CB504460D464348807A00F00800B7
:1015300010B94FF0FF307CBD3F4A1268517B3E4AE4
:10154000526810786B46062202F071FC10B14FF021
:10155000FF30F0E79DF801009DF8001040EA0120FF
:1015600000B220809DF803009DF8021040EA01209F
:1015700000B260809DF805009DF8041040EA01204B
:1015800000B2A08015B12846FFF793FF0020D2E7F4
:101590002DE9FE4F05460C462748807A18B94FF0D2
:1015A000FF30BDE8FE8F244A1268917B224A5268C0
:1015B000107802AB022202F03AFC10B14FF0FF307B
:1015C000EFE79DF809009DF8081040EA012006B2F7
:1015D00014B12046FFF76DFF17494968C88809F024
:1015E00023FE154901904968B1F9080009F004FE8D
:1015F0008346304609F000FE5946009009F064FF2A
:101600008246019909F0C6FC81461F4909F054FC45
:1016100080464FF08F4109F04FFE074609F0B0FDBC
:1016200028600020BDE710B588B004461CB94FF013
:10163000FF3008B010BD29E094040020556E73758A
:1016400070706F7274656420736F66747761726511
:101650002070726F64756374207265762025642E25
:101660000A000000ACCD000848616C662073656E0E
:101670007369746976697479207061727420666F19
:10168000756E642E0D0A000000000C42206830B90F
:10169000606820B9A06810B9002008B010BDFA49F0
:1016A0004968087806AB0322114602F0C0FB10B16E
:1016B0004FF0FF30F1E79DF81800082101EB2010F2
:1016C00000F00F00ADF800009DF8190001EB2010AC
:1016D00000F00F00ADF802009DF81A0001EB201099
:1016E00000F00F00ADF8040020684100BDF90000D3
:1016F000403091FBF0F000B2ADF81000606841009E
:10170000BDF90200403091FBF0F000B2ADF81200DC
:10171000A0684100BDF90400403091FBF0F000B238
:10172000ADF81400D8494968087806AB062211467E
:1017300002F07DFB10B14FF0FF30AEE79DF81900CD
:101740009DF8181040EA012000B2ADF808009DF89D
:101750001B009DF81A1040EA012000B2ADF80A0003
:101760009DF81D009DF81C1040EA012000B2ADF864
:101770000C00BDF81000BDF80810084400B2ADF828
:101780001000BDF81200BDF80A10084400B2ADF810
:101790001200BDF81400BDF80C10084400B2ADF8FA
:1017A0001400BDF81000000A8DF81800BDF81000F4
:1017B000C0B28DF81900BDF81200000A8DF81A00A9
:1017C000BDF81200C0B28DF81B00BDF81400000A6D
:1017D0008DF81C00BDF81400C0B28DF81D00AA4998
:1017E0004968087806AB0622114602F0BEFA10B12D
:1017F0004FF0FF3051E700204FE70146A248007A42
:1018000030B1012807D0022809D003280FD10AE0FF
:10181000FA2008800EE04FF4FA7008800AE04FF4D6
:101820007A70088006E04FF4FA60088002E0002039
:10183000088000BF00BF0020704701469248407AF0
:1018400030B1012807D0022808D003280CD108E0C5
:10185000022008700BE00420087008E008200870DF
:1018600005E01020087002E04FF0FF30704700BF25
:101870008548C07C18B108784006000E087000202A
:10188000F4E701468048C07A082817D2DFE800F064
:101890001704070A0D101318BC20088013E06220FB
:1018A000088010E02A2008800DE0142008800AE05B
:1018B0000A20088007E00520088004E000BF00BF80
:1018C0000020088000BF00BF0020704701466E481E
:1018D00090F8240010B14FF0FF3070476A48C0897B
:1018E00008800020F9E7014600200880401E70476C
:1018F00001464FF0FF30704701466348007A30B12F
:10190000012807D0022808D003280CD108E05F483E
:1019100008600BE05E48086008E05E48086005E08B
:101920005D48086002E04FF0FF30704700BF0020C4
:10193000FBE701465448407A30B1012808D002281C
:101940000AD0032810D10BE04FF4804008800EE04D
:1019500041F69C7008800AE04FF48050088006E051
:101960004FF40060088002E04FF0FF30704700BF86
:101970004548C07C10B10888401008800020F5E779
:1019800001464148007C08700020704701463E48EF
:10199000807A10B10120087001E00020087000205A
:1019A000704738B504463848807A10B94FF0FF3098
:1019B00038BD354A1268117C334A526810786B463C
:1019C000022202F034FA10B14FF0FF30F0E79DF838
:1019D00001009DF8001040EA012000B220800020A4
:1019E000E6E72DE9FE4F0746884692461D46DDF89C
:1019F00030B000260024244890F8240010B1601E66
:101A0000BDE8FE8F002028701F48807A10B94FF083
:101A1000FF30F5E71C48007C10B94FF0FF30EFE7CE
:101A20001948007C00F0400008B1B01CC6B216484E
:101A3000007C00F0200008B1B01CC6B21248007C47
:101A400000F0100008B1B01CC6B20F48007C00F0D6
:101A5000080008B1B01DC6B20B4A1268917A0A4A52
:101A6000526810786B46022202F0E1F910B14FF093
:101A7000FF30C5E79DF801009DF8001040EA0129FC
:101A8000B1450BDA0020BBE79404002000000343BB
:101A9000000083423333034233338341FC484068C0
:101AA0004088B9EB600F17DDF94A1268517CF84A9B
:101AB000526810786B46012202F0B9F910B14FF06C
:101AC000FF309DE79DF8000000F0100020B1FFF707
:101AD00091F96FF0010093E75046FFF7EAFCEC4AFA
:101AE0001268D17AEA4A526810786B46324602F0A0
:101AF0009EF910B14FF0FF3082E799FBF6F0401EDF
:101B00008BF8000000202870B4422AD0E048007C06
:101B100000F0080028B3601C1DF800001DF8041038
:101B200040EA012000B2A8F80000E01C1DF80010F7
:101B3000A01C1DF8000041EA002000B2A8F8020035
:101B4000601D1DF80010201D1DF8000041EA002056
:101B500000B2A8F80400287840F008002870A01D02
:101B600084B2B44213D0CA48007C00F0400070B187
:101B7000601C1DF800001DF8041040EA012000B2AE
:101B80003880287840F040002870A01C84B2B4420D
:101B900013D0BF48007C00F0200070B1601C1DF81D
:101BA00000001DF8041040EA012000B27880287877
:101BB00040F020002870A01C84B2B44213D0B44876
:101BC000007C00F0100070B1601C1DF800001DF8D2
:101BD000041040EA012000B2B880287840F01000DC
:101BE0002870A01C84B200200AE7F8B504460F460E
:101BF0001646A74890F8240010B94FF0FF30F8BD02
:101C0000A348807A10B94FF0FF30F8E7A04A126875
:101C1000917A9F4A526810786B46022202F007F9C7
:101C200010B14FF0FF30EAE79DF801009DF8001079
:101C300040EA0125A54203DA00203070401EDEE7AD
:101C4000934840684088B5EB600F17DD904A1268F2
:101C5000517C8F4A526810786B46012202F0E7F8F7
:101C600010B14FF0FF30CAE79DF8000000F01000FF
:101C700020B1FFF7BFF86FF00100C0E7E2B2844B7C
:101C80001B68D97A824B5B6818783B4602F0CFF824
:101C900010B14FF0FF30B2E795FBF4F0401E30700A
:101CA0000020ACE701467A4880F8221000207047F7
:101CB0007CB5054676494968087801AB04220D21B8
:101CC00002F0B5F808B107207CBD9DF80700C0F30D
:101CD00001109DF8041001F0E00140EAE1008DF8E8
:101CE00000009DF80700C0F381009DF8051001F089
:101CF000E00140EAE1008DF801009DF8070000F0E6
:101D000003009DF8061001F0E00140EAE1008DF8C3
:101D1000020000241CE01DF8040018B9002045F85A
:101D2000240013E05B4845F8240006E055F8240041
:101D3000594909F0C1FA45F824001DF80400401E75
:101D4000C0B20DF804000028F0D100BF601CC4B27E
:101D5000032CE0DB0020B7E72DE9FE4F06460F46D7
:101D600000256846FFF7A4FF002442E056F824004F
:101D700057F82410A0EB010ABAF1000F01DB51461D
:101D800001E0CAF10001084609F036FA83464FF037
:101D90008F4109F0FFF880465DF82400002109F02A
:101DA000BBF916D05DF82410404609F0F3F88246DE
:101DB0004FF07E5109F088FB814629F0004A3748F0
:101DC000416A504609F044FB12D20120A04005436D
:101DD0000EE03248C169404609F03AFA05D32F486F
:101DE000016A404609F034FB02D20120A0400543BD
:101DF000641C032CBADB2846BDE8FE8F2DE9FC5F8E
:101E000006460F46002522494968087801AB03229F
:101E10000D2102F00CF810B10720BDE8FC9F9DF8E1
:101E2000040000F01F008DF804009DF8050000F08C
:101E30001F008DF805009DF8060000F01F008DF8CA
:101E40000600002462E056F8240057F82410A0EBA6
:101E5000010BBBF1000F01DB594601E0CBF10001A2
:101E6000084609F0C9F94FF08F41009009F092F847
:101E7000814601A8005DC0B30849086809F0D4F99B
:101E800083465946064809F085F880460FE0000071
:101E9000940400207B14AE3E1D5A843FE8BE000827
:101EA00000B04C45FE49404609F006FA804601A8BC
:101EB000005D401EC0B201A908550028F2D141467C
:101EC000484609F067F883464FF07E5109F0FCFA66
:101ED00082462AF0004BF3488169584609F0B8FA67
:101EE00013D20120A04005430FE0FFE7ED48016950
:101EF000484609F0ADF905D3EA484169484609F07A
:101F0000A7FA02D20120A0400543641C032C9ADBEF
:101F1000284682E72DE9F04F87B005460C469146EA
:101F200001208DF8100000208DF81100DE4A1268A3
:101F3000917CDD4A5268107804AB022201F015FF53
:101F400020B14FF0FF3007B0BDE8F08FC82002F09D
:101F5000F8FD00208DF81000D34A1268D17BD24AD8
:101F60005268107804AB012201F0FFFE10B14FF06F
:101F7000FF30E8E7CC4A12685179CB4A52681078B2
:101F800004AB012201F0F1FE10B14FF0FF30DAE7AF
:101F9000C54A1268917CC44A5268107804AB012289
:101FA00001F0E3FE10B14FF0FF30CCE7BE4A1268FB
:101FB000D17DBD4A5268107804AB012201F0D5FEF4
:101FC00010B14FF0FF30BEE7B74A12681179B64A38
:101FD0005268107804AB012201F0C7FE10B14FF037
:101FE000FF30B0E70C208DF81000AF4A126811796D
:101FF000AD4A5268107804AB012201F0B6FE10B170
:102000004FF0FF309FE70F2002F09BFDA648806A4B
:10201000407A8DF81000A44A12689178A24A52685A
:10202000107804AB012201F0A0FE10B14FF0FF3098
:1020300089E79D48806A007A8DF810009A4A1268F4
:102040005178994A5268107804AB012201F08DFE54
:1020500010B14FF0FF3076E7B9F1000F07D092488A
:10206000806A807A40F0E0008DF8100004E08E482D
:10207000806A807A8DF810008B4A126891798A4ABA
:102080005268107804AB012201F06FFE10B14FF0DE
:10209000FF3058E7B9F1000F07D08348806AC07A53
:1020A00040F0E0008DF8100003E07E48C07A8DF823
:1020B00010007D4A1268D1797B4A5268107804ABCF
:1020C000012201F052FE10B14FF0FF303BE7B9F1B1
:1020D000000F02D0C82002F034FD40208DF810001F
:1020E000714A12681179704A5268107804AB012263
:1020F00001F03BFE10B14FF0FF3024E778208DF85F
:102100001000694A12685179674A5268107804AB26
:10211000012201F02AFE10B14FF0FF3013E76149B0
:10212000888902F00EFD00208DF810005E4A1268CA
:1021300051795D4A5268107804AB012201F015FE16
:1021400010B14FF0FF30FEE6574A1268917A564AB6
:102150005268107804AB022201F069FE10B14FF012
:10216000FF30F0E69DF811009DF8101040EA012BB9
:102170000C209BFBF0F0C6B20020A86068602860CD
:10218000A06060602060824665E0474A1268D17AAC
:10219000454A5268107804AB0C2201F048FE10B199
:1021A0004FF0FF30CFE69DF811009DF8101040EA87
:1021B000012000B2ADF808009DF813009DF8121040
:1021C00040EA012000B2ADF80A009DF815009DF824
:1021D000141040EA012000B2ADF80C00BDF908105F
:1021E000206808442060BDF90A10606808446060F7
:1021F000BDF90C10A0680844A0609DF817009DF878
:10220000161040EA012000B2ADF800009DF8190058
:102210009DF8181040EA012000B2ADF802009DF8C8
:102220001B009DF81A1040EA012000B2ADF804002E
:10223000BDF90010286808442860BDF902106868DC
:1022400008446860BDF90410A8680844A8600AF151
:10225000010000F0FF0AB24597DB1248D0F800C039
:102260002868C117090441EA1041070462460023A7
:10227000384605F04BFF32460023CDE9020105F058
:1022800045FF28600748D0F800C06868C1170904F6
:1022900041EA1041070462460023384606E0000088
:1022A00054E3853FE8BE00089404002005F02EFFAB
:1022B00032460023CDE9020105F028FF6860FE48A0
:1022C000D0F800C0A868C117090441EA104107040A
:1022D00062460023384605F019FF32460023CDE957
:1022E000020105F013FFA860F348D0F804C021688C
:1022F000C817000440EA11480F046246002338461C
:10230000414605F003FF32460023CDE9020105F006
:10231000FDFE2060E848D0F804C06068C1170904D9
:1023200041EA1041070462460023384605F0EEFEFC
:1023300032460023CDE9020105F0E8FE6060DE4888
:10234000D0F804C0A068C117090441EA104107048D
:1023500062460023384605F0D9FE32460023CDE917
:10236000020105F0D3FEA060A068002804DDA0688B
:10237000A0F58030A06003E0A06800F58030A06088
:102380000020E0E538B50446CC4890F82400A0428F
:1023900001D1002038BD24B3C84890F8250010B9F9
:1023A0004FF0FF30F6E70020FEF75EFB0020FEF75F
:1023B0007DFCC249C88CFEF7DCFE00200090BF49BE
:1023C000496808786B460122232101F0CEFC0121E7
:1023D000BA4880F824100120FEF746FBFEF70AFDFC
:1023E00013E00020FEF740FBB448007C0090B349A6
:1023F000496808786B460122232101F0B6FC0021D0
:10240000AE4880F82410FEF7F5FC0020C2E72DE965
:10241000F04F8DB083460F4602200C90A74890F8ED
:10242000240020B10020FFF7ADFF012600E00026C8
:1024300003A8FFF7E2F905A8FFF7FFF901A8FFF7E6
:1024400020FA02A8FFF742FA9C4890F80AA004A8D4
:10245000FFF796FA002407E0002239465846FFF7B6
:1024600059FD00B902E0641C022CF5DB00BF022C10
:1024700001D1002528E0002407E0012206A909A8CF
:10248000FFF748FD00B902E0641C022CF5DB00BF39
:10249000022C01D1002517E006A93846FFF75CFCA5
:1024A00000F0FF0809A95846FFF7A8FC00F0FF0953
:1024B0000025B9F1000F01D145F00105B8F1000F79
:1024C00001D145F0020500BFFF207C490872FF21C1
:1024D0007A484172C1724FF6FF71C181FF2181724A
:1024E000017401210173BDF80C00FEF7D0FE9DF8C8
:1024F0001400FEF78AFEBDF80400FEF78EFDBDF85D
:102500000800FEF736FE5046FEF76BFB9DF8100004
:10251000FEF74EFD16B10120FFF734FF28460DB03F
:10252000BDE8F08FF8B504460D46164616B94FF0D3
:10253000FF30F8BD6148807A10B94FF0FF30F8E7FE
:1025400020128DF80000E0B28DF801009DF8010026
:1025500028445A4949684989884202DD4FF0FF30D2
:10256000E7E7564A1268117E544A526810786B4663
:10257000022201F0FAFB10B14FF0FF30D9E7EAB2C6
:102580004E4B1B68597D4D4B5B681878334601F004
:10259000ECFB10B14FF0FF30CBE70020C9E7F8B5F6
:1025A00004460D46164616B94FF0FF30F8BD4348B5
:1025B000807A10B94FF0FF30F8E720128DF8000054
:1025C000E0B28DF801009DF8010028443B494968BC
:1025D0004989884202DD4FF0FF30E7E7374A126849
:1025E000117E364A526810786B46022201F0BDFB1C
:1025F00010B14FF0FF30D9E7EAB2304B1B68597D7C
:102600002E4B5B681878334601F011FC10B14FF087
:10261000FF30CBE70020C9E72DE9F04385B0054640
:102620000E4690469946254890F8250020B14FF077
:10263000FF3005B0BDE8F08316B94FF0FF30F8E782
:10264000002423E0281B102801DD102000E0281BB7
:1026500087B2321939462046FFF764FF10B14FF0B8
:10266000FF30E6E701AA39462046FFF798FF10B190
:102670004FF0FF30DDE730193A4601A905F00EFEB4
:1026800010B16FF00100D4E7E01984B2AC42D9DB9D
:102690004FEA28208DF8000008F0FF008DF80100B7
:1026A000064A1268917E054A526810786B460222EB
:1026B00001F05BFB38B103E0E8BE000894040020A1
:1026C0004FF0FF30B5E701218A4880F82510A0F8C7
:1026D00026900020ADE70146864890F82400087057
:1026E0000020704702464FF0FF30704701464FF020
:1026F000FF307047F8B505460F461446002C70D0E1
:10270000B5F5FF5F01DDFF2605E0202D01DA01268A
:1027100001E0C5F3471607B90127282C02DD4FF069
:10272000FF30F8BD7348407D28BB724890F8240004
:1027300038B10020FFF726FE01216E4880F82010F6
:1027400003E000216B4880F820106A481630FFF73C
:1027500054F868481830FFF770F866481A30FFF7E9
:1027600090F864481C30FFF7B1F86248817A8177AD
:102770001F30FFF705F90020FEF776F90020FEF77D
:102780008BFC00208DF800005A4A12689178594A53
:10279000526810786B46012201F0E7FA10B14FF051
:1027A000FF30BEE740208DF80000524A1268D17B0E
:1027B000504A526810786B46012201F0D6FA00B1F7
:1027C00065E08DF800608DF801704A4A1268117A50
:1027D000484A526810786B46022201F0C6FA08B1E6
:1027E00055E047E0052002F0ACF94248407A072165
:1027F00001EBC000C0B28DF800003E4A1268D179EA
:102800003C4A526810786B46012201F0AEFA00B1E2
:102810003DE020208DF80000012C03D100208DF830
:1028200001000EE0052C03DC01208DF8010008E01A
:10283000142C03DC02208DF8010002E003208DF847
:1028400001009DF80100072101EB8010C0B28DF856
:102850000100284A1268917C264A526810786B461B
:10286000022201F082FA00B111E0012121484175F4
:10287000002056E71F4A1632002103E0505C00B1E9
:1028800005E0491C0C29F9D34FF0FF3049E7FF2040
:1028900018490872FF2117484172C1724FF6FF7143
:1028A000C181FF2181720174012101730146887F7A
:1028B000FEF797F90F49C88AFEF7E9FC0D49087E33
:1028C000FEF7A3FC0B49488BFEF7A7FB0949888B51
:1028D000FEF74FFC0749C87FFEF76AFB054890F8F2
:1028E000200010B10120FFF74DFD00210148417586
:1028F000002016E79404002010B5C8234FF480622E
:10290000F74940F6F630FFF787FE10BD10B586B0E8
:102910000446F4A000680390F3A000680290F3A0BE
:1029200000680190F2A00068009004F0030003A981
:10293000085C8DF8140003A8C4F3C101405C8DF855
:10294000150003A8C4F38111405C8DF8160004F053
:10295000030002A9085C8DF8100002A8C4F3C101AD
:10296000405C8DF8110002A8C4F38111405C8DF821
:10297000120005AA032140F22640FFF7D3FD18B14B
:102980004FF0FF3006B010BD04AA032140F22A40E8
:10299000FFF7C8FD10B14FF0FF30F3E70198059045
:1029A0000098049004F0040058B19DF8140040F021
:1029B00001008DF814009DF8100040F001008DF822
:1029C000100004F0200058B19DF8150040F00100FF
:1029D0008DF815009DF8110040F001008DF81100F0
:1029E00004F4807058B19DF8160040F001008DF895
:1029F00016009DF8120040F001008DF8120005AAA3
:102A000003214FF48860FFF78DFD10B14FF0FF30C8
:102A1000B8E704AA032140F23140FFF783FD10B16B
:102A20004FF0FF30AEE7B34804810020AAE71FB59E
:102A30000446B048007A00F0030054F820000190EA
:102A4000AC48007A00F0040010B1019840420190B7
:102A5000A848007AC0F3C10054F820000290A548AD
:102A6000007A00F0200010B1029840420290A14884
:102A7000007AC0F3811054F8200003909D4800892B
:102A800000F4807010B10398404203909A49019875
:102A900080FB0101800F40EA810001909649029875
:102AA00080FB0110820042EA9170029092490398E3
:102AB00080FB0110820042EA917003900198000EA1
:102AC0008DF800000198000C8DF801000198000AB3
:102AD0008DF802000198C0B28DF803006A46042107
:102AE0004FF47470FFF71EFD18B14FF0FF3004B0C3
:102AF00010BD0298000E8DF800000298000C8DF8B1
:102B000001000298000A8DF802000298C0B28DF808
:102B100003006A4604214FF47570FFF703FD10B1FE
:102B20004FF0FF30E3E70398000E8DF800000398A4
:102B3000000C8DF801000398000A8DF8020003983C
:102B4000C0B28DF803006A4604214FF47670FFF797
:102B5000E9FCCCE770B588B0064601A8FEF7E9FEAF
:102B6000BDF804000021C90341EA5045C40361488F
:102B7000007A00F0030056F8200005905D48007AC6
:102B800000F0040010B10598404205905948007AC1
:102B9000C0F3C10056F8200006905648007A00F0B5
:102BA000200010B10698404206905248007AC0F3C7
:102BB000811056F8200007904E48008900F480707C
:102BC00010B10798404207900598C117A0FB042355
:102BD00001FB043100FB0510810041EA9270059071
:102BE0000698C117A0FB042301FB043100FB05106C
:102BF000810041EA927006900798C117A0FB042358
:102C000001FB043100FB0510810041EA927007903E
:102C10000598000E8DF808000598000C8DF8090045
:102C20000598000A8DF80A000598C0B28DF80B00CF
:102C30000698000E8DF80C000698000C8DF80D001B
:102C40000698000A8DF80E000698C0B28DF80F00A5
:102C50000798000E8DF810000798000C8DF81100F1
:102C60000798000A8DF812000798C0B28DF813007B
:102C700002AA0C214FF42570FFF754FC08B070BD78
:102C800030B585B004461DA207CA02AB07C3C82CE5
:102C900003DD4FF0FF3005B030BDC82090FBF4F0ED
:102CA000401E85B2280A8DF80000E8B28DF80100B8
:102CB0006A46022140F21620FFF734FC10B14FF0B3
:102CC000FF30E8E702AA0C2140F6C120FFF72AFCFA
:102CD00010B14FF0FF30DEE7064884810020DAE7CC
:102CE00010BF00084CCD6C000CC92C003656760085
:102CF00026466600D80E002009E3CA02FEF2ABC4E5
:102D0000AAF1DFDFBBAFDFDF0146FC488089088026
:102D1000002070472DE9FC4706460F4606F00700E5
:102D200010B1B7F5C86F03DD4FF0FF30BDE8FC8789
:102D3000384608F079FA8146F14908F02BF98046C7
:102D40006846FEF77AFD9DF80000022806D00428A8
:102D500016D0082826D0102848D135E04FF08D41F4
:102D6000404608F0A9FA814608F026FA84B2E549FF
:102D7000404608F0A1FA814608F01EFA85B238E014
:102D80004FF08C41404608F097FA814608F014FA5B
:102D900084B2DD49404608F08FFA814608F00CFA0B
:102DA00085B226E04FF08B41404608F085FA814617
:102DB00008F002FA84B2D549404608F07DFA81460F
:102DC00008F0FAF985B214E04FF08A41404608F065
:102DD00073FA814608F0F0F984B2CD49404608F014
:102DE0006BFA814608F0E8F985B202E04FF0FF3057
:102DF0009CE700BF20128DF80400E0B28DF80500BA
:102E000028128DF80600E8B28DF8070006F00100E0
:102E1000A0B101AA02214FF4EA70FFF783FB10B1C1
:102E20004FF0FF3082E70DF1060202214FF492705D
:102E3000FFF778FB10B14FF0FF3077E706F00200A4
:102E4000A0B101AA02214FF4EC70FFF76BFB10B1A7
:102E50004FF0FF306AE70DF1060202214FF4947043
:102E6000FFF760FB10B14FF0FF305FE706F00400A2
:102E7000A0B101AA02214FF4EE70FFF753FB10B18D
:102E80004FF0FF3052E70DF1060202214FF4967029
:102E9000FFF748FB10B14FF0FF3047E7002045E750
:102EA00038B504460020009004F0010020B19DF8E0
:102EB000000040F03000009004F0020020B19DF8C6
:102EC000000040F00C00009004F0040020B19DF8D8
:102ED000000040F0030000906A4601214FF4A47006
:102EE000FFF720FB38BD38B50446012C01DA012478
:102EF00002E0042C00DD0424601EC0B200906A468B
:102F0000012140F24F10FFF70DFB38BD38B50446E4
:102F1000052094FBF0F085B228128DF80000E8B28D
:102F20008DF801006A4602214FF4EF70FFF7FAFABC
:102F300038BD38B50446052094FBF0F085B2281260
:102F40008DF80000E8B28DF801006A4602214FF4C6
:102F5000ED70FFF7E7FA38BDF8B505460E464FF4B9
:102F60007A7095FBF0F000FB06F4200E8DF800005F
:102F7000200C8DF80100200A8DF80200E0B28DF8D7
:102F800003006A4604214FF4AE70FFF7CBFAF8BD98
:102F900038B50446052094FBF0F084B220128DF879
:102FA0000000E0B28DF801006A4602214FF4AD70D6
:102FB000FFF7B8FA38BD38B50446052094FBF0F0A9
:102FC00084B220128DF80000E0B28DF801006A464C
:102FD00002214FF4AC70FFF7A5FA38BD38B50446AE
:102FE00014B94FF0FF3038BD6A4604214FF45870D1
:102FF000FFF7D5FA10B14FF0FF30F4E79DF800006D
:1030000000069DF8011040EA01409DF8021040EAD8
:1030100001209DF80310084320600020E3E738B545
:103020000446200E8DF80000200C8DF80100200AC7
:103030008DF80200E0B28DF803006A4604214FF4D7
:103040005870FFF76FFA38BD38B5044614B94FF021
:10305000FF3038BD6A4604214FF47170FFF79FFAC4
:1030600010B14FF0FF30F4E79DF8000000069DF826
:10307000011040EA01409DF8021040EA01209DF84D
:103080000310084300EB8000800020600020E0E790
:1030900038B504461420B4FBF0F4200E8DF800007F
:1030A000200C8DF80100200A8DF80200E0B28DF8A6
:1030B00003006A4604214FF47170FFF733FA38BDFC
:1030C00038B5044664B120208DF8000028208DF822
:1030D000010030208DF8020038208DF8030004E054
:1030E000A3220421684605F005F96A46042140F64A
:1030F0009E20FFF717FAFDF77DFE38BDD80E0020A1
:1031000000004843000040460000C0450000404524
:103110000000C04438B5044664B1C0208DF80000FA
:10312000C2208DF80100C4208DF80200C6208DF861
:10313000030004E08B220421684605F0DBF86A46B0
:10314000042140F69820FFF7EDF9FDF753FE38BD56
:103150003EB504466CB1FDA1D1E900208968CDE9F6
:10316000002002916A4609214FF49760FFF7DAF9CF
:103170003EBDF9A2D2E900109268CDE901020091AA
:103180006A4609214FF49760FFF7CCF9F0E73EB5A6
:10319000044602208DF80000CA208DF80100E320CB
:1031A0008DF8020009208DF803006A46042168208A
:1031B000FFF7B8F9A3208DF8000004F0400048B1F3
:1031C000C0208DF80100C8208DF80200C2208DF8C3
:1031D000030006E0A3208DF801008DF802008DF8B1
:1031E000030004F4C07048B1C4208DF80400CC2062
:1031F0008DF80500C6208DF8060006E0A3208DF8A6
:1032000004008DF805008DF80600A3208DF8070056
:103210008DF808008DF809006A460A2140F6A720BB
:10322000FFF780F904F0030018B120208DF80000AA
:1032300002E0D8208DF800006A46012140F6B62051
:10324000FFF770F904F0200018B10120FFF780FFAC
:1032500002E00020FFF77CFF04F4C07008B304F420
:10326000807060B1B2208DF800008B208DF80100D5
:10327000B6208DF802009B208DF803000BE0B020F3
:103280008DF8000080208DF80100B4208DF8020038
:1032900090208DF803006A46042140F6A220FFF733
:1032A00041F904F0010020B3F8208DF800006A46CF
:1032B00001214FF40B60FFF735F9FA210720FFF7E2
:1032C00029FD0720FFF7ECFD0120FFF70CFE64202D
:1032D000FFF71CFE4FF4FA70FFF72BFEC821A14840
:1032E000FFF73AFE2820FFF753FE0A20FFF763FEA0
:1032F00008E0D8208DF800006A4601214FF40B60E9
:10330000FFF710F904F0020018B1D9208DF8000081
:1033100002E0D8208DF800006A46012140F23D709D
:10332000FFF700F904F0040018B10120FFF7F2FEE6
:1033300002E00020FFF7EEFE04F0100018B10120BB
:10334000FFF7BEFE02E00020FFF7BAFE44F00800DF
:1033500085494881FDF74EFD00208349887304F0BC
:10336000400018B10846807B801D887304F4C0704B
:1033700020B17D48807B801D7B49887304F0140058
:1033800020B17948807B10307749887304F00300BE
:1033900020B17548807B001D7349887300203EBDB5
:1033A0000146714840890880002070472DE9F041AE
:1033B0000446E07800F0C006E07800F03F05607851
:1033C00000F0010098B1EF102846E91705EB5171A4
:1033D000C910A5EBC101491C01F0FF086248006853
:1033E00020B16148414602683846904700BF607886
:1033F00000F0080030B15C48406818B1B0115A4A7A
:10340000516888470020BDE8F08110B586B00446B9
:1034100056A207CA03AB07C357A207CA8DE8070025
:10342000012C09D0022C0ED103AA0B2140F68220D8
:10343000FFF778F806B010BD6A460B2140F68220EF
:10344000FFF770F8F6E74FF0FF30F3E72DE9F04FA4
:103450008DB00746884615469946DDE9166B00246F
:10346000002030804049887B5A4605A9FEF7BDFB05
:1034700018B1601E0DB0BDE8F08F3B48807A00F0B7
:103480001400002861D09DF8140000069DF8151066
:1034900040EA01409DF8161040EA01209DF81710FF
:1034A000084328609DF8180000069DF8191040EAAE
:1034B00001409DF81A1040EA01209DF81B100843B6
:1034C00068609DF81C0000069DF81D1040EA014050
:1034D0009DF81E1040EA01209DF81F100843A860C7
:1034E0009DF8200000069DF8211040EA01409DF85B
:1034F000221040EA01209DF823100843E86004F1FF
:103500001000C4B22868001401906868001402908A
:10351000A86800140390E8680014049001984043E0
:10352000029901FB0100039901FB0100049901FBD1
:10353000010ABAF1706F02DBBAF1885F22DDFDF794
:1035400059FC00203080401E94E721E0B8AAB38DDA
:10355000B4980D355D000000B8AAAAAAB088C3C50A
:10356000C700000009E3CA02D80E0020D8B1B9F3A1
:103570008BA391B609B4D900DAB1B9F38BA391B694
:10358000DAB4DA00B6F9000040F48070308000BF91
:103590003448807A00F0400020B305A9601C085C24
:1035A000095D40EA012000B2A8F8000005A9E01C6E
:1035B000095C05AAA01C105C41EA002000B2A8F832
:1035C000020005A9601D095C201D105C41EA002075
:1035D00000B2A8F80400A01DC4B2B6F9000040F083
:1035E000080030801F48408900F4C07008B305A966
:1035F000601C085C095D40EA012000B2388005A922
:10360000E01C095C05AAA01C105C41EA002000B285
:10361000788005A9601D095C201D105C41EA00202E
:1036200000B2B880A01DC4B2B6F9000040F070002E
:1036300030800C48807A00F0030018B105A9081901
:10364000FFF7B4FE4846FDF734FF002012E70146BD
:103650000448016000207047014602484160002094
:1036600070470000D80E00202DE9F04F8BB0834644
:103670008A46F8480068F8490860084601685846D4
:1036800007F022FF0446F5480168204607F082FC57
:103690000A90F348006807F0E3FBCDE904010A98BB
:1036A00007F0DEFB80468946504607F0D9FB4FF015
:1036B0003332EC4BCDE9000107F0C2F842464B46ED
:1036C000CDE9020106F012FE0646DDE9042307F00B
:1036D000B7F804460D46DF48006807F0C1FB2246F4
:1036E0002B46CDE9060106F001FECDE9080106F002
:1036F000CBFDD8490860D8480068DB4908600BB0AA
:10370000BDE8F08F2DE9F04F8BB083468A46D7484D
:103710000068D749086008460168584607F0D4FE9B
:103720000446D4480168204607F034FC0A90D24889
:10373000006807F095FBCDE904010A9807F090FBBB
:1037400080468946504607F08BFB4FF03332C54B1D
:10375000CDE9000107F074F842464B46CDE902017D
:1037600006F0C4FD0646DDE9042307F069F80446C7
:103770000D46BE48006807F073FB22462B46CDE994
:10378000060106F0B3FDCDE9080106F07DFDB7495D
:103790000860B7480068B94908600BB0BDE8F08F11
:1037A0002DE9F04105460C46B5480168204607F072
:1037B0008BFE0746B3480168384607F07DFD064694
:1037C000A9480168304607F077FBA7490860AE4872
:1037D0004168AE48006807F077FE0646AA4881684F
:1037E000304607F071FEAA490860A748C06880F01B
:1037F00000404860A448C06880F000408860A54848
:103800000068C86008689F49096807F055FD0646CA
:103810009D480168304607F04FFB9B4908609C4972
:1038200048689849096807F047FD06469648416888
:10383000304607F041FB94494860954988689149B2
:10384000096807F039FD06468F488168304607F061
:1038500033FB8D4988608E49C8688A49096807F03A
:103860002BFD06468848C168304607F025FB86498F
:10387000C8607D480168284607F026FE8649086032
:103880008648007807F0D0FC06467F48016830463D
:1038900007F012FD824908608048007807F0C4FCF8
:1038A000064679488168304607F006FD7D49086084
:1038B0007A48007807F0B8FC07467948016838462E
:1038C00007F0FAFC064678480168304607F0F4FA3B
:1038D00076490860084601687148006807F05AFB9D
:1038E00073490860714801686E48006807F052FB30
:1038F000704908606A4800686F4908606748007846
:1039000007F092FC064660484168304607F0D4FC58
:103910006A490860684801686548006807F0CCFC9F
:10392000064659480168304607F0C3FD564908600D
:10393000624801685E48006807F0BEFC06465248CF
:103940004168304607F0B5FD4F4948605A48016864
:103950005848006807F0B0FC06464B48816830467E
:1039600007F0A7FD4849886054480168514800683D
:1039700007F0A2FC06464448C168304607F099FDAE
:103980004149C860444801684948006807F094FC10
:10399000064635480168304607F08EFA324908601D
:1039A0003D4801684348006807F086FC06463448F5
:1039B0000168304607F080FA31490860084601681E
:1039C000204607F081FD3E490860BDE8F0812DE901
:1039D000F04F8BB083468A46504607F041FA804646
:1039E000384A394B06F02CFFCDE902011E48006829
:1039F00007F036FACDE90001DDE9022306F076FC96
:103A000004460D46314801684FF07E5007F05CFDDA
:103A1000804607F025FA064622462B4606F010FFA0
:103A2000CDE9060129480168584607F045FC0446DF
:103A300007F016FACDE90401DDE9062306F056FC8D
:103A4000CDE9080106F020FC074908600BB0BDE88D
:103A5000F08F00001C050020180500202005002024
:103A6000240500203333F33FC40400202C0500203C
:103A7000280500203005002034050020C80400205F
:103A8000E4040020DC04002008050020D00400200D
:103A9000E80E0020D4040020E8040020E004002008
:103AA000EC040020F0040020D8040020F4040020DE
:103AB000F8040020FC04002000050020040500207C
:103AC000CC0400207B14AE47E17A743FC004002090
:103AD0002DE9F04F8BB083468A46504607F0C0F977
:103AE00080461C4A1C4B06F0ABFECDE902011B4888
:103AF000006807F0B5F9CDE90001DDE9022306F021
:103B0000F5FB04460D46164801684FF07E5007F05D
:103B1000DBFC804607F0A4F9064622462B4606F059
:103B20008FFECDE906010E480168584607F0C4FB38
:103B3000044607F095F9CDE90401DDE9062306F016
:103B4000D5FBCDE9080106F09FFB064908600BB0E4
:103B5000BDE8F08F7B14AE47E17A743FC4040020C7
:103B6000C0040020C8040020F948806940F0040027
:103B7000F7498861F74800684FF20F018843F5491B
:103B800008600846006843F203010843F1490860F1
:103B9000704710B5EF48006820F00F00ED4908604D
:103BA0000846006840F0030008600120EA49086008
:103BB000EA48D0F8200108B9002010BD0120E649EC
:103BC0000C31086000F099FF0020E449C1F8A00121
:103BD000E1488038006808B10020EEE7012000F0DD
:103BE0008CFF0020DC490C3108600120E5E710B5AE
:103BF000D848006820F00F00D649086008460068E1
:103C000040F0030008600020D3490C310860D3491C
:103C1000C1F8A001012000F070FF0120CE490C3155
:103C20000860CE49C1F8A00100F067FF10BD10B5D3
:103C30000024C848006820F00F00C6490860084604
:103C4000006840F0080008600120C349086000F0E7
:103C500054FF0120C149C1F8AC0100F04EFF0AE059
:103C6000601CC4B2322C03DDFFF7C1FF002010BD81
:103C7000012000F042FFB848803800680028EFD1EA
:103C8000B5490C3108600120F1E710B50020B249B8
:103C90000C310860AF48006820F00F00AD490860A3
:103CA0000846006840F0030008600020AB49C1F8F6
:103CB000A001012000F021FF0120A7490C3108607C
:103CC00000F01BFF0020A549C1F8AC0110BD10B5E4
:103CD0000020A1490C3108609E48006820F00F00C8
:103CE0009C4908600846006840F003000860012015
:103CF0009A49C1F8A00100F000FF012096490C315B
:103D0000086000F0FAFE00209449C1F8AC0110BD33
:103D100070B504468F48006820F00F008D49086098
:103D20000846006840F00300086000208A490C3112
:103D30000860002516E0E009874908606006040E67
:103D4000012000F0DAFE01208449C1F8AC0100F046
:103D5000D4FE002080490C310860012000F0CDFE27
:103D6000681CC5B2082DE6DB70BD2DE9F0410546A3
:103D70000E4617469846FFF70CFF10B90120BDE824
:103D8000F0816906080EFFF7C3FFFFF750FF18B96F
:103D9000FFF72DFF0120F2E73046FFF7B9FFFFF7ED
:103DA00046FF00240BE018F80400FFF7B1FFFFF70F
:103DB0003EFF18B9FFF71BFF0020E0E7641CBC4280
:103DC000F1DBFFF714FF0020D9E770B505460024AA
:103DD0006048006820F00F005E49086008460068EF
:103DE00040F008000860002617E000205A490C3116
:103DF0000860022000F081FE01205849C1F8AC01A2
:103E00006006040E54488038006808B1601CC4B2D3
:103E1000022000F072FE701CC6B2082EE5DB15B160
:103E2000FFF733FF01E0FFF752FF204670BD2DE999
:103E3000F04106460F4614461D46FFF7AAFE10B98C
:103E40000120BDE8F0817106080EFFF761FFFFF762
:103E5000EEFE18B9FFF7CBFE0120F2E73846FFF778
:103E600057FFFFF7E4FEFFF794FE012101EB460147
:103E7000C8B2FFF74DFFFFF7DAFE0DE0012C04D1C9
:103E80000020FFF7A2FF287003E00120FFF79DFF4D
:103E900028706D1C601EC4B2002CEFD1FFF7A7FE86
:103EA0000020CEE770B505460E460024FFF771FEF0
:103EB0002846FFF72DFF641CFFF7B9FE3046FFF7D9
:103EC00027FF641CFFF7B3FEFFF763FE691CC8B24F
:103ED000FFF71EFF641CFFF7AAFE0020FFF775FF27
:103EE0000446FFF784FE204670BD2DE9F0410746E9
:103EF000884615461E460024FFF74BFE3846FFF75E
:103F000007FFFFF794FE4046FFF702FFFFF78FFE23
:103F1000FFF73FFE791CC8B2FFF7FAFEFFF787FEF6
:103F200000BF0DE0681EA04204D00120FFF74DFF46
:103F3000305503E00020FFF748FF3055601CC4B245
:103F4000AC42EFDBFFF753FE2046BDE8F0810000F6
:103F50000010024004080140A0012142000021425B
:103F60002DE9F04180460D4616461F460024FFF716
:103F700010FE4046FFF7CCFEFFF759FE2846FFF73C
:103F8000C7FEFFF754FE00BF06E0385DFFF7C0FE36
:103F9000FFF74DFE601CC4B2B442F6DBFFF727FE0C
:103FA0000120BDE8F08170B505460E461446314645
:103FB0002846FFF777FF2070012070BD37B5044613
:103FC0000D4602AB012229462046FFF7C9FF3EBD40
:103FD0002DE9F8430746884614461D46089E6A4662
:103FE00041463846FFF7DFFF28B3601CFF2101FA86
:103FF00000F0C4F108012944491EFF220A41104380
:1040000000F0FF09C5F1080006FA00F0C6B2C4F1DD
:10401000070006419DF8000000EA090000909DF8A5
:104020000000304300909DF8002041463846FFF7DD
:10403000C5FFBDE8F8830020FBE7F8B506460F464C
:1040400014461D466A4639463046FFF7ACFF2DB18F
:104050000120A0409DF80010084305E00120A04089
:104060009DF8001021EA0000C0B200909DF80020E9
:1040700039463046FFF7A2FFF8BD0000014691F92E
:104080000020002A01DD00201EE091F90020002A16
:1040900001DA042018E091F90120002A01DD012055
:1040A00012E091F90120002A01DA05200CE091F9D3
:1040B0000220002A01DD022006E091F90220002AF8
:1040C00001DA062000E00720704770B50546284653
:1040D000FFF7D4FF0446E81CFFF7D0FF44EAC00016
:1040E00084B2A81DFFF7CAFF44EA801084B22046BC
:1040F00070BD70B588B002A905A8FEF788F904461E
:10410000072C3FD101A8FDF7F7FB059807F074F8DD
:104110000646019907F0D0F8054607F031F80590FA
:10412000069807F069F80646019907F0C5F80546B4
:1041300007F026F80690079807F05EF80646019902
:1041400007F0BAF8054607F01BF8079005A8FEF738
:104150006EFC6846FDF7EDFBBDF800100298484381
:104160000290BDF80010039848430390BDF800107A
:1041700004984843049002A8FEF7ECFCFEA003F06C
:10418000E9FF00BF08B070BD2DE9F04304460D46BD
:10419000DDE907670021012041E0DFF800C43CF8B9
:1041A0001080A0F1010CDFF8F49329F81C8009F1CC
:1041B000160C3CF81090A0F1010CDFF8E08308F138
:1041C000160828F81C9008F1160C3CF81090A0F185
:1041D000010C08F1160828F81C9008F1160C3CF8A0
:1041E0001090A0F1010C08F1160828F81C9008F1B5
:1041F000160C3CF81090A0F1010C08F1160828F8F4
:104200001C9008F1160C3CF81090A0F1010C08F17C
:10421000160828F81C9000F1010C0CF0FF000A2889
:10422000BBDBDFF878C3ACF81240ACF82850ACF830
:104230003E20ACF85430ACF86A60ACF880700021D5
:10424000002008E0DFF854C33CF910C0614400F1DD
:10425000010C0CF0FF000A28F4DB4FF00A0C91FB74
:10426000FCFC0FFA8CFCDFF83483A8F814C00021A2
:1042700000200AE0DFF824C30CF1160C3CF910C052
:10428000614400F1010C0CF0FF000A28F2DB4FF052
:104290000A0C91FBFCFC0FFA8CF8DFF800C3ACF8B9
:1042A0002A80002100200AE0DFF8F0C20CF12C0C7B
:1042B0003CF910C0614400F1010C0CF0FF000A2829
:1042C000F2DB4FF00A0C91FBFCFC0FFA8CF8DFF8E4
:1042D000CCC2ACF84080002100200AE0DFF8BCC26C
:1042E0000CF1420C3CF910C0614400F1010C0CF0DF
:1042F000FF000A28F2DB4FF00A0C91FBFCFC0FFADE
:104300008CF8DFF898C2ACF85680002100200AE053
:10431000DFF888C20CF1580C3CF910C0614400F180
:10432000010C0CF0FF000A28F2DB4FF00A0C91FBA5
:10433000FCFC0FFA8CF8DFF864C2ACF86C8000214A
:1043400000200AE0DFF854C20CF16E0C3CF910C0FA
:10435000614400F1010C0CF0FF000A28F2DB4FF081
:104360000A0C91FBFCFC0FFA8CF8DFF830C2ACF8B9
:104370008280BDE8F08338B50446032302226B2116
:10438000D0200094FFF724FE38BD38B50446022340
:1043900004221B21D0200094FFF71AFE38BD38B547
:1043A0000446022304221C21D0200094FFF710FEB3
:1043B00038BD10B50446234606226B21D020FFF7F6
:1043C0003CFE10BD10B5764B01227521D020FFF7C1
:1043D0008CFD7348007810BD10B5FFF7F3FF682817
:1043E00001D1012010BD0020FCE710B50446234692
:1043F00005226A21D020FFF720FE10BD10B504462B
:10440000234601223721D020FFF717FE10BD10B53B
:104410000220FFF7B0FF0320FFF7B7FF0020FFF7F0
:10442000BEFF0020FFF7C5FF0020FFF7DEFF0020E2
:10443000FFF7E4FF10BD38B5002000906B46012265
:1044400075216820FFF7F3FC56A003F083FE9DF86A
:10445000000068280ED000BF5B48006800F4E060F0
:104460005A490843001D58490860BFF3408F00BFF8
:1044700000BFFEE7FCF74DFF00283CD17820FCF799
:10448000B0FB10B947A003F065FE7820FCF790FD63
:1044900010B94FA003F05EFEC820FCF76AFE10B909
:1044A00055A003F057FEFEF727FA10B95CA003F001
:1044B00051FE6848FFF709FE0446FEF727FA10B9D7
:1044C00065A003F047FE40F27310FEF760FE10B9DE
:1044D0006BA003F03FFEC820FEF7D2FB10B972A01C
:1044E00003F038FEFFF705FE0120FDF74BFF10B982
:1044F00076A003F02FFE38BD2DE9F04F8FB00CA849
:104500007B490DAB08AACDE900107A497A48FEF73D
:104510009DFF7748008800F4807000282AD0089812
:1045200006F06AFE04464FF09D4106F033FD7349E4
:104530000860099806F060FE04464FF09D4106F0C1
:1045400029FD6F4908600A9806F056FE04464FF0B0
:104550009D4106F01FFD6B4908600B9806F04CFE6C
:1045600004464FF09D4106F015FD67490860634819
:104570000168CBE0A0E1000073657474696E672088
:10458000626961732073756363657366756C6C79BA
:10459000202E2E2E2E2E2E0D0A000000060F00209B
:1045A000F80E00206D70755F7365745F73656E73D0
:1045B0006F7220636F6D706C657465202E2E2E2EC9
:1045C0002E2E0D0A000000000CED00E00000FA05A0
:1045D0006D70755F636F6E6669677572655F66693A
:1045E000666F20636F6D706C657465202E2E2E2EA5
:1045F0002E2E0D0A000000006D70755F7365745FEC
:1046000073616D706C655F7261746520636F6D704E
:104610006C657465202E2E2E2E2E2E0D0A000000A5
:10462000646D705F6C6F61645F6D6F74696F6E5FF6
:104630006472697665725F6669726D776172652012
:10464000636F6D706C657465202E2E2E2E2E2E0DD0
:104650000A00000064050020646D705F7365745F7C
:104660006F7269656E746174696F6E20636F6D70CF
:104670006C657465202E2E2E2E2E2E0D0A00000045
:10468000646D705F656E61626C655F6665617475AF
:10469000726520636F6D706C657465202E2E2E2EF2
:1046A0002E2E0D0A00000000646D705F7365745F4C
:1046B0006669666F5F7261746520636F6D706C65AB
:1046C0007465202E2E2E2E2E2E0D0A006D70755F15
:1046D0007365745F646D705F737461746520636F7C
:1046E0006D706C657465202E2E2E2E2E2E0D0A00F8
:1046F000440500203E050020380500205405002018
:10470000580500205C050020600500204FF0804027
:1047100006F0D2FD069085480168069806F0CCFDAB
:104720008246834801684FF0404006F0C5FD069080
:1047300080480168069806F0BFFD8346514606F0A2
:10474000BBFB079006F08CFB804605F0A3F90646FC
:104750004FF06632784B06F073F8044605F094FD8E
:1047600076490860714801684FF0804006F0A4FD6A
:1047700003906E480168039806F09EFD82466C48DF
:1047800001684FF0404006F097FD039068480168CB
:10479000039806F091FD8346514606F095FE81464A
:1047A0004FF07E5106F088FB044606F059FBCDE938
:1047B0000401634801684FF0804006F07DFD8346A8
:1047C0005B480168584606F077FD81465748016806
:1047D0004FF0804006F070FD834656480168584609
:1047E00006F06AFD8246494606F066FB044606F07E
:1047F00037FB0746DDE9042305F09CFB4FF06632EA
:104800004D4BCDE9060106F01BF8054605F03CFDD1
:104810004C49086047480168006806F04DFD039068
:1048200042480168006806F047FD02904048016870
:10483000006806F041FD834641480168006806F0C3
:104840003BFD5946019006F037FB8246029906F07F
:104850003BFE8146039906F037FE044606F000FB56
:10486000CDE90401334801683548006806F024FDAD
:1048700082462E4801682E48006806F01DFD8346DA
:10488000514606F019FB81464FF0804106F014FDB9
:10489000044606F0E5FA0746DDE9042305F04AFB85
:1048A0004FF06632244BCDE9060105F0C9FF0546FD
:1048B00005F0EAFC244908600FB0BDE8F08F2DE94F
:1048C000F05F4221D020FFF7EDFA05464121D020CC
:1048D000FFF7E8FA05EB0024204606F08DFC82463F
:1048E0004FF08E41504606F0B3FD05D24FF08F4198
:1048F000504606F0E9FD82461449504606F04AFB50
:10490000834606F0ADFA8046114A124B05F0EEFCE4
:1049100006460022104B05F093FF044605F0B4FC58
:104920008246504606F02CFCBDE8F09F5C05002056
:10493000580500206005002066A64C404805002070
:10494000540500204C050020500500200000AA431B
:10495000A4703D0AD7434240000024407FB505467D
:104960000C460121022002F068FAADF80850ADF8BB
:1049700004400020ADF80A00ADF8060001A93B484C
:1049800002F08AFD01221146384803F0FCF81D2090
:104990008DF8000000208DF8010003208DF8020042
:1049A00001208DF80300684601F0B5FE01212F4873
:1049B00003F0CEF87FBD30B589B005460C46012125
:1049C000084602F03AFA0121052002F029FA0F20E8
:1049D000ADF8200018208DF8230003208DF8220068
:1049E00008A9234801F060FFADF81850ADF8144055
:1049F0000020ADF81A00ADF8160005A94FF0804070
:104A000002F04AFD7020ADF804000120ADF8060068
:104A10000020ADF80C0001A94FF0804002F079FDB4
:104A20000821C80603F0C4F901A94FF0804002F044
:104A3000B2FD0821C80603F0C4F901A94FF0804077
:104A400002F0F6FD0821C80603F0C8F901A94FF0ED
:104A5000804002F038FE0821C80603F0C8F90121A1
:104A6000880703F075F809B030BD0000000400406D
:104A70000008014008B50121082002F0D1F92020EA
:104A8000ADF8000010208DF8030003208DF802001F
:104A900069460B4801F008FF0121042002F0C0F92B
:104AA0004FF48050ADF8000010208DF80300032073
:104AB0008DF802006946034801F0F6FE08BD0000CB
:104AC000000C01400008014010B56FF0040001F037
:104AD0006CFE2E4800682E49B0FBF1F02D4908709D
:104AE0000846007800EB4001C1EBC0104FF6FF71A3
:104AF00001EAC0002849088010BD0146254A127805
:104B00004A434FF0E0235A6100229A611A46126923
:104B100042F001021A6100BF4FF0E022106900F07C
:104B200001021AB100F48032002AF5D04FF0E022E1
:104B3000126922F001024FF0E0231A6100229A610B
:104B400070470146144A12884A434FF0E0235A61E5
:104B500000229A611A46126942F001021A6100BFEE
:104B60004FF0E022106900F001021AB100F4803227
:104B7000002AF5D04FF0E022126922F001024FF036
:104B8000E0231A6100229A617047000000000020B3
:104B900000127A00740500207605002010B54FF44D
:104BA000A06001F0B3FD10BD2DE9FF478246BAF1C8
:104BB000010F7DD04421D020FFF774F90546432131
:104BC000D020FFF76FF905EB0024204606F014FB18
:104BD000FE4908604621D020FFF764F905464521CB
:104BE000D020FFF75FF905EB0024204606F004FB18
:104BF000F74908603E21D020FFF754F905463D21D2
:104C0000D020FFF74FF905EB0024204606F0F4FA18
:104C1000F04908604021D020FFF744F905463F21C4
:104C2000D020FFF73FF905EB0024204606F0E4FA18
:104C3000E94908603C21D020FFF734F905463B21C3
:104C4000D020FFF72FF905EB0024204606F0D4FA18
:104C5000E2490860DE48006806F092FA04B2204695
:104C600006F0CAFADA490860D848006806F088FAFF
:104C700004B2204606F0C0FAD44908604FF08E41D5
:104C8000D548006806F0E4FB07D24FF08F41D248C8
:104C9000006806F019FCD04908604FF08E41CD48FD
:104CA000006806F0D5FB09D24FF08F41C94800E0FB
:104CB000B9E0006806F008FCC64908604FF08E4174
:104CC000C648006806F0C4FB07D24FF08F41C348C6
:104CD000006806F0F9FBC1490860BF48006806F0AB
:104CE000BFF8CDE90001BD48006806F0B9F80646F6
:104CF000DDE9002305F01EF90022B94BCDE90201E0
:104D000005F09EFD0446B74AB74B05F0ABFB804665
:104D100005F0BAFAB549086008460068B449086069
:104D2000AD48006806F09CF8CDE90001A94800688C
:104D300006F096F80646DDE9002305F0FBF880460C
:104D40000022A74B05F07CFD0446A64AA64B05F0C1
:104D500089FBCDE9020105F097FAA04908609C485B
:104D6000006806F07DF804464FF06632A14B05F06E
:104D700079FB064605F088FA954908609348006873
:104D800006F06EF804464FF066329A4B05F06AFB67
:104D9000064605F079FA8D4908608D480068964905
:104DA00008608A480068954908609548007802289C
:104DB00009D18748006880F0004421468B4800688C
:104DC000FEF7EEFC12E08E48007803280ED18048F2
:104DD000006880F00044214684480068FEF744FCE7
:104DE0007A4801687D480068FEF78CFC4FF07E51E0
:104DF0008448006806F060F8044606F031F8824AFC
:104E000003C24FF07E518148006806F055F8044611
:104E100006F026F87E4A03C27E497448006806F010
:104E20004BFA7D49C860BDE8FF8730B502460B46A6
:104E30004FF6FF70002112E0555C684000240AE044
:104E400000F0010525B14AF2010585EA600000E0A5
:104E50004010651CECB2082CF2DB4D1CE9B2994203
:104E6000EADB30BD70B590B0064600200C900D9086
:104E70000E900F90089009900A900B900590069064
:104E800007900025002406E056F8240001A941F807
:104E90002400601CC4B2042CF6DB00240FE001A93E
:104EA00051F8240006F06CF90CA941F824000CA874
:104EB00050F8240008A941F82400601CC4B2042C56
:104EC000EDDB002411E008A810F8240005A901F882
:104ED000140008A830F82400C0F30720012101EBDA
:104EE000440105AA5054601CC4B2042CEBDB082119
:104EF00005A8FFF79AFF05462846E91705EB11615B
:104F00000912A5EB0121C9B28DF81C10E91705EBB8
:104F10001161090A8DF81D10002406E005A8015D45
:104F20003EA003F017F9601CC4B20A2CF6DB10B0E7
:104F300070BDFFF79FFDFFF7C7FDFFF72FFE4FF492
:104F4000E13001F032FBFBF7CEFCFBF712FBFEF782
:104F50000BFEFFF75CFA002148F69F40FFF72BFDA0
:104F600041F61F413220FFF7F9FC48F69F414FF010
:104F7000804003F085F848F69F414FF0804003F0F1
:104F800081F848F69F414FF0804003F07DF848F6E5
:104F90009F414FF0804003F079F818E30320FFF7BA
:104FA00003FE19480CC81EA003F0D4F800221346D3
:104FB000154903C905F042FD6CD22B201949087030
:104FC000114903C905F0A6FB2EE00000AC0D00203E
:104FD000B00D00208C0E0020A80D0020A40D002094
:104FE00000806640F1D4C853FB210940A00D002089
:104FF000840E002066663040800E00207C0E00206B
:105000007E0D0020C8040020880D0020C40400206C
:10501000800D00200000C842A00F00202563000082
:1050200025660A008C0F00204FF47A7190FBF1F096
:105030000A2190FBF1F201FB12003030FD4948706B
:10504000FD4903C905F066FB642190FBF1F00A21DC
:1050500090FBF1F201FB12003030F6498870F649FE
:1050600003C905F057FB0A2190FBF1F090FBF1F228
:1050700001FB12003030EF49C870EF4903C905F059
:1050800049FB0A2190FBF1F201FB12003030E949A3
:1050900008714BE02D20E7490870E749D1E900414C
:1050A00081F00041204605F035FB4FF47A7190FB0A
:1050B000F1F00A2190FBF1F201FB12003030DD49E2
:1050C0004870DD49D1E9004181F00041204605F0FA
:1050D00021FB642190FBF1F00A2190FBF1F201FB2E
:1050E00012003030D3498870D349D1E9004181F0B2
:1050F0000041204605F00EFB0A2190FBF1F090FBE9
:10510000F1F201FB12003030CA49C870CA49D1E936
:10511000004181F00041204605F0FCFA0A2190FB95
:10512000F1F201FB12003030C2490871002213462F
:10513000C24903C905F082FC3CD22B20C04908704B
:10514000BE4903C905F0E6FA4FF47A7190FBF1F01D
:105150000A2190FBF1F201FB12003030B84948708F
:10516000B64903C905F0D6FA642190FBF1F00A2193
:1051700090FBF1F201FB12003030B1498870AF4969
:1051800003C905F0C7FA0A2190FBF1F090FBF1F298
:1051900001FB12003030AA49C870A84903C905F0C4
:1051A000B9FA0A2190FBF1F201FB12003030A44958
:1051B00008714BE02D20A2490870A049D1E90041B7
:1051C00081F00041204605F0A5FA4FF47A7190FB7A
:1051D000F1F00A2190FBF1F201FB12003030984906
:1051E00048709649D1E9004181F00041204605F020
:1051F00091FA642190FBF1F00A2190FBF1F201FB9E
:10520000120030308E4988708C49D1E9004181F01C
:105210000041204605F07EFA0A2190FBF1F090FB58
:10522000F1F201FB120030308549C8708349D1E9A1
:10523000004181F00041204605F06CFA0A2190FB04
:10524000F1F201FB120030307D4908710023794AE8
:1052500019463C20FBF764FA0023794A19460220DC
:10526000FBF75EFA77480078002875D17648007819
:10527000012800D100E0002003460C22022100207A
:10528000FBF783FA70480078012800D100E0002085
:1052900003460D2202211020FBF777FA6A480078B6
:1052A000012800D100E0002003460E220221202028
:1052B000FBF76BFA64480078012800D100E0002079
:1052C00003460F2202213020FBF75FFA5E48007888
:1052D000012800D100E000200346042202214020E2
:1052E000FBF753FA58480078022801D1012000E06A
:1052F000002003460C2204210020FBF746FA524806
:105300000078022801D1012000E0002003460D2290
:1053100004211020FBF739FA4B480078022801D10C
:10532000012000E0002003460E2204212020FBF78C
:105330002CFA45480078022801D1012000E0002025
:1053400003460F2204213020FBF71FFA3E48007865
:10535000022802D1012001E054E00020034604228B
:1053600011464020FBF711FA37480078022801D196
:10537000012000E00020034634A204215020FBF766
:10538000CFF931480078022801D1012000E0002047
:105390000346052204215720FBF7F7F92A48007835
:1053A000032801D1012000E000200346102206213D
:1053B0000020FBF7EAF924480078032801D10120F6
:1053C00000E000200346112206211020FBF7DDF942
:1053D0001D480078032801D1012000E00020034689
:1053E0000E2206212020FBF7D0F917480078032869
:1053F00001D1012000E0002003460F2206213020C9
:10540000FBF7C3F94FF48071114801F0E0FA50BB8B
:1054100000BF4FF480710E4801F0D9FA0028F8D08F
:105420000C480078C0B908480078401C40B20649D2
:10543000087018E08C0F0020880D0020800D0020DF
:10544000960F00207D0D0020780D00202C0000001C
:10545000000C0140790D0020FD49FE48006805F070
:105460002BFDFC4908604FF40071FB4801F0AFFAD6
:10547000C8B900BF4FF40071F74801F0A8FA00283E
:10548000F8D0F648007830B9F5480078401E40B2B0
:10549000F349087007E04FF07E51F248006805F0CC
:1054A0000BFDF04908604021EB4801F090FA58B933
:1054B000FBF75FF800BF4021E74801F088FA0028B9
:1054C000F9D00120E84908708021E34801F07FFA13
:1054D000B0BBFBF74EF800BF8021DF4801F077FA40
:1054E0000028F9D00020E0490870DC49087048F62F
:1054F0009F40DE4A014610604FF0804002F0C0FD40
:1055000048F69F40DA4A014610604FF0804002F0B2
:10551000B9FD48F69F40D74A014610604FF08040E1
:1055200002F0B2FD48F69F40D34A014610604FF0AA
:10553000804002F0ABFD0020D0490870D0490860DF
:10554000C74890F90000032802DD0020C449087014
:10555000C34890F90000002802DA0320C04908700F
:10556000C1480078012832D1BD480078012819D1FE
:105570000021C348006805F0CFFD02D10120BF49DA
:1055800008700022BF4BC04903C905F057FA06D284
:105590000220BA4908704FF07E50B94908600120D6
:1055A000AE490870AE480078022809D10020B74AF9
:1055B00010605060B64A106050600320AF49087018
:1055C000A7480078032802D10420AC490870E5E41C
:1055D00070B5B048006800283ED1AF4908600FE0C0
:1055E0000020A44A014610604FF0804002F04EFDBA
:1055F0004FF07E51A848006805F05EFCA64908609F
:10560000A649A548006805F023FEE9D30020A24979
:10561000086018E048F69F40964A014610604FF037
:10562000804002F033FD0020924A014610604FF0A6
:10563000804002F025FD4FF07E519748006805F04C
:105640003BFC9549086095499348006805F000FEC9
:10565000E0D301208F49086048F69F40854A014603
:1056600010604FF0804002F011FD48F69F40814AE3
:10567000014610604FF0804002F002FD88488949E1
:105680000860814801460CC803C905F0D9F80446F2
:105690000022854B05F098F87ED2002183480068EF
:1056A00005F0D6FE13D2824801688248006805F0F2
:1056B00003FE0446804801688048006805F0FCFD50
:1056C0000546214605F0F8FB7849086015E0784862
:1056D00001687848006805F0EFFD064676480068E6
:1056E00080F0004575480168284605F0E5FD044650
:1056F000314605F0E1FB6D4908606F4801686C4870
:10570000006805F0D9FB6A49086000216C48006810
:1057100005F09EFE1AD200205F4908600FE00020CD
:10572000544A014610604FF0804002F0ADFC4FF04B
:105730007E515948006805F0BFFB57490860614930
:105740005548006805F084FD1AD2E8E70020524968
:1057500008600FE00020474A014610604FF080408B
:1057600002F094FC4FF07E514B48006805F0A4FB1A
:105770004949086053494848006805F069FDE9D384
:1057800048F6A0403B4A01461060400602F07CFC0F
:1057900048F6A040374A00E041E00146106040066C
:1057A00002F074FC00214148006805F051FD05D26B
:1057B0003E48006880F000403C49086042493B4850
:1057C000006805F045FE02D23F48384908600021D4
:1057D0003E48006805F03CFE10D2344801683C4861
:1057E00005F072FE054605F0CBFC224984B2086044
:1057F00021464FF0804002F045FC20E02B48016834
:10580000334805F061FE054605F0BAFC194984B23B
:10581000086021464FF0804002F032FC0FE048F66D
:10582000A040144A01461060400602F029FC48F6E8
:10583000A040104A01461060400602F023FC2548B3
:1058400001460CC803C904F0FBFF0446002243E0F4
:1058500000002041080E0020000C0140790D0020BE
:10586000780D0020100E00207D0D0020140E002069
:10587000180E00201C0E0020200E00207A0D0020A3
:10588000C80D002000002440800D0020900D002055
:10589000980D00209C0E0020B80E00200050C34739
:1058A0000000A041380E002000003040A80E00206B
:1058B000B00E00205C0E0020400E0020580E00208C
:1058C000AC0D00200000484400B80847800E0020BE
:1058D00000A00C47880D0020FE4B04F075FF2BD272
:1058E00000221346FC4903C904F06EFF12D2FA49A4
:1058F00003C981F00041F84A03C2F74903C904F023
:1059000009FFF6490860F44903C981F00041F24AF1
:1059100003C205E0F04903C904F0FCFEEF4908604A
:10592000EE48006805F068FC0446ED480168204632
:1059300005F0BFFDEB490860EB4801460CC803C900
:1059400004F07EFF04460022E84B04F03DFF7DD2C8
:105950000021E748006805F07BFD13D2E5480168A7
:10596000E548006805F0A8FC0446E4480168E448FE
:10597000006805F0A1FC0546214605F09DFADC49CA
:10598000086015E0DB480168DB48006805F094FC1E
:105990000646DA48006880F00045D9480168284684
:1059A00005F08AFC0446314605F086FAD0490860C5
:1059B000D2480168CF48006805F07EFACD490860FA
:1059C0000021D048006805F043FD1AD20020CE49DE
:1059D00008600FE00020CD4A014610604FF0804083
:1059E00002F04EFB4FF07E51C748006805F064FAA4
:1059F000C5490860C649C448006805F029FC1AD2A8
:105A0000E8E70020C04908600FE00020BF4A0146D7
:105A100010604FF0804002F035FB4FF07E51BA48E5
:105A2000006805F049FAB8490860B949B648006805
:105A300005F00EFCE9D348F6A040B44A01461060D8
:105A4000400602F01DFB48F6A04000E042E0AF4AED
:105A500001461060400602F015FB0021A4480068D2
:105A600005F0F6FB05D2A248006880F00040A0498E
:105A70000860A8499E48006805F0EAFC02D2A548E3
:105A80009B4908600021A448006805F0E1FC10D2A1
:105A900097480168A14805F017FD054605F070FB21
:105AA0009A4984B2086021464FF0804002F0EEFA35
:105AB00020E08F480168994805F006FD054605F08D
:105AC0005FFB924984B2086021464FF0804002F0AB
:105AD000DBFA0FE048F6A0408C4A01461060400611
