:020000040800F2
:100000004013002085040008890200088B020008C4
:100010008F02000893020008970200080000000009
:100020000000000000000000000000009B0200082B
:100030009D020008000000009F020008A1020008C5
:100040009F0400089F0400089F0400089F04000804
:100050009F0400089F0400089F0400089F040008F4
:100060009F0400089F0400089F0400089F040008E4
:100070009F0400089F0400089F0400089F040008D4
:100080009F0400089F0400089F0400089F040008C4
:100090009F0400089F0400089F0400089F040008B4
:1000A0009F0400089F0400089F0400089F040008A4
:1000B000E53C00089F040008CD3C00089F040008B0
:1000C0009F0400089F0400089F0400089F04000884
:1000D0009F0400084B260008C52600089F0400085E
:1000E0009F0400089F0400089F04000800F002F825
:1000F00000F06AF80AA090E8000C82448344AAF158
:100100000107DA4501D100F05FF8AFF2090EBAE855
:100110000F0013F0010F18BFFB1A43F0010318473B
:100120004C7500006C7500000A444FF0000C10F88C
:10013000013B13F0070408BF10F8014B1D1108BF65
:1001400010F8015B641E05D010F8016B641E01F805
:10015000016BF9D113F0080F1EBF10F8014BAD1C55
:100160000C1B09D16D1E58BF01F801CBFAD505E073
:1001700014F8016B01F8016B6D1EF9D59142D6D3CD
:10018000704700000023002400250026103A28BFF5
:1001900078C1FBD8520728BF30C148BF0B607047F9
:1001A000662906F0E484642903F0DC8600207047A9
:1001B0001FB504F0E5FA04000020002105F0E4FB7F
:1001C000E0601FBD10B510BD04F0DAFB1146FFF76B
:1001D000EFFF00F026F804F0F8FB03B4FFF7F2FF9E
:1001E00003BC02F0B7F9000000BF2349098801F001
:1001F00040010029F9D02049091D0880704700BF3F
:100200001E49098801F040010029F9D01B49091D48
:100210000880704707B5ADF80010ADF802200098CF
:100220000EBD0025002402F02BF94FF4A06000F071
:1002300049F94FF4165002F09CF91BE01048008871
:1002400000F40040B0B10E48057800240DE00D48E0
:10025000005D0949091D088000BF0748008800F0BB
:1002600040000028F9D0601CC4B2AC42EFDB002093
:1002700003490880E2E700000044004000380140E4
:100280003A0000206C030020704700BFFEE700BF6B
:10029000FEE700BFFEE700BFFEE77047704770470C
:1002A000704700000CB50020019000906C48006879
:1002B00040F480306A49086000BF6948006800F473
:1002C000003000900198401C0190009818B90198E6
:1002D000B0F5A06FF1D16248006800F4003010B1B1
:1002E0000120009001E0002000900098012843D1F7
:1002F0005C48006840F010005A49086008460068F1
:1003000020F0030008600846006840F00200086022
:10031000534840685249486008464068486008466B
:10032000406840F4806048600846406820F47C10D3
:1003300048600846406840F4E81048600846006895
:1003400040F08070086000BF4548006800F0007011
:100350000028F9D04248406820F003004049486036
:100360000846406840F00200486000BF3C484068D2
:1003700000F00C000828F9D10CBD10B5FFF792FF72
:1003800010BD10B53648006840F0010034490860DF
:1003900008464068344908403149486008460068CA
:1003A000324908402E4908600846006820F4802041
:1003B00008600846406820F4FE0048604FF41F00C3
:1003C0008860FFF7DAFF4FF000602949086010BD30
:1003D00010B5002100200022214B5B6803F00C01C6
:1003E00021B1042906D0082928D107E0214B224C4D
:1003F000236027E01F4B204C236023E0184B5B68F1
:1004000003F47010164B5B6803F48032022303EB95
:10041000904022B9194B4343174C23600DE0104B19
:100420005B6803F4003323B1144B4343124C236045
:1004300003E0104B4343104C236003E00D4B0E4C84
:10044000236000BF00BF064B5B68C3F303130C4C73
:10045000E15C094B1B68CB40074C236010BD0000DA
:1004600000100240002002400000FFF8FFFFF6FEEF
:1004700008ED00E000127A000800002000093D00AD
:100480000C0000200948804709480047FEE7FEE7C6
:10049000FEE7FEE7FEE7FEE7FEE7FEE7FEE7FEE734
:1004A00004480549054A064B7047000083030008CD
:1004B000ED000008400D002040130020400F0020F8
:1004C000400F002031490143314A1160704770B537
:1004D000002100230F22C47804B32D4C246804F4B7
:1004E000E064C4F5E064210AC1F10403CA40447821
:1004F00004FA03F18478144021430901254C06785D
:10050000A155047804F01F050124AC4005786D1155
:10051000AD0005F1E025C5F8004109E0047804F0DC
:100520001F050124AC401C4D0678761145F8264085
:1005300070BD1A4A0A400243154B1B1F1A607047D0
:1005400039B1134A121D12680243114B1B1D1A6068
:1005500006E00F4A121D126882430D4B1B1D1A60E4
:100560007047042808D14FF0E021096941F00401E7
:100570004FF0E022116107E04FF0E021096921F01E
:1005800004014FF0E0221161704700000000FA05FD
:100590000CED00E000E400E080E100E080FFFF1FE0
:1005A00001460020FE4A106800F038000843106041
:1005B0007047FB49096821F00801F94A11601146AA
:1005C0000968014311607047F549096821F010017D
:1005D000F34A116011460968014311607047F14800
:1005E000EF494860F04848607047EE48EC49486081
:1005F000ED4848607047EA48006940F08000E849EB
:1006000008617047E648006940F08000E4490861ED
:1006100070470420E249C96801F0010109B10120D5
:100620000EE0DF49C96801F0040109B1022007E0CA
:10063000DB49C96801F0100109B1032000E0042082
:10064000704700B502460423FFF7E3FF034603E0CB
:10065000FFF7DFFF0346521E012B01D1002AF7D11D
:1006600002B90523184600BD30B5044604254FF4F1
:100670003020FFF7E6FF0546042D17D1C848006972
:1006800040F00200C649086108464461006940F034
:10069000400008614FF43020FFF7D3FF0546C04803
:1006A000006941F6FD710840BD490861284630BD2A
:1006B00010B504244FF43020FFF7C3FF0446042C88
:1006C00016D1B748006940F00400B54908610846F2
:1006D000006940F0400008614FF43020FFF7B1FF9F
:1006E0000446AF48006941F6FB710840AC49086117
:1006F000204610BD00B502460423FFF78AFF0346DB
:1007000003E0FFF786FF0346521E012B01D1002AAA
:10071000F7D102B90523184600BD10B504244FF4E3
:100720003020FFF7E7FF0446042C16D19C480069EF
:1007300040F004009A4908610846006940F0400012
:1007400008614FF43020FFF7D5FF04469448006954
:1007500041F6FB71084092490861204610BD002017
:100760008F49C96901F0020109B1012000E00020B0
:10077000704730B5A5250424FFF7F1FF00B100252F
:100780004FF43020FFF75DFF0446042C3AD1854832
:1007900083498860844888600846006940F02000EA
:1007A00008610846006940F0400008614FF43020BD
:1007B000FFF747FF0446042C1BD17948006941F636
:1007C000DF710840764908610846006940F0100072
:1007D000086176480580E002FFF733FF0446052CE8
:1007E00010D06F48006941F6EF7108406C4908610C
:1007F00008E0052C06D06A48006941F6EF71084010
:1008000067490861204630BD78B506460C46042588
:1008100000200090E802FFF714FF0546042D24D1C4
:100820005F48006940F001005D4908613480E802DA
:10083000FFF707FF0546042D10D1B01C0090200CD7
:1008400000990880E802FFF7FCFE0546544800695D
:1008500041F6FE7108405249086106E050480069BF
:1008600041F6FE7108404E490861284678BD70B5D2
:1008700004460D460426F002FFF7E3FE0646042E6A
:1008800011D14748006940F00100454908612580C1
:10089000F002FFF7D6FE06464148006941F6FE71B8
:1008A00008403F490861304670BD70B505460E46A8
:1008B0000424E002FFF7C5FE0446042C17D1394892
:1008C00037498860384888600846006940F0100061
:1008D00008612E80E002FFF7B4FE0446052C06D026
:1008E0002F48006941F6EF7108402D490861204604
:1008F00070BD2DE9F04304464FF6FF763746B0460B
:10090000B1460425E443E6B2C4F30727C4F307481D
:100910004FEA1469E802FFF794FE0546042D49D119
:1009200020481F498860204888600846006940F0D8
:1009300010000861FF2E06D01C4808300680E8022F
:10094000FFF77FFE0546042D08D1FF2F06D017487C
:100950000A300780E802FFF774FE0546042D0AD12D
:10096000B8F1FF0F07D011480C30A0F80080E80262
:10097000FFF767FE0546042D0AD1B9F1FF0F07D036
:100980000A480E30A0F80090E802FFF75AFE05462C
:10099000052D0FD00248006941F6EF71084007E0CD
:1009A0000020024023016745AB89EFCD00F8FF1F0F
:1009B000664908612846BDE8F08330B50546042441
:1009C0004FF43020FFF73DFE0446042C41D160482F
:1009D0005E4988605F4888600846006940F02000F2
:1009E00008610846006940F0400008614FF430207B
:1009F000FFF727FE0446042C22D15448006941F633
:100A0000DF710840514908610846006940F0100054
:100A100008611DB100205049088002E0A5204E4920
:100A200008804FF43020FFF70CFE0446052C10D050
:100A30004648006941F6EF7108404449086108E002
:100A4000052C06D04148006941F6DF7108403F4956
:100A50000861204630BDF0B505460E461746042411
:100A60003B483A4988603B488860E002FFF7E9FD6F
:100A70000446042C19D13548006940F01000334970
:100A8000086147F0F800304328433349891C088047
:100A9000E002FFF7D6FD0446052C06D02B4800697E
:100AA00041F6EF710840294908612046F0BD27480A
:100AB000C069800870472548006A704700202349B4
:100AC000096801F0200109B1012000E00020704711
:100AD00029B11E4A126902431C4B1A6104E01B4AE9
:100AE00012698243194B1A6170470146002001299F
:100AF00008D1164AD26902F001020AB1012008E0C9
:100B0000002006E0114AD2680A400AB1012000E044
:100B1000002070470D49C860704704200B49C96820
:100B200001F0010109B101200EE00849C96801F096
:100B3000040109B1022007E00449C96801F010016D
:100B400009B1032000E004207047000000200240AB
:100B500023016745AB89EFCD00F8FF1F10B50446B0
:100B6000CC48844208D10121042000F02DFB002153
:100B7000042000F029FB46E0C748844208D1012147
:100B8000082000F021FB0021082000F01DFB3AE0C6
:100B9000C248844208D10121102000F015FB002139
:100BA000102000F011FB2EE0BD48844208D1012145
:100BB000202000F009FB0021202000F005FB22E0AE
:100BC000B848844208D10121402000F0FDFA0021FC
:100BD000402000F0F9FA16E0B348844208D1012120
:100BE000802000F0F1FA0021802000F0EDFA0AE008
:100BF000AE48844207D10121801500F0E5FA0021BA
:100C0000A01500F0E1FA10BD10B50121084600F072
:100C1000DBFA0021012000F0D7FA10BD2DE9F041E8
:100C2000024600250026002000230024002791F81A
:100C300003C00CF00F0591F803C00CF0100CBCF1D0
:100C4000000F03D091F802C04CEA050591F800C0EE
:100C5000BCF1000F31D0146800202BE04FF0010CE4
:100C60000CFA00F3B1F800C00CEA03069E4220D152
:100C700083004FF00F0C0CFA03F7BC4305FA03FC9A
:100C80004CEA040491F803C0BCF1280F06D14FF0E0
:100C9000010C0CFA00FCC2F814C00AE091F803C081
:100CA000BCF1480F05D14FF0010C0CFA00FCC2F862
:100CB00010C0401C0828D1D31460B1F800C0BCF1AA
:100CC000FF0F34DD546800202EE000F1080C4FF0D7
:100CD000010808FA0CF3B1F800C00CEA03069E42C2
:100CE00021D183004FF00F0C0CFA03F7BC4305FA37
:100CF00003FC4CEA040491F803C0BCF1280F05D1B1
:100D000000F1080C08FA0CF8C2F8148091F803C03E
:100D1000BCF1480F07D100F1080C4FF0010808FAA8
:100D20000CF8C2F81080401C0828CED35460BDE8EF
:100D3000F0814FF6FF710180022181700421C170A2
:100D400070470246002093680B400BB1012000E081
:100D5000002070470146886880B270470246002034
:100D6000D3680B400BB1012000E000207047014622
:100D7000C86880B2704701617047416170470AB12D
:100D8000016100E041617047C16070474FF48032FB
:100D90000A43826181618261826982697047024689
:100DA0000020434B18684FF68073184040EA021049
:100DB00008433F4B186070473E49C8617047F0B523
:100DC0000A46002300240021002500F00046B6F169
:100DD000004F02D1364EF16901E0354E7168C0F323
:100DE000034583B200F44016B6F5401F08D121F048
:100DF00070612F4E766826F070662D4F7E6012E08F
:100E000000F48016B6F5801F06D1032606FA05F415
:100E1000A14341F0706106E0460D360103FA06F683
:100E2000B14341F0706122B1460D360103FA06F676
:100E3000314300F00046B6F1004F02D11C4EF16183
:100E400001E01B4E7160F0BD30B500228B071C0F16
:100E50000F2303FA04F2164B08338C1053F8243096
:100E60009343134C08348D1044F8253023468C10DE
:100E700053F824308C07240F00FA04F423430C4C5D
:100E800008348D1044F8253030BD0A49DC31086043
:100E90007047000000080140000C014000100140B4
:100EA0000014014000180140001C014000200140D6
:100EB0000000014000002042DF48006840F00100CF
:100EC000DD49086008464068DC490840DA49486066
:100ED00008460068DA490840D749086008460068B3
:100EE00020F4802008600846406820F4FE00486036
:100EF0004FF41F0088607047CF49096821F48031A2
:100F0000CD4A11601146096821F480211160B0F5C5
:100F1000803F03D0B0F5802F0ED106E0C6490968A6
:100F200041F48031C44A116007E0C349096841F4C3
:100F3000A021C14A116000E000BF00BF704710B59A
:100F400001460022002300204A11012A02D1BA4C96
:100F5000236806E0022A02D1B74C236A01E0B64CAE
:100F6000636A01F01F02012494401C400CB101206F
:100F700000E0002010BD38B50020009000240025BE
:100F800000BF3120FFF7DBFF05460098401C0090B2
:100F90000098B0F5A06F01D0002DF2D03120FFF7FE
:100FA000CEFF08B1012400E00024204638BD0146F0
:100FB0000020A14A106820F0F80040EAC10010604B
:100FC0007047A04908607047024600209A4B586855
:100FD00020F47C1042EA01031843974B5860704795
:100FE00098490866704701460020934A506820F0EF
:100FF00003000843506070478F48406800F00C00C1
:101000007047014600208C4A506820F0F0000843E9
:101010005060704701460020874A506820F4E06025
:1010200008435060704701460020834A506820F40E
:10103000605040EAC1005060704729B17E4A527A40
:1010400002437D4B5A7204E07B4A527A82437A4BC8
:101050005A7270477B49D8310860704701460020BA
:10106000754A506820F440400843506070470021A2
:10107000714A20321170704A82F82010012802D083
:1010800004280AD104E001216B4A2032117005E0E6
:101090000521694A2032117000E000BF00BF70478F
:1010A0006949086070476449096A0143624A1162EC
:1010B0007047654944390860704730B50021002207
:1010C000002400235C4D6D6805F00C0121B104295A
:1010D00005D0082923D105E05C4D056022E05B4D79
:1010E00005601FE0544D6D6805F47012524D6D6837
:1010F00005F48034022505EB92421CB9544D55434A
:1011000005600BE04C4D6D6805F400351DB1504D88
:101110005543056002E04D4D5543056002E04B4DDF
:10112000056000BF00BF444D6D6805F0F00109097E
:10113000484D6B5C0568DD4045603F4D6D6805F4CA
:10114000E061090A434D6B5C4568DD4085603A4DBE
:101150006D6805F46051C90A3E4D6B5C4568DD4021
:10116000C560354D6D6805F44041890B3A4D6B5CA7
:10117000C568B5FBF3F5056130BD29B12E4A52694A
:1011800002432D4B5A6104E02B4A526982432A4B99
:101190005A61704729B1284A92690243264B9A61E5
:1011A00004E0254A92698243234B9A61704729B132
:1011B000214AD2690243204BDA6104E01E4AD26917
:1011C00082431D4BDA61704729B11B4AD268024342
:1011D000194BDA6004E0184AD2688243164BDA6091
:1011E000704729B1144A12690243134B1A6104E093
:1011F000114A12698243104B1A61704712494039F3
:10120000086070470F49C86470470B49C871704740
:101210000948406A40F080700749486270470146BB
:101220000020054A92680A400AB1012000E000202F
:101230007047014988727047001002400000FFF8B3
:10124000FFFFF6FE000042428004424200127A0094
:1012500000093D001C0000202C00002010B50446B1
:10126000FE48844208D10121C014FFF7ADFF0021E0
:10127000E014FFF7A9FFC4E0B4F1804F08D10121C9
:101280000846FFF7AEFF00210120FFF7AAFFB8E0F4
:10129000F348844208D101210220FFF7A2FF002178
:1012A0000220FFF79EFFACE0EE48844208D1012106
:1012B0000420FFF796FF00210420FFF792FFA0E033
:1012C000E948844208D101210820FFF78AFF002164
:1012D0000820FFF786FF94E0E448844208D101210A
:1012E0001020FFF77EFF00211020FFF77AFF88E033
:1012F000DF48844208D101212020FFF772FF00213E
:101300002020FFF76EFF7CE0DA48844208D10121FB
:101310004014FFF759FF00216014FFF755FF70E0FC
:10132000D548844209D10121C804FFF74DFF0021AF
:101330004FF40020FFF748FF63E0D048844209D112
:1013400001210805FFF740FF00214FF48010FFF74F
:101350003BFF56E0CA48844209D101214805FFF706
:1013600033FF00214FF40010FFF72EFF49E0C5487E
:10137000844208D101214020FFF733FF00214020A3
:10138000FFF72FFF3DE0C048844208D101218020B3
:10139000FFF727FF00218020FFF723FF31E0BB4844
:1013A000844208D101218015FFF71BFF0021A01501
:1013B000FFF717FF25E0B648844209D10121080450
:1013C000FFF702FF00214FF48030FFF7FDFE18E029
:1013D000B048844209D101214804FFF7F5FE0021FD
:1013E0004FF40030FFF7F0FE0BE0AB48844208D129
:1013F00001218804FFF7E8FE00214FF48020FFF769
:10140000E3FE10BD00220288944B98420ED0994B07
:1014100098420BD0B0F1804F08D0914B984205D044
:10142000904B984202D0904B984204D14FF68F7364
:101430001A404B881A438D4B984207D08C4B9842E8
:1014400004D04FF6FF431A40CB881A4302808B88A2
:1014500083850B880385814B98420BD0854B98423E
:1014600008D08B4B984205D08A4B984202D08A4BC9
:10147000984201D10B7A038601238382704770B5AD
:10148000002400220023058C4FF6FE7635400584AB
:10149000028C8388048B4FF68F752C40B51E2C4030
:1014A0000D882C43751E2A400D892A434D882A43F6
:1014B0006A4DA8420BD06F4DA84208D0744DA84287
:1014C00005D0744DA84202D0734DA84213D14FF6F7
:1014D000F7752A404D892A434FF6FB752A408D88BF
:1014E0002A434FF6FF652B404FF6FF552B408D8961
:1014F0002B43CD892B4383800483CD88858602844A
:1015000070BD70B5002400220023058C4FF6EF76E5
:1015100035400584028C8388048B48F6FF752C4087
:101520004FF6FF452C400D884FF6FF7606EA05255D
:101530002C434FF6DF752A400D8906EA05152A432C
:101540004D8806EA05152A43444DA84202D0494D6C
:10155000A8421DD14FF67F752A404D894FF6FF7680
:1015600006EA05152A434FF6BF752A408D8806EA1C
:1015700005152A434FF6FF352B404FF2FF752B40E0
:101580008D8906EA85052B43CD8906EA85052B431F
:1015900083800483CD880587028470BD70B50024E4
:1015A00000220023058C4FF6FF6635400584028C2F
:1015B0008388848B4FF68F752C404FF6FC752C403A
:1015C0000D882C434FF6FF552A400D894FF6FF76C4
:1015D00006EA05252A434D8806EA05252A431F4DBC
:1015E000A84202D0234DA8421DD14FF2FF752A40D8
:1015F0004D894FF6FF7606EA05252A434FF6FF355B
:101600002A408D8806EA05252A434EF6FF752B40B1
:101610004DF6FF752B408D8906EA05152B43CD89C4
:1016200006EA05152B4383808483CD888587028451
:1016300070BD70B5002200230024058C4EF6FF76A5
:1016400035400584038C8488828B48F6FF752A40D8
:101650004FF6FF452A400D8820E00000002C014095
:101660000004004000080040000C00400010004052
:101670000014004000340140004C01400050014083
:101680000054014000180040001C004000200040B1
:101690000040014000440140004801404FF6FF7601
:1016A00006EA05252A434DF6FF752B400D8906EA0B
:1016B00005352B434D8806EA05352B43FA4DA842E4
:1016C00002D0FA4DA84208D14BF6FF752C408D8907
:1016D0004FF6FF7606EA85152C4384808283CD88F9
:1016E000A0F84050038470BD828B4FF2FF331A4044
:1016F0008283828B4FF6FF7303EA01231A438283AE
:101700007047F0B50C461546002200210026078CD4
:101710004EF6FF7C07EA0C070784828B018C4FF69C
:10172000FF7707EA043640F6FF473A404FF6FF7767
:1017300007EA05273A434FF6FF7707EA03373A43AC
:10174000D94FB8420ED0D94FB8420BD0B0F1804F2C
:1017500008D0D74FB84205D0D64FB84202D0D64FA6
:10176000B84206D14DF6FF77394046F480573943E9
:1017700005E047F6FF57394044F4805739438283E8
:101780000184F0BD828B4FF6F3731A408283828B03
:101790000A4382837047F0B50C46154600220021AB
:1017A0000026078C4FF6FF6C07EA0C070784828B34
:1017B000018C4FF6FF7707EA04264FF60C773A4084
:1017C0004FF6FF7707EA03172F433A43B64FB84265
:1017D0000ED0B64FB8420BD0B0F1804F08D0B44F06
:1017E000B84205D0B34FB84202D0B34FB84206D189
:1017F0004FF6FF57394046F48077394305E04FF202
:10180000FF57394044F48077394382830184F0BD27
:10181000028B4FF2FF331A400283028B4FF6FF73A5
:1018200003EA01231A4302837047F0B50C461546BC
:10183000002200210026078C4FF6EF7C07EA0C07F8
:101840000784028B018C4FF6FF7707EA041640F6F7
:10185000FF473A404FF6FF7707EA03373A434FF620
:10186000FF7707EA05273A438F4FB8420ED08F4FD4
:10187000B8420BD0B0F1804F08D08D4FB84205D0A0
:101880008C4FB84202D08C4FB84206D14FF6DF776A
:10189000394046F01007394305E04FF65F7739408D
:1018A00044F01007394302830184F0BD028B4FF6E8
:1018B000F3731A400283028B0A4302837047F0B528
:1018C0000C46154600220021068C4FF6FE773E405E
:1018D0000684028B018C4FF60C7632407E1C06EAA1
:1018E00003162E433243704EB0420ED06F4EB042BC
:1018F0000BD0B0F1804F08D06D4EB04205D06D4E88
:10190000B04202D06C4EB04206D14FF6FD76314067
:1019100044F00106314305E04FF6F576314044F0DE
:101920000106314302830184F0BD70B505460C46C3
:101930005D4885420ED05D4885420BD0B5F1804FA1
:1019400008D05B48854205D05A48854202D05A48A3
:10195000854200D100E000BF208850B92389A288C9
:1019600061882846FFF7ABFFE1882846FFF79EFF16
:1019700025E0208804280AD12389A2886188284686
:10198000FFF753FFE1882846FFF742FF17E0208862
:1019900008280AD12389A28861882846FFF7FBFE20
:1019A000E1882846FFF7EEFE09E02389A2886188D6
:1019B0002846FFF7A6FEE1882846FFF795FE70BD92
:1019C0002DE9F04105460C4600260127608808B93C
:1019D000022600E00026A088012801D1022700E0AD
:1019E00001272088A0B92389A28861882846FFF7AB
:1019F00066FFE1882846FFF759FF23893A463146BA
:101A00002846FFF712FFE1882846FFF701FF13E0A1
:101A10002389A28861882846FFF707FFE1882846C6
:101A2000FFF7F6FE23893A4631462846FFF747FF7F
:101A3000E1882846FFF73AFFBDE8F0810A884B8825
:101A40001A438B881A43CB881A430B891A434B8954
:101A50001A438B891A43A0F8442070474FF6FF7150
:101A6000818000210180C180418001727047002186
:101A7000018041808180C180018141818181C1815A
:101A80007047002101804180012181800021C180B7
:101A9000018170470021018041808180C1800181E6
:101AA0004181818170470000002C014000340140D9
:101AB0000004004000080040000C004021B10288F2
:101AC00042F00102028004E002884FF6FE731A40E1
:101AD0000280704731B1B0F8442042F40042A0F8CF
:101AE000442005E0B0F84420C2F30E02A0F84420E0
:101AF00070471AB183890B43838102E083898B434A
:101B0000838170478182704741EA0203A0F8483020
:101B100070471AB183890B43838102E083898B4329
:101B20008381704701894FF6F87211400181704737
:101B30000A46002101894FF68F7319401143018134
:101B4000704730B504460D4629462046FFF7F0FFA2
:101B5000208940F00700208130BD2DE9F041044686
:101B60000D4616461F46602D06D13B4601223146E2
:101B70002046FFF75AFE05E03B460122314620464B
:101B8000FFF79DFE29462046FFF7D2FF208940F04F
:101B900007002081BDE8F08130B50C4600210189A5
:101BA000C9B24FF6FF7505EA0325154325432943BE
:101BB000018130BD2DE9F04105460E461746984695
:101BC000002443463A4631462846FFF7E5FF2C8974
:101BD0004FF6F870044044F007044FF68F7004404D
:101BE00044F070042C81BDE8F081F0B504460D4648
:101BF00016461F463B46324629462046FFF7CCFF95
:101C0000208940F480402081F0BD018582827047A8
:101C10000A46002101884FF68F7319401143018055
:101C20007047F0B50C4615461E46002100220023E1
:101C30000189028B038C4FF6F877394021434FF628
:101C4000FC473A4040F201173A434FF6DD773B40FC
:101C50004FF6FF7707EA06172F433B4301810283C4
:101C60000384F0BD0A460021018B4FF68F731940A3
:101C70001143018370470A460021018B48F6FF7328
:101C800019404FF6FF7303EA02231943018370479B
:101C90000A460021818B4FF68F73194011438183CF
:101CA00070470A460021818B48F6FF7319404FF6B2
:101CB000FF7303EA022319438183704721B102882D
:101CC00042F08002028004E002884FF67F731A40DF
:101CD0000280704721B1828842F00402828004E0D1
:101CE00082884FF6FB731A408280704721B1828848
:101CF00042F00802828004E082884FF6F7731A40AF
:101D00008280704721B1828842F00102828004E023
:101D100082884FF6FE731A40828070470A4600217F
:101D2000018B4FF6F77319401143018370470A4640
:101D30000021018B4FF2FF7319404FF6FF7303EA46
:101D400002231943018370470A460021818B4FF615
:101D5000F77319401143818370470A460021818B34
:101D60004FF2FF7319404FF6FF7303EA0223194342
:101D7000818370470A460021018B4FF6FB7319409F
:101D80001143018370470A460021018B4FF6FF3350
:101D900019404FF6FF7303EA02231943018370478A
:101DA0000A460021818B4FF6FB7319401143818352
:101DB00070470A460021818B4FF6FF3319404FF6DA
:101DC000FF7303EA02231943818370470A46002107
:101DD000018B4FF67F7319401143018370470A4608
:101DE0000021018BC1F30E014FF6FF7303EA0223BA
:101DF0001943018370470A460021818B4FF67F7398
:101E000019401143818370470A460021818BC1F339
:101E10000E014FF6FF7303EA0223194381837047D3
:101E20000A460021018C4FF6FD73194011430184CD
:101E300070470A460021018C4FF6F7731940114391
:101E4000018470470A460021018C4FF6DF73194068
:101E50004FF6FF7303EA02131943018470470A46E1
:101E60000021018C4FF67F7319404FF6FF7303EA90
:101E700002131943018470470A460021018C4FF672
:101E8000FF5319404FF6FF7303EA022319430184FD
:101E900070470A460021018C4FF2FF7319404FF63C
:101EA000FF7303EA02231943018470470A460021A5
:101EB000018C4DF6FF7319404FF6FF7303EA0233AE
:101EC00019430184704730B5002301248C40A3B22C
:101ED000048C9C430484048C02FA01F5ADB22C43BB
:101EE000048430BD30B5002304248C40A3B2048C9C
:101EF0009C430484048C02FA01F5ADB22C430484A3
:101F000030BD70B503460020002418461830012566
:101F10008D40ACB21D8CA5431D8409B1082909D19F
:101F200000EB6100056825F0700505600568154344
:101F300005600EE00D1FC5F34E052844056825F425
:101F4000E045056005684FF6FF7606EA0226354350
:101F5000056070BD21B1028842F00202028004E0F7
:101F600002884FF6FD731A400280704721B1028843
:101F700042F00402028004E002884FF6FB731A402C
:101F80000280704721B1828842F08002828004E0A2
:101F900082884FF67F731A408280704702884FF61E
:101FA000F7731A40028002880A43028070478288D1
:101FB0004FF68F731A40828082880A43828070476E
:101FC00002894FF6F8731A40028102890A4302819E
:101FD000704702894FF67F731A40028102890A43D3
:101FE0000281704781847047818570478186704780
:101FF0000187704781877047A0F8401070470288BA
:102000004FF6FF431A40028002880A43028070475D
:102010000146888E70470146088F70470146888FB9
:1020200070470146B1F8400070470146888C704700
:102030000146088D704702460020138A0B400BB101
:10204000012000E000207047CA430282704730B58B
:102050000246002000230024158A05EA0103958921
:1020600005EA010413B10CB1012000E0002030BDED
:10207000CA4302827047000010B50446FB48844200
:1020800009D101218803FFF79FF800214FF4804018
:10209000FFF79AF832E0F648844209D1012148045A
:1020A000FFF79FF800214FF40030FFF79AF825E082
:1020B000F048844209D101218804FFF792F80021F9
:1020C0004FF48020FFF78DF818E0EB48844209D1E7
:1020D0000121C804FFF785F800214FF40020FFF725
:1020E00080F80BE0E548844208D101210805FFF79C
:1020F00078F800214FF48010FFF773F810BD2DE938
:10210000F04786B005460E460024A24600BFA14611
:102110000027B08900B100BF2F462C8A4CF6FF7013
:102120000440F08804432C82AC894EF6F31004403E
:10213000B08831890843718908430443AC81AC8A73
:102140004FF6FF400440B0890443AC8201A8FEF77B
:10215000B4FFC648874202D1DDF810A001E0DDF8E7
:102160000CA0A88900F4004040B10AEBCA0000EBC3
:102170000A1031684900B0FBF1F807E00AEBCA0029
:1021800000EB0A1031688900B0FBF1F86420B8FB5D
:10219000F0F004012009642101FB1089A88900F4F2
:1021A000004040B1322000EBC900B0FBF1F000F07C
:1021B0000700044308E0322000EB09106421B0FB63
:1021C000F1F000F00F0004432C8106B0BDE8F08769
:1021D0004FF41651016000218180C18001810C21E2
:1021E000418100218181704710B502460020108A8C
:1021F0004FF2FF0318400B884C8823438C882343FD
:10220000CC8823431843108210BD002101804180F7
:102210008180C180704721B1828942F4005282815D
:1022200004E082894DF6FF731A4082817047F0B551
:102230000346002400260025002040F66A17B94214
:1022400000D100BF1846C1F3421401F01F06012758
:1022500007FA06F5012C01D10C3004E0022C01D163
:10226000103000E014301AB107682F43076002E015
:102270000768AF430760F0BD1AB1838A0B438382BE
:1022800002E0838A8B4383827047028A4FF6F073A1
:102290001A400282028A0A430282704782894FF200
:1022A000FF731A40828182890A438281704721B17B
:1022B000828942F00202828104E082894FF6FD7336
:1022C0001A4082817047028A4FF6DF731A400282F9
:1022D000028A0A430282704721B1028A42F4804294
:1022E000028204E0028A4BF6FF731A4002827047B2
:1022F000C1F308028280704701468888C0F3080055
:102300007047818941F0010181817047028BD2B20F
:102310000283028B42EA012202837047028B02F49D
:102320007F420283028B0A430283704721B1828A73
:1023300042F02002828204E0828A4FF6DF731A4064
:102340008282704721B1828A42F01002828204E0C8
:10235000828A4FF6EF731A408282704721B1828AD7
:1023600042F00802828204E0828A4FF6F7731A4034
:102370008282704721B1828942F40042828103E067
:102380008289C2F30E028281704721B1828A42F4AF
:102390000062828204E0828A4FF2FF731A408282D6
:1023A0007047828A4FF6FB731A408282828A0A4300
:1023B0008282704721B1828A42F00202828204E066
:1023C000828A4FF6FD731A408282704702460020CF
:1023D000B1F5007F00D100BF13880B400BB1012085
:1023E00000E00020704701F40072B2F5007F00D1D8
:1023F00000BFCA430280704770B502460024002324
:102400000025002040F66A16B14200D100BFC1F39A
:10241000421501F01F03012606FA03F3012D02D134
:102420009689334006E0022D02D1168A334001E03E
:10243000968A33400C12012606FA04F416883440BA
:1024400013B10CB1012000E0002070BD10B50022D6
:10245000002340F66A14A14200D100BF0A120124F1
:102460009440A3B2DC43048010BD0000003801405A
:102470000044004000480040004C00400050004034
:1024800010B56FF00400FEF76CF82E4800682E4976
:10249000B0FBF1F02D4908700846007800EB4001D0
:1024A000C1EBC0104FF6FF7101EAC0002849088057
:1024B00010BD0146254A12784A434FF0E0235A6185
:1024C00000229A611A46126942F001021A6100BFA5
:1024D0004FF0E022106900F001021AB100F48032DE
:1024E000002AF5D04FF0E022126922F001024FF0ED
:1024F000E0231A6100229A6170470146144A12884B
:102500004A434FF0E0235A6100229A611A46126949
:1025100042F001021A6100BF4FF0E022106900F0A2
:1025200001021AB100F48032002AF5D04FF0E02207
:10253000126922F001024FF0E0231A6100229A6131
:10254000704700000800002000127A0030000020D0
:1025500032000020014600BF704700BF784A128851
:1025600002F04002002AF9D0C2B2754B1B1D1A803E
:10257000704710B588B00446012144F20400FEF70C
:1025800009FE01216F48FEF712FE4FF40170ADF80D
:102590001C0003208DF81E0018208DF81F0007A9CD
:1025A0006948FEF73BFB4FF48160ADF81C00042046
:1025B0008DF81F0007A96448FEF730FB25208DF831
:1025C000080003208DF809008DF80A0001208DF81D
:1025D0000B0002A8FDF77BFF26208DF804000320E6
:1025E0008DF805008DF8060001208DF8070001A880
:1025F000FDF76DFF03940020ADF81000ADF8120058
:10260000ADF81400ADF818000C20ADF8160003A9C1
:102610004B48FFF774FD03A94C48FFF770FD0122FA
:1026200040F225514648FFF702FE012240F22551B3
:102630004648FFF7FCFD01214148FFF7ECFD012171
:102640004248FFF7E8FD08B010BD10B540F2255133
:102650003B48FFF7D1FE10B33948FFF74DFEC4B237
:102660003B48008800F40040C8B93948008800F4AD
:10267000804060B10A2C03D000203549088020E05A
:102680003348008840F400403149088019E00D2C9F
:1026900006D12F48008840F480402D49088010E082
:1026A0002B480088C0F30D002A490C5428480088A4
:1026B000401C2749088008460088C72801DD002003
:1026C000088010BD10B540F225512048FFF794FE58
:1026D00010B31E48FFF710FEC4B21F48008800F474
:1026E0000040C8B91C48008800F4804060B10A2C42
:1026F00003D000201849088020E01748008840F4E3
:1027000000401549088019E00D2C06D112480088B8
:1027100040F480401049088010E00F480088C0F362
:102720000D000E490C540C480088401C0A490880D2
:1027300008460088C72801DD0020088010BD000081
:10274000003801400400020000080140004400403D
:1027500038000020A40200203A0000206C03002072
:1027600070B504460E4626B10221F748FEF703FB7A
:1027700003E00221F448FEF700FB1021F348FEF7C6
:10278000FCFA002517E02021F048FEF7F6FA04F0E5
:10279000800020B10121ED48FEF7EDFA03E00121B0
:1027A000EA48FEF7EAFA2021E848FEF7E4FA600674
:1027B000040E681CC5B2082DE5DB1021E348FEF7C6
:1027C000DAFA0221E048FEF7D6FA70BD70B5044689
:1027D0000E4626B10221DC48FEF7CDFA03E00221C5
:1027E000D948FEF7CAFA1021D848FEF7C6FA0025E4
:1027F00017E02021D548FEF7C0FA04F0800020B190
:102800000121D248FEF7B9FA03E00121CF48FEF7D3
:10281000B2FA2021CD48FEF7AEFA6006040E681C1D
:10282000C5B2082DE5DB1021C848FEF7A4FA022145
:10283000C548FEF7A0FA70BD70B504460D4605F117
:10284000B001C8B20021FFF78BFF102141EA14103C
:102850000021FFF785FF04F00F0141F00100002186
:10286000FFF77EFF70BD10B500218D20FFF778FFC8
:1028700000211420FFF774FF0021AF20FFF770FF45
:1028800010BD10B500218D20FFF76AFF0021102038
:10289000FFF766FF0021AE20FFF762FF10BD70B5A5
:1028A000002419E004F1B001C8B20021FFF758FF7D
:1028B00000210846FFF754FF00211020FFF750FFCA
:1028C000002505E001210020FFF74AFF681CC5B282
:1028D000802DF7DB601CC4B2082CE3DB70BD10B5A3
:1028E0004FF480619A4801F06FFC10BDF0B51446BA
:1028F00000267F2801DC3F2900DDF0BD0B46CF1705
:1029000001EB5777FF10C7F10707FAB2CF1701EBBA
:102910005777FF10A1EBC707FDB2C5F107070123E9
:10292000BB40DEB24CB18A4B03EBC0039B5C33432C
:10293000874F07EBC007BB5408E0854B03EBC00390
:102940009B5CB343824F07EBC007BB5400BFD4E787
:1029500070B500241CE004F1B001C8B20021FFF7FB
:10296000FFFE00210846FFF7FBFE00211020FFF7C5
:10297000F7FE002508E0764901EBC501085D01215D
:10298000FFF7EEFE681CC5B2802DF4DB601CC4B2FC
:10299000082CE0DB70BDF0B5034600240020A2F156
:1029A0002005ECB27F2B02DD00238D1CE9B2072944
:1029B00000DD072100200CE004EB4405654E06EB2A
:1029C00045052D5C1E18624F07EBC6067554451C65
:1029D000E8B20628F0DBF0BD10B50246012000E0A9
:1029E00050430B1EA1F10104E1B2F9D110BD2DE954
:1029F000FF4F074691461D460D9E4FF0000A0024EA
:102A000033E0281B401EC1B20A20FFF7E5FFB9FBE7
:102A1000F0F00A21B0FBF1F201FB1208BAF1000F4D
:102A200013D1681EA04210DDB8F1000F0BD1B346E0
:102A300006EBDB71491001FB0471C8B22022019939
:102A4000FFF7A9FF0FE04FF0010AB34606EBDB7179
:102A5000491001FB0471C8B208F13001CAB20199F2
:102A6000FFF799FF00BF601CC4B2AC42C9DBBDE8F0
:102A7000FF8FF0B504460F46154600260DE0AA5D0F
:102A800039462046FFF787FFA01DC4B2782C02DD2F
:102A90000024781CC7B2701CC6B2A85D0028EED115
:102AA000F0BD2DE9F04180460E461546002731461F
:102AB0004046FFF7C1FE00240AE0274A02EB8511D9
:102AC000085D0121FFF74CFE781CC7B2601CC4B240
:102AD000102CF2DB701CC1B24046FFF7ADFE0024A3
:102AE0000CE06900491C1C4A02EB4111085D012100
:102AF000FFF736FE781CC7B2601CC4B2102CF0DBA6
:102B0000BDE8F0812DE9F05F06460F4690461C4671
:102B1000DDF828A04FF0000BE11704EB5171C9104C
:102B2000A4EBC10131B92046E11704EB5171C1F3A7
:102B3000C70506E02046E11704EB5171C910491C96
:102B4000CDB23D4620E00000000C014000080140ED
:102B500034040020626C00083C0000202946304606
:102B6000FFF76AFEB1460BE059460BF1010B1AF86C
:102B700001000121FFF7F4FD09F1010000F0FF0958
:102B8000C145F1DB681CC5B2A542E7DBBDE8F09F9B
:102B900008B501210420FEF7FDFA3120ADF8000050
:102BA00010208DF8030003208DF802006946544878
:102BB000FEF734F831215248FEF7DDF801210820F4
:102BC000FEF7E8FA0320ADF8000010208DF80300AE
:102BD00003208DF8020069464A48FEF71FF80321DA
:102BE0004848FEF7C8F801214648FEF7C4F86420BB
:102BF000FFF783FC01214348FEF7BFF8C820FFF729
:102C00007CFC01213F48FEF7B6F80021AE20FFF71B
:102C1000A7FD00210846FFF7A3FD00211020FFF7C4
:102C20009FFD00214020FFF79BFD00218120FFF741
:102C300097FD0021CF20FFF793FD0021A120FFF792
:102C40008FFD0021C820FFF78BFD0021A620FFF794
:102C500087FD0021A820FFF783FD00213F20FFF71B
:102C60007FFD0021D320FFF77BFD00210846FFF701
:102C700077FD0021D520FFF773FD00218020FFF7AD
:102C80006FFD0021D920FFF76BFD0021F120FFF738
:102C900067FD0021DA20FFF763FD00211220FFF716
:102CA0005FFD0021DB20FFF75BFD00214020FFF7E7
:102CB00057FD00212020FFF753FD00210220FFF7E0
:102CC0004FFD00218D20FFF74BFD00211420FFF761
:102CD00047FD0021A420FFF743FD0021A620FFF7B8
:102CE0003FFD0021AF20FFF73BFD0021AF20FFF7A4
:102CF00037FDFFF7D4FD00210846FFF79DFD08BD15
:102D000000080140000C01400146FE480068806850
:102D1000081A704710B5002300BF04E011F8014BFA
:102D200000F8014B5B1C9342F8DB10BD0146F548EF
:102D3000006880680A1A002A03DD082A01DA0120E7
:102D400070470020FCE70FB42DE9F04389B0054639
:102D50000026B146142103A801F058FA0020009083
:102D6000019002902846FFF7E1FF20B909B0BDE8C5
:102D7000F0035DF814FB12A80890E3A1119801F08C
:102D8000B4F90446002C3FD01198201AC2B203A80F
:102D90001199FFF7BFFF641C2078642802D06628D1
:102DA00022D108E0089840C808903246D7A168466A
:102DB00001F0C4F819E00898C01D20F00700089041
:102DC000D0E90021089F08371046089702F0F2FD6D
:102DD0008146484603F022FB07463A460B46CCA103
:102DE000684601F0ABF800E000BF00BF694603A8E9
:102DF00001F0ACF92846FFF787FFC7B203AA3946AE
:102E00000A20FFF736FE08E02846FFF77DFFC7B22D
:102E100039460A20119AFFF72CFE0020089000BFC7
:102E2000A4E770B505460C46B64800688068B54909
:102E3000096849680844A84214D1B74800780528B1
:102E400010D17CB1AF4800680EC8B44800F047FD0F
:102E5000B34804600020AB49096888600120A94993
:102E60000968486070BD70B505460C46072C00DD4A
:102E70000724ACA221462846FFF7FBFD70BD2DE9D3
:102E8000F04F87B005468A4616461F460024314655
:102E9000284603F0ECFD8046002103F01BFC51D0D6
:102EA0003146284603F0E3FD81465146384603F09B
:102EB000E9FD8346494603F04BFB069028460699F8
:102EC00003F0D8FC8146514603F0D1FD0590314610
:102ED000284603F0D7FD834603F030FCB0F100092B
:102EE00001DB484601E0C9F10000401C00F0FF088A
:102EF000002424E0204603F05DFC2946019003F005
:102F0000B9FA0290069903F0B5FC8346059903F0DF
:102F1000B1FA814603F02EFCC0B20490204603F0C3
:102F200049FC8346294603F0A5FA814603F022FCBA
:102F3000C0B2012203900499FFF7D8FC641C4445F9
:102F4000D8DB2AE0002416E0204603F033FC51468B
:102F5000069003F08FFA834603F00CFC00F0FF08A4
:102F6000284603F007FC00F0FF09012241464846CD
:102F7000FFF7BCFC641C5146384603F083FD8346D2
:102F80004FF07E5103F076FA8046204603F012FCA3
:102F90008146414603F03AFCD6D307B0BDE8F08F36
:102FA00010B50446604800F070FC5B4908700846A4
:102FB000007802282BD1534800684068401C5149D2
:102FC00009684860072C19DD4E48006840680728EA
:102FD00050DD07204B49096848604A48006880680E
:102FE000401C484909688860464800688168E01FBD
:102FF00081423FDD4349096888603BE04148006801
:103000004068A04236DD3F480068446032E04248F4
:10301000007801281CD13B4800684068401E3949AF
:1030200009684860374800684068012822DA0120B2
:10303000344909684860334800688068002819DD11
:10304000304800688068401E2E490968886011E099
:103050003148007806280DD131480068406848B1F1
:103060002F48006840682E490860264801682B48B0
:1030700000F057FC10BD2DE9F047054600BF00BF2A
:103080002846FFF78DFF26490968086801F03FF8D8
:103090000446601E00EB40007F21A1EB400606EBDA
:1030A000D671481003F086FB80462049404603F065
:1030B000E9FC06461E4B324619460020FFF7DFFEAC
:1030C0001A49404603F0DEFC074603F053FBC6B244
:1030D00018A200213046FFF7CCFC04EB4401480065
:1030E00003F068FB8146414603F0C4F9074603F04C
:1030F00041FBC6B20BA200213046FFF7BAFC4046A6
:103100001AE00000140200202500000025640000E1
:10311000252E326600000000040200206408002012
:10312000180200203E000000340800200000C040CB
:10313000000070423C00000003F01CFBC6B2F948DE
:103140000068002102683046FFF793FC04EB44015D
:10315000480003F02FFB8146414603F08BF90746F8
:10316000F14903F087F90646F04B4FF086421946C5
:10317000FFF785FEEE4B4FF0824200211046FFF72D
:103180007EFEEC48006801790020FFF76CFEBDE888
:10319000F08770B50520FFF76EFFE748006803F081
:1031A0003DF9044622460B46E4A10120FFF7CBFD82
:1031B000E4A10220FFF7C7FDE6490220FFF731FE38
:1031C000E5A10320FFF7BFFDE6490320FFF729FE35
:1031D000E5A10420FFF7B7FDE6490420FFF721FE33
:1031E000E548E6A102680520FFF7ADFD70BD2DE9B9
:1031F000FF4704460D4617461E464FF00008C146DD
:10320000CC4800688068CB49096849680844A042F6
:1032100027D1DE480078052823D10095BDF80000AD
:10322000ADF80400BDF80200ADF806000097BDF847
:103230000000ADF80800BDF80200ADF80A000096E5
:10324000BDF80000ADF80C00BDF80200ADF80E00AE
:103250000C2201A9CE4800F0F4FD012004B0BDE825
:10326000F0870020FAE770B505460C461646B148CF
:1032700000688068AF49096849680844A84211D1CC
:10328000C2480078042804D13146206803F0F2F8DF
:103290002060BE480078032804D13146206803F03E
:1032A000F1FB206070BDA34A12689268A14B1B68B5
:1032B0005B681A44824205D1B44A1278042A01D1CB
:1032C00000220A80704770B50620FFF7D4FEB1498E
:1032D000086803F0A3F8044622460B46AEA101207D
:1032E000FFF731FDB04AAB490120FFF7BCFFA94908
:1032F000486803F093F8044622460B46ABA102202F
:10330000FFF721FDA84AA349091D0220FFF7ABFFE3
:10331000A049886803F082F8044622460B46A7A11C
:103320000320FFF710FDA04A9A4908310320FFF758
:103330009AFFA648A6A102680420FFF704FDA84949
:103340000420FFF7B0FFA748006803F067F80446C1
:1033500022460B46A4A10520FFF7F5FC4FF07E5254
:10336000A0490520FFF77FFF4FF07E519D48006880
:1033700003F04CFB04D24FF07E509A49086008E0FD
:1033800000219848006803F041FA02D200209549D4
:10339000086099A10620FFF7D6FC7E488368426842
:1033A00001680620FFF723FF18B196490620FFF7B2
:1033B00038FD70BD10B50120FFF75DFE92A1012020
:1033C000FFF7C1FC10BD70B50120FFF754FE914816
:1033D000006803F023F8044622460B468EA1012024
:1033E000FFF7B1FC8F4A8B490120FFF73CFF89486A
:1033F000006803F013F804464FF066328A4B02F07F
:10340000E1FE03D289488349086008E00021814831
:10341000006803F0FBF902D200207E49086070BD0D
:1034200070B50520FFF727FE8149086802F0F6FF16
:10343000044622460B467FA10120FFF784FC5A4A2E
:103440007B490120FFF70FFF7949486802F0E6FF4A
:10345000044622460B467AA10220FFF774FC524A2A
:103460007349091D0220FFF7FEFE7149886802F0CA
:10347000D5FF044622460B4674A10320FFF763FCE8
:10348000494A6B4908310320FFF7EDFE4F4850A130
:1034900002680420FFF757FC51490420FFF703FF9F
:1034A0005048006802F0BAFF044622460B464EA17F
:1034B0000520FFF748FC4FF07E524A490520FFF7F0
:1034C000D2FE4FF07E514748006803F09FFA04D2C5
:1034D0004FF07E504349086008E0002141480068F1
:1034E00003F094F902D200203E49086070BD10B587
:1034F000FFF7F5F90B49096888688047FFF728FA54
:1035000010BD10B50446FFF743FBFFF7C8F90020D4
:103510005149C8628862401E50498867014804606A
:1035200010BD0000180200200000C04000007042E2
:1035300000007C4214020020000000204144433A75
:1035400025660000506F736974696F6E5F5049445F
:10355000000000002802002053706565645F504938
:10356000440000004C020020466F6C6C6F77446191
:1035700074610000400200209802002053706565CD
:10358000645F436F64653A25640000000402002014
:1035900000FC0108580200205049445F4B703A205B
:1035A00020202025660000000AD7233C5049445FB4
:1035B0004B643A2020202566000000005049445FFB
:1035C0004B693A2020202025660000009002002050
:1035D0006E756D5F636F64653A202025640000009E
:1035E00024080040FC01002053746172745F666C13
:1035F000616720202566000053617665546F466C34
:103600006173680034020020536176652020204FEA
:103610006B000000000200204D6178646174613A23
:1036200020256600CDCCCC3D66660A40333353403E
:103630007402002053706565645F503A256600008F
:1036400053706565645F643A256600005370656574
:10365000645F493A256600003408002064080020B1
:1036600010B504462146694800F0F0F810BD2DE978
:10367000F05F05460C4616461F46204603F0B2F89A
:103680008046A81903F096F88146204603F0AAF870
:103690008246284603F0A6F8834643464A465146EA
:1036A000FFF7EDFBE01903F085F88046284603F0AC
:1036B00099F88146204603F095F88246284603F0A3
:1036C00091F8834643464A465146FFF7D8FBE01936
:1036D00003F070F88046A81903F06CF88146E019F1
:1036E00003F068F88246284603F07CF88346434698
:1036F0004A465146FFF7C3FBE01903F05BF88046EA
:10370000A81903F057F88146204603F06BF882466B
:10371000A81903F04FF8834643464A465146FFF73F
:10372000AEFBBDE8F09F2DE9F74F8EB00C469146F9
:1037300000200C900C9061E00C9802F06FFE0746A0
:10374000334A344B02F040FC0022334BCDE90001F8
:1037500002F01EFA054602F079F8CDE90401484668
:1037600002F05CFECDE90201DDE9042302F02CFC4D
:10377000CDE90801204602F051FECDE90601DDE960
:10378000082302F049F9824602F08AFBC0B20B908E
:103790000E9802F043FECDE906010C9802F03EFEC1
:1037A00082461B4A1B4B02F00FFC074600221A4BB5
:1037B00002F0EEF9CDE9000102F096F8CDE9020140
:1037C000484602F02BFE0546DDE9022302F0FCFB31
:1037D000CDE90401DDE9062302F01EF9CDE9080177
:1037E00002F05EFBC0B201220A900B99FFF77EF84F
:1037F0004FF07E510C9802F03DFE0C9007490C985A
:1038000003F004F898D311B0BDE8F08F340800201D
:103810001F85EB51B81E0940008066400000B4438C
:103820000FB40A21DDE90A02904202D1012004B05E
:1038300070470A98401C90FBF1F201FB12000B9AB2
:10384000904201D10020F2E70220F0E770B588B085
:1038500004460D460A26202204F11001684600F0B5
:1038600081FC94E80F00FFF7DBFF10B9002008B0DF
:1038700070BDA06A44F82050A06A401C90FBF6F18D
:1038800006FB1100A0620120F1E770B588B0044684
:1038900000250026202204F11001684600F062FC99
:1038A00094E80F00FFF7BCFF012802D1002008B008
:1038B00070BD0A25E06A54F82060E06A401C90FB65
:1038C000F5F105FB1100E0623046F0E70FB41E98F9
:1038D000401C10B9012004B070470020FBE71FB561
:1038E00004460A21A06F092819DAA06F401CA067BE
:1038F0000198A26F02EB420244F822000398A26FE3
:1039000002EB420204EB820290600298A26F02EB8B
:10391000420204EB82025060012004B010BD00207E
:10392000FBE730B59BB004460D466C2204F1100154
:10393000684600F017FC94E80F00FFF7C7FFC0B916
:10394000A06F00EB400054F820002860A06F00EB4F
:10395000400004EB800040686860A16F481EA067CB
:1039600001EB410004EB80008068A86001201BB0DF
:1039700030BD0020FBE700002DE9F05F04460D4656
:1039800016463146284603F07DF8E0606349E0685A
:1039900003F03CF804D36249E06802F037FF1BD221
:1039A0006169A06802F066FF8146D4E9030103F073
:1039B00069F88346616802F05DFF8046E16820682F
:1039C00002F058FF8246414602F054FD0746494640
:1039D00002F050FDA06101E00020A061E0682061DC
:1039E0005049E06802F012FF0AD24F49E06803F044
:1039F0000DF805D2E168606902F03CFD606101E00C
:103A0000002060610021A06902F000FF0CD20020BC
:103A1000A16903F037F8A061012044490860002043
:103A20004349C1F8940106E00020404908600120A4
:103A30003F49C1F894013F49A06902F0E7FF01D86E
:103A40003C48A0613C49A06902F0E0FE01D83A4838
:103A5000A061A069BDE8F09F2DE9F05F04460D4626
:103A600016463146284603F00DF8E0603349E06819
:103A700002F0CCFF04D33249E06802F0C7FE1BD24B
:103A80006169A06802F0F6FE8146D4E9030102F004
:103A9000F9FF8346616802F0EDFE8046E168206828
:103AA00002F0E8FE8246414602F0E4FC0746494641
:103AB00002F0E0FCA06101E00020A0612149E06883
:103AC00002F0A4FE0AD22049E06802F09FFF05D26E
:103AD000E168606902F0CEFC606101E00020606195
:103AE000E06820610021A06902F090FE04D200206D
:103AF000A16902F0C7FFA0610E49A06902F086FF2C
:103B000001D80C48A0611149A06902F07FFE01D8DC
:103B10000948A061A069BDE8F09F00000000404096
:103B2000000040C00000F0410000F0C1A0012142AF
:103B300000802142000061440000E1430000204178
:103B4000000020C100007042000070C20000EB4382
:103B50002DE9F84F82460C464FF0000BD9465046EF
:103B600002F05CFC05464FF06632924B02F02AFBF5
:103B700001D2DFF844A24FF08B41504602F07AFEAA
:103B8000009002F04BFC07464FF06632894B01F083
:103B9000FFFF054601F00EFF81460021484602F076
:103BA00035FF0DD28549204602F064FE05464946A0
:103BB00002F0CEFC8346584602F0C0FDBDE8F88F07
:103BC0000020FBE77FB505460C4601210846FDF7BE
:103BD000EEFAADF80850ADF804400020ADF80A0048
:103BE000ADF8060001A94FF08040FDF70BFC012263
:103BF00011469007FDF77DFF1C208DF80000022084
:103C00008DF8010003208DF8020001208DF80300DB
:103C10006846FCF75CFC01218807FDF74FFF7FBD7C
:103C200000B587B001210420FDF7C1FA0121082069
:103C3000FDF7B0FAC020ADF8000004208DF80300B5
:103C400069465F48FCF7EAFF04A8FDF707FF00207C
:103C5000ADF810004FF6FF70ADF814000020ADF87D
:103C60001600ADF8120004A95648FDF7CBFB00235F
:103C70001A4603215348FDF7D4FF01A8FDF701FFC1
:103C80000A20ADF80C0001A94E48FDF74EFE0121B7
:103C90004C48FEF7D9F9012211464A48FDF729FFA1
:103CA00000214848FEF79EF901214648FDF706FF2E
:103CB00007B000BD0146042904D1424A24321288CB
:103CC00010B201E0002000BF00BF70473D48103037
:103CD00000883C481030008820F00100394910313C
:103CE0000880704770B501218807FEF7B0F90028F9
:103CF0005FD035480068354908600420FFF7DAFFD7
:103D0000314908600846006830490968401A30495E
:103D1000086008460068002803DA08460068404248
:103D2000086000212B48006802F0D4FC39D02A48F2
:103D30000068401C284908602548006802F03AFDE8
:103D400006463246254801682548FFF785FE0546A8
:103D500002F010FD84B221462248FEF749F91E48C0
:103D600000680A2815DB1848006802F023FD0546A4
:103D70001D4801681D480068FFF7EAFE064602F08C
:103D800019FD04462A4621461948FFF7F5FD134957
:103D90000860114800680A2807DB00200E49086007
:103DA00003E000210F48FEF723F901218807FEF701
:103DB0005FF970BD66660A40333353400000FA4431
:103DC000000C0140000800409002002094020020F6
:103DD00098020020FC0100209C020020A00200208C
:103DE00074020020000400400000002000020020B7
:103DF000580200200146088870472DE9F041054629
:103E00000E461746002407E036F814102846FCF743
:103E10002EFDAD1C601C84B2BC42F5DBBDE8F08118
:103E200030B503460C461546002207E01846FFF75A
:103E3000E1FF24F812009B1C501C82B2AA42F5DB61
:103E400030BD2DE9F05F80468A461746B8F1006F15
:103E500002D33748804501D3BDE8F09FFCF7BFFB94
:103E6000A8F1006B4FEA9B25CBF34809C9F5007414
:103E7000A74200DC3C464DE04FF0006101EB85209D
:103E80008A142C49FFF7CCFF00260BE009EB060053
:103E9000284931F810004FF6FF71884200D003E046
:103EA000701C86B2A642F1DB00BFA6421BDA4FF0BF
:103EB000006101EB8520FCF7D7FB002608E03AF80B
:103EC000160006EB09011B4A22F81100701C86B28D
:103ED000A642F4DB4FF0006101EB85208A141549FE
:103EE000FFF78BFF04E0224651464046FFF785FF6F
:103EF000A74200D10FE06D1C4FF000090AEB440A05
:103F0000A044381B87B2B7F5007F02DD4FF4007480
:103F100000E03C46B0E700BFFCF76DFB00BF9BE74D
:103F200013B50446012201A92046FFF78AFF1CBDF4
:103F300000000208E0080020704700000FB41CB524
:103F4000074B06AA7B4469460090059800F0FFFBEA
:103F50000020694600F00EFC1CBC5DF814FB00005C
:103F60002D0800002DE9F04106460024106875294F
:103F7000314616A510D0AFF30080002802DA404287
:103F800013A507E031688A0701D512A502E04907A9
:103F900004D511A5012401E0AFF3008000210A221D
:103FA00006F1240709E0B0FBF2FCB0FBF2F302FBE0
:103FB0001C00303078541846491C0028F3D12346A1
:103FC0002A463046BDE8F04100F056B90000000036
:103FD0002D0000002B000000200000002DE9F0471C
:103FE0004FF0000A89460446C0F820A02046E16848
:103FF0008847002876D0252806D0D4E901219047AB
:10400000206A401C2062F1E7E168204600258847CD
:10401000C4F81CA006460027C4F818A02A2E09D010
:10402000304601F00BFC38B304EB8708303EC8F88B
:10403000186019E059F8041B204604EB87029161CF
:10404000E1688847012F064618D1E069002820DA88
:1040500025F020051DE0D8F8180000EB800006EBE5
:1040600040003038C8F818002046E1688847064606
:1040700001F0E4FB0028EED1012F0AD02E2E08D14A
:104080002046E16888477F1C0646022F45F0200540
:10409000C4DBA069002803DA404245F00105A061B5
:1040A000E80701D025F01005B6B1A6F141001928A6
:1040B00002D8203645F400654A4631462046256040
:1040C0004D46FCF76DF858B1012806D0ED1D25F0DE
:1040D000070000F1080989E704E005F1040985E714
:1040E00030468AE7206ABDE8F08730B505460B46C2
:1040F0002A4613F8014B12F8010B08B1A042F8D080
:104100001CB1002802D06D1CF1E7284630BD10B567
:10411000431C02E010F8011B71B18107FAD14FF086
:10412000013202C88C1A8C4314EAC211F9D0C01AA9
:104130000A0603D0C01E10BDC01A10BD0A0401D06B
:10414000801E10BD0902FCD0401E10BD421E12F898
:10415000013F002BFBD111F8013B002B02F8013B82
:10416000F9D1704710B5203AC0F00B80B1E8185073
:10417000203AA0E81850B1E81850A0E81850BFF451
:10418000F5AF5FEA027C24BFB1E81850A0E81850F0
:1041900044BF18C918C0BDE810405FEA827C24BF44
:1041A00051F8043B40F8043B08BF7047D20728BFD2
:1041B00031F8023B48BF11F8012B28BF20F8023B21
:1041C00048BF00F8012B70474FF000020429C0F0EF
:1041D000128010F0030C00F01B80CCF1040CBCF139
:1041E000020F18BF00F8012BA8BF20F8022BA1EB8B
:1041F0000C0100F00DB85FEAC17C24BF00F8012B70
:1042000000F8012B48BF00F8012B70474FF0000267
:1042100000B5134694469646203922BFA0E80C50BC
:10422000A0E80C50B1F12001BFF4F7AF090728BF97
:10423000A0E80C5048BF0CC05DF804EB890028BF13
:1042400040F8042B08BF704748BF20F8022B11F03C
:10425000804F18BF00F8012B7047704770477047B8
:10426000704710B500F090FA006810BD10B5044614
:1042700000F08AFA046010BD2DE9F0470D4699461A
:104280009246044600F124080168880604D5E069D6
:1042900021F01001216000E00120A84201DD471B50
:1042A00000E00027A1697A1902EB0900081AA06151
:1042B0002078C00602D42046AFF30080002608E034
:1042C000D4E901211AF806009047206A401C761CA8
:1042D00020624E45F4DB2078C0060AD52046AFF3B5
:1042E000008006E0D4E9012130209047206A401C7C
:1042F0002062381EA7F10107F4DC07E0D4E90121B0
:1043000018F805009047206A401C2062281EA5F17D
:104310000105F3DC2046AFF300802078000602D5CB
:104320000220BDE8F0870120FBE770472DE9FF4F31
:104330000C461E464FF0FF378BB0D2E90001DDF886
:1043400060800A908A46C1F30A5505B93D460021AE
:1043500008464FF00000BAF1000F00F4400005DA03
:1043600000EB80004FF4400101EA50004FEA905901
:10437000B9F1010F00DDB9460A9850EA4A000ED0A3
:1043800044F61050A5F2FF3545432F14B8F1000F45
:104390001ED07542291E1EDDC9F100021CE0B8F1D5
:1043A000010F4FF0000001D0302103E0F24305E09F
:1043B0002154401CB042FBDB304600220021215436
:1043C0000B99C1F80880C1E900200FB0BDE8F08F5B
:1043D000BD1B6D1CDEE74A4600DA694206A800F004
:1043E0005DFA06AB93E8070003AB83E8070050468D
:1043F0000A9900F033FB8DE80700A0F500501F3844
:1044000000900398002D09DD42F21F014A4608443E
:1044100003A90390684600F092FD08E0A0F5005063
:104420004A461F3803A90390684600F09CFD8DE8BA
:1044300007000004000C03D04FF0FF30410800E0FB
:104440001046B8F1000F03D00022009215461EE07E
:10445000751E05D400F09CF9303262556D1EF9D5F9
:10446000B3460122084302D000227F1C04E02078DA
:10447000302801D100227F1E002A099786D01DE036
:10448000112D07DA00F084F9303262556D1C50EAC4
:104490000102F5D1084302D00098C8B10EE0002116
:1044A000681E05E0235C625C63542254401E491C74
:1044B0008142F7DBAB46A81B401E0990002004F8A0
:1044C0000B000B98099AC0F80880C0E9002B7CE724
:1044D00011264FF0000859E72DE9F04F88460446B1
:1044E000D21D22F0070191B0D1E90001CDE90A0106
:1044F00000F06FFE02460B98C00F01D02D2007E0A0
:104500002068810701D52B2002E0202101EAC000AC
:10451000032A099001D0072A05DB034641462046BD
:1045200000F07CF90BE12078800601D5E06900E01D
:104530000620B8F1650F814606D0B8F1660F18D095
:10454000B8F1670F70D131E00020B9F1110F009080
:1045500001DB112301E009F101030AAA01A90CA85A
:10456000FFF7E4FEDDE90C70002609F10105834642
:1045700047E001204B4600904FF000470AAA01A9EE
:104580000CA8FFF7D3FEDDE90DB00C995D460026BF
:1045900010B909F101000D18B9EB050003D4C0F101
:1045A000FF3609F10105A5EB09002BE0B9F1010F78
:1045B00001DA4FF001090020B9F1110F00904846CF
:1045C00001DD112300E003460AAA01A90CA8FFF7A8
:1045D000ADFEDDE90C704D460026834620780007CD
:1045E0000AD4AB4500DA5D4601A8012D04DD41196E
:1045F00011F8011C302907D04F4502DA17F1040FDA
:1046000004DA012082460FE06D1EEEE7002F02DC87
:10461000ED1B3E4403E0781CA84200DD7D1CB81B66
:1046200000F1010A4FF000472078000703D4AA45A3
:1046300001DB4FF0FF3A0021B7F1004F0DF14308C5
:104640008DF8431024D002202B23002F01DA7F4263
:104650002D230A21021EA0F1010000DC5FB197FBAF
:10466000F1FC97FBF1F201FB1C7C17460CF1300CBE
:1046700008F801CDEEE7A8F10100037021880905D3
:1046800001D5452100E06521A0F1010800F8011CD9
:1046900009980FA9A1EB0807FF1D00B101204119DE
:1046A00001EBEA70A1693844081A401EA061207825
:1046B000C00602D42046AFF30080099828B1D4E99F
:1046C00001219047206A401C20622078C00622D534
:1046D0002046AFF300801EE0002E04DBB34502DD70
:1046E00001A8805D00E03020D4E901219047206AD4
:1046F000401C2062761CAAF101005FEA000A0AD180
:1047000000F03EF8C0680168405CD4E901219047A0
:10471000206A401C2062281EA5F10105DCDC07E0B0
:10472000D4E9012118F8010B9047206A401C20624F
:10473000381EA7F10107F3DC2046AFF30080032009
:1047400011B043E601694A1C02610878704700B560
:104750008FB0CDE901310021059105497944CDE9BA
:10476000031011466846FFF739FC0FB000BD00008A
:10477000E5FFFFFF0A6802F8010B0A6070470000BE
:1047800000487047000D002000487047E00C0020F2
:1047900030B5B0F10A024FEA900E71F100034EEA13
:1047A000817EB0EB0E0061EB91014FEA101E4EEAE4
:1047B000017E10EB0E0041EB11114FEA102E4EEA74
:1047C000016E10EB0E0041EB11214FEA104E4EEA44
:1047D000014E10EB0E0041EB1141401841F1000178
:1047E0004FEAD00040EA41704FEAD10110EB80055A
:1047F0004FEA810444EA907444EB01046D1944EBE0
:104800000404521BA3414FF0000348BF0A3200D5F5
:1048100030BD401C41F1000130BD00002DE9F041E8
:104820001F46044603260168072A01F4006004DBE2
:1048300008B116A505E016A503E008B115A500E02E
:1048400015A521F010002060A069C01EA0610FB165
:10485000401EA0612046AFF300804FB1D4E9012192
:1048600038469047206A401C2062C01C206206E047
:10487000206AFAE7D4E9012115F8010B9047761E6A
:10488000F8D22046AFF30080BDE8F0814E414E00E3
:104890006E616E00494E4600696E66002DE9F04774
:1048A000814616468AB0334878440DC88DE80D001D
:1048B00030487844801C03AC0DC884E80D0041F6F4
:1048C0009B300844372190FBF1F290FBF1F5A5F104
:1048D000800501FB12041B3C02D56442012000E06C
:1048E0000020DFF890A080460027FA44AAF1BE0A13
:1048F0000DE0E00709D03246684607EB47010AEBB6
:10490000810100F030FB8DE8070064107F1C002C53
:10491000EFD1184F7F44AC3F18E0E80714D007EB05
:1049200004100DF1180A90E80E008AE80E00C06825
:10493000F04201D198190890324606A903A800F068
:1049400012FB03AB83E807006D10641C002DE4D15B
:1049500032466946B8F1000F03A802D000F0EFFA22
:1049600001E000F000FBC9E90001C9F808200AB025
:10497000BDE8F087702D000000487047E00C002073
:104980007546FFF7F9FFAE4605006946534620F02D
:104990000700854618B020B5FBF782FDBDE8204032
:1049A0004FF000064FF000074FF000084FF0000BEB
:1049B00021F00701AC46ACE8C009ACE8C009ACE89E
:1049C000C009ACE8C0098D46704710B50446AFF386
:1049D00000802046BDE81040FBF7FFBB4FF0013CD4
:1049E00050F8042B51F8043B9A4221D1A2EB0C035E
:1049F000934313EACC1317D150F8042B51F8043B1E
:104A00009A4215D1A2EB0C03934313EACC130BD1BA
:104A100050F8042B51F8043B9A4209D1A2EB0C0345
:104A2000934313EACC13DBD04FF00000704700BF74
:104A3000D01A01BAB1FA81F101F0180122FA01F09D
:104A4000CB40C1F12001DBB2C0B2C01A2CFA01F395
:104A5000D11A914311EAC311E6D170475FEA400CC5
:104A600008BF91F0000F4FEA8C234FEAC12243EABE
:104A700051514FEA1C5018BF00F5F0404FEA30008A
:104A800018BF41F000415FEA6C5C00F02980BCF186
:104A9000FF3F08BF40F080407047130C06BF120470
:104AA0004FF0100C4FF0000C130E04BF12020CF16B
:104AB000080C130F04BF12010CF1040C930F04BF78
:104AC00092000CF1020CD30F04BF52000CF1010C48
:104AD00011464FF00002A0F11F00A0EB0C00704740
:104AE00011F0004F08BF704731F000413FF4D5AFDF
:104AF0000B0C06BF09044FF0100C4FF0000C0B0E0E
:104B000004BF09020CF1080C0B0F04BF09010CF1E2
:104B1000040C8B0F04BF89000CF1020CCB0F04BFF7
:104B200049000CF1010CCCF12003A0EB0C0022FA9F
:104B300003F302FA0CF241EA030100F101007047AD
:104B400020F07F4C80EA030023F07F47ACEB0703A3
:104B500003F57C5300F0004003F1FF032DE9804989
:104B60004FEA154B09B44FEA144325EA0B4E24EAE9
:104B700003480FF2042606EB132749083E785FEA44
:104B8000320203FB0667C7F5000707FB06F64FEA8C
:104B900054374FEAD64606F1020607FB066CCCF105
:104BA000005C4FEA1C472CEA074C07FB06F40CFBA1
:104BB00006F504EB15464FEA961634BF00204FF079
:104BC00000404FEAD13706FB07FC4FEA1C4C0CFBB8
:104BD0000BF7D21B03FB0CF761EB07010CFB0EF785
:104BE000B0EB074072EB17420CFB08F734BFA2EBA7
:104BF0000742B2EB074261EB17414FEA0C444FEA20
:104C0000910706FB07FC4FEA1C4C0CFB0BF7B0EBC3
:104C1000C74072EB573203FB0CF734BFA2EBC7421D
:104C2000B2EBC74261EB57310CFB0EF7B0EBC7009C
:104C300072EB57720CFB08F734BFA2EBC702B2EB62
:104C4000C70261EB5771039F4FEA816141EA9211FC
:104C500004EBCC044FEAD1374FEA826206FB07FC33
:104C600042EA90124FEA80604FEA1C4C0CFB0BF7B3
:104C7000D21B03FB0CF761EB07010CFB0EF7B0EB4B
:104C8000074072EB17420CFB08F734BFA2EB074258
:104C9000B2EB074261EB17414FEA8C554FEA91079F
:104CA00004EB9C2406FB07FC4FEA1C4C0CFB0BF7A7
:104CB000B0EBC74072EB573203FB0CF734BFA2EBEB
:104CC000C742B2EBC74261EB57310CFB0EF7B0EBBA
:104CD000C70072EB57720CFB08F734BFA2EBC70298
:104CE000B2EBC70261EB577115EB4C254FEA8161BE
:104CF00041EA92114FEA82624FEAD13742EA9012BA
:104D000006FB07FC44F100044FEA80604FEA1C4CAC
:104D10000CFB0BF7D21B03FB0CF761EB07010CFB41
:104D20000EF7B0EB074072EB17420CFB08F734BFED
:104D3000A2EB0742B2EB074261EB174115EB1C15E2
:104D40004FEA813141EA92414FEA823242EA90428F
:104D50004FEA80304FEA0C7644F1000448EA0343FE
:104D60004EEA0B484FF0000EB2EB080C71EB030754
:104D700024BF624639464EEB0E0E4FF0000B001872
:104D8000524149414BEB0B0BB2EB080C71EB0307A3
:104D90007BF1000B24BF624639464EEB0E0E4FF0FE
:104DA000000B0018524149414BEB0B0BB2EB080CC6
:104DB00071EB03077BF1000B24BF624639464EEBD3
:104DC0000E0E51EA020718BF46F0010616EB0E76EA
:104DD00055F1000254F1000103D5BDE88901BDE899
:104DE0000088BDE88901BDE80048B619524141EB91
:104DF0000101A3F10103704780807F7E7D7C7B7A77
:104E00007978777676757473727171706F6E6E6D76
:104E10006C6C6B6A6A69686867666665646463631C
:104E200062616160605F5F5E5E5D5D5C5C5B5B5AA2
:104E30005A5959585857575656555555545453530F
:104E400052525251515050504F4F4F4E4E4D4D4D6A
:104E50004C4C4C4B4B4B4A4A4A49494948484847B5
:104E600047474746464645454544444444434343F3
:104E70004342424242414141002B26D4770021D097
:104E80001CB54FEA370703B44FF010004FF0100184
:104E90004FF000000FBCBDE810400BF1010BBBF15F
:104EA000010F08BF5FEA170722BF12F1010211F1DB
:104EB00001014FF0004143F1000300F0004043EADC
:104EC00000007047F9D35708DAE746EA064613F1BF
:104ED000400F4FEA16461FDD13F1200FDFBF1643C8
:104EE0000A46002120335B42C8D0C3F1200746EABE
:104EF000064602FA07F74FEA164646EA0706C3F1E6
:104F0000200722FA03F201FA07F721FA03F14FF022
:104F1000000342EA0702B1E746EA020646EA06460D
:104F20004FEA164646EA0106BCBF46EA0646360C7C
:104F30004FF000034FF000024FF000019EE72DE913
:104F4000C048934630B491E8380007C831EA400CB5
:104F500048BF34EA430C03D5FFF7F2FDFFF78CFF9F
:104F6000F0BCBDE800882DE9C048934630B491E814
:104F7000380007C810F0804F08BF13F0804F03D1EE
:104F800000F005F8FFF778FFF0BCBDE8008820F0DE
:104F90007F4780EA030023F07F4C07EB0C03A3F567
:104FA0007C5300F00040A3F1FE0392F0000F00F0EC
:104FB000B38095F0000F00F077802DE901494FEAAA
:104FC00011404FEA144621EA004800FB06FC24EA9F
:104FD000064708FB06F607FB08F800FB07F718EB87
:104FE00006484CEB164C4FEA124B18EB07484FEAB9
:104FF00015464CEB174022EA0B4E0BFB06FC25EA4C
:1050000006470EFB06F607FB0EFE0BFB07F71EEB33
:10501000064E4CEB164C4FF000061EEB074E4CEBC9
:10502000174B18EB0B0840F1000018EB0E0B58EB78
:10503000000840F100008F1A4FF000013CBFC94347
:10504000661B14BFB5EB040C00213CBFC943F61B23
:105050004FEA17444EEA8E0E27EA04454FEA1C47F2
:1050600004FB07622CEA074C05FB07F70CFB05F66F
:1050700004FB0CFC16EB074642EB174216EB0C4602
:1050800042EB1C421BEB060658EB0202414146EA8A
:105090009E0601D5BDE80189B619524141EB0101D7
:1050A000A3F10103BDE801894FEA14454FEA114716
:1050B00024EA054621EA074C05FB07F406FB07F73F
:1050C0000CFB06F105FB0CFC11EB074144EB17440C
:1050D0004FEA124711EB0C4144EB1C4422EA074C07
:1050E00005FB07F206FB07F70CFB06F605FB0CFCBD
:1050F00016EB074642EB174216EB0C4642EB1C45FB
:105100006A1854F1000148BF7047B619524141EB8B
:105110000101A3F10103704795F0000F37D04FEA6A
:1051200011424FEA144721EA024624EA074C02FBE7
:1051300007F106FB07F70CFB06F402FB0CFC14EB73
:10514000074441EB17414FEA154714EB0C4441EB80
:105150001C4125EA074C02FB07F506FB07F70CFB91
:1051600006F602FB0CFC16EB074645EB174516EB63
:105170000C4645EB1C42121951F1000148BF704723
:10518000B619524141EB0101A3F1010370474FEA07
:1051900014454FEA114724EA054621EA074C05FB6E
:1051A00007F106FB07F70CFB06F24FF0000605FBC4
:1051B0000CFC12EB074241EB174112EB0C4251EB96
:1051C0001C4148BF7047921841EB0101A3F1010354
:1051D0007047490050EAC12018BF04204A0D18BF8B
:1051E00040F0010040F2FF72B2EB515F08BF40F0A7
:1051F0000200012808BF0520704700002DE9F74F85
:10520000144694B00021C4E902111599079121F0C8
:105210000045C9498D4206DC1599C4E9000117B063
:105220000020BDE8F08FC549DFF814A3A9423CDD9A
:105230000799C44E0029C44FC44A1599534619DD35
:1052400001F002F8554506D0C14AC24B00F0FCFF00
:10525000C4E900010AE04FF0D352BE4B00F0F4FF66
:1052600032463B4600F0F0FFC4E9000117B00120D0
:10527000BDE8F08F00F0D0FB554506D0B44AB54BE1
:1052800000F0CAFBC4E900010AE04FF0D352B14B71
:1052900000F0C2FB32463B4600F0BEFBC4E9000111
:1052A00017B04FF0FF30BDE8F08FAB49A942159918
:1052B00078DB21F0004183468846A84AA84B00F0DD
:1052C00083FE0022A74B00F0A7FB00F0B9FD099078
:1052D00000F013FE06460F469C4A534600F074FE4B
:1052E00043465A4600F0A4FF80468A46984A994BA6
:1052F0003046394600F068FE2A0D01250B924246E1
:10530000534600F095FF032DC4E9000139D00B98F6
:10531000C1F30A51401A05EB45111139814230DAC7
:105320009148C346784400EB0510CDF80CA00C90D2
:10533000D0E900233046394600F046FE02460B46CF
:10534000049106905846039900F07EFF80468A46F5
:1053500002460B465846039900F076FF049B069AD6
:1053600000F072FF83460C9803913946D0E902237E
:10537000304600F029FE5A46039B00F065FF6D1C85
:10538000BDE707980028A2BF099817B0BDE8F08FC5
:10539000616881F000416160099817B04042BDE842
:1053A000F08FFFE784461598C1F31301C0F30A504C
:1053B000A0F2F5304FEA601800F01F06C6F1200099
:1053C000139000200690079041F4801E05206D4642
:1053D00076B1664A08EB00017A4452F8213002EBBC
:1053E0008101B3404A68139922FA01F1194305E09B
:1053F0005F4908EB0002794451F82210A1FB0E2707
:10540000A1FB0C131A449A4234BF0123002303EB7F
:10541000070A05EB8003D3E901B70F448F4234BF7D
:105420000121002193448B4411B1934502D903E03B
:10543000934501D2012100E00021C3E901B75144A5
:1054400045F82010011EA0F10100C1DC0298059F63
:1054500000F10050800F12900298DDE903568000A1
:1054600000F04BFD834628460D9100F05DFD6FF086
:105470001D0201F0B0FBCDE90E01304600F054FDF5
:105480006FF03D0201F0A7FB80468A46384600F0E7
:105490004BFD6FF05D0201F09EFB0746424653460E
:1054A000119100F0B9FADDE90E2300F0B5FA5A4681
:1054B0000D9B00F0B1FA00250E465A4628460D9B7A
:1054C00000F0C2FEDDE90E2300F0BEFE4246534668
:1054D00000F0BAFE3A46119B00F0AAFEDFF898A051
:1054E000244A534600F070FD07468846234A244B61
:1054F0003146284600F068FD3A46434600F08CFAF3
:10550000074688464FF0A84253463146284600F0E9
:105510005BFD3A46434600F07FFA159A12F0004FC1
:1055200004D0129A81F0004152421292C4E9000163
:10553000129817B0BDE8F08FFB21E93F7CD90240FB
:10554000FB21F93F7370032E8A19A33B00004054DE
:105550003163621A61B4D03DFB21394183C8C96D02
:10556000305FE43F0000E03F88210000042100009C
:10557000E6200000182D4454FB21F93D3326A611E6
:10558000460B113C2DE9FF4D21F0004807460C4623
:10559000B8F1795F08DA00F053FC002801BF002061
:1055A000324904B0BDE8F08D3A462346104619460C
:1055B00000F00AFD054602462D480E460B46062120
:1055C000784400F05DF82A46334600F0FDFCDDE942
:1055D000022382468B463846214600F0F5FC0446FD
:1055E0000F4652465B462846314600F0EDFC224607
:1055F0003B4600F029FE07468A464FF0FF32284618
:10560000314601F0E8FA1B4A90450ADA3A46534619
:1056100000F01AFE04B00022BDE8F04D134B00F07C
:1056200007BE154A4245A8BFA8F500154FF0000473
:10563000B8BF124D22462B4600F006FE06468846AD
:1056400022462B460020094900F0FEFD04460D4687
:105650003A4653463046414600F0F6FD04B0224635
:105660002B46BDE8F04D00F0E3BD00000000F03F28
:10567000BC1E00003333D33F0000E93F0000D23F9F
:105680002DE9F0414F1E00EBC7010446D1E90001AE
:1056900015461E4637F006020DD02A46334600F066
:1056A00093FC7F1E04EBC703D3E9002300F0B4F999
:1056B00037F00602F1D1022F25D0042F13D0062F88
:1056C00018BFBDE8F0812A46334600F07DFCD4E9DE
:1056D0000A2300F0A1F92A46334600F075FCD4E90C
:1056E000082300F099F92A46334600F06DFCD4E90E
:1056F000062300F091F92A46334600F065FCD4E910
:10570000042300F089F92A46334600F05DFCD4E911
:10571000022300F081F92A46334600F055FCD4E913
:105720000023BDE8F04100F077B900002DE9FF4DFE
:10573000054621F0004084B00C46B0F1795F0BDAE9
:105740002846FFF746FD042808BF00F06FF82846FA
:1057500008B02146BDE8F08D2A460B46104600F001
:1057600033FC06460F462A46234600F02DFC8046B1
:1057700026488A4632463B4605217844FFF780FF9B
:1057800083461098029160B3214A224B404651460D
:1057900000F01AFCCDE900015A4640465146029BF2
:1057A00000F012FC82468846DDE906014FF0FF3228
:1057B00001F011FA5246434600F046FD32463B46A0
:1057C00000F002FCDDE9062300F03EFDDDE90023E8
:1057D00000F03AFD08B02A462346BDE8F04D00F03F
:1057E00027BD0B465A463046394600F0EDFB084AC5
:1057F000084B00F011F94246534600F0E5FB08B0B3
:105800002A462346BDE8F04D00F006B9FA1D000017
:10581000495555555555C5BF012201F0DCB9002247
:1058200013461046114600F0B3B90000024A0020AA
:10583000110701F0D0B9000001FDFFFF30380A2840
:1058400001D20120704700207047000000B5244BB2
:1058500021F0004287B09A42DCBF0022134629DDC6
:10586000204B9A4208D140B94FF00100FEF7FEFCF0
:10587000FFF7D5FF07B000BD03DBFFF7CDFF07B093
:1058800000BD02AAFFF7BAFC10F0030104BF0DF13E
:10589000080C9CE80F000DD0012001290ED0022930
:1058A00014D00DF1080C00909CE80F00FFF73EFFAC
:1058B00007B000BDFFF766FE07B000BD0DF1080C94
:1058C00000909CE80F00FFF731FF05E00DF1080C98
:1058D0009CE80F00FFF756FE07B081F0004100BDC5
:1058E000FB21E93F0000F07F00B5254B21F000428D
:1058F00087B09A4203DC0022134600922BE0214B32
:105900009A4208D140B94FF00100FEF7AFFCFFF713
:1059100086FF07B000BD03DBFFF77EFF07B000BDC9
:1059200002AAFFF76BFC10F003014FF001000DD04D
:10593000012914D002291AD00DF1080C9CE80F009F
:10594000FFF720FE07B081F0004100BD0DF1080C0B
:1059500000909CE80F00FFF7E9FE07B000BD0DF1D5
:10596000080C9CE80F00FFF70DFE07B000BD0DF11D
:10597000080C00909CE80F00FFF7D8FEE2E700005B
:10598000FB21E93F0000F07F10B500290AD008781C
:10599000002807D005487844FFF720F8002801D0F8
:1059A000002010BD0248784410BD0000F61C000025
:1059B000EE1C000021F00042A2F16052B2F5801FFF
:1059C00001F0004328BFD2F17F6C0BD95FEA001CC5
:1059D00043EAC20242EB507018BF704728BF20F064
:1059E00001007047B2F5801FBCBF184670474FEAF0
:1059F000410C1CF5001F02D2084601F002B870B538
:105A000000F08CFB00000089FFF7F6BF4FF000406C
:105A1000A0F580007047000010B591EA030F48BF61
:105A200083F0004300F11884841A71EB030C05D253
:105A3000121943EB0C03001B61EB0C01DFF824E1AE
:105A40004FEA1154A4EB135C1EEA430F18BF9EEA01
:105A5000445F73D023EA0E03DCF1200E21EA0451E7
:105A600043F4801332D322FA0CFE10EB0E0023FA1B
:105A70000CFE41EB0E01CCF1200E03FA0EFE10EBF2
:105A80000E0051F10001B1F5801FCCF1200E32D291
:105A900001EB045112FA0EF2BDE8104058BF7047F6
:105AA000401C38BF5FEA420218BF7047002814BF8D
:105AB00020F0010041F100014FEA410313F5001FFE
:105AC00038BF7047A1F1C04100F076BB012A43EB1B
:105AD0000302ACF1200CDCF11F0E32BF4FF0000EC0
