:020000040800F2
:10000000401300208D0500089103000893030008A9
:10001000970300089B0300089F03000800000000EE
:10002000000000000000000000000000A303000822
:10003000A503000800000000A7030008A9030008AA
:10004000A7050008A7050008A7050008A7050008E0
:10005000A7050008A7050008A7050008A7050008D0
:10006000A7050008A7050008A7050008A7050008C0
:10007000A7050008A7050008A7050008A7050008B0
:10008000A7050008A7050008A7050008A7050008A0
:10009000A7050008A7050008A7050008A705000890
:1000A000A7050008A7050008A7050008A705000880
:1000B000A7050008A705000877310008A705000874
:1000C000A7050008A7050008A7050008A705000860
:1000D000A705000811270008A7050008A7050008C4
:1000E000A7050008A7050008A7050008A705000840
:1000F000A7050008A7050008A7050008A705000830
:10010000A7050008A7050008A7050008A70500081F
:10011000A7050008A7050008A7050008A70500080F
:10012000A7050008A7050008A7050008A7050008FF
:1001300000F002F800F05AF80AA090E8000C82449F
:100140008344AAF10107DA4501D100F04FF8AFF27C
:10015000090EBAE80F0013F0010F18BFFB1A43F0A5
:10016000010318476CB000008CB000000A444FF047
:10017000000C10F8013B13F0070408BF10F8014B06
:100180001D1108BF10F8015B641E05D010F8016B4B
:10019000641E01F8016BF9D113F0080F1EBF10F8AF
:1001A000014BAD1C0C1B09D16D1E58BF01F801CBD2
:1001B000FAD505E014F8016B01F8016B6D1EF9D555
:1001C0009142D6D37047000000230024002500266A
:1001D000103A28BF78C1FBD8520728BF30C148BFAA
:1001E0000B6070471FB51FBD10B510BD08F01EFC99
:1001F0001146FFF7F7FF00F02BF808F03CFC03B4C2
:10020000FFF7F2FF03BC02F029FA00005348008810
:1002100000F40040D0B1524800785149497840EA92
:10022000012000B24F4908804D4880784C49C97878
:1002300040EA012000B24B4948800020474908802D
:1002400049480088401C00B2474908800020704798
:1002500002F09AF94FF4A06000F0B8F94FF4E130E1
:1002600002F00BFA472144F61F6002F0F5FE41F65A
:100270001F41632002F052FF04F0E8FA02F025FE6D
:1002800038223A493A4808F02DFB002039490870D5
:100290003949087025E000203849087018E03348D3
:1002A0003449097830F8110000B23549324A1278E1
:1002B00001EB8201314A127821F812002D480078B2
:1002C000401C2C4908702D480078401C2B490870B0
:1002D0002A4800780228E2DB27480078401C26499B
:1002E0000870254800780D28D5DB2048808E2549E8
:1002F00008801E48C08E2449088003E0FFF786FF6F
:1003000007F02CFFFAE70EB50146002000914122CC
:100310008DF8042042228DF805209DF800208DF8EC
:1003200006209DF801208DF807200D228DF8082069
:100330000A228DF8092000BF0DE001AA125C134BC0
:100340001A8000BF114A121F128802F04002002AD0
:10035000F8D0421CD0B20628EFDB0EBD38000020DA
:10036000000300200000002004000020C80200203C
:1003700000FC0108BA020020B8020020B9020020E7
:10038000080200205E0200206002002004380140C4
:10039000704700BFFEE700BFFEE700BFFEE700BFFB
:1003A000FEE7704770477047704700000CB50020AB
:1003B000019000906C48006840F480306A49086001
:1003C00000BF6948006800F4003000900198401CAC
:1003D0000190009818B90198B0F5A06FF1D162486A
:1003E000006800F4003010B10120009001E000200E
:1003F00000900098012843D15C48006840F010004C
:100400005A4908600846006820F003000860084662
:10041000006840F002000860534840685249486054
:100420000846406848600846406840F4806048607C
:100430000846406820F47C1048600846406840F454
:10044000E81048600846006840F08070086000BF0F
:100450004548006800F000700028F9D04248406824
:1004600020F00300404948600846406840F0020020
:10047000486000BF3C48406800F00C000828F9D1F3
:100480000CBD10B5FFF792FF10BD10B536480068DF
:1004900040F001003449086008464068344908408B
:1004A0003149486008460068324908402E490860D2
:1004B0000846006820F4802008600846406820F460
:1004C000FE0048604FF41F008860FFF7DAFF4FF02E
:1004D00000602949086010BD10B5002100200022ED
:1004E000214B5B6803F00C0121B1042906D00829D7
:1004F00028D107E0214B224C236027E01F4B204CE2
:10050000236023E0184B5B6803F47010164B5B68A4
:1005100003F48032022303EB904022B9194B43438A
:10052000174C23600DE0104B5B6803F4003323B1DC
:10053000144B4343124C236003E0104B4343104CD5
:10054000236003E00D4B0E4C236000BF00BF064B41
:100550005B68C3F303130C4CE15C094B1B68CB4095
:10056000074C236010BD0000001002400020024034
:100570000000FFF8FFFFF6FE08ED00E000127A0031
:100580000800002000093D000C00002009488047B9
:1005900009480047FEE7FEE7FEE7FEE7FEE7FEE765
:1005A000FEE7FEE7FEE7FEE704480549054A064B7D
:1005B000704700008B04000831010008400D002046
:1005C00040130020400F0020400F0020314901431C
:1005D000314A1160704770B5002100230F22C478A2
:1005E00004B32D4C246804F4E064C4F5E064210AEB
:1005F000C1F10403CA40447804FA03F1847814403A
:1006000021430901254C0678A155047804F01F0503
:100610000124AC4005786D11AD0005F1E025C5F869
:10062000004109E0047804F01F050124AC401C4D92
:100630000678761145F8264070BD1A4A0A400243F2
:10064000154B1B1F1A60704739B1134A121D1268EF
:100650000243114B1B1D1A6006E00F4A121D12685F
:1006600082430D4B1B1D1A607047042808D14FF0C0
:10067000E021096941F004014FF0E022116107E037
:100680004FF0E021096921F004014FF0E0221161EF
:10069000704700000000FA050CED00E000E400E007
:1006A00080E100E080FFFF1F01460020FE4A106845
:1006B00000F03800084310607047FB49096821F0DA
:1006C0000801F94A11601146096801431160704739
:1006D000F549096821F01001F34A116011460968D3
:1006E000014311607047F148EF494860F0484860A5
:1006F0007047EE48EC494860ED4848607047EA486A
:10070000006940F08000E84908617047E6480069E8
:1007100040F08000E449086170470420E249C9685C
:1007200001F0010109B101200EE0DF49C96801F0C3
:10073000040109B1022007E0DB49C96801F010019A
:1007400009B1032000E00420704700B502460423ED
:10075000FFF7E3FF034603E0FFF7DFFF0346521E08
:10076000012B01D1002AF7D102B90523184600BD9B
:1007700030B5044604254FF43020FFF7E6FF054668
:10078000042D17D1C848006940F00200C64908612D
:1007900008464461006940F0400008614FF4302091
:1007A000FFF7D3FF0546C048006941F6FD710840D8
:1007B000BD490861284630BD10B504244FF43020EF
:1007C000FFF7C3FF0446042C16D1B748006940F078
:1007D0000400B54908610846006940F0400008611E
:1007E0004FF43020FFF7B1FF0446AF48006941F6EF
:1007F000FB710840AC490861204610BD00B50246B7
:100800000423FFF78AFF034603E0FFF786FF034652
:10081000521E012B01D1002AF7D102B90523184637
:1008200000BD10B504244FF43020FFF7E7FF044665
:10083000042C16D19C48006940F004009A490861D4
:100840000846006940F0400008614FF43020FFF78F
:10085000D5FF04469448006941F6FB71084092496F
:100860000861204610BD00208F49C96901F00201CE
:1008700009B1012000E00020704730B5A52504240F
:10088000FFF7F1FF00B100254FF43020FFF75DFFC7
:100890000446042C3AD1854883498860844888609E
:1008A0000846006940F0200008610846006940F0F1
:1008B000400008614FF43020FFF747FF0446042C46
:1008C0001BD17948006941F6DF710840764908611B
:1008D0000846006940F01000086176480580E00293
:1008E000FFF733FF0446052C10D06F48006941F62E
:1008F000EF7108406C49086108E0052C06D06A4891
:10090000006941F6EF71084067490861204630BD33
:1009100078B506460C46042500200090E802FFF753
:1009200014FF0546042D24D15F48006940F0010002
:100930005D4908613480E802FFF707FF0546042D92
:1009400010D1B01C0090200C00990880E802FFF73D
:10095000FCFE05465448006941F6FE7108405249C4
:10096000086106E05048006941F6FE7108404E49B2
:100970000861284678BD70B504460D460426F0028D
:10098000FFF7E3FE0646042E11D14748006940F008
:100990000100454908612580F002FFF7D6FE0646B2
:1009A0004148006941F6FE7108403F490861304600
:1009B00070BD70B505460E460424E002FFF7C5FE83
:1009C0000446042C17D13948374988603848886074
:1009D0000846006940F0100008612E80E002FFF731
:1009E000B4FE0446052C06D02F48006941F6EF718D
:1009F00008402D490861204670BD2DE9F0430446AA
:100A00004FF6FF763746B046B1460425E443E6B2DA
:100A1000C4F30727C4F307484FEA1469E802FFF755
:100A200094FE0546042D49D120481F49886020487E
:100A300088600846006940F010000861FF2E06D06B
:100A40001C4808300680E802FFF77FFE0546042DAB
:100A500008D1FF2F06D017480A300780E802FFF7B9
:100A600074FE0546042D0AD1B8F1FF0F07D01148D6
:100A70000C30A0F80080E802FFF767FE0546042D61
:100A80000AD1B9F1FF0F07D00A480E30A0F8009044
:100A9000E802FFF75AFE0546052D0FD0024800690F
:100AA00041F6EF71084007E000200240230167454E
:100AB000AB89EFCD00F8FF1F664908612846BDE805
:100AC000F08330B5054604244FF43020FFF73DFE97
:100AD0000446042C41D160485E4988605F488860C4
:100AE0000846006940F0200008610846006940F0AF
:100AF000400008614FF43020FFF727FE0446042C25
:100B000022D15448006941F6DF710840514908611B
:100B10000846006940F0100008611DB100205049EE
:100B2000088002E0A5204E4908804FF43020FFF7EE
:100B30000CFE0446052C10D04648006941F6EF71C2
:100B400008404449086108E0052C06D04148006986
:100B500041F6DF7108403F490861204630BDF0B5DD
:100B600005460E46174604243B483A4988603B48F0
:100B70008860E002FFF7E9FD0446042C19D13548EE
:100B8000006940F010003349086147F0F800304335
:100B900028433349891C0880E002FFF7D6FD04464C
:100BA000052C06D02B48006941F6EF710840294911
:100BB00008612046F0BD2748C06980087047254875
:100BC000006A704700202349096801F0200109B13B
:100BD000012000E00020704729B11E4A126902433B
:100BE0001C4B1A6104E01B4A12698243194B1A61BB
:100BF000704701460020012908D1164AD26902F047
:100C000001020AB1012008E0002006E0114AD26882
:100C10000A400AB1012000E0002070470D49C86079
:100C2000704704200B49C96801F0010109B1012096
:100C30000EE00849C96801F0040109B1022007E08B
:100C40000449C96801F0100109B1032000E0042043
:100C5000704700000020024023016745AB89EFCDBB
:100C600000F8FF1F10B50446CC48844208D101218A
:100C7000042000F02DFB0021042000F029FB46E0B9
:100C8000C748844208D10121082000F021FB00213F
:100C9000082000F01DFB3AE0C248844208D101213F
:100CA000102000F015FB0021102000F011FB2EE0B9
:100CB000BD48844208D10121202000F009FB002119
:100CC000202000F005FB22E0B848844208D1012131
:100CD000402000F0FDFA0021402000F0F9FA16E073
:100CE000B348844208D10121802000F0F1FA0021AC
:100CF000802000F0EDFA0AE0AE48844207D10121DD
:100D0000801500F0E5FA0021A01500F0E1FA10BD11
:100D100010B50121084600F0DBFA0021012000F0A7
:100D2000D7FA10BD2DE9F04102460025002600202B
:100D300000230024002791F803C00CF00F0591F860
:100D400003C00CF0100CBCF1000F03D091F802C0EE
:100D50004CEA050591F800C0BCF1000F31D01468D1
:100D600000202BE04FF0010C0CFA00F3B1F800C0AA
:100D70000CEA03069E4220D183004FF00F0C0CFAC0
:100D800003F7BC4305FA03FC4CEA040491F803C0E2
:100D9000BCF1280F06D14FF0010C0CFA00FCC2F890
:100DA00014C00AE091F803C0BCF1480F05D14FF020
:100DB000010C0CFA00FCC2F810C0401C0828D1D36A
:100DC0001460B1F800C0BCF1FF0F34DD546800209E
:100DD0002EE000F1080C4FF0010808FA0CF3B1F80E
:100DE00000C00CEA03069E4221D183004FF00F0C95
:100DF0000CFA03F7BC4305FA03FC4CEA040491F82F
:100E000003C0BCF1280F05D100F1080C08FA0CF85A
:100E1000C2F8148091F803C0BCF1480F07D100F16B
:100E2000080C4FF0010808FA0CF8C2F81080401CBA
:100E30000828CED35460BDE8F0814FF6FF710180E1
:100E4000022181700421C17070470246002093681E
:100E50000B400BB1012000E000207047014688687C
:100E600080B2704702460020D3680B400BB10120CE
:100E700000E0002070470146C86880B270470161F9
:100E80007047416170470AB1016100E041617047FC
:100E9000C16070474FF480320A4382618161826190
:100EA00082698269704702460020434B18684FF6FA
:100EB0008073184040EA021008433F4B18607047A7
:100EC0003E49C8617047F0B50A460023002400215E
:100ED000002500F00046B6F1004F02D1364EF16910
:100EE00001E0354E7168C0F3034583B200F440164B
:100EF000B6F5401F08D121F070612F4E766826F0BC
:100F000070662D4F7E6012E000F48016B6F5801FEB
:100F100006D1032606FA05F4A14341F0706106E00C
:100F2000460D360103FA06F6B14341F0706122B175
:100F3000460D360103FA06F6314300F00046B6F1DD
:100F4000004F02D11C4EF16101E01B4E7160F0BDFB
:100F500030B500228B071C0F0F2303FA04F2164B47
:100F600008338C1053F824309343134C08348D10FD
:100F700044F8253023468C1053F824308C07240F76
:100F800000FA04F423430C4C08348D1044F8253047
:100F900030BD0A49DC31086070470000000801409C
:100FA000000C0140001001400014014000180140F5
:100FB000001C0140002001400000014000002042D0
:100FC000DF48006840F00100DD49086008464068DD
:100FD000DC490840DA49486008460068DA490840B8
:100FE000D74908600846006820F480200860084659
:100FF000406820F4FE0048604FF41F00886070478E
:10100000CF49096821F48031CD4A11601146096841
:1010100021F480211160B0F5803F03D0B0F5802F1E
:101020000ED106E0C649096841F48031C44A116016
:1010300007E0C349096841F4A021C14A116000E0FA
:1010400000BF00BF704710B50146002200230020FA
:101050004A11012A02D1BA4C236806E0022A02D1C1
:10106000B74C236A01E0B64C636A01F01F02012409
:1010700094401C400CB1012000E0002010BD38B5A8
:10108000002000900024002500BF3120FFF7DBFF87
:1010900005460098401C00900098B0F5A06F01D064
:1010A000002DF2D03120FFF7CEFF08B1012400E07F
:1010B0000024204638BD01460020A14A106820F0D7
:1010C000F80040EAC10010607047A049086070470E
:1010D000024600209A4B586820F47C1042EA010333
:1010E0001843974B58607047984908667047014607
:1010F0000020934A506820F0030008435060704776
:101100008F48406800F00C007047014600208C4A70
:10111000506820F0F00008435060704701460020FE
:10112000874A506820F4E0600843506070470146E9
:101130000020834A506820F4605040EAC1005060AB
:10114000704729B17E4A527A02437D4B5A7204E0BD
:101150007B4A527A82437A4B5A7270477B49D83124
:101160000860704701460020754A506820F44040EE
:101170000843506070470021714A20321170704A54
:1011800082F82010012802D004280AD104E00121AD
:101190006B4A2032117005E00521694A2032117036
:1011A00000E000BF00BF70476949086070476449AC
:1011B000096A0143624A116270476549443908600F
:1011C000704730B500210022002400235C4D6D687B
:1011D00005F00C0121B1042905D0082923D105E02F
:1011E0005C4D056022E05B4D05601FE0544D6D686D
:1011F00005F47012524D6D6805F48034022505EB3C
:1012000092421CB9544D554305600BE04C4D6D683E
:1012100005F400351DB1504D5543056002E04D4DBC
:101220005543056002E04B4D056000BF00BF444DD3
:101230006D6805F0F0010909484D6B5C0568DD40FB
:1012400045603F4D6D6805F4E061090A434D6B5CF4
:101250004568DD4085603A4D6D6805F46051C90A06
:101260003E4D6B5C4568DD40C560354D6D6805F4ED
:101270004041890B3A4D6B5CC568B5FBF3F50561E0
:1012800030BD29B12E4A526902432D4B5A6104E008
:101290002B4A526982432A4B5A61704729B1284A26
:1012A00092690243264B9A6104E0254A926982437F
:1012B000234B9A61704729B1214AD2690243204BDE
:1012C000DA6104E01E4AD26982431D4BDA6170473D
:1012D00029B11B4AD2680243194BDA6004E0184A6C
:1012E000D2688243164BDA60704729B1144A1269FA
:1012F0000243134B1A6104E0114A12698243104BF6
:101300001A61704712494039086070470F49C86434
:1013100070470B49C87170470948406A40F08070B7
:1013200007494862704701460020054A92680A4012
:101330000AB1012000E0002070470149887270471F
:10134000001002400000FFF8FFFFF6FE00004242DE
:101350008004424200127A0000093D001C00002077
:101360002C00002010B50446FE48844208D101211B
:10137000C014FFF7ADFF0021E014FFF7A9FFC4E0A0
:10138000B4F1804F08D101210846FFF7AEFF0021DC
:101390000120FFF7AAFFB8E0F348844208D10121F9
:1013A0000220FFF7A2FF00210220FFF79EFFACE022
:1013B000EE48844208D101210420FFF796FF002166
:1013C0000420FFF792FFA0E0E948844208D1012100
:1013D0000820FFF78AFF00210820FFF786FF94E02E
:1013E000E448844208D101211020FFF77EFF00214C
:1013F0001020FFF77AFF88E0DF48844208D10121FE
:101400002020FFF772FF00212020FFF76EFF7CE015
:10141000DA48844208D101214014FFF759FF002126
:101420006014FFF755FF70E0D548844209D10121CF
:10143000C804FFF74DFF00214FF40020FFF748FFDD
:1014400063E0D048844209D101210805FFF740FF3D
:1014500000214FF48010FFF73BFF56E0CA4884425A
:1014600009D101214805FFF733FF00214FF4001097
:10147000FFF72EFF49E0C548844208D101214020F2
:10148000FFF733FF00214020FFF72FFF3DE0C0486A
:10149000844208D101218020FFF727FF002180200E
:1014A000FFF723FF31E0BB48844208D101218015BA
:1014B000FFF71BFF0021A015FFF717FF25E0B64837
:1014C000844209D101210804FFF702FF00214FF4F3
:1014D0008030FFF7FDFE18E0B048844209D10121B9
:1014E0004804FFF7F5FE00214FF40030FFF7F0FE4F
:1014F0000BE0AB48844208D101218804FFF7E8FEE5
:1015000000214FF48020FFF7E3FE10BD0022028887
:10151000944B98420ED0994B98420BD0B0F1804F2B
:1015200008D0914B984205D0904B984202D0904BF6
:10153000984204D14FF68F731A404B881A438D4B53
:10154000984207D08C4B984204D04FF6FF431A4084
:10155000CB881A4302808B8883850B880385814B57
:1015600098420BD0854B984208D08B4B984205D0BF
:101570008A4B984202D08A4B984201D10B7A03865B
:1015800001238382704770B5002400220023058C5C
:101590004FF6FE7635400584028C8388048B4FF627
:1015A0008F752C40B51E2C400D882C43751E2A408B
:1015B0000D892A434D882A436A4DA8420BD06F4DAE
:1015C000A84208D0744DA84205D0744DA84202D05C
:1015D000734DA84213D14FF6F7752A404D892A431F
:1015E0004FF6FB752A408D882A434FF6FF652B4046
:1015F0004FF6FF552B408D892B43CD892B4383809C
:101600000483CD888586028470BD70B500240022D5
:101610000023058C4FF6EF7635400584028C8388D5
:10162000048B48F6FF752C404FF6FF452C400D8883
:101630004FF6FF7606EA05252C434FF6DF752A4064
:101640000D8906EA05152A434D8806EA05152A4341
:10165000444DA84202D0494DA8421DD14FF67F7596
:101660002A404D894FF6FF7606EA05152A434FF6C4
:10167000BF752A408D8806EA05152A434FF6FF35C7
:101680002B404FF2FF752B408D8906EA85052B43D1
:10169000CD8906EA85052B4383800483CD880587A1
:1016A000028470BD70B5002400220023058C4FF623
:1016B000FF6635400584028C8388848B4FF68F75D6
:1016C0002C404FF6FC752C400D882C434FF6FF55EF
:1016D0002A400D894FF6FF7606EA05252A434D88F4
:1016E00006EA05252A431F4DA84202D0234DA842F1
:1016F0001DD14FF2FF752A404D894FF6FF7606EA5D
:1017000005252A434FF6FF352A408D8806EA052530
:101710002A434EF6FF752B404DF6FF752B408D8901
:1017200006EA05152B43CD8906EA05152B43838070
:101730008483CD888587028470BD70B50022002324
:101740000024058C4EF6FF7635400584038C848892
:10175000828B48F6FF752A404FF6FF452A400D88D8
:1017600020E00000002C0140000400400008004080
:10177000000C004000100040001400400034014004
:10178000004C01400050014000540140001800404E
:10179000001C004000200040004001400044014087
:1017A000004801404FF6FF7606EA05252A434DF62C
:1017B000FF752B400D8906EA05352B434D8806EA57
:1017C00005352B43FA4DA84202D0FA4DA84208D164
:1017D0004BF6FF752C408D894FF6FF7606EA85158E
:1017E0002C4384808283CD88A0F84050038470BD50
:1017F000828B4FF2FF331A408283828B4FF6FF7346
:1018000003EA01231A4382837047F0B50C4615465C
:10181000002200210026078C4EF6FF7C07EA0C0709
:101820000784828B018C4FF6FF7707EA043640F677
:10183000FF473A404FF6FF7707EA05273A434FF64E
:10184000FF7707EA03373A43D94FB8420ED0D94F52
:10185000B8420BD0B0F1804F08D0D74FB84205D076
:10186000D64FB84202D0D64FB84206D14DF6FF77D8
:10187000394046F48057394305E047F6FF57394071
:1018800044F48057394382830184F0BD828B4FF644
:10189000F3731A408283828B0A4382837047F0B5C8
:1018A0000C461546002200210026078C4FF6FF6CDF
:1018B00007EA0C070784828B018C4FF6FF7707EA53
:1018C00004264FF60C773A404FF6FF7707EA0317E6
:1018D0002F433A43B64FB8420ED0B64FB8420BD062
:1018E000B0F1804F08D0B44FB84205D0B34FB842E2
:1018F00002D0B34FB84206D14FF6FF57394046F4F5
:101900008077394305E04FF2FF57394044F4807740
:10191000394382830184F0BD028B4FF2FF331A40BA
:101920000283028B4FF6FF7303EA01231A430283FB
:101930007047F0B50C461546002200210026078CA2
:101940004FF6EF7C07EA0C070784028B018C4FF6F9
:10195000FF7707EA041640F6FF473A404FF6FF7755
:1019600007EA03373A434FF6FF7707EA05273A437A
:101970008F4FB8420ED08F4FB8420BD0B0F1804F8E
:1019800008D08D4FB84205D08C4FB84202D08C4F52
:10199000B84206D14FF6DF77394046F01007394399
:1019A00005E04FF65F77394044F010073943028372
:1019B0000184F0BD028B4FF6F3731A400283028B51
:1019C0000A4302837047F0B50C46154600220021F9
:1019D000068C4FF6FE773E400684028B018C4FF654
:1019E0000C7632407E1C06EA03162E433243704EBC
:1019F000B0420ED06F4EB0420BD0B0F1804F08D045
:101A00006D4EB04205D06D4EB04202D06C4EB04229
:101A100006D14FF6FD76314044F00106314305E032
:101A20004FF6F576314044F00106314302830184DC
:101A3000F0BD70B505460C465D4885420ED05D4848
:101A400085420BD0B5F1804F08D05B48854205D068
:101A50005A48854202D05A48854200D100E000BF72
:101A6000208850B92389A28861882846FFF7ABFFF8
:101A7000E1882846FFF79EFF25E0208804280AD148
:101A80002389A28861882846FFF753FFE18828460A
:101A9000FFF742FF17E0208808280AD12389A2888F
:101AA00061882846FFF7FBFEE1882846FFF7EEFE37
:101AB00009E02389A28861882846FFF7A6FEE1880D
:101AC0002846FFF795FE70BD2DE9F04105460C460E
:101AD00000260127608808B9022600E00026A088B9
:101AE000012801D1022700E001272088A0B923891D
:101AF000A28861882846FFF766FFE1882846FFF73D
:101B000059FF23893A4631462846FFF712FFE188FC
:101B10002846FFF701FF13E02389A2886188284641
:101B2000FFF707FFE1882846FFF7F6FE23893A46CC
:101B300031462846FFF747FFE1882846FFF73AFF7E
:101B4000BDE8F0810A884B881A438B881A43CB88FA
:101B50001A430B891A434B891A438B891A43A0F8FD
:101B6000442070474FF6FF71818000210180C180C1
:101B70004180017270470021018041808180C180D5
:101B8000018141818181C1817047002101804180B3
:101B9000012181800021C1800181704700210180E5
:101BA00041808180C1800181418181817047000035
:101BB000002C0140003401400004004000080040B7
:101BC000000C004021B1028842F00102028004E0D2
:101BD00002884FF6FE731A400280704731B1B0F8A8
:101BE000442042F40042A0F8442005E0B0F844202C
:101BF000C2F30E02A0F8442070471AB183890B4348
:101C0000838102E083898B4383817047818270479F
:101C100041EA0203A0F8483070471AB183890B43A8
:101C2000838102E083898B438381704701894FF66A
:101C3000F8721140018170470A46002101894FF670
:101C40008F73194011430181704730B504460D462A
:101C500029462046FFF7F0FF208940F00700208149
:101C600030BD2DE9F04104460D4616461F46602D55
:101C700006D13B46012231462046FFF75AFE05E0D9
:101C80003B46012231462046FFF79DFE294620466D
:101C9000FFF7D2FF208940F007002081BDE8F081E6
:101CA00030B50C4600210189C9B24FF6FF7505EA2F
:101CB0000325154325432943018130BD2DE9F0411A
:101CC00005460E4617469846002443463A46314696
:101CD0002846FFF7E5FF2C894FF6F870044044F0E2
:101CE00007044FF68F70044044F070042C81BDE867
:101CF000F081F0B504460D4616461F463B46324677
:101D000029462046FFF7CCFF208940F480402081FF
:101D1000F0BD0185828270470A46002101884FF696
:101D20008F731940114301807047F0B50C4615467A
:101D30001E460021002200230189028B038C4FF6EE
:101D4000F877394021434FF6FC473A4040F20117FB
:101D50003A434FF6DD773B404FF6FF7707EA061729
:101D60002F433B43018102830384F0BD0A460021D7
:101D7000018B4FF68F7319401143018370470A4658
:101D80000021018B48F6FF7319404FF6FF7303EAF9
:101D900002231943018370470A460021818B4FF6C5
:101DA0008F7319401143818370470A460021818B4C
:101DB00048F6FF7319404FF6FF7303EA02231943F5
:101DC0008183704721B1028842F08002028004E0E2
:101DD00002884FF67F731A400280704721B18288D3
:101DE00042F00402828004E082884FF6FB731A40BE
:101DF0008280704721B1828842F00802828004E02C
:101E000082884FF6F7731A408280704721B182882A
:101E100042F00102828004E082884FF6FE731A408D
:101E2000828070470A460021018B4FF6F7731940F4
:101E30001143018370470A460021018B4FF2FF7363
:101E400019404FF6FF7303EA0223194301837047D9
:101E50000A460021818B4FF6F773194011438183A5
:101E600070470A460021818B4FF2FF7319404FF6ED
:101E7000FF7303EA02231943818370470A46002156
:101E8000018B4FF6FB7319401143018370470A46DB
:101E90000021018B4FF6FF3319404FF6FF7303EA21
:101EA00002231943018370470A460021818B4FF6B4
:101EB000FB7319401143818370470A460021818BCF
:101EC0004FF6FF3319404FF6FF7303EA022319431D
:101ED000818370470A460021018B4FF67F731940BA
:101EE0001143018370470A460021018BC1F30E01A3
:101EF0004FF6FF7303EA02231943018370470A4632
:101F00000021818B4FF67F73194011438183704705
:101F10000A460021818BC1F30E014FF6FF7303EADD
:101F200002231943818370470A460021018C4FF632
:101F3000FD7319401143018470470A460021018C4A
:101F40004FF6F77319401143018470470A46002188
:101F5000018C4FF6DF7319404FF6FF7303EA02134B
:101F60001943018470470A460021018C4FF67F73A4
:101F700019404FF6FF7303EA0213194301847047B7
:101F80000A460021018C4FF6FF5319404FF6FF73AC
:101F900003EA02231943018470470A460021018C99
:101FA0004FF2FF7319404FF6FF7303EA0223194300
:101FB000018470470A460021018C4DF6FF731940D9
:101FC0004FF6FF7303EA023319430184704730B5BB
:101FD000002301248C40A3B2048C9C430484048C11
:101FE00002FA01F5ADB22C43048430BD30B50023B4
:101FF00004248C40A3B2048C9C430484048C02FA15
:1020000001F5ADB22C43048430BD70B50346002009
:1020100000241846183001258D40ACB21D8CA54314
:102020001D8409B1082909D100EB6100056825F07C
:10203000700505600568154305600EE00D1FC5F3CA
:102040004E052844056825F4E045056005684FF60F
:10205000FF7606EA02263543056070BD21B102888D
:1020600042F00202028004E002884FF6FD731A403B
:102070000280704721B1028842F00402028004E02D
:1020800002884FF6FB731A400280704721B18288A4
:1020900042F08002828004E082884FF67F731A400B
:1020A0008280704702884FF6F7731A4002800288D8
:1020B0000A430280704782884FF68F731A408280ED
:1020C00082880A438280704702894FF6F8731A406B
:1020D000028102890A430281704702894FF67F73A9
:1020E0001A40028102890A43028170478184704745
:1020F0008185704781867047018770478187704767
:10210000A0F84010704702884FF6FF431A40028043
:1021100002880A43028070470146888E7047014654
:10212000088F70470146888F70470146B1F840001C
:1021300070470146888C70470146088D70470246FB
:102140000020138A0B400BB1012000E000207047F3
:10215000CA430282704730B50246002000230024A3
:10216000158A05EA0103958905EA010413B10CB14A
:10217000012000E0002030BDCA4302827047000009
:1021800010B50446FB48844209D101218803FFF7BA
:102190009FF800214FF48040FFF79AF832E0F648AC
:1021A000844209D101214804FFF79FF800214FF430
:1021B0000030FFF79AF825E0F048844209D1012168
:1021C0008804FFF792F800214FF48020FFF78DF884
:1021D00018E0EB48844209D10121C804FFF785F8D3
:1021E00000214FF40020FFF780F80BE0E54884421F
:1021F00008D101210805FFF778F800214FF480107D
:10220000FFF773F810BD2DE9F04786B005460E467E
:102210000024A24600BFA1460027B08900B100BF3C
:102220002F462C8A4CF6FF700440F08804432C8221
:10223000AC894EF6F3100440B088318908437189A7
:1022400008430443AC81AC8A4FF6FF400440B08998
:102250000443AC8201A8FEF7B4FFC648874202D10E
:10226000DDF810A001E0DDF80CA0A88900F4004022
:1022700040B10AEBCA0000EB0A1031684900B0FB1C
:10228000F1F807E00AEBCA0000EB0A103168890098
:10229000B0FBF1F86420B8FBF0F0040120096421E0
:1022A00001FB1089A88900F4004040B1322000EB06
:1022B000C900B0FBF1F000F00700044308E0322051
:1022C00000EB09106421B0FBF1F000F00F000443B3
:1022D0002C8106B0BDE8F0874FF416510160002153
:1022E0008180C18001810C21418100218181704761
:1022F00010B502460020108A4FF2FF0318400B88E9
:102300004C8823438C882343CC8823431843108272
:1023100010BD0021018041808180C180704721B1C2
:10232000828942F40052828104E082894DF6FF7373
:102330001A4082817047F0B503460024002600252C
:10234000002040F66A17B94200D100BF1846C1F319
:10235000421401F01F06012707FA06F5012C01D1EE
:102360000C3004E0022C01D1103000E014301AB11E
:1023700007682F43076002E00768AF430760F0BDBE
:102380001AB1838A0B43838202E0838A8B43838260
:102390007047028A4FF6F0731A400282028A0A439B
:1023A0000282704782894FF2FF731A4082818289CC
:1023B0000A438281704721B1828942F00202828100
:1023C00004E082894FF6FD731A4082817047028AC9
:1023D0004FF6DF731A400282028A0A430282704774
:1023E00021B1028A42F48042028204E0028A4BF662
:1023F000FF731A4002827047C1F30802828070475F
:1024000001468888C0F308007047818941F00101C6
:1024100081817047028BD2B20283028B42EA012291
:1024200002837047028B02F47F420283028B0A43CD
:102430000283704721B1828A42F02002828204E046
:10244000828A4FF6DF731A408282704721B1828AF6
:1024500042F01002828204E0828A4FF6EF731A4043
:102460008282704721B1828A42F00802828204E0AF
:10247000828A4FF6F7731A408282704721B18289AF
:1024800042F40042828103E08289C2F30E0282811B
:10249000704721B1828A42F40062828204E0828A1B
:1024A0004FF2FF731A4082827047828A4FF6FB73A5
:1024B0001A408282828A0A438282704721B1828ACC
:1024C00042F00202828204E0828A4FF6FD731A40D3
:1024D0008282704702460020B1F5007F00D100BF24
:1024E00013880B400BB1012000E00020704701F47D
:1024F0000072B2F5007F00D100BFCA43028070476E
:1025000070B50246002400230025002040F66A161C
:10251000B14200D100BFC1F3421501F01F030126F3
:1025200006FA03F3012D02D19689334006E0022D0D
:1025300002D1168A334001E0968A33400C120126FC
:1025400006FA04F41688344013B10CB1012000E0FF
:10255000002070BD10B50022002340F66A14A1428D
:1025600000D100BF0A1201249440A3B2DC430480CE
:1025700010BD000000380140004400400048004009
:10258000004C00400050004010B56FF00400FEF712
:102590006CF82E4800682E49B0FBF1F02D49087008
:1025A0000846007800EB4001C1EBC0104FF6FF7108
:1025B00001EAC0002849088010BD0146254A12786A
:1025C0004A434FF0E0235A6100229A611A46126989
:1025D00042F001021A6100BF4FF0E022106900F0E2
:1025E00001021AB100F48032002AF5D04FF0E02247
:1025F000126922F001024FF0E0231A6100229A6171
:1026000070470146144A12884A434FF0E0235A614A
:1026100000229A611A46126942F001021A6100BF53
:102620004FF0E022106900F001021AB100F480328C
:10263000002AF5D04FF0E022126922F001024FF09B
:10264000E0231A6100229A61704700000800002010
:1026500000127A003000002032000020014600BF46
:10266000704700BF5B4A128802F04002002AF9D08E
:10267000C2B2584B1B1D1A80704710B586B0044675
:10268000012144F20400FEF709FE4FF40070ADF89A
:10269000140003208DF8160018208DF8170005A9E6
:1026A0004D48FEF73FFB4FF48060ADF81400042066
:1026B0008DF8170005A94848FEF734FB25208DF852
:1026C000000001208DF801008DF802008DF8030054
:1026D0006846FDF780FF01940020ADF80800ADF8D2
:1026E0000A00ADF80C00ADF810000C20ADF80E009B
:1026F00001A93848FFF787FD012240F225513548EE
:10270000FFF719FE01213348FFF709FE06B010BD9F
:1027100010B540F225512F48FFF7F2FE002857D0A0
:102720002C48FFF76DFEC4B22C48008800F400501E
:10273000002845D02948008800F48050B0B32748CD
:10274000008800F40040002842D12448008800F4AA
:10275000804060B10A2C03D000202049088037E077
:102760001E48008840F400401C49088030E00D2CD1
:1027700006D11A48008840F480401849088027E0B4
:1027800016480088C0F30B0015490C541348008804
:10279000401C124908800846008843F2C70188425D
:1027A00016DD4FF440500D49088011E0FFE7422C40
:1027B0000ED10A48008840F480500849088007E09C
:1027C000412C05D10548008840F400500349088099
:1027D00010BD000000380140000801403800002012
:1027E0000003002070B504460E4626B10821FA48C1
:1027F000FEF745FB03E00821F748FEF742FB022104
:10280000F548FEF73EFB002517E02021F348FEF7D0
:1028100038FB04F0800020B10121EF48FEF72FFBC8
:1028200003E00121EC48FEF72CFB2021EB48FEF7EA
:1028300026FB6006040E681CC5B2082DE5DB0221EC
:10284000E548FEF71CFB0821E348FEF718FB70BDC6
:1028500070B504460E4626B10821DF48FEF70FFB8F
:1028600003E00821DC48FEF70CFB0221DA48FEF702
:1028700008FB002517E02021D848FEF702FB04F0F2
:10288000800020B10121D448FEF7FBFA03E00121CA
:10289000D148FEF7F4FA2021D048FEF7F0FA60069E
:1028A000040E681CC5B2082DE5DB0221CA48FEF7FC
:1028B000E6FA0821C848FEF7E2FA70BD70B5044692
:1028C0000D4605F1B001C8B20021FFF78BFF1021C2
:1028D00041EA14100021FFF785FF04F00F0141F0D9
:1028E00001000021FFF77EFF70BD10B500218D2093
:1028F000FFF778FF00211420FFF774FF0021AF20BD
:10290000FFF770FF10BD10B500218D20FFF76AFFA3
:1029100000211020FFF766FF0021AE20FFF762FFC5
:1029200010BD70B5002419E004F1B001C8B2002157
:10293000FFF758FF00210846FFF754FF0021102041
:10294000FFF750FF002505E001210020FFF74AFFB7
:10295000681CC5B2802DF7DB601CC4B2082CE3DB19
:1029600070BDF0B5144600267F2801DC3F2900DD4C
:10297000F0BD0B46CF1701EB5777FF10C7F10707E4
:10298000FAB2CF1701EB5777FF10A1EBC707FDB2E3
:10299000C5F107070123BB40DEB24CB1904B03EBFE
:1029A000C0039B5C33438E4F07EBC007BB5408E06A
:1029B0008B4B03EBC0039B5CB343894F07EBC00712
:1029C000BB5400BFD4E770B500241CE004F1B00193
:1029D000C8B20021FFF706FF00210846FFF702FFFB
:1029E00000211020FFF7FEFE002508E07C4901EBE6
:1029F000C501085D0121FFF7F5FE681CC5B2802DF9
:102A0000F4DB601CC4B2082CE0DB70BD2DE9F041A2
:102A100006460C4617464FF000080025A7F1200097
:102A200000F0FF087F2E02DD0026A01CC4B2601C4F
:102A3000C1B23046FFF742FF00250AE008EB48012B
:102A4000684A02EB4101485D0121FFF7CBFE681C9B
:102A5000C5B2062DF2DBBDE8F0812DE9F041064656
:102A60000C4617464FF000080025A7F1200000F0A3
:102A7000FF087F2E02DD0026A01CC4B2601CC1B27C
:102A80003046FFF71BFF00250AE008EB4801554AD6
:102A900002EB4101485D0121FFF7DAFE681CC5B277
:102AA000062DF2DBBDE8F08110B50246012000E002
:102AB00050430B00A1F10104E1B2F9D110BD2DE9A1
:102AC000FF5F074691461D460E9E4FF0000A002408
:102AD00033E0281B401EC1B20A20FFF7E5FFB9FB17
:102AE000F0F00A21B0FBF1F201FB1208BAF1000F7D
:102AF00013D1681EA04210DDB8F1000F0BD1B34610
:102B000006EBDB71491001FB0471C8B22022019968
:102B1000FFF77CFF0FE04FF0010AB34606EBDB71D5
:102B2000491001FB0471C8B208F13001CAB2019921
:102B3000FFF76CFF00BF601CC4B2AC42C9DBBDE84C
:102B4000FF9F2DE9F04104460F46154600260EE092
:102B5000AA5D39462046FFF759FF04F10800C4B2C8
:102B6000782C02DD0024B81CC7B2701CC6B2A85D68
:102B70000028EDD1BDE8F0812DE9F041064606249C
:102B80001949304607F0D8FC074607F039FC0546DE
:102B900000BF0AE00A2095FBF0F100FB115000B1E4
:102BA00005E00A2095FBF0F5641E002CF2DC00BF66
:102BB0002046BDE8F08170B506460024304607F097
:102BC0001FFC054600BF641C0A2095FBF0F5002D94
:102BD000F9DC204670BD00000018014000080140EB
:102BE000C803002022A90008002474492DE9F74FEA
:102BF0008CB083469046FEA207CA08AB07C30020EC
:102C00000590069007900024002604908146002736
:102C1000824600BF03E0202005A90855641C0A2C49
:102C2000F9DB4046FFF7C7FF07464046FFF7A4FF22
:102C3000824607EB0A09504606F023FF02460B4680
:102C4000CDE900010020ED4905F0A4FFCDE9020126
:102C500006F0A2FC04904046049907F06DFC039036
:102C600007F0CEFB054600242BE0A9F10101081B6B
:102C700006F007FF02460B46CDE900010020DF49C0
:102C800005F088FFCDE9020106F0CCFE0646BC4205
:102C900002D12E2005A90855BC4207DB95FBF6F0B2
:102CA00008A9095C05AA601C115405E095FBF6F023
:102CB00008A9085C05A9085595FBF6F000FB165518
:102CC000641C4C45D1DB05AA58460D99FFF739FF26
:102CD0000FB0BDE8F08F2DE9FF5F074691461D4616
:102CE0000E9E4FF0000A002433E0281B401EC1B2A4
:102CF0000A20FFF7D9FEB9FBF0F00A21B0FBF1F290
:102D000001FB1208BAF1000F13D1681EA04210DDBA
:102D1000B8F1000F0BD1B34606EBDB71491001FB94
:102D20000471C8B220220199FFF797FE0FE04FF01F
:102D3000010AB34606EBDB71491001FB0471C8B20E
:102D400008F13001CAB20199FFF787FE00BF601C8D
:102D5000C4B2AC42C9DBBDE8FF9F2DE9F041044697
:102D60000F46154600260EE0AA5D39462046FFF7BD
:102D700074FE04F10800C4B2782C02DD0024B81CF3
:102D8000C7B2701CC6B2A85D0028EDD1BDE8F081C5
:102D90002DE9F04180460E46154600273146404653
:102DA000FFF78CFD00240AE0954A02EB8511085DCF
:102DB0000121FFF717FD781CC7B2601CC4B2102CAC
:102DC000F2DB701CC1B24046FFF778FD00240CE036
:102DD0006900491C8A4A02EB4111085D0121FFF795
:102DE00001FD781CC7B2601CC4B2102CF0DBBDE83A
:102DF000F0812DE9F04180460E4615460027314608
:102E00004046FFF75BFD00240AE07D4A02EB851196
:102E1000085D0121FFF71CFD781CC7B2601CC4B21D
:102E2000102CF2DB701CC1B24046FFF747FD0024B6
:102E30000CE06900491C724A02EB4111085D012156
:102E4000FFF706FD781CC7B2601CC4B2102CF0DB83
:102E5000BDE8F0812DE9F05F06460F4690461C461E
:102E6000DDF828A04FF0000BE11704EB5171C910F9
:102E7000A4EBC10131B92046E11704EB5171C1F354
:102E8000C70506E02046E11704EB5171C910491C43
:102E9000CDB23D4615E029463046FFF70FFDB1465D
:102EA0000BE059460BF1010B1AF801000121FFF765
:102EB00099FC09F1010000F0FF09C145F1DB681C34
:102EC000C5B2A542E7DBBDE8F09F08B501210420AB
:102ED000FEF7E4F92020ADF8000010208DF8030083
:102EE00003208DF8020069464648FDF71BFF2021AC
:102EF0004448FDF7C4FF01214020FEF7CFF90F2021
:102F0000ADF8000010208DF8030003208DF80200BA
:102F100069463D48FDF706FF0F213B48FDF7AFFF2F
:102F200004213948FDF7ABFF6420FFF76AFB042159
:102F30003548FDF7A6FFC820FFF763FB04213248A0
:102F4000FDF79DFF0021AE20FFF74CFC0021084655
:102F5000FFF748FC00211020FFF744FC002140202F
:102F6000FFF740FC00218120FFF73CFC0021CF202F
:102F7000FFF738FC0021A120FFF734FC0021C82016
:102F8000FFF730FC0021A620FFF72CFC0021A82031
:102F9000FFF728FC00213F20FFF724FC0021D3206D
:102FA000FFF720FC00210846FFF71CFC0021D5207C
:102FB000FFF718FC00218020FFF714FC0021D92026
:102FC000FFF710FC0021F120FFF70CFC0021DA20B4
:102FD000FFF708FC00211220FFF704FC0021DB2092
:102FE000FFF700FC00214020FFF7FCFB00210DE073
:102FF0003031323334353637383900000000244060
:103000003A00002000080140001801402020FFF78E
:10301000E9FB00210220FFF7E5FB00218D20FFF7EF
:10302000E1FB00211420FFF7DDFB0021A420FFF7C6
:10303000D9FB0021A620FFF7D5FB0021AF20FFF729
:10304000D1FB0021AF20FFF7CDFBFFF76AFC002189
:103050000846FFF733FC08BD30B589B005460C467D
:1030600001210220FEF727F901210420FEF716F9BD
:1030700001210820FEF712F9C020ADF82000182029
:103080008DF8230003208DF8220008A92048FDF7C1
:1030900049FE0120ADF8200018208DF82300032000
:1030A0008DF8220008A91B48FDF73CFEADF818502A
:1030B000ADF814400020ADF8160005A91648FEF73B
:1030C00025FA6020ADF804000120ADF806000020CC
:1030D000ADF80C0001A91048FEF755FA01A90E48F9
:1030E000FEF793FA01A90C48FEF7DCFA08210A481A
:1030F000FEF798FE08210848FEF79DFE08210648C5
:10310000FEF7A6FE01210448FEF75CFD09B030BDC4
:1031100000080140000C0140000400407FB5054656
:103120000C4601210420FEF7C6F8ADF80850ADF8B2
:1031300004400020ADF80A00ADF8060001A9FE48E1
:10314000FEF7E4F901221146FB48FEF756FD1E206A
:103150008DF8000002208DF8010003208DF8020098
:1031600001208DF803006846FDF735FA0121F24889
:10317000FEF728FD7FBD00B587B00121EE48FEF7C0
:10318000EAFF002801F00E82EC480078012804D103
:10319000EB480068401CEA490860EA48007860B9DA
:1031A000E9480188E948FEF7A5FFE9480188E748B2
:1031B000FEF7A2FF0020E1490870E24800780128EC
:1031C00065D1E448B0F91000019007F055F902907C
:1031D00001F006FA0490DC48008807F065F90390D6
:1031E000049906F0DDFF059007F026F980B201464C
:1031F0000690D648FEF77EFFD648B0F9120001903F
:1032000007F03AF9029001F06EFA0490D048008875
:1032100007F04AF90390049906F0C2FF059007F001
:103220000BF980B201460690C848FEF765FFCA490F
:10323000CA48006807F04CF923D8C949C748006854
:1032400007F046FA1DD8C649C648006807F040FA9C
:1032500017D8C149C348006807F03AF911D8C248E5
:103260000088401C00B2C04908800846B0F9000040
:10327000FA280CDB0020B1490870FA20BA4908800E
:1032800005E00020B84908800120AC490870AD482D
:103290000078022872D14FF08141B048006807F0F1
:1032A00017F916D8B149AD48006807F011FA10D8DF
:1032B000AE49AC48006807F00BFA0AD84FF08141DC
:1032C000A848006807F004F903D80120A84908803D
:1032D00005E00020A6490880012098490870A4480C
:1032E000008801280ED1A3480088401C00B2A149E3
:1032F00008800846B0F90000B0F5C87F02DB4FF443
:10330000C87008809B48B0F90000B0F5967F36DCA5
:103310009048B0F90C00019007F0AEF8029001F06F
:103320005FF904908848008807F0BEF8039004997C
:1033300006F036FF059007F07FF880B20146069050
:103340008248FEF7D7FE8348B0F90E00019007F0DF
:1033500093F8029001F0C7F904907D48008807F0C7
:10336000A3F80390049906F01BFF059007F064F89A
:1033700080B2014606907548FEF7BEFE67E07548CC
:10338000B0F91000019007F077F8029001F028F9E9
:1033900004906D48008807F087F80390049906F0C0
:1033A000FFFE059007F048F880B201460690674896
:1033B000FEF7A0FE6748B0F91200019007F05CF834
:1033C000029001F090F904906148008807F06CF8D1
:1033D0000390049906F0E4FE059007F02DF880B202
:1033E000014606905948FEF787FE4FF081415B4841
:1033F000006807F06DF824D85C495848006807F069
:1034000067F91ED859495748006807F061F918D87C
:103410004FF081415348006807F05AF811D85248DC
:103420000088401C00B2504908800846B0F90000EE
:10343000C8280CDB002041490870C8204A49088090
:1034400005E000204849088001203C4908703D48BB
:10345000007803286ED148480088A8BB3D48B0F9E1
:103460002400019007F008F8029001F0B9F80490E8
:103470003548008807F018F80390049906F090FE8C
:10348000059006F0D9FF80B2014606902F48FEF75E
:1034900031FE3048B0F92600019006F0EDFF0290B1
:1034A00001F021F904902A48008806F0FDFF0390FE
:1034B000049906F075FE059006F0BEFF80B2014645
:1034C00006902248FEF718FE2B48008801285AD1A2
:1034D0002048B0F92C00019006F0CEFF029001F0D8
:1034E0007FF804901848008806F0DEFF03900499E6
:1034F00006F056FE059006F09FFF80B2014606904A
:103500001248FEF7F7FD1348B0F92E00019006F0BF
:10351000B3FF029001F0E7F804900D48008806F030
:10352000C3FF0390049906F03BFE059006F084FF6C
:1035300080B223E000E1000000080040FC01002010
:1035400000020020060200205E020020000400406D
:1035500060020020080200200000204164020020D8
:10356000000020C18002002004020020000080C072
:103570003E0200203C02002040020020014606904E
:10358000FD48FEF7B9FDFD480088022835D1FC480A
:10359000B0F93000019006F06FFF029001F020F8C2
:1035A0000490F848008806F07FFF0390049906F025
:1035B000F7FD059006F040FF80B201460690EE4808
:1035C000FEF798FDEE48B0F93200019006F054FF86
:1035D000029001F088F80490EB48008806F064FF40
:1035E0000390049906F0DCFD059006F025FF80B2FB
:1035F00001460690E048FEF77FFDE048008803287A
:1036000067D1DF48B0F92000019006F035FF029045
:1036100000F0E6FF0490DB48008806F045FF0390C9
:10362000049906F0BDFD059006F006FF80B2014644
:103630000690D148FEF75EFDD148B0F92200019016
:1036400006F01AFF029001F04EF80490CE48008870
:1036500006F02AFF0390049906F0A2FD059006F0FB
:10366000EBFE80B201460690C348FEF745FD4FF0E1
:103670008141C648006806F02BFF24D8C449C348DE
:10368000006807F025F81ED8C149C248006807F055
:103690001FF818D84FF08141BE48006806F018FFA7
:1036A00011D8BD480088401C00B2BB4908800846BC
:1036B000B0F90000C8280CDB0020B8490870C82009
:1036C000B549088005E00020B34908800120B349CE
:1036D0000870B349AD48006806F0FAFE2DD8B1492C
:1036E000AA48006806F0F4FF27D8AE49A948006848
:1036F00006F0EEFF21D8AA49A648006806F0E8FEC9
:103700001BD8A9480088401C00B2A7490880084679
:10371000B0F90000642816DB98480088401C00B20D
:10372000964908800846B0F90000032801DB032011
:10373000088064209C49088005E000209A490880A0
:103740000120964908709948007804287ED198484D
:103750000088A8BB8A48B0F90400019006F08CFEEE
:10376000029000F03DFF04908648008806F09CFE21
:103770000390049906F014FD059006F05DFE80B2FA
:10378000014606907C48FEF7B5FC7D48B0F906007E
:10379000019006F071FE029000F0A5FF04907A48B7
:1037A000008806F081FE0390049906F0F9FC05906C
:1037B00006F042FE80B2014606906F48FEF79CFC80
:1037C0007B480088012835D16D48B0F9140001907C
:1037D00006F052FE029000F003FF04906948008852
:1037E00006F062FE0390049906F0DAFC059006F0FC
:1037F00023FE80B2014606905F48FEF77BFC6048DE
:10380000B0F91600019006F037FE029000F06BFF51
:1038100004905D48008806F047FE0390049906F086
:10382000BFFC059006F008FE80B2014606905248A3
:10383000FEF762FC5E480088022869D15048B0F962
:103840002000019006F018FE029000E093E000F0E6
:10385000C7FE04904B48008806F026FE03900499AA
:1038600006F09EFC059006F0E7FD80B2014606904A
:103870004148FEF73FFC4248B0F92200019006F0B3
:10388000FBFD029000F02FFF04903F48008806F0F7
:103890000BFE0390049906F083FC059006F0CCFD26
:1038A00080B2014606903448FEF726FC4FF0814175
:1038B0003648006806F00CFE24D8354933480068C5
:1038C00006F006FF1ED832493248006806F000FFB5
:1038D00018D84FF081412F48006806F0F9FD11D843
:1038E0002D480088401C00B22B4908800846B0F9DA
:1038F0000000C8280CDB002028490870C820264991
:10390000088005E000202449088001202349087030
:1039100023491E48006806F0DBFD4DD821491B48AD
:10392000006806F0D5FE47D81E491A48006806F020
:10393000CFFE41D81A491748006806F0C9FD3BD8A8
:103940001C480088401C00B21A4908800846B0F99B
:103950000000C82836DB16480088401C00B2144915
:1039600008800846B0F90000022801DB0220088028
:10397000C8201049088025E00004004040020020D3
:10398000080200205E020020600200206402002085
:10399000000080C08002002004020020FC01002002
:1039A00000002041000020C1420200200602002049
:1039B00044020020460200200020FE490880012029
:1039C000FD490870FD48007805287CD1FC48008836
:1039D00058B1FB480088042807D0F9480088082817
:1039E00003D0F74800880C2835D1F648B0F92400F8
:1039F000019006F041FD029000F0F2FD0490F248C3
:103A0000008806F051FD0390049906F0C9FB05906B
:103A100006F012FD80B201460690EC48FEF76AFB04
:103A2000E848B0F92600019006F026FD029000F06B
:103A30005AFE0490E648008806F036FD039004998B
:103A400006F0AEFB059006F0F7FC80B2014606904A
:103A5000DE48FEF751FBDA48008801280BD0D84831
:103A60000088052807D0D6480088092803D0D44804
:103A700000880D2837D1D348B0F92800019006F00E
:103A8000FBFC029000F0ACFD0490CF48008806F0EB
:103A90000BFD0390049906F083FB059006F0CCFC27
:103AA00080B201460690C948FEF724FBC548B0F92C
:103AB0002A00019006F0E0FC029000F014FE049051
:103AC000C348008800E035E106F0EEFC039004995D
:103AD00006F066FB059006F0AFFC80B2014606904A
:103AE000BA48FEF709FBB648008802280BD0B44854
:103AF0000088062807D0B24800880A2803D0B048BA
:103B000000880E2835D1AF48B0F93000019006F09A
:103B1000B3FC029000F064FD0490AB48008806F00E
:103B2000C3FC0390049906F03BFB059006F084FC6F
:103B300080B201460690A548FEF7DCFAA148B0F92C
:103B40003200019006F098FC029000F0CCFD049049
:103B50009F48008806F0A8FC0390049906F020FB1B
:103B6000059006F069FC80B2014606909748FEF782
:103B7000C3FA93480088032807D091480088072893
:103B800003D08F4800880B2835D18E48B0F92C001F
:103B9000019006F071FC029000F022FD04908A482A
:103BA000008806F081FC0390049906F0F9FA05906C
:103BB00006F042FC80B2014606908448FEF79AFA6D
:103BC0008048B0F92E00019006F056FC029000F0FB
:103BD0008AFD04907E48008806F066FC03900499F4
:103BE00006F0DEFA059006F027FC80B2014606904A
:103BF0007648FEF781FA724800880F2867D171482D
:103C0000B0F92000019006F037FC029000F0E8FCCB
:103C100004906D48008806F047FC0390049906F074
:103C2000BFFA059006F008FC80B20146069067488E
:103C3000FEF760FA6348B0F92200019006F01CFC20
:103C4000029000F050FD04906148008806F02CFCC2
:103C50000390049906F0A4FA059006F0EDFB80B2FB
:103C6000014606905948FEF747FA4FF081415948FE
:103C7000006806F02DFC24D857495648006806F025
:103C800027FD1ED854495548006806F021FD18D874
:103C90004FF081415148006806F01AFC11D8504895
:103CA0000088401C00B24E4908800846B0F9000068
:103CB000C8280CDB002040490870C820484908800B
:103CC00005E000204649088001203B49087045492D
:103CD0004048006806F0FCFB2DD843493D48006889
:103CE00006F0F6FC27D840493C48006806F0F0FC96
:103CF00021D83C493948006806F0EAFB1BD83B480C
:103D00000088401C00B2394908800846B0F900001C
:103D1000322816DB2A480088401C00B22849088057
:103D20000846B0F900000F2801DB0F200880322080
:103D30002E49088005E000202C49088001201E49FA
:103D400008701E48007806287DD12948008801287F
:103D50007AD1284801782848007804F054FA0020E5
:103D60002649087057E00020254908701BE02548C7
:103D70002249097800EBC1002149097830F8210077
:103D800000B22149B1F900101C4A127811441F4AAF
:103D900002EB81011A4A127821F8120018480078C3
:103DA000401C17490870164800780228DFDB1348CA
:103DB00000782DE046020020FC01002006020020D1
:103DC00048020020080200205E020020000400409B
:103DD0006002002064020020000080C080020020F9
:103DE0000402002000002041000020C14A020020FF
:103DF0004C0200205B0200205A02002057020020E3
:103E000056020020C008002054020020C8070020ED
:103E1000401CFE490870FD480078FD490968884249
:103E2000A1DBFB480088FB490988084400B2F94936
:103E30000880F9480178F948007804F0E4F9002096
:103E4000F24908702AE031E17AE00020F449087074
:103E50001BE0F448ED49097800EBC100F04909780E
:103E600030F8210000B2EB49B1F90010E74A1278AE
:103E70001144ED4A02EB8101E94A127821F812005F
:103E8000E7480078401CE6490870E54800780228B9
:103E9000DFDBDE480078401CDC490870DB48007836
:103EA000DB4909688842D0DBD9480088D9490988AC
:103EB000084400B2D7490880DC480178D648007829
:103EC00004F0A1F90020D149087028E00020D4496D
:103ED00008701BE0D348CD49097800EBC100D049F8
:103EE000097830F8210000B2CA49B1F90010C74A78
:103EF00012781144CC4A02EB8101C94A127821F8A8
:103F00001200C7480078401CC5490870C4480078B2
:103F10000228DFDBBD480078401CBC490870BB4864
:103F20000078BB4909688842D0DBB9480088B949A4
:103F30000988084400B2B74908800120BC490870CC
:103F40000020BC490880B848BB49B1F9001030F9DD
:103F50002100019006F090FA029000F041FB0490DD
:103F6000B648008806F0A0FA0390049906F018F904
:103F7000059006F061FA80B201460690B048FEF75F
:103F8000B9F8A948AC49B1F9001000EB8100B0F9CB
:103F90000200019006F070FA029000F0A4FB049079
:103FA000A848008806F080FA0390049906F0F8F813
:103FB000059006F041FA80B201460690A048FEF74F
:103FC0009BF89448B0F90000401E9B49B1F90010DD
:103FD000884231D14FF081419B48006806F078FA61
:103FE00024D89A499848006806F072FB1ED8974971
:103FF0009748006806F06CFB18D84FF08141944850
:10400000006806F065FA11D892480088401C00B29A
:10401000904908800846B0F90000C8280CDB002051
:1040200083490870C8208B49088005E00020894931
:10403000088001207E49087087498348006806F09F
:1040400047FA34D885498048006806F041FB2ED8ED
:1040500082497F48006806F03BFB28D87E497C48AF
:10406000006806F035FA22D87D480088401C00B26E
:104070007B4908800846B0F90000C8281ADB6E4862
:104080000088401C00B26C4908800846B0F9000066
:104090006049B1F90010884205DB5E480088401E87
:1040A00000B265490880C8206D49088002E0002000
:1040B0006B4908806B48007807287DD16A480088E2
:1040C000A8BB6A48B0F90400019006F0D5F9029047
:1040D00000F086FA04905948008806F0E5F903904C
:1040E000049906F05DF8059006F0A6F980B2014645
:1040F00006905348FDF7FEFF5C48B0F906000190BA
:1041000006F0BAF9029000F0EEFA04904D480088EB
:1041100006F0CAF90390049906F042F8059006F0FB
:104120008BF980B2014606904548FDF7E5FF4E4801
:104130000088012835D14D48B0F91400019006F0EF
:104140009BF9029000F04CFA04903C48008806F07D
:10415000ABF90390049906F023F8059006F06CF98A
:1041600080B2014606903648FDF7C4FF3F48B0F9DB
:104170001600019006F080F9029000F0B4FA049065
:104180003048008806F090F90390049906F008F88A
:10419000059006F051F980B2014606902848FDF7D7
:1041A000ABFF3148008802286AD13048B0F91000CE
:1041B000019006F061F900E0E9E1029000F010FAE8
:1041C00004901E48008806F06FF90390049905F0EA
:1041D000E7FF059006F030F980B2014606901848D6
:1041E000FDF788FF2148B0F91200019006F044F96C
:1041F000029000F078FA04901248008806F054F912
:104200000390049905F0CCFF059031E0570200209F
:10421000C4020020540200205C0200205B02002047
:1042200056020020C0080020C80700205D020020C0
:10423000FC0100204C020020580200205E020020F9
:10424000000400406002002064020020000080C0E2
:10425000800200200402002000002041000020C154
:104260004E0200200602002050020020080200201A
:1042700006F0E2F880B201460690CB48FDF73CFF1D
:10428000CA480088032835D1C948B0F90C0001900C
:1042900006F0F2F8029000F0A3F90490C5480088F7
:1042A00006F002F90390049905F07AFF059006F0F4
:1042B000C3F880B201460690BB48FDF71BFFBC481F
:1042C000B0F90E00019006F0D7F8029000F00BFA5A
:1042D0000490B948008806F0E7F80390049905F0C7
:1042E0005FFF059006F0A8F880B201460690AE4840
:1042F000FDF702FFAD480088042835D1AC48B0F97D
:104300001C00019006F0B8F8029000F069F90490E2
:10431000A848008806F0C8F80390049905F040FF0B
:10432000059006F089F880B2014606909E48FDF798
:10433000E1FE9F48B0F91E00019006F09DF8029042
:1043400000F0D1F904909C48008806F0ADF8039085
:10435000049905F025FF059006F06EF880B201463D
:1043600006909148FDF7C8FE90480088052835D191
:104370008F48B0F91400019006F07EF8029000F02A
:104380002FF904908B48008806F08EF8039004996A
:1043900005F006FF059006F04FF880B20146069042
:1043A0008148FDF7A7FE8248B0F91600019006F09B
:1043B00063F8029000F097F904907F48008806F0B7
:1043C00073F80390049905F0EBFE059006F034F8BD
:1043D00080B2014606907448FDF78EFE734800884F
:1043E000062835D17248B0F91000019006F044F863
:1043F000029000F0F5F804906E48008806F054F83A
:104400000390049905F0CCFE059006F015F880B2F3
:10441000014606906448FDF76DFE6548B0F912004C
:10442000019006F029F8029000F05DF904906248CE
:10443000008806F039F80390049905F0B1FE059064
:1044400005F0FAFF80B2014606905748FDF754FE8A
:1044500056480088072867D15548B0F90C000190EC
:1044600006F00AF8029000F0BBF80490514800886A
:1044700006F01AF80390049905F092FE059005F0F5
:10448000DBFF80B2014606904748FDF733FE4848FF
:10449000B0F90E00019005F0EFFF029000F023F953
:1044A00004904548008805F0FFFF0390049905F04B
:1044B00077FE059005F0C0FF80B2014606903A48AD
:1044C000FDF71AFE4FF081413C48006806F000F805
:1044D00024D83B493948006806F0FAF81ED8384914
:1044E0003848006806F0F4F818D84FF08141354894
:1044F000006805F0EDFF11D833480088401C00B279
:10450000314908800846B0F9000096280CDB0020ED
:104510002E490870C8202C49088005E000202A494F
:10452000088001202949087029492448006805F0BD
:10453000CFFF2DD827492148006806F0C9F827D8B1
:1045400024492048006806F0C3F821D820491D48B6
:10455000006805F0BDFF1BD81F480088401C00B252
:104560001D4908800846B0F90000962816DB0F4860
:104570000088401C00B20D4908800846B0F90000D0
:10458000072801DB0720088096201349088005E0F2
:1045900000201149088001200C49087001210F48B2
:1045A000FDF7EAFD07B000BD000400405002002006
:1045B000080200205E020020600200206402002049
:1045C000000080C08002002004020020FC010020C6
:1045D00000002041000020C15202002000080040DD
:1045E0002DE9F04704468349B1F9000005F044FF86
:1045F0000546214606F09DF87F4908607F4801681E
:104600007F48006805F098FF07467E4801687A48B1
:10461000006806F099F881467B480168484605F035
:104620008BFF0646744801687848006805F084FFEF
:104630008046314605F0B4FD0546394605F0B0FD2B
:1046400073490860734800680A2802DD0020714938
:104650000860694800686B496E4A126841F8220098
:104660006C480068401C6B4908606B4962480068F0
:1046700005F02EFF0ED269495F48006806F028F861
:1046800008D25D4801685E48006805F089FD5C4914
:10469000086002E000205A4908604FF08141564806
:1046A000006805F015FF08D85D495348006806F01A
:1046B0000FF802D80020564908605A49544800684B
:1046C00005F006FF02D8574851490860564950483E
:1046D000006805F0FDFF02D853484D4908604C487A
:1046E0000068BDE8F0872DE9F04704464149B1F97B
:1046F000020005F0C1FE0546214606F01AF84B49B6
:1047000008604B4801684B48006805F015FF0746F4
:1047100049484A4A126850F822104448006806F096
:1047200013F8814646480168484605F005FF0646ED
:104730003E4801684348006805F0FEFE8046314669
:1047400005F02EFD0546394605F02AFD3E49086074
:104750003A4800680A2802DD0020384908603348DA
:1047600001683548354A126840F82210334800681D
:10477000401C3249086028492C48006805F0A8FE12
:104780000ED226492948006805F0A2FF08D2274822
:1047900001682848006805F003FD2649086002E02A
:1047A0000020244908604FF081412048006805F04E
:1047B0008FFE08D81A491D48006805F089FF02D805
:1047C00000202149086017491F48006805F080FE55
:1047D00002D814481C49086013491B48006805F0BA
:1047E00077FF02D810481849086017480068BDE8EC
:1047F000F08700000000002064020020700200200A
:104800007C02002008080020740200206C020020B6
:10481000780200209C02002000000C4200000CC224
:10482000000080C0000048C3000048438002002010
:104830008C0200209802002030080020A0020020F6
:1048400090020020880200209402002008B5012177
:104850000420FCF723FD01213048FCF734FB4820FD
:104860008DF803000220ADF8000069462C48FCF7E3
:1048700059FA48208DF803000420ADF8000069467D
:104880002748FCF74FFA48208DF803000820ADF8C0
:10489000000069462248FCF745FA48208DF80300DD
:1048A0001020ADF8000069461D48FCF73BFA08BD32
:1048B00010B502211A48FCF7C8FA70B10421184853
:1048C000FCF7C3FA48B108211548FCF7BEFA20B13D
:1048D00010211348FCF7B9FAF0B91E20FDF791FE3C
:1048E00002210F48FCF7B1FA08B9012010BD0421DC
:1048F0000B48FCF7AAFA08B90220F7E70821084894
:10490000FCF7A3FA08B90320F0E710210448FCF7EC
:104910009CFA08B90420E9E70020E7E7000230002C
:10492000000801402DE9F041FE480088C8B9FFF7B2
:10493000BFFF012815D1FC480088401C00B2FA498D
:1049400008800846B0F90000082801DB0020088034
:10495000F548008818B1F4480088072801D1FDF710
:10496000E0FFF048008801287DD1EF48008800284A
:10497000FAD1FFF79DFF01280CD1EC480088401CBC
:1049800000B2EA4908800846B0F90000032801DBBC
:1049900000200880E548008800BBFFF789FF022857
:1049A00007D1E3480168E348006805F0F9FBE149F5
:1049B0000860FFF77DFF032807D1DD480168DD4867
:1049C000006805F0C1FEDB4908600021D948006895
:1049D00005F07EFD02D80020D6490860D348008843
:1049E000012820D1FFF764FF022807D1D2480168CF
:1049F000D248006805F0D4FBD0490860FFF758FFA3
:104A0000032807D1CC480168CC48006805F09CFE1B
:104A1000CA4908600021C948006805F059FD02D85C
:104A20000020C6490860C1480088022822D1FFF74B
:104A30003FFF022807D1C2480168C248006805F05C
:104A4000AFFBC0490860FFF733FF032807D1BC481C
:104A50000168BC48006805F077FEBA49086000218B
:104A6000B848006800E005E005F032FD02D80020FB
:104A7000B4490860AB48008801287DD1AA48008865
:104A8000012879D1FFF714FF01280CD1A74800882D
:104A9000401C00B2A54908800846B0F90000032870
:104AA00001DB00200880A148008800BBFFF700FF61
:104AB000022807D19E480168A348006805F070FBF2
:104AC000A1490860FFF7F4FE032807D19848016860
:104AD0009D48006805F038FE9B49086000219A480F
:104AE000006805F0F5FC02D80020974908608F485F
:104AF0000088012820D1FFF7DBFE022807D18E486D
:104B000001689248006805F04BFB90490860FFF788
:104B1000CFFE032807D1884801688C48006805F05B
:104B200013FE8A49086000218848006805F0D0FC1F
:104B300002D80020854908607C480088022822D1DC
:104B4000FFF7B6FE022807D17D480168804800685B
:104B500005F026FB7E490860FFF7AAFE032807D16F
:104B6000774801687A48006805F0EEFD78490860EA
:104B700000217748006800E005E005F0A9FC02D8B4
:104B80000020734908606748008801287ED1664884
:104B900000880228FAD1FFF78BFE01280CD1634868
:104BA0000088401C00B2614908800846B0F9000046
:104BB000032801DB002008805C48008860BBFFF709
:104BC00077FE02280DD15A48006805F0BDFA064666
:104BD000604A614B04F012FD044604F0DDFC5449C8
:104BE0000860FFF765FE03280DD15148006805F005
:104BF000ABFA0646574A584B05F0BCF9044604F098
:104C0000CBFC4B49086000214948006805F060FC76
:104C100002D80020464908604448008801282CD169
:104C2000FFF746FE02280DD14548006805F08CFAD2
:104C30000646484A484B04F0E1FC044604F0ACFC4C
:104C40003F490860FFF734FE03280DD13C48006857
:104C500005F07AFA06463F4A3F4B05F08BF90446C9
:104C600004F09AFC3649086000213548006805F0D8
:104C70002FFC02D80020324908602C480088022806
:104C80002ED1FFF715FE02280FD100E028E02A48B8
:104C9000006805F059FA06462E4A2F4B04F0AEFC88
:104CA000044604F079FC24490860FFF701FE03285C
:104CB0000DD12148006805F047FA0646254A264BE3
:104CC00005F058F9044604F067FC1B490860002110
:104CD0001948006805F0FCFB02D80020164908605E
:104CE0001048008801287DD10F4800880428FAD197
:104CF000FFF7DEFD01280CD10C480088401C00B2F3
:104D00000A4908800846B0F90000072801DB0020A6
:104D100008801248007800287ED10448008800B935
:104D20001EE026E0A6020020A4020020A802002027
:104D3000AC0200206C020020B402002070020020AF
:104D4000B002002074020020880200208C020020A3
:104D5000900200202D431CEBE2361A3F0602002091
:104D6000FFF7A6FD022804D10120FE490870FDF7D7
:104D7000D8FDFD48008801280AD1FFF799FD0228D7
:104D800006D1F84908700020F8490880FDF7C9FDF0
:104D9000F548008802280BD1FFF78AFD022807D1C9
:104DA0000320F04908700020F1490880FDF7B9FDA3
:104DB000ED48008803280BD1FFF77AFD022807D1C0
:104DC0000420E84908700020EA490880FDF7A9FDA1
:104DD000E548008804280DD1FFF76AFD022809D1B3
:104DE000052000E02DE0DF4908700020E24908803E
:104DF000FDF797FDDC480088052812D1FFF758FD24
:104E000002280ED10620D74908700120DB4908800E
:104E10000020DB49088000E014E0DA490880FDF753
:104E200080FDD148008806281AD1FFF741FD0228ED
:104E300016D10720CB4908700020D3490880FDF720
:104E400070FD0DE0FFF734FD032809D10020C549AE
:104E50000870FDF766FD0020CC490860CC49088049
:104E6000CC48008801287DD1CB480088052879D11D
:104E7000FFF71EFD01280CD1BB480088401C00B282
:104E8000B94908800846B0F90000042801DB002079
:104E90000880B5480088F8B9FFF70AFD022804D158
:104EA000BE480078401CBD490870FFF701FD03288B
:104EB00004D1BA480078401EB8490870B748007855
:104EC000012802DC0120B5490870B44800780A289E
:104ED00002DB0A20B1490870A348008801281FD1CD
:104EE000FFF7E6FC022804D1AD480078401CAC492D
:104EF0000870FFF7DDFC032804D1A9480078401EA4
:104F0000A7490870A6480078012802DC0120A449BE
:104F10000870A34800780A2802DB0A20A04908701C
:104F200091480088022821D1FFF7C2FC022804D151
:104F30009C480078401C9B490870FFF7B9FC032887
:104F400004D198480078401E96490870954800782A
:104F5000012802DC012093490870924800780A2851
:104F600004DB00E026E00A208E4908707E480088B5
:104F700003281FD1FFF79CFC022804D18A4800783F
:104F8000401C89490870FFF793FC032804D1864828
:104F90000078401E8449087083480078012802DCAC
:104FA000012081490870804800780A2802DB0A2025
:104FB0007D4908707748008801287DD176480088AF
:104FC0000628FAD1FFF774FC01281DD16648008835
:104FD000401C00B2644908800846B0F900001C2853
:104FE00001DB002008806048008858B15E480088D6
:104FF000072807D05C4800880E2803D05A4800884C
:10500000152801D1FDF78DFC57480088C0B9FFF77E
:105010004FFC022804D165480088401C6349088081
:10502000FFF746FC032804D160480088401E5F4912
:1050300008805E480088002802DC00205B49088068
:1050400049480088012818D1FFF732FC022804D112
:1050500057480088401C56490880FFF729FC032860
:1050600004D153480088401E5149088050480088A8
:10507000002802DC00204E4908803B4800880228B6
:105080001DD1FFF715FC022805D14A480088401CB5
:1050900000B248490880FFF70BFC032805D14548BA
:1050A0000088401E00B2434908804248B0F9000021
:1050B000002804DC002000E052E33E4908802A4832
:1050C000008803281BD1FFF7F3FB022805D13948DC
:1050D0004088401C00B237494880FFF7E9FB0328AD
:1050E00005D134484088401E00B2324948803148DA
:1050F000B0F90200002802DC00202E4948801A483E
:10510000008804281BD1FFF7D3FB022805D12948CA
:105110008088401C00B227498880FFF7C9FB03281C
:1051200005D124488088401E00B222498880214849
:10513000B0F90400002802DC00201E4988800A48DB
:105140000088052846D1FFF7B3FB022805D119488E
:10515000C088401C01B21748C180FFF7A9FB032893
:1051600030D129E006020020A80200203C020020E5
:105170004002002044020020480200204C0200208F
:10518000580200205402002050020020000200209B
:1051900004020020A6020020A40200205A020020DF
:1051A0005B0200205C0200205D0200205E02002005
:1051B0006002002008020020FE48C088401E01B2A4
:1051C000FC48C180FB48B0F90600002802DC002141
:1051D000F848C180F848008806281BD1FFF768FB13
:1051E000022805D1F3480089401C00B2F14908812A
:1051F000FFF75EFB032805D1EE480089401E00B290
:10520000EC490881EB48B0F90800002802DC0020D6
:10521000E8490881E848008807281BD1FFF748FBC8
:10522000022805D1E3484089401C01B2E148418190
:10523000FFF73EFB032805D1DE484089401E01B23E
:10524000DC484181DB48B0F90A00002802DC00217B
:10525000D8484181D848008808281BD1FFF728FB8F
:10526000022805D1D3488089401C00B2D1498881E9
:10527000FFF71EFB032805D1CE488089401E00B2EF
:10528000CC498881CB48B0F90C00002802DC002012
:10529000C8498881C848008809281BD1FFF708FB46
:1052A000022805D1C348C089401C01B2C148C18150
:1052B000FFF7FEFA032805D1BE48C089401E01B29F
:1052C000BC48C181BB48B0F90E00002802DC0021B7
:1052D000B848C181B84800880A281BD1FFF7E8FA0E
:1052E000022805D1B348008A401C00B2B1490882A7
:1052F000FFF7DEFA032805D1AE48008A401E00B24F
:10530000AC490882AB48B0F91000002802DC00204C
:10531000A8490882A84800880B281BD1FFF7C8FAC3
:10532000022805D1A348408A401C01B2A14841820D
:10533000FFF7BEFA032805D19E48408A401E01B2FD
:105340009C4841829B48B0F91200002802DC0021F1
:1053500098484182984800880C281BD1FFF7A8FA8A
:10536000022805D19348808A401C00B29149888266
:10537000FFF79EFA032805D18E48808A401E00B2AE
:105380008C4988828B48B0F91400002802DC002088
:1053900088498882884800880D281BD1FFF788FA41
:1053A000022805D18348C08A401C01B28148C182CD
:1053B000FFF77EFA032805D17E48C08A401E01B25D
:1053C0007C48C1827B48B0F91600002802DC00212D
:1053D0007848C182784800880E281BD1FFF768FA08
:1053E000022805D17348008B401C00B27149088324
:1053F000FFF75EFA032805D16E48008B401E00B20D
:105400006C4908836B48B0F91800002802DC0020C2
:1054100068490883684800880F281BD1FFF748FABD
:10542000022805D16348408B401C01B2614841838A
:10543000FFF73EFA032805D15E48408B401E01B2BB
:105440005C4841835B48B0F91A00002802DC002167
:10545000584841835848008810281BD1FFF728FA84
:10546000022805D15348808B401C00B251498883E3
:10547000FFF71EFA032805D14E48808B401E00B26C
:105480004C4988834B48B0F91C00002802DC0020FE
:10549000484988834848008811281BD1FFF708FA3B
:1054A000022805D14348C08B401C01B24148C1834A
:1054B000FFF7FEF9032805D13E48C08B401E01B21C
:1054C0003C48C1833B48B0F91E00002802DC0021A3
:1054D0003848C1833848008812281BD1FFF7E8F903
:1054E000022805D13348008C401C00B231490884A1
:1054F000FFF7DEF9032805D12E48008C401E00B2CC
:105500002C4908842B48B0F92000002802DC002038
:10551000284908842848008813281BD1FFF7C8F9B8
:10552000022805D12348408C401C01B22148418407
:10553000FFF7BEF9032805D11E48408C401E01B27A
:105540001C4841841B48B0F92200002802DC0021DD
:10555000184841841848008814281BD1FFF7A8F97F
:10556000022805D11348808C401C00B21149888460
:10557000FFF79EF9032805D10E48808C401E00B22B
:105580000C4988840B48B0F92400002802DC002074
:105590000849888408480088152821D1FFF788F930
:1055A000022805D10348C08C401C01B20148C184C7
:1055B00004E0000008020020A8020020FFF778F9AC
:1055C000032805D1FE48C08C401E01B2FC48C184AE
:1055D000FB48B0F92600002802DC0021F848C1840D
:1055E000F848008816281BD1FFF762F9022805D178
:1055F000F348008D401C00B2F1490885FFF758F9C7
:10560000032805D1EE48008D401E00B2EC49088504
:10561000EB48B0F92800002802DC0020E8490885A2
:10562000E848008817281BD1FFF742F9022805D166
:10563000E348408D401C01B2E1484185FFF738F94D
:10564000032805D1DE48408D401E01B2DC4841856B
:10565000DB48B0F92A00002802DC0021D848418547
:10566000D848008818281BD1FFF722F9022805D155
:10567000D348808D401C00B2D1498885FFF718F9C6
:10568000032805D1CE48808D401E00B2CC498885C4
:10569000CB48B0F92C00002802DC0020C8498885DE
:1056A000C848008819281BD1FFF702F9022805D144
:1056B000C348C08D401C01B2C148C185FFF7F8F84E
:1056C000032805D1BE48C08D401E01B2BC48C1852B
:1056D000BB48B0F92E00002802DC0021B848C18583
:1056E000B84800881A281BD1FFF7E2F8022805D134
:1056F000B348008E401C00B2B1490886FFF7D8F8C5
:10570000032805D1AE48008E401E00B2AC49088681
:10571000AB48B0F93000002802DC0020A849088618
:10572000A84800881B281BD1FFF7C2F8022805D122
:10573000A348408E401C01B2A1484186FFF7B8F84B
:10574000032805D19E48408E401E01B29C484186E8
:105750009B48B0F93200002802DC002198484186BD
:1057600099480088012875D198480088072871D188
:10577000FFF79EF8022802D1002092490880FFF727
:1057800097F8032802D101208E4908808D480088AF
:10579000F0BB8F480078D8BBFFF78AF8012841D1C9
:1057A00000208C4908708C49087025E000208B4946
:1057B000087018E082488849097800EB8100874921
:1057C000097830F8110081B28548824A127820F8B1
:1057D000121080480078401C7E4908707F4800788D
:1057E000401C7E4908707D4800780228E2DB7A4838
:1057F0000078401C78490870774800780D28D5DB80
:10580000784800887649888677480088C88600E00E
:1058100008E03822754803F076F801206C490870DA
:10582000FDF77FF867480088012813D168480078A1
:1058300080B9FFF73DF801280CD1002062490880AB
:10584000604908806A4908706A4908606A490880A6
:10585000FDF767F8BDE8F0811CB55C4800880028BA
:105860006FD15848B0F9000020B1012824D0022897
:1058700066D143E061A200210846FDF76EFA614857
:10588000012102681220FDF7B1F95FA20221002078
:10589000FDF757F95E48032102681220FDF7A6F9CB
:1058A0005CA204210020FDF74CF95C480521026848
:1058B0001220FDF79BF943E050A200210846FDF7B6
:1058C00040F95048012102681220FDF78FF94EA2DD
:1058D00002210020FDF741FA4D4803210268122001
:1058E000FDF784F94BA204210020FDF72AF94B486B
:1058F000052102681220FDF779F921E03FA200217D
:105900000846FDF71EF93F48012102681220FDF705
:105910006DF93DA202210020FDF713F93C48032157
:1059200002681220FDF762F93AA204210020FDF777
:1059300014FA3A48052102681220FDF757F900BF12
:1059400000BF22480088012839D11E48B0F9000064
:1059500020B1012824D0022821D188E030A20021E2
:105960000846FDF7FAF93048012102681220FDF7D8
:105970003DF92EA202210020FDF7E3F82D48032176
:1059800002681220FDF732F92BA204210020FDF756
:10599000D8F82B48052102681220FDF727F98BE083
:1059A0001FA200210846FDF7CCF81F48012102681C
:1059B0001220FDF71BF91DA20221002042E07CE02D
:1059C00008020020A8020020A6020020A402002055
:1059D000BB020020BA020020B8020020B902002059
:1059E000C80200205E0200206002002000FC0108C6
:1059F0000602002000020020040200204B705F58C5
:105A00003A0000006C0200204B695F583A00000029
:105A1000700200204B645F583A00000074020020BE
:105A20004B705F593A000000880200204B695F59B3
:105A30003A0000008C0200204B645F593A000000DD
:105A400090020020FDF789F9FE4803210268122028
:105A5000FDF7CCF8AFF2200204210020FDF771F829
:105A6000F948052102681220FDF7C0F824E0AFF2E2
:105A7000500200210846FDF764F8F448012102684D
:105A80001220FDF7B3F8AFF25C0202210020FDF70F
:105A900058F8EC48032102681220FDF7A7F8AFF28E
:105AA000680204210020FDF758F9E7480521026843
:105AB0001220FDF79BF800BF00BFE54800880228D0
:105AC0006FD1E448B0F9000020B1012824D00228A9
:105AD00066D143E0E0A200210846FDF73EF9E04828
